S02B00006275696C642F72656C656173652F74666C6974655F6D6963726F5F6D616769635F77616E642E733347
S3150800000000100020311300082D1300082D130008D6
S315080000102D1300082D1300082D1300082D130008B2
S315080000202D1300082D1300082D1300082D130008A2
S315080000302D1300082D1300082D1300082D13000892
S315080000402D1300082D1300082D1300082D13000882
S315080000502D1300082D1300082D1300082D13000872
S315080000602D1300082D1300082D130008E129010897
S31508000070ED2901082D1300082D130008191C000886
S315080000802D1300082D1300082D1300082D13000842
S315080000902D130008B54600082D1300082D13000877
S315080000A02D1300080D480008E94700082D1300081D
S315080000B02D1300082D1300082D1300082D13000812
S315080000C02D1300082D1300082D1300082D13000802
S315080000D02D1300082D1300082D1300082D130008F2
S315080000E02D1300082D1300082D1300082D130008E2
S315080000F02D1300082D1300082D1300082D130008D2
S315080001002D1300082D1300082D1300082D130008C1
S315080001102D1300082D1300082D1300082D130008B1
S315080001202D1300082D1300082D1300082D130008A1
S315080001302D1300082D1300082D1300082D13000891
S315080001402D1300082D1300082D1300083179000817
S315080001502D1300082D1300082D1300082D13000871
S315080001602D1300082D1300082D1300082D13000861
S3150800017010B5054C237833B9044B13B1044800E095
S3150800018000BF0123237010BDB4100020000000003A
S31508000190D0C4010808B5034B1BB10349034800E066
S315080001A000BF08BD00000000B8100020D0C4010838
S315080001B0A3F5803A704700BF174B002B08BF134BB7
S315080001C09D46FFF7F5FF00218B460F461348144A54
S315080001D0121A14F028F80E4B002B00D098470D4B36
S315080001E0002B00D098470020002104000D000D4880
S315080001F0002802D00C4800E000BF13F0E3FF2000FF
S31508000200290012F063FF13F0B7FF00BF00000800D3
S31508000210000000000000000000100020B4100020BC
S31508000220543C002000000000000000000F2070472A
S31508000230082808B504D00FDC022809DC002809DDE7
S31508000240012304220921022006F0BCFB002008BD78
S315080002500428F5D09F2106E02028F1D0402807D0B1
S315080002601028F7D18821044801F04EF80E20EEE751
S31508000270012304220821E6E7A45D010808B5012147
S315080002803A2004F0D3FD12F01DFB2020FFF7D0FF23
S31508000290BDE8084000F0A2BF01213A2004F0C6BD1F
S315080002A08022014B1A64704700D003508022014B0C
S315080002B01A64704700E003500020704770B5144672
S315080002C00D4640F080010A48FFF7F0FF05F0E3FE0F
S315080002D0074E2544AC4203D1FFF7E2FF002070BD6C
S315080002E00021304605F0D7FE04F8010BF2E700BFFF
S315080002F000000A5038B50C46074D00F07F01284625
S31508000300FFF7D4FF05F0C7FE2146284605F0C3FED1
S31508000310FFF7C6FF002038BD00000A5008B5802147
S315080003206B20FFF7E7FF642007F086F9002008BD79
S3150800033073B50C46164601210DF107020546FFF76F
S31508000340BDFF48B99DF80730284623EA0601214330
S315080003508DF80710FFF7CEFF02B070BD70B5264CBA
S315080003608EB0264601AD0FCE14340FC50FCC06ADA0
S315080003700FC594E80F0085E80F00204B0121039371
S3150800038006AB05934FF480735720ADF81C3004F084
S315080003904DFD01213A2004F049FD002304220321E2
S315080003A0022006F00FFB022100230846012206F070
S315080003B009FB002304220121022006F003FB012386
S315080003C004220721002006F0FDFA0D4801A906F0CF
S315080003D00BF90C4B0C4A0020C3F8CC244FF0021240
S315080003E0C3F8C424A2F58032C3F8C8241C22C3F873
S315080003F0B4240EB070BD00BF685E0108A05A320072
S3150800040000000A5000C003500200030007B5FFF7BA
S31508000410A5FFFFF783FF012175200DF10702FFF7FE
S315080004204DFF9DF80730982B12D111216A20FFF74E
S3150800043061FF01216B20FFF75DFF1E2007F0FCF826
S31508000440C0213720FFF756FF002003B05DF804FBF4
S315080004501020FAE713B510EE100A12F0B9FF02469B
S315080004600B4600201A4913F035F90022194B12F0F1
S315080004704FFE13F0C7FA9FED187A07EE900AF4EECE
S31508000480C77AF1EE10FA1FDCF5EEC07AF1EE10FA33
S3150800049001D5DFED127AFCEEE77ACDED017A9DF80B
S315080004A0044019202146FFF725FF601C12F07EFF45
S315080004B002460B460020064913F00CF913F0A2FA7F
S315080004C000EE100A02B010BDF0EE477AE3E700BF6F
S315080004D000408F400000F03F00007F43000000000E
S315080004E010B5C0F3C101044603221B20FFF720FF05
S315080004F007221A2004EA0201FFF71AFF002010BD9E
S3150800050001460F221D20FFF713BF000013B504464E
S3150800051001211C200DF10702FFF7D0FE9DF80730D8
S3150800052003F0180010288DF8070019D009D868B10B
S31508000530082810D00C484FF4AB7100F0E5FE0120F6
S3150800054007E01828F6D14FF0685306E04FF06252DC
S31508000550226002B010BD4FF0645300202360F8E714
S315080005604FF06653F9E700BF055E01081FB504465C
S3150800057001A8FFF7CBFF062102AA3B20FFF79EFE44
S31508000580BDF80830DDED016ADBBA07EE103AB8EEC1
S31508000590C77A27EE267ABDF80A3084ED007ADBBAE8
S315080005A007EE103ABDF80C30B8EEC77ADBBA07EE9C
S315080005B0903AF8EEE77A27EE267A67EEA67A0020D2
S315080005C084ED017AC4ED027A04B010BD13B5044671
S315080005D001211B200DF10702FFF770FE9DF8073079
S315080005E003F0180010288DF8070016D009D860B156
S315080005F008280ED00A4840F27B1100F085FE01203B
S3150800060005E01828F6D1074B04E0074A226002B035
S3150800061010BD064B00202360F9E7054BFAE700BF3B
S31508000620055E010800007A3D0000FA3B00007A3CAE
S315080006300000FA3C1FB50446062102AA4320FFF72C
S315080006403DFE01A8FFF7C2FFBDF80830DDED016ADF
S31508000650DBBA07EE103AB8EEC77A27EE267ABDF867
S315080006600A3084ED007ADBBA07EE103ABDF80C3092
S31508000670B8EEC77ADBBA07EE903AF8EEE77A27EED5
S31508000680267A67EEA67A002084ED017AC4ED027A0E
S3150800069004B010BD13B504460DF1070201211C2054
S315080006A0FFF70CFE9DF807101C2021F018012143C6
S315080006B08DF80710FFF71EFE002002B010BD13B517
S315080006C004460DF1070201211B20FFF7F7FD9DF8EF
S315080006D007101B2021F0180121438DF80710FFF79A
S315080006E009FE002002B010BD002A14BF002308230B
S315080006F0002810B514BF0024382409B944F00704AB
S31508000700194608226B20FFF713FE3F2221466C206C
S31508000710FFF70EFE002010BD00290CBF0021E021C6
S3150800072008B508B141F00101E1223820FFF700FEC3
S31508000730002008BD13B50446042101AA3A20FFF794
S31508000740BDFD0020019B236002B010BD07B5012145
S315080007500DF107023A20FFF7B1FD9DF8070000F0FA
S31508000760010003B05DF804FB01212DE9F0430022E6
S3150800077085B080460846FFF7B7FF9FED760AFFF774
S3150800078069FE0520FFF7ACFE0020FFF798FF6846D4
S31508000790FFF71CFF322006F04FFF40211A20FFF713
S315080007A0A9FD44216A20FFF7A5FD78212320FFF73C
S315080007B0A1FD052006F040FF0221722001AAFFF7DD
S315080007C07DFDBDF804305BBA9BB2B3F5FC7FF0D370
S315080007D04FF000090C27782200212320FFF7A8FDF7
S315080007E00221722001AAFFF769FDBDF804404D46B3
S315080007F064BAA4B2B4FBF7F74E464C461FFA89F31F
S31508000800BB42C0F08A8096FBF7F607EE906A9DED2C
S31508000810007AF8EEE77A95FBF7F567EE877AC8ED82
S31508000820007A07EE905AF8EEE77A94FBF7F467EE4B
S31508000830877AC8ED017A07EE904AF8EEE77A67EE0E
S31508000840877A01AAC8ED027A02211320FFF736FD3E
S315080008509DF904309DF8058001AA0221152048EA71
S315080008600328FFF72BFD9DF904309DF8057001AAB2
S315080008700221172047EA0327FFF720FD002E9DF9DE
S3150800088004209DF80530B8BF0336002DB8BF0335E0
S31508000890002CB8BF033443EA0223A7EBA505A3EB54
S315080008A0A404A8EBA6062B12C6F307218DF806307A
S315080008B0132023128DF808308DF804108DF8056082
S315080008C08DF807508DF80940FFF714FD9DF80510BF
S315080008D01420FFF70FFD9DF806101520FFF70AFDF7
S315080008E09DF807101620FFF705FD9DF8081017203C
S315080008F0FFF700FD9DF809101820FFF7FBFC4022C2
S3150800090000216A20FFF714FD002211461046FFF762
S31508000910EBFE002005B0BDE8F08301AA0C21742087
S31508000920FFF7CCFC9DF90A209DF80B3009F1010967
S3150800093043EA02231E449DF90C209DF80D3043EA34
S3150800094002231D449DF90E209DF80F3043EA022329
S315080009501C4453E700007A4408B502460121752075
S31508000960FFF7ACFC002008BD00234FF07E52436021
S3150800097002608360C360026143618361C36102628E
S31508000980704791ED027AF1EE477A10B592B0CDED47
S31508000990017A8DED037AD1ED017A91ED007A002383
S315080009A00446CDED027AF1EE476AF1EE677A6A46B9
S315080009B0014609A8009304930893CDED056ACDED89
S315080009C0067A8DED077A00F047FB204609AB04F15D
S315080009D02402D0ED007A93ED007A77EE877A93EDCC
S315080009E0017AC0ED007AD0ED017A77EE877A93ED39
S315080009F0027AC0ED017AD0ED027A77EE877A0C306A
S31508000A0040ED017A904203F10C03E2D112B010BD19
S31508000A1030B52DED028B00F10C058DB02946044644
S31508000A2000F090FBFEEE007A20EE270A294603A87E
S31508000A308DED010A00F045FB9DED010A214606A849
S31508000A4000F03FFB03A92246084600F060FB06A912
S31508000A502A46084600F05BFB06AA03A909A800F087
S31508000A6081FB03A9084600F06DFBB0EE088AF6EE96
S31508000A70008A38EE400A204620EE280A03A900F02C
S31508000A8020FB06A9084600F05DFB38EE400A28461A
S31508000A9020EE280A06A900F014FB09A9084600F06A
S31508000AA051FB38EE400A09A920EE280A04F118007D
S31508000AB000F007FB0DB0BDEC028B30BD38B5D0EDAC
S31508000AC0080A90ED070A04460D4614F089FD85EDDF
S31508000AD0000A94ED060A14F04FFDB1EE400A85EDC2
S31508000AE0010AD4ED000A94ED030A14F079FD85EDA8
S31508000AF0020A38BD0023002243628362C36203638D
S31508000B0043638363C2630364C36503664366036022
S31508000B1043608360C360036143618361C3610362A9
S31508000B2043648364C364036543658366C366036776
S31508000B307047000000000000B7EE007AC7EE007AA2
S31508000B4010B580ED140AC0ED157A044610EE100AA9
S31508000B5012F03EFC02460B4605A1D1E9000112F04F
S31508000B60B9FD12F04FFFA06510BD00BFAFF30080BE
S31508000B70399D52A246DF913F80ED140A704791EDE8
S31508000B80007AD0ED0C7A77EE877AC0ED0C7AD0ED44
S31508000B900D7A91ED017A77EE877AC0ED0D7AD0ED70
S31508000BA00E7A91ED027A77EE877AC36BC0ED0E7AEC
S31508000BB00133C363704710B5044686B090ED160A34
S31508000BC0684600F07EFA04F15C02694603A800F064
S31508000BD09EFA03A92046FFF7D4FE2046FFF718FF22
S31508000BE0204604F16801FFF769FF06B010BD000052
S31508000BF02DE9F0432DED048B884600F15C0504468B
S31508000C0090ED098AD0ED0A8A90ED0B9A85B02846B0
S31508000C10174610EE106A00F04FFAB8F1000F53D0DD
S31508000C20606A12F0D5FB46A3D3E9002380468946BD
S31508000C3012F0ACFE002847D043A3D3E90023404670
S31508000C40494612F099FE00283ED0A06A12F0C0FB71
S31508000C503BA3D3E900238046894612F097FE98B352
S31508000C6039A3D3E900234046494612F085FE58B316
S31508000C70B5EEC09AF1EE10FAB1EE488AB1EE680AFE
S31508000C8004F1680825DB14F077FC8DED010AB0EE57
S31508000C90480A14F071FCB1EE400A2846424601A9FA
S31508000CA08DED020A039600F03FFA284600F0F7F9A0
S31508000CB00FB900236366D4ED147AB6EE000A284607
S31508000CC080EE270A00F010FA05B0BDEC048BBDE8EB
S31508000CD0F08314F051FC10EE100A12F079FB02466C
S31508000CE00B461BA1D1E9000112F012FA12F08AFE96
S31508000CF0B0EE480A019014F03FFCB1EE400A3046C7
S31508000D008DED020A12F064FB11A3D3E9002312F059
S31508000D1001FA12F077FE039001A800F0C0F94246E6
S31508000D20284601A900F000FA284600F0B8F9D4EDE3
S31508000D30187AF1EE677AC4ED187AB9E7AFF300804E
S31508000D40C139234A7B83EFBFC139234A7B83EF3FEF
S31508000D50182D4454FB21094010B50446243000F0F0
S31508000D60ABF904F1300000F0A7F9002304F14400C0
S31508000D70E36300F0A1F904F1680000F09DF904F1BD
S31508000D805C0000F099F92046BDE81040FFF7ECBD7D
S31508000D9037B5044600F058F80128054629D104F16C
S31508000DA024010846019100F0D5F820460199FFF77D
S31508000DB0E6FE04F144010846019100F0D9F8D4EDA5
S31508000DC0117AF1EE677AC4ED117AD4ED127AF1EE62
S31508000DD0677A20460199C4ED127AFFF7ECFE9FED7B
S31508000DE0060A00222946204603B0BDE83040FFF730
S31508000DF0FFBE03B030BD00BF000000007FB502266D
S31508000E000F4D10482E70FFF775FEFFF7FFFA0446E0
S31508000E1080B90DF10300FFF79FFD044650B903237F
S31508000E2001A82B70FFF7A0FC044618B92E702046BF
S31508000E3004B070BDFFF740FA00232B70F7E700BF38
S31508000E40D8100020DC100020014B1878704700BF2E
S31508000E50D81000200121022330B51B4D85B0002291
S31508000E6008462B708DED010AFFF73EFC9DED010A41
S31508000E70FFF7F0FA154C082084ED000AFFF740FB4F
S31508000E800320FFF72DFB0020FFF704FC0020FFF7E7
S31508000E9016FC322006F0D0FB00210120FFF73CFCAF
S31508000EA003A8FFF747FC94ED000A0948FFF764FE1C
S31508000EB094ED000A0648FFF73FFE0548FFF74CFF8A
S31508000EC001232B7005B030BDD8100020501100202A
S31508000ED0DC1000201A4AD36B6BB392ED0C6A9FEDB7
S31508000EE0197A07EE903A26EE076AF8EE677AC6EEA2
S31508000EF0276A92ED0D6AFDEEE66A26EE076A16EE99
S31508000F00903AC6EE276AFDEEE66A038016EE903A38
S31508000F10D2ED0E6A66EE876A86EEA77ABDEEC77AC6
S31508000F20438017EE103A8380002313635363936359
S31508000F300023D3637047038043808380704700BFD4
S31508000F40DC10002000007A440148FFF721BF00BFEB
S31508000F50DC100020054A1278012A04D0002202601B
S31508000F60426082607047FFF701BB00BFD8100020BF
S31508000F70054A1278012A04D0002202604260826083
S31508000F807047FFF757BB00BFD810002008B5094BBC
S31508000F901B78012B01D0002008BDFFF7D7FB064AB6
S31508000FA01368013313600028F5D0044A1368013327
S31508000FB01360F1E7D8100020D0100020D4100020CC
S31508000FC02DE9F0471EA7D7E900670FF27C09D9E992
S31508000FD000898246DAF8000012F0FAF932463B46F2
S31508000FE004460D4612F0D2FC98B90FF26409D9E905
S31508000FF0008915A7D7E90067DAF8000012F0E8F9C2
S3150800100042464B4604460D4612F0ACFC60B9BDE8B4
S31508001010F08742464B462046294612F079F812F0E8
S31508001020F1FCCAF80000D5E732463B462046294679
S3150800103012F070F812F0E6FCCAF80000DCE700BF10
S31508001040182D4454FB210940182D4454FB211940FE
S31508001050182D4454FB2109C070B501F1240502F18D
S315080010600C0613460446F3EC017A91ED006AD1EDBD
S31508001070016A93ED027A67EE867A46EE877AD1EDB3
S31508001080026A93ED057A46EE877AB342E4EC017A72
S31508001090E9D10C318D4200F10C00E2D170BD10B5DA
S315080010A00446FFF78DFF201DFFF78AFF04F10800AD
S315080010B0BDE81040FFF784BF0023036043608360E8
S315080010C07047D1ED007A67EE807AC0ED007AD1EDEF
S315080010D0017A67EE807AC0ED017AD1ED027A27EEC1
S315080010E0800A80ED020A7047D0ED007A67EE807AB2
S315080010F0C0ED007AD0ED017A67EE807AC0ED017A0C
S31508001100D0ED027A27EE800A80ED020A704701F1D7
S315080011100C03F1EC017AB2EC017A77EE877A994200
S31508001120E0EC017AF5D1704701F10C03F1EC017A94
S31508001130B2EC017A77EEC77A9942E0EC017AF5D1FA
S31508001140704700009FED060A00F10C03B0EC017A27
S31508001150F1EC017A984207EE270AF7D1704700BFEB
S315080011600000000092ED016AD1ED027AD1ED016A24
S3150800117092ED027A67EE867A56EE877AC0ED007AA5
S3150800118092ED026AD1ED007AD1ED026A92ED007A0B
S3150800119067EE867A56EE877AC0ED017AD1ED017A46
S315080011A092ED006AD1ED006A92ED017A67EE867AD1
S315080011B056EE877AC0ED027A704700000122024B8C
S315080011C0C3F8A020704700BF00D003500122024B8D
S315080011D0C3F8A020704700BF00E0035070B5454C27
S315080011E08EB0264601AD0FCE0FC5336814342B607A
S315080011F006AD0FCC0FC594E80F0085E80F00012156
S315080012003A2003F013FE0121572003F00FFE4FF496
S315080012108073394DADF81C30384B2846039301A925
S3150800122006AB059305F0E0F9012304220321022009
S3150800123005F0C8FB022100230846012205F0C2FB7F
S31508001240012304221946022005F0BCFB04220021D2
S315080012500123022005F0B6FB294C2A4B4FF44870AF
S31508001260C4F8C8344FF00213C4F8C43403F5803305
S31508001270C4F8CC341C23C4F8B43406F08FFB14200D
S31508001280FFF7A4FF06F08AFB2320FFF797FF06F077
S3150800129085FBB9212846FFF799FF04F0FCFEFFF706
S315080012A08DFF002303211A46022005F08BFB00233D
S315080012B002211A46084605F085FB01230022194635
S315080012C0022005F07FFB002201231146022005F0CB
S315080012D079FB284604F074FE00215720C4F8C81488
S315080012E0C4F8C414C4F8CC14C4F8B41403F09EFDAE
S315080012F00EB070BD9C5E010800000A50E0707200D6
S3150800130000C0035002000100FEE7000005490A6814
S315080013101318054883428CBF4FF0FF320B60104606
S31508001320704700BF0410002000000420FEE70000FC
S3150800133008B500F02DF8124B12498B4212D3002043
S31508001340114B12498B4218D3FEF736FF186850F82E
S315080013502240586840F82240013298688242F5D304
S315080013600C33EAE70022F8E71C6844F82200013249
S315080013705C68A242F8D30833E4E70022F8E700BF26
S31508001380D8C40108E4C40108E4C40108E4C4010897
S315080013904FF480414FF0FF30114B124A10B59A6056
S315080013A0D3F8882042F47002C3F888200E4A916662
S315080013B00E4901F5005210660D4850660220C3F822
S315080013C0D000BFF34F8FBFF36F8F01244FF4403324
S315080013D00848C0F88041D36004600B6110BD00BFA7
S315080013E000ED00E000000008009000500080004476
S315080013F0F7FF370000E100E0014B1868704700BFAF
S315080014000C100020084B1B6F03F00703022B04D0B7
S31508001410032B05D0012B05D0FEE7044B186870474F
S31508001420034BFBE703487047008000500C10002070
S3150800143010100020002D310108B5FFF7E3FF054B1A
S315080014401B6FC3F303330133B0FBF3F0024B186091
S3150800145008BD00BF008000500810002000487047F3
S3150800146000B4C404014B1868704700BF1010002070
S31508001470054B1860054B1B6F03F00703032B01D1BF
S31508001480FFF7DABF704700BF101000200080005039
S315080014900020704700487047002D31014FF0B443D3
S315080014A09868C0F304400C2822D8DFE800F0092128
S315080014B021212121071719211B1D1F000F487047DD
S315080014C09B6803F04073B3F1807F13D0B3F1007FBC
S315080014D012D00B4A002B08BF1046704709487047C0
S315080014E009487047094870470948704709487047CE
S315080014F0002070470848704708487047405DC60096
S3150800150000093D000024F400C0EA210180BA8C01DC
S315080015100048E801005A620280841E0040420F001B
S315080015204FF4004070474FF47A707047014B1868C3
S31508001530704700BF14100020D0E9000318478368DD
S3150800154000681847C36800681847000038B50D4694
S315080015500446B0B1012816D0022816D0032803D1B4
S315080015603F23EB40DB0704D440F2FE310848FFF77F
S31508001570CBFE302001214443064B01FA05F51D51E7
S3150800158038BDFF23EDE70F23EBE740F2FF33E8E72B
S31508001590D05E010840E0035038B50D460446B0B1A8
S315080015A0012816D0022816D0032803D13F23EB4082
S315080015B0DB0704D440F22D410848FFF7A5FE30208A
S315080015C001214443064B01FA05F51D5138BDFF2399
S315080015D0EDE70F23EBE740F2FF33E8E7D05E0108BB
S315080015E040D0035010B5044601213A2003F01EFCF2
S315080015F0A3782078B3FA83F3042261785B0905F0AF
S31508001600E1F9002010BD034659789B7800780BB99C
S31508001610FFF79CBFFFF7C0BF034659789B78007851
S315080016200BB9FFF7B9BFFFF791BF000038B50478CB
S315080016304578ACB1012C15D0022C15D0032C03D15A
S315080016403F23EB40DB0704D44FF489610848FFF7D2
S315080016505BFE302301225C43064BAA401A5138BD73
S31508001660FF23EEE70F23ECE740F2FF33E9E700BF7D
S31508001670D05E010840F0035070B5057804464678F8
S31508001680E5B1012D1CD0022D1CD0032D03D13F221C
S31508001690F240D30704D44FF483610C48FFF734FEB5
S315080016A01023302212FB0535094BEB58F34003F0A3
S315080016B00100A3780BB980F0010070BDFF22E7E7AF
S315080016C00F22E5E740F2FF32E2E700BFD05E0108ED
S315080016D030C00350044B054A043850F8041F43F839
S315080016E0041B9342F9D170476400005D7801005DE0
S315080016F010B5084C237A53B9E360074B236001F011
S31508001700FDFD4FF40042054B1A60012323720020A9
S3150800171010BD00BF18100020D516000800E100E033
S31508001720092370B50C460546084EC0F810313369D2
S315080017300133336101F0E4FD2146284633689847B2
S315080017400CB101F0DFFD002070BD00BF18100020AD
S3150800175001F0D8BD0729F8B505460C4610EE107AF3
S3150800176010EE906A03D9BC210448FFF7CDFD05EBBE
S31508001770840325F824705E80F8BD00BF235F010846
S3150800178007EE903AF8EEE70A07EE902AB8EEE70A6F
S31508001790F3EE600AB3EE400AFFF7DCBF07EE902AC5
S315080017A040F20003B8EEE70A00EE903AB3EE400ABC
S315080017B0FFF7D0BF40F2000300EE903AFFF7CABF2A
S315080017C0F3EE600AB3EE400AFFF7C4BF2DE9F84FFF
S315080017D0042907460C4693469946BDF82880BDF865
S315080017E02C60BDF83050DDF838A003D9D72132482F
S315080017F0FFF78AFDB8F5806F03D9D8212E48FFF781
S3150800180083FDB6F5806F03D9D9212B48FFF77CFDF8
S31508001810B5F5806F03D9DA212748FFF775FD0D9BCB
S3150800182003F50063B3F5805F03D3DB212248FFF796
S315080018306BFD0AF50063B3F5805F03D3DC211E4810
S31508001840FFF762FD0F9B03F50063B3F5805F03D3D3
S31508001850DD211948FFF758FD184B0F99013E013D48
S3150800186003EA0A4A03EA0141C6F30906C5F309056C
S3150800187007EB041246EA0A060D439662D5620D9AEC
S3150800188008F1FF3803EA02434FEA093202F44052EC
S315080018901343C8F3090843EA0803023419F0040F8E
S315080018A007EB041218BF43F480432401536047F83A
S315080018B004B0BDE8F88F00BF235F01080000FF0FE2
S315080018C030B50124002587B0CDE904540395BDF849
S315080018D028500094CDE90145FFF778FF07B030BDE1
S315080018E070B50124002686B0BDF82C50CDE9045405
S315080018F0CDE90256BDF82850CDE90045FFF766FF49
S3150800190006B070BD2DE9F041072904460E46154676
S315080019101F469DF8208004D940F21F110B48FFF797
S31508001920F3FCDDE906320C2101FB06411343C1F83D
S31508001930B070C1F8B4302A05B8F1000F03D1C1F868
S31508001940B820BDE8F08142F00042F8E7235F0108BD
S315080019502DE9F041072906460C46154698469DF896
S31508001960187004D940F231112148FFF7CDFC013D2A
S31508001970ABB2B3F5806F04D34FF499711C48FFF7E7
S31508001980C3FCB8F1070F04D940F233111848FFF722
S31508001990BBFC072F04D94FF49A711548FFF7B4FC1E
S315080019A00C20079A04F10E0345EA023500FB08628B
S315080019B0B84546F833504FEA4404D2F8B85007D130
S315080019C0032101FA04F42C43C2F8B840BDE8F081BB
S315080019D00123A3402B43C2F8B830022300FB076655
S315080019E003FA04F4D6F8B8302343C6F8B830EDE75E
S315080019F0235F010837B50446D0F87002062804DDCF
S31508001A000AB12123136003B030BD4B1EB3F5806FB6
S31508001A10F6D200250130C4F87002CDE900558AB225
S31508001A202B46C1B2D4F86802FFF792FFD4F87022A9
S31508001A30D4F8683202F10E0103EBC1035D60D4F8F5
S31508001A407832D4F87402591C9333C4F8781244F8DF
S31508001A502320012304EB8004520003FA02F2D4F88F
S31508001A602C321343C4F82C32CDE74FF0FF33202233
S31508001A70C0E99C33C0F87832002100F50A7012F0EC
S31508001A80D2BB30B5D0F8744285B0062C099D04DD6A
S31508001A900DB121232B6005B030BD00250134C0F8F7
S31508001AA074420295089DCDE900351346D0F86802C0
S31508001AB00A46E1B2FFF726FFEDE72DE9F0430429D0
S31508001AC0BDF81C50BDF82060BDF82470DDE90ACECB
S31508001AD0DDE90C8404D90CB121232360BDE8F08329
S31508001AE0B5F5806F14D8B6F5806F11D8B7F5806F45
S31508001AF00ED80CF50069B9F5805F09D20EF50069B4
S31508001B00B9F5805F04D208F50069B9F5805F03D39B
S31508001B10002CE3D02823E0E7CDE90BE8CDE9097CE2
S31508001B20CDE90756BDE8F043FFF750BE30B589B09A
S31508001B300D9C0025069401240395CDE90454BDF8AF
S31508001B4030500094CDE90145FFF7B7FF09B030BD25
S31508001B50D0F8783210B503F1920150F821400221ED
S31508001B60D0F87422640000EB820201FA04F4D2F879
S31508001B702812013B2143C2F82812C0F8783210BD5A
S31508001B80F8B500210C250446D0F8743200F50A761B
S31508001B90DFF854C0D0F868028B4217DA05FB030356
S31508001BA093F8BB20002142F0800283F8BB20FFF7A0
S31508001BB0B7FD4FF48A72D4F86C3283F00103C4F887
S31508001BC06C3202FB0343C4F86832F8BD05FB010713
S31508001BD0D7F8B82056F804EB02EA0C0242EA0E02DD
S31508001BE0C7F8B8200131D7E70000FFFF0023C0E996
S31508001BF09A037047D0F8783210B5933350F82340DB
S31508001C00D0F86832033103EBC403186F890002FA6F
S31508001C1001F10843186710BD4FF0BA4210B5D469F0
S31508001C20136A1C40E1070DD50121124BD961124BED
S31508001C30506919680144196091695A680A445A60DA
S31508001C4001F062FB620308D54FF48022094BDA6182
S31508001C50094A136803F180731360230308D54FF408
S31508001C600022044BDA61044A536803F18073536017
S31508001C7010BD00BF0020005D541100202DE9F04F73
S31508001C80174687B004460D46984601F03FFB17F104
S31508001C90800F064602D1B8F17F0F04D0A02D11D8C7
S31508001CA02544A54202D107B0BDE8F08F94F900306B
S31508001CB09F4202DD27700134F3E79845B8BF84F8E0
S31508001CC00080F8E74FF0000940F20A2A3B463A46F8
S31508001CD000213046FFF754FD43464246012130466F
S31508001CE0FFF74EFD4B464A4649463046CDE901992F
S31508001CF0CDF800A0FFF706FE40F20B232F4A01217C
S31508001D00CDE90032304640F2D5122D4BCDF8089079
S31508001D10FFF7F8FD01212B4B40F2D512CDE9013131
S31508001D2030460221284BCDF800A0FFF7EBFDB5F5AC
S31508001D30006F2B4628BF4FF4006323F0030B4FEACE
S31508001D405B0A1FFA8AFA2246002130460593CDF827
S31508001D5000A00523FFF7B4FD2246052301213046DE
S31508001D60CDF800A0FFF7ACFD0223059A0021304606
S31508001D700093C2F38F020123CDF80490FFF7E8FD24
S31508001D80A5EB0B0501213046FFF7CAFC9F2D5C44E5
S31508001D90CDD845B1254414F9013B9F4208DD04F826
S31508001DA0017CA542F7D107B0BDE8F04FFFF7D0BCDC
S31508001DB09845B8BF04F8018CF3E700BF0000A021DE
S31508001DC0000102200000B021000103302DE9F04F88
S31508001DD02DED068B436CD1B02B93836D054633935B
S31508001DE0436D90ED178A3493036DD0F840801D93A8
S31508001DF0C36C90F8487010938368C66B3593036B71
S31508001E0017913693C36A379340F20003ADF83A3117
S31508001E108369409300234F9301F080FA04462FB953
S31508001E201D9B109A13431CBF21234F93339B012BF1
S31508001E3002D1349B012B01D021234F93179B73B1F9
S31508001E40DDE935321343379A33431343DB0706D5A7
S31508001E5021234F9398217748FFF756FA05E04F9BC1
S31508001E60169353B1179B002BF4D14F9B16931698D4
S31508001E7051B0BDEC068BBDE8F08F2046FFF7B6FEE5
S31508001E802B68D5ED188A38936B68002E0E936B690C
S31508001E90BAEEE88A0B93EB68B3EE488A2C932B6963
S31508001EA011936B6B1E93AB6B1E9A1293EB692D9372
S31508001EB02B6A13932C9BA3EB0203109A134493FBF0
S31508001EC0F8F34393DDE91132A3EB02031D9A134499
S31508001ED02B9A93FBF2F3139A44930B9B02FB03F39F
S31508001EE019930E9B129A02FB03F32093209A1E9BCA
S31508001EF002FB03F3119A25930E9B02FB03F30E9A3A
S31508001F0022932B9B02FB03F34593229B119A03FB17
S31508001F1008F34693229B03EBD3734FEA6303499373
S31508001F20259B03EBD3734FEA63034A93209B03EB8A
S31508001F30D3734FEA63034B93BDF82C301A9308BF4B
S31508001F4001233F930DF59D7318BF33460AEE903A69
S31508001F502C9B53430E9A5343139A4C932D9B5343EE
S31508001F600B9A53433E93169B0D9340F2002309EEBA
S31508001F70103A0D9B139A934214DB179B002B3FF4E0
S31508001F8076AFFFF7E5FB2D9B38990B985943139BC2
S31508001F9095F92420594395F928304143A869FFF754
S31508001FA06DFE64E70D9B2B9A1D995A431D9B12984B
S31508001FB0D31A8A1A22EAE2721492119A1499D21A38
S31508001FC09042D4BFC1EB0001C1EB0201002B2EDB0E
S31508001FD00D98449E129F9742D8BF304602462692D5
S31508001FE0269A0D98121A013209920E9A4A431499A2
S31508001FF02E92339A01FB02333C932E9B099903EBED
S31508002000D3735B104793DDE945320129D8BF1346E0
S315080020102A9303EBD3735B10489300230A930A9B16
S315080020202D9A934208DB269B01330D93A1E70D9A5F
S31508002030D5E700BF7A5F01080A9B109A08FB03F3ED
S31508002040991AD31A2C9A1E9823EAE373521A9042C5
S31508002050D4BFC3EB0007C3EB0207002953DB0A9979
S3150800206043981E9E9642D8BF01460A462792279A4B
S315080020700A99521A249201321592249A002A51D0AA
S31508002080099A012A4EDDB8454CD03EDD4FF0010ACB
S31508002090A8EB070B159A012A07DD0AFB08F20BEBDA
S315080020A007018A4201D028224F92159A1299524561
S315080020B0A8BF52464192199A02FB0AF23992149A1B
S315080020C001FB03220E994A4315993B92099A012A64
S315080020D0D8BF0A4692B23B993D92369A0A4409EE0F
S315080020E0902A0A9A109902FB08F2521A349903FBAD
S315080020F001232F9300230F930F9B419A934216DBDC
S31508002100279B01338AE70A9AB0E797FBF8F208FBA0
S31508002110127B9246BBF1000FBCD002F1010AA8EB74
S315080021200B0BB7E74FF0010A4FF0000BBDE70F9B0B
S31508002130159A9342C4BF28234F93249B0F9A0133C1
S315080021409B1A93FBFAF20AFB1233002B18BF0132D3
S31508002150012A099B1F9200F02F82012B08DCBBF194
S31508002160000F01D028234F93CDF830B01B9706E017
S31508002170CDF830B00C9B1F9AFB1853431B930C9B4E
S315080021802F9A013B002B3A93CCBF4FF48773002359
S3150800219011990AEE103A3C9B01FB02330E9A1399E9
S315080021A053430A9A23930F9B13440D9A01FB032367
S315080021B00B9A5343189300232893289B389A9342E3
S315080021C00ADB0F9B01330F932F9B43442F9393E70F
S315080021D000231B970C93D2E7399BB3F5006F0ADBF4
S315080021E0199B0AF1FF39B3F5006F01DB28234F93DA
S315080021F0199B1C9303E04FF00009399B1C931F9B06
S31508002200229A09FB03334293189B002BBCBF282351
S315080022104F930B9B002BBCBF28234F931C9B002B73
S31508002220BCBF28234F93209B1343259A13432E9A0A
S3150800223013432A9A13433B9A1343239A134313F0DF
S315080022400103219300F076812A9B229A3093259BDD
S315080022503293209B31932E9B204629934D92FFF76C
S3150800226004FC219B0126002B0CBF052301234FAA42
S31508002270D4F8680206924D9ABDF8A4100492309AD2
S3150800228002910392BDF86C20309101923D9A2399F0
S315080022900092359A05960A4400214D93FFF70DFCE6
S315080022A04FABCDE90563319BBAB20493329B0192D9
S315080022B00393309B19EE902A02931A9B314600939A
S315080022C0D4F868024D9BFFF7F8FB4FAB01933F9B91
S315080022D01AEE902A00930223D4F868021946FFF7EB
S315080022E025FC4FAB01931A9B03210093379A0223CF
S315080022F0D4F86802FFF71AFC4FABCDE905630B9BD0
S31508002300189904931C9B409A03931A9B0A440293B8
S31508002310BDF8243004210193BDF808310093D4F8A0
S3150800232068023346FFF7C9FBB0EE490A0021D4F824
S315080023306802FFF73FFA219B002B40F00481F0EE7C
S31508002340480AB0EE480A3146D4F86802FFF702FA9E
S31508002350B8EEE80A0026B3EE400A0221D4F868026D
S31508002360FFF728FA20460B994FAAFFF743FB4FAB16
S3150800237041212046934A019300964EF62C43FFF7D7
S3150800238080FB204609994FAAFFF734FB20461F9980
S315080023904FAAFFF72FFB394620464FAAFFF72AFB1D
S315080023A0204629994FAAFFF725FB4FAB40F2CD11DE
S315080023B02046CDE90063844A844BFFF762FB4FABA6
S315080023C040F2D711824A2046CDE900633346FFF72B
S315080023D058FB2046FFF7BCFB022231462046FFF792
S315080023E009FC022201212046FFF704FC2046FFF7DC
S315080023F0AFFB099B012B04DC012231462046FFF77F
S31508002400F9FB0C9B002B04DD022200212046FFF776
S31508002410F1FB219B002B40F09E800C9B4A21023B3E
S315080024201C934FAB0193219B20460093694A1AEEF1
S31508002430103AFFF726FB1C9B4FAE013B21931C9BD2
S3150800244040F2CD11002B4FF04F6320460093624AAD
S31508002450CCBF4FF4877300230196FFF712FBB9F13F
S31508002460000F0FDD324649462046FFF7C3FA002221
S315080024702046CF23114601960092FFF702FB20461D
S31508002480FFF766FB4FF000094FAE4B464121204649
S315080024904C4A0196CDF80090FFF7F3FA219B012BE1
S315080024A05CD1194632462046FFF7A4FA4B464A46FF
S315080024B049462046CDE90096FFF7E3FA2046FFF79E
S315080024C047FB022249462046FFF794FB2046FFF7C2
S315080024D03FFB022204212046FFF78CFB099B012BB8
S315080024E004DD012200212046FFF784FB2046FFF782
S315080024F02FFB042220461146FFF77CFB01222046CB
S315080025001146FFF777FB042202212046FFF772FBEC
S31508002510042203212046FFF76DFB2046FFF718FB30
S315080025204F9B002B37D0179B002B3FF49EAC40F2F5
S31508002530FA2190E4489B3093DDE9492332934B9B7B
S315080025403193479B88E6B0EE480A3146D4F86802CC
S31508002550FFF730F9FCE63A9B1C936CE7B6DD1C9B4B
S315080025603246991E2046FFF745FA32462046012193
S31508002570FFF740FA4A4649464B462046CDE90096BB
S31508002580FFF77FFA2046FFF7E3FA0222494620467C
S31508002590FFF730FB92E7179B13B12046FFF7F0FAD7
S315080025A0289B4C9A01332893239B134423933E9AE2
S315080025B0189B1344189300E6012B7FF709AE0023F6
S315080025C00C93D7E500000450060001600E7E080053
S315080025D00607055000000550050302700121FFF7A4
S315080025E0F5BB002108B5FFF7F1FBB0FA80F040090A
S315080025F008BD002070470000836D70B5012B0446A6
S3150800260020D1436D012B1DD1426843699A4219D1E5
S31508002610002101F0F3FDB0FA80F67609D4E9032328
S315080026205A43D4E90D134B4361694B43B2EB830F0D
S315080026300ADD0121204601F003F8054668B90025A0
S31508002640284670BD0026E9E7002EF2D00121204673
S3150800265001F0D4FD0028ECD1F1E736B1012120467E
S3150800266001F0CCFD05460028E9D051210148FEF7C6
S315080026704BFEE5E7DB5F0108836D70B5012B044669
S3150800268007D00021204600F0DBFFB0FA80F04009B1
S3150800269070BD456D012DF4D1416943689942F0D169
S315080026A0D0E903325A43D0E90D6373434B43B2EB87
S315080026B0830FE6DC002101F0A1FD0028E1D12846C0
S315080026C0E6E700002DE9F04F2DED048B82468BB02E
S315080026D028B921200BB0BDEC048BBDE8F08FC16A88
S315080026E021B13621CC48FEF70FFEF2E7036A9FEDCB
S315080026F0CB9A13F0010F14BF4FF480624FF40062B7
S315080027009A42C0F2DE80049100F000FEDAE90F7BFF
S31508002710DAED057AB8EEE78ABAF85030DAF82080AA
S3150800272008EE903A0BFB07F318F0010528EE098A24
S31508002730044609EE103ADAF84C900499BFB240F014
S31508002740D08108EBD8764FEA6608C6F34F06CDE97E
S31508002750007605232946DAF80020FFF7C1F81FFAA4
S315080027608BF3009305230196DAF8182001212046F9
S31508002770FFF7B6F8DAF83020002A00F09A80BAF89F
S31508002780343000930223194620461FFA8BF6FFF7CA
S3150800279097F8CDE900760123DAF838200321204698
S315080027A0FFF79EF8DFED9D0A0021B0EE600A20468D
S315080027B0FFF706F8F0EE480AB0EE480A012120466F
S315080027C0FEF7FEFFB0EE680A03212046FEF7F2FF89
S315080027D04A4604212046FEF7E1FF4FF0000940F281
S315080027E02D234A46494620460093CDE901994B4692
S315080027F0FFF788F88A4B40F2D7120121204600934A
S31508002800CDE90199874BFFF77DF840F2D7120221EF
S315080028102046CDE90199844BCDF80090FFF772F870
S31508002820002D4BD14A2203212046CDE901557F4B85
S315080028300095FFF767F84FF0040900254FF0010BE4
S315080028407B4B5FFA89F940F2D71249462046CDE913
S31508002850013B0095774BFFF755F82B463A46294634
S315080028602046CDE90095FFF773F842F20203324697
S3150800287059462046CDE900932B46FFF769F8022111
S3150800288020231FFA88F2CDE9001320465B46FFF79E
S315080028905FF859462046FEF743FF19EE101A9AF9D3
S315080028A053309AF95220DAF83800FFF7E7F9002092
S315080028B010E70123604A0093022364E74FF00309F7
S315080028C0BBE7069100F022FDDAED057AF8EEE78A15
S315080028D0BAF85030054668EE898A08EE103ADAF8F2
S315080028E03C30DAF84C20DAF820400893DAF8403021
S315080028F0F0EE490AB0EE490A06990592049309943E
S31508002900FEF75EFFF0EE680AB0EE680A0121284677
S31508002910FEF756FF03212846B0EE480AFEF74AFF9F
S3150800292004F0010604212846059AFEF737FF16BB70
S315080029304FF0050804EBD47464104FF0010B002720
S31508002940B4F5806F1ADC364B40F2D71200212846C0
S315080029500093CDE90177334BFEF7D4FF40F2D71247
S3150800296001212846CDE901772F4B0097FEF7CAFFCC
S31508002970D6B1022122E04FF00108DEE700232F48F6
S3150800298010F8011B94FBF1F201FB124CBCF1000F8D
S3150800299006D1944201FB0BFB3FF49BAE1446CFE7EE
S315080029A001330B2BECD194E602214A222846CDE9C5
S315080029B001661E4B0096FEF7A5FF03210026012798
S315080029C01B4B40F2D7122846CDE901370096194B22
S315080029D01FFA8BFBFEF796FF33465A4631462846C2
S315080029E0CDE90076FEF7B4FF2223A4B2CDE9007341
S315080029F02246334639462846FEF7AAFFCDE905663C
S31508002A00089BB3426ADC089904989AF95330414303
S31508002A109AF9522047E700BF4660010800000038CF
S31508002A200E7E0800060001600607055000000550E6
S31508002A300000D02305030450BC600108B0600108FB
S31508002A40069BDAF8002007991A44DAF818300B447E
S31508002A5008EE903ADAF83030002B3CD033F81730CD
S31508002A6008EE103A059B002107EB0309DAF838301F
S31508002A7028469944CDE900B44346FEF731FF43465C
S31508002A8018EE902A01212846CDE900B4FEF728FF62
S31508002A9001234A46009303212846FEF711FFB0EEAC
S31508002AA0480A05212846FEF785FE01212846FEF735
S31508002AB037FE079B099A013713440793049BBB42C9
S31508002AC0BEDCDDE9042313440593099A069B013607
S31508002AD01344069394E740F20003C1E700270797DB
S31508002AE0ECE71FFA88F6CDE900760123DAF800202C
S31508002AF0FEF7F6FE1FFA8BF300930196012333E6E1
S31508002B0058B1031F9FED137A0020DFED136A9FED7E
S31508002B10136A01EB4202914200D17047D3ED017A64
S31508002B20F8EEE77A67EE877AF4EEE67AF1EE10FACF
S31508002B3003F104030CDCF4EE467AF1EE10FA48BF12
S31508002B402120F3EE677A17EE90CA21F802CBE2E766
S31508002B502120F6E70000003800E07F4700E07FC745
S31508002B6038B50022164B51EC100B10F089FC10A357
S31508002B70D3E9002304460D4610F012FF70B90EA3E0
S31508002B80D3E900232046294610F0ECFE58B9204622
S31508002B90294611F07DFA00EE100A38BD47F6FF33D4
S31508002BA000EE103AF9E74FF6FF33F9E7AFF3008086
S31508002BB00000000000FCEF400000000000FCEFC031
S31508002BC00000E04070B560B3026AD30755BF4FF402
S31508002BD000614FF4806102EBD273134658BF5B1055
S31508002BE091421FDA01220DE00021194E16F8015B09
S31508002BF093FBF5F405FB143068B9A34205FB02F212
S31508002C000DD02346B3F5806FEEDCB2F5806FCCBFEE
S31508002C100020012003E001310B29E7D1002000F054
S31508002C20010070BDC36B013BB3F5806F0DD2036C19
S31508002C30013BB3F5806F08D2002A06DD406BB0F57C
S31508002C40806F8CBF00200120EBE70020E9E700BF7A
S31508002C50B06001082DE9F04F2DED048B0368C3B071
S31508002C603393C36890ED098A20930369D0ED088AE7
S31508002C700E938369D0F804A02A93C36990F8385054
S31508002C802193036C12911493C36B0F93D0E90C93A1
S31508002C902293C36A2393836A249383682B93436995
S31508002CA02C930023419300F039FB04462DB9149B5D
S31508002CB00F9A13431CBF21234193129B63B1DDE98D
S31508002CC02B321343DB0707D52123419340F26231A8
S31508002CD09848FEF719FB05E0419B119353B1129BE7
S31508002CE0002BF3D1419B1193119843B0BDEC048B93
S31508002CF0BDE8F08F2046FEF779FF249A209B9B1AA1
S31508002D000F9A134493FBF9F3239A35930E9B9B1A58
S31508002D10149A1344229A93FBF2F33693219B03FBEE
S31508002D200AF317930E9B0AFB03F318930AFB02F3A5
S31508002D303793189B189A09FB03F338930E9B09FBE4
S31508002D4003F30AFB03F33C93209B5343179A3093F0
S31508002D502A9B53433D93119B0B934DF6000309EEB3
S31508002D60103A0B9B219A934205DB129B002BBBD092
S31508002D70FEF7EEFCB8E7229A0B9B23995343149A65
S31508002D809A1A2592149AD31A23EAE373259A159365
S31508002D900E9B9B1A159A9942D4BFC2EB0102C2EB4D
S31508002DA003022D92259A002A1BDB369A0B99239843
S31508002DB09842C8BF0A4613461B930B9A1B9B9B1A3D
S31508002DC003F10108DDE93732B8F1010FD8BF134620
S31508002DD0299300232A9A934205DB1B9B01330B9305
S31508002DE0BFE70B9BE8E709FB03F20F99249D501AEE
S31508002DF08A1A209922EAE272091A8D42D4BFC2EBD6
S31508002E000505C2EB01050028099561DB3598249D67
S31508002E108D42C8BF18461C901C99C91A19910131D0
S31508002E2010911999002963D0B8F1010F60DD09994D
S31508002E30894500F024824DDD4FF0010BA9EB010511
S31508002E401099012907DD0BFB09F1099828448142ED
S31508002E5001D02821419110990BF1FF305945A8BF9F
S31508002E605946349117990F9E0BFB01F1B1F5006F86
S31508002E70B8BF00201F9001303A901098B8F1010FA2
S31508002E80C8BF404680B2319003FB09F0801B02445C
S31508002E90259E159830440E9E06FB02020AFB02F296
S31508002EA0219828920B9A03FB00230AFB03F3279326
S31508002EB00B46179AB1F5006FA8BF13461E93002359
S31508002EC00D930D9B349A934216DB1C9B013381E7C5
S31508002ED01C93A1E70999099891FBF9F109FB1105DA
S31508002EE08B46002DACD001F1010BA9EB0505A7E730
S31508002EF04FF0010B0025AEE70D9B109A9342C4BF15
S31508002F0028234193199B0D9A01339B1A93FBFBF2D5
S31508002F100BFB1233002B18BF0132012A169200F060
S31508002F20A781B8F1010F07DC0DB128234193099B4E
S31508002F300A9507E0BE6001080A95DDE909321344DF
S31508002F40169A53431393169B3A9A53439BB232935A
S31508002F50279B1A93289B269300231D931D9B339A20
S31508002F60934280F27981002365E1099B139300233C
S31508002F700A93E8E71A9A0C9B9B182F9344BF2823B9
S31508002F804193BAF1000FBCBF282341931E9B269A92
S31508002F90002BBCBF282341930C9B9F180133534534
S31508002FA080F22381189B43EA0A06299B1E431E9B2F
S31508002FB01E432F9B1E433E43F64306F00106731C31
S31508002FC03B939AFBF3F32E93189B721C93FBF2F236
S31508002FD0299B3F92721C93FBF2F11E9B204693FBA2
S31508002FE0F2F33E913993FEF740FD002E0CBF012304
S31508002FF005232E9AD4F8680205923F9A3E990492C0
S31508003000BDF8B42041AE0292BDF84C20039101925E
S31508003010319A002100922B9A06963A443E93FEF77F
S315080030204CFD2E9B00270493399B1FFA88F20393C5
S3150800303001230293329B2C9901922F9A00930696AC
S3150800304005970A443E9B0121D4F86802FEF735FD30
S315080030504DF60003F0EE490A00EE103A3946D4F868
S315080030606802FEF777FBF8EEE80AF3EE600A03213A
S31508003070B0EE600AD4F86802FEF76CFBF8EEC80AF0
S31508003080F3EE600A0421B0EE600AD4F86802FEF78F
S3150800309061FB324641462046FEF7ACFC32462046E6
S315080030A01699FEF7A7FC3B464FF080524121204671
S315080030B0CDE90076FEF7E5FC324620460999FEF78B
S315080030C099FC324620462D99FEF794FC40F20A23D5
S315080030D040F253116C4A2046CDE90076FEF7D1FC42
S315080030E02046FEF735FD022239462046FEF782FDC8
S315080030F02046FEF72DFDB8F1010F04DC0122394602
S315080031002046FEF777FD0A9B002B04DD02220021EC
S315080031102046FEF76FFD0A9B41AA012BA3F1020682
S315080031204FF01D6340F2D511CDE900322046CCBFE1
S315080031304FF485730023554AFEF7A3FC1F9B002B0B
S315080031401DDD41AF19463A462046FEF753FC3A467E
S3150800315001212046FEF74EFC002320461A46194652
S3150800316000930197FEF78DFC2046FEF7F1FC01223D
S3150800317020461146FEF73EFD2046FEF7E9FC002EE6
S3150800318017DD012E41AA32D131462046FEF732FC20
S31508003190002141AB01930A460B4620460091FEF7F3
S315080031A070FC2046FEF7D4FC022200212046FEF7DA
S315080031B021FD2046FEF7CCFC022201212046FEF71F
S315080031C019FDB8F1010F04DD012200212046FEF7A2
S315080031D011FD2046FEF7BCFC419B23B3129B002B36
S315080031E03FF480AD40F2D24172E50026E7E60A9B3D
S315080031F02046D91EFEF7FEFB204641AA0121FEF70E
S31508003200F9FB002141AB0A460091204601930B4683
S31508003210FEF737FC2046FEF79BFC022200212046DB
S31508003220FEF7E8FCBDE7129B13B12046FEF7A8FCA3
S315080032300C9B3B9A13440C930C9B5345FFF69AAE92
S315080032401D9B309A01331D93269B134426933D9A62
S315080032501A9B13441A9381E60D9B3C9A01330D93EE
S31508003260289B13442893179A279B1344279328E6E9
S31508003270B8F1010F7FF779AE00230A935DE60025C2
S315080032804FF0010BE7E500BF0200011003040150EF
S315080032900121FFF7DFBC002108B5FFF7DBFCB0FA18
S315080032A080F0400908BD000038B54FF0BA44074D14
S315080032B06368DA0705D54FF0BA4213695B07FCD590
S315080032C038BD52212846FEF71FF8F1E720610108AC
S315080032D04FF08042074B01219A664FF0BA4303F537
S315080032E08052516001F540211162034A1268DA6082
S315080032F0704700BF009000502C100020FFF7E8BF71
S31508003300FFF7D2BFFFF7D0BF7047000000487047ED
S315080033105C110020004870475C1100200048704787
S315080033205C11002000EB81014B6A012B05DD886CDE
S315080033300028D4BF002001207047002070470022D3
S3150800334038B50546144611462846FFF7EBFF00B187
S3150800335001340132092AF6D1204638BD2DE9F0415B
S31508003360002504462A464FF02808194F00F124067E
S3150800337029462046FFF7D6FF90B102F17E03C6F82C
S31508003380B02144F82350736A0132B3F5006F3368ED
S3150800339028BFC7F80080B3F5806F88BFC7F80080DC
S315080033A00135092D06F10406E2D1032A0ADC0823B1
S315080033B07E3204EB820204F50174A24205D042F87B
S315080033C0043BFAE72822024B1A60BDE8F08100BFE9
S315080033D0D81300202DE9F34100EB810600EB8207A4
S315080033E005460C4690466846BA6CB16C10F0AAFEC3
S315080033F0019B13B128220C4B1A607B6A009AD31AD8
S3150800340042BF28200849086004EBC40101EB080400
S31508003410243445F82430736A53437B62012373626C
S3150800342002B0BDE8F08100BFD81300202DE9F04FA7
S3150800343024270546984608464FF0010A4FF0000B28
S315080034407A4385B005F5EA7605F5FC79A2F5A27703
S31508003450F15900293AD00E9B3468002B1ADBD5F8AF
S315080034600432D0F868224FEA830C0E9B02EBC302A3
S315080034704FF4E043D2F870E003FA0CF313EA0E0FA8
S3150800348008D14FF4805303FA0CF3A34043EA0E0322
S3150800349013670139002919DD0F4A0390FEF7AAFAC6
S315080034A00D4A0AFA04F3CDE900B20022D5F804421F
S315080034B048EAC31343EA04131146039843F0080382
S315080034C0FEF7DFFA0398FEF743FB039804364E45EA
S315080034D0BED105B0BDE8F08FD8130020F0B5D1F8FD
S315080034E078620446062E0D4685B004DD2122114B6E
S315080034F01A6005B0F0BD11460393FFF713FF771C5A
S31508003500039B88B1D4F80412D5F8680200EBC6000C
S315080035108E004FF48051B14004EB8206D6F8D46190
S31508003520B140866F31438167294620460097FFF7E9
S315080035307DFFDEE7D8130020F7B5D1F874420546BB
S31508003540072C0E461F4604DD2122144B1A6003B0D1
S31508003550F0BD1146FFF7E6FEB8B10C23D6F868129F
S3150800356003FB0411802405EB8203D3F8D431D1F888
S31508003570B4009C40D5F8043244EA031444F00E041F
S3150800358004FA07F30343C1F8B4304FF0FF3331466A
S31508003590009328460623FFF749FFD8E7D8130020EB
S315080035A013B50A460446016B684610F0CBFD009A2F
S315080035B0002ADEBF28210B4B1960019B13B1282175
S315080035C0084B1960A36BA263012B1EBF2821054B6C
S315080035D01960236B93FBF2F3626D23635343E36530
S315080035E002B010BDD813002070B504460D4624223B
S315080035F0002104F1480610F016FE24220021304668
S3150800360010F011FE2422002104F16C0010F00BFECC
S315080036104FF4A272002104F1900010F004FE04F5A4
S31508003620EA702422002110F0FEFD0123C4F804529A
S315080036302434B44202D044F8043BFAE770BD0000D3
S315080036402DE9F04FD0E915972DED088B436CADF6B3
S31508003650043D2193036C90ED17AA1893036DD0EDE2
S3150800366018AA1993C36C90F848801A934369259150
S3150800367009934368A24E0A93DDE9093293FBF2F3F4
S315080036800893036805461B93C3682293036923932B
S31508003690436B1093836B0B93C3690D93036A139360
S315080036A083682C93036B2693C36B1E93C36A279375
S315080036B08369289300233360FFF730FE1B9B04467B
S315080036C0012B1CBF21233360B8F1000F05D1DDE9BA
S315080036D0193213431CBF2123336040F20003ADF8AF
S315080036E0CC30ADF8CE30089B2A9303F001030C9337
S315080036F0C3F102031593259B93B1279A1E9B134387
S315080037000C9A03F00303002A40F06582289A26994A
S315080037100A4302F00102134302D02122784B1A60B1
S315080037202046FEF763FA0A9B239A002102FB03F65A
S31508003730229B139A06FB03FB099B36A802FB03F898
S315080037400D9B08FB03FAFFF74FFF0221B8A8FFF706
S315080037504BFF01210DF59D60FFF746FF13980D9964
S3150800376043900A98429184462198189900FB0CF0D8
S3150800377071434C900D984B9141434D9110991B9B69
S3150800378045910B993F93469161460A9B01224093C6
S31508003790089B4F43419300231A9906FB09F64942B1
S315080037A03C911999499249423D911B994A934492F1
S315080037B0CDF820B14E964F97CDF80C150899CDF84F
S315080037C03825CDF83415CDF81415CDF820251399DC
S315080037D0109ACDF81C15CDF844350999CDF824254D
S315080037E0CDF848350B9ACDF84C350C9BCDF830A55D
S315080037F0CDF810C5CDF81805CDF83C85CDF840159F
S31508003800CDF82825C3B9089B159A93FBF2F30893BC
S315080038104193CDF814350C9B0DF5A662022B1CBFFF
S315080038201168159803F101031CBF91FBF0F11160B3
S31508003830092B02F10402F1D10DF59D6A36AA4FF063
S31508003840000B90462127D1462D4E59464046FFF794
S3150800385069FD40B1536AB3F5806F03D8936CB3F52D
S31508003860006F00D3376059464846FFF75BFD50B1F5
S31508003870DAF82430B3F5806F04D8DAF84830B3F5AF
S31508003880006F00D337600BF1010BBBF1090F0AF18A
S31508003890040A02F10402D8D1194B1E68002E40F022
S315080038A000840B9A099B012153430DF59D60022262
S315080038B02F93FFF78FFD109A229BB3469B1A1A9AED
S315080038C01F961344189A93FBF2F30B9A2D93239B96
S315080038D09B1A199A1344219A93FBF2F32E930C9B85
S315080038E0002B0CBF052301230BEE103A0CBF062351
S315080038F002230BEE903A40F2002309EE103A01E05B
S31508003900D8130020139B9B4580F22584219B199987
S3150800391003FB0BF3199A0B989A1ACB1A23EAE3734B
S315080039201493239B14999B1A9842D4BFC1EB0001A8
S31508003930C1EB0301002A1C91C0F251812E9A9842CC
S31508003940C8BF5A462092209B4FF0000AA3EB0B03F0
S315080039500133002BD8BF28220E93DCBFA64B1A6072
S315080039600D9B9A4580F2F283189B109903FB0AF97E
S315080039701A9BA9EB0302A3EB0909229B29EAE97919
S315080039809B1A9942D4BFC9EB0101C9EB0301002A6E
S315080039900F91C0F227812D9A10999942C8BF5246B5
S315080039A01192119B36A9A3EB0A0808F10108B8F190
S315080039B0000FDCBF2822904B0DF5DE60D8BF1A60D9
S315080039C04FF4027210F022FC4FF402720DF59D615D
S315080039D00DF6F80010F01AFC0E9B0DF5DE60CDF81A
S315080039E02437CDF82C391C9BCDF82087CDF83037F5
S315080039F0CDF838390F9BCDF82889CDF82C37CDF876
S31508003A003439FFF79CFC032805D8DDF84437B3F5AD
S31508003A10006FC0F0ED8003210DF5DE60FFF782FC34
S31508003A20002800F0E58004210DF5DE60FFF77AFC3A
S31508003A30002800F0DD80DDF84827DDF8441734A8B3
S31508003A4010F080FB359B13B128226B4B1A60349B10
S31508003A50DDF824279A1A002ABEBF2821664A116073
S31508003A60DDF820275343B3F5806F40F2BE80189ADD
S31508003A700F9B414693FBF2F602FB1633002B18BF49
S31508003A80013634A8324610F05DFB119A359B314653
S31508003A90D31AA3EB0A0808F101080DF5DE601193A5
S31508003AA0CDF82889CDF82087FFF77AFD31460DF63F
S31508003AB0F800FFF775FD349B042203210DF5DE603F
S31508003AC01693FFF787FCDDF82437B3F5806F02D924
S31508003AD02822494B1A600DF5DE60FFF730FC0328F3
S31508003AE004D8DDF84C37B3F5006F1AD305210DF568
S31508003AF0DE60FFF717FC58B106210DF5DE60FFF70B
S31508003B0011FC28B1062205210DF5DE60FFF762FCDF
S31508003B100DF5DE60FFF713FC0428C2BF2822364BDA
S31508003B201A600DF6F800FFF70AFC032804D8DDF83A
S31508003B304C39B3F5006F1AD303210DF6F800FFF7D9
S31508003B40F1FB58B104210DF6F800FFF7EBFB28B19D
S31508003B50042203210DF6F800FFF73CFC0DF6F800E9
S31508003B60FFF7EDFB032882BF2822234B1A600521A5
S31508003B700DF6F800FFF7D6FB002800F09982DDF86D
S31508003B805429B2F5006FC0F0938292FBF6F306FB58
S31508003B90132212B12821184A116017493746D1F85D
S31508003BA000C000218E46DDF83029CDF8543972431D
S31508003BB0CDF83029B3F5006F20D303F001010029B1
S31508003BC003EBD3731CBF86464FF0280C01465B10E7
S31508003BD052007F00EEE7002B7FF49FADA0E5CDF8FD
S31508003BE080B0B0E6CDF844A0DBE64646012363E79D
S31508003BF00123464616936EE7D8130020BEF1000F40
S31508003C0002D0C948C0F800C019B1CDF85439CDF86A
S31508003C103029013F0DF5DE60FFF791FB032840F2DE
S31508003C20C08201210DF5DE60FFF77CFB10B9282262
S31508003C30BD4B1A6001230E9ACDF818379A42CDF873
S31508003C40203900F0B4824FF001080DF5DE60FFF769
S31508003C5076FB032882BF2822B34B1A60DDF80037AB
S31508003C60149A5B44CDF80037DDF8FC360DF5DE60B6
S31508003C705344CDF8FC36DDF80C371344CDF80C3731
S31508003C80DDF808374B44CDF80837DDF808395B44CA
S31508003C90CDF80839DDF804395344CDF80439DDF890
S31508003CA014391344CDF81439DDF810394B44CDF8DE
S31508003CB01039FFF753FB0DF6F800FFF74FFB0A9B89
S31508003CC0B8F1000F06BF9A4601234FF0010A0B9A76
S31508003CD03193149B09FB0239099B03FB09F32B93C8
S31508003CE02A9B03FB0AF329935B003093002317935F
S31508003CF0179B1B9A934280F225822B9ACDF8F036B1
S31508003D00CDF8F838269B1344249300231D93129369
S31508003D10129B319A934280F21282CDF8F436CDF88E
S31508003D20FC382BB1BAF1010F1EBF28227E4B1A6050
S31508003D302046FDF79AFE0C9BB8EECA8ADFED7B9A01
S31508003D40F8EEEA8A002B40F0B58140F20023F0EE47
S31508003D50490A00EE103A0C99D4F86802FDF7FAFC05
S31508003D6028EE298AF3EE480A0121B0EE600AD4F853
S31508003D706802FDF7EFFCF3EE680A0221B0EE600A6E
S31508003D80D4F86802FDF7E6FC002213460DF5DE615D
S31508003D9051F804CB0133486C092B00FB0C22F7D1F0
S31508003DA0DDF8F0C860480DF5DE6306900CF11200E8
S31508003DB053F82000DDF8EC18059001F1120053F8CD
S31508003DC02000DDF8E8E804900EF1120053F8200010
S31508003DD003EB8C0C0390BCF8240003EB81010290E2
S31508003DE0898C03EB8E0301919B8C2C9900930A44D2
S31508003DF001230021D4F86802FDF75FFE002213466E
S31508003E000DF6F80151F804CB0133486C092B00FB79
S31508003E100C22F7D1DDF8F8CADFF80C810DF6F803A5
S31508003E20CDF818800CF1120053F82000DDF8F41ACA
S31508003E30059001F1120053F82000DDF8F0EA04902D
S31508003E400EF1120053F8200003EB8C0C0390BCF81B
S31508003E50240003EB81010290898C03EB8E03019108
S31508003E609B8C28991598009302FB00121BEE103ABA
S31508003E700121D4F86802FDF720FE159A099B1599C9
S31508003E8093FBF2F32F9A1FFA83F992FBF1F2CDE92D
S31508003E90043201230393BDF83C30CDF81880029311
S31508003EA0BDF870300221CDE90093249A1BEE103A32
S31508003EB0D4F86802FDF701FE1E9B002B00F0128164
S31508003EC01D9A9A181E9BD4F86802002B14BF4B46FD
S31508003ED001230321CDE900381BEE903AFDF726FEB3
S31508003EE0CDE900981D99279A1BEE903A0A44D4F812
S31508003EF068020421FDF71AFEBAF1010F04DD5146E6
S31508003F002046094AFDF776FD089B012B04DD194674
S31508003F102046054AFDF76EFD4FF00009DFF80880D8
S31508003F20034B4121204605E0D81300200000003845
S31508003F303C2E0900AB4ACDF80480CDF80090FDF779
S31508003F40A0FD424631462046FDF754FD424620462E
S31508003F500E99FDF74FFD424620461699FDF74AFD94
S31508003F60424620460F99FDF745FD424620461C99D4
S31508003F70FDF740FD40F2CD1120469B4B9B4ACDE90B
S31508003F800098FDF77EFD4B46072221460DF5DE60BB
S31508003F90FFF7D2FA4B4640F2D711954A2046CDE9AB
S31508003FA00098FDF76EFD2046FDF7D2FD042202219A
S31508003FB02046FDF71FFE062321461A460DF5DE604C
S31508003FC0FFF78CFA2046FDF7C3FD06230522214696
S31508003FD00DF5DE60FFF782FA4FF0F87340F2D7115D
S31508003FE02046844A0093CDF804804B46FDF749FDE8
S31508003FF01423052221460DF6F800FFF79DFA002F37
S3150800400072D13B4641212046CDE90078754AFDF735
S3150800401038FD2046FDF79CFD0723042221460DF5B1
S31508004020DE60FFF75BFA0623042221460DF6F80048
S31508004030FFF754FA2046FDF78BFD07230322214696
S315080040400DF6F800FFF74AFA0623032221460DF576
S31508004050DE60FFF743FA2046FDF77AFD01220221CA
S315080040602046FDF7C7FD0723022221460DF6F80074
S31508004070FFF734FA089B012B02DD2046FDF768FDA1
S315080040800623012221460DF5DE60FFF727FABAF16D
S31508004090010F02DD2046FDF75BFD574B1B68CBB3CE
S315080040A01E4630460DF6043DBDEC088BBDE8F08F84
S315080040B00027AFE5B0EE490AD4F868020021FDF7FB
S315080040C079FB28EE290AD4F86802B3EE400A0121E2
S315080040D0FDF770FBB3EE680A0221D4F86802FDF713
S315080040E069FB51E633AAEDE6424639462046FDF716
S315080040F081FC8023DDF8E02A204693404121CDE962
S315080041000098384A43F01F03FDF7BBFC2046FDF72D
S315080041101FFD7EE7259B73B12046FDF731FD129BF7
S31508004120299A01331293249B13442493309A1D9B96
S3150800413013441D93ECE51F9B01331F93EFE7179B71
S315080041400133D4E5119B03F1010A09E4209B03F12D
S31508004150010BFFF7D7BB259B274C8BB1FDF7F8FA68
S315080041600D9B1B9909985943139B95F9242059438C
S3150800417095F928304143A869FDF780FD266890E740
S315080041800B9B109959430D9B5943139B5943099B04
S3150800419059431F9B91FBF3F17729DCBF2123236049
S315080041A0ECE70E9B012B16D04FF0000856E5B8F148
S315080041B0010F0CD0DDF838800F9B012B03D01C9B18
S315080041C0012B7FF442ADB8F1000F3FF43EAD282233
S315080041D0094B1A6037E5B8F1010F4FF00008EBD12B
S315080041E033E500BF000004500EBC04000600016061
S315080041F00607055005030270D81300202DE9F04F75
S315080042002DED048B436CB9B02293036C90ED178A9D
S315080042102393036DD0ED188A2493C36CD0F8389095
S315080042202593036845692D93C36815930369089315
S3150800423043681693436B0993C3692693036A1793D6
S31508004240436A1893836A199383682793036B2893A1
S31508004250C36B1A93C36A29938369299A2A930023FD
S3150800426037931A9B1A4311B1D30700F10D82279B86
S315080042702A982B430343289802F00302034303F0CA
S315080042800103134309BF05EBD57300234FEA630AFD
S31508004290012318BFAA46B9F5806F0D9300F3F6817E
S315080042A0099BB3F5806F00F3F181089B0AFB03F3C2
S315080042B0B3F5006F209380F0E98109FB0AF3B3F5A3
S315080042C0006F219380F0E281B9F5806F00F2DE81FC
S315080042D0099BB3F5806F00F2D981002900F0CE81E1
S315080042E0FFF718F8199B189A7F3B18BF01238032ED
S315080042F018BF012330930D9B179A002B14BF052373
S31508004300012309EE903A269B00276B435343159ADF
S315080043102F93089BCDE911775343169A2E90534352
S31508004320329309FB05F3099A1F9353433393179B5B
S315080043301D976B43319340F2002309EE103A0E970E
S31508004340129B2D9A934280F29781259B0B935B4291
S315080043500A930E9B1B930023139346E1079B089A27
S31508004360002B0C9BACBF4FF0000B9B46079B4FF4F2
S315080043708A7023EAE3744B449A42DCBF13460C9ACC
S31508004380F0EE490AD8BF9E18119A2E9B4FF00001ED
S3150800439000FB023040F2002300EE103AC8BF4E463A
S315080043A01C90FDF7D7F9F0EE480AFAEEE80AF3EEA4
S315080043B0600A0121B0EE600A1C98FDF7CBF9F8EE09
S315080043C0E80AF3EE600A1C98B0EE600A0221FDF7CF
S315080043D0C1F9189B1C988033A6EB0B0603D1199BD1
S315080043E07F2B00F03581DDED187AF8EEE70AF3EE5B
S315080043F0600A0321B0EE600A1C90FDF7ABF9DDED0B
S31508004400197AF8EEE70AF3EE600A1C98B0EE600A2D
S3150800441004213490FDF79EF9309B34981C930123B0
S315080044201E932B9B169A279904FB02320124209B84
S315080044301FFA8AF80493109BB6B20A44CDE90083A2
S31508004440002119EE903ACDE90264CDF814A0349013
S31508004450FDF7BCF92C9B289905FB0B32219B349858
S31508004460CDE90343109B0A44CDE90083214619EEA2
S31508004470903ACDF814A00296FDF7A8F91A9B34983D
S31508004480002B40F005810D9B37AA002B14BF06238D
S3150800449002234FF0010B0221009435933490FDF767
S315080044A00FFA0321359B299A3498CDF80080FDF739
S315080044B007FA19EE903A04210F9A3498CDE904AA1E
S315080044C0CDE902BBCDE9008B0024FDF77FF940F268
S315080044D02D232246214634980093CDE901442346EC
S315080044E0FDF710FA6E4B40F2D712594634980093EE
S315080044F0CDE901446B4BFDF705FA40F2D7120221CC
S31508004500694B3498CDE901440094FDF7FBF91E9BED
S315080045101C9AA34214BF23464FF04F6382EA0B024C
S31508004520CDE9013240F23E233498009340F2D71287
S315080045305E4B03211C90FDF7E5F91E9B1C98002B8A
S3150800454000F08A804FF04F6340F2D512CDE9004360
S315080045500421574BCDF808B0FDF7D4F904231C986D
S31508004560002442462146CDE9003423464FF002088E
S315080045701C90FDF7EDF91123CDE900830123109A6C
S3150800458019461C98FDF7E4F9222332464146CDE93F
S3150800459000831C980123FDF7DBF921461C98FDF7DB
S315080045A0BFF8119B229A83F001031193149B0133E0
S315080045B014930F9B2B440F930C9B9B1A0C93079BEE
S315080045C013440793149B179A9342FFF6C7AE139B9F
S315080045D0239A013313930A9B13440A930B9B9B1A42
S315080045E00B93319A1B9B13441B93139B269A934256
S315080045F034DA0A9B16980899002B0B9B00FB01F1ED
S31508004600B8BF1A460A9B1D9823EAE37301FB030306
S3150800461015992B930B9B159C0B44DDE90910014456
S315080046200998A8BF00228C42C8BF03469B1A9BB2B2
S3150800463010931F9B02FB03731B9A2C932A9B13440C
S315080046400F93249B0C935B42079300231493B9E7BB
S3150800465000231C931E93E4E6032381E7129B2F9AFB
S31508004660013312930E9B13440E93329A1D9B1344E7
S315080046701D93339B1F4463E6FDF76AF8002039B0A3
S31508004680BDEC048BBDE8F08F2120F8E72820F6E77B
S315080046900D9B4446002B14BF062302231A9AF8E6FC
S315080046A00E7E080006000160060705500506027022
S315080046B0030407702DE9F843174B1F6D5B6D1F4008
S315080046C000D5FEE701260025144CDFF85480DFF8F4
S315080046D05490374217D02368C8F850609BB1A16838
S315080046E0284601316268A1609847637B012B0AD18D
S315080046F048B909EB45131A7B60F341021A731A7F0E
S3150800470060F341021A770135082D4FEA460604F18F
S315080047101004DED1BDE8F88300000450DC13002045
S31508004720002004505C14002070B5044601250B4E89
S3150800473004B970BD94FAA4F0B0FA80F005FA00F353
S3150800474006EB001224EA03045368002BF0D0117B11
S3150800475011B191689847EBE79847E9E75C1500209F
S3150800476008B5192001F0C8FA28B14FF00072074BB6
S31508004770C3F880211A601A2001F0BEFA28B14FF05A
S315080047808062024BC3F880211A6008BD00E100E090
S31508004790F8B505460F46164601F0A5FA104B05F082
S315080047A0FC02D3F824140023EC1804F00304144381
S315080047B021FA04FC1CF0010F07D00133042BF3D1B6
S315080047C0FF2401F096FA2046F8BDFF2CF9D0012205
S315080047D0044B03EB0413C3E901761A73F1E700BF30
S315080047E000C003505C150020074BD3F82404D3F807
S315080047F0202403F50053104000F0553020F05020D7
S31508004800C3F82004FFF790BF00C00350074BD3F846
S315080048102404D3F8202403F50053104000F0AA30EE
S3150800482020F0A020C3F82004FFF77EBF00C0035085
S31508004830044BD3F88420D206FBD4D3F88400C0F303
S31508004840811070470040005038B50F4B0546D3F825
S3150800485080300C4603F00303012B09D0022B0FD03E
S315080048600A4840F6B271FCF74FFD0023184602E0ED
S31508004870FCF7C8FD0E2305B1286004B1236038BDD6
S31508004880FCF70CFE0723F6E7008000507D6101085F
S3150800489038B5194B0546D3F820310C4603F0070303
S315080048A0013B052B20D8DFE803F0030B130F171B7A
S315080048B0FCF7A2FD052305B1286004B1236038BDC5
S315080048C0FCF7D0FD0323F6E7FCF7E8FD0723F2E73C
S315080048D0FCF7E0FD0223EEE7FCF78EFD0623EAE788
S315080048E0FCF7C0FD0423E6E7044841F22B01FCF778
S315080048F00BFD00231846DEE7008000507D610108A5
S3150800490038B5194B0546D3F828310C4603F007038A
S31508004910013B052B20D8DFE803F003131B0F0B1709
S31508004920FCF76AFD052305B1286004B1236038BD8C
S31508004930FCF762FD0623F6E7FCF7B0FD0723F2E76E
S31508004940FCF790FD0323EEE7FCF78CFD0423EAE76A
S31508004950FCF7A0FD0223E6E7044840F63E61FCF7B3
S31508004960D3FC00231846DEE7008000507D6101086D
S31508004970F7B50027144B0197D3F88041064604F093
S315080049800304022C0D4614D0032C0DD0012C14D18F
S31508004990394601A8FFF77CFF10240EB1019B33604E
S315080049A005B12C6003B0F0BDFCF778FD0724019033
S315080049B0F3E7FCF76FFD0190EFE741F27811034842
S315080049C0FCF7A2FC3C46E8E7008000507D61010840
S315080049D0002337B50193184B0546D3F820320C4609
S315080049E003F00703013B032B1ED8DFE803F0020E92
S315080049F01318002101A8FFF783FF12230DB1019AAE
S31508004A002A6004B1236003B030BDFCF747FD0723D5
S31508004A100190F3E7FCF784FD0A230190EEE7FCF723
S31508004A2085FD09230190E9E740F6FD510348FCF7A7
S31508004A306BFC0023E2E700BF008000507D6101089F
S31508004A4038B5124B0546D3F840310C4603F003033C
S31508004A50022B0BD0032B0DD0012B0FD1FCF760FDD9
S31508004A600A2305B1286004B1236038BDFCF75EFD52
S31508004A700923F6E7FCF757FD0C23F2E7044841F251
S31508004A805901FCF741FC00231846EAE7008000506C
S31508004A907D610108002337B50193184B0546D3F805
S31508004AA060320C4603F00703013B032B1FD8DFE8EF
S31508004AB003F0020E1914002101A8FFF7E9FE1023DE
S31508004AC00DB1019A2A6004B1236003B030BD0021FC
S31508004AD001A8FFF7B5FF1123F2E7FCF7DFFC072370
S31508004AE00190EDE7FCF7D6FC02230190E8E740F6D3
S31508004AF0A2610348FCF708FC0023E1E700800050A8
S31508004B007D610108002337B50193184B0546D3F894
S31508004B1094320C4603F00703013B032B1FD8DFE84A
S31508004B2003F0020E1914002101A8FFF7B1FE1023A5
S31508004B300DB1019A2A6004B1236003B030BD00218B
S31508004B4001A8FFF77DFF1123F2E7FCF7A7FC07236F
S31508004B500190EDE7FCF79EFC02230190E8E740F69A
S31508004B60D5610348FCF7D0FB0023E1E7008000503D
S31508004B707D61010873B500240F4B0194D3F8703298
S31508004B80064603F00303012B0D4607D0022B11D06E
S31508004B904FF470610948FCF7B7FB04E0214601A809
S31508004BA0FFF74EFF11240EB1019B336005B12C604F
S31508004BB002B070BD1524F6E7008000507D6101083B
S31508004BC038B5154B0546D3F800320C4603F00703F3
S31508004BD0013B032B18D8DFE803F0020A0E12FCF794
S31508004BE09FFC0A2305B1286004B1236038BDFCF791
S31508004BF09DFC0923F6E7FCF796FC0C23F2E7FCF785
S31508004C001BFC0F23800AEDE7044841F22E21FCF72E
S31508004C107BFB00231846E5E7008000507D6101080C
S31508004C2038B5154B0546D3F808320C4603F007038A
S31508004C30013B032B18D8DFE803F0020A0E12FCF733
S31508004C406FFC0A2305B1286004B1236038BDFCF760
S31508004C506DFC0923F6E7FCF766FC0C23F2E7FCF784
S31508004C60EBFB0F23800AEDE7044841F26221FCF7CB
S31508004C704BFB00231846E5E7008000507D610108DC
S31508004C8038B5124B0546D3F840320C4603F00303F9
S31508004C90022B0BD0032B0DD0012B0FD1FCF740FCB8
S31508004CA00A2305B1286004B1236038BDFCF73EFC31
S31508004CB00923F6E7FCF737FC0C23F2E7044841F230
S31508004CC0F111FCF721FB00231846EAE700800050A3
S31508004CD07D61010838B5124B0546D3F860310C469C
S31508004CE003F00303022B0BD0032B0DD0012B0FD19E
S31508004CF0FCF716FC0A2305B1286004B1236038BD09
S31508004D00FCF714FC0923F6E7FCF70DFC0C23F2E785
S31508004D10044841F28701FCF7F7FA00231846EAE748
S31508004D20008000507D61010870B5054614460E46A0
S31508004D3000F0D2FF296881EA040202EA06044C4020
S31508004D402C60BDE8704000F0CBBF0000B0F5207FB6
S31508004D5010B52ED009D8B0F5007F24D003D868B195
S31508004D60B0F5C07F0AD000241BE0B0F5607FFAD109
S31508004D70124BD3F88040C4F3011412E00F4B1C6F9A
S31508004D80230B13F00E0FC4F303340AD0032C08D0F8
S31508004D90072C06D00F2C04D040F272210848FCF7E5
S31508004DA0B3FA601C10BD054BD3F89040C4F30464F5
S31508004DB0F7E7024B1C6FC4F38024F2E7008000502B
S31508004DC07D6101084FF4803238B5104B04469A6667
S31508004DD000200D46FFF7BAFF41F671320C4B6043CF
S31508004DE0DC69DA635A6804F4803422F440125DB947
S31508004DF0084988428CBF4FF4801000201043586041
S31508004E000CB10022DA6338BD0349F2E7009000507E
S31508004E1000000350005A6202002D310108B5FCF764
S31508004E201DFBBDE808400021FFF7CCBF70B544095B
S31508004E3005460E460ED140F216310F48FCF764FAC5
S31508004E4005F01F05AEB104F58053012000FA05F5FB
S31508004E501D6070BD012C08D0022C08D04FF4487193
S31508004E600548FCF751FA0024EAE7044CE8E7044C45
S31508004E70E6E704F50053E8E77D6101086480005021
S31508004E8068800050002130B5802885B00446CDE9F9
S31508004E90001100F0938029D8002800F09580A0F131
S31508004EA020043D2C35D83D2C33D8DFE804F08D9905
S31508004EB08D99A8A8A8A8A899B23FC8633F999999B7
S31508004EC032323232323232329999996BD29932323F
S31508004ED03232323232323232323232A88D8D8DCD82
S31508004EE03F3FD77A50AD323232323282B0F5B06FA8
S31508004EF000F08F8030D8B0F5207F71D00FD8B0F58C
S31508004F00C07F61D0B0F5007F61D0B0F5807F00F03A
S31508004F10858040F26D415448FCF7F6F951E0B0F54A
S31508004F20607F67D00DD8B0F5407FF2D1FCF784FAE0
S31508004F3004464FF42070FFF709FFB4FBF0F0400871
S31508004F403EE0B0F5806F5AD0B0F5A06FE1D10021F0
S31508004F506846FFF73DFD34E0B0F5106F74D016D8FB
S31508004F60B0F5E06F75D00AD8B0F5C06F67D0B0F568
S31508004F70D06FCED100216846FFF722FE21E0B0F5BA
S31508004F80F06FC6D100216846FFF7A4FE19E0B0F518
S31508004F90406F39D00AD8B0F5206F5FD0B0F5286FCA
S31508004FA0B7D100216846FFF7E5FD0AE0B0F5486F7E
S31508004FB0AFD100216846FFF7A5FD02E0FCF722FA0B
S31508004FC00090009805B030BDFCF736FAF8E7FCF714
S31508004FD019FA05462046FFF7B9FEB5FBF0F0EFE7EC
S31508004FE0FCF72AFA04464FF42070FFF7AFFEB4FB2D
S31508004FF0F0F0E5E701A8FFF727FC019DEAE70021A5
S315080050006846FFF745FCDCE700216846FFF778FCB1
S31508005010D7E700216846FFF7ABFCD2E74FF0E0235D
S3150800502002911B695B0705D5FCF706FA0290029BFD
S315080050300093C6E703A902A8FFF702FDF7E70021D8
S315080050406846FFF7FDFCBCE700216846FFF7E8FD68
S31508005050B7E700216846FFF713FEB2E70021684666
S31508005060FFF718FDADE700BF7D61010808B5802090
S31508005070FFF708FF034B98429EBF4FF48032024B5E
S315080050801A6708BD005A620200A000501FB5002327
S31508005090B0F5807F019300F0C38064D85D2855D8A9
S315080050A04C2806D82D2847D823282BD840F24B5110
S315080050B0A5E04D381028F9D801A353F820F000BF11
S315080050C017520008AD500008AD500008AD50000852
S315080050D0C9510008AD500008AD5000089D5200089F
S315080050E0E75100088D51000893520008AD5000089A
S315080050F0AD500008AD500008AD500008AD5000088E
S31508005100A752000824380928D0D801A353F820F05C
S3150800511017520008175200081752000817520008BD
S3150800512017520008AD50000807520008AD50000895
S31508005130A95100084D5200083D2800F082803E28FB
S31508005140B4D1002001A9FFF79BFD60E08028ADD10E
S31508005150574B1B6F03F00703013B032B4DD8DFE8C2
S3150800516003F04A47878FB0F5F06F6AD021D8B0F5BB
S31508005170B06F48D00FD8B0F5607F00F0858095D322
S31508005180B0F5806F47D0B0F5A06F8FD1002001A988
S31508005190FFF71EFC3BE0B0F5D06F57D0B0F5E06FD7
S315080051A0CFD0B0F5C06F81D1002001A9FFF748FC28
S315080051B02DE0B0F5206F71D00BD8B0F5086F4AD046
S315080051C0B0F5106F7FF472AF002001A9FFF728FD34
S315080051D01DE0B0F5406F5CD0B0F5486F63D0B0F510
S315080051E0286F7FF463AF002001A9FFF7C3FC0EE028
S315080051F0052301930BE00223FBE740F29F412D486C
S31508005200FCF782F803E0002001A9FFF7B1FB01983B
S3150800521005B05DF804FB002001A9FFF739FBF6E7A6
S3150800522002934FF0E0231B695B0705D5FCF704F9E9
S315080052300D230393039BDCE703A902A8FFF700FCF1
S31508005240F8E7002001A9FFF745FDE0E7002001A9DE
S31508005250FFF7B6FCDBE7164BD3F8003103F0030380
S31508005260022B07D0032B09D0012B0BD1FCF7FAF838
S315080052700323BEE7FCF75AF90923BAE7FCF708F94E
S315080052800823B6E70123B4E7184601A9FFF7DCFAB5
S31508005290BDE7002001A9FFF733FBB8E7002001A905
S315080052A0FFF7F8FBB3E7002001A9FFF72BFCAEE7F1
S315080052B0008000507D61010838B5036804460F2B4D
S315080052C004D940F663217A48FCF71EF863680F2B69
S315080052D004D940F666217648FCF716F8A3680F2B22
S315080052E004D940F669217248FCF70EF8237B0F2B88
S315080052F004D940F66C216E48FCF706F8637B0F2B41
S3150800530004D940F66F216A48FBF7FEFFA37B3F2BC3
S3150800531004D940F672216648FBF7F6FFE37B3F2B7C
S3150800532004D940F675216248FBF7EEFF2369032B83
S3150800533004D940F678215E48FBF7E6FF6369032B3C
S3150800534004D940F67B215A48FBF7DEFFE369032BB5
S3150800535004D940F67E215648FBF7D6FF8020FFF792
S3150800536095FE032800F083804FF48012514B4FF0CE
S31508005370A0615A6645F60E034F4AC2F880304F4B75
S3150800538099624FF4803103F580539962916D11F457
S315080053908031FBD1D4E900031B0543EA0063E07BB7
S315080053A00343207B43EA0043607B43EA0033A07B48
S315080053B043EA801313619069D4E904531B0643EA50
S315080053C0856300F000400343A07EE57E0343207E0C
S315080053D043EA0043607E43EA00239361E069136A67
S315080053E000280CBF0022082223F00F0343EA00031B
S315080053F043EA850343EA02032F4A314D136237D144
S3150800540094F82430916A94F82000DB000D4043EAB2
S31508005410401394F821102B4343EA011343F48033D5
S315080054209362284B916D33EA0101FBD14FF08071ED
S31508005430224881621369A56823F4700343EA055379
S3150800544013614FF00043836194F822300BB91E4B69
S31508005450996294F823301BB94FF480321A4B9A623A
S3150800546094F825301BB1144B184AC3F8802038BD70
S31508005470022808D11161164891614FF408524FF479
S315080054807F41FFF751FC0C4994F822308A6A94F858
S3150800549020001B06154043EA401394F824202B43AA
S315080054A043EAC20394F8232043EA02438B62D7E710
S315080054B07D610108009000500040005A0050005AD3
S315080054C0C7FFFEFE030001000060005AF1A7FFFFB8
S315080054D03440005A014B93F9000070473010002001
S315080054E0436810B5072B044604D940F6E1312A482B
