S02B00006275696C642F72656C656173652F74666C6974655F6D6963726F5F6D616769635F77616E642E733347
S31508000000001000202D1300082913000829130008E2
S3150800001029130008291300082913000829130008C2
S3150800002029130008291300082913000829130008B2
S3150800003029130008291300082913000829130008A2
S315080000402913000829130008291300082913000892
S315080000502913000829130008291300082913000882
S31508000060291300082913000829130008C9180108CC
S31508000070D51801082913000829130008951B00083C
S315080000802913000829130008291300082913000852
S3150800009029130008B1450008291300082913000888
S315080000A0291300080D470008E94600082913000827
S315080000B02913000829130008291300082913000822
S315080000C02913000829130008291300082913000812
S315080000D02913000829130008291300082913000802
S315080000E029130008291300082913000829130008F2
S315080000F029130008291300082913000829130008E2
S3150800010029130008291300082913000829130008D1
S3150800011029130008291300082913000829130008C1
S3150800012029130008291300082913000829130008B1
S3150800013029130008291300082913000829130008A1
S315080001402913000829130008291300082D78000828
S315080001502913000829130008291300082913000881
S315080001602913000829130008291300082913000871
S3150800017010B5054C237833B9044B13B1044800E095
S3150800018000BF0123237010BDD0100020000000001E
S3150800019028C1010808B5034B1BB10349034800E011
S315080001A000BF08BD00000000D410002028C10108C7
S315080001B0A3F5803A704700BF174B002B08BF134BB7
S315080001C09D46FFF7F5FF00218B460F461348144A54
S315080001D0121A13F000FE0E4B002B00D098470D4B59
S315080001E0002B00D098470020002104000D000D4880
S315080001F0002802D00C4800E000BF13F035FD2000AF
S31508000200290011F0D3FE13F053FB00BF00000800CD
S31508000210000000000000000000100020D0100020A0
S315080002203C47002000000000000000000F20704737
S31508000230082808B504D00FDC022809DC002809DDE7
S31508000240012304220921022006F03EFB002008BDF6
S315080002500428F5D09F2106E02028F1D0402807D0B1
S315080002601028F7D18821044804F062FA0E20EEE738
S31508000270012304220821E6E76457010808B501218D
S315080002803A2004F049FD11F091FA2020FFF7D0FF3B
S31508000290BDE8084000F0A2BF01213A2004F03CBDA9
S315080002A08022014B1A64704700D003408022014B1C
S315080002B01A64704700E003400020704770B5144682
S315080002C00D4640F080010A48FFF7F0FF05F067FE8B
S315080002D0074E2544AC4203D1FFF7E2FF002070BD6C
S315080002E00021304605F05BFE04F8010BF2E700BF7B
S315080002F000000A4038B50C46074D00F07F01284635
S31508000300FFF7D4FF05F04BFE2146284605F047FEC9
S31508000310FFF7C6FF002038BD00000A4008B5802157
S315080003206B20FFF7E7FF642007F00AF9002008BDF5
S3150800033073B50C46164601210DF107020546FFF76F
S31508000340BDFF48B99DF80730284623EA0601214330
S315080003508DF80710FFF7CEFF02B070BD70B5264CBA
S315080003608EB0264601AD0FCE14340FC50FCC06ADA0
S315080003700FC594E80F0085E80F00204B0121039371
S3150800038006AB05934FF480735720ADF81C3004F084
S31508000390C3FC01213A2004F0BFFC002304220321F8
S315080003A0022006F091FA022100230846012206F0EF
S315080003B08BFA002304220121022006F085FA012384
S315080003C004220721002006F07FFA0D4801A906F04D
S315080003D08DF80C4B0C4A0020C3F8CC244FF00212BF
S315080003E0C3F8C424A2F58032C3F8C8241C22C3F873
S315080003F0B4240EB070BD00BFE0570108A05A320001
S3150800040000000A4000C003400200030007B5FFF7DA
S31508000410A5FFFFF783FF012175200DF10702FFF7FE
S315080004204DFF9DF80730982B12D111216A20FFF74E
S3150800043061FF01216B20FFF75DFF1E2007F080F8A2
S31508000440C0213720FFF756FF002003B05DF804FBF4
S315080004501020FAE713B510EE100A12F055FB024603
S315080004600B4600201A4912F0D1FC0022194B12F053
S31508000470EBF912F063FE9FED187A07EE900AF4EE98
S31508000480C77AF1EE10FA1FDCF5EEC07AF1EE10FA33
S3150800049001D5DFED127AFCEEE77ACDED017A9DF80B
S315080004A0044019202146FFF725FF601C12F01AFBAD
S315080004B002460B460020064912F0A8FC12F03EFE42
S315080004C000EE100A02B010BDF0EE477AE3E700BF6F
S315080004D000408F400000F03F00007F43000000000E
S315080004E010B5C0F3C101044603221B20FFF720FF05
S315080004F007221A2004EA0201FFF71AFF002010BD9E
S3150800050001460F221D20FFF713BF000013B504464E
S3150800051001211C200DF10702FFF7D0FE9DF80730D8
S3150800052003F0180010288DF8070019D009D868B10B
S31508000530082810D00C484FF4AB7104F0F9F80120E4
S3150800054007E01828F6D14FF0685306E04FF06252DC
S31508000550226002B010BD4FF0645300202360F8E714
S315080005604FF06653F9E700BFA25701081FB50446C6
S3150800057001A8FFF7CBFF062102AA3B20FFF79EFE44
S31508000580BDF80830DDED016ADBBA07EE103AB8EEC1
S31508000590C77A27EE267ABDF80A3084ED007ADBBAE8
S315080005A007EE103ABDF80C30B8EEC77ADBBA07EE9C
S315080005B0903AF8EEE77A27EE267A67EEA67A0020D2
S315080005C084ED017AC4ED027A04B010BD13B5044671
S315080005D001211B200DF10702FFF770FE9DF8073079
S315080005E003F0180010288DF8070016D009D860B156
S315080005F008280ED00A4840F27B1104F099F8012029
S3150800060005E01828F6D1074B04E0074A226002B035
S3150800061010BD064B00202360F9E7054BFAE700BF3B
S31508000620A257010800007A3D0000FA3B00007A3C18
S315080006300000FA3C1FB50446062102AA4320FFF72C
S315080006403DFE01A8FFF7C2FFBDF80830DDED016ADF
S31508000650DBBA07EE103AB8EEC77A27EE267ABDF867
S315080006600A3084ED007ADBBA07EE103ABDF80C3092
S31508000670B8EEC77ADBBA07EE903AF8EEE77A27EED5
S31508000680267A67EEA67A002084ED017AC4ED027A0E
S3150800069004B010BD13B504460DF1070201211C2054
S315080006A0FFF70CFE9DF807101C2021F018012143C6
S315080006B08DF80710FFF71EFE002002B010BD13B517
S315080006C004460DF1070201211B20FFF7F7FD9DF8EF
S315080006D007101B2021F0180121438DF80710FFF79A
S315080006E009FE002002B010BD002A14BF002308230B
S315080006F0002810B514BF0024382409B944F00704AB
S31508000700194608226B20FFF713FE3F2221466C206C
S31508000710FFF70EFE002010BD00290CBF0021E021C6
S3150800072008B508B141F00101E1223820FFF700FEC3
S31508000730002008BD13B50446042101AA3A20FFF794
S31508000740BDFD0020019B236002B010BD07B5012145
S315080007500DF107023A20FFF7B1FD9DF8070000F0FA
S31508000760010003B05DF804FB01212DE9F0430022E6
S3150800077085B080460846FFF7B7FF9FED760AFFF774
S3150800078069FE0520FFF7ACFE0020FFF798FF6846D4
S31508000790FFF71CFF322006F0D3FE40211A20FFF790
S315080007A0A9FD44216A20FFF7A5FD78212320FFF73C
S315080007B0A1FD052006F0C4FE0221722001AAFFF75A
S315080007C07DFDBDF804305BBA9BB2B3F5FC7FF0D370
S315080007D04FF000090C27782200212320FFF7A8FDF7
S315080007E00221722001AAFFF769FDBDF804404D46B3
S315080007F064BAA4B2B4FBF7F74E464C461FFA89F31F
S31508000800BB42C0F08A8096FBF7F607EE906A9DED2C
S31508000810007AF8EEE77A95FBF7F567EE877AC8ED82
S31508000820007A07EE905AF8EEE77A94FBF7F467EE4B
S31508000830877AC8ED017A07EE904AF8EEE77A67EE0E
S31508000840877A01AAC8ED027A02211320FFF736FD3E
S315080008509DF904309DF8058001AA0221152048EA71
S315080008600328FFF72BFD9DF904309DF8057001AAB2
S315080008700221172047EA0327FFF720FD002E9DF9DE
S3150800088004209DF80530B8BF0336002DB8BF0335E0
S31508000890002CB8BF033443EA0223A7EBA505A3EB54
S315080008A0A404A8EBA6062B12C6F307218DF806307A
S315080008B0132023128DF808308DF804108DF8056082
S315080008C08DF807508DF80940FFF714FD9DF80510BF
S315080008D01420FFF70FFD9DF806101520FFF70AFDF7
S315080008E09DF807101620FFF705FD9DF8081017203C
S315080008F0FFF700FD9DF809101820FFF7FBFC4022C2
S3150800090000216A20FFF714FD002211461046FFF762
S31508000910EBFE002005B0BDE8F08301AA0C21742087
S31508000920FFF7CCFC9DF90A209DF80B3009F1010967
S3150800093043EA02231E449DF90C209DF80D3043EA34
S3150800094002231D449DF90E209DF80F3043EA022329
S315080009501C4453E700007A4408B502460121752075
S31508000960FFF7ACFC002008BD00234FF07E52436021
S3150800097002608360C360026143618361C36102628E
S31508000980704791ED027AF1EE477A10B592B0CDED47
S31508000990017A8DED037AD1ED017A91ED007A002383
S315080009A00446CDED027AF1EE476AF1EE677A6A46B9
S315080009B0014609A8009304930893CDED056ACDED89
S315080009C0067A8DED077A00F047FB204609AB04F15D
S315080009D02402D0ED007A93ED007A77EE877A93EDCC
S315080009E0017AC0ED007AD0ED017A77EE877A93ED39
S315080009F0027AC0ED017AD0ED027A77EE877A0C306A
S31508000A0040ED017A904203F10C03E2D112B010BD19
S31508000A1030B52DED028B00F10C058DB02946044644
S31508000A2000F090FBFEEE007A20EE270A294603A87E
S31508000A308DED010A00F045FB9DED010A214606A849
S31508000A4000F03FFB03A92246084600F060FB06A912
S31508000A502A46084600F05BFB06AA03A909A800F087
S31508000A6081FB03A9084600F06DFBB0EE088AF6EE96
S31508000A70008A38EE400A204620EE280A03A900F02C
S31508000A8020FB06A9084600F05DFB38EE400A28461A
S31508000A9020EE280A06A900F014FB09A9084600F06A
S31508000AA051FB38EE400A09A920EE280A04F118007D
S31508000AB000F007FB0DB0BDEC028B30BD38B5D0EDAC
S31508000AC0080A90ED070A04460D4614F069FA85ED02
S31508000AD0000A94ED060A14F02FFAB1EE400A85EDE5
S31508000AE0010AD4ED000A94ED030A14F059FA85EDCB
S31508000AF0020A38BD0023002243628362C36203638D
S31508000B0043638363C2630364C36503664366036022
S31508000B1043608360C360036143618361C3610362A9
S31508000B2043648364C364036543658366C366036776
S31508000B307047000000000000B7EE007AC7EE007AA2
S31508000B4010B580ED140AC0ED157A044610EE100AA9
S31508000B5011F0DAFF02460B4605A1D1E9000112F0B1
S31508000B6055F912F0EBFAA06510BD00BFAFF300808F
S31508000B70399D52A246DF913F80ED140A704791EDE8
S31508000B80007AD0ED0C7A77EE877AC0ED0C7AD0ED44
S31508000B900D7A91ED017A77EE877AC0ED0D7AD0ED70
S31508000BA00E7A91ED027A77EE877AC36BC0ED0E7AEC
S31508000BB00133C363704710B5044686B090ED160A34
S31508000BC0684600F07EFA04F15C02694603A800F064
S31508000BD09EFA03A92046FFF7D4FE2046FFF718FF22
S31508000BE0204604F16801FFF769FF06B010BD000052
S31508000BF02DE9F0432DED048B884600F15C0504468B
S31508000C0090ED098AD0ED0A8A90ED0B9A85B02846B0
S31508000C10174610EE106A00F04FFAB8F1000F53D0DD
S31508000C20606A11F071FF46A3D3E90023804689461E
S31508000C3012F048FA002847D043A3D3E900234046D8
S31508000C40494612F035FA00283ED0A06A11F05CFF3A
S31508000C503BA3D3E900238046894612F033FA98B3BA
S31508000C6039A3D3E900234046494612F021FA58B37E
S31508000C70B5EEC09AF1EE10FAB1EE488AB1EE680AFE
S31508000C8004F1680825DB14F057F98DED010AB0EE7A
S31508000C90480A14F051F9B1EE400A2846424601A91D
S31508000CA08DED020A039600F03FFA284600F0F7F9A0
S31508000CB00FB900236366D4ED147AB6EE000A284607
S31508000CC080EE270A00F010FA05B0BDEC048BBDE8EB
S31508000CD0F08314F031F910EE100A11F015FF0246F0
S31508000CE00B461BA1D1E9000111F0AEFD12F026FA60
S31508000CF0B0EE480A019014F01FF9B1EE400A3046EA
S31508000D008DED020A11F000FF11A3D3E9002311F0BB
S31508000D109DFD12F013FA039001A800F0C0F94246AF
S31508000D20284601A900F000FA284600F0B8F9D4EDE3
S31508000D30187AF1EE677AC4ED187AB9E7AFF300804E
S31508000D40C139234A7B83EFBFC139234A7B83EF3FEF
S31508000D50182D4454FB21094010B50446243000F0F0
S31508000D60ABF904F1300000F0A7F9002304F14400C0
S31508000D70E36300F0A1F904F1680000F09DF904F1BD
S31508000D805C0000F099F92046BDE81040FFF7ECBD7D
S31508000D9037B5044600F058F80128054629D104F16C
S31508000DA024010846019100F0D5F820460199FFF77D
S31508000DB0E6FE04F144010846019100F0D9F8D4EDA5
S31508000DC0117AF1EE677AC4ED117AD4ED127AF1EE62
S31508000DD0677A20460199C4ED127AFFF7ECFE9FED7B
S31508000DE0060A00222946204603B0BDE83040FFF730
S31508000DF0FFBE03B030BD00BF000000007FB502266D
S31508000E000F4D10482E70FFF775FEFFF7FFFA0446E0
S31508000E1080B90DF10300FFF79FFD044650B903237F
S31508000E2001A82B70FFF7A0FC044618B92E702046BF
S31508000E3004B070BDFFF740FA00232B70F7E700BF38
S31508000E40F4100020F8100020014B1878704700BFF6
S31508000E50F41000200121022330B51B4D85B0002275
S31508000E6008462B708DED010AFFF73EFC9DED010A41
S31508000E70FFF7F0FA154C082084ED000AFFF740FB4F
S31508000E800320FFF72DFB0020FFF704FC0020FFF7E7
S31508000E9016FC322006F054FB00210120FFF73CFC2B
S31508000EA003A8FFF747FC94ED000A0948FFF764FE1C
S31508000EB094ED000A0648FFF73FFE0548FFF74CFF8A
S31508000EC001232B7005B030BDF41000206C110020F2
S31508000ED0F81000201A4AD36B6BB392ED0C6A9FED9B
S31508000EE0197A07EE903A26EE076AF8EE677AC6EEA2
S31508000EF0276A92ED0D6AFDEEE66A26EE076A16EE99
S31508000F00903AC6EE276AFDEEE66A038016EE903A38
S31508000F10D2ED0E6A66EE876A86EEA77ABDEEC77AC6
S31508000F20438017EE103A8380002313635363936359
S31508000F300023D3637047038043808380704700BFD4
S31508000F40F810002000007A440148FFF721BF00BFCF
S31508000F50F8100020054A1278012A04D000220260FF
S31508000F60426082607047FFF701BB00BFF4100020A3
S31508000F70054A1278012A04D0002202604260826083
S31508000F807047FFF757BB00BFF410002008B5094BA0
S31508000F901B78012B01D0002008BDFFF7D7FB064AB6
S31508000FA01368013313600028F5D0044A1368013327
S31508000FB01360F1E7F4100020EC100020F010002078
S31508000FC02DE9F0471EA7D7E900670FF27C09D9E992
S31508000FD000898246DAF8000011F096FD32463B4653
S31508000FE004460D4612F06EF898B90FF26409D9E96D
S31508000FF0008915A7D7E90067DAF8000011F084FD23
S3150800100042464B4604460D4612F048F860B9BDE81C
S31508001010F08742464B462046294611F015FC12F049
S315080010208DF8CAF80000D5E732463B4620462946E1
S3150800103011F00CFC12F082F8CAF80000DCE700BFD9
S31508001040182D4454FB210940182D4454FB211940FE
S31508001050182D4454FB2109C070B501F1240502F18D
S315080010600C0613460446F3EC017A91ED006AD1EDBD
S31508001070016A93ED027A67EE867A46EE877AD1EDB3
S31508001080026A93ED057A46EE877AB342E4EC017A72
S31508001090E9D10C318D4200F10C00E2D170BD10B5DA
S315080010A00446FFF78DFF201DFFF78AFF04F10800AD
S315080010B0BDE81040FFF784BF0023036043608360E8
S315080010C07047D1ED007A67EE807AC0ED007AD1EDEF
S315080010D0017A67EE807AC0ED017AD1ED027A27EEC1
S315080010E0800A80ED020A7047D0ED007A67EE807AB2
S315080010F0C0ED007AD0ED017A67EE807AC0ED017A0C
S31508001100D0ED027A27EE800A80ED020A704701F1D7
S315080011100C03F1EC017AB2EC017A77EE877A994200
S31508001120E0EC017AF5D1704701F10C03F1EC017A94
S31508001130B2EC017A77EEC77A9942E0EC017AF5D1FA
S31508001140704700009FED060A00F10C03B0EC017A27
S31508001150F1EC017A984207EE270AF7D1704700BFEB
S315080011600000000092ED016AD1ED027AD1ED016A24
S3150800117092ED027A67EE867A56EE877AC0ED007AA5
S3150800118092ED026AD1ED007AD1ED026A92ED007A0B
S3150800119067EE867A56EE877AC0ED017AD1ED017A46
S315080011A092ED006AD1ED006A92ED017A67EE867AD1
S315080011B056EE877AC0ED027A704700000122024B8C
S315080011C0C3F8A020704700BF00D003400122024B9D
S315080011D0C3F8A020704700BF00E0034070B5454C37
S315080011E08EB0264601AD0FCE0FC5336814342B607A
S315080011F006AD0FCC0FC594E80F0085E80F00012156
S315080012003A2003F089FD0121572003F085FD4FF4AC
S315080012108073394DADF81C30384B2846039301A925
S3150800122006AB059305F062F9012304220321022087
S3150800123005F04AFB022100230846012205F044FB7B
S31508001240012304221946022005F03EFB0422002150
S315080012500123022005F038FB294C2A4B4FF448702D
S31508001260C4F8C8344FF00213C4F8C43403F5803305
S31508001270C4F8CC341C23C4F8B43406F00DFB14208F
S31508001280FFF7A4FF06F008FB2320FFF797FF06F0F9
S3150800129003FBB9212846FFF799FF04F080FEFFF704
S315080012A08DFF002303211A46022005F00DFB0023BB
S315080012B002211A46084605F007FB012300221946B3
S315080012C0022005F001FB002201231146022005F049
S315080012D0FBFA284604F0F8FD00215720C4F8C81484
S315080012E0C4F8C414C4F8CC14C4F8B41403F014FD38
S315080012F00EB070BD1458010800000A40E070720074
S3150800130000C003400200010005490A681318054891
S3150800131083428CBF4FF0FF320B601046704700BF08
S315080013200410002000000420FEE7000008B500F0C5
S3150800133013F8064B064A07498B4201D3FEF73CFFD2
S3150800134052F8040B43F8040BF6E700BF0010002020
S3150800135030C10108D0100020044B054A9A60D3F822
S31508001360882042F47002C3F88820704700ED00E038
S3150800137000000008014B1868704700BF0C100020D9
S31508001380084B1B6F03F00703022B04D0032B05D071
S31508001390012B05D0FEE7044B18687047034BFBE7A3
S315080013A003487047008000400C10002010100020F1
S315080013B0002D310108B5FFF7E3FF054B1B6FC3F39B
S315080013C003330133B0FBF3F0024B186008BD00BFCE
S315080013D000800040081000200048704700B4C4048C
S315080013E0014B1868704700BF10100020054B1860A5
S315080013F0054B1B6F03F00703032B01D1FFF7DABF79
S31508001400704700BF10100020008000400020704781
S3150800141000487047002D31014FF094439868C0F397
S3150800142004400C2822D8DFE800F0092121212121D7
S31508001430071719211B1D1F000F4870479B6803F0EB
S315080014404073B3F1807F13D0B3F1007F12D00B4AFB
S31508001450002B08BF1046704709487047094870476F
S31508001460094870470948704709487047002070477F
S315080014700848704708487047405DC60000093D00A7
S315080014800024F400C0EA210180BA8C010048E80172
S31508001490005A620280841E0040420F004FF400404A
S315080014A070474FF47A707047014B1868704700BF51
S315080014B014100020D0E9000318478368006818470D
S315080014C0C36800681847000038B50D460446B0B131
S315080014D0012816D0022816D0032803D13F23EB4053
S315080014E0DB0704D44FF47F71084803F021F9302054
S315080014F001214443064B01FA05F51D5138BDFF236A
S31508001500EDE70F23EBE740F2FF33E8E74858010819
S3150800151040E0034038B50D460446B0B1012816D060
S31508001520022816D0032803D13F23EB40DB0704D457
S3150800153040F22B41084803F0FBF8302001214443D0
S31508001540064B01FA05F51D5138BDFF23EDE70F23BC
S31508001550EBE740F2FF33E8E74858010840D003407C
S3150800156010B5044601213A2003F0D6FBA37820786B
S31508001570B3FA83F3042261785B0905F0A5F9002024
S3150800158010BD034659789B7800780BB9FFF79CBFC6
S31508001590FFF7C0BF034659789B7800780BB9FFF769
S315080015A0B9BFFFF791BF000038B504784578ACB1EC
S315080015B0012C15D0022C15D0032C03D13F23EB4068
S315080015C0DB0704D440F24641084803F0B1F830235B
S315080015D001225C43064BAA401A5138BDFF23EEE7A9
S315080015E00F23ECE740F2FF33E9E700BF485801084C
S315080015F040F0034070B5047805464678F4B1012CEE
S315080016001ED0022C1ED0032C03D13F22F240D30752
S3150800161004D440F216410D4803F08AF830235C439F
S3150800162003F18043103403F57033E358F34003F0B5
S315080016300100AB780BB980F0010070BDFF22E5E729
S315080016400F22E3E740F2FF32E0E700BF48580108FF
S31508001650044B054A043850F8041F43F8041B934208
S31508001660F9D170476400004D7801004D10B5084C5B
S31508001670237A53B9E360074B236001F0C1FD4FF4A9
S315080016800042054B1A6001232372002010BD00BFDB
S31508001690181000205116000800E100E0092370B573
S315080016A00C460546084EC0F81031336901333361DC
S315080016B001F0A8FD21462846336898470CB101F089
S315080016C0A3FD002070BD00BF1810002001F09CBDCE
S315080016D00729F8B505460C4610EE107A10EE906A02
S315080016E003D9BC21044803F023F805EB840325F845
S315080016F024705E80F8BD00BF7858010807EE903A5E
S31508001700F8EEE70A07EE902AB8EEE70AF3EE600A63
S31508001710B3EE400AFFF7DCBF07EE902A40F200035B
S31508001720B8EEE70A00EE903AB3EE400AFFF7D0BFEC
S3150800173040F2000300EE903AFFF7CABFF3EE600AE4
S31508001740B3EE400AFFF7C4BF2DE9F84F0429074650
S315080017500C4693469946BDF82880BDF82C60BDF81E
S315080017603050DDF838A003D9D721324802F0E0FF1F
S31508001770B8F5806F03D9D8212E4802F0D9FFB6F5FF
S31508001780806F03D9D9212B4802F0D2FFB5F5806FB7
S3150800179003D9DA21274802F0CBFF0D9B03F5006336
S315080017A0B3F5805F03D3DB21224802F0C1FF0AF5B7
S315080017B00063B3F5805F03D3DC211E4802F0B8FF4F
S315080017C00F9B03F50063B3F5805F03D3DD2119484A
S315080017D002F0AEFF184B0F99013E013D03EA0A4A93
S315080017E003EA0141C6F30906C5F3090507EB041226
S315080017F046EA0A060D439662D5620D9A08F1FF3845
S3150800180003EA02434FEA093202F440521343C8F38B
S31508001810090843EA0803023419F0040F07EB041217
S3150800182018BF43F480432401536047F804B0BDE869
S31508001830F88F00BF785801080000FF0F30B5012463
S31508001840002587B0CDE904540395BDF828500094C7
S31508001850CDE90145FFF778FF07B030BD70B5012423
S31508001860002686B0BDF82C50CDE90454CDE90256C1
S31508001870BDF82850CDE90045FFF766FF06B070BDF4
S315080018802DE9F041072904460E4615461F469DF8E0
S31508001890208004D940F21F110B4802F049FFDDE908
S315080018A006320C2101FB06411343C1F8B070C1F89A
S315080018B0B4302A05B8F1000F03D1C1F8B820BDE845
S315080018C0F08142F00042F8E7785801082DE9F04126
S315080018D0072906460C46154698469DF8187004D9F9
S315080018E040F23111214802F023FF013DABB2B3F5B6
S315080018F0806F04D34FF499711C4802F019FFB8F1B0
S31508001900070F04D940F23311184802F011FF072FC8
S3150800191004D94FF49A71154802F00AFF0C20079A69
S3150800192004F10E0345EA023500FB0862B84546F89D
S3150800193033504FEA4404D2F8B85007D1032101FACC
S3150800194004F42C43C2F8B840BDE8F0810123A34053
S315080019502B43C2F8B830022300FB076603FA04F4E7
S31508001960D6F8B8302343C6F8B830EDE778580108FA
S3150800197037B50446D0F87002062804DD0AB12123DB
S31508001980136003B030BD4B1EB3F5806FF6D2002549
S315080019900130C4F87002CDE900558AB22B46C1B2AF
S315080019A0D4F86802FFF792FFD4F87022D4F86832A8
S315080019B002F10E0103EBC1035D60D4F87832D4F866
S315080019C07402591C9333C4F8781244F8232001236F
S315080019D004EB8004520003FA02F2D4F82C321343C3
S315080019E0C4F82C32CDE74FF0FF332022C0E99C33F0
S315080019F0C0F87832002100F50A7012F0ECB930B55B
S31508001A00D0F8744285B0062C099D04DD0DB121235A
S31508001A102B6005B030BD00250134C0F8744202952C
S31508001A20089DCDE900351346D0F868020A46E1B2AA
S31508001A30FFF726FFEDE72DE9F0430429BDF81C5012
S31508001A40BDF82060BDF82470DDE90ACEDDE90C8416
S31508001A5004D90CB121232360BDE8F083B5F5806F66
S31508001A6014D8B6F5806F11D8B7F5806F0ED80CF577
S31508001A700069B9F5805F09D20EF50069B9F5805F8E
S31508001A8004D208F50069B9F5805F03D3002CE3D0CA
S31508001A902823E0E7CDE90BE8CDE9097CCDE907562F
S31508001AA0BDE8F043FFF750BE30B589B00D9C002560
S31508001AB0069401240395CDE90454BDF830500094EA
S31508001AC0CDE90145FFF7B7FF09B030BDD0F8783248
S31508001AD010B503F1920150F821400221D0F8742282
S31508001AE0640000EB820201FA04F4D2F82812013BE2
S31508001AF02143C2F82812C0F8783210BDF8B5002183
S31508001B000C250446D0F8743200F50A76DFF854C07E
S31508001B10D0F868028B4217DA05FB030393F8BB205B
S31508001B20002142F0800283F8BB20FFF7B7FD4FF48F
S31508001B308A72D4F86C3283F00103C4F86C3202FB63
S31508001B400343C4F86832F8BD05FB0107D7F8B82087
S31508001B5056F804EB02EA0C0242EA0E02C7F8B8206D
S31508001B600131D7E70000FFFF0023C0E99A03704759
S31508001B70D0F8783210B5933350F82340D0F868324D
S31508001B80033103EBC403186F890002FA01F1084315
S31508001B90186710BD4FF09A4210B5D469136A1C40F5
S31508001BA0E1070DD50121124BD961124B506919680D
S31508001BB00144196091695A680A445A6001F026FB83
S31508001BC0620308D54FF48022094BDA61094A136883
S31508001BD003F180731360230308D54FF40022044BE6
S31508001BE0DA61044A536803F18073536010BD00BF7D
S31508001BF00020004D701100202DE9F04F12F1800FE2
S31508001C0004460D4616461F4685B001D17F2B05D0E2
S31508001C10A02D11D820466119814202D105B0BDE830
S31508001C20F08F90F900309E4202DD06700130F3E72E
S31508001C309F42B8BF0770F9E74FF0000840F20A293B
S31508001C403346324600213A48FFF758FD3B463A46A6
S31508001C5001213748FFF752FD434642464146CDE942
S31508001C6001883348CDF80090FFF70AFE40F20B23AF
S31508001C70304A0121CDE900322D4840F2D5122E4BCB
S31508001C80CDF80880FFF7FCFD01212C4B40F2D51258
S31508001C90CDE9013126480221294BCDF80090FFF7FE
S31508001CA0EFFDDFF88C80B5F5006FAB4628BF4FF423
S31508001CB0006B2BF0030A4FEA5A091FFA89F92246E4
S31508001CC0052300214046CDF80090FFF7B7FD2246D0
S31508001CD0052301214046CDF80090FFF7AFFD00210E
S31508001CE002234046CDE90031CBF38F020123FFF7EB
S31508001CF0EDFDA5EB0A0501214046FFF7CFFC9F2D18
S31508001D005444D0D84DB12046611910F9013B9E4282
S31508001D1008DD00F8016C8142F7D105B0BDE8F04F47
S31508001D20FFF7D4BC9F42B8BF00F8017CF3E700BFB9
S31508001D30781100200000A021000102200000B02137
S31508001D40000103302DE9F04F2DED068B8268D1B0E6
S31508001D503592026B436C3692C26A2B93379240F2E5
S31508001D600002ADF83A218269836D409200223393CE
S31508001D70436D04463493036D90ED178A1E93C36C26
S31508001D80D0F840A0109390F84830C56B17914F9241
S31508001D902BB91E9B109A13431CBF21234F93339BC9
S31508001DA0012B02D1349B012B01D021234F93179B82
S31508001DB073B1DDE935321343379A2B431343DB07F7
S31508001DC006D521234F937E21764802F0B1FC05E023
S31508001DD04F9B169353B1179B002BF4D14F9B169329
S31508001DE0169851B0BDEC068BBDE8F08F6E48FFF72C
S31508001DF0BBFE2368D4ED188A38936368002D0E93CA
S31508001E006369BAEEE88A0B93E368B3EE488A2C93C3
S31508001E1023691193636B1F93A36B1F9A1293E3694C
S31508001E202D93236A13932C9BA3EB0203109A134456
S31508001E3093FBFAF34393DDE91132A3EB02031E9AEF
S31508001E4013442B9A93FBF2F3139A44930B9B02FBCE
S31508001E5003F319930E9B129A02FB03F32193219A1B
S31508001E601F9B02FB03F30E9A2593119B02FB03F3B8
S31508001E701B932B9B02FB03F345931B9B119A0AFBAF
S31508001E8003F346931B9B03EBD3734FEA6303499310
S31508001E90259B03EBD3734FEA63034A93219B03EB1A
S31508001EA0D3734FEA63034B93BDF82C301A9308BFDC
S31508001EB001233F930DF59D7318BF2B460AEE903A02
S31508001EC02C9B53430E9A5343139A4C932D9B53437F
S31508001ED00B9A53433E93169B0D9340F2002309EE4B
S31508001EE0103A0D9B139A934214DB179B002B3FF471
S31508001EF077AFFFF7EBFB2D9B38990B985943139B4C
S31508001F0094F92420594394F928304143A069FFF7EE
S31508001F1073FE65E70D9B2B9A1E995A431E9B1298D2
S31508001F20D31A8A1A22EAE2721492119A1499D21AC8
S31508001F309042D4BFC1EB0001C1EB0201002B2EDB9E
S31508001F400D98449D129E9642D8BF28460246269270
S31508001F50269A0D98121A013209920E9A4A43149932
S31508001F602E92339A01FB02333C932E9B099903EB7D
S31508001F70D3735B104793DDE945320129D8BF134671
S31508001F802A9303EBD3735B10489300230A930A9BA7
S31508001F902D9A93420ADB269B01330D93A1E70D9AEE
S31508001FA0D5E700BFAC5801088C1200200A9B109A8E
S31508001FB00AFB03F3991AD31A2C9A1F9823EAE37398
S31508001FC0521A9042D4BFC3EB0007C3EB020700299D
S31508001FD053DB0A9943981F9D9542D8BF01460A4686
S31508001FE02792279A0A99521A249201321592249A0C
S31508001FF0002A51D0099A012A4EDDBA454CD03EDD59
S315080020004FF00109AAEB070B159A012A07DD09FB10
S315080020100AF20BEB07018A4201D028224F92159A41
S3150800202012994A45A8BF4A464192199A02FB09F2F3
S315080020303992149A01FB03220E994A4315993B9249
S31508002040099A012AD8BF0A4692B23B993D92369A16
S315080020500A4409EE902A0A9A109902FB0AF2521AC1
S31508002060349903FB01232F9300230F930F9B419A67
S31508002070934216DB279B013388E70A9AB0E797FB5A
S31508002080FAF20AFB127B9146BBF1000FBCD002F1B3
S315080020900109AAEB0B0BB7E74FF001094FF0000B4C
S315080020A0BDE70F9B159A9342C4BF28234F93249BE1
S315080020B00F9A01339B1A93FBF9F209FB1233002B93
S315080020C018BF0132012A099B209200F03A82012B9F
S315080020D008DCBBF1000F01D028234F93CDF830B0B0
S315080020E01D9706E0CDF830B00C9B209AFB18534399
S315080020F01D930C9B2F9A013B002B3A93CCBF4FF4B0
S315080021008773002311990AEE103A3C9B01FB0233B0
S315080021100E9A139953430A9A22930F9B13440D9AC6
S3150800212001FB03230B9A5343189300232893289BF8
S31508002130389A93420ADB0F9B01330F932F9B534424
S315080021402F9393E700231D970C93D2E7399BB3F59A
S31508002150006F0ADB199B09F1FF38B3F5006F01DB45
S3150800216028234F93199B239303E04FF00008399BCC
S315080021702393209B219A08FB03334293189B002B39
S31508002180BCBF28234F930B9B002BBCBF28234F9320
S31508002190239B002BBCBF28234F931B9B1343259AD5
S315080021A013432E9A13432A9A13433B9A1343229AAC
S315080021B0134313F001031C9300F083812A9B1B9A97
S315080021C03093259B3293219B31932E9BB44D2993B3
S315080021D028464D92FFF707FC1C9B0126002B0CBFD7
S315080021E0052301234FAA06924D9ABDF8A41004921E
S315080021F0309A02910392BDF87420309101923D9A6B
S3150800220022990092359A05960A44D5F86802002163
S315080022104D93FFF710FC4FABCDE90563319BBAB27E
S315080022200493329B01920393309B19EE902A0293F2
S315080022301A9B31460093D5F868024D9BFFF7FBFBC6
S315080022404FAB01933F9B1AEE902A00930223D5F8D1
S3150800225068021946FFF728FC4FAB01931A9B032126
S315080022600093379A0223D5F86802FFF71DFC4FAB97
S31508002270CDE905630B9B18990493239B409A039316
S315080022801A9B0A440293BDF8243004210193BDF831
S3150800229008310093D5F868023346FFF7CCFBB0EE59
S315080022A0490A0021D5F86802FFF742FA1C9B002B61
S315080022B040F01081F0EE480AB0EE480A3146D5F8EB
S315080022C06802FFF705FAB8EEE80AD5F868020025AD
S315080022D0B3EE400A0221FFF72BFA0B9970484FAA72
S315080022E0FFF746FB4FAB41216E4A6D4801930095B7
S315080022F04EF62C43FFF783FB099969484FAAFFF767
S3150800230037FB209966484FAAFFF732FB39466448DF
S315080023104FAAFFF72DFB299961484FAAFFF728FB1B
S315080023204FAB40F2CD11CDE900535F4A5F4B5C4895
S31508002330FFF765FB4FAB40F2D7115D4ACDE9005375
S3150800234057482B46FFF75BFB5548FFF7BFFB0222B2
S3150800235029465348FFF70CFC022201215048FFF793
S3150800236007FC4F48FFF7B2FB099B012B04DC01224F
S3150800237029464B48FFF7FCFB0C9B002B04DD022289
S3150800238000214748FFF7F4FB1C9B002B40F0AA806E
S315080023900C9B4A219E1E4FAB01931C9B454A0093FA
S315080023A03F481AEE103AFFF72AFB731E1C934FF0AC
S315080023B04F63002E4FAD009340F2CD11CCBF4FF4C2
S315080023C0877300233C4A36480195FFF718FBB8F196
S315080023D0000F0FDD2A4641463148FFF7C9FA0022A9
S315080023E02F48CF23114601950092FFF708FB2C488A
S315080023F0FFF76CFB4FF000084FAD43464121294AD1
S3150800240027480195CDF80080FFF7F9FA1C9B012BA8
S315080024106AD119462A462248FFF7AAFA434642468F
S315080024204146CDE900851E48FFF7E9FA1C48FFF743
S315080024304DFB022241461A48FFF79AFB1848FFF758
S3150800244045FB022204211648FFF792FB099B012B44
S3150800245004DD012200211248FFF78AFB1048FFF726
S3150800246035FB04220E481146FFF782FB01220C4871
S315080024701146FFF77DFB042202210948FFF778FB86
S31508002480042203210648FFF773FB0548FFF71EFBE6
S315080024904F9B002B44D0179B002B3FF49FAC0DE0BD
S315080024A08C12002000000450060001600E7E080011
S315080024B006070550000005500503027040F2412149
S315080024C082E4489B3093DDE9492332934B9B319351
S315080024D0479B7BE6B0EE480A3146D5F86802FFF717
S315080024E027F9F0E63A9E60E7A8DD2A46B11E1848A5
S315080024F0FFF73EFA2A4601211548FFF739FA424600
S3150800250041464346CDE900851148FFF778FA104859
S31508002510FFF7DCFA022241460D48FFF729FB85E75B
S31508002520179B13B10A48FFF7E9FA289B4C9A01331F
S315080025302893229B134422933E9A189B134418937C
S31508002540F5E5012B7FF7FEAD00230C93CCE500BF24
S315080025508C1200200121FFF7F5BB002108B5FFF713
S31508002560F1FBB0FA80F0400908BD0000836D70B534
S31508002570012B044620D1436D012B1DD142684369C6
S315080025809A4219D1002101F0AFFDB0FA80F676091A
S31508002590D4E903235A43D4E90D134B4361694B43EA
S315080025A0B2EB830F0ADD0121204600F0BFFF054686
S315080025B068B90025284670BD0026E9E7002EF2D046
S315080025C00121204601F090FD0028ECD1F1E736B153
S315080025D00121204601F088FD05460028E9D0512151
S315080025E0014802F0A5F8E5E7EA580108836D70B5D9
S315080025F0012B044607D00021204600F097FFB0FAC9
S3150800260080F0400970BD456D012DF4D141694368DC
S315080026109942F0D1D0E903325A43D0E90D637343A6
S315080026204B43B2EB830FE6DC002101F05DFD002889
S31508002630E1D12846E6E700002DE9F04F2DED028BA3
S3150800264004468DB028B921200DB0BDEC028BBDE83B
S31508002650F08FC16A21B13521B14802F069F8F2E775
S31508002660D0ED057A076AB8EEE78A17F0010514BFB8
S315080026704FF480634FF40063DFEDAA0AB0F85020E8
S31508002680D0F840A008EE902AC26BBB4228EE208AFA
S3150800269002FB0AFBC66C0B970A92C0F2B780026867
S315080026A0BDF828801FFA8AF9002D40F09E8107EBB5
S315080026B0D77A4FEA6A07CAF34F0A05232946CDE9AE
S315080026C0008A9948FFF7CAF80523CDE9009AA26956
S315080026D001219548FFF7C2F8226B002A00F08F8087
S315080026E0A38E0093022319468F48FFF7A7F8CDE972
S315080026F000890123A26B03218B48FFF7AFF8DFEDB2
S31508002700890A0021B0EE600A8748FFF717F8F0EE4D
S31508002710480AB0EE480A01218348FFF70FF8B0EEE1
S31508002720680A03218048FFF703F8324604217E48E9
S31508002730FEF7F2FF002640F22D23324631467A484C
S315080027400093CDE901663346FFF79AF8774B40F2D6
S31508002750D712012174480093CDE90166744BFFF73F
S315080027608FF840F2D7120221CDE90166714B6E4807
S315080027700096FFF785F8002D46D14A220321CDE9B8
S3150800278001556D4B68480095FFF77AF80426002531
S315080027904FF0010A694BF6B240F2D7123146CDE93D
S315080027A0013A6148664B0095FFF76AF82B464246A0
S315080027B029465D48CDE90065FFF788F842F202032D
S315080027C04A465146CDE9006357482B46FFF77EF83F
S315080027D0022120235448CDE90013BAB25346FFF725
S315080027E075F851465048FEF759FFA06B594694F9BB
S315080027F0533094F95220FFF7FFF9002024E701230C
S31508002800504A009302236EE70326C0E7B0EE600A3B
S315080028104D48FEF793FFF0EE480AB0EE480A01214C
S315080028204948FEF78BFF03214748B0EE680AFEF7D2
S315080028307FFF324604214448FEF76EFF05BB4FF082
S3150800284005087F104FF001090026B7F5806F1ADCDE
S31508002850364B40F2D71200213B480093CDE901667A
S31508002860334BFFF70DF840F2D7120121CDE9016687
S31508002870304B35480096FFF703F8D5B1022122E020
S315080028804FF00108DEE70023304810F8011B97FBDC
S31508002890F1F201FB127CBCF1000F06D1974201FB55
S315080028A009F93FF4D0AE1746CFE701330B2BECD12D
S315080028B0C9E602214A22CDE901551F4B2248009557
S315080028C0FEF7DEFF0321002501261C4B40F2D71236
S315080028D0CDE901361C481A4B0095FEF7D1FF1FFAC1
S315080028E089F3089329462B46089A1748CDE90065C7
S315080028F0FEF7ECFFBBB2099322233146CDE900630C
S31508002900099A2B461048FEF7E1FFCDE905550E4F0B
S315080029100A9B9D42BFF669AF0026079657E000BF9F
S3150800292032590108000000381C1600200E7E0800E7
S315080029300600016006070550000005500000D02378
S31508002940050304508459010808150020795901081F
S31508002950059B226807991A44A3690B4408EE903A26
S31508002960236B002B3ED033F8163008EE103A069B40
S31508002970002106EB0309A36B38469944099B0136E7
S315080029800193089B00934346FEF768FF099B18EEE0
S31508002990902A0193089B0121384600934346FEF787
S315080029A05DFF01234A46009303213846FEF746FF9A
S315080029B0B0EE480A05213846FEF7BAFE0123384626
S315080029C01946FEF76BFE079B0B9A13440793564569
S315080029D0BEDB069B0B9A53440693059B01351344AD
S315080029E0059395E740F20003BFE71FFA87FA01232C
S315080029F0CDE9008A0348FEF731FF0123CDE9009AA5
S31508002A0065E600BF1C16002058B1031F9FED137A18
S31508002A100020DFED136A9FED136A01EB4202914233
S31508002A2000D17047D3ED017AF8EEE77A67EE877A38
S31508002A30F4EEE67AF1EE10FA03F104030CDCF4EE98
S31508002A40467AF1EE10FA48BF2120F3EE677A17EEC0
S31508002A5090CA21F802CBE2E72120F6E70000003809
S31508002A6000E07F4700E07FC738B50022164B51ECDF
S31508002A70100B10F0A1F810A3D3E9002304460D4665
S31508002A8010F02AFB70B90EA3D3E900232046294685
S31508002A9010F004FB58B92046294610F095FE00EEC2
S31508002AA0100A38BD47F6FF3300EE103AF9E74FF63D
S31508002AB0FF33F9E7AFF300800000000000FCEF40A9
S31508002AC00000000000FCEFC00000E04070B560B3F5
S31508002AD0026AD30755BF4FF400614FF4806102EBD9
S31508002AE0D273134658BF5B1091421FDA01220DE0DC
S31508002AF00021194E16F8015B93FBF5F405FB14301B
S31508002B0068B9A34205FB02F20DD02346B3F5806FE0
S31508002B10EEDCB2F5806FCCBF0020012003E0013166
S31508002B200B29E7D1002000F0010070BDC36B013B03
S31508002B30B3F5806F0DD2036C013BB3F5806F08D2F5
S31508002B40002A06DD406BB0F5806F8CBF002001209F
S31508002B50EBE70020E9E700BF795901082DE9F04FB6
S31508002B60D0E90C922DED048BC3B02292C26A036899
S31508002B702392826A349324928268C3682B924269AC
S31508002B8020932C920022036990ED098A0E9383699B
S31508002B90D0ED088A2A93C369D0F804B02193036C50
S31508002BA012911693C36B0F9390F8383041922BB954
S31508002BB0169B0F9A13431CBF21234193129B63B1A3
S31508002BC0DDE92B321343DB0707D5212341934FF465
S31508002BD05671954801F0ACFD05E0419B119353B140
S31508002BE0129B002BF3D1419B1193119843B0BDEC76
S31508002BF0048BBDE8F08F8D48FEF7B6FF249A209B1C
S31508002C009B1A0F9A134493FBF9F3239A36930E9B58
S31508002C109B1A169A1344229A93FBF2F33793219B35
S31508002C2003FB0BF313930E9B0BFB03F314930BFBA2
S31508002C3002F33893149B149A09FB03F339930E9BFA
S31508002C4009FB03F30BFB03F33C93209B5343139AB3
S31508002C5030932A9B53433D93119B0B934DF60003E8
S31508002C6009EE103A0B9B219A934205DB129B002B27
S31508002C70BBD0FEF72BFDB8E7229A0B9B239953434B
S31508002C80169A9A1A2592169AD31A23EAE373259A5C
S31508002C9017930E9B9B1A179A9942D4BFC2EB01024F
S31508002CA0C2EB03022D92259A002A1BDB379A0B9951
S31508002CB023989842C8BF0A4613461B930B9A1B9B38
S31508002CC09B1A03F1010ADDE93832BAF1010FD8BFC0
S31508002CD01346299300232A9A934205DB1B9B01334B
S31508002CE00B93BFE70B9BE8E709FB03F20F99249CBC
S31508002CF0501A8A1A209922EAE272091A8C42D4BF1B
S31508002D00C2EB0404C2EB0104002809945EDB369882
S31508002D10249C8C42C8BF18461C901C99C91A199144
S31508002D2001311091199900295DD0BAF1010F5ADDC8
S31508002D300999894500F024824ADD0125A9EB010697
S31508002D401099012907DD05FB09F1099830448142EC
S31508002D5001D0282141911099681EA942A8BF294689
S31508002D60359113990F9C6943B1F5006FB8BF0020E0
S31508002D701F90013033901098BAF1010FC8BF504622
S31508002D8080B2319003FB09F0001B0244259C17987A
S31508002D9020440E9C04FB02020BFB02F221982892A7
S31508002DA00B9A03FB00230BFB03F327930B46139A9B
S31508002DB0B1F5006FA8BF13461E9300230D930D9B14
S31508002DC0359A934212DB1C9B013384E71C93A4E7D4
S31508002DD0099991FBF9F509FB1516002EB0D00135B6
S31508002DE0A9EB0606ACE701250026B4E70D9B109A69
S31508002DF09342C4BF28234193199B0D9A01339B1A0A
S31508002E0093FBF5F205FB1233002B18BF0132012A9A
S31508002E10189200F0AE81BAF1010F09DC0EB1282331
S31508002E204193099B0A9609E0865901083017002044
S31508002E300A96DDE909321344189A53431593189BE9
S31508002E40339A53439BB23293279B1A93289B269314
S31508002E5000231D931D9B349A934280F27E810023A2
S31508002E606AE1099B159300230A93E8E71A9A0C9BD3
S31508002E709B182F9344BF28234193BBF1000FBCBF77
S31508002E80282341931E9B269A002BBCBF28234193D7
S31508002E900C9B03EB020801335B4580F22781149BE8
S31508002EA043EA0B07299B1F431E9B1F432F9B1F4368
S31508002EB047EA0807FF4307F001077B1C3B939BFB88
S31508002EC0F3F32E93149B7A1C93FBF2F1299BAE4CD9
S31508002ED093FBF2F21E9B3E927A1C93FBF2F320467A
S31508002EE03A933F91FEF77FFD002F0CBF0123052380
S31508002EF02E9A3F9905923E9A41AF0392BDF8B420A7
S31508002F0004910292BDF8542006970192319A002145
S31508002F1000922B9AD4F8680242443E93FEF78BFD42
S31508002F202E9B4FF0000804933A9B1FFA8AF20393EC
S31508002F3001230293329B2C9901922F9A00930697AC
S31508002F40CDF814800A443E9B0121D4F86802FEF7A6
S31508002F5072FD4DF60003F0EE490A00EE103A4146BE
S31508002F60D4F86802FEF7B4FBF8EEE80AF3EE600A56
S31508002F700321B0EE600AD4F86802FEF7A9FBF8EE62
S31508002F80C80AF3EE600A0421B0EE600AD4F86802B3
S31508002F90FEF79EFB3A4651462046FEF7E9FC3A46BE
S31508002FA020461899FEF7E4FC43464FF0805241212B
S31508002FB02046CDE90087FEF722FD3A4620460999C4
S31508002FC0FEF7D6FC3A4620462D99FEF7D1FC40F28C
S31508002FD00A2340F253116D4A2046CDE90087FEF7D1
S31508002FE00EFD2046FEF772FD022241462046FEF7F8
S31508002FF0BFFD2046FEF76AFDBAF1010F04DC012287
S3150800300041462046FEF7B4FD0A9B002B04DD02224A
S3150800301000215D48FEF7ACFD0A9B41AA012BA3F1EE
S3150800302002044FF01D6340F2D511CDE9003256482F
S31508003030CCBF4FF485730023554AFEF7E0FC1F9B6F
S31508003040002B1DDD41AF19463A464F48FEF790FC66
S315080030503A4601214C48FEF78BFC00234A481A469B
S31508003060194600930197FEF7CAFC4748FEF72EFD5E
S31508003070012245481146FEF77BFD4348FEF726FD2B
S31508003080002C17DD012C41AA32D121463E48FEF715
S315080030906FFC002141AB01930A460B463A48009162
S315080030A0FEF7ADFC3848FEF711FD0222002136482E
S315080030B0FEF75EFD3448FEF709FD0222012132487B
S315080030C0FEF756FDBAF1010F04DD012200212E4854
S315080030D0FEF74EFD2C48FEF7F9FC419B23B3129BE5
S315080030E0002B3FF480AD40F2BF4172E50027E4E6CD
S315080030F00A9B2548D91EFEF73BFC41AA0121224816
S31508003100FEF736FC002141AB0A46009101931E48A2
S315080031100B46FEF774FC1C48FEF7D8FC0222002179
S315080031201948FEF725FDBDE7129B13B11648FEF7B1
S31508003130E5FC0C9B3B9A13440C930C9B5B45FFF6F2
S3150800314095AE1D9B309A01331D93269B13442693F7
S315080031503D9A1A9B13441A937CE60D9B3C9A0133BD
S315080031600D93289B13442893139A279B134427935C
S3150800317025E6BAF1010F7FF774AE00230A9358E6E5
S3150800318000260125E7E500BF3017002002000110E0
S31508003190030401500121FFF7E1BC002108B5FFF740
S315080031A0DDFCB0FA80F0400908BD000038B54FF0E4
S315080031B09A44074D6368DA0705D54FF09A421369B2
S315080031C05B07FCD538BD5221284601F0B1FAF1E774
S315080031D0C55901084FF08042074B01219A664FF006
S315080031E09A4303F58052516001F540211162034A62
S315080031F01268DA60704700BF009000402C1000206B
S31508003200FFF7E8BFFFF7D2BFFFF7D0BF704700EB65
S3150800321081014B6A012B05DD886C0028D4BF00208C
S315080032200120704700207047002238B5054614462D
S3150800323011462846FFF7EBFF00B101340132092A8F
S31508003240F6D1204638BD00002DE9F0410025044698
S315080032502A464FF02808194F00F124062946204629
S31508003260FFF7D5FF90B102F17E03C6F8B02144F806
S315080032702350736A0132B3F5006F336828BFC7F865
S315080032800080B3F5806F88BFC7F800800135092D27
S3150800329006F10406E2D1032A0ADC08237E3204EB8F
S315080032A0820204F50174A24205D042F8043BFAE70B
S315080032B02822024B1A60BDE8F08100BFAC19002035
S315080032C02DE9F34100EB810600EB820705460C4623
S315080032D090466846BA6CB16C10F0D0FA019B13B1EF
S315080032E028220C4B1A607B6A009AD31A42BF282000
S315080032F00849086004EBC40101EB0804243445F8C6
S315080033002430736A53437B620123736202B0BDE8BB
S31508003310F08100BFAC1900202DE9F04F242705469F
S31508003320984608464FF0010A4FF0000B7A4385B0DD
S3150800333005F5EA7605F5FC79A2F5A277F159002993
S315080033403AD00E9B3468002B1ADBD5F80432D0F835
S3150800335068224FEA830C0E9B02EBC3024FF4E0434C
S31508003360D2F870E003FA0CF313EA0E0F08D14FF403
S31508003370805303FA0CF3A34043EA0E03136701399B
S31508003380002919DD0F4A0390FEF7F2FA0D4A0AFAE8
S3150800339004F3CDE900B20022D5F8044248EAC31383
S315080033A043EA04131146039843F00803FEF727FB84
S315080033B00398FEF78BFB039804364E45BED105B03D
S315080033C0BDE8F08FAC190020F0B5D1F87862044654
S315080033D0062E0D4685B004DD2122114B1A6005B074
S315080033E0F0BD11460393FFF712FF771C039B88B1C4
S315080033F0D4F80412D5F8680200EBC6008E004FF424
S315080034008051B14004EB8206D6F8D461B140866F8C
S3150800341031438167294620460097FFF77DFFDEE79F
S31508003420AC190020F7B5D1F874420546072C0E46AC
S315080034301F4604DD2122144B1A6003B0F0BD114665
S31508003440FFF7E5FEB8B10C23D6F8681203FB0411A2
S31508003450802405EB8203D3F8D431D1F8B4009C401C
S31508003460D5F8043244EA031444F00E0404FA07F3C8
S315080034700343C1F8B4304FF0FF3331460093284672
S315080034800623FFF749FFD8E7AC19002013B50A460B
S315080034900446016B684610F0F1F9009A002ADEBF6F
S315080034A028210B4B1960019B13B12821084B196081
S315080034B0A36BA263012B1EBF2821054B1960236B42
S315080034C093FBF2F3626D23635343E36502B010BDC9
S315080034D0AC19002070B504460D462422002104F1DB
S315080034E0480610F078FC24220021304610F073FCC0
S315080034F02422002104F16C0010F06DFC4FF4A27236
S31508003500002104F1900010F066FC04F5EA7024220C
S31508003510002110F060FC0123C4F804522434B4429C
S3150800352002D044F8043BFAE770BD00002DE9F04FDD
S31508003530D0E915962DED088B436CADF6043D219325
S31508003540036C25911793036D90ED17AA1893C36C16
S31508003550D0ED18AA1993436990F84820099343684F
S3150800356004460A93DDE9093193FBF1FB03681A93D4
S31508003570C368229303692393436B1093836B0B935E
S31508003580C3690D93036A129383682D93036B26937D
S31508003590C36B1D93C36A2793836928931A9B012BD0
S315080035A00CBF00212121A54B196032B9DDE918327B
S315080035B013431EBF2122A14B1A6040F20003ADF847
S315080035C0CC30ADF8CE300BF001030C93C3F10203F7
S315080035D01493259BCDF8A8B093B1279A1D9B134346
S315080035E00C9A03F00303002A40F06482289A26996D
S315080035F00A4302F00102134302D021228F4B1A60BC
S315080036008F48FEF7B1FA0A9B239A002102FB03F5BD
S31508003610229B129A05FB03FA099B36A802FB03F7BD
S315080036200D9B07FB03F8FFF755FF0221B8A8FFF724
S3150800363051FF01210DF59D60FFF74CFF12980D997A
S3150800364043900A98429184462198179900FB0CF0FA
S3150800365069434C900D984B9141434D9110991A9B93
S3150800366045910B993F93469161460A9B01224093E7
S3150800367000234E43199905FB09F549423C911899CF
S31508003680499249423D911A994A934492CDF80C15AC
S31508003690CDF820A1CDF804B14E954F96CDF83085DA
S315080036A01299CDF83825CDF82025109ACDF81C1595
S315080036B0CDF844350999CDF82425CDF848350B9A27
S315080036C0CDF84C350C9BCDF810C5CDF834B5CDF8F2
S315080036D014B5CDF81805CDF83C75CDF84015CDF8DC
S315080036E02825BBB9149B0DF5A6629BFBF3FB0C9B27
S315080036F0CDF804B1CDF814B5022B1CBF1168149887
S3150800370003F101031CBF91FBF0F11160092B02F1D3
S315080037100402F1D10DF59D6936AA4FF0000A174645
S315080037202126C846454D51463846FFF770FD40B13B
S31508003730536AB3F5806F03D8936CB3F5006F00D363
S315080037402E6051464046FFF762FD50B1D9F8243045
S31508003750B3F5806F04D8D9F84830B3F5006F00D3B5
S315080037602E600AF1010ABAF1090F09F1040902F1FA
S315080037700402D8D1314B1D68002D40F00B840B9AFA
S31508003780099B012153430DF59D6002223093FFF7F3
S3150800379097FD109A229B08959B1A199A1F95134410
S315080037A0179A93FBF2F30B9A2E93239B9B1A189A5C
S315080037B01344219A93FBF2F32F930C9B002B0CBF17
S315080037C0052301230BEE103A0CBF062302230BEE4A
S315080037D0903A40F2002309EE103A089B129A934257
S315080037E080F23084219A18995343189A0B989A1A9A
S315080037F0CB1A23EAE3731393239B13999B1A9842D4
S31508003800D4BFC1EB0001C1EB0301002A1B91C0F232
S3150800381055812F9A08999842C8BF0A46134620939D
S31508003820089A209B4FF000089B1A0133002BD8BF3B
S3150800383028220E93DCBF014B1A6003E0AC19002066
S31508003840B01900200D9B984580F2F783179B1099B5
S3150800385003FB08F9199BA9EB0302A3EB0909229BB1
S3150800386029EAE9799B1A9942D4BFC9EB0101C9EB48
S315080038700301002A0F91C0F223812E9A10999942CA
S31508003880C8BF42461192119B36A9A3EB0807013718
S31508003890002FDCBF28228F4B0DF5DE60D8BF1A60DB
S315080038A04FF4027210F08AFA4FF402720DF59D6118
S315080038B00DF6F80010F082FA0E9B0DF5DE60CDF8D5
S315080038C02437CDF82C391B9BCDF82077CDF8303727
S315080038D0CDF838390F9BCDF82879CDF82C37CDF8A7
S315080038E03439FFF7A1FC032805D8DDF84437B3F5CA
S315080038F0006FC0F0EB8003210DF5DE60FFF787FC53
S31508003900002800F0E38004210DF5DE60FFF77FFC58
S31508003910002800F0DB80DDF84827DDF8441734A8D6
S315080039200FF0ACFF359B13B128226A4B1A60349B03
S31508003930DDF824279A1A002ABEBF2821654A116095
S31508003940DDF820275343B3F5806F40F2BC80179A01
S315080039500F9B394693FBF2F502FB1533002B18BF74
S31508003960013534A82A460FF089FF119A359B294656
S31508003970D31AA3EB080701370DF5DE601193CDF8CE
S315080039802879CDF82077FFF781FD29460DF6F8004E
S31508003990FFF77CFD349B042203210DF5DE601593A9
S315080039A0FFF78EFCDDF82437B3F5806F02D928229D
S315080039B0484B1A600DF5DE60FFF736FC032804D87D
S315080039C0DDF84C37B3F5006F1AD305210DF5DE6027
S315080039D0FFF71DFC58B106210DF5DE60FFF717FC51
S315080039E028B1062205210DF5DE60FFF769FC0DF505
S315080039F0DE60FFF719FC0428C2BF2822354B1A607F
S31508003A000DF6F800FFF710FC032804D8DDF84C394A
S31508003A10B3F5006F1AD303210DF6F800FFF7F7FB8D
S31508003A2058B104210DF6F800FFF7F1FB28B104227E
S31508003A3003210DF6F800FFF743FC0DF6F800FFF733
S31508003A40F3FB032882BF2822224B1A6005210DF6B4
S31508003A50F800FFF7DCFB002800F0A382DDF8542904
S31508003A60B2F5006FC0F09D8292FBF5F305FB1322B9
S31508003A7012B12821174A116016492E46D1F800C0FE
S31508003A8000218E46DDF83029CDF854396A43CDF841
S31508003A903029B3F5006F1FD303F00101002903EBAA
S31508003AA0D3731CBF86464FF0280C01465B105200A4
S31508003AB07600EEE7002B7FF4A0ADA1E5089BAEE605
S31508003AC0CDF84480DFE63D46012364E701233D4601
S31508003AD015936FE7AC190020BEF1000F02D0C74856
S31508003AE0C0F800C019B1CDF85439CDF83029013ED7
S31508003AF00DF5DE60FFF798FB032840F2C982012125
S31508003B000DF5DE60FFF783FB10B92822BB4B1A6060
S31508003B1001230E9ACDF818379A42CDF8203900F0CD
S31508003B20BC8201270DF5DE60FFF77EFB032882BF06
S31508003B302822B24B1A60DDF80037089A0DF5DE60C8
S31508003B401344CDF80037DDF8FC36139A4344CDF814
S31508003B50FC36DDF80C371344CDF80C37DDF808379A
S31508003B60089A4B44CDF80837DDF808391344CDF8E0
S31508003B700839DDF80439139A4344CDF80439DDF8D9
S31508003B8014391344CDF81439DDF810394B44CDF8FF
S31508003B901039FFF759FB0DF6F800FFF755FB0A9B9E
S31508003BA0002F06BF984601234FF001080B9A319360
S31508003BB0139B09FB0239099B03FB09F32B932A9BE9
S31508003BC003FB08F329935B002C9300231693169B9B
S31508003BD01A9A934280F22D822B9ACDF8F036CDF8B8
S31508003BE0F838269B1344249300231F461C93319BC5
S31508003BF09F4280F21B82CDF8F476CDF8FC782FB17F
S31508003C00B8F1010F1EBF28227C4B1A60DFF8F49129
S31508003C10DFED7B9A4846FDF7E6FE0C9BB8EECA8AAE
S31508003C20F8EEEA8A002B40F0BE8140F20023F0EE5F
S31508003C30490A00EE103A0C99D9F86802FDF748FDD2
S31508003C4028EE298AF3EE480A0121B0EE600AD9F86F
S31508003C506802FDF73DFDF3EE680A0221B0EE600A40
S31508003C60D9F86802FDF734FD002213460DF5DE612A
S31508003C7051F804CB0133486C092B00FB0C22F7D111
S31508003C80DDF8F0C85D480DF5DE6306900CF112000C
S31508003C9053F82000DDF8EC18059001F1120053F8EE
S31508003CA02000DDF8E8E804900EF1120053F8200031
S31508003CB003EB8C0C0390BCF8240003EB8101029003
S31508003CC0898C03EB8E0301919B8C2D994D480093AB
S31508003CD00A4401230021D0F86802FDF7ACFE002251
S31508003CE013460DF6F80151F804CB0133486C092B3D
S31508003CF000FB0C22F7D1DDF8F8CADFF800910DF6C3
S31508003D00F803CDF818900CF1120053F82000DDF8EE
S31508003D10F41A059001F1120053F82000DDF8F0EAD4
S31508003D2004900EF1120053F8200003EB8C0C03905C
S31508003D30BCF8240003EB81010290898C03EB8E0307
S31508003D4001919B8C28991498DFF8B8A0009302FB80
S31508003D5000121BEE103A0121DAF86802FDF76BFE35
S31508003D60149A099B149993FBF2F39AB21E92309A0D
S31508003D70CDF8189092FBF1F2CDE9043201230393B2
S31508003D80BDF83C3002210293BDF86C30249A0193A9
S31508003D901E9B0093DAF868021BEE103AFDF74BFEFD
S31508003DA01D9B002B00F017811C9A9A181D9B032156
S31508003DB0002B1E9B08BF0123CDE900391BEE903A64
S31508003DC0DAF86802FDF770FE1E9B1C99279ADFF841
S31508003DD034A00093CDF804900A441BEE903A0421CF
S31508003DE0DAF86802FDF760FEB8F1010F0CDD41460E
S31508003DF05046024AFDF7BCFD06E000BFAC1900209C
S31508003E0000000038B0190020BBF1010F04DD594647
S31508003E10AD4AAE48FDF7ACFD4FF0000ADFF8A892B0
S31508003E20AB4B4121AB4AA948CDF80490CDF800A088
S31508003E30FDF7E5FD4A462946A448FDF799FD4A4699
S31508003E400E99A248FDF794FD4A4615999F48FDF735
S31508003E508FFD4A460F999D48FDF78AFD4A461B99EC
S31508003E609A48FDF785FD40F2CD119B4B9B4A974832
S31508003E70CDE900A9FDF7C3FD5346072293490DF581
S31508003E80DE60FFF7CFFA534640F2D711944A8F48BF
S31508003E90CDE900A9FDF7B3FD8C48FDF717FE04220E
S31508003EA002218A48FDF764FE062388491A460DF55D
S31508003EB0DE60FFF789FA8548FDF708FE0623052226
S31508003EC082490DF5DE60FFF77FFA4FF0F87340F28E
S31508003ED0D711844A7D480093CDF804905346FDF7E0
S31508003EE08EFD1423052279490DF6F800FFF79AFA94
S31508003EF0002E72D133464121CDE90069754A7348CF
S31508003F00FDF77DFD7148FDF7E1FD072304226F49A2
S31508003F100DF5DE60FFF758FA062304226B490DF605
S31508003F20F800FFF751FA6948FDF7D0FD0723032289
S31508003F3066490DF6F800FFF747FA06230322634998
S31508003F400DF5DE60FFF740FA6048FDF7BFFD012278
S31508003F5002215E48FDF70CFE072302225B490DF697
S31508003F60F800FFF731FABBF1010F02DD5748FDF7FC
S31508003F70ADFD0623012255490DF5DE60FFF724FA4B
S31508003F80B8F1010F02DD5148FDF7A0FD4E4B1B6845
S31508003F90CBB31D4628460DF6043DBDEC088BBDE89F
S31508003FA0F08F0026A4E5B0EE490AD9F86802002188
S31508003FB0FDF7BEFB28EE290AD9F86802B3EE400AD7
S31508003FC00121FDF7B5FBB3EE680A0221D9F86802AC
S31508003FD0FDF7AEFB48E633AAE8E64A4631463B48D3
S31508003FE0FDF7C6FC8023DDF8E02A41219340CDE9A0
S31508003FF000A9384A354843F01F03FDF700FD33484A
S31508004000FDF764FD7EE7259B63B13048FDF776FD35
S31508004010249B299A0137134424932C9A1C9B1344F6
S315080040201C93E4E51F9B01331F93F1E7169B0133AD
S31508004030CCE5119B03F1010804E4209B01330893A6
S31508004040FFF7CBBB259B204D8BB1FDF73FFB0D9BA7
S315080040501A9909985943129B94F92420594394F9BB
S3150800406028304143A069FDF7C7FD2D6892E70B9BF1
S31508004070109959430D9B5943129B5943099B594320
S315080040801F9B91FBF3F17729DCBF21232B60ECE71B
S315080040900E9B012B12D000274DE5012F0AD00E9F4B
S315080040A00F9B012B03D01B9B012B7FF43BAD002FED
S315080040B03FF438AD2822044B1A6032E5012F4FF041
S315080040C00007EDD12EE500BFAC190020B01900207D
S315080040D03C2E0900000004500EBC040006000160D6
S315080040E006070550050302702DE9F04F2DED048BE8
S315080040F0436CB9B02393036C90ED178A2493036D30
S31508004100D0ED188A2593C36C4669269303682E93C7
S31508004110C36815930369099343681693436B0A9317
S31508004120836B0793C3692793036A1793436A1893A4
S31508004130836A199383682893036B2993C36B1A932D
S31508004140C36A2A9383692A9A2B93002337931A9B67
S315080041501A4312F0010540F01E82289B2B98334320
S315080041600343299802F00302034303F001031343B0
S3150800417001BF06EBD6734FEA630A01230D93079B2B
S315080041801CBFB2460D95B3F5806F00F306820A9BF5
S31508004190B3F5806F00F30182099B0AFB03F3B3F5BD
S315080041A0006F219380F0F981079B03FB0AF3B3F5AF
S315080041B0006F229380F0F181079BB3F5806F00F2C0
S315080041C0EC810A9BB3F5806F00F2E781002900F0C5
S315080041D0DC81199B189A7F3B18BF0123803218BFD0
S315080041E0012330930D9B179A002B14BF0523012337
S315080041F009EE903A279B4FF0000973435343159AEB
S315080042003193099BCDE911995343169ACDF87C90C1
S3150800421053433293079B0A9A73432093534333932A
S31508004220179BCDF86C9073432F9340F2002309EE49
S31508004230103A129B2E9A934280F2A581269B0E93E2
S315080042405B420B931B9B1D930023139354E1089B1E
S31508004250A348002B0C9BACBF4FF0000B9B46089B5A
S31508004260F0EE490A23EAE374DDE907321344099AB2
S3150800427000219A42DBBF13460C9A079F9F184FF4FA
S315080042808A73119AA7EB0B0703FB020040F200237F
S3150800429000EE103A1C90FDF71BFAF0EE480AFAEE0B
S315080042A0E80AF3EE600A0121B0EE600A1C98FDF7F1
S315080042B00FFAF8EEE80AF3EE600A1C98B0EE600A08
S315080042C00221FDF705FA189B1C98803303D1199B28
S315080042D07F2B00F04481DDED187AF8EEE70AF3EE5D
S315080042E0600A0321B0EE600A1C90FDF7F1F9DDEDD6
S315080042F0197AF8EEE70AF3EE600A1C98B0EE600A3F
S3150800430004213490FDF7E4F9309B34981E93012379
S315080043101C932C9B169A289904FB02320124219B94
S315080043201FFA8AF80493109BBFB20A44CDE90083AA
S31508004330002119EE903ACDE90274CDF814A0349014
S31508004340FDF702FA2D9B299906FB0B32229B34981E
S31508004350CDE90343109B0A44CDE90083214619EEB3
S31508004360903ACDF814A00297FDF7EEF91A9B349807
S31508004370002B40F014810D9B37AA002B14BF06238F
S3150800438002234FF0010B0221009435933490FDF778
S3150800439055FA0321359B2A9A3498CDF80080FDF703
S315080043A04DFA19EE903A04210F9A3498CDE904AAE9
S315080043B0CDE902BBCDE9008B0024FDF7C5F940F233
S315080043C02D232246214634980093CDE901442346FD
S315080043D0FDF756FA434B40F2D712594634980093E4
S315080043E0CDE90144404BFDF74BFA40F2D7120221C2
S315080043F03E4B3498CDE901440094FDF741FA1C9BE5
S315080044001E9AA34214BF23464FF04F6382EA0B025B
S31508004410CDE9013240F23E233498009340F2D71298
S31508004420334B03211E90FDF72BFA1C9B1E98002B7D
S3150800443000F099804FF04F6340F2D512CDE9004362
S3150800444004212C4BCDF808B01C90FDF719FA04236B
S315080044501C98002442462146CDE9003423464FF0F5
S3150800446002081C90FDF732FA1123CDE900830123D7
S31508004470109A19461C98FDF729FA22233A4641460E
S31508004480CDE900831C980123FDF720FA21461C98E4
S31508004490FDF704F9119B239A83F001031193149BEA
S315080044A0013314930F9B33440F930C9B9B1A0C9365
S315080044B0089B13440893149B179A9342FFF6C7AEBA
S315080044C0139B249A013313930B9B13440B930E9B54
S315080044D09B1A0E932F9A1D9B13441D930CE000BF45
S315080044E02C1C00200E7E08000600016006070550F9
S315080044F00506027003040770139B279A934234DA61
S315080045000B9B1699002B0E9B1F98B8BF1A46099B42
S31508004510159C01FB03F30B99A8BF002221EAE17160
S3150800452001FB030315992C930E9B0B44DDE90A1036
S3150800453001440A988C42C8BF03469B1A9BB2109343
S31508004540209B02FB03931D9A2D932B9B13440F93D9
S31508004550259B0C935B42089300231493ABE7002337
S315080045601E931C93D5E6032373E7129B319A0133F6
S3150800457012931B9B13441B93329A1F9B13441F933E
S31508004580339B994455E6FDF7A1F8284639B0BDECAA
S31508004590048BBDE8F08F2125F7E72825F5E70D9B65
S315080045A04446002B14BF062302231A9AE9E600BFE5
S315080045B02DE9F843174B1F6D5B6D1F4000D5FEE7CD
S315080045C001260025144CDFF85480DFF85490374252
S315080045D017D02368C8F850609BB1A16828460131F6
S315080045E06268A1609847637B012B0AD148B909EB39
S315080045F045131A7B60F341021A731A7F60F341026E
S315080046001A770135082D4FEA460604F11004DED163
S31508004610BDE8F88300000440541E00200020044032
S31508004620D41E002070B5044601250C4E04B970BD91
S3150800463094FAA4F3B3FA83F305FA03F206EB03112B
S3150800464024EA02044A68002AF0D0D8B20B7B13B1D8
S3150800465089689047EAE79047E8E700BFD41F00203B
S3150800466008B5192001F0D4FA28B14FF00072074BAB
S31508004670C3F880211A601A2001F0CAFA28B14FF04F
S315080046808062024BC3F880211A6008BD00E100E091
S31508004690F8B505460F46164601F0B1FA104B05F077
S315080046A0FC02D3F824140023EC1804F00304144382
S315080046B021FA04FC1CF0010F07D00133042BF3D1B7
S315080046C0FF2401F0A2FA2046F8BDFF2CF9D00122FA
S315080046D0044B03EB0413C3E901761A73F1E700BF31
S315080046E000C00340D41F0020074BD3F82404D3F896
S315080046F0202403F50053104000F0553020F05020D8
S31508004700C3F82004FFF78EBF00C00340074BD3F859
S315080047102404D3F8202403F50053104000F0AA30EF
S3150800472020F0A020C3F82004FFF77CBF00C0034098
S31508004730FEE74FF04023D3F88420D206FBD4D3F803
S315080047408400C0F38110704738B50F4B0546D3F87F
S3150800475080300C4603F00303012B09D0022B0FD03F
S315080047600A4840F64571FFF7E3FF0023184602E0C2
S31508004770FCF706FE0E2305B1286004B1237038BD88
S31508004780FCF74AFE0723F6E700800040FF590108B8
S3150800479038B5194B0546D3F820310C4603F0070304
S315080047A0013B052B20D8DFE803F0030B130F171B7B
S315080047B0FCF7E0FD052305B1286004B1237038BD78
S315080047C0FCF70EFE0323F6E7FCF726FE0723F2E7BF
S315080047D0FCF71EFE0223EEE7FCF7CCFD0623EAE70C
S315080047E0FCF7FEFD0423E6E7044840F6BE71FFF732
S315080047F09FFF00231846DEE700800040FF590108A6
S3150800480038B5154B0546D3F828310C4603F007038F
S31508004810013B032B17D8DFE803F0020E120AFCF758
S31508004820A9FD052305B1286004B1237038BDFCF73E
S31508004830F3FD0723F6E7FCF7D3FD0323F2E7FCF7BE
S31508004840E7FD0223EEE705484FF45D61FFF770FFC9
S3150800485000231846E6E700BF00800040FF5901081C
S31508004860F7B50024154B0194D3F88051074605F097
S315080048700305022D0E4614D0032D0DD0012D15D19A
S31508004880214601A8FFF784FF10230FB1019A3A6069
S3150800489006B1337003B0F0BDFCF7BEFD07230190E7
S315080048A0F3E7FCF7B5FD2B460190EEE741F2E2018E
S315080048B00348FFF73DFF2346E7E700BF00800040B7
S315080048C0FF590108002337B50193184B0546D3F85D
S315080048D020320C4603F00703013B032B1ED8DFE802
S315080048E003F0020E1318002101A8FFF789FF12230F
S315080048F00DB1019A2A6004B1237003B030BDFCF7EC
S315080049008BFD07230190F3E7FCF7C8FD0A23019006
S31508004910EEE7FCF7C9FD09230190E9E740F69E5149
S315080049200348FFF705FF0023E2E700BF00800040C9
S31508004930FF59010838B5124B0546D3F840310C46E5
S3150800494003F00303022B0BD0032B0DD0012B0FD141
S31508004950FCF7A4FD0A2305B1286004B1237038BD0D
S31508004960FCF7A2FD0923F6E7FCF79BFD0C23F2E70B
S31508004970044840F6EC71FFF7DBFE00231846EAE729
S3150800498000800040FF590108002337B50193184BF2
S315080049900546D3F860320C4603F00703013B032BA8
S315080049A01FD8DFE803F0020E1914002101A8FFF74B
S315080049B0EFFE10230DB1019A2A6004B1237003B0EB
S315080049C030BD002101A8FFF7B5FF1123F2E7FCF778
S315080049D023FD07230190EDE7FCF71AFD022301905A
S315080049E0E8E740F633610348FFF7A2FE0023E1E754
S315080049F000800040FF590108002337B50193184B82
S31508004A000546D3F894320C4603F00703013B032B03
S31508004A101FD8DFE803F0020E1914002101A8FFF7DA
S31508004A20B7FE10230DB1019A2A6004B1237003B0B2
S31508004A3030BD002101A8FFF77DFF1123F2E7FCF73F
S31508004A40EBFC07230190EDE7FCF7E2FC022301905B
S31508004A50E8E740F666610348FFF76AFE0023E1E7E8
S31508004A6000800040FF59010873B500240F4B0194DC
S31508004A70D3F87032064603F00303012B0D4607D020
S31508004A80022B11D040F691610948FFF751FE04E068
S31508004A90214601A8FFF74EFF11240EB1019B336092
S31508004AA005B12C7002B070BD1524F6E700800040F1
S31508004AB0FF59010838B5154B0546D3F800320C46A0
S31508004AC003F00703013B032B18D8DFE803F0020ABB
S31508004AD00E12FCF7E3FC0A2305B1286004B1237023
S31508004AE038BDFCF7E1FC0923F6E7FCF7DAFC0C23F2
S31508004AF0F2E7FCF75FFC0F23800AEDE7044841F272
S31508004B009811FFF715FE00231846E5E700800040D8
S31508004B10FF59010838B5154B0546D3F808320C4637
S31508004B2003F00703013B032B18D8DFE803F0020A5A
S31508004B300E12FCF7B3FC0A2305B1286004B12370F2
S31508004B4038BDFCF7B1FC0923F6E7FCF7AAFC0C23F1
S31508004B50F2E7FCF72FFC0F23800AEDE7044841F241
S31508004B60CC11FFF7E5FD00231846E5E70080004075
S31508004B70FF59010838B5124B0546D3F840320C46A2
S31508004B8003F00303022B0BD0032B0DD0012B0FD1FF
S31508004B90FCF784FC0A2305B1286004B1237038BDEC
S31508004BA0FCF782FC0923F6E7FCF77BFC0C23F2E70B
S31508004BB0044841F25B11FFF7BBFD00231846EAE7FC
S31508004BC000800040FF59010838B5124B0546D3F856
S31508004BD060310C4603F00303022B0BD0032B0DD0D8
S31508004BE0012B0FD1FCF75AFC0A2305B1286004B142
S31508004BF0237038BDFCF758FC0923F6E7FCF751FC8F
S31508004C000C23F2E7044841F21A01FFF791FD00234D
S31508004C101846EAE700800040FF59010870B50546C6
S31508004C2014460E4600F0E4FF296881EA040202EA07
S31508004C3006044C402C60BDE8704000F0DDBF000063
S31508004C40B0F5207F10B52ED009D8B0F5007F24D056
S31508004C5003D868B1B0F5C07F0AD000241BE0B0F5D0
S31508004C60607FFAD1124BD3F88040C4F3011412E0E6
S31508004C700F4B1C6F230B13F00E0FC4F303340AD02B
S31508004C80032C08D0072C06D00F2C04D04FF419712A
S31508004C900848FFF74DFD601C10BD054BD3F8904042
S31508004CA0C4F30464F7E7024B1C6FC4F38024F2E7ED
S31508004CB000800040FF5901084FF480320F4B70B551
S31508004CC09A66064600200D46FFF7BAFF41F671328E
S31508004CD00B4B7043DC690B49DA635A68884204F463
S31508004CE0803422F4401203D9012D18BF42F48012F1
S31508004CF05A600CB10022DA6370BD00BF0090004014
S31508004D0000000340005A620208B5FCF765FBBDE8DF
S31508004D1008400021FFF7D0BF70B5440905460E4686
S31508004D200ED140F205310F48FFF702FD05F01F05C9
S31508004D30AEB104F58053012000FA05F51D6070BD7B
S31508004D40012C08D0022C08D040F20F310548FFF795
S31508004D50EFFC0024EAE7044CE8E7044CE6E704F530
S31508004D600053E8E7FF590108648000406880004066
S31508004D70002130B5802885B00446CDE9011100F040
S31508004D8094802AD8002800F09680A0F12004A3B2C7
S31508004D903D2B35D83D2C33D8DFE804F08D998D9915
S31508004DA0A8A8A8A8A899B23FC9633F999999323289
S31508004DB03232323232329999996BD399323232324F
S31508004DC0323232323232323232A88D8D8DCE3F3F78
S31508004DD0D87A50AD323232323282B0F5B06F00F046
S31508004DE08F8030D8B0F5207F71D00FD8B0F5C07F4E
S31508004DF061D0B0F5007F61D0B0F5807F00F0858086
S31508004E0040F25A415448FFF793FC51E0B0F5607FF1
S31508004E1067D00DD8B0F5407FF2D1FCF7CBFA04463F
S31508004E204FF42070FFF70CFFB4FBF0F040083EE0AB
S31508004E30B0F5806F5AD0B0F5A06FE1D1002101A876
S31508004E40FFF740FD34E0B0F5106F75D016D8B0F511
S31508004E50E06F76D00AD8B0F5C06F68D0B0F5D06FDD
S31508004E60CED1002101A8FFF725FE21E0B0F5F06FAD
S31508004E70C6D1002101A8FFF7A7FE19E0B0F5406FDB
S31508004E8039D00AD8B0F5206F60D0B0F5286FB7D101
S31508004E90002101A8FFF7E8FD0AE0B0F5486FAFD199
S31508004EA0002101A8FFF7A8FD02E0FCF769FA0190C6
S31508004EB0019805B030BDFCF77DFAF8E7FCF760FA13
S31508004EC005462046FFF7BCFEB5FBF0F0EFE7FCF71A
S31508004ED071FA04464FF42070FFF7B2FEB4FBF0F007
S31508004EE0E5E702A8FFF730FC029DEAE7002101A8E2
S31508004EF0FFF74EFCDCE7002101A8FFF781FCD7E7A6
S31508004F00002101A8FFF7ACFCD2E74FF0E02303919C
S31508004F101B695B0705D5FCF74DFA0390039B0193C4
S31508004F20C6E70DF1030103A8FFF704FDF6E7002124
S31508004F3001A8FFF7FFFCBBE7002101A8FFF7EAFD80
S31508004F40B6E7002101A8FFF715FEB1E7002101A881
S31508004F50FFF71AFDACE700BFFF59010808B5802026
S31508004F60FFF706FF034B98429EBF4FF48032024B71
S31508004F701A6708BD005A620200A00040002307B560
S31508004F80B0F5807F8DF8023000F0CB8064D85D28BC
S31508004F9055D84C2806D82D2846D823282AD840F292
S31508004FA03651AAE04D381028F9D801A353F820F055
S31508004FB0175100089F4F00089F4F00089F4F000891
S31508004FC0BF5000089F4F00089F4F0008AD510008CA
S31508004FD0DF5000087F500008A15100089F4F0008C5
S31508004FE09F4F00089F4F00089F4F00089F4F0008DB
S31508004FF0B951000824380928D1D801A353F820F05C
S3150800500017510008175100081751000817510008D2
S31508005010175100089F4F0008035100089F4F0008CA
S315080050209D500008575100083D2800F08E803E2804
S31508005030B5D100200DF10201FFF79CFD66E080283E
S31508005040ADD1604B1B6F03F00703013B032B52D80E
S31508005050DFE803F04F4B949CB0F5F06F75D023D87A
S31508005060B0F5B06F4DD010D8B0F5607F00F09280E3
S3150800507095D3B0F5806F4ED0B0F5A06F8FD10020D4
S315080050800DF10201FFF71EFC40E0B0F5D06F62D0CB
S31508005090B0F5E06FCDD0B0F5C06F80D100200DF12E
S315080050A00201FFF747FC31E0B0F5206F7ED00CD83F
S315080050B0B0F5086F55D0B0F5106F7FF470AF0020CB
S315080050C00DF10201FFF726FD20E0B0F5406F67D02D
S315080050D0B0F5486F70D0B0F5286F7FF460AF002048
S315080050E00DF10201FFF7C0FC10E005238DF8023030
S315080050F00CE00223FAE740F28C413348FFF718FB2D
S3150800510004E000200DF10201FFF7AAFB9DF802005A
S3150800511003B05DF804FB00200DF10201FFF738FB30
S31508005120F4E701934FF0E0231B695B0707D5FCF70B
S3150800513041F90D238DF803309DF80330D6E70DF1BC
S31508005140030101A8FFF7F6FBF6E700200DF10201BF
S31508005150FFF73AFDDAE700200DF10201FFF7AAFC96
S31508005160D4E7184BD3F8003103F00303022B07D01A
S31508005170032B09D0012B0BD1FCF732F90323B5E732
S31508005180FCF792F90923B1E7FCF740F90823ADE7E4
S315080051900123ABE718460DF10201FFF7D5FAB5E78B
S315080051A000200DF10201FFF72BFBAFE700200DF100
S315080051B00201FFF7E9FBA9E700200DF10201FFF75D
S315080051C01BFCA3E700800040FF59010838B50378A7
S315080051D004460F2B04D940F621217548FFF7A8FA93
S315080051E063780F2B04D940F624217148FFF7A0FAFB
S315080051F0A3780F2B04D940F627216D48FFF798FAB4
S31508005200E3780F2B04D940F62A216948FFF790FA6C
S3150800521023790F2B04D940F62D216548FFF788FA24
S3150800522063793F2B04D94FF423616148FFF780FA6D
S31508005230A3793F2B04D940F633215D48FFF778FA66
S31508005240E379032B04D940F636215948FFF770FA5B
S31508005250237A032B04D940F639215548FFF768FA13
S31508005260637B032B04D940F63C215148FFF760FACB
S315080052708020FFF783FE03287BD04FF480124D4B26
S315080052804D495A6645F60E034FF0A062C1F88030C4
S315080052904A4B9A624FF4803203F580539A628A6DBC
S315080052A012F48032FBD1637820781B0543EA006349
S315080052B0A079434D0343E07843EA0043207943EA63
S315080052C00033607943EA80130B618B69E07A03F057
S315080052D000430343E07943EA8063207A43EA0063A4
S315080052E0607A43EA0043A07A43EA00238B61607B35
S315080052F00B6A002818BF0822217B23F00F0343EA14
S31508005300000343EA81032C4942EA03020A6231D1C7
S31508005310A37C8A6AA07BDB002A4043EA4013134336
S31508005320E27B43EA021343F480338B62254B8A6D92
S3150800533033EA0202FBD14FF08072204882620B6981
S31508005340A57823F4700343EA05530B614FF0004335
S315080053508361237C0BB91C4B9A62637C1BB94FF49F
S315080053608032194B9A62E37C1BB1134B174AC3F878
S31508005370802038BD022809D100234FF408520B615A
S3150800538013488B614FF47F41FFF748FC0A49237C99
S315080053908A6AA07B1B062A4043EA40131343A27C71
S315080053A043EAC203627C43EA02438B62DBE700BF3F
S315080053B0FF590108009000400040004A0050004A8A
S315080053C0C7FFFEFE030001000060004AF1A7FFFFC9
S315080053D03440004A014B93F9000070473010002012
S315080053E010B583780446072B04D940F69F312A481E
S315080053F0FFF79EF9E378032B04D940F6A131264836
S31508005400FFF796F92378032B04D940F6A3312248EF
S31508005410FFF78EF994F90130002B04DA40F6A5312E
S315080054201D48FFF785F94FF400011C4A6378516659
S315080054304FF4D151022002F5B832516218494F2B68
S3150800544048604FF0010028BF4F2301F5805148609E
S315080054501169C903FCD4217843EA01235361E3782F
S31508005460A1781B0143EA012361790B43217943EAB9
S3150800547041039360E379A1791B0143EA4113617AF9
S315080054800B43217A43EA41035360A37A13B16FF4BD
S31508005490D153536210BD00BFFF5901080090004068
S315080054A000100240014B1880704700BF32100020E0
S315080054B00029CCBF01210021FFF7FEBBB0F5207FF4
S315080054C038B577D00ED8B0F5007F61D003D890B341
S315080054D0B0F5C07F2FD04FF43A71BDE838403D484B
S315080054E0FFF726B9B0F5607FF5D13B4A4C1ED2F8D6
