S02A00006275696C642F64656275672F74666C6974655F6D6963726F5F6D616769635F77616E642E733337EB
S21400000000100020E9140000E5140000E5140000CC
S214000010E5140000E5140000E5140000E5140000F7
S214000020E5140000E5140000E5140000E5140000E7
S214000030E5140000E5140000E5140000E5140000D7
S214000040E5140000E5140000E5140000E5140000C7
S214000050E5140000E5140000E5140000E5140000B7
S214000060E5140000E514000035190000E514000052
S21400007019EC000025EC0000E5140000E514000073
S214000080E5140000E514000051190000E514000016
S214000090E5140000E5140000E5140000E514000077
S2140000A0E5140000E5140000E5140000E514000067
S2140000B0E5140000E514000029410000E5140000E6
S2140000C0E5140000E5140000E5140000E514000047
S2140000D0E5140000E5140000E5140000E514000037
S2140000E0E5140000E5140000E5140000E514000027
S2140000F0E5140000E5140000E5140000E514000017
S214000100E5140000E5140000E514000010B5054CE9
S214000110237833B9044B13B10448AFF300800123AE
S214000120237010BDC410002000000000449501009C
S21400013008B5034B1BB103490348AFF3008008BD65
S21400014000000000C810002044950100A3F5803A86
S214000150704700BF174B002B08BF134B9D46FFF799
S214000160F5FF00218B460F461348144A121A10F06A
S214000170D5FE0E4B002B00D098470D4B002B00D021
S21400018098470020002104000D000D48002802D0EA
S2140001900C48AFF3008010F0C1FD200029000FF0DE
S2140001A0B3F810F0DDFB00BF000008000000000000
S2140001B00000000000100020C4100020AC620020E8
S2140001C000000000000000000F207047082808B557
S2140001D01BD010DC022806DC002806DD01230422E2
S2140001E00921052015E00428F8D010489F2101F0C9
S2140001F0BDFB0E2010E020280FD0402811D010287C
S214000200F3D1012304220E21EBE7012304220A2165
S214000210184602F0BFFE002008BD01230422082174
S214000220DFE7012304220A21DBE700BFF8280100EC
S21400023008B50648012101F039FC0EF033FC2020F9
S214000240FFF7C4FFBDE8084001F0BEB800350A005D
S2140002500148012101F02ABC00350A00014B0822A2
S214000260DA66704700A00046014B0822DA6670473F
S21400027000A000440020704730B5284D0FCD89B04F
S21400028001AC0FC495E8070084E807000124244B5E
S2140002902448039321468DF8124001F007FC2146BE
S2140002A0214801F003FC2146204801F0FFFB002313
S2140002B019460422022002F06DFE22462146002343
S2140002C0022002F067FE022108460023042202F004
S2140002D061FE2346164C04220321022002F05AFE39
S2140002E0204602F0DFFF204601A903F07BF80B232F
S2140002F06367A36F23F01F2323F01F03A367A36F77
S21400030043F49053A367A36F43F01203A367A36F4E
S214000310002043F09053A36709B030BD3829010090
S214000320A05A3200404105000072040000350A0061
S214000330000C014038B50C4D04467F212846FFF7D7
S21400034093FF03F0BFF8284603F0ACF821012846D7
S21400035001F0F00103F0B6F8284603F0A3F8BDE874
S2140003603840FFF77BBF00BF000C014070B5054664
S21400037065F07F05C0F3C71014460E46FFF7DAFF98
S214000380E9B20D480C4DFFF76FFF03F09BF80A48E3
S21400039003F088F82644B44203D1BDE87040FFF766
S2140003A05DBF0021284603F08DF8284603F07AF852
S2140003B004F8010BEFE700BF000C014013B504463C
S2140003C00DF1070201214FF48A70FFF7CFFF9DF869
S2140003D0073003F00603062B08D8DFE803F004070F
S2140003E00A070D0710004FF062532360002002B08A
S2140003F010BD4FF06453F8E74FF06653F5E74FF043
S2140004006853F2E71FB5044601A8FFF7D7FF02AA14
S21400041006212D20FFF7AAFFBDF80830DDED016AA2
S214000420DBBA07EE103AB8EEC77ABDF80A3027EE08
S214000430267ADBBA84ED007A07EE103ABDF80C3067
S214000440DBBA07EE903AB8EEC77AF8EEE77A27EE10
S214000450267A67EEA67A002084ED017AC4ED027A49
S21400046004B010BD13B504460DF10702012140F299
S2140004700110FFF77BFF9DF8073003F00603062BFD
S21400048007D8DFE803F0040609060B060D00054B47
S2140004902360002002B010BD034BF9E7034BF7E7DB
S2140004A0034BF5E70000FA3B00007A3C0000FA3CFC
S2140004B000007A3D1FB5044601A8FFF7D3FF02AA45
S2140004C006213320FFF752FFBDF80830DDED016A44
S2140004D0DBBA07EE103AB8EEC77ABDF80A3027EE58
S2140004E0267ADBBA84ED007A07EE103ABDF80C30B7
S2140004F0DBBA07EE903AB8EEC77AF8EEE77A27EE60
S214000500267A67EEA67A002084ED017AC4ED027A98
S21400051004B010BD13B5044601AA04211920FFF744
S21400052025FF019B2360002002B010BD07B5012106
S2140005300DF107021A20FFF719FF9DF8070000F0DB
S214000540010003B05DF804FB08B502460121002057
S214000550FFF70CFF002008BD70B50E4C0546C0F333
S214000560C7100E46FFF7E6FE05F07F012046FFF7B0
S2140005707BFE02F0A7FF204602F094FF314620469D
S21400058002F0A0FF204602F08DFFBDE87040FFF7A6
S21400059065BE00BF000C014008B580210620FFF7AD
S2140005A0DBFF642003F050FC002008BD07B5FFF712
S2140005B063FEFFF7F1FF10210320FFF7CDFF0DF1DB
S2140005C0070201210020FFF7D1FE9DF80730E02B3F
S2140005D001D0EA2B0ED101210620FFF7BDFF1E2019
S2140005E003F032FC0F20C021FFF7B6FF002003B057
S2140005F05DF804FB1020FAE713B504460DF1070278
S21400060001214FF48A70FFF7B1FE9DF8071004F041
S214000610060421F0060121434FF48A708DF8071076
S214000620FFF79AFF002002B010BD13B504460DF187
S2140006300702012140F20110FFF798FE9DF807100F
S21400064004F0060421F00601214340F201108DF863
S2140006500710FFF781FF002002B010BD0000000069
S21400066013B50FF001FC02460B461BA1D1E90001B1
S2140006700FF07CFD1A4B00220FF096FA0FF00EFFDB
S2140006809FED187A07EE900AF4EEC77AF1EE10FAAC
S2140006901FDCF5EEC07AF1EE10FA01D5DFED127A26
S2140006A0FCEEE77A4FF48070CDED017A9DF80440B9
S2140006B02146FFF751FF601C0FF0C4FB02460B46B5
S2140006C005A1D1E900010FF051FD0FF0E7FE02B0E1
S2140006D010BDF0EE477AE3E700000000009491407A
S2140006E00000F03F00007F43000000000000000014
S2140006F010B50FF0B9FB02460B461DA1D1E900016B
S2140007000FF034FD1C4B00220FF04EFA0FF0C6FE21
S2140007109FED1A7A07EE900AF4EEC77AF1EE10FA19
S21400072023DCF5EEC07AF1EE10FA01D5DFED147A8F
S214000730FCEEE77A4FF4887017EE901A8CB2C1F38D
S2140007400721FFF709FFE1B240F21110FFF704FF9F
S214000750601C0FF077FB02460B4605A1D1E90001AD
S2140007600FF004FD0FF09AFE10BDF0EE477ADFE7BB
S21400077000000000009491400000F03F00F07F452C
S2140007800000000010B50446FFF76AFF2046FFF79A
S214000790AFFF002010BD13B504460DF1070201217E
S2140007A040F20110FFF7E2FD9DF8071004F039044F
S2140007B021F03901214340F201108DF80710FFF7B0
S2140007C0CBFE002002B010BD13B504460DF10702A3
S2140007D001214FF48A70FFF7C9FD9DF8071004F059
S2140007E0390421F0390121434FF48A708DF807103F
S2140007F0FFF7B2FE002002B010BD13B5012104467B
S2140008000DF107020620FFF7B1FD9DF807104CB169
S21400081041F0400106208DF80710FFF79DFE0020EE
S21400082002B010BD01F0BF01F4E708B5002814BF00
S214000830302100210520FFF78FFE002008BD73B58C
S21400084004460E46154601210DF107020620FFF765
S2140008508DFD002C14BF002438240EB944F0070484
S2140008609DF807106DB101F0F70106208DF807100E
S214000870FFF772FE21460720FFF76EFE002002B04B
S21400088070BD41F00801F0E773B505460E46144604
S21400089001210DF107020620FFF768FD0DB906B924
S2140008A0F4B10020FFF7A9FF0020FFF7BEFF2246A5
S2140008B031462846FFF7C3FF322003F0C5FA012071
S2140008C0FFF7B3FF9DF8073043F020038DF807309D
S2140008D09DF807100620FFF73FFE002002B070BD0F
S2140008E02046FFF7A2FF9DF8073023F02003EDE730
S2140008F010B5002914BF0821002104461020FFF778
S2140009002BFE21461120FFF727FE002010BD000019
S2140009102DE9F043012185B0002280460846FFF706
S2140009208EFF7F48FFF72EFF2920FFF734FF0020B9
S214000930FFF77BFE6846FFF795FD322003F084FA4A
S21400094040210320FFF708FE0F216920FFF704FE71
S2140009500E216720FFF700FE0F216820FFF7FCFD41
S21400096000216820FFF7F8FD40210320FFF7F4FD83
S214000970052003F069FA01AA02217020FFF7F6FCB1
S214000980BDF804305BBA9BB2B3F57F6FF0D300219D
S2140009906720FFF7E1FD01AA02217020FFF7E6FCC1
S2140009A0BDF804404FF0000964BAA4B20C274D46C7
S2140009B0B4FBF7F74E464C461FFA89F3BB42C0F02D
S2140009C0928096FBF7F695FBF7F507EE906A94FB98
S2140009D0F7F49DED007AF8EEE77A01AA67EE877ADB
S2140009E00221C8ED007A07EE905AF8EEE77A40F258
S2140009F0031067EE877AC8ED017A07EE904AF8EEA4
S214000A00E77A67EE877AC8ED027AFFF7AFFC9DF9C2
S214000A1004309DF8058001AA022140F2051048EA3C
S214000A200328FFF7A3FC9DF904309DF8057001AA82
S214000A30022140F2071047EA0327FFF797FC002E33
S214000A409DF904209DF80530B8BF0336002DB8BFC9
S214000A500335002C43EA0223B8BF0334A7EBA505F1
S214000A60A3EBA404A8EBA6062B12C6F307218DF869
S214000A70063040F2031023128DF808308DF804106B
S214000A808DF805608DF807508DF80940FFF764FD76
S214000A909DF805104FF48270FFF75EFD9DF8061076
S214000AA040F20510FFF758FD9DF807104FF48370CD
S214000AB0FFF752FD9DF8081040F20710FFF74CFDB7
S214000AC09DF809104FF48470FFF746FD00210320BF
S214000AD0FFF742FD002211461046FFF7B0FE002049
S214000AE005B0BDE8F08301AA0C217220FFF73EFC9A
S214000AF09DF90A209DF80B3043EA02231E449DF917
S214000B000C209DF80D3043EA02231D449DF90E206B
S214000B109DF80F3043EA02231C4409F101094BE714
S214000B200080894400234FF07E5202604360836059
S214000B30C360026143618361C3610262704710B59E
S214000B4091ED027A92B0F1EE477ACDED017A8DED15
S214000B50037AD1ED017A91ED007ACDED027A002389
S214000B600446F1EE476AF1EE677A6A46014609A83E
S214000B70009304930893CDED056ACDED067A8DEDCE
S214000B80077A00F059FB204609AB04F12402D0EDA9
S214000B90007A93ED007A77EE877A93ED017AC0EDCE
S214000BA0007AD0ED017A77EE877A93ED027AC0ED7F
S214000BB0017AD0ED027A77EE877A0C3040ED017A32
S214000BC0904203F10C03E2D112B010BD30B52DED0A
S214000BD0028B00F10C058DB02946044600F0A6FBFA
S214000BE007EE100AFEEE007A67EE277A294617EE21
S214000BF0902A03A8CDED017A00F053FB019A214616
S214000C0006A800F04EFB03A92246084600F073FB38
S214000C1006A92A46084600F06EFB06AA03A909A8FC
S214000C2000F096FB03A9084600F080FB07EE900A4A
S214000C30B0EE088A78EE677AF6EE008A67EEA87A53
S214000C4003A917EE902A204600F02BFB06A90846BB
S214000C5000F06CFB07EE900A78EE677A06A967EE5E
S214000C60A87A284617EE902A00F01BFB09A908462A
S214000C7000F05CFB07EE900A38EE678A09A968EE7A
S214000C80287A04F1180017EE902A00F00AFB0DB03F
S214000C90BDEC028B30BD38B504460D46016AC0690E
S214000CA011F036FA2860A06911F0FEF907EE900AF6
S214000CB0F1EE677AC5ED017A2168E06811F028FA4E
S214000CC0A86038BD0023002243628362C3620363C8
S214000CD043638363C2630364C3650366436603605A
S214000CE043608360C360036143618361C3610362E1
S214000CF043648364C364036543658366C3660367AE
S214000D00704700000000000007EE901AF7EE006A39
S214000D1086EEA77A10B50446016580ED157A08467A
S214000D200FF0A2F802460B4605A1D1E900010FF02C
S214000D301DFA0FF0B3FBA06510BD00BFAFF3008037
S214000D40399D52A246DF913F0165704791ED007ACA
S214000D50D0ED0C7AC36B77EE877A0133C0ED0C7A50
S214000D6091ED017AD0ED0D7A77EE877AC0ED0D7AA7
S214000D7091ED027AD0ED0E7AC36377EE877AC0EDF6
S214000D800E7A704710B586B00446826D684600F04D
S214000D9088FA04F15C02694603A800F0ACFA03A9DD
S214000DA02046FFF7CCFE2046FFF710FF04F168014F
S214000DB02046FFF770FF06B010BD000000000000E0
S214000DC02DE9F0432DED048B00F15C0590ED099ABA
S214000DD090ED0A8AD0ED0B8A85B0044688462846F0
S214000DE017461E4600F058FAB8F1000F59D0606A50
S214000DF00FF03AF848A3D3E90023804689460FF05F
S214000E0011FB00284DD046A3D3E9002340464946AF
S214000E100FF0FEFA002844D0A06A0FF025F83EA393
S214000E20D3E90023804689460FF0FCFAC8B33CA3FA
S214000E30D3E90023404649460FF0EAFA88B3F1EEBC
S214000E40497AF5EEC08A17EE908AF1EE10FAF1EEC6
S214000E50487A17EE900A04F1680927DB11F024F9A6
S214000E600190404611F020F907EE900A4A46F1EE4E
S214000E70677A284601A9CDED027A039600F048FA73
S214000E80284600F0FCF90FB900236366D4ED147A07
S214000E90B6EE007AC7EE277A284617EE901A00F0CC
S214000EA015FA05B0BDEC048BBDE8F08311F0FCF834
S214000EB00EF0DAFF02460B461BA1D1E900010EF048
S214000EC073FE0FF0EBFA0190404611F0EDF807EED6
S214000ED0900A3046F1EE677ACDED027A0EF0C4FF46
S214000EE011A3D3E900230EF061FE0FF0D7FA0390AA
S214000EF001A800F0C4F94A4601A9284600F008FAFD
S214000F00284600F0BCF9D4ED187AF1EE677AC4ED05
S214000F10187AB8E7AFF30080C139234A7B83EFBF66
S214000F20C139234A7B83EF3F182D4454FB210940E7
S214000F3010B50446243000F0AFF904F1300000F09C
S214000F40ABF90023E36304F1440000F0A5F904F1D3
S214000F50680000F0A1F904F15C0000F09DF920465D
S214000F60BDE81040FFF7DEBD37B5044600F054F884
S214000F700128054628D104F124010846019100F015
S214000F80D7F801992046FFF7E1FE04F14401084630
S214000F90019100F0DBF8D4ED117A0199F1EE677A51
S214000FA0C4ED117AD4ED127AF1EE677A2046C4EDDC
S214000FB0127AFFF7E7FE002300222946204603B0F8
S214000FC0BDE83040FFF7FCBE03B030BD7FB5104D26
S214000FD0104802262E70FFF775FEFFF7E7FA044664
S214000FE080B90DF10300FFF7AFFA044650B90323AA
S214000FF001A82B70FFF78CFC044618B92E7020460B
S21400100004B070BDFFF736F900232B70F7E700BF7A
S214001010E8100020F0100020014B1878704700BF41
S214001020E810002073B501211D4D1E4E022300223C
S214001030044608462B70FFF702FC2046FFF710FB1D
S21400104030602046FFF754FB174C20600020FFF767
S214001050BBFB1920FFF79FFB0020FFF7CDFA00200F
S214001060FFF7E3FA322002F0EFFE00210120FFF73F
S2140010703FFC012100220846FFF706FC01A8FFF707
S21400108049FA21680948FFF75FFE31680748FFF70D
S2140010903BFE0648FFF74CFF01232B7002B070BDE5
S2140010A0E810002064110020EC100020F010002052
S2140010B01A4AD36B6BB392ED0C6A9FED197A07EE62
S2140010C0903A26EE076AF8EE677AC6EE276A92ED41
S2140010D00D6AFDEEE66A26EE076A16EE903AC6EE52
S2140010E0276A0380FDEEE66A16EE903AD2ED0E6AA7
S2140010F0438066EE876A86EEA77ABDEEC77A17EE5D
S214001100103A838000231363536393630023D363EF
S2140011107047038043808380704700BFF010002034
S21400112000007A440148FFF71FBF00BFF010002000
S214001130054A1278012A04D00022026042608260CA
S2140011407047FFF75FB900BFE8100020054A127825
S214001150012A04D000220260426082607047FFF7D6
S214001160A9B900BFE810002008B5094B1B78012B71
S21400117001D0002008BDFFF7D9F9064A13680133ED
S21400118013600028F5D0044A136801331360F1E7B2
S214001190E8100020E0100020E4100020000000000E
S2140011A02DE9F0471EA7D7E900670FF27C09D9E9B9
S2140011B000898246DAF800000EF056FE32463B46BC
S2140011C004460D460FF02EF998B90FF26409D9E9D6
S2140011D0008915A7D7E90067DAF800000EF044FE8C
S2140011E042464B4604460D460FF008F960B9BDE886
S2140011F0F08742464B46204629460EF0D5FC0FF0B7
S2140012004DF9CAF80000D5E732463B462046294647
S2140012100EF0CCFC0FF042F9CAF80000DCE700BF85
S214001220182D4454FB210940182D4454FB21194025
S214001230182D4454FB2109C070B501F1240502F1B4
S2140012400C0613460446F3EC017A91ED006AD1EDE4
S214001250016A93ED027A67EE867A46EE877AB342A3
S214001260D1ED026A93ED057A46EE877AE4EC017AD0
S214001270E9D10C318D4200F10C00E2D170BD10B501
S2140012800446FFF78DFF201DFFF78AFF04F10800D4
S214001290BDE81040FFF784BF00230360436083600F
S2140012A0704791ED007A07EE902A27EE277A80EDB8
S2140012B0007A91ED017A27EE277A80ED017A91ED9A
S2140012C0027A67EE277AC0ED027A704707EE901A28
S2140012D090ED007A27EE277A80ED007A90ED017A7D
S2140012E027EE277A80ED017A90ED027A67EE277A6C
S2140012F0C0ED027A704701F10C03F1EC017AB2EC12
S214001300017A77EE877A9942E0EC017AF5D1704758
S21400131001F10C03F1EC017AB2EC017A77EEC77AB0
S2140013209942E0EC017AF5D170470000DFED077ACC
S21400133000F10C03F0EC016AB1EC017A984246EE3B
S214001340877AF7D117EE900A704700BF00000000BA
S21400135092ED016AD1ED027AD1ED016A92ED027A40
S21400136067EE867A56EE877AC0ED007A92ED026ACC
S214001370D1ED007AD1ED026A92ED007A67EE867AB8
S21400138056EE877AC0ED017AD1ED017A92ED006AC9
S214001390D1ED006A92ED017A67EE867A56EE877A8C
S2140013A0C0ED027A70470000024B0222C3F8EC211F
S2140013B0704700BF00A00046024B0222C3F8EC2193
S2140013C0704700BF00A0004470B5384D384E0FCDB2
S2140013D088B001AC0FC495E80700364D84E80700D6
S2140013E03548012100F062FB30460121012400F05F
S2140013F05DFB324B039301A928468DF8124001F09D
S214001400F1FF2346042200210A2001F0C3FD2246F4
S214001410002302210A2001F0BDFD234604220721F5
S214001420052001F0B7FD0422214623460A2001F0DC
S214001430B1FD234BAB670B236B674FF4487002F08C
S214001440AFFE1420FFF7B8FF02F0AAFE2320FFF736
S214001450ABFF02F0A5FEB9212846FFF7ADFF02F06C
S21400146027F8FFF7A1FF00231A4619460A2001F0C5
S21400147091FD00231A4602210A2001F08BFD234627
S21400148000220721052001F085FD23460022214683
S2140014900A2001F07FFD284601F004FF0021A9671D
S2140014A03046696700F002FB08B070BD54290100A1
S2140014B0006204000008014000350A0000127A00AD
S2140014C01E1D001205490A681318054883428CBF82
S2140014D04FF0FF320B601046704700BF041000202C
S2140014E000000420FEE7000008B500F069F8064B8F
S2140014F00649074A8B4201D3FEF72CFE52F8040B2E
S21400150043F8040BF6E700BF00100020C4100020CC
S2140015104C9501000048704700F04902104AD2F886
S214001520943003F00703023B032B13D8DFE803F0E5
S2140015300C14020E0B4B1B68D2F80001C0F30420FB
S2140015400130B3FBF0F07047074BF4E7074B1B681E
S2140015505B08F1E7054BEEE74FF40043ECE700BF0E
S21400156000400E40141000200C1000201010002028
S21400157008B5FFF7D3FF054BD3F80831C3F30823AC
S2140015800133B0FBF3F0024B186008BD00400E407C
S21400159008100020014B1868704700BF0C10002090
S2140015A0054B1860054BD3F8943003F00703022B65
S2140015B001D1FFF7DDBF70470C10002000400E4041
S2140015C0044B054A9A60D3F8882042F47002C3F8A8
S2140015D08820704700ED00E0000000004FF4004057
S2140015E070474FF47A707047014B1868704700BF19
S2140015F014100020D0E900031847836800681847D5
S214001600C36800681847000038B50D46044618B38E
S214001610012824D0022825D0032826D004280ED05E
S214001620052825D0831F012B09D9082823D009288F
S21400163023D00A2803D10723EB40DB0704D4104845
S2140016404FF47F7100F092F930200E4B0121444395
S21400165001FA05F51D5138BD40F2FF33ECE74FF6B1
S214001660C073E9E740F6FF73E6E74FF47F43E3E72E
S2140016704FF6FF73E0E70F23DEE74FF44043DBE768
S214001680702901000CA0004438B50D46044618B376
S214001690012824D0022825D0032826D004280ED0DE
S2140016A0052825D0831F012B09D9082823D009280F
S2140016B023D00A2803D10723EB40DB0704D41048C5
S2140016C040F22B4100F052F930200E4B01214443EA
S2140016D001FA05F51D5138BD40F2FF33ECE74FF631
S2140016E0C073E9E740F6FF73E6E74FF47F43E3E7AE
S2140016F04FF6FF73E0E70F23DEE74FF44043DBE7E8
S214001700702901000CA0004610B5012104460948C6
S21400171000F0CCF90848012100F0C8F9A378207839
S2140017206178B3FA83F35B09042201F033FC0020EE
S21400173010BD00BF4041050000350A000346007892
S21400174059789B780BB9FFF75FBFFFF79DBF03463D
S214001750007859789B780BB9FFF796BFFFF754BF10
S21400176038B5047845782CB3012C26D0022C27D027
S214001770032C28D0042C0ED0052C27D0A31F012B19
S21400178009D9082C25D0092C25D00A2C03D10723EB
S214001790EB40DB0704D4114840F2464100F0E6F87F
S2140017A03022544304F18044012304F52044AB4026
S2140017B0A36138BD40F2FF33EAE74FF6C073E7E7B0
S2140017C040F6FF73E4E74FF47F43E1E74FF6FF731D
S2140017D0DEE70F23DCE74FF44043D9E7702901002A
S2140017E070B504784578064654B3012C2BD0022CED
S2140017F02CD0032C2DD0042C0ED0052C2CD0A31FBF
S214001800012B09D9082C2AD0092C2AD00A2C03D15E
S2140018100723EB40DB0704D4134840F2164100F0E0
S214001820A5F830235C43114B234405EBC305AD00FC
S214001830B3782868C0B213B9B0FA80F0400970BD1A
S21400184040F2FF33E5E74FF6C073E2E740F6FF737A
S214001850DFE74FF47F43DCE74FF6FF73D9E70F234C
S214001860D7E74FF44043D4E7702901000CA01002DC
S21400187070B50D4E0446012504B970BD94FAA4F364
S214001880B3FA83F306EB031105FA03F224EA020423
S2140018904A68002AF0D0D8B20B7B13B1896890470B
S2140018A0EAE79047E8E700BF6811002008B5122075
S2140018B000F07EFE28B1084B4FF48022C3F880214A
S2140018C01A600A2000F074FE28B1034B4FF48062C1
S2140018D0C3F880211A6008BD00E100E0F8B50546AF
S2140018E00F46164600F05BFE104B05F0FC02D3F8E0
S2140018F028140023EC1804F00304144321FA04FC13
S2140019001CF0010F07D00133042BF3D1FF2400F0A5
S2140019104CFE2046F8BDFF2CF9D0054B03EB041314
S2140019200122C3E901761A73F1E700BF00A0004068
S21400193068110020054BD3F82804D3F81C24104067
S21400194000F05530C3F82404FFF792BF00A0004013
S214001950054BD3F82804D3F81C24104000F0AA3016
S214001960C3F82404FFF784BF00A00040FEE7000091
S2140019700C4B984210D90C4B984210D902220123E6
S2140019800A490B640A49D1F8003123F0807343EA10
S2140019900263C1F80031704700221346F0E70122C7
S2140019A0FBE700BF0048E8010090D0030000C843F2
S2140019B000400E4038B5114B5B68114B00221C46A8
S2140019C0C9B21D798D4202D11D68854212D20132FC
S2140019D0052A03F10803F4D10A4841F23851FFF70B
S2140019E0C5FF032205494B6823F0407343EA0263B0
S2140019F04B6038BD04EBC2025279F3E700000E409C
S214001A00302A0100A02901001F2810B5044604D979
S214001A10034840F24311FFF7A9FF0120A04010BD84
S214001A20CF29010038B5074C41F67133256C236485
S214001A30FFF770FD0021FFF7BDFF0DB10023236403
S214001A4038BD00BF00000E40044BDB6B5B0604D4C1
S214001A50034AD2F8C830002BFBD1704700300E4046
S214001A600000C64308B5FFF7EFFF024B5868C0F307
S214001A70014008BD00300E40044BD3F84421D20785
S214001A8003D4D3F840211042FBD1704700400E40EB
S214001A9038B5054C41F67133256C2364FFF78AFF91
S214001AA00DB10023236438BD00000E4038B5C0F3E6
S214001AB00323013B092B24D8DFE803F02A2D232338
S214001AC0051619231C20154C0023C0F3043513B14A
S214001AD01846FFF7D1FF04F1424404F5801405EBE5
S214001AE0C404A400216038BD0D4C0123EDE70D4C65
S214001AF01023EAE70C4C4FF48033E6E70B4C002348
S214001B00E3E7BDE838400A4841F6D521FFF72EBF87
S214001B10084C0023D9E7084C0023D6E7B0400E4017
S214001B20E0400E40E8400E40F0400E4050410E406F
S214001B30A029010000400E40C0400E4008B5C0F38A
S214001B400313013B092B60D8DFE803F0050B0F19E0
S214001B505F5F1F233C532E4BD3F80001C0F30420D5
S214001B6008BD2B4BD3F81401F8E7294BD3F8000136
S214001B70C0F300600130FFF747FF0138F0E7244B61
S214001B80D3F80C01C0F30820EAE7214BD3F808018C
S214001B90F8E7204B984209D01F4B98420CD041F6EC
S214001BA079411E48FFF7E2FE0020D9E7184BD3F82C
S214001BB0200100F00F00DEE7154BD3F82001C0F33C
S214001BC00110D8E7164B984208D003F5B01303F57A
S214001BD08053984206D041F69D41E2E70C4BD3F87D
S214001BE02801ECE70A4BD3F82801C0F301200430A3
S214001BF0C1E70C4B984205D1054BD3F8300100F0F5
S214001C000300ADE741F6AC41CBE741F6D141C8E76A
S214001C1000400E408006160080162E00A029010007
S214001C2090171A00A009140008B5FFF787FF0130C7
S214001C3008BD000000F00F00013808B5072844D89A
S214001C40DFE800F0040F1943232D4335264BD3F865
S214001C50943003F00703023B052B3DD8234AD05CA3
S214001C6008BD214BD3F8803003F00703013B032B5C
S214001C7034D81F4AF3E71C4BD3F8843003F007032D
S214001C80013B032B2AD81B4AE9E7174BD3F88830C9
S214001C9003F00703013B032B20D8174ADFE7124B5C
S214001CA01B6F13F0010F0CBF07200920D8E70E4B5F
S214001CB0D3F85C3103F03003202B11D0302B11D039
S214001CC0102B14BF01200720CAE70C4842F225015A
S214001CD0FFF74CFE0020C3E70520C1E70120BFE761
S214001CE00420BDE70820BBE700400E40012A0100A3
S214001CF0072A01000B2A0100072A0100A02901007B
S214001D0038B52C4B984205460AD02B4B984207D044
S214001D102A4B984204D02A4841F23861FFF726FE43
S214001D202846FFF787FF234B9D42044611D0224BDF
S214001D309D4212D0214B9D4213D1224BD3F88040B6
S214001D4004F00704042C2DD8DFE804F02A11151D32
S214001D5019001C4BD3F88440F2E71A4BD3F888409E
S214001D60EEE7174841F26761FFF700FEEAE7BDE8D5
S214001D703840FFF733BCBDE83840FFF735BCBDE858
S214001D803840FFF72EBCFFF7C9FB0E4B0446D3F8CE
S214001D900001C0F300600130FFF736FEB4FBF0F43C
S214001DA0204638BD064841F2B961FFF7DFFD002442
S214001DB0F6E700BF030020000500240002001E0016
S214001DC0A029010000400E4038B500F47813B3F5A2
S214001DD0B01F05467FD02ED8B3F5402F69D011D856
S214001DE0B3F5802F54D006D843B1B3F5003F5AD090
S214001DF041F605411AE0B3F5202FF9D1BDE8384089
S214001E00FFF78CBBB3F5801F00F0A280B3F5A01FD0
S214001E1057D0B3F5602FEBD15B48FFF70BFF0728D1
S214001E2000F096800928E9D041F2FA315748FFF7CA
S214001E309DFD002036E0B3F5381F5AD013D8B3F511
S214001E40001F5FD00AD8B3F5D01F5DD0B3F5F01FE2
S214001E50CED14F48BDE83840FFF752BFB3F5101F4C
S214001E60C6D14C48F6E7B3F5481F57D0B3F5781FF0
S214001E7000F08280B3F5401FBAD14748FFF740FF15
S214001E80464B0446D3F82801C0F3012004302BE06B
S214001E90FFF744FB414BD3F80C31C3F3082301335F
S214001EA0B0FBF3F038BDFFF739FB3C4BD3F80831F5
S214001EB0F3E7FFF733FB394BD3F81431C3F30423AE
S214001EC0EDE73448FFF71CFF344BD3F8303103F00E
S214001ED00303D840E6E72E48FFF712FF2F4B0446D1
S214001EE0D3F8200100F00F00FFF78EFDB4FBF0F0F2
S214001EF0D8E72748FFF704FF284BD3F82031C3F371
S214001F000113E6E72448A5E72348FFF7F9FE234B2D
S214001F100446D3F82801C0F30110E5E72048FFF790
S214001F2089FE0138072824D801A353F820F000BF03
S214001F30331E0000731F0000731F0000571F0000B1
S214001F40731F0000731F0000511F00005F1F00007A
S214001F50144B1868A6E7BDE83840FFF71BBBFFF731
S214001F60DDFA0E4BD3F80031C3F3042303FB000065
S214001F7098E741F2314159E7FFF7D0FA0446284680
S214001F80FFF752FEB2E700BF06000E00A0290100D0
S214001F9002001E00050024000300200000400E4042
S214001FA0B800320018100020014B1880704700BFA0
S214001FB01C100020013838B50C46032864D8DFE82A
S214001FC000F002441A2FB1F5007F04D3324842F6DF
S214001FD02501FFF7CBFC314AC4F30804D2F8683871
S214001FE0002BFBD12E4A136A23F4FF7323F0010360
S214001FF02343136238BD7F2904D9274842F63201AD
S214002000FFF7B4FC254A04F07F01D2F86038002BB5
S214002010FBD1234B1C6924F07F040C431C61E9E7C9
S2140020207F2904D91C4842F64D01FFF79FFC1B4A46
S21400203004F07F01D2F86438002BFBD1184B9C6962
S21400204024F07F040C439C61D4E7154DD5F89030FE
S2140020505B0704D5104842F65D01FFF787FC6B6A04
S21400206023F0300343F010036B62C4F3C311CB1CA0
S2140020702A6B0C490F2B01EA020128BF0F232143CC
S21400208041EA03712963B5E7BDE83840024842F6E5
S2140020907701FFF76BBC00BFA02901000020C843F2
S2140020A000400E4000F8FF0F022810B50C4604D082
S2140020B0144842F68F01FFF759FC134B5B6A13F086
S2140020C0300F1BD0202C16D0302C17D0B4B10D48B2
S2140020D042F6AA01FFF74AFC0C4B0B4AD2F89010C6
S2140020E033EA0101FAD15B024ABFD2F8A000012010
S2140020F0C0F3802010BD4FF40003EEE74FF440031A
S214002100EBE700BFA029010000400E40FF33E107C7
S214002110022808B50CD129B1094B4FF48060C3F8EA
S214002120A80059664AB1BDE808400220FFF7BCBFC8
S214002130044842F6E001FFF719FC012008BD00BF85
S21400214000400E40A029010004282DE9F04704466F
S2140021500F4691461FD83D4B3D4A13F800A03D4B15
S21400216013F80080F1B93C4B33F8103013660123A6
S21400217003FA08F8D2F8903013EA080FFAD1B9F14A
S214002180000F5AD00125324A05FA0AF5D2F89030E7
S2140021902B42FBD151E0BDE8F047304842F2747163
S2140021A0FFF7E4BB2E4B022833F8106047D1536A82
S2140021B013F0300F43D12B4BDB6B5A0504D4274862
S2140021C042F28371FFF7D2FB214A536ADB0705D53B
S2140021D0536A23F0300343F010035362224D1C4B26
S2140021E0A8441E664FEA8808D8F80030002BFBD0BB
S2140021F0B9F1000F21D05544AD002B68002BFCD060
S214002200022C1AD1CFB1124F796A11F0010118D001
S214002210012220212046FFF77BFFD7F89C400122B1
S21400222000210220FFF790FFC4F30A010220FFF707
S214002230C1FE3E662B68002BFCD0BDE8F087002769
S214002240CCE72046FFF730FFE7E700BF0F2A010084
S21400225000400E40142A0100242A0100A029010093
S2140022601A2A010000300E408004F210112838B5FA
S2140022700C460FD000F00F000138072800F2EB8064
S214002280DFE810F0240066009A00E9007D00B40044
S214002290E900C200042912D1FFF77CF90546A8B16F
S2140022A00021284600F0AEFA023C0A2C45D8DFE8AA
S2140022B004F04A473137444444443D0F4D00052955
S2140022C004D1664B1D68664B9D42E9D80025EBE7B6
S2140022D00320052401221146FFF736FFFFF7A2FB75
S2140022E00DB1FFF7B1FB5F4B5C67FFF741F90446A2
S2140022F0FFF714F9FFF73CFBFFF7B4FB0146204657
S214002300FFF7C6FB002D5DD128460121BDE8384009
S21400231000F078BA5448FFF72BFB02200446D9E7B2
S2140023205148FFF725FB01240320D3E742F2E601DC
S214002330BDE838404D48FFF719BB42F2EB01F7E71E
S21400234001200324C6E700200424C3E70724C5E7CA
S214002350062933D14548464D42F22A11FFF706FBBF
S214002360424842F23A11FFF701FBFFF7D7F8FFF7B2
S214002370FFFA404B0122C3F80826032321E0062972
S2140023803D4DEDD0013C092C2BD801A353F824F089
S214002390E9230000C7230000D5230000E323000044
S2140023A0E32300006B230000E3230000E323000088
S2140023B0E3230000C1230000304DE3E72C4DE1E7A6
S2140023C004232B6038BD012211460020FFF7BCFE17
S2140023D00223F6E7012211461046FFF7B5FE012359
S2140023E0EFE742F26511A3E70023EAE7072904D0E6
S2140023F0092906D042F2EF119AE71A4B00221A6713
S214002400E0E7184B0122FAE74C1E072C1ED8DFE83F
S21400241004F0201D1D161D1D0F0403221149D1F8BE
S2140024205C3123F0300343EA0213C1F85C31C9E79C
S214002430012211460420FFF787FE0122EEE7012263
S21400244011460220FFF780FE0222E7E742F24D2106
S2140024506EE70022E2E742F2243169E7101000201E
S214002460002D310100400E400148E801A02901007E
S21400247080400E400010C84388400E4084400E4006
S21400248010B504461120FFF7D5FB042804D12748D1
S21400249042F20F61FFF76AFA012200210220FFF7DD
S2140024A053FE63781BB9A3780BB9E37823B11F48B2
S2140024B042F24B61FFF75AFA237C012B04D11B48EA
S2140024C042F25261FFF752FA194A217C536A23F00E
S2140024D00103022908BF43F001035362154B21781C
S2140024E0C3F8A014637AA18843EAC123D362136BAE
S2140024F0A07A217A03F07F630343E08843EAC0238F
S21400250043EAC11303310F2928BF0F2143EA0173A1
S2140025101363A37B617B1B0143EA0133E17B0B431F
S214002520217B43EA0143536310BD00BFA02901008D
S21400253000400E400000C84370B505461120FFF766
S21400254079FB022804D10F4842F2CD61FFF70EFA5C
S2140025500D4E0E4BB26B2C7813401C436B7844EA3E
S214002560C324AB7844EA0364EB7844EA0324B36BF1
S214002570A34205D0002101220846FFF7E5FDB4631B
S21400258070BD00BFA029010000400E4080E4FFF8A7
S214002590EFF3108072B6704700B962B67047EFF37B
S2140025A01180602383F31188704780F31188704789
S2140025B038B5C5B2322D044604D9084840F21F315A
S2140025C0FFF7D4F9064B640905F01F0553F82400FD
S2140025D0E840C04300F0010038BD00BF582A0100A3
S2140025E000E100E0034BD86B80F04000C0F38010A1
S2140025F0704700BF00300E4038B542EA0323B3F5FB
S214002600007F05460C463ED019D8B3F5807F36D0FD
S2140026100AD883B3012B21D01F4840F6EE11FFF7EE
S214002620A5F9002213461FE040F201129342F3D1AF
S2140026301A4BD3F824321A0EC3F3074314E0B3F54B
S214002640407F24D040F20132934210D040F2012263
S2140026509342E1D1114BD3F8283202E00F4BD3F866
S2140026602432C3F30722DBB22B60226038BD0B4B4B
S214002670D3F82832DFE7094BD3F81C32F1E7074BD3
S214002680D3F81C32D7E7054BD3F82032E9E7034BE3
S214002690D3F82032CFE700BF882A01000081E00F80
S2140026A008B5FFF79FFF20B1024AD2F8C830002BCA
S2140026B0FBD108BD0000C6431A4B022810B5D3F85C
S2140026C030320C4612D0032813D0012814BFDBB2D8
S2140026D0C3F307231B0323F47042ECB95AB140F648
S2140026E07D111148FFF742F9002010BDC3F30743E0
S2140026F0F0E71B0EEEE70D49CA6E22F47042134354
S214002700CB660120F1E70949D1F8EC2022F47042AB
S2140027101343C1F8EC30F4E7002AF4D040F68911F0
S214002720DFE700BF0081E00F882A010000300E407E
S2140027300378134A002B437870B514BF042600268E
S214002740002B8378946914BF02250025002B03799B
S21400275024F03F0443EA0403C47814BF0821002190
S214002760012C08BF43F0010333432B430B43936113
S2140027701368417923F4403343EA0143136070BD84
S21400278000300E40F8B504460F46FFF72BFF78B32F
S214002790FFF786FF174B5B68C3F301439C4227D0C5
S2140027A0154BD3F80061FEF7B9FE022C05460FD193
S2140027B0124BC6F3042606FB00069E4204D91048B8
S2140027C040F21471FFF7D2F802212846FFF760F9AD
S2140027D0C4F1020210239340064A13610FB1FFF7BB
S2140027E05FFF2CB921462846BDE8F840FFF750B9F0
S2140027F0F8BD00BF00300E4000400E40002D3101F5
S214002800882A010013B50246FFF7ECFEC8B152B99C
S2140028100D4B0191D3F80041FEF780FEC4F304226D
S214002820019902FB0002094B1B7843B1084B9A4200
S21400283005D8022002B0BDE81040FFF7A3BF002075
S214002840F8E702B010BD00BF00400E406E13002037
S214002850002D3101224B4AF6E85210B5596B5A63E7
S2140028609A6FD207FCD41B6C13F003031EBF1D4ADD
S2140028700124C2F8B44A834204D110B9194BC3F8F4
S214002880B40A10BD032B00D09BB9431E012B10D8F1
S214002890134A4FF40023D362936FDB07FCD4136C08
S2140028A023F0030343F0010313640D4A536A1C0329
S2140028B0FCD50B4B9A6FD207FCD41A6C22F003029D
S2140028C002431A649A6F12F00102FBD10038054CDD
S2140028D018BF01200129C4F8B40A08BF5A63D0E71C
S2140028E000300E400000C6432DE9F04FA0F5E1632E
S2140028F089B00024B3F5966FCDE90244CDE90444CF
S214002900CDE9064406468A46934605D940F6763112
S2140029105548FFF72BF8A3E0B0F5E16F534B8CBF9B
S2140029200122002249D1D3F81832C3F30721DBB2C3
S214002930079104934FF416754FF4966748E0BBF181
S214002940000F0ED0D9F85C2022F4FE4222F00202DC
S214002950B6F5E16F42EA012218BF02200243C9F829
S2140029605C20BAF1000F26D020460021FFF7A4FE17
S214002970044610B940F6D331CAE701214046FFF7B6
S2140029809BFE044610B940F6DB31C1E7384A536E69
S214002990BD4238BF3D4623F4FF73E72D23F0010305
S2140029A028BFE725B6F5E16F18BF43F0010343EAF9
S2140029B04503536654E0012452E0D3F81832190E4A
S2140029C0C3F30743079104934FF496654FF4E1670A
S2140029D0DFF89C90D9F84C400192C4F3017423466A
S2140029E005A902A8FFF708FED9F8EC30019AC3F350
S2140029F00128434606A903A8FFF7FEFD049BF01B2B
S214002A00079FF91A4143B1FBF5F299182CBF012331
S214002A1000238F421ED3EBB9069A039FD31B434372
S214002A20B3FBF5F3FF182CBF01230023BA4211D3E2
S214002A3083B9059B029AA3EB020C00FB0CF0B0FBDB
S214002A40F5F555192CBF01200020AB4202D3002813
S214002A503FF475AF044840F6C431FEF787FF002404
S214002A60204609B0BDE8F08F882A01000081E00FFB
S214002A7000300E40334A08B5136FD16C11F0010FC9
S214002A8003F0060344D0002B42D0132857D914383D
S214002A9013288CBF102308232A49013BCA6C18034D
S214002AA022F47F4240EA03231343CB64264BCA6CCE
S214002AB01B88C2F303222833013202EB820003EBA9
S214002AC05303B3FBF0F3C86C013B072B28BF072367
S214002AD020F0EE6040EA036343F48013CB641B4BA4
S214002AE0B3F90030002B12DB03F12800C0F34E03CD
S214002AF00344500800EB4202B3FBF2F20B6D072AC8
S214002B0028BF072223F0700343EA02120A6508BDB5
S214002B10D16C01F00101194304D109280FD90A38F4
S214002B200928B6E7D26CD20702D50BB92728B0E73A
S214002B30074840F61941FEF719FF0023ACE70423C7
S214002B40AAE700BF00300E406A1300206C13002076
S214002B50882A01000C4BD3F8803910B5044633B9E7
S214002B60012804D9094840F63741FEF7FFFE084A17
S214002B70136F23F0070323431367064BBDE810408B
S214002B801888FFF777BF00BF0000C643882A0100F9
S214002B9000300E406813002038B55A4B02229A6364
S214002BA09B6B03F00F039342044607D0564840F64B
S214002BB01221FEF7DBFE0025284638BD0389C82B08
S214002BC004D9514840F61C21FEF7D0FEA28823897E
S214002BD09A4204D94C4840F61D21FEF7C7FEB4F9C8
S214002BE00C30C82B04DD484840F61E21FEF7BEFE1A
S214002BF06378012B55D1A388C82B04D940F622212F
S214002C004148FEF7B3FEE28842F210739A4204D9B6
S214002C103D4840F62F21FEF7A9FEE3884A2B48D907
S214002C20B3F5FA7F47D340F6C312934294BF4FF0F2
S214002C3000524FF040523349B4F90C00CB6C23F0ED
S214002C40405323F001030028A8BF43F001031343B9
S214002C50CB64D1F8EC30A28843F44073C1F8EC3072
S214002C602A4B1A80CB6E43F08073CB66284BD3F882
S214002C70800900B10420FFF76DFF264B21891980DB
S214002C80254BB4F90C20A0881A80FFF7F3FEA37B2F
S214002C90A3B1012B22D01C4840F62E11FEF766FE8B
S214002CA00FE0022BAFD1A3880A2BACD940F6272120
S214002CB0A6E70022BFE74FF08052BCE7114B174A49
S214002CC09A65012260881146FFF70EFE054640B958
S214002CD00D4840F66621FEF749FE6DE7094B104A9F
S214002CE0EEE7084AD36B43F48063D3636078FFF75C
S214002CF0B1FDA37AA3F1200253425341044AC2F81D
S214002D00943759E700300E40882A010068130020E7
S214002D100000C6436A1300206C130020774020573B
S214002D20372110B71F2970B505460C46164603D93D
S214002D3006489121FEF71AFE05F1424000F5801084
S214002D4004EBC004A400266070BD00BFB72A0100D3
S214002D5038B50D46044618B3012824D0022825D0DD
S214002D60032826D004280ED0052825D0831F012B43
S214002D7009D9082823D0092823D00A2803D10723F5
S214002D80EB40DB0704D4104840F22B41FEF7EEFD83
S214002D9030200E4B0121444301FA05F51D5138BD84
S214002DA040F2FF33ECE74FF6C073E9E740F6FF73F7
S214002DB0E6E74FF47F43E3E74FF6FF73E0E70F23C2
S214002DC0DEE74FF44043DBE7702901000CA0004625
S214002DD038B50D46044618B3012824D0022825D05D
S214002DE0032826D004280ED0052825D0831F012BC3
S214002DF009D9082823D0092823D00A2803D1072375
S214002E00EB40DB0704D410484FF47F71FEF7AEFDAD
S214002E1030200E4B0121444301FA05F51D5138BD03
S214002E2040F2FF33ECE74FF6C073E9E740F6FF7376
S214002E30E6E74FF47F43E3E74FF6FF73E0E70F2341
S214002E40DEE74FF44043DBE7702901000CA00044A6
S214002E5070B505460E461446FFF79AFB296881EAC8
S214002E60040202EA06044C402C60BDE87040FFF7FE
S214002E7093BB00002DE9F0478A469DF820909DF808
S214002E80248015461F46044600284ED001284FD001
S214002E90022850D0032851D004280FD0052850D03F
S214002EA0831F012B0AD908284ED009284ED00A289D
S214002EB004D1072020FA0AF0C30703D42C48BF2108
S214002EC0FEF754FD8AEA050333F0030303D02848CF
S214002ED0C121FEF74BFD072D0AF0030A4FF00F0144
S214002EE037D8AE00234804FA06F2B140FFF7B0FF29
S214002EF0032121480AFA06F2B140FFF7A9FF3A4635
S214002F0029461E48FFF70EFF4A4629461C48FFF78B
S214002F1009FF1C4A1C480123AB40C2F8243429464A
S214002F204246BDE8F047FFF7FDBE40F2FF30C1E77E
S214002F304FF6C070BEE740F6FF70BBE74FF47F4029
S214002F40B8E74FF6FF70B5E70F20B3E74FF4404001
S214002F50B0E7A5F10806B6000C4804FA06F2B14040
S214002F60FFF776FF03210A480AFA06F2B140C4E7E3
S214002F70E62A010000A4004008A4004010A4004077
S214002F8014A4004000A0004028A4004004A4004070
S214002F900CA40040F8B50D4616461F460446C0B3BE
S214002FA0012839D002283AD003283BD004280ED076
S214002FB005283AD0831F012B09D9082838D00928BC
S214002FC038D00A2803D10721E940CB0704D4234888
S214002FD04FF4B071FEF7CAFC26B12946204667B307
S214002FE0FFF7B6FE3023072D04FB03F34FF00F0167
S214002FF026D8A80006FA00F2814019481844FFF7C0
S21400300027FF4EBB2946204617B3BDE8F840FFF71A
S2140030109FBE40F2FF31D7E74FF6C071D4E740F6C7
S214003020FF71D1E74FF47F41CEE74FF6FF71CBE754
S2140030300F21C9E74FF44041C6E7FFF7C9FED1E7C5
S214003040A5F10800800006FA00F281400548D5E7A1
S214003050BDE8F840FFF7BCBEF8BD00BFE62A010099
S21400306004A0004008A00040022838B504460D46DB
S21400307003D911484C21FEF779FC6B791F2B03D935
S2140030800D484F21FEF772FCAB786A789B0143EA45
S21400309082032A781343EA7843EA02132A7943EA3A
S2140030A0C2236A7943EA0233AA79043443EA4243E4
S2140030B02401024A135138BD162B0100002004409B
S2140030C0014B1860704700BF0000844242780179C7
S2140030D00378002A827870B514BF04260026002ADA
S2140030E0C27814BF10250025002A42794FEA023222
S2140030F042EA012242EA0302837914BF2024002414
S214003100002BC37942EA034343EA0603027A43EA02
S214003110050314BF4FF4004100212343002A14BFC7
S2140031204FF4003200220B431343014A136070BD74
S214003130002004402DE9F04180460E461F46154605
S21400314022B931484FF4A171FEF710FC1EB92F4882
S214003150FEF73AFE0646402F2AD009D8A7B1202F00
S2140031601CD0BDE8F041284840F28911FEF7FEBBAE
S214003170602FF6D1B5EB960F04D9234840F28311A1
S214003180FEF7F4FB04241DE0B5EB161F04D91E4819
S2140031904FF4BA71FEF7EAFB102413E0B5EBD60F36
S2140031A004D9194840F27911FEF7E0FB082409E03B
S2140031B00624B6FBF4F3AB4204D213484FF4BF71B7
S2140031C0FEF7D4FB6C43610801EB4616B6FBF4F43D
S2140031D00F4E203CB6EBC40F4FEAC40504D20A4893
S2140031E04FF4D071FEF7C2FBD8F8003023F060032E
S2140031F0C8F80030D8F8003035401F43C8F80070D3
S214003200C8F81450BDE8F081462B01004041050087
S214003210F8FF7F0070B506460C46154622B90D48E5
S2140032204FF42271FEF7A2FB1CB90B48FEF7CCFD4B
S21400323004460A4B6D00013CB4FBF5F413EA042384
S2140032404FEA042504D0034840F2A521FEF78EFB82
S214003250756170BD462B010040410500070080FFE8
S21400326038B50E4B984204460D4610D003F58063E1
S21400327098420CD003F58063984208D003F580632B
S214003280984204D0064840F2BE21FEF76FFBEB439F
S2140032905B0003F00A03E360E56038BD0000014010
S2140032A0462B010038B51E4B1E4D984204460ED0E4
S2140032B0A8420CD003F50063984208D003F580635B
S2140032C0984204D0184840F23441FEF74FFB40F6CF
S2140032D0AA63E36041F20502002323606260134A9A
S2140032E0A3606361E364A26423666367A367E3671E
S2140032F00B4B9C4209D0AC4207D003F500639C42BE
S21400330003D003F580639C4201D10023236500238C
S214003310AC42A36502D0064A944200D1E36538BDAC
S2140033200000014000040140462B0100F9FF0100A7
S214003330000C014038B5294B984204460D4610D083
S21400334003F5806398420CD003F58063984208D05A
S21400335003F58063984204D0214840F2EF21FEF73F
S21400336005FB2046FFF79EFFAB7C1BB1236843F0AE
S21400337080432360EB7C1BB12B7D43F08003A36569
S2140033802A8A6B7B1343EA89134363602B7BD5E958
S21400339001122046FFF7CEFE6B7D1BB1236843F477
S2140033A080332360AB7D1BB1236843F40043236066
S2140033B0EB7D2A7E1B07120502F4E00203F0E043D1
S2140033C013432366636F23F030036367626F6B7E7D
S2140033D0134363672B78E36038BD00BF00000140ED
S2140033E0462B010038B52D4B984204460D4610D0AA
S2140033F003F5806398420CD003F58063984208D0AA
S21400340003F58063984204D0254840F25B31FEF70E
S214003410ADFA2046FFF746FFA97B2A8A23680029D3
S21400342042F0010214BF4FF48061002113430B43A6
S2140034302A7D23602368002A14BF4FF00052002222
S21400344013432360AB7C1BB1EB7C43F08003A36586
S2140034502B7B43F480536360D5E901122046FFF7C7
S214003460D9FE6B7B0BB11023E3606B7D1BB1236829
S21400347043F480332360AB7D1BB1236843F40043E1
S2140034802360EB7D2A7E1B07120503F0E04302F45F
S214003490E002134323662B78E36038BD000001404A
S2140034A0462B010003691B06FCD5C069C0B27047F5
S2140034B003695A06FCD5416303699B06FCD5C069BF
S2140034C0C0B2704703695B06FCD5416370470000D5
S2140034D07FB5094B6A4603F1100615461868596809
S2140034E0144603C40833B3422246F7D12846FFF7F2
S2140034F053FB002004B070BD782B010013B50223E7
S2140035000024684600948DF804408DF80530FFF7D7
S2140035100FF9204602B010BD70B5164B86B001AA52
S21400352003F11006154618685968144603C4083394
S214003530B3422246F7D11B8823800F4BD3F8B42022
S21400354012030ED4D3F8B830C3F308030B48ADF813
S2140035500A30FEF725F82846FEF792FF002006B050
S21400356070BD074B1B884FF6FF72934208BF4FF49F
S214003570A673EBE7882B01000081E00F00F04902FC
S2140035800001E00F07B5084B18680190202301A83A
S2140035908DF80430FEF7D0FF6420FEF705FD00200E
S2140035A003B05DF804FB00BF9A2B010010B50C4871
S2140035B00C4C6FF00402A02112F0800FD3B21BBF98
S2140035C003F00F03043BA3181B1802F101020CBF03
S2140035D083F800131976332AEED1002010BD00BF01
S2140035E000ED00E000E100E010B50446FEF7D0FF75
S2140035F0024B1C60FEF7D0FF002010BD70130020A9
S21400360010B5FEF7C5FF034B1C68FEF7C5FF204646
S21400361010BD00BF7013002007B530B9CDE9001209
S214003620FFF7EEFFDDE9001230B1436823B1006812
S21400363003B05DF804EB1847232003B05DF804FBE5
S21400364030B51C4685B058B9CDE90012FFF7D8FF53
S214003650DDE9001204B903AC20B9232005B030BD63
S21400366003B903AC8568002DF7D023460068A84749
S214003670F4E700207047FEE74FF400534B6000204D
S214003680704701207047012070474FF0FF307047A9
S2140036900020704707B5002001AB0190FFF7D0FF70
S2140036A00198002808BF4FF0FF3003B05DF804FB18
S2140036B010B500201446FFF7AFFF18B10248BF212F
S2140036C0FEF754F9204610BD9E2B010080F824100A
S2140036D0704790F82400704770B504460568FFF7F9
S2140036E08FFF844202D10020FFF77EFF95F9283035
S2140036F0002B11DB03F01F015B099B0003F1604305
S21400370003F5614301228A40C3F88021C3F8802074
S214003710BFF34F8FBFF36F8F0023C4E90033C4E9B4
S2140037200433A3602846EB68BDE87040184790F85D
S214003730243070B505460C468E18E3B9A6420AD06A
S21400374095F82630002BF9D02B6814F8011B284674
S21400375098470028F2D070BD95F826305BB12378E4
S2140037600A2B03D12B680D21284698472B6814F89E
S214003770011B28469847A642EED1ECE72DE9F74311
S2140037804FF00009044690461E46C3F800904F1EB0
S2140037903368434505D2FEF702FFA269C2B9FEF7B9
S2140037A004FF94F827305BB9112301220DF10701BD
S2140037B020468DF80730FFF7BAFF012384F827303C
S2140037C03368002B0CBF1B20002003B0BDE8F0833D
S2140037D0E16922698A5C07F8012F2569226A0135AA
S2140037E09542A26908BF4D46013AA2612561FEF7DF
S2140037F0DCFEA36820469847336801333360C7E78A
S21400380008B5FFF794FF002008BD0000F8B51F4676
S214003810536805460C461646002B3ED09368002B90
S2140038203DD02C22002120460DF078FB7368E36122
S214003830B3682362337B84F82430B37B84F8253066
S21400384040F20113E384069B6360079BA360089B1A
S2140038502760E36096F90030124A84F828306A60E0
S214003860114AAA60114A2A61114A6A61002B114A5C
S2140038702C60EA600CDB03F01F015B099B0003F180
S214003880604303F5614301228A40C3F880211A6031
S2140038902846FFF7A9FE0020F8BD2220FCE72120DD
S2140038A0FAE700BF013800007D370000CD36000083
S2140038B0D3360000D936000010B50446FEF76FFE7A
S2140038C0A269236A9A4203D2FEF76FFE012010BD5A
S2140038D0FEF76BFE0020FAE773B504460D46FEF7CA
S2140038E05EFE94F8253006466BB1132D07D10023F3
S2140038F084F8263002B0BDE87040FEF756BE112DA3
S21400390001D10123F4E7A269236A9A4204D314483A
S2140039104FF4B271FEF72AF86369E269D554A269DA
S21400392063690132A261226A01339342636104BF74
S214003930002363613046FEF738FEA269236A9A4286
S2140039400BD1132301220DF1070120468DF8073015
S214003950FFF7EDFE002384F8273002B070BD00BFED
S214003960EC2B0100C26AD36C43F00403D3647047A7
S214003970C26A10B5044613695906FCD500231A46D8
S21400398094F8351094F83400FFF704FB00231A4629
S21400399094F8371094F83600FFF7FCFA94F83C30A9
S2140039A0DA0707D5002394F8391094F838001A4639
S2140039B0FFF7F0FA94F83C309B0707D5002394F8FD
S2140039C03B1094F83A001A46FFF7E4FAE06A002142
S2140039D0FFF746FC206B0021FEF768F8002010BDBC
S2140039E008B5C06AFFF76EFD002008BD2DE9F0415E
S2140039F086B01C46524B0C9D0293524B01930126F7
S214003A0000230093CDE903664F4B90460A462946AD
S214003A10FFF7FCFE0746002856D12368EB62636872
S214003A202B63637A85F83530237A85F83430E37A69
S214003A3085F83730A37A85F83630637B85F83930D9
S214003A40237B85F83830E37B85F83B30A37B85F80D
S214003A503A303E483146FEF729F83D483146FEF7F3
S214003A6025F8617A207A33460422FFF793FA334624
S214003A700222E17AA07AFFF78DFA60683146FEF7F7
S214003A8015F888F8007041462068FFF753FC226856
S214003A90536F43F003035367936F617C23F4F8532B
S214003AA023F01F030B43217C43EA01230321936782
S214003AB0516785F83C7098F81930202B2BD007D822
S214003AC003B3102B09D02327384606B0BDE8F08193
S214003AD0302BF8D185F83C1002E085F83C603E4675
S214003AE000230222617B207BFFF754FA2368A27C26
S214003AF0DA675A6E42F004025A665A6F42F01002B3
S214003B005A675EB92068C36C43F00403C36405219A
S214003B10FFF7A6FBD8E7022385F83C30E17BA07BC5
S214003B2000230422FFF736FA2368E17CDA6F42EAC4
S214003B300122DA675A6F42F020025A67E2E700BFB6
S214003B407139000065390000E13900004041050088
S214003B5000350A00C36A1B691B0610B5044610D55B
S214003B60FFF7AAFE40B1E06AFFF79CFC014620463C
S214003B70BDE81040FFF7B0BEE26AD36C23F0040342
S214003B80D36410BD00230B707047000030B50F4C97
S214003B9041612368ABB92060836011E0891A9A6896
S214003BA041611D462AB113465A698A42F6D955B173
S214003BB01A46A8601346836013B15A69511A5961B0
S214003BC030BD0025F0E72060F5E700BF8C1300202D
S214003BD010B500F055FA0A4C0A4B19682368C31A48
S214003BE001B10BB9206010BD4A699A422EBFD21AA5
S214003BF09B1A00224A6128BF00238968F0E700BFAD
S214003C00781300208C13002038B50F4B0F4D1C681E
S214003C102B685B6902201C4400F060FA204600F026
S214003C2035FA0B492A6800230B70D088800702D526
S214003C3001230B7038BD9268002AFBD050690344FC
S214003C40012BF2D9F6E700BF781300208C13002072
S214003C508013002070B516469DF814200271049A51
S214003C600260C0E903360022BDF818308260C380C7
S214003C7004460D4600F004FA3044A0613DB9E368FE
S214003C80656113B121682046984796B13546FEF720
S214003C9086FC0646FFF79CFF29462046FFF776FF80
S214003CA0054B1B68A34201D1FFF7AEFF3046FEF777
S214003CB07CFC002070BD00BF8C1300200C490B68F4
S214003CC000227BB183420AD183687AB1936083680D
S214003CD01BB15A6941690A445A61002070471A4666
S214003CE09B68EEE70028EFD0022070470B60EEE7F7
S214003CF08C13002070B5154EFEF751FC347805463F
S214003D00FCB9134B1C60134B1C60134B1C8000F05B
S214003D1071F9012000F0E2F900F01EFA0F4B02469E
S214003D20186020B92846FEF740FC232070BD2346C5
S214003D300B4840F2E7310CF001FC0A4B18600123F7
S214003D4033702846FEF731FC0020EFE7741300209E
S214003D508C13002078130020821300208813002084
S214003D6018FCFFFF7C13002038B50C46054698B1BA
S214003D7091B100230B70FEF712FC084B1B68012163
S214003D800BB122781AB1FEF710FC002038BDAB420A
S214003D9014BF9B682170F3E72220F7E78C130020FE
S214003DA0F0B587B01F4600230D4616468DF817302F
S214003DB00446A0B10DF11701FFF7D6FF9DF81720B6
S214003DC07AB9BDF8343002939DF830302946CDE9F3
S214003DD0007320463346FFF73DFF07B0F0BD2220B4
S214003DE0FBE70320F9E7F0B587B01F4600230D4632
S214003DF016468DF817300446A8B10DF11701FFF7E7
S214003E00B3FF9DF8173083B9BDF8343002939DF8A0
S214003E1030302A46CDE90073294633462046FFF760
S214003E2019FF07B0F0BD2220FBE70220F9E70000EB
S214003E30044B1B68584300F2E7304FF47A73B0FB2C
S214003E40F3F070478813002000B58BB001238DF87F
S214003E500B30FFF7EDFF0023CDE900330146074A9C
S214003E600DF10B0303A8FFF79BFF18B99DF80B3065
S214003E70002BFBD10BB05DF804FB00BF853B0000B8
S214003E800C4B1B68834270B50D4611D30A4B40F2AB
S214003E90E7311E6800248C462146E0FB06C14FF43D
S214003EA07A72002360460CF049FB2860204670BDFD
S214003EB02120FCE77C13002088130020C2072DE990
S214003EC0F84F04460BD5464A138801339BB213803D
S214003ED0FFF77EFE434B1B680BB1FFF795FEA3076B
S214003EE07CD5FEF75CFB0546FFF772FE4FF0000A36
S214003EF03C4FDFF8F8905646D0463C680CB16369F4
S214003F008BB1394B0022012E1A7003D1BAF1020F81
S214003F1008BF1E70002C51D0FFF776FE2846BDE87D
S214003F20F84FFEF742BB23461A792179914288BFA3
S214003F301C469B6813B15A69002AF5D02846FEF73E
S214003F4034FBD4F810A0BAF1000F3BD000F098F87C
S214003F50A269851AEB17AA4578EB030333DA2369BF
S214003F601344A36101222369D3B1CAB9EB17BAEB94
S214003F70050563EB4303002B04DA40F20241484692
S214003F80FDF7F4FCFEF70BFB294682462046FFF7BA
S214003F90FDFDA36922691344A3615046FEF705FBA5
S214003FA0E368B4F806A0013613B1216820469847A6
S214003FB0FEF7F5FA0546FFF70BFE9EE7022000F037
S214003FC09BF8ABE75546FEF7EAFA83462046FFF72E
S214003FD075FE5846FEF7E9FA0022C4E7BDE8F88FFA
S214003FE0821300208C13002084130020302C010044
S214003FF00020704710B51E4B86B01868596803AA93
S21400400003C2197AD3F8090011700024B3F80D2002
S2140040100190DB7B1748ADF8082001218DF80A30A7
S214004020FDF744FD8DF80C40FFF7E2FF8DF8100019
S21400403003A8FFF74BF801A901208DF80440FFF70D
S21400404013F80D4A536A23F4FF6323F00703536201
S21400405040F2FF73136201209460FFF731F8074BBC
S2140040604FF08042C3F880211A6006B010BD00BF32
S214004070732C0100A00914000020044000E100E0B9
S214004080014B9868704700BF00200440114A9368AF
S214004090516D9269520704D4CA1A032A01D88B427A
S2140040A00DD1C21A022A98BFD81C0A4BB0F1FF3FA6
S2140040B038BF013858655A6A42F004025A62064A06
S2140040C0137833B103490B6D43F002030B650023ED
S2140040D013707047002004401E1000208207054A17
S2140040E000F00103516A48BF43F004030B435362D8
S2140040F0704700BF00200440820700F0010309D586
S214004100074A0121117007490A6D22F0030243F0A5
S21400411004030A6503494A6A22EA03034B627047AE
S2140041201E1000200020044010B5FEF738FA094A99
S21400413093690446590703F0010003F0070348BFDC
S21400414040F002001362FFF7B9FE2046BDE81040BB
S214004150FEF72BBA0020044008B50448FDF734FEED
S2140041600346FFF745FF23FA00F008BDA009140038
S21400417008B50AF0B9FC0AF005FD0AF00AFD0AF0D7
S21400418011FDBDE808400AF00EBD08B50AF00DFDA9
S2140041900AF00CFD0AF00BFDBDE808400AF008BD69
S2140041A010B50446FDF7E4F94FF47A729042B0FB7E
S2140041B0F2F105D23621BDE810400B48FDF7D6BB1C
S2140041C00A4BB3FBF1F30A49884201D93C21F2E7D6
S2140041D002FB04F0B0FBF3F0032804D9BDE810405E
S2140041E0800800F00DB810BD832C010040420F007F
S2140041F0E7CD9A3B00000000000000000000000031
S214004200013800D0FCE770472DE9F043DDE90B8468
S214004210A568AC07DDE9097E03D1BDE8F04300F0F0
S2140042203EB86FF00200BDE8F0838B68C068584364
S2140042304B6858438000704730B5D86884078BB009
S21400424028D10C6934BB4C6924BB8D68012D21D163
S214004250CD68012D1ED14D6A08950D6A07954D68EB
S21400426006950968CDE904011399C9680391D3E955
S21400427001011B6841435943029153680193136837
S2140042800093129A149B10990E9801F07BFD20461D
S2140042900BB030BD6FF00200FAE7002070472DE942
S2140042A0F04F2DED028BB1B09446419C3D9EE768E1
S2140042B0D0F800A01868DD682690BAB208EE102A7A
S2140042C00A691E924A691F928A682092CA682192D9
S2140042D00A6827924A6813920A6A14924A6A1592E2
S2140042E0DCF800201692DCF804201792A288D6E9A3
S2140042F0016018921A899B8812930A921346129AA2
S2140043001FFA85FB53430BFB03F32893238919936A
S214004310BBB21B93DDE91823534318EE102A534310
S2140043202393B3B21A9383B21193119A1A9B10FB7C
S21400433006F05A4310FB05F502FB0BF3A9B22591D4
S2140043400AEB830122914FEA4B010891C3F38F03D6
S21400435005F003011D9101EB83011C913E9901EBD1
S21400436083010AEBC3032D930A9B2A910BFB03F3ED
S2140043702993089B53432B93119A089B53432C93E2
S21400438000230B930B9B269A9342C0F28580002055
S21400439031B0BDEC028BBDE8F08FBDF88030BDF8C3
S2140043A078200F9ECDF8308009FB03F39B1A1093FC
S2140043B0109A249B9C183C9B0BFB04330E931A9B71
S2140043C033442F932F9BB3425EDC2B9B9844229B57
S2140043D0434518D10D9B0693409B0593259B04935C
S2140043E0BDF954300393BDF950300293139B0193EB
S2140043F0169B009318EE102A179B3E98514601F024
S21400440053FAD0460D9009F10109199B9945C4DB72
S214004410099B01330993099B189A934246DA099A35
S214004420BDF884305343BDF87C209B1A0F930F9A37
S2140044300A9B534324934FF00009E6E7129BB342CE
S21400444004D9002D02DB0A9B9D4215DB089A002149
S21400445038460CF063FD089B01351F445C442E9BD8
S214004460AB42EBDC0C9B2C9A13440C93299A0E9BC4
S214004470134401360E93A5E718EE903A5A4639468D
S214004480204602F04FF9E6E7109D119A0E9C0C9F0D
S2140044902B4613442E93E2E7429B0D930023099389
S2140044A0BDF99C30D04608EE903AB4E7D04571D1BD
S2140044B03C9B289A13443C93239A429B1344429372
S2140044C00B9B01335DE7409A002A42D052F8232026
S2140044D055463746B84201463DD11D9D2D9C0544A4
S2140044E0A94250D11C990E44179951F8235025EA39
S2140044F0E5718A40169951F82310002D4FF080443C
S2140045004F46C2FB0147D4BF6D420025E40F0EFAAA
S21400451005F244EA4707013A07EA02012F414FEA4B
S214004520620248BF01329142139AC8BF013717444E
S214004530149A9742B8BF1746159A9742A8BF1746CF
S2140045400D9AD7541C9A013310441B9A9342BAD141
S214004550AEE7409ABCE757F8044B2FFA94F12FFACF
S21400456084F41FFA84FCD5F800804CEA014C2CFB3E
S2140045700822090C0904D5F804C041EA144108359C
S21400458021FB0C22A6E711F9017B34F802CB1CFBB9
S2140045900722A5E700232A983E9E99464FF0010E73
S2140045A0D3E78B68C06858434B6858438000704711
S2140045B02DE9F74F0C9E0096DDE90D6701970F6910
S2140045C0DDE90FBADDE911C986460C4690461D4660
S2140045D0AFB94F699FB9DF68BF0710D18F68012F49
S2140045E00DD1CF68012F0AD1B768012F07D17768A0
S2140045F0012F04D103B0BDE8F04FFFF71DBEDCF875
S2140046000430012B1ED16B68012B1BD17368012B64
S21400461018D1DCF808309B0714D12B68012B11D178
S214004620019BCDE90D63009B0C9342462B46214629
S2140046307046CDE911C9CDE90FBA03B0BDE8F04F19
S214004640FFF7E2BD019BCDE90D63009B0C9342464C
S2140046502B4621467046CDE911C9CDE90FBA03B005
S214004660BDE8F04FFFF71BBE10B4044608461146DF
S2140046702269A2B9626992B9C26892070FD1A2688C
S214004680012A0CD1E268012A09D18A68012A06D1DA
S2140046904A68012A03D15DF8044BFFF7FEBD5A684D
S2140046A0012A0FD14268012A0CD14A68012A09D191
S2140046B09B689B0706D10368012B03D15DF8044B6A
S2140046C0FFF7B3BD5DF8044BFFF76BBF2DE9F04F66
S2140046D0A9B0CF68379E0C970F691697576812686F
S2140046E01C92B268219272684C6922924A68986855
S2140046F00B941B978C694F6A05920A68896A1A9010
S21400470007915868F168DB68339D06978B4240F046
S2140047106E820B99012900F36D82A968032940F087
S21400472069826968032940F06582614209911A9995
S2140047300E94594312915900089103EB43011791C7
S214004740011918910B9949421D910C9959432491CE
S2140047501D99002B01FB03F1239123F00301B8BF41
S214004760002111911198591A8342B8BF0021259152
S21400477000210A911391D91E2791139922988142FC
S21400478003DB002029B0BDE8F08F0999129C0029B0
S2140047900E99C8BF00210D910D98099901442398E0
S2140047A004FB010110910B981A99179C199001446B
S2140047B00F911D99149100210D981591349904FBC1
S2140047C000111F9118990329A8BF0321209115995C
S2140047D0219881420DDB1698099901440991139995
S2140047E0013113910E99091A0E911899091A189108
S2140047F0C3E714990A9800291999C8BF00211E9189
S214004800389901440391DDE91B160291369901910E
S2140048100021109804913299014426912799049812
S214004820814224DC11980A99109C01448C463899E0
S21400483001EB0C0E0146329800EB04089942C0F2D8
S214004840798125990C9861440A9114990144149130
S2140048501599013115911999091A199124981099E9
S214004860014410910C980F99091A0F91AFE701991E
S214004870269FDDF83490D1E90054D1E90201009179
S2140048803946049F01EB070E1F9F3946049F01EB34
S21400489007082099494500F3DF800299D1F800C047
S2140048A02CEAEC77BD4037684FF0804E4FF000089A
S2140048B0C5FB07E84FEADE77BCF1000F47EA480879
S2140048C04FF00101D4BFCCF10007002701FA07F52D
S2140048D0013D58FA07F708EA050E45FA01F548BF04
S2140048E06D180299AE45D1F804E02EEAEE7504FA8A
S2140048F005F475684FF080484FF00009C4FB058941
S2140049004FEAD87CC8BF0137BEF1000F4CEA490910
S2140049104FF00101D4BFCEF1000C4FF0000C01FAAD
S2140049200CF4013C59FA0CFC09EA040544FA01F4BB
S21400493048BF64180299A5428D6825EAE57400FA16
S21400494004F0B468C8BF0CF1010C4FF0804E002D87
S2140049504FF00008C0FB04E84FF00101D4BF6D42E1
S214004960002501FA05F04FEADE7E4EEA48080138D7
S21400497058FA05F508EA000440FA01F048BF401866
S21400498002998442CC68009924EAE47001FA00F1A6
S214004990F0684FF0804E4FF00008C1FB00E8C8BF3B
S2140049A00135002C70464FF00101D4BFC4F1000E53
S2140049B04FF0000EC00F01FA0EF140EA4808013928
S2140049C008EA010458FA0EF84FEA610148BF0131BF
S2140049D08C4205990F440699C8BF08F101088F421A
S2140049E0B8BF0F4605998C4406998C45B8BF8C46CF
S2140049F005990D4406998D42B8BF0D460599884421
S214004A0006998845B8BF884607998F42A8BF0F46C3
S214004A1003990F7007998C45A8BF8C46039981F8B7
S214004A2001C007998D42A8BF0D4603998D7007995E
S214004A308845A8BF8846039981F803800499043105
S214004A40049103990431039102991031029101995E
S214004A50103110360191E1E61E9FFFB9DEF80070B6
S214004A60D8F800C0009942FA87FA4FFA8CFB0BFB85
S214004A700A5547F3072A4CF3072B92440BFB0A44CC
S214004A8047F3074A4CF3074B02EB27674FEA2C6CB9
S214004A9092440CFB07110BFB0A0000915EF80370B2
S214004AA058F803C0009942FA87FA4FFA8CFB0BFBC2
S214004AB00A5547F3072A4CF3072B92440BFB0A448C
S214004AC047F3074A4CF3074B02EB27674FEA2C6C79
S214004AD00CFB07110F9F00919244022F0BFB0A005C
S214004AE021DD0899089F51F808C057F80E70009904
S214004AF042FA87FA4FFA8CFB0BFB0A5547F3072A54
S214004B004CF3072B92440BFB0A4447F3074A4CF33B
S214004B10074B02EB27674FEA2C6C92440CFB0711FD
S214004B200BFB0A00009112998E44179909F10109AE
S214004B308844AEE636981F9D50F821000D9E08EB7F
S214004B4001040D44209FB74230DC1B9C54F82160C2
S214004B5026EAE674A0401C9C54F82140002E4FF034
S214004B6080454FF00007C0FB0457D4BF76420026AE
S214004B700120ED0FB04045EA4707013807EA000478
S214004B8037414FEA600048BF013084420598C8BFED
S214004B900137074406988742B8BF074607988742FA
S214004BA0A8BF07460EF8017B013147E61E9F37B9BE
S214004BB094F9007095F90090174409FB0700E75632
S214004BC015F90390174409FB07000F9F022F08DD15
S214004BD0089FE75707EB020A089F15F9079009FB9D
S214004BE00A00129F3C44179F01363D44AAE76FF027
S214004BF00200C7E54FF0FF30C4E52DE9F04FB3B033
S214004C008868009018683D9D019098681C905868C8
S214004C10DB680293AB681D936B68CD68419C039577
S214004C200D690D95556812682392A26824926268F1
S214004C30219325924B694A680C9322958B690492BE
S214004C400A6826924A6A05928A6A0692009A12F0C2
S214004C50030240F0CA810199012940F0C681E1684B
S214004C60079108935942C31810930C9B079C09910F
S214004C701D990B925B4261431F93029C039B1E91FE
S214004C8063431C9927931F9B1692614363432091AD
S214004C9028930099009B033103F1030323F00303D9
S214004CA0B8BF00232D93169B259A934203DB002062
S214004CB033B0BDE8F08F099B0C9A002B089BC8BF49
S214004CC0002319931C9B13441B93199A099B1344A6
S214004CD0209A53432993199A1E9B53432A93289B41
S214004CE00F930C9B1A931F9B11930023219A1593E5
S214004CF0109B9342A8BF13463193159B249A934268
S214004D000DDB0D9A099B13440993169B01331693EA
S214004D10089B9B1A0893109B9B1A1093C3E7119B42
S214004D20299A002B1A9BC8BF00230E930F9B0E993F
S214004D3013441793079A2A9B01FB02332B930A46C8
S214004D403C9B029901FB02331B9A1D992C938A42C5
S214004D50A8BF0A4600233092079A9A4240F333814E
S214004D60429A0B9902EB010A2299239A01EB8309D6
S214004D70409901EB83082B9919442E91002102EBF0
S214004D8083020A91DCE0D8F808101391D8F80C10CA
S214004D900A9814913E99DDF85CC0DDF8B8E0199FDA
S214004DA0D8E9006501442F9131998F42C0F2D7802F
S214004DB0D9F80000139C20EAE0718E4011684FF08D
S214004DC080474FF0000CC6FB017CFE0F00280199BF
S214004DD046EA4C0CD4BF46420026B1400139D9F809
S214004DE004005CFA06F60CEA01074FEA610148BFC8
S214004DF001318F4220EAE07105FA01F551684FF063
S214004E0080474FF0000CC5FB017C4FEAD775C8BF42
S214004E1001360199002845EA4C0CD4BF45420025CE
S214004E20A9400139D9F808005CFA05F50CEA010733
S214004E304FEA610148BF01318F4220EAE07104FA6F
S214004E4001F491684FF080474FF0000CC4FB017CE2
S214004E504FEAD774C8BF01350199002844EA4C0CC4
S214004E60D4BF44420024A14001395CFA04F40CEAA1
S214004E7001074FEA610148BF01318F42D9F80C7033
S214004E801499D06827EAE77C01FA0CFC4FF0000E74
S214004E904FF08041CCFB001E4FEAD17141EA4E0E26
S214004EA0C8BF01340199002FD4BF7F42002701FA02
S214004EB007F0013804990EEA000C5EFA07FE4FEA86
S214004EC060000E4448BF013005998445C8BF0EF106
S214004ED0010E8E42B8BF0E4606998E42A8BF0E46F9
S214004EE004998AF800600D4405998D42B8BF0D46B6
S214004EF006998D42A8BF0D4604998AF801500C44C5
S214004F0005998C42B8BF0C4606998C42A8BF0C4641
S214004F1004998AF802408E4405998E45B8BF8E469D
S214004F2006998E45A8BF8E460A998AF803E0043192
S214004F300A910AF1040A103209F1100908F1100862
S214004F4000990A9881423FF71EAF0B9A2D990A44A2
S214004F500B92009A1344179A01321792FCE62C998A
S214004F600E981290614418912F9971441298309CB3
S214004F70A04205DB1E998E44209901378C4413E726
S214004F801898269C90F9000091F900B0204400FB88
S214004F900B6691F901B0139C00FB0B5591F902B01A
S214004FA000FB0B44139491F903B0149C00FB0B40D8
S214004FB014901298029C0130129018982044189071
S214004FC007980144D2E7039A119B13441193159B4B
S214004FD0013315931A9B9B1A1A931B9B9B1A1B93C0
S214004FE0279A0F9B13440F9387E6BDF80C20BDF855
S214004FF070801692BDF83420BDF808A0179282B2D1
S214005000129208FB02F20AFB02F21892BDF8002088
S2140050100D920AFB02F5BDF8902013925B426A439C
S2140050209BB21492BDF8942025930C9B1499119270
S2140050305B424A434FF0000E9BB21992CDF82CE02B
S2140050402793BDF8043073457FF731AE259B109348
S2140050500B9B0A93BDF8843024934FF0000B2FE08F
S214005060BDF94030002BC3F10002C8BF00220792F2
S214005070279A0F92BDF874200C92079A0C991A443E
S21400508008FB02F21A92079A4A431B920A9A09925E
S21400509000220292129AD31A249A9342A8BF134669
S2140050A02093029B139A934218DB0A9B149A13448C
S2140050B00A93179A109B13449BB20BF1010B1093A3
S2140050C0119B9B45CCDB0B9B199A13440B93189AA8
S2140050D03C9B13443C930EF1010EB2E7BDF93C2015
S2140050E00C9E099B0893A8EB0201002AC2F100005F
S2140050F0C8BF0020B1424FF00003A8BF31460244AB
S2140051001C461E911F9254457AD0429A08990A442A
S21400511015920D9A1A441C923EE0409ADDF868C03B
S21400512052F82360079F1B9A0E92209ABA423CDCE4
S214005130229A52F8237027EAE7729640239A52F88A
S2140051402320002F4FF080414FF0000CC6FB021CBE
S214005150D4BF7F4200270122C90FBA4041EA4C0C57
S214005160013A0CEA02065CFA07FC4FEA620248BF04
S21400517001329642049AC8BF0CF1010C9444059A79
S2140051809445B8BF9446069A9445A8BF9446159A87
S21400519002F801CB013315921C9A9342BDD1089AAE
S2140051A00D990A4408920134ADE71F9A3C99039082
S2140051B062440AFB02420A4400920E9A11183E9A72
S2140051C005FB013111441E9A9146039A914506DC6F
S2140051D00E9A0C990A440137C4440E92A5E7009A29
S2140051E092F90090269A914491F9002002FB0966F4
S2140051F0039A01320392009A524400922944E2E74D
S214005200099B169A2B440993029B013302930F9B2A
S21400521013449BB20F9344E72DE9F04F2DED048B1A
S214005220B9B0D3F80CA04B9D479EEC68A24540F061
S214005230E0829F685B682993B368049373680E9353
S2140052404B692A938B692B93CB682C930B692D9310
S2140052505368179313681893AB6819936B682E936B
S2140052604B6805930B682F934B6A06938B6A1197CE
S214005270079303680893049B0E990E9803FB0AF3A2
S214005280BAF1000F14935346B8BF0AF10303C3F3F1
S2140052908F021B92049A12FB01F291B202F00102F5
S2140052A033924FEA4A023191009204990432C3F3D2
S2140052B08F0323924FEA8A02159241439A0001EB2C
S2140052C0D171259204F00302199CC1F34F0032906D
S2140052D024EAE47402EB830060432490119800FBF8
S2140052E00AF036904A9800EB03102290179800EBCD
S2140052F003103590189800EB031334931B9B9B0008
S2140053009BB21E9393B230931E9B1A4493B2159A87
S2140053102893C1F34F035A431D92009A53431C939C
S214005320049B23EAE3730AFB03F3269300230B9301
S2140053300B9B2E9A934205DB002039B0BDEC048B04
S214005340BDE8F08F2D9A0B9B0E9913FB02F32B9A58
S2140053509B1A1BB2002BC3F10002C8BF00220392A7
S214005360299AD21A8A42A8BF0A461A921499039A10
S2140053701A984A43510008EE101A0E99091A169107
S214005380169814994143490008EE901A039900298B
S21400539008BF00222792119A0B44534337934C9B25
S2140053A00F9300230C930C9B199A934206DB4C9B9D
S2140053B0249A13444C930B9B0133B8E70C9B2C9A0E
S2140053C013FB02F42A9BE41A039B24B22BB118EEBB
S2140053D0102A089800210BF0A1FD379BDDF80C90F1
S2140053E0279F1D19469B0AFB0535BDF9BC3009EE03
S2140053F0103A1A9B994534DB169B3BB1089B18EE76
S214005400902A002103EB47000BF088FD4A9B03F12E
S2140054101007189B03F11006179B03F1100E0F9B45
S21400542003F1040C1B9B099300230A93099B002B92
S2140054303DD1259A0F9BDDF824B01344DDE934EC0A
S2140054401D461F461E9A229B01934FF00108289B7B
S2140054509A4240F08581309BEB180F930C9B0133EA
S214005460A0E7089BAB4603EB47080026049B9E423A
S21400547006DB269B1F44369B09F101091D44B8E74D
S214005480331902D4119A9A4209DC009A0021404648
S2140054900BF044FD009B01369844D344E6E719EE32
S2140054A0103A52464146584601F03CF9F2E757E9B1
S2140054B00453019357F8083C0A9A0293089B57F83E
S2140054C004BC03EB42031293489B129913441393B4
S2140054D0134604339BB20A93139B0D93329B10938F
S2140054E0109B002B40F0E9801D9A129B1C991344D8
S2140054F0139A0A443399D1B11C9813991D9C0956E6
S2140055001298005B019C10FB0155588892F9011017
S21400551010FB01410191988892F90210029C92F9C1
S2140055200320DB8810FB0141029113FB02BB5EF8EF
S214005530101C21EAE1739D4056F8103C00294FF0FC
S21400554080424FF00000C5FB0320D4BF4942002133
S2140055500123D20F8B4042EA4000013B00EA0304DD
S21400556008414FEA630348BF01339C42059BC8BF0E
S21400557001301844069B9842B8BF1846079B9842CD
S214005580A8BF18460CF8040C5EF80C1C019B21EA18
S214005590E1708340184656F80C3C00294FF08042D4
S2140055A04FF00004C0FB0324D4BF4942002101236E
S2140055B0D20F8B4042EA4404013B04EA03000C414C
S2140055C04FEA630348BF01339842059BC8BF0134C6
S2140055D01C44069B9C42B8BF1C46079B9C42A8BF27
S2140055E01C460CF8034C5EF8081C029B21EAE1708E
S2140055F08340184656F8083C00294FF080424FF08A
S2140056000004C0FB0324D4BF494200210123D20F6B
S2140056108B4042EA4404013B04EA03000C414FEA93
S214005620630348BF01339842059BC8BF01341C443E
S214005630069B9C42B8BF1C46079B9C42A8BF1C46C4
S2140056400CF8024C5EF8041C56F8043C21EAE170A3
S2140056500BFA00F000294FF080424FF00004C0FB28
S2140056600324D4BF494200210123D20F8B4042EAD3
S2140056704404013B04EA03000C414FEA630348BFBD
S21400568001339842059BC8BF01341C44069B9C42CC
S214005690B8BF1C46079B9C42A8BF1C46099B0CF83B
S2140056A0014C03F1FF3B1FFA8BF3099310371036BA
S2140056B00EF1100E0CF1040CB8E608680D9B1F9056
S2140056C000981A68445853F80A302FFA82F04FEAC6
S2140056D032222FFA82F220922FFA83F221924FEA98
S2140056E033232FFA83F31F9ABDF884901FFA84F8A9
S2140056F048EA024849EA004928FB0955240C2404D4
S21400570044EA1248BDF88040019A44EA034428FB64
S21400571004220192239AD1F804905458219A000C3E
S2140057201FFA84F8000440EA124048EA0948029A40
S21400573028FB00220292240C209A1B0C24041B0433
S21400574044EA194443EA124324FB03BB0D9B009A28
S21400575013440D93159B1944109B013B9BB2BEE668
S21400576013464898019AC41852F8041B08980192E8
S2140057705A1C92B200EB43030020319E86422EDC78
S2140057805CF8040B5EF8044B20EAE07399400028AE
S2140057904FF08043D946C1FB0439D4BF40420020B5
S2140057A0DB0F08FA00F143EA4909013909EA010466
S2140057B059FA00F94FEA610148BF0131059B8C4256
S2140057C0C8BF09F101099944069B9945B8BF994697
S2140057D0079B9945A8BF994607F8019B37E61E88A0
S2140057E094F9009016FB0911009E0130544433448E
S2140057F0C3E76FF00200A0E58B68C06858434B68AB
S2140058005843400070472DE9F74F0E9D01958D686F
S2140058100093012DDDE90C76DDE90FBADDE911987C
S21400582084460C46964621D11D68012D1ED1B568CA
S214005830032D0AD17568032D07D18D69012D04DC6F
S21400584003B0BDE8F04FFEF741BF019B0C97CDE9D2
S2140058500D63009B724621466046CDE91198CDE95E
S2140058600FBA03B0BDE8F04FFFF7D6BC019B0C970C
S214005870CDE90D63009B724621466046CDE911983E
S214005880CDE90FBA03B0BDE8F04FFFF7B6B908464A
S214005890DB681146C2689A4204D10368012B01D125
S2140058A0FFF7AABF002070472DE9F04F97B08B4650
S2140058B00593BDF988300693BDF98C300793BDF883
