S02B00006275696C642F72656C656173652F74666C6974655F6D6963726F5F6D616769635F77616E642E733347
S21400000000100020ED140000E9140000E9140000C0
S214000010E9140000E9140000E9140000E9140000E7
S214000020E9140000E9140000E9140000E9140000D7
S214000030E9140000E9140000E9140000E9140000C7
S214000040E9140000E9140000E9140000E9140000B7
S214000050E9140000E9140000E9140000E9140000A7
S214000060E9140000E91400007D190000E9140000FE
S21400007089FA000095FA0000E9140000E91400006F
S214000080E9140000E914000099190000E9140000C2
S214000090E9140000E9140000E9140000E914000067
S2140000A0E9140000E9140000E9140000E914000057
S2140000B0E9140000E9140000B9410000E91400004A
S2140000C0E9140000E9140000E9140000E914000037
S2140000D0E9140000E9140000E9140000E914000027
S2140000E0E9140000E9140000E9140000E914000017
S2140000F0E9140000E9140000E9140000E914000007
S214000100E9140000E9140000E914000010B5054CDD
S214000110237833B9044B13B10448AFF300800123AE
S214000120237010BDA0100020000000003C950100C8
S21400013008B5034B1BB103490348AFF3008008BD65
S21400014000000000A41000203C950100A3F5803AB2
S214000150704700BF174B002B08BF134B9D46FFF799
S214000160F5FF00218B460F461348144A121A10F06A
S2140001705DFF0E4B002B00D098470D4B002B00D098
S21400018098470020002104000D000D48002802D0EA
S2140001900C48AFF3008010F017FF200029000FF086
S2140001A0EFFF10F0EBFE00BF0000080000000000AC
S2140001B00000000000100020A01000206C38002076
S2140001C000000000000000000F207047082808B557
S2140001D01BD010DC022806DC002806DD01230422E2
S2140001E00921052015E00428F8D010489F2101F0C9
S2140001F069F90E2010E020280FD0402811D01028D2
S214000200F3D1012304220E21EBE7012304220A2165
S214000210184602F0EDFE002008BD01230422082146
S214000220DFE7012304220A21DBE700BF802C010060
S21400023008B50648012101F05FFC0FF06BFB20209B
S214000240FFF7C4FFBDE8084001F0BEB800350A005D
S2140002500148012101F050BC00350A00014B08227C
S214000260DA66704700A00046014B0822DA6670473F
S21400027000A000440020704730B5284D0FCD89B04F
S21400028001AC0FC495E8070084E807000124244B5E
S2140002902448039321468DF8124001F02DFC214698
S2140002A0214801F029FC2146204801F025FC0023C6
S2140002B019460422022002F09BFE22462146002315
S2140002C0022002F095FE022108460023042202F0D6
S2140002D08FFE2346164C04220321022002F088FEDD
S2140002E0204603F00DF8204601A903F0A9F80B23D9
S2140002F06367A36F23F01F2323F01F03A367A36F77
S21400030043F49053A367A36F43F01203A367A36F4E
S214000310002043F09053A36709B030BDE42C0100E1
S214000320A05A3200404105000072040000350A0061
S214000330000C014038B50C4D04467F212846FFF7D7
S21400034093FF03F0EDF8284603F0DAF8210128467B
S21400035001F0F00103F0E4F8284603F0D1F8BDE818
S2140003603840FFF77BBF00BF000C014070B5054664
S21400037065F07F05C0F3C71014460E46FFF7DAFF98
S214000380E9B20D480C4DFFF76FFF03F0C9F80A48B5
S21400039003F0B6F82644B44203D1BDE87040FFF738
S2140003A05DBF0021284603F0BBF8284603F0A8F8F6
S2140003B004F8010BEFE700BF000C014013B504463C
S2140003C00DF1070201214FF48A70FFF7CFFF9DF869
S2140003D0073003F00603062B08D8DFE803F004070F
S2140003E00A070D0710004FF062532360002002B08A
S2140003F010BD4FF06453F8E74FF06653F5E74FF043
S2140004006853F2E71FB5044601A8FFF7D7FF02AA14
S21400041006212D20FFF7AAFFBDF80830DDED016AA2
S214000420DBBA07EE103AB8EEC77ABDF80A3027EE08
S214000430267ADBBA84ED007A07EE103ABDF80C3067
S214000440DBBA07EE903AB8EEC77AF8EEE77A27EE10
S214000450267A67EEA67A002084ED017AC4ED027A49
S21400046004B010BD13B504460DF10702012140F299
S2140004700110FFF77BFF9DF8073003F00603062BFD
S21400048007D8DFE803F0040609060B060D00054B47
S2140004902360002002B010BD034BF9E7034BF7E7DB
S2140004A0034BF5E70000FA3B00007A3C0000FA3CFC
S2140004B000007A3D1FB5044601A8FFF7D3FF02AA45
S2140004C006213320FFF752FFBDF80830DDED016A44
S2140004D0DBBA07EE103AB8EEC77ABDF80A3027EE58
S2140004E0267ADBBA84ED007A07EE103ABDF80C30B7
S2140004F0DBBA07EE903AB8EEC77AF8EEE77A27EE60
S214000500267A67EEA67A002084ED017AC4ED027A98
S21400051004B010BD13B5044601AA04211920FFF744
S21400052025FF019B2360002002B010BD07B5012106
S2140005300DF107021A20FFF719FF9DF8070000F0DB
S214000540010003B05DF804FB08B502460121002057
S214000550FFF70CFF002008BD70B50E4C0546C0F333
S214000560C7100E46FFF7E6FE05F07F012046FFF7B0
S2140005707BFE02F0D5FF204602F0C2FF3146204641
S21400058002F0CEFF204602F0BBFFBDE87040FFF74A
S21400059065BE00BF000C014008B580210620FFF7AD
S2140005A0DBFF642003F08AFC002008BD07B5FFF7D8
S2140005B063FEFFF7F1FF10210320FFF7CDFF0DF1DB
S2140005C0070201210020FFF7D1FE9DF80730E02B3F
S2140005D001D0EA2B0ED101210620FFF7BDFF1E2019
S2140005E003F06CFC0F20C021FFF7B6FF002003B01D
S2140005F05DF804FB1020FAE713B504460DF1070278
S21400060001214FF48A70FFF7B1FE9DF8071004F041
S214000610060421F0060121434FF48A708DF8071076
S214000620FFF79AFF002002B010BD13B504460DF187
S2140006300702012140F20110FFF798FE9DF807100F
S21400064004F0060421F00601214340F201108DF863
S2140006500710FFF781FF002002B010BD0000000069
S21400066013B50FF00FFF02460B461BA1D1E90001A0
S21400067010F08AF81A4B00220FF0A4FD10F01CFAB6
S2140006809FED187A07EE900AF4EEC77AF1EE10FAAC
S2140006901FDCF5EEC07AF1EE10FA01D5DFED127A26
S2140006A0FCEEE77A4FF48070CDED017A9DF80440B9
S2140006B02146FFF751FF601C0FF0D2FE02460B46A4
S2140006C005A1D1E9000110F05FF810F0F5F902B0CD
S2140006D010BDF0EE477AE3E700000000009491407A
S2140006E00000F03F00007F43000000000000000014
S2140006F010B50FF0C7FE02460B461DA1D1E900015A
S21400070010F042F81C4B00220FF05CFD10F0D4F9FC
S2140007109FED1A7A07EE900AF4EEC77AF1EE10FA19
S21400072023DCF5EEC07AF1EE10FA01D5DFED147A8F
S214000730FCEEE77A4FF4887017EE901A8CB2C1F38D
S2140007400721FFF709FFE1B240F21110FFF704FF9F
S214000750601C0FF085FE02460B4605A1D1E900019C
S21400076010F012F810F0A8F910BDF0EE477ADFE7A7
S21400077000000000009491400000F03F00F07F452C
S2140007800000000010B50446FFF76AFF2046FFF79A
S214000790AFFF002010BD13B504460DF1070201217E
S2140007A040F20110FFF7E2FD9DF8071004F039044F
S2140007B021F03901214340F201108DF80710FFF7B0
S2140007C0CBFE002002B010BD13B504460DF10702A3
S2140007D001214FF48A70FFF7C9FD9DF8071004F059
S2140007E0390421F0390121434FF48A708DF807103F
S2140007F0FFF7B2FE002002B010BD13B5012104467B
S2140008000DF107020620FFF7B1FD9DF807104CB169
S21400081041F0400106208DF80710FFF79DFE0020EE
S21400082002B010BD01F0BF01F4E708B5002814BF00
S214000830302100210520FFF78FFE002008BD73B58C
S21400084004460E46154601210DF107020620FFF765
S2140008508DFD002C14BF002438240EB944F0070484
S2140008609DF807106DB101F0F70106208DF807100E
S214000870FFF772FE21460720FFF76EFE002002B04B
S21400088070BD41F00801F0E773B505460E46144604
S21400089001210DF107020620FFF768FD0DB906B924
S2140008A0F4B10020FFF7A9FF0020FFF7BEFF2246A5
S2140008B031462846FFF7C3FF322003F0FFFA012037
S2140008C0FFF7B3FF9DF8073043F020038DF807309D
S2140008D09DF807100620FFF73FFE002002B070BD0F
S2140008E02046FFF7A2FF9DF8073023F02003EDE730
S2140008F010B5002914BF0821002104461020FFF778
S2140009002BFE21461120FFF727FE002010BD000019
S2140009102DE9F043012185B0002280460846FFF706
S2140009208EFF7F48FFF72EFF2920FFF734FF0020B9
S214000930FFF77BFE6846FFF795FD322003F0BEFA10
S21400094040210320FFF708FE0F216920FFF704FE71
S2140009500E216720FFF700FE0F216820FFF7FCFD41
S21400096000216820FFF7F8FD40210320FFF7F4FD83
S214000970052003F0A3FA01AA02217020FFF7F6FC77
S214000980BDF804305BBA9BB2B3F57F6FF0D300219D
S2140009906720FFF7E1FD01AA02217020FFF7E6FCC1
S2140009A0BDF804404FF0000964BAA4B20C274D46C7
S2140009B0B4FBF7F74E464C461FFA89F3BB42C0F02D
S2140009C0928096FBF7F695FBF7F507EE906A94FB98
S2140009D0F7F49DED007AF8EEE77A01AA67EE877ADB
S2140009E00221C8ED007A07EE905AF8EEE77A40F258
S2140009F0031067EE877AC8ED017A07EE904AF8EEA4
S214000A00E77A67EE877AC8ED027AFFF7AFFC9DF9C2
S214000A1004309DF8058001AA022140F2051048EA3C
S214000A200328FFF7A3FC9DF904309DF8057001AA82
S214000A30022140F2071047EA0327FFF797FC002E33
S214000A409DF904209DF80530B8BF0336002DB8BFC9
S214000A500335002C43EA0223B8BF0334A7EBA505F1
S214000A60A3EBA404A8EBA6062B12C6F307218DF869
S214000A70063040F2031023128DF808308DF804106B
S214000A808DF805608DF807508DF80940FFF764FD76
S214000A909DF805104FF48270FFF75EFD9DF8061076
S214000AA040F20510FFF758FD9DF807104FF48370CD
S214000AB0FFF752FD9DF8081040F20710FFF74CFDB7
S214000AC09DF809104FF48470FFF746FD00210320BF
S214000AD0FFF742FD002211461046FFF7B0FE002049
S214000AE005B0BDE8F08301AA0C217220FFF73EFC9A
S214000AF09DF90A209DF80B3043EA02231E449DF917
S214000B000C209DF80D3043EA02231D449DF90E206B
S214000B109DF80F3043EA02231C4409F101094BE714
S214000B200080894400234FF07E5202604360836059
S214000B30C360026143618361C3610262704710B59E
S214000B4091ED027A92B0F1EE477ACDED017A8DED15
S214000B50037AD1ED017A91ED007ACDED027A002389
S214000B600446F1EE476AF1EE677A6A46014609A83E
S214000B70009304930893CDED056ACDED067A8DEDCE
S214000B80077A00F059FB204609AB04F12402D0EDA9
S214000B90007A93ED007A77EE877A93ED017AC0EDCE
S214000BA0007AD0ED017A77EE877A93ED027AC0ED7F
S214000BB0017AD0ED027A77EE877A0C3040ED017A32
S214000BC0904203F10C03E2D112B010BD30B52DED0A
S214000BD0028B00F10C058DB02946044600F0A6FBFA
S214000BE007EE100AFEEE007A67EE277A294617EE21
S214000BF0902A03A8CDED017A00F053FB019A214616
S214000C0006A800F04EFB03A92246084600F073FB38
S214000C1006A92A46084600F06EFB06AA03A909A8FC
S214000C2000F096FB03A9084600F080FB07EE900A4A
S214000C30B0EE088A78EE677AF6EE008A67EEA87A53
S214000C4003A917EE902A204600F02BFB06A90846BB
S214000C5000F06CFB07EE900A78EE677A06A967EE5E
S214000C60A87A284617EE902A00F01BFB09A908462A
S214000C7000F05CFB07EE900A38EE678A09A968EE7A
S214000C80287A04F1180017EE902A00F00AFB0DB03F
S214000C90BDEC028B30BD38B504460D46016AC0690E
S214000CA011F0FAFB2860A06911F0C2FB07EE900A6B
S214000CB0F1EE677AC5ED017A2168E06811F0ECFB89
S214000CC0A86038BD0023002243628362C3620363C8
S214000CD043638363C2630364C3650366436603605A
S214000CE043608360C360036143618361C3610362E1
S214000CF043648364C364036543658366C3660367AE
S214000D00704700000000000007EE901AF7EE006A39
S214000D1086EEA77A10B50446016580ED157A08467A
S214000D200FF0B0FB02460B4605A1D1E900010FF01B
S214000D302BFD0FF0C1FEA06510BD00BFAFF3008015
S214000D40399D52A246DF913F0165704791ED007ACA
S214000D50D0ED0C7AC36B77EE877A0133C0ED0C7A50
S214000D6091ED017AD0ED0D7A77EE877AC0ED0D7AA7
S214000D7091ED027AD0ED0E7AC36377EE877AC0EDF6
S214000D800E7A704710B586B00446826D684600F04D
S214000D9088FA04F15C02694603A800F0ACFA03A9DD
S214000DA02046FFF7CCFE2046FFF710FF04F168014F
S214000DB02046FFF770FF06B010BD000000000000E0
S214000DC02DE9F0432DED048B00F15C0590ED099ABA
S214000DD090ED0A8AD0ED0B8A85B0044688462846F0
S214000DE017461E4600F058FAB8F1000F59D0606A50
S214000DF00FF048FB48A3D3E90023804689460FF04E
S214000E001FFE00284DD046A3D3E90023404649469E
S214000E100FF00CFE002844D0A06A0FF033FB3EA370
S214000E20D3E90023804689460FF00AFEC8B33CA3E8
S214000E30D3E90023404649460FF0F8FD88B3F1EEAB
S214000E40497AF5EEC08A17EE908AF1EE10FAF1EEC6
S214000E50487A17EE900A04F1680927DB11F0E8FAE1
S214000E600190404611F0E4FA07EE900A4A46F1EE89
S214000E70677A284601A9CDED027A039600F048FA73
S214000E80284600F0FCF90FB900236366D4ED147A07
S214000E90B6EE007AC7EE277A284617EE901A00F0CC
S214000EA015FA05B0BDEC048BBDE8F08311F0C0FA6E
S214000EB00FF0E8FA02460B461BA1D1E900010FF03D
S214000EC081F90FF0F9FD0190404611F0B1FA07EEF6
S214000ED0900A3046F1EE677ACDED027A0FF0D2FA3C
S214000EE011A3D3E900230FF06FF90FF0E5FD03908F
S214000EF001A800F0C4F94A4601A9284600F008FAFD
S214000F00284600F0BCF9D4ED187AF1EE677AC4ED05
S214000F10187AB8E7AFF30080C139234A7B83EFBF66
S214000F20C139234A7B83EF3F182D4454FB210940E7
S214000F3010B50446243000F0AFF904F1300000F09C
S214000F40ABF90023E36304F1440000F0A5F904F1D3
S214000F50680000F0A1F904F15C0000F09DF920465D
S214000F60BDE81040FFF7DEBD37B5044600F054F884
S214000F700128054628D104F124010846019100F015
S214000F80D7F801992046FFF7E1FE04F14401084630
S214000F90019100F0DBF8D4ED117A0199F1EE677A51
S214000FA0C4ED117AD4ED127AF1EE677A2046C4EDDC
S214000FB0127AFFF7E7FE002300222946204603B0F8
S214000FC0BDE83040FFF7FCBE03B030BD7FB5104D26
S214000FD0104802262E70FFF775FEFFF7E7FA044664
S214000FE080B90DF10300FFF7AFFA044650B90323AA
S214000FF001A82B70FFF78CFC044618B92E7020460B
S21400100004B070BDFFF736F900232B70F7E700BF7A
S214001010C4100020CC100020014B1878704700BF89
S214001020C410002073B501211D4D1E4E0223002260
S214001030044608462B70FFF702FC2046FFF710FB1D
S21400104030602046FFF754FB174C20600020FFF767
S214001050BBFB1920FFF79FFB0020FFF7CDFA00200F
S214001060FFF7E3FA322002F029FF00210120FFF704
S2140010703FFC012100220846FFF706FC01A8FFF707
S21400108049FA21680948FFF75FFE31680748FFF70D
S2140010903BFE0648FFF74CFF01232B7002B070BDE5
S2140010A0C410002040110020C8100020CC100020E2
S2140010B01A4AD36B6BB392ED0C6A9FED197A07EE62
S2140010C0903A26EE076AF8EE677AC6EE276A92ED41
S2140010D00D6AFDEEE66A26EE076A16EE903AC6EE52
S2140010E0276A0380FDEEE66A16EE903AD2ED0E6AA7
S2140010F0438066EE876A86EEA77ABDEEC77A17EE5D
S214001100103A838000231363536393630023D363EF
S2140011107047038043808380704700BFCC10002058
S21400112000007A440148FFF71FBF00BFCC10002024
S214001130054A1278012A04D00022026042608260CA
S2140011407047FFF75FB900BFC4100020054A127849
S214001150012A04D000220260426082607047FFF7D6
S214001160A9B900BFC410002008B5094B1B78012B95
S21400117001D0002008BDFFF7D9F9064A13680133ED
S21400118013600028F5D0044A136801331360F1E7B2
S214001190C4100020BC100020C0100020000000007A
S2140011A02DE9F0471EA7D7E900670FF27C09D9E9B9
S2140011B000898246DAF800000FF064F932463B46B2
S2140011C004460D460FF03CFC98B90FF26409D9E9C5
S2140011D0008915A7D7E90067DAF800000FF052F982
S2140011E042464B4604460D460FF016FC60B9BDE875
S2140011F0F08742464B46204629460EF0E3FF0FF0A6
S2140012005BFCCAF80000D5E732463B462046294636
S2140012100EF0DAFF0FF050FCCAF80000DCE700BF63
S214001220182D4454FB210940182D4454FB21194025
S214001230182D4454FB2109C070B501F1240502F1B4
S2140012400C0613460446F3EC017A91ED006AD1EDE4
S214001250016A93ED027A67EE867A46EE877AB342A3
S214001260D1ED026A93ED057A46EE877AE4EC017AD0
S214001270E9D10C318D4200F10C00E2D170BD10B501
S2140012800446FFF78DFF201DFFF78AFF04F10800D4
S214001290BDE81040FFF784BF00230360436083600F
S2140012A0704791ED007A07EE902A27EE277A80EDB8
S2140012B0007A91ED017A27EE277A80ED017A91ED9A
S2140012C0027A67EE277AC0ED027A704707EE901A28
S2140012D090ED007A27EE277A80ED007A90ED017A7D
S2140012E027EE277A80ED017A90ED027A67EE277A6C
S2140012F0C0ED027A704701F10C03F1EC017AB2EC12
S214001300017A77EE877A9942E0EC017AF5D1704758
S21400131001F10C03F1EC017AB2EC017A77EEC77AB0
S2140013209942E0EC017AF5D170470000DFED077ACC
S21400133000F10C03F0EC016AB1EC017A984246EE3B
S214001340877AF7D117EE900A704700BF00000000BA
S21400135092ED016AD1ED027AD1ED016A92ED027A40
S21400136067EE867A56EE877AC0ED007A92ED026ACC
S214001370D1ED007AD1ED026A92ED007A67EE867AB8
S21400138056EE877AC0ED017AD1ED017A92ED006AC9
S214001390D1ED006A92ED017A67EE867A56EE877A8C
S2140013A0C0ED027A70470000024B0222C3F8EC211F
S2140013B0704700BF00A00046024B0222C3F8EC2193
S2140013C0704700BF00A0004470B5384D384E0FCDB2
S2140013D088B001AC0FC495E80700364D84E80700D6
S2140013E03548012100F088FB30460121012400F039
S2140013F083FB324B039301A928468DF8124002F076
S2140014001FF82346042200210A2001F0F1FD22469F
S214001410002302210A2001F0EBFD234604220721C7
S214001420052001F0E5FD0422214623460A2001F0AE
S214001430DFFD234BAB670B236B674FF4487002F05E
S214001440F7FE1420FFF7B8FF02F0F2FE2320FFF7A6
S214001450ABFF02F0EDFEB9212846FFF7ADFF02F024
S21400146055F8FFF7A1FF00231A4619460A2001F097
S214001470BFFD00231A4602210A2001F0B9FD2346CB
S21400148000220721052001F0B3FD23460022214655
S2140014900A2001F0ADFD284601F032FF0021A967C1
S2140014A03046696700F028FB08B070BD002D0100CB
S2140014B0006204000008014000350A0000127A00AD
S2140014C01E1D0012FEE7000005490A6813180548AD
S2140014D083428CBF4FF0FF320B601046704700BF50
S2140014E00410002000000420FEE7000008B500F00D
S2140014F083F8124B12498B4212D3124B124900202A
S2140015008B4218D3FEF726FE186850F8224058681B
S21400151040F82240013298688242F5D30C33EAE75D
S2140015200022F8E71C6844F8220001325C68A242F8
S214001530F8D30833E4E70022F8E700BF449501003B
S21400154050950100509501005095010000487047E5
S21400155000F04902104AD2F8943003F00703023B29
S214001560032B13D8DFE803F00C14020E0B4B1B689A
S214001570D2F80001C0F304200130B3FBF0F070474E
S214001580074BF4E7074B1B685B08F1E7054BEEE7F4
S2140015904FF40043ECE700BF00400E40141000205C
S2140015A00C1000201010002008B5FFF7D3FF054BE5
S2140015B0D3F80831C3F308230133B0FBF3F0024B32
S2140015C0186008BD00400E4008100020014B186847
S2140015D0704700BF0C100020054B1860054BD3F871
S2140015E0943003F00703022B01D1FFF7DDBF7047ED
S2140015F00C10002000400E40044B054A9A60D3F8B9
S214001600882042F47002C3F88820704700ED00E09E
S214001610000000004FF4004070474FF47A707047A7
S214001620014B1868704700BF14100020D0E9000373
S2140016301847836800681847C368006818470000A2
S21400164038B50D46044640B3012829D002282AD0D2
S21400165003282BD004280ED005282AD0831F012B60
S21400166009D9082828D0092828D00A2803D1072312
S214001670EB40DB0704D4134840F2FE31FFF722FFAD
S21400168030200C2310FB043404F18844012104F5B7
S214001690204401FA05F5256038BD40F2FF33E7E740
S2140016A04FF6C073E4E740F6FF73E1E74FF47F437D
S2140016B0DEE74FF6FF73DBE70F23D9E74FF440432F
S2140016C0D6E700BF1C2D010038B50D46044640B3D2
S2140016D0012829D002282AD003282BD004280ED08F
S2140016E005282AD0831F012B09D9082828D00928C5
S2140016F028D00A2803D10723EB40DB0704D413487D
S21400170040F22D41FFF7DEFE30200C2310FB0434A0
S21400171004F18C44012104F5204401FA05F5256006
S21400172038BD40F2FF33E7E74FF6C073E4E740F614
S214001730FF73E1E74FF47F43DEE74FF6FF73DBE727
S2140017400F23D9E74FF44043D6E700BF1C2D010016
S21400175010B501210446094800F0CEF908480121D9
S21400176000F0CAF9A37820786178B3FA83F35B09AE
S214001770042201F03DFC002010BD00BF40410500E2
S21400178000350A000346007859789B780BB9FFF7B6
S21400179057BFFFF799BF0346007859789B780BB977
S2140017A0FFF792BFFFF74CBF38B5047845782CB3E7
S2140017B0012C26D0022C27D0032C28D0042C0ED0A7
S2140017C0052C27D0A31F012B09D9082C25D0092CBE
S2140017D025D00A2C03D10723EB40DB0704D411489D
S2140017E04FF48961FFF76EFE3022544304F18044C3
S2140017F0012304F52044AB40A36138BD40F2FF331B
S214001800EAE74FF6C073E7E740F6FF73E4E74FF406
S2140018107F43E1E74FF6FF73DEE70F23DCE74FF485
S2140018204043D9E71C2D010070B50478457806467C
S21400183074B3012C2FD0022C30D0032C31D0042CC2
S2140018400ED0052C30D0A31F012B09D9082C2ED082
S214001850092C2ED00A2C03D10723EB40DB0704D437
S21400186015484FF48361FFF72DFE30230C2213FB3F
S214001870042404F1047404F5204405EBC404A40015
S214001880B3782068C0B213B9B0FA80F0400970BDD2
S21400189040F2FF33E1E74FF6C073DEE740F6FF7332
S2140018A0DBE74FF47F43D8E74FF6FF73D5E70F2308
S2140018B0D3E74FF44043D0E71C2D010070B50C4E23
S2140018C00446012504B970BD94FAA4F0B0FA80F07D
S2140018D006EB001205FA00F324EA03045368002B13
S2140018E0F0D0117B11B191689847EBE79847E9E78C
S2140018F04411002008B5122000F080FE28B1084BE5
S2140019004FF48022C3F880211A600A2000F076FE89
S21400191028B1034B4FF48062C3F880211A6008BDDB
S21400192000E100E0F8B505460F46164600F05DFEFD
S214001930104B05F0FC02D3F828140023EC1804F032
S2140019400304144321FA04FC1CF0010F07D00133F2
S214001950042BF3D1FF2400F04EFE2046F8BDFF2CEA
S214001960F9D0054B03EB04130122C3E901761A7381
S214001970F1E700BF00A0004044110020054BD3F85B
S2140019802804D3F81C24104000F05530C3F8240473
S214001990FFF794BF00A00040054BD3F82804D3F807
S2140019A01C24104000F0AA30C3F82404FFF786BFBA
S2140019B000A000400C4B984210D90C4B984210D90E
S2140019C0022201230A490B640A49D1F8003123F0A8
S2140019D0807343EA0263C1F8003170470022134661
S2140019E0F0E70122FBE700BF0048E8010090D003C3
S2140019F00000C84300400E4038B5114B5B68114BE1
S214001A0000221C46C9B21D798D4202D11D6885424E
S214001A1012D20132052A03F10803F4D10A4841F232
S214001A20CE51FFF74FFD032205494B6823F0407364
S214001A3043EA02634B6038BD04EBC2025279F3E717
S214001A4000000E40442E01006F2D01001F2810B527
S214001A50044604D903484FF4B371FFF733FD012061
S214001A60A04010BDC12D010070B5084C41F671367E
S214001A70256C2664FFF76AFD0021FFF7BDFFADB2B7
S214001A80B5421CBF0023236470BD00BF00000E409B
S214001A90044BDB6B5B0604D4034AD2F8C830002B39
S214001AA0FBD1704700300E400000C64308B5FFF774
S214001AB0EFFF024B5868C0F3014008BD00300E40EF
S214001AC0044BD3F84421D20703D4D3F84021104264
S214001AD0FBD1704700400E4070B5064C41F671369B
S214001AE0256C2664FFF788FFADB2B5421CBF002305
S214001AF0236470BD00000E4038B5C0F30323013BDD
S214001B00092B24D8DFE803F02A2D232305161923F2
S214001B101C20154C0023C0F3043513B11846FFF7FC
S214001B20CFFF04F1424404F5801405EBC404A4007E
S214001B30216038BD0D4C0123EDE70D4C1023EAE77C
S214001B400C4C4FF48033E6E70B4C0023E3E7BDE88C
S214001B5038400A4841F66A31FFF7B4BC084C002307
S214001B60D9E7084C0023D6E7B0400E40E0400E40D0
S214001B70E8400E40F0400E4050410E406F2D0100F0
S214001B8000400E40C0400E4008B5C0F30313013BB2
S214001B90092B60D8DFE803F0050B0F195F5F1F23E2
S214001BA03C532E4BD3F80001C0F3042008BD2B4B4A
S214001BB0D3F81401F8E7294BD3F80001C0F300600E
S214001BC00130FFF743FF0138F0E7244BD3F80C0150
S214001BD0C0F30820EAE7214BD3F80801F8E7204BCA
S214001BE0984209D01F4B98420CD041F60E511E4821
S214001BF0FFF768FC0020D9E7184BD3F8200100F067
S214001C000F00DEE7154BD3F82001C0F30110D8E72C
S214001C10164B984208D003F5B01303F5805398424C
S214001C2006D041F63251E2E70C4BD3F82801ECE738
S214001C300A4BD3F82801C0F301200430C1E70C4B4F
S214001C40984205D1054BD3F8300100F00300ADE70C
S214001C5041F64151CBE741F66651C8E700400E40D9
S214001C608006160080162E006F2D010090171A00B1
S214001C70A009140008B5FFF787FF013008BD000073
S214001C8000F00F00013808B5072844D8DFE800F058
S214001C90040F1943232D4335264BD3F8943003F015
S214001CA00703023B052B3DD8234AD05C08BD214BD9
S214001CB0D3F8803003F00703013B032B34D81F4AC8
S214001CC0F3E71C4BD3F8843003F00703013B032BE8
S214001CD02AD81B4AE9E7174BD3F8883003F00703E6
S214001CE0013B032B20D8174ADFE7124B1B6F13F07C
S214001CF0010F0CBF07200920D8E70E4BD3F85C3144
S214001D0003F03003202B11D0302B11D0102B14BF32
S214001D1001200720CAE70C4842F2BB01FFF7D2FBBE
S214001D200020C3E70520C1E70120BFE70420BDE788
S214001D300820BBE700400E40172E01001D2E0100B4
S214001D40212E01001D2E01006F2D010038B52C4BF1
S214001D50984205460AD02B4B984207D02A4B984209
S214001D6004D02A4841F2CD61FFF7ACFB2846FFF7C6
S214001D7087FF234B9D42044611D0224B9D4212D032
S214001D80214B9D4213D1224BD3F8804004F0070428
S214001D90042C2DD8DFE804F02A11151D19001C4B61
S214001DA0D3F88440F2E71A4BD3F88840EEE717489A
S214001DB041F2FC61FFF786FBEAE7BDE83840FFF733
S214001DC029BCBDE83840FFF72BBCBDE83840FFF71C
S214001DD024BCFFF7BFFB0E4B0446D3F80001C0F34C
S214001DE000600130FFF732FEB4FBF0F4204638BD49
S214001DF0064841F24E71FFF765FB0024F6E700BF88
S214001E00030020000500240002001E006F2D0100C4
S214001E1000400E4038B500F47813B3F5B01F054601
S214001E207FD02ED8B3F5402F69D011D8B3F5802FC8
S214001E3054D006D843B1B3F5003F5AD041F69A4184
S214001E401AE0B3F5202FF9D1BDE83840FFF782BB82
S214001E50B3F5801F00F0A280B3F5A01F57D0B3F5EE
S214001E60602FEBD15B48FFF70BFF072800F096804A
S214001E700928E9D041F290415748FFF723FB00209C
S214001E8036E0B3F5381F5AD013D8B3F5001F5FD02D
S214001E900AD8B3F5D01F5DD0B3F5F01FCED14F48AA
S214001EA0BDE83840FFF752BFB3F5101FC6D14C4807
S214001EB0F6E7B3F5481F57D0B3F5781F00F08280D9
S214001EC0B3F5401FBAD14748FFF740FF464B0446DC
S214001ED0D3F82801C0F3012004302BE0FFF73AFBCB
S214001EE0414BD3F80C31C3F308230133B0FBF3F0B6
S214001EF038BDFFF72FFB3C4BD3F80831F3E7FFF76D
S214001F0029FB394BD3F81431C3F30423EDE73448E7
S214001F10FFF71CFF344BD3F8303103F00303D840EF
S214001F20E6E72E48FFF712FF2F4B0446D3F82001B2
S214001F3000F00F00FFF78AFDB4FBF0F0D8E7274863
S214001F40FFF704FF284BD3F82031C3F30113E6E76D
S214001F502448A5E72348FFF7F9FE234B0446D3F8A9
S214001F602801C0F30110E5E72048FFF789FE013895
S214001F70072824D801A353F820F000BF7F1E0000D6
S214001F80BF1F0000BF1F0000A31F0000BF1F0000F0
S214001F90BF1F00009D1F0000AB1F0000144B1868F9
S214001FA0A6E7BDE83840FFF711BBFFF7D3FA0E4BA4
S214001FB0D3F80031C3F3042303FB000098E741F293
S214001FC0C74159E7FFF7C6FA04462846FFF752FE10
S214001FD0B2E700BF06000E006F2D010002001E00D3
S214001FE0050024000300200000400E40B800320028
S214001FF018100020014B1880704700BF1C100020EE
S214002000013838B50C46032864D8DFE800F00244EF
S2140020101A2FB1F5007F04D3324842F6BB01FFF712
S21400202051FA314AC4F30804D2F86838002BFBD1C1
S2140020302E4A136A23F4FF7323F00103234313622B
S21400204038BD7F2904D9274842F6C801FFF73AFA77
S214002050254A04F07F01D2F86038002BFBD1234BD1
S2140020601C6924F07F040C431C61E9E77F2904D92E
S2140020701C4842F6E301FFF725FA1B4A04F07F01ED
S214002080D2F86438002BFBD1184B9C6924F07F04EF
S2140020900C439C61D4E7154DD5F890305B0704D50A
S2140020A0104842F6F301FFF70DFA6B6A23F030038F
S2140020B043F010036B62C4F3C311CB1C2A6B0C49AC
S2140020C00F2B01EA020128BF0F23214341EA0371C7
S2140020D02963B5E7BDE83840024842F60D11FFF720
S2140020E0F1B900BF6F2D01000020C84300400E402C
S2140020F000F8FF0F022810B50C4604D0144842F62C
S2140021002511FFF7DFF9134B5B6A13F0300F1BD076
S214002110202C16D0302C17D0B4B10D484FF42551D2
S214002120FFF7D0F90C4B0B4AD2F8901033EA0101B6
S214002130FAD15B024ABFD2F8A0000120C0F380208B
S21400214010BD4FF40003EEE74FF44003EBE700BF8B
S2140021506F2D010000400E40FF33E107022808B54E
S2140021600CD129B1094B4FF48060C3F8A80059661A
S2140021704AB1BDE808400220FFF7BCBF044842F65B
S2140021807611FFF79FF9012008BD00BF00400E4002
S2140021906F2D010004282DE9F04704460F469146AE
S2140021A01FD83D4B3D4A13F800A03D4B13F8008066
S2140021B0F1B93C4B33F810301366012303FA08F8E4
S2140021C0D2F8903013EA080FFAD1B9F1000F5AD0BE
S2140021D00125324A05FA0AF5D2F890302B42FBD197
S2140021E051E0BDE8F047304842F60A01FFF76AB909
S2140021F02E4B022833F8106047D1536A13F0300F85
S21400220043D12B4BDB6B5A0504D4274842F6190101
S214002210FFF758F9214A536ADB0705D5536A23F0BE
S214002220300343F010035362224D1C4BA8441E6635
S2140022304FEA8808D8F80030002BFBD0B9F1000F21
S21400224021D05544AD002B68002BFCD0022C1AD1AF
S214002250CFB1124F796A11F0010118D00122202166
S2140022602046FFF77BFFD7F89C4001220021022082
S214002270FFF790FFC4F30A010220FFF7C1FE3E6697
S2140022802B68002BFCD0BDE8F0870027CCE7204663
S214002290FFF730FFE7E700BF252E010000400E40A5
S2140022A02A2E01003A2E01006F2D0100302E01006B
S2140022B000300E408004F210112838B50C460FD0BE
S2140022C000F00F000138072800F2EB80DFE810F07E
S2140022D0240066009A00E9007D00B400E900C20010
S2140022E0042912D1FFF772F90546A8B10021284645
S2140022F000F0AEFA023C0A2C45D8DFE804F04A4764
S2140023003137444444443D0F4D00052904D1664B03
S2140023101D68664B9D42E9D80025EBE7032005249F
S21400232001221146FFF736FFFFF79EFB0DB1FFF7C0
S214002330AFFB5F4B5C67FFF737F90446FFF70AF918
S214002340FFF738FBFFF7B2FB01462046FFF7C4FB5A
S214002350002D5DD128460121BDE8384000F078BA4E
S2140023605448FFF727FB02200446D9E75148FFF7F9
S21400237021FB01240320D3E742F27C11BDE838405C
S2140023804D48FFF79FB842F28111F7E7012003247A
S214002390C6E700200424C3E70724C5E7062933D18F
S2140023A04548464D4FF40751FFF78CF8424842F235
S2140023B0D011FFF787F8FFF7CDF8FFF7FBFA404B91
S2140023C00122C3F80826032321E006293D4DEDD05F
S2140023D0013C092C2BD801A353F824F03524000027
S2140023E013240000212400002F2400002F240000C6
S2140023F0B72300002F2400002F2400002F24000005
S2140024000D240000304DE3E72C4DE1E704232B605C
S21400241038BD012211460020FFF7BCFE0223F6E776
S214002420012211461046FFF7B5FE0123EFE742F200
S214002430FB11A3E70023EAE7072904D0092906D001
S21400244042F285219AE71A4B00221A67E0E7184BFA
S2140024500122FAE74C1E072C1ED8DFE804F0201DE8
S2140024601D161D1D0F0403221149D1F85C3123F0FF
S214002470300343EA0213C1F85C31C9E70122114672
S2140024800420FFF787FE0122EEE701221146022014
S214002490FFF780FE0222E7E742F2E3216EE7002222
S2140024A0E2E742F2BA3169E710100020002D310150
S2140024B000400E400148E8016F2D010080400E40AC
S2140024C00010C84388400E4084400E4010B50446B5
S2140024D01120FFF7D5FB042804D1274842F2A56156
S2140024E0FEF7F0FF012200210220FFF753FE63787B
S2140024F01BB9A3780BB9E37823B11F4842F2E16118
S214002500FEF7E0FF237C012B04D11B4842F2E86172
S214002510FEF7D8FF194A217C536A23F001030229EB
S21400252008BF43F001035362154B2178C3F8A0148B
S214002530637AA18843EAC123D362136BA07A217A17
S21400254003F07F630343E08843EAC02343EAC113F2
S21400255003310F2928BF0F2143EA01731363A37BBE
S214002560617B1B0143EA0133E17B0B43217B43EA9A
S2140025700143536310BD00BF6F2D010000400E40A5
S2140025800000C84370B505461120FFF779FB022806
S21400259004D10F4842F26371FEF794FF0D4E0E4BC6
S2140025A0B26B2C7813401C436B7844EAC324AB7898
S2140025B044EA0364EB7844EA0324B36BA34205D0F1
S2140025C0002101220846FFF7E5FDB46370BD00BF99
S2140025D06F2D010000400E4080E4FFF8EFF31080FE
S2140025E072B6704700B962B67047EFF31180602389
S2140025F083F31188704780F31188704738B5C5B2E9
S214002600322D044604D9084840F21F31FEF75AFF1F
S214002610064B640905F01F0553F82400E840C04344
S21400262000F0010038BD00BF6C2E010000E100E0A4
S214002630034BD86B80F04000C0F38010704700BF9B
S21400264000300E4038B542EA0323B3F5007F054656
S2140026500C463ED019D8B3F5807F36D00AD883B35F
S214002660012B21D01F4840F6F211FEF72BFF002267
S21400267013461FE040F201129342F3D11A4BD3F8EF
S21400268024321A0EC3F3074314E0B3F5407F24D078
S21400269040F20132934210D040F201229342E1D13F
S2140026A0114BD3F8283202E00F4BD3F82432C3F391
S2140026B00722DBB22B60226038BD0B4BD3F82832E2
S2140026C0DFE7094BD3F81C32F1E7074BD3F81C328F
S2140026D0D7E7054BD3F82032E9E7034BD3F820328F
S2140026E0CFE700BFBF2E01000081E00F08B5FFF75F
S2140026F09FFF20B1024AD2F8C830002BFBD108BD9C
S2140027000000C6431A4B022810B5D3F830320C46E8
S21400271012D0032813D0012814BFDBB2C3F307235B
S2140027201B0323F47042ECB95AB140F681111148EC
S214002730FEF7C8FE002010BDC3F30743F0E71B0EEC
S214002740EEE70D49CA6E22F470421343CB660120B1
S214002750F1E70949D1F8EC2022F470421343C1F89E
S214002760EC30F4E7002AF4D040F68D11DFE700BF26
S2140027700081E00FBF2E010000300E400378134AA0
S214002780002B437870B514BF04260026002B8378F0
S214002790946914BF02250025002B037924F03F041A
S2140027A043EA0403C47814BF08210021012C08BFA3
S2140027B043F0010333432B430B4393611368417982
S2140027C023F4403343EA0143136070BD00300E40EB
S2140027D0F8B504460F46FFF72BFF78B3FFF786FFE2
S2140027E0174B5B68C3F301439C4227D0154BD3F8C5
S2140027F00061FEF7AFFE022C05460FD1124BC6F362
S214002800042606FB00069E4204D910484FF4E361F6
S214002810FEF758FE02212846FFF75EF9C4F10202D1
S21400282010239340064A13610FB1FFF75FFF2CB9E0
S21400283021462846BDE8F840FFF74EB9F8BD00BF70
S21400284000300E4000400E40002D3101BF2E01002A
S21400285013B50246FFF7ECFEC8B152B90D4B019115
S214002860D3F80041FEF776FEC4F30422019902FB7A
S2140028700002094B1B7843B1084B9A4205D8022048
S21400288002B0BDE81040FFF7A3BF0020F8E702B093
S21400289010BD00BF00400E404A130020002D31013D
S2140028A0224B4AF6E85210B5596B5A639A6FD20714
S2140028B0FCD41B6C13F003031EBF1D4A0124C2F890
S2140028C0B44A834204D110B9194BC3F8B40A10BDF8
S2140028D0032B00D09BB9431E012B10D8134A4FF48C
S2140028E00023D362936FDB07FCD4136C23F003033F
S2140028F043F0010313640D4A536A1C03FCD50B4BCB
S2140029009A6FD207FCD41A6C22F0030202431A64B0
S2140029109A6F12F00102FBD10038054C18BF012057
S2140029200129C4F8B40A08BF5A63D0E700300E4045
S2140029300000C6432DE9F04FA0F5E16389B00024FE
S214002940B3F5966FCDE90244CDE90444CDE90644DB
S21400295006468A46934605D940F67B315548FEF72B
S214002960B1FDA3E0B0F5E16F534B8CBF012200220E
S21400297049D1D3F81832C3F30721DBB20791049389
S2140029804FF416754FF4966748E0BBF1000F0ED073
S214002990D9F85C2022F4FE4222F00202B6F5E16F7E
S2140029A042EA012218BF02200243C9F85C20BAF1AD
S2140029B0000F26D020460021FFF7A4FE044610B9DB
S2140029C040F6D831CAE701214046FFF79BFE044691
S2140029D010B94FF43E61C1E7384A536EBD4238BF66
S2140029E03D4623F4FF73E72D23F0010328BFE725B8
S2140029F0B6F5E16F18BF43F0010343EA450353669B
S214002A0054E0012452E0D3F81832190EC3F30743FA
S214002A10079104934FF496654FF4E167DFF89C90B6
S214002A20D9F84C400192C4F30174234605A902A8C4
S214002A30FFF708FED9F8EC30019AC3F301284346A5
S214002A4006A903A8FFF7FEFD049BF01B079FF91AD3
S214002A504143B1FBF5F299182CBF012300238F42A6
S214002A601ED3EBB9069A039FD31B4343B3FBF5F380
S214002A70FF182CBF01230023BA4211D383B9059B4C
S214002A80029AA3EB020C00FB0CF0B0FBF5F555190F
S214002A902CBF01200020AB4202D300283FF475AFC4
S214002AA0044840F6C931FEF70DFD0024204609B063
S214002AB0BDE8F08FBF2E01000081E00F00300E4011
S214002AC0334A08B5136FD16C11F0010F03F00603FB
S214002AD044D0002B42D0132857D9143813288CBF63
S214002AE0102308232A49013BCA6C180322F47F42AC
S214002AF040EA03231343CB64264BCA6C1B88C2F3FD
S214002B0003222833013202EB820003EB5303B3FBAC
S214002B10F0F3C86C013B072B28BF072320F0EE60BC
S214002B2040EA036343F48013CB641B4BB3F90030D5
S214002B30002B12DB03F12800C0F34E0303445008B9
S214002B4000EB4202B3FBF2F20B6D072A28BF072206
S214002B5023F0700343EA02120A6508BDD16C01F047
S214002B600101194304D109280FD90A380928B6E704
S214002B70D26CD20702D50BB92728B0E7074840F633
S214002B801E41FEF79FFC0023ACE70423AAE700BF24
S214002B9000300E404613002048130020BF2E0100D0
S214002BA00C4BD3F8803910B5044633B9012804D944
S214002BB0094840F63C41FEF785FC084A136F23F0AF
S214002BC0070323431367064BBDE810401888FFF73A
S214002BD077BF00BF0000C643BF2E010000300E4086
S214002BE04413002038B55A4B02229A639B6B03F0BD
S214002BF00F039342044607D0564840F61621FEF7C8
S214002C0061FC0025284638BD0389C82B04D95148E5
S214002C104FF42261FEF756FCA28823899A4204D913
S214002C204C4840F62121FEF74DFCB4F90C30C82B79
S214002C3004DD484840F62221FEF744FC6378012B69
S214002C4055D1A388C82B04D940F626214148FEF763
S214002C5039FCE28842F210739A4204D93D4840F6A5
S214002C603321FEF72FFCE3884A2B48D9B3F5FA7FC9
S214002C7047D340F6C312934294BF4FF000524FF032
S214002C8040523349B4F90C00CB6C23F0405323F088
S214002C9001030028A8BF43F001031343CB64D1F817
S214002CA0EC30A28843F44073C1F8EC302A4B1A800B
S214002CB0CB6E43F08073CB66284BD3F8800900B107
S214002CC00420FFF76DFF264B21891980254BB4F9A8
S214002CD00C20A0881A80FFF7F3FEA37BA3B1012B7C
S214002CE022D01C4840F63211FEF7ECFB0FE0022B18
S214002CF0AFD1A3880A2BACD940F62B21A6E7002239
S214002D00BFE74FF08052BCE7114B174A9A65012285
S214002D1060881146FFF70EFE054640B90D4840F69E
S214002D206A21FEF7CFFB6DE7094B104AEEE7084A2B
S214002D30D36B43F48063D3636078FFF7B1FDA37A67
S214002D40A3F1200253425341044AC2F8943759E78C
S214002D5000300E40BF2E0100441300200000C64382
S214002D60461300204813002077402057372110B71D
S214002D701F2970B505460C46164603D9064891210C
S214002D80FEF7A0FB05F1424000F5801004EBC004FE
S214002D90A400266070BD00BF112F010038B50D4697
S214002DA0044640B3012829D002282AD003282BD075
S214002DB004280ED005282AD0831F012B09D90828FD
S214002DC028D0092828D00A2803D10723EB40DB07A0
S214002DD004D4134840F22D41FEF774FB30200C2338
S214002DE010FB043404F18C44012104F5204401FA5C
S214002DF005F5256038BD40F2FF33E7E74FF6C073B0
S214002E00E4E740F6FF73E1E74FF47F43DEE74FF673
S214002E10FF73DBE70F23D9E74FF44043D6E700BF45
S214002E201C2D010038B50D46044640B3012829D0B4
S214002E3002282AD003282BD004280ED005282AD012
S214002E40831F012B09D9082828D0092828D00A284A
S214002E5003D10723EB40DB0704D4134840F2FE31CE
S214002E60FEF730FB30200C2310FB043404F18844BA
S214002E70012104F5204401FA05F5256038BD40F22D
S214002E80FF33E7E74FF6C073E4E740F6FF73E1E78A
S214002E904FF47F43DEE74FF6FF73DBE70F23D9E7F8
S214002EA04FF44043D6E700BF1C2D010070B5054621
S214002EB00E461446FFF792FB296881EA040202EAEE
S214002EC006044C402C60BDE87040FFF78BBB00004A
S214002ED02DE9F0478A469DF820909DF824801546F7
S214002EE01F46044600284ED001284FD0022850D056
S214002EF0032851D004280FD0052850D0831F012B5B
S214002F000AD908284ED009284ED00A2804D107200E
S214002F1020FA0AF0C30703D42C48BF21FEF7D2FAE2
S214002F208AEA050333F0030303D02848C121FEF7DD
S214002F30C9FA072D0AF0030A4FF00F0137D8AE0082
S214002F40234804FA06F2B140FFF7B0FF03212148F8
S214002F500AFA06F2B140FFF7A9FF3A4629461E488C
S214002F60FFF706FF4A4629461C48FFF701FF1C4AA2
S214002F701C480123AB40C2F8243429464246BDE82B
S214002F80F047FFF7F5BE40F2FF30C1E74FF6C070DE
S214002F90BEE740F6FF70BBE74FF47F40B8E74FF65A
S214002FA0FF70B5E70F20B3E74FF44040B0E7A5F158
S214002FB00806B6000C4804FA06F2B140FFF776FFA2
S214002FC003210A480AFA06F2B140C4E7632F01005B
S214002FD000A4004008A4004010A4004014A4004030
S214002FE000A0004028A4004004A400400CA4004018
S214002FF0F8B50D4616461F460446C8B301283AD013
S21400300002283BD003283CD004280ED005283BD00D
S214003010831F012B09D9082839D0092839D00A2856
S21400302003D10721E940CB0704D423484FF4B071FD
S214003030FEF748FA26B1294620466FB3FFF7AEFEE4
S21400304004EB4403072D4FEA03134FF00F0126D875
S214003050A80006FA00F2814018481844FFF726FF39
S2140030604EBB2946204617B3BDE8F840FFF796BE8C
S21400307040F2FF31D6E74FF6C071D3E740F6FF7156
S214003080D0E74FF47F41CDE74FF6FF71CAE70F2137
S214003090C8E74FF44041C5E7FFF7C4FED0E7A5F107
S2140030A00800800006FA00F281400548D5E7BDE832
S2140030B0F840FFF7B7BEF8BD632F010004A000403C
S2140030C008A00040022838B504460D4603D911482A
S2140030D04C21FEF7F7F96B791F2B03D90D484F21CA
S2140030E0FEF7F0F9AB786A789B0143EA82032A7808
S2140030F01343EA7843EA02132A7943EAC2236A7939
S21400310043EA0233AA79043443EA42432401024ADA
S214003110135138BDB62F010000200440014B186043
S214003120704700BF00008442427801790378002A85
S214003130827870B514BF04260026002AC27814BF11
S21400314010250025002A42794FEA023242EA01227F
S21400315042EA0302837914BF20240024002BC3799B
S21400316042EA034343EA0603027A43EA050314BF2E
S2140031704FF4004100212343002A14BF4FF40032CD
S21400318000220B431343014A136070BD0020044025
S2140031902DE9F04180460E461F46154622B93148B5
S2140031A04FF4A171FEF78EF91EB92F48FEF732FED6
S2140031B00646402F2AD009D8A7B1202F1CD0BDE83C
S2140031C0F041284840F28911FEF77CB9602FF6D10D
S2140031D0B5EB960F04D9234840F28311FEF772F937
S2140031E004241DE0B5EB161F04D91E484FF4BA712F
S2140031F0FEF768F9102413E0B5EBD60F04D919488A
S21400320040F27911FEF75EF9082409E00624B6FBC1
S214003210F4F3AB4204D213484FF4BF71FEF752F9F1
S2140032206C43610801EB4616B6FBF4F40F4E203CE7
S214003230B6EBC40F4FEAC40504D20A484FF4D07167
S214003240FEF740F9D8F8003023F06003C8F80030E5
S214003250D8F8003035401F43C8F80070C8F814503E
S214003260BDE8F0810930010040410500F8FF7F000D
S21400327070B506460C46154622B90D4840F28E211A
S214003280FEF720F91CB90B48FEF7C4FD04460A4BAE
S2140032906D00013CB4FBF5F413EA04234FEA042561
S2140032A004D0034840F2B321FEF70CF9756170BDF7
S2140032B00930010040410500070080FF38B50E4B7D
S2140032C0984204460D4610D003F5806398420CD011
S2140032D003F58063984208D003F58063984204D0D3
S2140032E006484FF43371FEF7EDF8EB435B0003F04E
S2140032F00A03E360E56038BD0000014009300100C4
S21400330038B51E4B1E4D984204460ED0A8420CD02F
S21400331003F50063984208D003F58063984204D012
S214003320184840F24241FEF7CDF840F6AA63E36043
S21400333041F20502002323606260134AA3606361C2
S214003340E364A26423666367A367E3670B4B9C4250
S21400335009D0AC4207D003F500639C4203D003F5C6
S21400336080639C4201D1002323650023AC42A36501
S21400337002D0064A944200D1E36538BD0000014001
S2140033800004014009300100F9FF0100000C014073
S21400339038B5294B984204460D4610D003F5806395
S2140033A098420CD003F58063984208D003F58063FA
S2140033B0984204D0214840F2FD21FEF783F82046CB
S2140033C0FFF79EFFAB7C1BB1236843F0804323606E
S2140033D0EB7C1BB12B7D43F08003A3652A8A6B7BB5
S2140033E01343EA89134363602B7BD5E90112204619
S2140033F0FFF7CEFE6B7D1BB1236843F4803323605A
S214003400AB7D1BB1236843F400432360EB7D2A7E2B
S2140034101B07120502F4E00203F0E04313432366A1
S214003420636F23F030036367626F6B7E13436367DB
S2140034302B78E36038BD00BF000001400930010072
S21400344038B52D4B984204460D4610D003F58063E0
S21400345098420CD003F58063984208D003F5806349
S214003460984204D0254840F26931FEF72BF82046F2
S214003470FFF746FFA97B2A8A2368002942F001024B
S21400348014BF4FF48061002113430B432A7D236051
S2140034902368002A14BF4FF0005200221343236013
S2140034A0AB7C1BB1EB7C43F08003A3652B7B43F422
S2140034B080536360D5E901122046FFF7D9FE6B7B87
S2140034C00BB11023E3606B7D1BB1236843F480339C
S2140034D02360AB7D1BB1236843F400432360EB7D80
S2140034E02A7E1B07120503F0E04302F4E0021343B2
S2140034F023662B78E36038BD0000014009300100E8
S21400350003691B06FCD5C069C0B2704703695A063A
S214003510FCD5416303699B06FCD5C069C0B2704701
S21400352003695B06FCD54163704700007FB5094B15
S2140035306A4603F11006154618685968144603C40F
S2140035400833B3422246F7D12846FFF74BFB00204C
S21400355004B070BD5E30010013B502230024684637
S21400356000948DF804408DF80530FFF707F92046E3
S21400357002B010BD70B5164B86B001AA03F1100656
S214003580154618685968144603C40833B3422246E1
S214003590F7D11B8823800F4BD3F8B42012030ED428
S2140035A0D3F8B830C3F308030B48ADF80A30FEF77B
S2140035B013F82846FEF78AFF002006B070BD074BBA
S2140035C01B884FF6FF72934208BF4FF4A673EBE7D3
S2140035D06E3001000081E00F00F049020001E00FAC
S2140035E007B5084B18680190202301A88DF8043011
S2140035F0FEF7C8FF6420FEF7FDFC002003B05DF870
S21400360004FB00BF8030010010B50C480C4C6FF076
S2140036100402A02112F0800FD3B21BBF03F00F03E9
S214003620043BA3181B1802F101020CBF83F8001319
S2140036301976332AEED1002010BD00BF00ED00E061
S21400364000E100E010B50446FEF7C8FF024B1C6020
S214003650FEF7C8FF002010BD4C13002010B5FEF783
S214003660BDFF034B1C68FEF7BDFF204610BD00BF24
S2140036704C13002007B530B9CDE90012FFF7EEFF76
S214003680DDE9001230B1436823B1006803B05DF88D
S21400369004EB1847232003B05DF804FB30B51C4646
S2140036A085B058B9CDE90012FFF7D8FFDDE9001262
S2140036B004B903AC20B9232005B030BD03B903AC70
S2140036C08568002DF7D023460068A847F4E7002059
S2140036D07047FEE74FF400534B6000207047012010
S2140036E07047012070474FF0FF307047002070474A
S2140036F007B5002001AB0190FFF7D0FF0198002826
S21400370008BF4FF0FF3003B05DF804FB10B5002093
S2140037101446FFF7AFFF18B10248BF21FDF7D2FEEF
S214003720204610BD8430010080F82410704790F8C1
S2140037302400704770B504460568FFF78FFF844283
S21400374002D10020FFF77EFF95F92830002B11DB11
S21400375003F01F015B099B0003F1604303F561431F
S21400376001228A40C3F88021C3F88020BFF34F8F20
S214003770BFF36F8F0023C4E90033C4E90433A360AA
S2140037802846EB68BDE87040184790F8243070B5BE
S21400379005460C468E18E3B9A6420AD095F82630A0
S2140037A0002BF9D02B6814F8011B284698470028F0
S2140037B0F2D070BD95F826305BB123780A2B03D182
S2140037C02B680D21284698472B6814F8011B2846BD
S2140037D09847A642EED1ECE72DE9F7434FF00009F3
S2140037E0044690461E46C3F800904F1E3368434575
S2140037F005D2FEF7FAFEA269C2B9FEF7FCFE94F8FF
S21400380027305BB9112301220DF1070120468DF800
S2140038100730FFF7BAFF012384F827303368002B00
S2140038200CBF1B20002003B0BDE8F083E1692269CD
S2140038308A5C07F8012F2569226A01359542A2693C
S21400384008BF4D46013AA2612561FEF7D4FEA36883
S21400385020469847336801333360C7E708B5FFF75B
S21400386094FF002008BD0000F8B51F4653680546C3
S2140038700C461646002B3ED09368002B3DD02C22DB
S214003880002120460DF0D2FB7368E361B368236223
S214003890337B84F82430B37B84F8253040F2011360
S2140038A0E384069B6360079BA360089B2760E36036
S2140038B096F90030124A84F828306A60114AAA60E5
S2140038C0114A2A61114A6A61002B114A2C60EA608B
S2140038D00CDB03F01F015B099B0003F1604303F55B
S2140038E0614301228A40C3F880211A602846FFF708
S2140038F0A9FE0020F8BD2220FCE72120FAE700BF41
S2140039005D380000D9370000293700002F37000047
S2140039103537000010B50446FEF767FEA269236A35
S2140039209A4203D2FEF767FE012010BDFEF763FE43
S2140039300020FAE773B504460D46AFF30080FEF7A5
S21400394054FE94F8253006466BB1132D07D100239C
S21400395084F8263002B0BDE87040FEF74CBE112D4C
S21400396001D10123F4E7A269236A9A4204D31548D9
S21400397040F26911FDF7A6FD6369E269D554A269B4
S21400398063690132A261226A01339342636104BF14
S214003990002363613046FEF72EFE94F825307BB197
S2140039A0A269236A9A420BD1132301220DF1070163
S2140039B020468DF80730FFF7E8FE002384F827300E
S2140039C002B070BDF5300100C26AD36C43F0040348
S2140039D0D3647047C26A10B5044613695906FCD50D
S2140039E000231A4694F8351094F83400FFF700FBCD
S2140039F000231A4694F8371094F83600FFF7F8FAC2
S214003A0094F83C30DA0707D5002394F8391094F878
S214003A1038001A46FFF7ECFA94F83C309B0707D5B7
S214003A20002394F83B1094F83A001A46FFF7E0FAA1
S214003A30E06A0021FFF742FC206B0021FEF75CF8ED
S214003A40002010BD08B5C06AFFF76AFD002008BD5B
S214003A502DE9F04186B01C46524B0C9D0293524B0A
S214003A600193012600230093CDE903664F4B904651
S214003A700A462946FFF7F8FE0746002856D123686F
S214003A80EB6263682B63637A85F83530237A85F8B2
S214003A903430E37A85F83730A37A85F83630637B9E
S214003AA085F83930237B85F83830E37B85F83B3062
S214003AB0A37B85F83A303E483146FEF71DF83D4870
S214003AC03146FEF719F8617A207A33460422FFF76A
S214003AD08FFA33460222E17AA07AFFF789FA606805
S214003AE03146FEF709F888F8007041462068FFF76F
S214003AF04FFC2268536F43F003035367936F617C58
S214003B0023F4F85323F01F030B43217C43EA0123DD
S214003B1003219367516785F83C7098F81930202B7D
S214003B202BD007D803B3102B09D02327384606B06E
S214003B30BDE8F081302BF8D185F83C1002E085F81E
S214003B403C603E4600230222617B207BFFF750FA52
S214003B502368A27CDA675A6E42F004025A665A6FED
S214003B6042F010025A675EB92068C36C43F0040343
S214003B70C3640521FFF7A2FBD8E7022385F83C3093
S214003B80E17BA07B00230422FFF732FA2368E17C66
S214003B90DA6F42EA0122DA675A6F42F020025A6769
S214003BA0E2E700BFD5390000C9390000453A0000F9
S214003BB04041050000350A00C36A1B691B0610B5A4
S214003BC0044610D5FFF7A6FE40B1E06AFFF798FC62
S214003BD001462046BDE81040FFF7ACBEE26AD36C53
S214003BE023F00403D36410BD00230B70704700005D
S214003BF030B50F4C41612368ABB92060836011E09B
S214003C00891A9A6841611D462AB113465A698A4242
S214003C10F6D955B11A46A8601346836013B15A699F
S214003C20511A596130BD0025F0E72060F5E700BF66
S214003C306813002010B500F05DFA0A4C0A4B1968AC
S214003C402368C31A01B10BB9206010BD4A699A42B5
S214003C502EBFD21A9B1A00224A6128BF0023896809
S214003C60F0E700BF541300206813002038B5134D4A
S214003C702B685B6993B1124A146802201C4400F05A
S214003C806DFA204600F03CFA0E492A6800230B70B5
S214003C90D088800709D501230B7038BD022000F0BC
S214003CA05DFA022000F080FAEEE79268002AF4D06F
S214003CB050690344012BEBD9EFE700BF68130020DF
S214003CC0541300205C13002070B516469DF814208F
S214003CD00271049A0260C0E903360022BDF818306B
S214003CE08260C38004460D4600F004FA3044A061AA
S214003CF03DB9E368656113B121682046984796B1DF
S214003D003546FEF76BFC0646FFF794FF294620462D
S214003D10FFF76EFF054B1B68A34201D1FFF7A6FF16
S214003D203046FEF75FFC002070BD00BF6813002021
S214003D300C490B6800227BB183420AD183687AB1B2
S214003D40936083681BB15A6941690A445A6100202E
S214003D5070471A469B68EEE70028EFD002207047AF
S214003D600B60EEE76813002070B5154EFEF73DFCBD
S214003D7034780546FCB9134B1C60134B1C60134B80
S214003D801C8000F071F9012000F0E8F900F02CFA30
S214003D900F4B0246186020B92846FEF72CFC23205D
S214003DA070BD23460B4840F2E7310CF0D5FE0A4BB7
S214003DB01860012333702846FEF71DFC0020EFE74D
S214003DC05013002068130020541300205E130020B8
S214003DD06413002018FCFFFF5813002038B50C466B
S214003DE0054698B191B100230B70FEF7FEFB084B19
S214003DF01B6801210BB122781AB1FEF7FCFB0020EC
S214003E0038BDAB4214BF9B682170F3E72220F7E76A
S214003E1068130020F0B587B01F4600230D461646EF
S214003E208DF817300446A0B10DF11701FFF7D6FF45
S214003E309DF817207AB9BDF8343002939DF83030DB
S214003E402946CDE9007320463346FFF73DFF07B00D
S214003E50F0BD2220FBE70320F9E7F0B587B01F4648
S214003E6000230D4616468DF817300446A8B10DF10E
S214003E701701FFF7B3FF9DF8173083B9BDF834304C
S214003E8002939DF830302A46CDE900732946334622
S214003E902046FFF719FF07B0F0BD2220FBE70220FF
S214003EA0F9E70000044B1B68584300F2E7304FF474
S214003EB07A73B0FBF3F070476413002000B58BB044
S214003EC001238DF80B30FFF7EDFF0023CDE900331B
S214003ED00146074A0DF10B0303A8FFF79BFF18B92D
S214003EE09DF80B30002BFBD10BB05DF804FB00BF38
S214003EF0E93B00000C4B1B68834270B50D4611D39E
S214003F000A4B40F2E7311E6800248C462146E0FB4F
S214003F1006C14FF47A72002360460CF01DFE28603E
S214003F20204670BD2120FCE75813002064130020B3
S214003F30C2072DE9F84F04460BD5464A13880133CD
S214003F409BB21380FFF776FE434B1B680BB1FFF75F
S214003F508DFEA3077CD5FEF748FB0546FFF76AFEF5
S214003F604FF0000A3C4FDFF8F8905646D0463C68C3
S214003F700CB163698BB1394B0022012E1A7003D144
S214003F80BAF1020F08BF1E70002C51D0FFF76EFE6C
S214003F902846BDE8F84FFEF72EBB23461A7921794E
S214003FA0914288BF1C469B6813B15A69002AF5D017
S214003FB02846FEF720FBD4F810A0BAF1000F3BD03D
S214003FC000F098F8A269851AEB17AA4578EB030368
S214003FD033DA23691344A36101222369D3B1CAB932
S214003FE0EB17BAEB050563EB4303002B04DA4FF43B
S214003FF081614846FDF766FAFEF7F7FA29468246DB
S2140040002046FFF7F5FDA36922691344A3615046D5
S214004010FEF7F1FAE368B4F806A0013613B121689A
S21400402020469847FEF7E1FA0546FFF703FE9EE7AF
S214004030022000F0A1F8ABE75546FEF7D6FA834615
S2140040402046FFF775FE5846FEF7D5FA0022C4E76D
S214004050BDE8F88F5E130020681300206013002070
S2140040605C3101000020704710B51E4B86B0186802
S214004070596803AA03C2197AD3F8090011700024FC
S214004080B3F80D200190DB7B1748ADF8082001211E
S2140040908DF80A30FDF730FD8DF80C40FFF7E2FF93
S2140040A08DF8100003A8FFF73FF801A901208DF84E
S2140040B00440FFF707F80D4A536A23F4FF6323F022
S2140040C00703536240F2FF73136201209460FFF708
S2140040D025F8074B4FF08042C3F880211A6006B0DF
S2140040E010BD00BFC2310100A0091400002004402A
S2140040F000E100E0014B9868704700BF00200440D4
S21400410010B50446FEF76AFA124A9368516D926932
S214004110520704D4CA1A032A01D88B420DD1E21AD8
S214004120022A98BFDC1C0B4BB4F1FF3F38BF013CA2
S2140041305C655A6A42F004025A62FEF753FA064A6F
S214004140137833B103490B6D43F002030B6500236C
S214004150137010BD002004401E1000208207054A80
S21400416000F00103516A48BF43F004030B43536257
S214004170704700BF00200440820700F0010309D505
S214004180074A0121117007490A6D22F0030243F025
S21400419004030A6503494A6A22EA03034B6270472E
S2140041A01E10002000200440830742BF014B04225B
S2140041B0DA6170470020044010B5FEF716FA094A87
S2140041C093690446590703F0010003F0070348BF4C
S2140041D040F002001362FFF7ABFE2046BDE8104039
S2140041E0FEF709BA0020044008B50448FDF712FEA1
S2140041F00346FFF737FF23FA00F008BDA0091400B6
S21400420008B50BF0A9FB0BF0F5FB0BF0FAFB0BF077
S21400421001FCBDE808400BF0FEBB08B50BF0FDFB4B
S2140042200BF0FCFB0BF0FBFBBDE808400BF0F8BB0B
S21400423010B50446FDF7B8F94FF47A729042B0FB19
S214004240F2F105D23621BDE810400B48FDF73AB929
S2140042500A4BB3FBF1F30A49884201D93C21F2E745
S21400426002FB04F0B0FBF3F0032804D9BDE81040CD
S214004270800800F00DB810BDD231010040420F009A
S214004280E7CD9A3B000000000000000000000000A0
S214004290013800D0FCE770472DE9F043DDE90B84D8
S2140042A0A568AC07DDE9097E03D1BDE8F04300F060
S2140042B07EBB6FF00200BDE8F0838B68C068584391
S2140042C04B6858438000704730B5D86884078BB079
S2140042D028D10C6934BB4C6924BB8D68012D21D1D3
S2140042E0CD68012D1ED14D6A08950D6A07954D685B
S2140042F006950968CDE904011399C9680391D3E9C5
S21400430001011B68414359430291536801931368A6
S2140043100093129A149B10990E9802F0C3FC204644
S2140043200BB030BD6FF00200FAE7002070470000C7
S2140043302DE9F04FADB01C46DDF8DC90DDF8EC80E2
S2140043401746D9E901230D46E16853434B43B3F5BD
S214004350007F064680F29E810368002B00F0848072
S214004360D9F808200792D9F804200E92D8F8082029
S2140043701592D8F804201692D8F80C2023680F92CD
S214004380B5F9202022931792A368B5F92420069346
S214004390189263683A68149319927A6806991A9282
S2140043A0149AE368D6F800A04A435A435200209273
S2140043B0DDE915214A430F994A4352002192079995
S2140043C00E9A4A435A4309920AEB820206991E92B3
S2140043D0EA6812924A435A43296952001F926A6950
S2140043E013924A4213982492069A424352424FEA44
S2140043F0430B0798521A0E990BFB02F2299211FBF7
S21400440000F1099A11FB03F1C2F38F0201F00301D8
S2140044101D9101EB82011C91389901EB82010AEB98
S214004420C2022892AA681B925A4352002392069A06
S214004430269153435B00259320EAE0730BFB03F3BE
S214004440279300230A930A9B229A934280F227819D
S214004450369B299A13440893139B5F423C9B0B930D
S214004460002354460C933FE04946204600F098FA55
S21400447000287FF775AF4FF0FF300DE1109B1193CA
S214004480079B43443D462A932B9BAB425EDC1E9B18
S214004490A34213D10B9B05933A9B0493099B03936A
S2140044A0189B0293179B0193199B00930F9A1A9BD4
S2140044B03898514602F0FEF854460B900D9B239A0E
S2140044C001330D93109B134410931B9B98440D9B34
S2140044D0159A9342D2DB0C9B1F9A01330C93089BD0
S2140044E013440893129B1F440C9B169A934232DA8D
S2140044F0089B109300230D930E9BDDF890803B44A1
S2140045002B93E4E7002D07DB149A954204DA002E7D
S21400451002DB069A964213DB5A46002118460CF038
S21400452085FD03465B440136D9442A9AB242E9DC4B
S214004530279B259A1C44119B134401351193A3E72E
S2140045405A46494618460CF063FDEAE7DDF8449003
S21400455046462346E9E7544540F09280369B209A2B
S21400456013443693219A3C9B13443C930A9B013395
S21400457068E756F8042B2FFA92FC2FFA82F2CCEA60
S2140045802247C2EA0C42D4F800C022FB0C32636811
S214004590083427FB032386420246EAD11D9E289C48
S2140045A00644B24247D11C9A1544199A52F8214043
S2140045B01A9A52F821603A9A002A43D03A9A02EBA5
S2140045C0C107744552F831207F68DABF04F500440D
S2140045D0241447F6FF749A1847EBE377E317534320
S2140045E004FB0733A2FB04421344C6F10E02123644
S2140045F0B2F1200724FA02F403FA06F644EA0604A7
S2140046005CBF43FA07F73C4301346710179B9F4291
S214004610B8BF1F46189B9F42A8BF1F460B9B23F898
S21400462011701C9B013118440F9B994296DA544630
S2140046302E460023AFE712F9017B34F802CB1CFBB1
S2140046400733AEE726EAE672002E3A9FC8BF3A9EC8
S21400465003FA02F34A46C3FB0427D8BF7642D20FBA
S21400466008FA06F342EA4707013B07EA030C37411C
S2140046704FEA630348BF01339C45C8BF0137C5E70F
S2140046802698389DDFF81CE000214FF080494FF057
S2140046900108C9E76FF002002DB0BDE8F08F0020DA
S2140046A0FAE700BFFFFFFE7F8B68C06858434B6881
S2140046B058438000704700002DE9F04FB1B0D1E9B3
S2140046C0069C3B9D3F9CAE686D681795A5680F9548
S2140046D06568E46806940C6919944C691A948C68A9
S2140046E01B94CC681C940C6A496A1868229111685D
S2140046F020900596D86818952194239152682492A4
S2140047009A685B68149304921346149A534343437F
S2140047100F9A5B001E932B465343069A53435B0047
S2140047201F93179B734343432B93069B5B002A936D
S214004730049B43430CFB03F3289306FB00F32993E7
S21400474000FB09F32793002308931A9B63442E93D8
S214004750199B4B442F93089B209A9342C0F21781D3
S214004760002031B0BDE8F08F239B8B4953F82230F0
S2140047708B42DCBF03F500434FEA234A1A9BC3F182
S214004780000309932E9B03F1FF3B3E9BC8BF47F6F1
S214004790FF7A03EBC2031D934FF000084FEAEA735B
S2140047A0CDF828802D930A9B18998B4211DB2B9B02
S2140047B001329E44069B9A42D6DB3A9B1E9A1344CD
S2140047C03A931F9A409B13444093089B01330893E7
S2140047D0C1E7199B40995B420B93069B03FB08239A
S2140047E001EB430313932F9B013B079300230C938A
S2140047F0149B5B442C930C9B0F998B420BDB099B01
S2140048001C990B4409930A9B01330A930F9BABEB4D
S214004810010B9844C7E7179D079B93FBF9F323EA20
S214004820E37303932C9B93FBFCF3AB42A8BF2B468E
S2140048302593079D049B049E9BFBFCF12B44059D42
S21400484093FBF9F3AB42A8BF2B462693099B0B9D1F
S214004850039C21EAE17101FB0C3306FB035304FBC6
S2140048600933059D434305FB0145109300240023AF
S214004870CDE9003400FB05E5259EB142C0F28180FB
S2140048803E9B53B11D9B009C1B681D99E31849680D
S214004890019C41EB0401CDE90031019B009C0AFB21
S2140048A003F12D9B03FB0411AAFB04342144249C32
S2140048B054F82240C4F10E061234B6F1200501FA6F
S2140048C004F423FA06F358BF41FA05F543EA040355
S2140048D058BF2B43219901335B108B42B8BF0B4660
S2140048E022998B42A8BF0B4613990B800B9B1B99F2
S2140048F00B440B930C9B2A9901330C93139B0B448C
S21400490013931B99079B5B1A079374E7129F3A9EB3
S21400491006EB47061696119F3C9E3E4415960026CB
S2140049200E960E9E864215DB0D9E279F01360D962F
S214004930129E3E441296119E064411960D9E269F88
S214004940BE42E3DB289E109B3344299E1093013120
S214004950354491E7169E374637F9026B169733466D
S214004960159E374617F9016B1597344627461E469F
S214004970DDE90034C6FB87340E9ECDE900340136EF
S214004980CEE7109B1293039B11950D93D6E74FF03D
S214004990000E72460EE700BFFFFFFE7F0020704746
S2140049A08B68C06858434B685843800070472DE9B1
S2140049B0F04F2DED028BD0F800A0B5B08846459D8F
S2140049C041991C46BAF1000F05D11846FFF7E8FFDB
S2140049D0002800F38681EE68B4F80890E068236843
S2140049E02893B7B208EE107AD8F810702297D8F845
S2140049F000702997D8F804701797D8F82070189781
S214004A00D8F824701997176852681B92AA881692CD
S214004A10A28815921FFA80FB02FB09F20BFB02F23A
S214004A2027922A891C92B2B2169C1D921C9A1A973B
S214004A30D1E90113624318EE104A624325928AB206
S214004A401E929AB21192119C1E9A13FB01F35443C4
S214004A5013FB00F399B204FB0BF203F00303269159
S214004A600AEB8201C2F38F02209303EB82031F93AB
S214004A70429B249103EB82034FEA4B0108912D934E
S214004A800AEBC2033093089BB8F80C10119A1491E5
S214004A90634301FB09F12E93089B2C91B8F8141080
S214004AA02191534301FB09F12F93002349420B93B5
S214004AB0B8F80830239132930B9B289A934205DB73
S214004AC0002035B0BDEC028BBDE8F08F219B5B4229
S214004AD01293B8F81C30139309FB03F32A93239B15
S214004AE01093469B0F9300230C93B8F8183031931D
S214004AF054460C9B169A934240F08880A24540F09C
S214004B00EA80409B279A13444093259A469B134479
S214004B1046930B9B01330B93CEE7329BBDF8882060
S214004B200E946B439B1A2B93129B0A93109B09932C
S214004B3000230D930D9B1E9A934239D00E9FBDF90C
S214004B40A430002615E0159A0A998A4207D92B9AAE
S214004B50319906FB0120002801DB81451CDC089A00
S214004B603393002138460CF061FA089A339B1744B9
S214004B700136119A9642E6DB0E9B2F9A13440E934B
S214004B800D9B2A9A01330D93099B13440993139A9C
S214004B900A9B13440A93CDE7099A339300EB020C61
S214004BA040985A4639460BFB0C0002F049FDDCE7FC
S214004BB02E9B1C44249BA34218D10F9B0693449B18
S214004BC00593269B0493BDF964300393BDF96030CA
S214004BD00293179B01931A9B009318EE102A1B9BB7
S214004BE04298514601F0E4FA54460F9001351C9B5A
S214004BF09D4292DB0C9B2C9A01330C93109B134422
S214004C001093149A129B1344129372E70025EEE752
S214004C10449B002B43D053F8212054462E46864210
S214004C2003463ED1209E309C0644B3424CD11F9B87
S214004C301D441B9B53F8216026EAE6739A401A9B94
S214004C4053F82130002E4FF080444FF00007C2FB8F
S214004C500347D4BF76420026E40F0EFA06F344EA72
S214004C604707013B07EA030237414FEA630348BFA1
S214004C7001339A42179BC8BF01371F44189B9F42B7
S214004C80B8BF1F46199B9F42A8BF1F460F9B5F5485
S214004C901F9B013118441D9B9942B9D131E7449AB4
S214004CA0BBE756F8043B2FFA93FC2FFA83F3CCEAC3
S214004CB02347C3EA0C43D4F800C023FB0C236268E6
S214004CC0083427FB0232AAE713F9017B34F802CB3B
S214004CD01CFB0722A9E72D98429D00214FF0010EEC
S214004CE0D9E74FF0FF30ECE62DE9F04F85B0DDE96F
S214004CF00E7C109D0295119D0395DCE901657543B8
S214004D00DE68DDF8509001937543B5F5007FDDE968
S214004D1012BA86460C4690460ADA8D69012D07D1EE
S214004D20CD69012D04D105B0BDE8F04FFFF700BBFB
S214004D30039B1193029BCDF848B0CDE90FC3019BAE
S214004D400E97424621467046CDE913A905B0BDE848
S214004D50F04FFFF7B1BC10B4044608461146D2E93E
S214004D6001235343C2685343B3F5007F09DAA369AE
S214004D70012B06D1E369012B03D15DF8044BFFF745
S214004D8093BC5DF8044BFFF709BE2DE9F74F0C9E68
S214004D900096DDE90D6701970F69DDE90FBADDE9D9
S214004DA011C986460C4690461D46DFB94F69CFB9F5
S214004DB0DF68BF0716D18F68012F13D1CF68012F88
S214004DC010D1B768012F0DD17768012F0AD18F69EE
S214004DD0012F07D1CF69012F04D103B0BDE8F04FF2
S214004DE0FFF772BADCF80430012B24D16B68012B74
S214004DF021D17368012B1ED1DCF808309B071AD12D
S214004E002B68012B17D1A369012B14D1E369012B61
S214004E1011D1019BCDE90D63009B0C9342462B46B6
S214004E2021467046CDE911C9CDE90FBA03B0BDE8F9
S214004E30F04FFFF731BA019BCDE90D63009B0C9351
S214004E4042462B4621467046CDE911C9CDE90FBA38
S214004E5003B0BDE8F04FFFF7AABD10B404460846FD
S214004E6011462269D2B96269C2B9C268920715D1E1
S214004E70A268012A12D1E268012A0FD18A68012AA3
S214004E800CD14A68012A09D1A269012A06D1E26931
S214004E90012A03D15DF8044BFFF747BA5A68012A86
S214004EA015D14268012A12D14A68012A0FD19B689F
S214004EB09B070CD10368012B09D1A369012B06D1EE
S214004EC0E369012B03D15DF8044BFFF7F6B95DF8F3
S214004ED0044BFFF765BD2DE9F04FA9B0CF68379EAC
S214004EE00C970F691697576812681C92B268219241
S214004EF072684C6922924A6898680B941B978C6972
S214004F004F6A05920A68896A1A9007915868F1688C
S214004F10DB68339D06978B4240F06E820B99012921
S214004F2000F36D82A968032940F069826968032945
S214004F3040F06582614209911A990E945943129184
S214004F405900089103EB43011791011918910B9929
S214004F5049421D910C99594324911D99002B01FB40
S214004F6003F1239123F00301B8BF0021119111989A
S214004F70591A8342B8BF0021259100210A91139146
S214004F80D91E279113992298814203DB002029B06D
S214004F90BDE8F08F0999129C00290E99C8BF002120
S214004FA00D910D9809990144239804FB0101109175
S214004FB00B981A99179C199001440F911D991491FA
S214004FC000210D981591349904FB00111F91189932
S214004FD00329A8BF032120911599219881420DDB52
S214004FE016980999014409911399013113910E9964
S214004FF0091A0E911899091A1891C3E714990A9874
S21400500000291999C8BF00211E91389901440391BF
S214005010DDE91B1602913699019100211098049142
S21400502032990144269127990498814224DC1198EC
S2140050300A99109C01448C46389901EB0C0E0146E7
S214005040329800EB04089942C0F2798125990C98B1
S21400505061440A91149901441491159901311591EE
S2140050601999091A199124981099014410910C98CD
S2140050700F99091A0F91AFE70199269FDDF8349032
S214005080D1E90054D1E9020100913946049F01EBB1
S214005090070E1F9F3946049F01EB070820994945D4
S2140050A000F3DF800299D1F800C02CEAEC77BD400F
S2140050B037684FF0804E4FF00008C5FB07E84FEA10
S2140050C0DE77BCF1000F47EA48084FF00101D4BF75
S2140050D0CCF10007002701FA07F5013D58FA07F75B
S2140050E008EA050E45FA01F548BF6D180299AE4567
S2140050F0D1F804E02EEAEE7504FA05F475684FF070
S21400510080484FF00009C4FB05894FEAD87CC8BF29
S2140051100137BEF1000F4CEA49094FF00101D4BF38
S214005120CEF1000C4FF0000C01FA0CF4013C59FAD9
S2140051300CFC09EA040544FA01F448BF6418029915
S214005140A5428D6825EAE57400FA04F0B468C8BF85
S2140051500CF1010C4FF0804E002D4FF00008C0FB04
S21400516004E84FF00101D4BF6D42002501FA05F0B6
S2140051704FEADE7E4EEA4808013858FA05F508EA96
S214005180000440FA01F048BF401802998442CC68F7
S214005190009924EAE47001FA00F1F0684FF0804EBE
S2140051A04FF00008C1FB00E8C8BF0135002C704670
S2140051B04FF00101D4BFC4F1000E4FF0000EC00F37
S2140051C001FA0EF140EA4808013908EA010458FAE3
S2140051D00EF84FEA610148BF01318C4205990F4431
S2140051E00699C8BF08F101088F42B8BF0F46059957
S2140051F08C4406998C45B8BF8C4605990D44069993
S2140052008D42B8BF0D460599884406998845B8BFB3
S214005210884607998F42A8BF0F4603990F700799D3
S2140052208C45A8BF8C46039981F801C007998D422A
S214005230A8BF0D4603998D7007998845A8BF884674
S214005240039981F803800499043104910399043189
S2140052500391029910310291019910311036019193
S214005260E1E61E9FFFB9DEF80070D8F800C000998E
S21400527042FA87FA4FFA8CFB0BFB0A5547F3072ACC
S2140052804CF3072B92440BFB0A4447F3074A4CF3B4
S214005290074B02EB27674FEA2C6C92440CFB071176
S2140052A00BFB0A0000915EF8037058F803C00099E3
S2140052B042FA87FA4FFA8CFB0BFB0A5547F3072A8C
S2140052C04CF3072B92440BFB0A4447F3074A4CF374
S2140052D0074B02EB27674FEA2C6C0CFB07110F9F5E
S2140052E000919244022F0BFB0A0021DD0899089FCB
S2140052F051F808C057F80E70009942FA87FA4FFA2C
S2140053008CFB0BFB0A5547F3072A4CF3072B9244FA
S2140053100BFB0A4447F3074A4CF3074B02EB27679D
S2140053204FEA2C6C92440CFB07110BFB0A00009111
S21400533012998E44179909F101098844AEE6369809
S2140053401F9D50F821000D9E08EB01040D44209F80
S214005350B74230DC1B9C54F8216026EAE674A04075
S2140053601C9C54F82140002E4FF080454FF000075B
S214005370C0FB0457D4BF764200260120ED0FB04094
S21400538045EA4707013807EA000437414FEA60005C
S21400539048BF013084420598C8BF013707440698C5
S2140053A08742B8BF074607988742A8BF07460EF849
S2140053B0017B013147E61E9F37B994F9007095F9D5
S2140053C00090174409FB0700E75615F903901744A9
S2140053D009FB07000F9F022F08DD089FE75707EB22
S2140053E0020A089F15F9079009FB0A00129F3C4421
S2140053F0179F01363D44AAE76FF00200C7E54FF05D
S214005400FF30C4E52DE9F04FC869D1F82090B7B059
S21400541084B22C941FFA89F42D948C6801941C682D
S214005420419D1D949C681E945C68DB680493AB6881
S2140054301F936B6823934B690E93CB680593DDE946
S21400544044A60B690F935368249313688D692593BC
S214005450B3682693736827934B6806930B68289364
S2140054604B6A07938B6A0893019B13F0030340F083
S214005470D9811D9A012A40F0D581012840F0D281B9
S214005480B9F1010F40F0CE81F26809926A4209999B
S2140054900A921F9A0D954A43209204991E9A0C93DD
S2140054A04A43219262191D920E9A179352422292F3
S2140054B0059A4A432F920A4622994A433092019906
S2140054C0019A033102F1030222F00302B8BF002260
S2140054D02E92179B279A934203DB002037B0BDE835
S2140054E0F08F0A9B0E9A002B0D9BC8BF00231593C6
S2140054F01E9B13441893159A0A9B1344219A5343F0
S2140055002993159A209B53432A93309B14930E9B02
S2140055101993229B11930023239A16931D9B934263
S214005520A8BF13463393169B269A93420DDB0F9A19
S2140055300A9B13440A93179B013317930D9B9B1AE0
S2140055400D931D9B9B1A1D93C3E7119B149A002B6A
S214005550199BC8BF00231093299B109913441A93D4
S214005560099A2A9B01FB02332B930A46409B049917
S21400557001FB0233189A1F992D938A42A8BF0A4648
S21400558000233292099A9A4240F33A810C99469A3D
S2140055900A442499039201EB830102912B99259AE0
S2140055A019442C91002102EB83020AEB83080B912D
S2140055B0DDE0BAF1000F00F0E980D8E90065D8E92F
S2140055C0024E2C991B9115990B9812914299DDF871
S2140055D068C001443191339912988842C0F2DB804A
S2140055E00299086820EAE0718E4011684FF0804703
S2140055F04FF0000CC6FB017CFE0F002846EA4C0C60
S214005600D4BF4642002609FA06F101395CFA06F6CE
S2140056100CEA01074FEA610148BF01318F42029947
S214005620486820EAE07105FA01F551684FF08047B6
S2140056304FF0000CC5FB017C4FEAD775C8BF01369A
S214005640002845EA4C0CD4BF4542002509FA05F16E
S21400565001395CFA05F50CEA01074FEA610148BF1B
S21400566001318F420299886820EAE07104FA01F459
S21400567091684FF080474FF0000CC4FB017C4FEA66
S214005680D774C8BF0135002844EA4C0CD4BF444246
S214005690002409FA04F101395CFA04F40CEA010763
S2140056A04FEA610148BF01318F420299D068CF6846
S2140056B027EAE77C0EFA0CFCC8BF01344FF08041A5
S2140056C0002F4FF0000ECCFB001ED4BF7F420027F9
S2140056D0C90F09FA07F041EA4E0E013806990EEA9C
S2140056E0000C5EFA07FE4FEA60000E4448BF013029
S2140056F007998445C8BF0EF1010E8E42B8BF0E460C
S21400570008998E42A8BF0E4603990E7006990D445E
S21400571007998D42B8BF0D4608998D42A8BF0D4621
S21400572003994D7006990C4407998C42B8BF0C46F5
S21400573008998C42A8BF0C4603998C7006998E4433
S21400574007998E45B8BF8E4608998E45A8BF8E46E7
S214005750039981F803E00B9904310B910399043106
S2140057600391029910311032029108F11008019944
S2140057700B9881423FF71DAF0C9A2E990A440C9263
S214005780019A13441A9A01321A92FBE6D6465446F8
S2140057905546564615E72D991B9861441C9131993C
S2140057A00144109813901398329FB84209DB12995F
S2140057B02098013112911B9901441B9121998C4428
S2140057C009E71C9891F900B090F9007028983844C1
S2140057D000FB0B6691F901B0049F00FB0B5591F995
S2140057E002B000FB0B4491F903B000FB0BEE1398DC
S2140057F0013013901C9838441C9009980144D2E755
S214005800059A119B13441193169B01331693199B0B
S2140058109B1A1993189B9B1A18932F9A149B134440
S214005820149380E6ABB22993BDF814302A93BDF8E2
S2140058303C302B93BDF878300993099ABDF810E0F8
S214005840A3B2199353430EFB03F32E93BDF8043013
S21400585015930EFB03F30293029ABDF898301A9341
S21400586053431C931C9ABDF89C301B9353432793B9
S214005870099B1FFA89F903FB09F31FFA80F82293A4
S21400588008FB0EF330930023059314930E9B5B42A4
S2140058909BB23593BDF88C302193BDF87430059AD1
S2140058A093427FF71AAE299B5B429BB20D93149BE3
S2140058B0139300230E93BDF87C300A932CE0BDF9B9
