S02B00006275696C642F72656C656173652F74666C6974655F6D6963726F5F68656C6C6F5F776F726C642E73E9
S3150800000000100020C1030008BD030008BD03000856
S31508000010BD030008BD030008BD030008BD030008B2
S31508000020BD030008BD030008BD030008BD030008A2
S31508000030BD030008BD030008BD030008BD03000892
S31508000040BD030008BD030008BD030008BD03000882
S31508000050BD030008BD030008BD030008BD03000872
S31508000060BD030008BD030008BD030008517B020854
S315080000705D7B0208BD030008BD030008FD0A0008F1
S31508000080BD030008BD030008BD030008BD03000842
S31508000090BD030008314C0008BD030008BD03000875
S315080000A0BD030008BD030008BD030008BD03000822
S315080000B0BD030008BD030008BD030008BD03000812
S315080000C0BD030008BD030008BD030008BD03000802
S315080000D0BD030008BD030008BD030008BD030008F2
S315080000E0BD030008BD030008BD030008BD030008E2
S315080000F0BD030008BD030008BD030008BD030008D2
S31508000100BD030008BD030008BD030008BD030008C1
S31508000110BD030008BD030008BD030008BD030008B1
S31508000120BD030008BD030008BD030008BD030008A1
S31508000130BD030008BD030008BD030008BD03000891
S31508000140BD030008BD030008BD030008FD7D0008C7
S31508000150BD030008BD030008BD030008BD03000871
S31508000160BD030008BD030008BD030008BD03000861
S3150800017010B5054C237833B9044B13B1044800E095
S3150800018000BF0123237010BD60120020000000008C
S315080001907089030808B5034B1BB10349034800E0FF
S315080001A000BF08BD00000000641200207089030823
S315080001B0A3F5803A704700BF174B002B08BF134BB7
S315080001C09D46FFF7F5FF00218B460F461348144A54
S315080001D0121A29F0A4FD0E4B002B00D098470D4BA0
S315080001E0002B00D098470020002104000D000D4880
S315080001F0002802D00C4800E000BF29F09DFC200032
S31508000200290027F007FE29F0BBFA00BF0000080006
S31508000210000000000000000000100020601200200E
S315080002200841002000000000000000000F20704771
S3150800023008B501213A2005F029F827F0FDFBBDE8AD
S31508000240084000F015B801213A2005F01FB8000053
S315080002500122024BC3F8A020704700BF00D003401C
S315080002600122024BC3F8A020704700BF00E00340FC
S3150800027070B5454C8EB0264601AD0FCE0FC5336816
S3150800028014342B6006AD0FCC0FC594E80F0085E833
S315080002900F0001213A2004F0F9FF0121572004F04C
S315080002A0F5FF4FF48073394DADF81C30384B2846AE
S315080002B0039301A906AB059306F0B8FB01230422B4
S315080002C00321022006F00EFD022100230846012222
S315080002D006F008FD012304221946022006F002FD55
S315080002E0042200210123022006F0FCFC294C2A4B9B
S315080002F04FF44870C4F8C8344FF00213C4F8C43435
S3150800030003F58033C4F8CC341C23C4F8B43407F09E
S31508000310ABFD1420FFF7A4FF07F0A6FD2320FFF787
S3150800032097FF07F0A1FDB9212846FFF799FF06F0C8
S31508000330D6F8FFF78DFF002303211A46022006F0A0
S31508000340D1FC002302211A46084606F0CBFC0123FD
S3150800035000221946022006F0C5FC00220123114698
S31508000360022006F0BFFC284606F04EF8002157206A
S31508000370C4F8C814C4F8C414C4F8CC14C4F8B41423
S3150800038004F084FF0EB070BD74FC020800000A4039
S31508000390E070720000C003400200010005490A68C7
S315080003A01318054883428CBF4FF0FF320B60104686
S315080003B0704700BF0410002000000420FEE700007C
S315080003C008B500F013F8064B064A07498B4201D3D5
S315080003D0FFF7F2FE52F8040B43F8040BF6E700BFEA
S315080003E0001000207889030860120020044B054A93
S315080003F09A60D3F8882042F47002C3F888207047C0
S3150800040000ED00E000000008014B1868704700BFC7
S315080004100C100020084B1B6F03F00703022B04D0B7
S31508000420032B05D0012B05D0FEE7044B186870474F
S31508000430034BFBE703487047008000400C10002080
S3150800044010100020002D310108B5FFF7E3FF054B1A
S315080004501B6FC3F303330133B0FBF3F0024B186091
S3150800046008BD00BF00800040081000200048704703
S3150800047000B4C404014B1868704700BF1010002070
S31508000480054B1860054B1B6F03F00703032B01D1BF
S31508000490FFF7DABF704700BF101000200080004049
S315080004A00020704700487047002D31014FF09443F3
S315080004B09868C0F304400C2822D8DFE800F0092128
S315080004C021212121071719211B1D1F000F487047DD
S315080004D09B6803F04073B3F1807F13D0B3F1007FBC
S315080004E012D00B4A002B08BF1046704709487047C0
S315080004F009487047094870470948704709487047CE
S31508000500002070470848704708487047405DC60095
S3150800051000093D000024F400C0EA210180BA8C01DC
S315080005200048E801005A620280841E0040420F001B
S315080005304FF4004070474FF47A707047014B1868C3
S31508000540704700BF14100020044B054A043850F8C1
S31508000550041F43F8041B9342F9D170476400004D09
S315080005607801004D10B5084C237A53B9E360074B60
S31508000570236002F0C1FF4FF40042054B1A600123C5
S315080005802372002010BD00BF18100020490500087E
S3150800059000E100E0092370B50C460546084EC0F890
S315080005A0103133690133336102F0A8FF214628462A
S315080005B0336898470CB102F0A3FF002070BD00BF56
S315080005C01810002002F09CBF0729F8B505460C460E
S315080005D010EE107A10EE906A03D9BC21044804F094
S315080005E061FB05EB840325F824705E80F8BD00BF27
S315080005F0A8FC020807EE903AF8EEE70A07EE902AFA
S31508000600B8EEE70AF3EE600AB3EE400AFFF7DCBF7E
S3150800061007EE902A40F20003B8EEE70A00EE903A99
S31508000620B3EE400AFFF7D0BF07EE903AF8EEE70AB6
S3150800063007EE902AB8EEE70AF3EE600AB3EE400A30
S31508000640FFF7C2BF40F2000300EE903AFFF7BCBFC7
S31508000650F3EE600AB3EE400AFFF7B6BF2DE9F84F8E
S31508000660042907460C4693469946BDF82880BDF8E6
S315080006702C60BDF83050DDF838A003D9D7213248B0
S3150800068004F010FBB8F5806F03D9D8212E4804F082
S3150800069009FBB6F5806F03D9D9212B4804F002FB74
S315080006A0B5F5806F03D9DA21274804F0FBFA0D9BCC
S315080006B003F50063B3F5805F03D3DB21224804F01A
S315080006C0F1FA0AF50063B3F5805F03D3DC211E480F
S315080006D004F0E8FA0F9B03F50063B3F5805F03D3D4
S315080006E0DD21194804F0DEFA184B0F99013E013D49
S315080006F003EA0A4A03EA0141C6F30906C5F30905EE
S3150800070007EB041246EA0A060D439662D5620D9A6D
S3150800071008F1FF3803EA02434FEA093202F440526D
S315080007201343C8F3090843EA0803023419F0040F0F
S3150800073007EB041218BF43F480432401536047F8BB
S3150800074004B0BDE8F88F00BFA8FC02080000FF0F40
S3150800075030B50124002587B0CDE904540395BDF8CA
S3150800076028500094CDE90145FFF778FF07B030BD62
S3150800077070B50124002686B0BDF82C50CDE9045486
S31508000780CDE90256BDF82850CDE90045FFF766FFCA
S3150800079006B070BD2DE9F041072904460E461546F8
S315080007A01F469DF8208004D940F21F110B4804F01B
S315080007B079FADDE906320C2101FB06411343C1F83B
S315080007C0B070C1F8B4302A05B8F1000F03D1C1F8EA
S315080007D0B820BDE8F08142F00042F8E7A8FC02081C
S315080007E02DE9F041072906460C46154698469DF818
S315080007F0187004D940F23111214804F053FA013D2A
S31508000800ABB2B3F5806F04D34FF499711C4804F06A
S3150800081049FAB8F1070F04D940F23311184804F021
S3150800082041FA072F04D94FF49A71154804F03AFA99
S315080008300C20079A04F10E0345EA023500FB08620C
S31508000840B84546F833504FEA4404D2F8B85007D1B1
S31508000850032101FA04F42C43C2F8B840BDE8F0813C
S315080008600123A3402B43C2F8B830022300FB0766D6
S3150800087003FA04F4D6F8B8302343C6F8B830EDE7DF
S31508000880A8FC020837B50446D0F87002062804DD2D
S315080008900AB12123136003B030BD4B1EB3F5806F38
S315080008A0F6D200250130C4F87002CDE900558AB2A7
S315080008B02B46C1B2D4F86802FFF792FFD4F870222B
S315080008C0D4F8683202F10E0103EBC1035D60D4F877
S315080008D07832D4F87402591C9333C4F8781244F861
S315080008E02320012304EB8004520003FA02F2D4F811
S315080008F02C321343C4F82C32CDE74FF0FF332022B5
S31508000900C0E99C33C0F87832002100F50A7029F056
S3150800091006BA30B5D0F8744285B0062C099D04DDB8
S315080009200DB121232B6005B030BD00250134C0F878
S3150800093074420295089DCDE900351346D0F8680241
S315080009400A46E1B2FFF726FFEDE72DE9F043042951
S31508000950BDF81C50BDF82060BDF82470DDE90ACE4C
S31508000960DDE90C8404D90CB121232360BDE8F083AA
S31508000970B5F5806F14D8B6F5806F11D8B7F5806FC6
S315080009800ED80CF50069B9F5805F09D20EF5006935
S31508000990B9F5805F04D208F50069B9F5805F03D31D
S315080009A0002CE3D02823E0E7CDE90BE8CDE9097C64
S315080009B0CDE90756BDE8F043FFF750BE70B588B0DD
S315080009C0BDF83450BDF838400F9ECDE9054604FB06
S315080009D005F604960126CDE90256BDF83050CDE954
S315080009E00045FFF7B2FF08B070BD30B589B00D9C61
S315080009F00025069401240395CDE90454BDF830502A
S31508000A000094CDE90145FFF7A0FF09B030BDD0F845
S31508000A10783210B503F1920150F821400221D0F83E
S31508000A207422640000EB820201FA04F4D2F8281258
S31508000A30013B2143C2F82812C0F8783210BD0000E5
S31508000A40F8B500210C250446D0F8743200F50A766C
S31508000A50DFF854C0D0F868028B4217DA05FB0303A7
S31508000A6093F8BB20002142F0800283F8BB20FFF7F1
S31508000A7091FD4FF48A72D4F86C3283F00103C4F8FE
S31508000A806C3202FB0343C4F86832F8BD05FB010764
S31508000A90D7F8B82056F804EB02EA0C0242EA0E022E
S31508000AA0C7F8B8200131D7E70000FFFF0023C0E9E7
S31508000AB09A037047D0F8783210B5933350F823402C
S31508000AC0D0F86832033103EBC403186F890002FAC1
S31508000AD001F10843186710BDD0F8783210B5933382
S31508000AE050F82340D0F86832033103EBC403586F3B
S31508000AF0890002FA01F10843586710BD4FF09A427F
S31508000B0010B5D469136A1C40E1070DD50121124BB3
S31508000B10D961124B506919680144196091695A687C
S31508000B200A445A6002F0EEFC620308D54FF48022AC
S31508000B30094BDA61094A136803F1807313602303CA
S31508000B4008D54FF40022044BDA61044A536803F1CE
S31508000B508073536010BD00BF0020004D7C1200203A
S31508000B602DE9F04F12F1800F04460D4616461F4632
S31508000B7085B001D17F2B05D0A02D11D8204661194B
S31508000B80814202D105B0BDE8F08F90F900309E424F
S31508000B9002DD06700130F3E79F42B8BF0770F9E738
S31508000BA04FF0000840F20A293346324600213A48F7
S31508000BB0FFF720FD3B463A4601213748FFF71AFD65
S31508000BC0434642464146CDE901883348CDF8009070
S31508000BD0FFF7E0FD40F20B23304A0121CDE9003250
S31508000BE02D4840F2D5122E4BCDF80880FFF7D2FDDE
S31508000BF001212C4B40F2D512CDE9013126480221BC
S31508000C00294BCDF80090FFF7C5FDDFF88C80B5F5C8
S31508000C10006FAB4628BF4FF4006B2BF0030A4FEA70
S31508000C205A091FFA89F92246052300214046CDF8BC
S31508000C300090FFF78DFD2246052301214046CDF899
S31508000C400090FFF785FD002102234046CDE90031DB
S31508000C50CBF38F020123FFF7C3FDA5EB0A0501219C
S31508000C604046FFF797FC9F2D5444D0D84DB12046F7
S31508000C70611910F9013B9E4208DD00F8016C8142BA
S31508000C80F7D105B0BDE8F04FFFF79CBC9F42B8BF4F
S31508000C9000F8017CF3E700BF841200200000A021C1
S31508000CA0000102200000B021000103302DE9F04FB9
S31508000CB0044687B0002800F0FE80436A00210593A9
S31508000CC04368D0F800A01A46D0F80C9087697B488C
S31508000CD0FFF7AAFCD4ED020A0121B0EE600A7748B4
S31508000CE0FFF7B6FC236902211A467448FFF79CFCF5
S31508000CF0D4ED050A0321B0EE600A7048FFF7A8FC98
S31508000D00E36904211A466D48FFF78EFCD4ED080AFC
S31508000D100521B0EE600A6948FFF79AFC002540F203
S31508000D200E234FF4A772294664480093CDE901556E
S31508000D30634BFFF72FFD40F297120121614B5F4885
S31508000D40CDE901550095FFF725FD40F21F234FF425
S31508000D50A772022159480093CDE901555A4BFFF76E
S31508000D6019FD40F297120321584B5448CDE9015515
S31508000D700095FFF70FFD4FF4A7720421544B4F4817
S31508000D80CDE901550095FFF705FD0122514B0521D7
S31508000D90CDE90132494840F2D7124F4B0095FFF78B
S31508000DA0F9FCDFF81881059B012B43DC36D1626814
S31508000DB09AF9003094ED056A134407EE903A2269D1
S31508000DC099F90030B8EEE77A134407EE903AF8EE50
S31508000DD0E77AD4ED026A67EE867A47EE267A94EDCC
S31508000DE0077AD4ED086AB8EEC77A07EEA67A17EE40
S31508000DF0100A27F0CFFD41EC100B2DF00DF951EC40
S31508000E00100B28F0E1F89FED357A07EE900AF4EE1C
S31508000E10C77AF1EE10FA41DD7F233B70A06994F999
S31508000E20293094F92820616AFFF79AFE002007B056
S31508000E30BDE8F08F059B5246B3F5006FA8BF4FF487
S31508000E400063C3F34F0623F0010B00210523404638
S31508000E500096FFF77DFC4A46052301214046009689
S31508000E60FFF776FC3A460523022140460096FFF72F
S31508000E706FFC052300930023324619464046019528
S31508000E80FFF7AEFC01214046FFF784FB059BDA44D9
S31508000E90A3EB0B03D9445F44059384E79FED107ACF
S31508000EA0F4EEC77AF1EE10FA56BFFDEEE77A802324
S31508000EB017EE903AB1E72120B9E700BF9813002052
S31508000EC00600006006010060070002700703007054
S31508000ED0060007600000F022060504700000FE42C6
S31508000EE0000000C32DE9F04F2DED068B8268D1B0C6
S31508000EF03592026B436C3692C26A2B93379240F254
S31508000F000002ADF83A218269836D4092002233933C
S31508000F10436D04463493036D90ED178A1E93C36C94
S31508000F20D0F840A0109390F84830C56B17914F92AF
S31508000F302BB91E9B109A13431CBF21234F93339B37
S31508000F40012B02D1349B012B01D021234F93179BF0
S31508000F5073B1DDE935321343379A2B431343DB0765
S31508000F6006D521234F937E21764803F09BFE05E0A4
S31508000F704F9B169353B1179B002BF4D14F9B169397
S31508000F80169851B0BDEC068BBDE8F08F6E48FFF79A
S31508000F908DFD2368D4ED188A38936368002D0E9367
S31508000FA06369BAEEE88A0B93E368B3EE488A2C9332
S31508000FB023691193636B1F93A36B1F9A1293E369BB
S31508000FC02D93236A13932C9BA3EB0203109A1344C5
S31508000FD093FBFAF34393DDE91132A3EB02031E9A5E
S31508000FE013442B9A93FBF2F3139A44930B9B02FB3D
S31508000FF003F319930E9B129A02FB03F32193219A8A
S315080010001F9B02FB03F30E9A2593119B02FB03F326
S315080010101B932B9B02FB03F345931B9B119A0AFB1D
S3150800102003F346931B9B03EBD3734FEA630349937E
S31508001030259B03EBD3734FEA63034A93219B03EB88
S31508001040D3734FEA63034B93BDF82C301A9308BF4A
S3150800105001233F930DF59D7318BF2B460AEE903A70
S315080010602C9B53430E9A5343139A4C932D9B5343ED
S315080010700B9A53433E93169B0D9340F2002309EEB9
S31508001080103A0D9B139A934214DB179B002B3FF4DF
S3150800109077AFFFF797FA2D9B38990B985943139B0F
S315080010A094F92420594394F928304143A069FFF75D
S315080010B057FD65E70D9B2B9A1E995A431E9B12985E
S315080010C0D31A8A1A22EAE2721492119A1499D21A37
S315080010D09042D4BFC1EB0001C1EB0201002B2EDB0D
S315080010E00D98449D129E9642D8BF284602462692DF
S315080010F0269A0D98121A013209920E9A4A431499A1
S315080011002E92339A01FB02333C932E9B099903EBEB
S31508001110D3735B104793DDE945320129D8BF1346DF
S315080011202A9303EBD3735B10489300230A930A9B15
S315080011302D9A93420ADB269B01330D93A1E70D9A5C
S31508001140D5E700BFDCFC0208AC1400200A9B109A05
S315080011500AFB03F3991AD31A2C9A1F9823EAE37306
S31508001160521A9042D4BFC3EB0007C3EB020700290B
S3150800117053DB0A9943981F9D9542D8BF01460A46F4
S315080011802792279A0A99521A249201321592249A7A
S31508001190002A51D0099A012A4EDDBA454CD03EDDC7
S315080011A04FF00109AAEB070B159A012A07DD09FB7F
S315080011B00AF20BEB07018A4201D028224F92159AB0
S315080011C012994A45A8BF4A464192199A02FB09F262
S315080011D03992149A01FB03220E994A4315993B92B8
S315080011E0099A012AD8BF0A4692B23B993D92369A85
S315080011F00A4409EE902A0A9A109902FB0AF2521A30
S31508001200349903FB01232F9300230F930F9B419AD5
S31508001210934216DB279B013388E70A9AB0E797FBC8
S31508001220FAF20AFB127B9146BBF1000FBCD002F121
S315080012300109AAEB0B0BB7E74FF001094FF0000BBA
S31508001240BDE70F9B159A9342C4BF28234F93249B4F
S315080012500F9A01339B1A93FBF9F209FB1233002B01
S3150800126018BF0132012A099B209200F03A82012B0D
S3150800127008DCBBF1000F01D028234F93CDF830B01E
S315080012801D9706E0CDF830B00C9B209AFB18534307
S315080012901D930C9B2F9A013B002B3A93CCBF4FF41E
S315080012A08773002311990AEE103A3C9B01FB02331F
S315080012B00E9A139953430A9A22930F9B13440D9A35
S315080012C001FB03230B9A5343189300232893289B67
S315080012D0389A93420ADB0F9B01330F932F9B534493
S315080012E02F9393E700231D970C93D2E7399BB3F509
S315080012F0006F0ADB199B09F1FF38B3F5006F01DBB4
S3150800130028234F93199B239303E04FF00008399B3A
S315080013102393209B219A08FB03334293189B002BA7
S31508001320BCBF28234F930B9B002BBCBF28234F938E
S31508001330239B002BBCBF28234F931B9B1343259A43
S3150800134013432E9A13432A9A13433B9A1343229A1A
S31508001350134313F001031C9300F083812A9B1B9A05
S315080013603093259B3293219B31932E9BB44D299321
S3150800137028464D92FFF7C1FA1C9B0126002B0CBF8D
S31508001380052301234FAA06924D9ABDF8A41004928C
S31508001390309A02910392BDF87420309101923D9AD9
S315080013A022990092359A05960A44D5F868020021D2
S315080013B04D93FFF7CAFA4FABCDE90563319BBAB235
S315080013C00493329B01920393309B19EE902A029361
S315080013D01A9B31460093D5F868024D9BFFF7B5FA7C
S315080013E04FAB01933F9B1AEE902A00930223D5F840
S315080013F068021946FFF7F9FA4FAB01931A9B0321C6
S315080014000093379A0223D5F86802FFF7EEFA4FAB36
S31508001410CDE905630B9B18990493239B409A039384
S315080014201A9B0A440293BDF8243004210193BDF89F
S3150800143008310093D5F868023346FFF786FAB0EE0E
S31508001440490A0021D5F86802FFF7FCF81C9B002B17
S3150800145040F01081F0EE480AB0EE480A3146D5F859
S315080014606802FFF7B1F8B8EEE80AD5F86802002571
S31508001470B3EE400A0221FFF7E5F80B9970484FAA28
S31508001480FFF700FA4FAB41216E4A6D48019300956C
S315080014904EF62C43FFF73DFA099969484FAAFFF71C
S315080014A0F1F9209966484FAAFFF7ECF939466448DE
S315080014B04FAAFFF7E7F9299961484FAAFFF7E2F91A
S315080014C04FAB40F2CD11CDE900535F4A5F4B5C4804
S315080014D0FFF71FFA4FAB40F2D7115D4ACDE900532B
S315080014E057482B46FFF715FA5548FFF790FA022298
S315080014F029465348FFF7DEFA022201215048FFF732
S31508001500D9FA4F48FFF783FA099B012B04DC01221D
S3150800151029464B48FFF7CEFA0C9B002B04DD022226
S3150800152000214748FFF7C6FA1C9B002B40F0AA800B
S315080015300C9B4A219E1E4FAB01931C9B454A009368
S315080015403F481AEE103AFFF7E4F9731E1C934FF062
S315080015504F63002E4FAD009340F2CD11CCBF4FF430
S31508001560877300233C4A36480195FFF7D2F9B8F14C
S31508001570000F0FDD2A4641463148FFF783F900225E
S315080015802F48CF23114601950092FFF7C2F92C4840
S31508001590FFF73DFA4FF000084FAD43464121294A6F
S315080015A027480195CDF80080FFF7B3F91C9B012B5E
S315080015B06AD119462A462248FFF764F94346424645
S315080015C04146CDE900851E48FFF7A3F91C48FFF7F9
S315080015D01EFA022241461A48FFF76CFA1848FFF726
S315080015E016FA022204211648FFF764FA099B012B12
S315080015F004DD012200211248FFF75CFA1048FFF7C4
S3150800160006FA04220E481146FFF754FA01220C483E
S315080016101146FFF74FFA042202210948FFF74AFA52
S31508001620042203210648FFF745FA0548FFF7EFF9B4
S315080016304F9B002B44D0179B002B3FF49FAC0DE02B
S31508001640AC14002000000450060001600E7E08005D
S3150800165006070550000005500503027040F24121B7
S3150800166082E4489B3093DDE9492332934B9B3193BF
S31508001670479B7BE6B0EE480A3146D5F86802FEF786
S31508001680E1FFF0E63A9E60E7A8DD2A46B11E184853
S31508001690FFF7F8F82A4601211548FFF7F3F84246FE
S315080016A041464346CDE900851148FFF732F910480F
S315080016B0FFF7ADF9022241460D48FFF7FBF985E72A
S315080016C0179B13B10A48FFF7BBF9289B4C9A0133BD
S315080016D02893229B134422933E9A189B13441893EB
S315080016E0F5E5012B7FF7FEAD00230C93CCE500BF93
S315080016F0AC1400200121FFF7F5BB002108B5FFF760
S31508001700F1FBB0FA80F0400908BD0000836D70B5A2
S31508001710012B044620D1436D012B1DD14268436934
S315080017209A4219D1002102F0E3FEB0FA80F6760952
S31508001730D4E903235A43D4E90D134B4361694B4358
S31508001740B2EB830F0ADD0121204602F0F3F80546C5
S3150800175068B90025284670BD0026E9E7002EF2D0B4
S315080017600121204602F0C4FE0028ECD1F1E736B18B
S315080017700121204602F0BCFE05460028E9D0512189
S31508001780014803F08FFAE5E71AFD0208836D70B584
S31508001790012B044607D00021204602F0CBF8B0FA08
S315080017A080F0400970BD456D012DF4D1416943684B
S315080017B09942F0D1D0E903325A43D0E90D63734315
S315080017C04B43B2EB830FE6DC002102F091FE0028C2
S315080017D0E1D12846E6E700002DE9F04F2DED028B12
S315080017E004468DB028B921200DB0BDEC028BBDE8AA
S315080017F0F08FC16A21B13521B14803F053FAF2E7F7
S31508001800D0ED057A076AB8EEE78A17F0010514BF26
S315080018104FF480634FF40063DFEDAA0AB0F8502056
S31508001820D0F840A008EE902AC26BBB4228EE208A68
S3150800183002FB0AFBC66C0B970A92C0F2B7800268D5
S31508001840BDF828801FFA8AF9002D40F09E8107EB23
S31508001850D77A4FEA6A07CAF34F0A05232946CDE91C
S31508001860008A9948FEF784FF0523CDE9009AA26904
S3150800187001219548FEF77CFF226B002A00F08F8035
S31508001880A38E0093022319468F48FEF761FFCDE920
S3150800189000890123A26B03218B48FEF769FFDFED60
S315080018A0890A0021B0EE600A8748FEF7D1FEF0EEFD
S315080018B0480AB0EE480A01218348FEF7C9FEB0EE91
S315080018C0680A03218048FEF7BDFE324604217E4899
S315080018D0FEF79EFE002640F22D23324631467A4810
S315080018E00093CDE901663346FEF754FF774B40F285
S315080018F0D712012174480093CDE90166744BFEF7AF
S3150800190049FF40F2D7120221CDE90166714B6E48B4
S315080019100096FEF73FFF002D46D14A220321CDE966
S3150800192001556D4B68480095FEF734FF04260025DF
S315080019304FF0010A694BF6B240F2D7123146CDE9AB
S31508001940013A6148664B0095FEF724FF2B4642464E
S3150800195029465D48CDE90065FEF742FF42F20203DB
S315080019604A465146CDE9006357482B46FEF738FFED
S31508001970022120235448CDE90013BAB25346FEF794
S315080019802FFF51465048FEF705FEA06B594694F9BD
S31508001990533094F95220FFF7E3F8002024E7012397
S315080019A0504A009302236EE70326C0E7B0EE600AAA
S315080019B04D48FEF74DFEF0EE480AB0EE480A012102
S315080019C04948FEF745FE03214748B0EE680AFEF788
S315080019D039FE324604214448FEF71AFE05BB4FF08D
S315080019E005087F104FF001090026B7F5806F1ADC4D
S315080019F0364B40F2D71200213B480093CDE90166E9
S31508001A00334BFEF7C7FE40F2D7120121CDE9016636
S31508001A10304B35480096FEF7BDFED5B1022122E0CF
S31508001A204FF00108DEE70023304810F8011B97FB4A
S31508001A30F1F201FB127CBCF1000F06D1974201FBC3
S31508001A4009F93FF4D0AE1746CFE701330B2BECD19B
S31508001A50C9E602214A22CDE901551F4B22480095C5
S31508001A60FEF798FE0321002501261C4B40F2D712EB
S31508001A70CDE901361C481A4B0095FEF78BFE1FFA76
S31508001A8089F3089329462B46089A1748CDE9006535
S31508001A90FEF7A6FEBBB2099322233146CDE90063C1
S31508001AA0099A2B461048FEF79BFECDE905550E4FC1
S31508001AB00A9B9D42BFF669AF0026079657E000BF0E
S31508001AC062FD0208000000383C1800200E7E08005F
S31508001AD00600016006070550000005500000D023E7
S31508001AE005030450B4FD020828170020A9FD0208C2
S31508001AF0059B226807991A44A3690B4408EE903A95
S31508001B00236B002B3ED033F8163008EE103A069BAE
S31508001B10002106EB0309A36B38469944099B013655
S31508001B200193089B00934346FEF722FE099B18EE95
S31508001B30902A0193089B0121384600934346FEF7F5
S31508001B4017FE01234A46009303213846FEF700FE96
S31508001B50B0EE480A05213846FEF774FD01233846DB
S31508001B601946FEF717FD079B0B9A1344079356452C
S31508001B70BEDB069B0B9A53440693059B013513441B
S31508001B80059395E740F20003BFE71FFA87FA01239A
S31508001B90CDE9008A0348FEF7EBFD0123CDE9009A5B
S31508001BA065E600BF3C18002058B1031F9FED137A65
S31508001BB00020DFED136A9FED136A01EB42029142A2
S31508001BC000D17047D3ED017AF8EEE77A67EE877AA7
S31508001BD0F4EEE67AF1EE10FA03F104030CDCF4EE07
S31508001BE0467AF1EE10FA48BF2120F3EE677A17EE2F
S31508001BF090CA21F802CBE2E72120F6E70000003878
S31508001C0000E07F4700E07FC738B50022164B51EC4D
S31508001C10100B26F017FF10A3D3E9002304460D4640
S31508001C2027F0A0F970B90EA3D3E900232046294668
S31508001C3027F07AF958B92046294627F00BFD00EE19
S31508001C40100A38BD47F6FF3300EE103AF9E74FF6AB
S31508001C50FF33F9E7AFF300800000000000FCEF4017
S31508001C600000000000FCEFC00000E04070B560B363
S31508001C70026AD30755BF4FF400614FF4806102EB47
S31508001C80D273134658BF5B1091421FDA01220DE04A
S31508001C900021194E16F8015B93FBF5F405FB143089
S31508001CA068B9A34205FB02F20DD02346B3F5806F4F
S31508001CB0EEDCB2F5806FCCBF0020012003E00131D5
S31508001CC00B29E7D1002000F0010070BDC36B013B72
S31508001CD0B3F5806F0DD2036C013BB3F5806F08D264
S31508001CE0002A06DD406BB0F5806F8CBF002001200E
S31508001CF0EBE70020E9E700BFA9FD02082DE9F04F50
S31508001D00D0E90CA22DED068BC5B02392C26A0368F2
S31508001D102492826A3A9325928268C368309242690D
S31508001D202193319200220369D0F804800F938369C6
S31508001D30D0ED098A2F93C36990ED089A2293036C14
S31508001D402B911593C36B109390F83830439208F093
S31508001D50010212922BB9159B109A13431CBF21231B
S31508001D604393129B43B92B9B33B1DDE930321343BE
S31508001D70D90744BF21234393439C002C40F03E835C
S31508001D80A148FEF793FE259A219B0A949B1A109A5E
S31508001D90134493FBFAF3249A3C930F9B9B1A159AC8
S31508001DA01344239A93FBF2F33D9308FB02F32C9317
S31508001DB00F9B03FB08F319930AFB03F32D93229B4E
S31508001DC003FB08F31A93199B1A9A03F0010333933A
S31508001DD0129B002B0CBF052301230AEE103A0F9B1A
S31508001DE00AFB03F308FB03F338932F9B5343199A13
S31508001DF03993219B53433E9340F2002309EE903AD0
S31508001E000A9B229A934209DB2B9B0BB1FEF7DAFB5E
S31508001E10439845B0BDEC068BBDE8F08F239A0A9B24
S31508001E2024995343159A9A1A2692159AD31A23EA8D
S31508001E30E373269A16930F9B9B1A169A9942D4BF58
S31508001E40C2EB0102C2EB03022792269A002A2FDB75
S31508001E503D9A0A9924989842C8BF0A4613461C9385
S31508001E601C9B0A9A9B1A013317932C9BB3F5006F98
S31508001E70A4BF282343932D9BB3F5006F1ADA179B4B
S31508001E80012BCCBF4FF0000B4FF0010BDDE92C23E3
S31508001E90BBF1000F08BF13462E9303F001033493DA
S31508001EA000232F9A934208DB1C9B01330A93A7E76A
S31508001EB00A9BD4E74FF0000BE8E70AFB03F1109AF8
S31508001EC09FED527A8C1A511A219A21EAE171101B58
S31508001ED0259A8242D4BFC1EB0206C1EB0006279AB7
S31508001EE006FB02F54FF4004292FBF5F208EE102AC3
S31508001EF0B8EEC88AB3EE488AF2EE487AF4EEC77AA4
S31508001F009FED437AF1EE10FAF4EEC77ABCBF2822A9
S31508001F104392F1EE10FA84BF28224392B5F5007F6A
S31508001F20C4BF28224392002C5FDB3C9A259C84423E
S31508001F30C8BF1A461D921D9AD21A1B9201321192D7
S31508001F401B9A002A5DD0BBF1000F5AD1B24558D072
S31508001F504DDD0124AAEB0605119A012A06DD04FBCC
S31508001F600AF27019824201D028224392119A601E01
S31508001F70A242A8BF22463B921A9A179F6243B2F51D
S31508001F80006FB8BF0020209001303F901198BBF138
S31508001F90000F08BF384680B2229F36900A9803FB86
S31508001FA0070008FB00F00AFB03F3289010981B1A99
S31508001FB019441698269B03440F9800FB013108FB29
S31508001FC001F3299313461A99B2F5006FA8BF0B4679
S31508001FD01F9303F00103359300230E930E9B3B9A40
S31508001FE0934217DB1D9B01335BE71D93A3E796FB23
S31508001FF0FAF40AFB1465002DAED00134AAEB0505E8
S31508002000AAE701240025B1E75019002000E07FC7A0
S3150800201000E07F470E9B119A9342C4BF282343933F
S315080020201B9B0E9A01339B1A93FBF4F204FB1233A3
S31508002030002B18BF0132012A189200F0E181BBF18A
S31508002040000F05D00DB1282343930995149605E092
S315080020500995099B189AF31853431493189B3F9AAA
S3150800206053439BB23793299B1393289B2A930023A8
S315080020701E931E9B3A9A934280F2B481129BC3F137
S3150800208002030C932A9B0D9300230B937BE10023F9
S3150800209014960993E2E70D9B002BBCBF28234393B4
S315080020A0B8F1000FBCBF282343931F9B002BBCBF6E
S315080020B028234393129BF3B90B9B01334345A4BFD3
S315080020C0282343930D9BDA0748BF2823139A48BF52
S315080020D043930B9B1344DB0744BF28234393339B4B
S315080020E00BB128234393349B0BB128234393359B89
S315080020F00BB1282343930C9A199BDFF8149393FB8F
S31508002100F2F12E9B484693FBF2F341914093FEF77A
S31508002110F4FB309B139A41999A180C9B43AF98FB92
S31508002120F3F305933293409B04910393BDF89C30D7
S315080021300B990293BDF8503006970193369B0A44D3
S31508002140009300211AEE103AD9F86802FEF7FDFB53
S3150800215000230593329B0C9A04931F9B069793FBC7
S31508002160F2F301270393BDF85C300D990193379B71
S31508002170319A009302970A441AEE103A3946D9F86A
S315080021806802FEF7E2FBF0EE480AB0EE480A0021C4
S31508002190D9F86802FEF718FA40F20023F0EE690A49
S315080021A000EE103A3946D9F86802FEF70DFA19EE2C
S315080021B0103A803304D118EE903A7F2B00F0F38062
S315080021C0F8EEC90AF3EE600AD9F86802B0EE600ABA
S315080021D00421FEF7F9F9F8EEE80AF3EE600AD9F8F1
S315080021E06802B0EE600A0521FEF7EEF94FF0010924
S315080021F000271799864843AAFEF744FB189984488E
S3150800220043AAFEF73FFB43AB4FF00052012180483B
S31508002210019300973B46FEF77CFB31467C4843AA70
S31508002220FEF730FB27997A4843AAFEF72BFB43AB08
S3150800223040F2D711774ACDE90073754840F20B236F
S31508002240FEF767FB7248FEF7E2FB71480222394641
S31508002250FEF730FC6E48FEF7DAFBBBF1000F04D040
S31508002260012239466A48FEF725FC099B002B04DD46
S31508002270022200216648FEF71DFCB9F1000F14BFC3
S3150800228000224FF01A62099B40F29711012BA3F125
S31508002290020743ABCDE900235D48CCBF40F20B13E0
S315080022A000235D4AFEF735FBB9F1000F0BD043ABAF
S315080022B001934FF01E6340F2D5110093574A00234D
S315080022C05348FEF726FB209B002B1FDD0DF586796C
S315080022D019464A464E48FEF7D5FA4A4601214C4861
S315080022E0FEF7D0FA00234A481A4619460093CDF855
S315080022F00490FEF70EFB4648FEF789FB0122444888
S315080023001146FEF7D7FB4248FEF781FB002F17DD83
S31508002310012F43AA4AD139463D48FEF7B3FA0021B0
S3150800232043AB01930A460B4639480091FEF7F1FA8A
S315080023303748FEF76CFB022200213548FEF7BAFB48
S315080023403348FEF764FB022201213148FEF7B2FB4F
S31508002350BBF1000F04D1012259462D48FEF7AAFB0E
S315080023602B48FEF754FB439800287FF452AD2B9B6D
S3150800237013B12748FEF764FBDDE90B3213440B93D0
S315080023800D9B13440D930B9B4345FFF684AE1E9B92
S31508002390399A01331E932A9B13442A933E9A139B18
S315080023A01344139365E64FF0000921E7099B184883
S315080023B0D91EFEF767FA43AA01211548FEF762FA05
S315080023C0002143AB0A460091019311480B46FEF7DC
S315080023D0A0FA0F48FEF71BFB022200210C48FEF765
S315080023E069FBA5E70E9B1A9A01330E93289B1344A3
S315080023F02893389A299B13442993EFE5204608E544
S31508002400BBF1000F7FF443AECDF824B021E600BF40
S315080024105019002003010220020000200405026072
S315080024202DE9F04FD0E90C922DED048BC3B0229222
S31508002430C26A03682392826A349324928268C368C4
S315080024402B92426920932C920022036990ED098A07
S315080024500E938369D0ED088A2A93C369D0F804B02D
S315080024602193036C12911693C36B0F9390F838302F
S3150800247041922BB9169B0F9A13431CBF21234193F4
S31508002480129B63B1DDE92B321343DB0707D5212302
S3150800249041934FF45671954802F004FC05E0419BC0
S315080024A0119353B1129B002BF3D1419B11931198B1
S315080024B043B0BDEC048BBDE8F08F8D48FEF7F6FA05
S315080024C0249A209B9B1A0F9A134493FBF9F3239A99
S315080024D036930E9B9B1A169A1344229A93FBF2F391
S315080024E03793219B03FB0BF313930E9B0BFB03F311
S315080024F014930BFB02F33893149B149A09FB03F30A
S3150800250039930E9B09FB03F30BFB03F33C93209BC8
S315080025105343139A30932A9B53433D93119B0B9332
S315080025204DF6000309EE103A0B9B219A934205DB00
S31508002530129B002BBBD0FEF745F8B8E7229A0B9BF7
S3150800254023995343169A9A1A2592169AD31A23EA66
S31508002550E373259A17930E9B9B1A179A9942D4BF31
S31508002560C2EB0102C2EB03022D92259A002A1BDB5D
S31508002570379A0B9923989842C8BF0A4613461B9365
S315080025800B9A1B9B9B1A03F1010ADDE93832BAF153
S31508002590010FD8BF1346299300232A9A934205DBD5
S315080025A01B9B01330B93BFE70B9BE8E709FB03F281
S315080025B00F99249C501A8A1A209922EAE272091A5B
S315080025C08C42D4BFC2EB0404C2EB01040028099470
S315080025D05EDB3698249C8C42C8BF18461C901C9912
S315080025E0C91A199101311091199900295DD0BAF1CA
S315080025F0010F5ADD0999894500F024824ADD012533
S31508002600A9EB01061099012907DD05FB09F10998CF
S315080026103044814201D0282141911099681EA9426F
S31508002620A8BF2946359113990F9C6943B1F5006FE8
S31508002630B8BF00201F90013033901098BAF1010FEF
S31508002640C8BF504680B2319003FB09F0001B024414
S31508002650259C179820440E9C04FB02020BFB02F2F1
S31508002660219828920B9A03FB00230BFB03F327936D
S315080026700B46139AB1F5006FA8BF13461E930023A5
S315080026800D930D9B359A934212DB1C9B013384E70D
S315080026901C93A4E7099991FBF9F509FB1516002E79
S315080026A0B0D00135A9EB0606ACE701250026B4E74C
S315080026B00D9B109A9342C4BF28234193199B0D9AE8
S315080026C001339B1A93FBF5F205FB1233002B18BF57
S315080026D00132012A189200F0AE81BAF1010F09DC25
S315080026E00EB128234193099B0A9609E0B6FD020814
S315080026F0501900200A96DDE909321344189A534303
S315080027001593189B339A53439BB23293279B1A937C
S31508002710289B269300231D931D9B349A934280F28F
S315080027207E8100236AE1099B159300230A93E8E753
S315080027301A9A0C9B9B182F9344BF28234193BBF1ED
S31508002740000FBCBF282341931E9B269A002BBCBFB3
S31508002750282341930C9B03EB020801335B4580F267
S315080027602781149B43EA0B07299B1F431E9B1F4384
S315080027702F9B1F4347EA0807FF4307F001077B1C07
S315080027803B939BFBF3F32E93149B7A1C93FBF2F17A
S31508002790299BAE4C93FBF2F21E9B3E927A1C93FB4E
S315080027A0F2F320463A933F91FEF7A7F8002F0CBFA5
S315080027B0012305232E9A3F9905923E9A41AF03922B
S315080027C0BDF8B42004910292BDF8542006970192F0
S315080027D0319A002100922B9AD4F8680242443E931B
S315080027E0FEF7B3F82E9B4FF0000804933A9B1FFAA6
S315080027F08AF2039301230293329B2C9901922F9A12
S3150800280000930697CDF814800A443E9B0121D4F81C
S315080028106802FEF79AF84DF60003F0EE490A00EE54
S31508002820103A4146D4F86802FDF7CEFEF8EEE80AFB
S31508002830F3EE600A0321B0EE600AD4F86802FDF7E9
S31508002840C3FEF8EEC80AF3EE600A0421B0EE600A89
S31508002850D4F86802FDF7B8FE3A4651462046FEF718
S3150800286011F83A4620461899FEF70CF843464FF0F9
S31508002870805241212046CDE90087FEF74AF83A46BC
S3150800288020460999FDF7FEFF3A4620462D99FDF7A1
S31508002890F9FF40F20A2340F253116D4A2046CDE96A
S315080028A00087FEF736F82046FEF7B1F802224146C1
S315080028B02046FEF7FFF82046FEF7A9F8BAF1010F01
S315080028C004DC012241462046FEF7F4F80A9B002B59
S315080028D004DD022200215D48FEF7ECF80A9B41AAB6
S315080028E0012BA3F102044FF01D6340F2D511CDE987
S315080028F000325648CCBF4FF485730023554AFEF77D
S3150800290008F81F9B002B1DDD41AF19463A464F4874
S31508002910FDF7B8FF3A4601214C48FDF7B3FF0023FF
S315080029204A481A46194600930197FDF7F2FF4748A9
S31508002930FEF76DF8012245481146FEF7BBF84348F5
S31508002940FEF765F8002C17DD012C41AA32D1214685
S315080029503E48FDF797FF002141AB01930A460B4617
S315080029603A480091FDF7D5FF3848FEF750F802229D
S3150800297000213648FEF79EF83448FEF748F802224A
S3150800298001213248FEF796F8BAF1010F04DD01225B
S3150800299000212E48FEF78EF82C48FEF738F8419BA2
S315080029A023B3129B002B3FF480AD40F2BF4172E582
S315080029B00027E4E60A9B2548D91EFDF763FF41AACE
S315080029C001212248FDF75EFF002141AB0A4600912E
S315080029D001931E480B46FDF79CFF1C48FEF717F8A7
S315080029E0022200211948FEF765F8BDE7129B13B1CC
S315080029F01648FEF725F80C9B3B9A13440C930C9B40
S31508002A005B45FFF695AE1D9B309A01331D93269BB9
S31508002A10134426933D9A1A9B13441A937CE60D9BFE
S31508002A203C9A01330D93289B13442893139A279BAA
S31508002A301344279325E6BAF1010F7FF774AE0023F6
S31508002A400A9358E600260125E7E500BF501900203D
S31508002A5002000110030401502DE9F04F2DED048BFF
S31508002A60026BABB01892426B03681992C26A1F9345
S31508002A702092826AC368219282680F931A924269E9
S31508002A8003691B9200220993836944681093036CB7
S31508002A9004F001051193C36B90ED098A129390F81F
S31508002AA03830D0ED088AD0F81C801E91C5F1020591
S31508002AB029922BB9DDE9113213431CBF212329932F
S31508002AC0022D08D11E9B33B1DDE91A321343DB0709
S31508002AD044BF21232993299E002E40F07D81099B1E
S31508002AE0B848634393FBF5F3229308FB04F393FB7F
S31508002AF0F5F32393FDF7DAFF022D0CBF0523012317
S31508002B0009EE903A109B94FBF5FA08FB03F325931C
S31508002B1040F2002309EE103ACDE916660C960C9B96
S31508002B201F9A934280F25681129B0A935B42149332
S31508002B30169B159300230D930FE1089B139A24996E
S31508002B4023EAE3731A440A4462432792DDE908211B
S31508002B505118209A9B4D9142D4BFC3EB0103C3EB96
S31508002B6002031D9A1C9302FB03F14FF4004393FBE7
S31508002B70F1F300EE903AF8EEE00AF3EE600A284622
S31508002B80CDED260AFDF7B9FE1A9A4FF0010911464E
S31508002B90229B1FFA8AFB0493BDF8243029AF0293BF
S31508002BA0BDF83C30CDE905A7CDE900B3279ACDF8A5
S31508002BB00C900A4419EE903A0021D5F86802FDF700
S31508002BC0C4FE239BCDE905A7CDE903931FFA88F335
S31508002BD00293BDF840300B9ACDE900B3494619EE89
S31508002BE0903AD5F86802FDF7B0FEDDED260A002119
S31508002BF0B0EE600AD5F86802FDF7E6FC40F200235D
S31508002C00F0EE490A00EE103A4946D5F86802FDF793
S31508002C10DBFC18EE903A803304D118EE103A7F2B7D
S31508002C2000F0C080F8EEE80AF3EE600A0421B0EE80
S31508002C30600AD5F86802FDF7C7FCF8EEC80AF3EE95
S31508002C40600A0521B0EE600AD5F86802FDF7BCFCFB
S31508002C504FF00109002729AD2A4651465948FDF784
S31508002C6011FE3B464FF00052012156480195009748
S31508002C70FDF74FFE2A461D995248FDF703FE2A46E0
S31508002C801C995048FDF7FEFD40F20B2340F2D71180
S31508002C904D4A4C48CDE90075FDF73BFE4948FDF71E
S31508002CA0B6FE022239464748FDF704FF0422394694
S31508002CB04448FDF711FF4348FDF7A9FE01223946AE
S31508002CC04048FDF7F7FE022239463E48FDF704FF65
S31508002CD0B94514BF3B464FF01A6340F29711CDE948
S31508002CE000353A4A3B463748FDF713FEB9F1000F5F
S31508002CF00AD04FF01E6340F2D5110093344A3B4682
S31508002D0030480195FDF705FE2E48FDF780FE299B04
S31508002D10002B67D11E9B13B12A48FDF791FE0E9B27
S31508002D20199A01330E93089B9B1A0893139B134415
S31508002D3013930B9B23440B930E9B4345FFF6FDAE63
S31508002D400D9B189A01330D930A9B9B1A0A93149BA1
S31508002D5013441493159B434415930D9B109A934261
S31508002D6023DA17990A9B149A23EAE3730A44099902
S31508002D701A444A430F9924920A9A0A4421998A4284
S31508002D80D4BFC3EB0203C3EB01031D93119B159A32
S31508002D9008935B4213931B9B04FB02330B9300239C
S31508002DA00E93C9E74FF0000954E70C9B259A0133A7
S31508002DB00C93169B134416930F9A179B1344179359
S31508002DC0ADE600BF501900200301022002000020D2
S31508002DD004050260FDF7F6FB30462BB0BDEC048B0C
S31508002DE0BDE8F08F1E46F7E770B505460021FFF7E8
S31508002DF033FED5E906235A43D5E90A134B436968D6
S31508002E0006464B430A2103EBC303053393FBF1F351
S31508002E109A420BDC50B901212846FFF71DFE0446ED
S31508002E2050B15721074801F03DFF06E00121284629
S31508002E30FEF764FF044610B90024204670BD002E34
S31508002E40EFD1E8E7B6FD02080121FFF7E9BA10B5A8
S31508002E5000210446FFF700FE38B100212046FEF7A0
S31508002E604DFFB0FA80F0400910BD0120FCE70021B3
S31508002E7008B5FFF7D5FAB0FA80F0400908BD00009A
S31508002E802DE9F04F2DED068B0368ADB01493C3689A
S31508002E90D0F8049015930369D0F814B00A93C3695F
S31508002EA090F848200593036A07910693436A169398
S31508002EB0836A1793436B0B93836B0C93436C219331
S31508002EC0036C2293036D1893C36C1993D0ED178A7C
S31508002ED0836890ED188A249383692593C36A1A93A5
S31508002EE0036B2693C36B0893436E0D930023CDE9BA
S31508002EF02A332AB9DDE9183213431CBF21232B9341
S31508002F00079BB3B1089B0BB1DB070BD41A9B0D9A31
S31508002F1003F0010302F00302134303D1DDE916327D
S31508002F20934206DD21232B936E21AD4801F0BAFEAC
S31508002F3005E02B9B099353B1079B002BF4D12B9BE0
S31508002F40099309982DB0BDEC068BBDE8F08FA5480E
S31508002F50FDF7ACFD079B73B1BDF81830BDF85020DE
S31508002F600193BDF814300D9900939E481FFA8BF310
S31508002F7000F0C9FA2B90DDE90B23534309FB03F351
S31508002F800A9A2393159B00275343299340F200235B
S31508002F90CDE91B7709EE103A10973AE10F9B0F9A85
S31508002FA023EAE375069B13440C9A9342D4BFC5EBF8
S31508002FB00303C5EB020309EE903A279B05EB0308CA
S31508002FC0269B09FB0838209B1D44289B1D440BFBA8
S31508002FD005F50D9B03EB450500231393139B5B45F2
S31508002FE049DB129B219A013312930F9B9B1A0F936D
S31508002FF0209B134420931F9B4B441F93129B0A9AB2
S315080030009342CBDB119B229A013311930E9B9B1A99
S315080030100E931E9B13441E930A9A1D9B13441D93DD
S31508003020119B159A934280F2E7801E990E9B1B9A74
S3150800303023EAE3730A4406991A444A430C992892E8
S31508003040DA194A430E992792059A0A440B998A4235
S31508003050D4BFC3EB0203C3EB01030AEE103A189B75
S315080030601D9A0F935B422093249B09FB02331F93FF
S3150800307000231293C2E75B4C2BAE2046FDF73DFCBE
S31508003080BDF828301FFA89FA0193BDF8543000219B
S31508003090CDE902A61F9AD4F8680200930123FDF72A
S315080030A08DFCBDF8303042460193BDF82C30CDE991
S315080030B002A600930123D4F868021946FDF77EFCA0
S315080030C01FFA8BF30293BDF818302A460193BDF810
S315080030D01430D4F868020093022303961946FDF7C4
S315080030E06DFCB0EE490A0021D4F86802FDF7AAFA89
S315080030F0B0EE680ABAEEE80A4FF0000AB3EE400AE4
S315080031000121D4F86802FDF79DFA32464946204661
S31508003110FDF7B8FB0A2340F2D7112046324A01963A
S31508003120CDF800A0FDF7F5FB32461AEE101A204638
S31508003130FDF7A8FB324619EE901A2046FDF7A2FBCA
S315080031402A4B40F2D7112A4A204600930196294B6A
S31508003150FDF7DFFB2046FDF75AFC04220221204634
S31508003160FDF7BAFC042201212046FDF7B5FC022230
S3150800317020461146FDF79EFC022201212046FDF756
S3150800318099FC2046FDF743FC022220461146FDF72E
S31508003190A3FC022201212046FDF79EFC012251468E
S315080031A02046FDF787FC012220461146FDF782FCE2
S315080031B02046FDF72CFC2B9B33B1079B002B3FF4D5
S315080031C0BEAE4FF48471B0E6079B13B12046FDF7F7
S315080031D037FC139B023501331393239B9844FDE672
S315080031E0F5FD0208CC1B0020020001500000F02269
S315080031F0050304702C6C0800109B299A0133109360
S315080032001C9B13441C93059A1B9B13441B930B9BF3
S315080032101F44109B149A934208DA199B0E935B423B
S315080032201E931C9B1D9300231193F9E6DDF89480E9
S315080032301A9B08F0010203F0030313430BF0010283
S3150800324013430D9F089A8C4C3A4302F0030213432A
S3150800325005BF0BEBDB734FEA630B00230123002B3F
S315080032601FFA8BF30A9314BF0523012309EE103ABC
S31508003270089B14BF4FF006094FF00209002B0A9B62
S3150800328008BF0123089A0C932AAB18BF134608EE09
S31508003290903ADDE9053253430BFB03F30B935B00CE
S315080032A00D9300230893089B149A934202DBFDF7BB
S315080032B089F946E67048FDF720FBBDF81460BDF8AD
S315080032C018A00A9B2BAD3A460221CDE901A3D4F8F2
S315080032D068024B4603950096FDF770FB0A9B42462B
S315080032E00021CDE901A3D4F8680219EE103A039536
S315080032F00096FDF763FB0C9B18EE902A0121D4F883
S315080033006802009301954B46FDF76FFB0A9B032164
S315080033101A9AD4F86802009301954B46FDF765FBA7
S31508003320F8EEC80AF3EE600A0021B0EE600AD4F897
S315080033306802FDF749F9169B803303D1179B7F2B4B
S3150800334000F08A80DDED167AF8EEE70AF3EE600AF9
S315080033500121B0EE600AD4F86802FDF735F9DDED13
S31508003360177AF8EEE70AF3EE600A0221B0EE600A71
S31508003370D4F86802FDF728F94FF0010A00252BAEAC
S315080033804FF407732A462946204601960095FDF70D
S31508003390C0FA324620460599FDF774FA32462046A9
S315080033A00699FDF76FFA2B232A4629462046CDE9CA
S315080033B00056FDF7AEFA324659462046FDF762FA40
S315080033C040F23D234FF4A77120462C4ACDE900561A
S315080033D0FDF79FFAAA4514BF2B464FF00F6340F23C
S315080033E0D711CDE900362046254B264AFDF791FA36
S315080033F0BAF1000F0AD04FF00F6340F2D5110093CF
S3150800340020462B46204A0196FDF783FA2046FDF70B
S31508003410FEFA042200212046FDF74CFB0422022175
S315080034202046FDF747FB2046FDF7F1FA0222002168
S315080034302046FDF73FFB022220461146FDF73AFBE0
S315080034402046FDF7E4FA2B9B4BB1079B002B3FF474
S3150800345076AD4FF4DE7168E54FF0000A8EE7079BFC
S3150800346013B12046FDF7ECFA089B013308930D9B30
S315080034701F440B9B984416E7CC1B002003000470DE
S31508003480AB70080007050070010207700121FFF7FD
S31508003490F7BC002108B5FFF7F3FCB0FA80F0400945
S315080034A008BD000038B54FF09A44074D6368DA073F
S315080034B005D54FF09A4213695B07FCD538BD5221F2
S315080034C0284601F0EFFBF1E73DFE02084FF0804287
S315080034D0074B01219A664FF09A4303F580525160D3
S315080034E001F540211162034A1268DA60704700BF8D
S315080034F0009000402C100020FFF7E8BFFFF7D2BF6E
S31508003500FFF7D0BF70472DE9F04F2DED028B1D4612
S31508003510002389B0BDF85060934606FB05F2BDF856
S31508003520547004467A4352000592EA078846079380
S3150800353015D46D100123002B40F2000314BF4FF081
S31508003540060A4FF0020A4FF0000908EE103ACB457A
S315080035500DDC079809B0BDEC028BBDE8F08FF007CB
S3150800356001D47610E6E7F907E5D47F10E2E72046AE
S31508003570FDF7C3F940F20003F0EE480A00EE103AF0
S315080035800021D4F86802FDF71FF807ABCDE902530E
S31508003590BBB20193B3B242460021D4F86802009345
S315080035A05346FDF70BFA002229462046FDF76AF92D
S315080035B0002239462046FDF765F9002231462046A5
S315080035C0FDF760F94FF084530022CDE9003200235D
S315080035D020461A461946FDF79CF92046FDF717FAC4
S315080035E0042200212046FDF765FA2046FDF70FFA6A
S315080035F0012200212046FDF75DFA2046FDF707FA6D
S3150800360007980028A6D12046FDF71AFA059B09F166
S31508003610010998449BE700EB81014B6A012B05DD04
S31508003620886C0028D4BF002001207047002070470E
S31508003630002238B50546144611462846FFF7EBFF23
S3150800364000B101340132092AF6D1204638BD0000FE
S315080036502DE9F041002504462A464FF02808194F5F
S3150800366000F1240629462046FFF7D5FF90B102F15E
S315080036707E03C6F8B02144F82350736A0132B3F5C5
S31508003680006F336828BFC7F80080B3F5806F88BF1E
S31508003690C7F800800135092D06F10406E2D1032A90
S315080036A00ADC08237E3204EB820204F50174A24286
S315080036B005D042F8043BFAE72822024B1A60BDE817
S315080036C0F08100BF481E00202DE9F34100EB81067A
S315080036D000EB820705460C4690466846BA6CB16C04
S315080036E026F034F8019B13B128220C4B1A607B6A2A
S315080036F0009AD31A42BF28200849086004EBC4017F
S3150800370001EB0804243445F82430736A53437B627A
S315080037100123736202B0BDE8F08100BF481E002095
S315080037202DE9F04F24270546984608464FF0010A2A
S315080037304FF0000B7A4385B005F5EA7605F5FC7976
S31508003740A2F5A277F15900293AD00E9B3468002BCE
S315080037501ADBD5F80432D0F868224FEA830C0E9BA0
S3150800376002EBC3024FF4E043D2F870E003FA0CF31D
S3150800377013EA0E0F08D14FF4805303FA0CF3A34053
S3150800378043EA0E0313670139002919DD0F4A03902E
S31508003790FDF778F80D4A0AFA04F3CDE900B20022DB
S315080037A0D5F8044248EAC31343EA041311460398BA
S315080037B043F00803FDF7ADF80398FDF728F90398D9
S315080037C004364E45BED105B0BDE8F08F481E002030
S315080037D0F0B5D1F878620446062E0D4685B004DDAC
S315080037E02122114B1A6005B0F0BD11460393FFF76D
S315080037F012FF771C039B88B1D4F80412D5F8680227
S3150800380000EBC6008E004FF48051B14004EB8206EF
S31508003810D6F8D461B140866F314381672946204680
S315080038200097FFF77DFFDEE7481E0020F7B5D1F8C1
S3150800383074420546072C0E461F4604DD2122144B0A
S315080038401A6003B0F0BD1146FFF7E5FEB8B10C23C8
S31508003850D6F8681203FB0411802405EB8203D3F81B
S31508003860D431D1F8B4009C40D5F8043244EA0314A4
S3150800387044F00E0404FA07F30343C1F8B4304FF0DA
S31508003880FF333146009328460623FFF749FFD8E75A
S31508003890481E002013B50A460446016B684625F003
S315080038A055FF009A002ADEBF28210B4B1960019BA1
S315080038B013B12821084B1960A36BA263012B1EBF05
S315080038C02821054B1960236B93FBF2F3626D236382
S315080038D05343E36502B010BD481E002070B5044688
S315080038E00D462422002104F1480626F018FA24225F
S315080038F00021304626F013FA2422002104F16C0038
S3150800390026F00DFA4FF4A272002104F1900026F079
S3150800391006FA04F5EA702422002126F000FA0123AB
S31508003920C4F804522434B44202D044F8043BFAE7FB
S3150800393070BD00002DE9F04FD0E915962DED088BE6
S31508003940436CADF6043D2193036C25911793036DE3
S3150800395090ED17AA1893C36CD0ED18AA199343696A
S3150800396090F848200993436804460A93DDE909312B
S3150800397093FBF1FB03681A93C368229303692393A5
S31508003980436B1093836B0B93C3690D93036A12936E
S3150800399083682D93036B2693C36B1D93C36A279382
S315080039A0836928931A9B012B0CBF00212121A54B63
S315080039B0196032B9DDE9183213431EBF2122A14B23
S315080039C01A6040F20003ADF8CC30ADF8CE300BF0FB
S315080039D001030C93C3F102031493259BCDF8A8B0F9
S315080039E093B1279A1D9B13430C9A03F00303002AED
S315080039F040F06482289A26990A4302F0010213438A
S31508003A0002D021228F4B1A608F48FDF74FF80A9B88
S31508003A10239A002102FB03F5229B129A05FB03FA5F
S31508003A20099B36A802FB03F70D9B07FB03F8FFF774
S31508003A3055FF0221B8A8FFF751FF01210DF59D603A
S31508003A40FFF74CFF12980D9943900A9842918446C5
S31508003A502198179900FB0CF069434C900D984B91EF
S31508003A6041434D9110991A9B45910B993F93469165
S31508003A7061460A9B0122409300234E43199905FB90
S31508003A8009F549423C911899499249423D911A993A
S31508003A904A934492CDF80C15CDF820A1CDF804B17F
S31508003AA04E954F96CDF830851299CDF83825CDF834
S31508003AB02025109ACDF81C15CDF844350999CDF86E
S31508003AC02425CDF848350B9ACDF84C350C9BCDF806
S31508003AD010C5CDF834B5CDF814B5CDF81805CDF820
S31508003AE03C75CDF84015CDF82825BBB9149B0DF5C6
S31508003AF0A6629BFBF3FB0C9BCDF804B1CDF814B57D
S31508003B00022B1CBF1168149803F101031CBF91FB1B
S31508003B10F0F11160092B02F10402F1D10DF59D694E
S31508003B2036AA4FF0000A17462126C846454D514683
S31508003B303846FFF770FD40B1536AB3F5806F03D876
S31508003B40936CB3F5006F00D32E6051464046FFF7DD
S31508003B5062FD50B1D9F82430B3F5806F04D8D9F88E
S31508003B604830B3F5006F00D32E600AF1010ABAF1A6
S31508003B70090F09F1040902F10402D8D1314B1D6875
S31508003B80002D40F00B840B9A099B012153430DF538
S31508003B909D6002223093FFF797FD109A229B0895A5
S31508003BA09B1A199A1F951344179A93FBF2F30B9ACB
S31508003BB02E93239B9B1A189A1344219A93FBF2F38C
S31508003BC02F930C9B002B0CBF052301230BEE103AF9
S31508003BD00CBF062302230BEE903A40F2002309EEAF
S31508003BE0103A089B129A934280F23084219A1899C7
S31508003BF05343189A0B989A1ACB1A23EAE37313932A
S31508003C00239B13999B1A9842D4BFC1EB0001C1EBC1
S31508003C100301002A1B91C0F255812F9A08999842F0
S31508003C20C8BF0A4613462093089A209B4FF00008FF
S31508003C309B1A0133002BD8BF28220E93DCBF014BF9
S31508003C401A6003E0481E00204C1E00200D9B984574
S31508003C5080F2F783179B109903FB08F9199BA9EBC8
S31508003C600302A3EB0909229B29EAE9799B1A9942DF
S31508003C70D4BFC9EB0101C9EB0301002A0F91C0F2B9
S31508003C8023812E9A10999942C8BF42461192119BD8
S31508003C9036A9A3EB08070137002FDCBF28228F4B74
S31508003CA00DF5DE60D8BF1A604FF4027226F010F8E0
S31508003CB04FF402720DF59D610DF6F80026F008F82E
S31508003CC00E9B0DF5DE60CDF82437CDF82C391B9BFD
S31508003CD0CDF82077CDF83037CDF838390F9BCDF8A9
S31508003CE02879CDF82C37CDF83439FFF7A1FC03280D
S31508003CF005D8DDF84437B3F5006FC0F0EB80032133
S31508003D000DF5DE60FFF787FC002800F0E38004214C
S31508003D100DF5DE60FFF77FFC002800F0DB80DDF89C
S31508003D204827DDF8441734A825F010FD359B13B154
S31508003D3028226A4B1A60349BDDF824279A1A002A2F
S31508003D40BEBF2821654A1160DDF820275343B3F525
S31508003D50806F40F2BC80179A0F9B394693FBF2F5A9
S31508003D6002FB1533002B18BF013534A82A4625F067
S31508003D70EDFC119A359B2946D31AA3EB08070137A0
S31508003D800DF5DE601193CDF82879CDF82077FFF789
S31508003D9081FD29460DF6F800FFF77CFD349B0422C9
S31508003DA003210DF5DE601593FFF78EFCDDF8243749
S31508003DB0B3F5806F02D92822484B1A600DF5DE60EC
S31508003DC0FFF736FC032804D8DDF84C37B3F5006F47
S31508003DD01AD305210DF5DE60FFF71DFC58B1062143
S31508003DE00DF5DE60FFF717FC28B1062205210DF553
S31508003DF0DE60FFF769FC0DF5DE60FFF719FC0428A5
S31508003E00C2BF2822354B1A600DF6F800FFF710FCE2
S31508003E10032804D8DDF84C39B3F5006F1AD303210B
S31508003E200DF6F800FFF7F7FB58B104210DF6F80078
S31508003E30FFF7F1FB28B1042203210DF6F800FFF77E
S31508003E4043FC0DF6F800FFF7F3FB032882BF282290
S31508003E50224B1A6005210DF6F800FFF7DCFB002857
S31508003E6000F0A382DDF85429B2F5006FC0F09D82F8
S31508003E7092FBF5F305FB132212B12821174A1160AC
S31508003E8016492E46D1F800C000218E46DDF83029A5
S31508003E90CDF854396A43CDF83029B3F5006F1FD3EE
S31508003EA003F00101002903EBD3731CBF86464FF0CC
S31508003EB0280C01465B1052007600EEE7002B7FF4D3
S31508003EC0A0ADA1E5089BAEE6CDF84480DFE63D4609
S31508003ED0012364E701233D4615936FE7481E00203A
S31508003EE0BEF1000F02D0C748C0F800C019B1CDF81E
S31508003EF05439CDF83029013E0DF5DE60FFF798FB01
S31508003F00032840F2C98201210DF5DE60FFF783FB25
S31508003F1010B92822BB4B1A6001230E9ACDF8183720
S31508003F209A42CDF8203900F0BC8201270DF5DE60F3
S31508003F30FFF77EFB032882BF2822B24B1A60DDF802
S31508003F400037089A0DF5DE601344CDF80037DDF822
S31508003F50FC36139A4344CDF8FC36DDF80C37134487
S31508003F60CDF80C37DDF80837089A4B44CDF80837F2
S31508003F70DDF808391344CDF80839DDF80439139A01
S31508003F804344CDF80439DDF814391344CDF814390F
S31508003F90DDF810394B44CDF81039FFF759FB0DF60B
S31508003FA0F800FFF755FB0A9B002F06BF984601232A
S31508003FB04FF001080B9A3193139B09FB0239099BB1
S31508003FC003FB09F32B932A9B03FB08F329935B0056
S31508003FD02C9300231693169B1A9A934280F22D82ED
S31508003FE02B9ACDF8F036CDF8F838269B134424934F
S31508003FF000231F461C93319B9F4280F21B82CDF8FB
S31508004000F476CDF8FC782FB1B8F1010F1EBF28223F
S315080040107C4B1A60DFF8F491DFED7B9A4846FCF793
S315080040206CFC0C9BB8EECA8AF8EEEA8A002B40F0C4
S31508004030BE8140F20023F0EE490A00EE103A0C99D0
S31508004040D9F86802FCF7C0FA28EE298AF3EE480A7E
S315080040500121B0EE600AD9F86802FCF7B5FAF3EE6A
S31508004060680A0221B0EE600AD9F86802FCF7ACFAD1
S31508004070002213460DF5DE6151F804CB0133486C76
S31508004080092B00FB0C22F7D1DDF8F0C85D480DF5C9
S31508004090DE6306900CF1120053F82000DDF8EC18E8
S315080040A0059001F1120053F82000DDF8E8E80490C5
S315080040B00EF1120053F8200003EB8C0C0390BCF8A9
S315080040C0240003EB81010290898C03EB8E03019196
S315080040D09B8C2D994D4800930A4401230021D0F862
S315080040E06802FCF732FC002213460DF6F80151F877
S315080040F004CB0133486C092B00FB0C22F7D1DDF801
S31508004100F8CADFF800910DF6F803CDF818900CF10F
S31508004110120053F82000DDF8F41A059001F1120098
S3150800412053F82000DDF8F0EA04900EF1120053F877
S31508004130200003EB8C0C0390BCF8240003EB8101F0
S315080041400290898C03EB8E0301919B8C2899149815
S31508004150DFF8B8A0009302FB00121BEE103A01210B
S31508004160DAF86802FCF7F1FB149A099B149993FB99
S31508004170F2F39AB21E92309ACDF8189092FBF1F2A9
S31508004180CDE9043201230393BDF83C3002210293A2
S31508004190BDF86C30249A01931E9B0093DAF86802E6
S315080041A01BEE103AFCF7D1FB1D9B002B00F0178184
S315080041B01C9A9A181D9B0321002B1E9B08BF0123DE
S315080041C0CDE900391BEE903ADAF86802FCF70DFCE7
S315080041D01E9B1C99279ADFF834A00093CDF804900B
S315080041E00A441BEE903A0421DAF86802FCF7FDFB54
S315080041F0B8F1010F0CDD41465046024AFCF742FB76
S3150800420006E000BF481E0020000000384C1E0020B3
S31508004210BBF1010F04DD5946AD4AAE48FCF732FB47
S315080042204FF0000ADFF8A892AB4B4121AB4AA948E8
S31508004230CDF80490CDF800A0FCF76BFB4A4629465A
S31508004240A448FCF71FFB4A460E99A248FCF71AFB3E
S315080042504A4615999F48FCF715FB4A460F999D480B
S31508004260FCF710FB4A461B999A48FCF70BFB40F2F1
S31508004270CD119B4B9B4A9748CDE900A9FCF749FB12
S315080042805346072293490DF5DE60FFF7CFFA5346EA
S3150800429040F2D711944A8F48CDE900A9FCF739FBBB
S315080042A08C48FCF7B4FB042202218A48FCF702FC7E
S315080042B0062388491A460DF5DE60FFF789FA854810
S315080042C0FCF7A5FB0623052282490DF5DE60FFF7FC
S315080042D07FFA4FF0F87340F2D711844A7D4800936D
S315080042E0CDF804905346FCF714FB142305227949AC
S315080042F00DF6F800FFF79AFA002E72D133464121DF
S31508004300CDE90069754A7348FCF703FB7148FCF769
S315080043107EFB072304226F490DF5DE60FFF758FA86
S31508004320062304226B490DF6F800FFF751FA69488F
S31508004330FCF76DFB0723032266490DF6F800FFF725
S3150800434047FA0623032263490DF5DE60FFF740FAB4
S315080043506048FCF75CFB012202215E48FCF7AAFBD9
S31508004360072302225B490DF6F800FFF731FABBF185
S31508004370010F02DD5748FCF74AFB0623012255497F
S315080043800DF5DE60FFF724FAB8F1010F02DD51489A
S31508004390FCF73DFB4E4B1B68CBB31D4628460DF676
S315080043A0043DBDEC088BBDE8F08F0026A4E5B0EE11
S315080043B0490AD9F868020021FCF744F928EE290AC7
S315080043C0D9F86802B3EE400A0121FCF73BF9B3EECF
S315080043D0680A0221D9F86802FCF734F948E633AAD4
S315080043E0E8E64A4631463B48FCF74CFA8023DDF8B6
S315080043F0E02A41219340CDE900A9384A354843F0DF
S315080044001F03FCF786FA3348FCF701FB7EE7259B7A
S3150800441063B13048FCF714FB249B299A01371344EF
S3150800442024932C9A1C9B13441C93E4E51F9B01338D
S315080044301F93F1E7169B0133CCE5119B03F10108A5
S3150800444004E4209B01330893FFF7CBBB259B204D43
S315080044508BB1FCF7B7F80D9B1A9909985943129B2B
S3150800446094F92420594394F928304143A069FCF76C
S3150800447077FB2D6892E70B9B109959430D9B59437F
S31508004480129B5943099B59431F9B91FBF3F17729CB
S31508004490DCBF21232B60ECE70E9B012B12D00027F3
S315080044A04DE5012F0AD00E9F0F9B012B03D01B9BB6
S315080044B0012B7FF43BAD002F3FF438AD2822044B87
S315080044C01A6032E5012F4FF00007EDD12EE500BF47
S315080044D0481E00204C1E00203C2E090000000450F7
S315080044E00EBC0400060001600607055005030270AD
S315080044F02DE9F04F2DED048B436CB9B02393036C73
S3150800450090ED178A2493036DD0ED188A2593C36C12
S315080045104669269303682E93C3681593036909931E
S3150800452043681693436B0A93836B0793C369279370
S31508004530036A1793436A1893836A199383682893BF
S31508004540036B2993C36B1A93C36A2A9383692A9ABE
S315080045502B93002337931A9B1A4312F0010540F058
S315080045601E82289B2B9833430343299802F00302A3
S31508004570034303F00103134301BF06EBD6734FEA67
S31508004580630A01230D93079B1CBFB2460D95B3F52D
S31508004590806F00F306820A9BB3F5806F00F30182F1
S315080045A0099B0AFB03F3B3F5006F219380F0F981A9
S315080045B0079B03FB0AF3B3F5006F229380F0F181A2
S315080045C0079BB3F5806F00F2EC810A9BB3F5806F09
S315080045D000F2E781002900F0DC81199B189A7F3BDD
S315080045E018BF0123803218BF012330930D9B179AF9
S315080045F0002B14BF0523012309EE903A279B4FF0A1
S31508004600000973435343159A3193099BCDE91199D0
S315080046105343169ACDF87C9053433293079B0A9AD4
S315080046207343209353433393179BCDF86C9073438E
S315080046302F9340F2002309EE103A129B2E9A9342CA
S3150800464080F2A581269B0E935B420B931B9B1D93C1
S315080046500023139354E1089BA348002B0C9BACBF83
S315080046604FF0000B9B46089BF0EE490A23EAE374D9
S31508004670DDE907321344099A00219A42DBBF134643
S315080046800C9A079F9F184FF48A73119AA7EB0B078A
S3150800469003FB020040F2002300EE103A1C90FBF7E1
S315080046A093FFF0EE480AFAEEE80AF3EE600A0121F3
S315080046B0B0EE600A1C98FBF787FFF8EEE80AF3EEFF
S315080046C0600A1C98B0EE600A0221FBF77DFF189B72
S315080046D01C98803303D1199B7F2B00F04481DDEDB4
S315080046E0187AF8EEE70AF3EE600A0321B0EE600ADC
S315080046F01C90FBF769FFDDED197AF8EEE70AF3EE91
S31508004700600A1C98B0EE600A04213490FBF75CFF3F
S31508004710309B34981E9301231C932C9B169A289938
S3150800472004FB02320124219B1FFA8AF80493109B8A
S31508004730BFB20A44CDE90083002119EE903ACDE9CB
S315080047400274CDF814A03490FBF788FF2D9B2999A5
S3150800475006FB0B32229B3498CDE90343109B0A448F
S31508004760CDE90083214619EE903ACDF814A00297B8
S31508004770FBF774FF1A9B3498002B40F014810D9BAD
S3150800478037AA002B14BF062302234FF0010B022180
S31508004790009435933490FBF7DBFF0321359B2A9A67
S315080047A03498CDF80080FBF7D3FF19EE903A042130
S315080047B00F9A3498CDE904AACDE902BBCDE9008B5E
S315080047C00024FBF74BFF40F22D232246214634985E
S315080047D00093CDE901442346FBF7DCFF434B40F247
S315080047E0D712594634980093CDE90144404BFBF75C
S315080047F0D1FF40F2D71202213E4B3498CDE901444D
S315080048000094FBF7C7FF1C9B1E9AA34214BF2346BE
S315080048104FF04F6382EA0B02CDE9013240F23E23A4
S315080048203498009340F2D712334B03211E90FBF7BE
S31508004830B1FF1C9B1E98002B00F099804FF04F6328
S3150800484040F2D512CDE9004304212C4BCDF808B02F
S315080048501C90FBF79FFF04231C9800244246214620
S31508004860CDE9003423464FF002081C90FBF7B8FF49
S315080048701123CDE900830123109A19461C98FBF7EA
S31508004880AFFF22233A464146CDE900831C9801230F
S31508004890FBF7A6FF21461C98FBF77CFE119B239A83
S315080048A083F001031193149B013314930F9B334434
S315080048B00F930C9B9B1A0C93089B13440893149B09
S315080048C0179A9342FFF6C7AE139B249A01331393A4
S315080048D00B9B13440B930E9B9B1A0E932F9A1D9BAF
S315080048E013441D930CE000BFC82000200E7E08006C
S315080048F006000160060705500506027003040770E6
S31508004900139B279A934234DA0B9B1699002B0E9B1E
S315080049101F98B8BF1A46099B159C01FB03F30B9910
S31508004920A8BF002221EAE17101FB030315992C9324
S315080049300E9B0B44DDE90A1001440A988C42C8BF55
S3150800494003469B1A9BB21093209B02FB03931D9A66
S315080049502D932B9B13440F93259B0C935B42089333
S3150800496000231493ABE700231E931C93D5E6032379
S3150800497073E7129B319A013312931B9B13441B93C3
S31508004980329A1F9B13441F93339B994455E6FBF7B2
S3150800499019FE284639B0BDEC048BBDE8F08F2125F9
S315080049A0F7E72825F5E70D9B4446002B14BF062399
S315080049B002231A9AE9E600BF08B5114B984217D0A8
S315080049C00DD8A3F50043984214D003F580439842C6
S315080049D012D00C485B2100F065F9802008BD0A4B0F
S315080049E098420BD003F580439842F2D12820F5E788
S315080049F02620F3E72420F1E72520EFE72720EDE737
S31508004A000000054077FE02080040054008B5104B37
S31508004A10984216D003F58043984212D003F5804396
S31508004A20984211D003F5804398420DD003F5804390
S31508004A30984209D0074840F2A72100F033F9002030
S31508004A4008BD4FF0FF30FBE74FF6FF70F8E700BFF1
S31508004A5000800440ABFE020870B5044688B00068C2
S31508004A600D46FFF7A9FF0121064600F00FFC0121BC
S31508004A703A2000F00BFC2B790422A179607902F028
S31508004A8031F90D220021684625F049F903238DF8EE
S31508004A90063001238DF8053002238DF801302B7975
S31508004AA06A46591E4B424B41206821798DF80A30D7
S31508004AB002F024FA2268304B9A4255D003F5804317
S31508004AC09A4253D003F580439A4251D003F5804366
S31508004AD09A424FD029482A49A3F5BC33FC3B824267
S31508004AE018BF0B46A0796279217942EA004243F859
S31508004AF02120304600F0F6FB2D682668B0FBF5F05D
S31508004B00451E3046FFF782FF854204D940F28941A7
S31508004B101C4800F0C7F8336BDA0704D440F28B411F
S31508004B20184800F0BFF8F561256826792846FFF78A
S31508004B306DFF2B6BDB0704D440F21731114800F0E8
S31508004B40B1F805EB461500260E223146AE6604A8D6
S31508004B5025F0E5F80123206804A98DF8103002F045
S31508004B6071F9304608B070BD074BBBE7074BB9E78C
S31508004B70074BB7E7074BB5E70080044000800540C0
S31508004B8064C60340ABFE020884C60340A4C60340BD
S31508004B90C4C60340E4C603400123017902681148EC
S31508004BA003FA01F1824216D000F5804082420DD008
S31508004BB00D4B9A4211D003F580439A420FD003F564
S31508004BC080439A420CBF04234FF0FF33074AB4339D
S31508004BD05B01D15070470023F8E70223F6E7032369
S31508004BE0F4E700BF008004400000054000C0034011
S31508004BF070B504680679E569204669436425B1FB02
S31508004C00F5F5FFF703FF854204D940F2FA21074874
S31508004C1000F048F8236BDB0704D44FF43F710348D0
S31508004C2000F040F804EB4614256770BDABFE020899
S31508004C302DE9F843174B1F6D5B6D1F4000D5FEE746
S31508004C4001260025144CDFF85480DFF854903742CB
S31508004C5017D02368C8F850609BB1A168284601316F
S31508004C606268A1609847637B012B0AD148B909EBB2
S31508004C7045131A7B60F341021A731A7F60F34102E7
S31508004C801A770135082D4FEA460604F11004DED1DD
S31508004C90BDE8F88300000440F0220020002004400C
S31508004CA070230020FEE74FF04023D3F88420D20675
S31508004CB0FBD4D3F88400C0F38110704738B50F4B86
S31508004CC00546D3F880300C4603F00303012B09D0C0
S31508004CD0022B0FD00A4840F64571FFF7E3FF002381
S31508004CE0184602E0FBF796FB0E2305B1286004B1CF
S31508004CF0237038BDFBF7DAFB0723F6E70080004090
S31508004D00DCFE020838B5194B0546D3F820310C46A7
S31508004D1003F00703013B052B20D8DFE803F0030B5C
S31508004D20130F171BFBF770FB052305B1286004B1A9
S31508004D30237038BDFBF79EFB0323F6E7FBF7B6FBAC
S31508004D400723F2E7FBF7AEFB0223EEE7FBF75CFB74
S31508004D500623EAE7FBF78EFB0423E6E7044840F65A
S31508004D60BE71FFF79FFF00231846DEE7008000406C
S31508004D70DCFE020838B5154B0546D3F828310C4633
S31508004D8003F00703013B032B17D8DFE803F0020EF5
S31508004D90120AFBF739FB052305B1286004B1237015
S31508004DA038BDFBF783FB0723F6E7FBF763FB032313
S31508004DB0F2E7FBF777FB0223EEE705484FF45D6160
S31508004DC0FFF770FF00231846E6E700BF00800040A3
S31508004DD0DCFE0208F7B50024154B0194D3F8805180
S31508004DE0074605F00305022D0E4614D0032D0DD0F7
S31508004DF0012D15D1214601A8FFF784FF10230FB115
S31508004E00019A3A6006B1337003B0F0BDFBF74EFB6A
S31508004E1007230190F3E7FBF745FB2B460190EEE7E6
S31508004E2041F2E2010348FFF73DFF2346E7E700BFEB
S31508004E3000800040DCFE0208002337B50193184BBA
S31508004E400546D3F820320C4603F00703013B032B33
S31508004E501ED8DFE803F0020E1318002101A8FFF799
S31508004E6089FF12230DB1019A2A6004B1237003B099
S31508004E7030BDFBF71BFB07230190F3E7FBF758FB55
S31508004E800A230190EEE7FBF759FB09230190E9E7AE
S31508004E9040F69E510348FFF705FF0023E2E700BFEF
S31508004EA000800040DCFE020838B5124B0546D3F8F0
S31508004EB040310C4603F00303022B0BD0032B0DD015
S31508004EC0012B0FD1FBF734FB0A2305B1286004B187
S31508004ED0237038BDFBF732FB0923F6E7FBF72BFBFC
S31508004EE00C23F2E7044840F6EC71FFF7DBFE0023DB
S31508004EF01846EAE700800040DCFE0208002337B5C2
S31508004F000193184B0546D3F860320C4603F00703A5
S31508004F10013B032B1FD8DFE803F0020E191400210A
S31508004F2001A8FFF7EFFE10230DB1019A2A6004B11C
S31508004F30237003B030BD002101A8FFF7B5FF112388
S31508004F40F2E7FBF7B3FA07230190EDE7FBF7AAFAB6
S31508004F5002230190E8E740F633610348FFF7A2FE13
S31508004F600023E1E700800040DCFE0208002337B595
S31508004F700193184B0546D3F894320C4603F0070301
S31508004F80013B032B1FD8DFE803F0020E191400219A
S31508004F9001A8FFF7B7FE10230DB1019A2A6004B1E4
S31508004FA0237003B030BD002101A8FFF77DFF112350
S31508004FB0F2E7FBF77BFA07230190EDE7FBF772FAB6
S31508004FC002230190E8E740F666610348FFF76AFEA8
S31508004FD00023E1E700800040DCFE020873B50024E8
S31508004FE00F4B0194D3F87032064603F00303012BE6
S31508004FF00D4607D0022B11D040F691610948FFF7FC
S3150800500051FE04E0214601A8FFF74EFF11240EB118
S31508005010019B336005B12C7002B070BD1524F6E70C
S3150800502000800040DCFE020838B5154B0546D3F86B
S3150800503000320C4603F00703013B032B18D8DFE8C0
S3150800504003F0020A0E12FBF773FA0A2305B1286069
S3150800505004B1237038BDFBF771FA0923F6E7FBF7AD
S315080050606AFA0C23F2E7FBF7EFF90F23800AEDE75C
S31508005070044841F29811FFF715FE00231846E5E7A4
S3150800508000800040DCFE020838B5154B0546D3F80B
S3150800509008320C4603F00703013B032B18D8DFE858
S315080050A003F0020A0E12FBF743FA0A2305B1286039
S315080050B004B1237038BDFBF741FA0923F6E7FBF77D
S315080050C03AFA0C23F2E7FBF7BFF90F23800AEDE75C
S315080050D0044841F2CC11FFF7E5FD00231846E5E741
S315080050E000800040DCFE020838B5124B0546D3F8AE
S315080050F040320C4603F00303022B0BD0032B0DD0D2
S31508005100012B0FD1FBF714FA0A2305B1286004B165
S31508005110237038BDFBF712FA0923F6E7FBF70BFAFB
S315080051200C23F2E7044841F25B11FFF7BBFD0023AD
S315080051301846EAE700800040DCFE020838B5124B44
S315080051400546D3F860310C4603F00303022B0BD057
S31508005150032B0DD0012B0FD1FBF7EAF90A2305B172
S31508005160286004B1237038BDFBF7E8F90923F6E790
S31508005170FBF7E1F90C23F2E7044841F21A01FFF7BD
S3150800518091FD00231846EAE700800040DCFE02088D
S3150800519070B5054614460E4600F0E4FF296881EA14
S315080051A0040202EA06044C402C60BDE8704000F098
S315080051B0DDBF0000B0F5207F10B52ED009D8B0F5B8
S315080051C0007F24D003D868B1B0F5C07F0AD0002488
S315080051D01BE0B0F5607FFAD1124BD3F88040C4F3D8
S315080051E0011412E00F4B1C6F230B13F00E0FC4F3C0
S315080051F003340AD0032C08D0072C06D00F2C04D071
S315080052004FF419710848FFF74DFD601C10BD054B9A
S31508005210D3F89040C4F30464F7E7024B1C6FC4F359
S315080052208024F2E700800040DCFE02084FF480325A
S315080052300F4B70B59A66064600200D46FFF7BAFF73
S3150800524041F671320B4B7043DC690B49DA635A68D5
S31508005250884204F4803422F4401203D9012D18BF81
S3150800526042F480125A600CB10022DA6370BD00BFA6
S315080052700090004000000340005A620208B5FBF7A0
S31508005280F5F8BDE808400021FFF7D0BF70B544091E
S3150800529005460E460ED140F205310F48FFF702FDCE
S315080052A005F01F05AEB104F58053012000FA05F597
S315080052B01D6070BD012C08D0022C08D040F20F31B9
S315080052C00548FFF7EFFC0024EAE7044CE8E7044C3E
S315080052D0E6E704F50053E8E7DCFE020864800040D0
S315080052E068800040002130B5802885B00446CDE9A5
S315080052F0011100F094802AD8002800F09680A0F1C9
S315080053002004A3B23D2B35D83D2C33D8DFE804F072
S315080053108D998D99A8A8A8A8A899B23FC9633F995D
S31508005320999932323232323232329999996BD3990B
S3150800533032323232323232323232323232A88D8D13
S315080053408DCE3F3FD87A50AD323232323282B0F506
S31508005350B06F00F08F8030D8B0F5207F71D00FD8AD
S31508005360B0F5C07F61D0B0F5007F61D0B0F5807F21
S3150800537000F0858040F25A415448FFF793FC51E00B
S31508005380B0F5607F67D00DD8B0F5407FF2D1FBF756
S315080053905BF804464FF42070FFF70CFFB4FBF0F0FF
S315080053A040083EE0B0F5806F5AD0B0F5A06FE1D165
S315080053B0002101A8FFF740FD34E0B0F5106F75D065
S315080053C016D8B0F5E06F76D00AD8B0F5C06F68D0B9
S315080053D0B0F5D06FCED1002101A8FFF725FE21E058
S315080053E0B0F5F06FC6D1002101A8FFF7A7FE19E0B6
S315080053F0B0F5406F39D00AD8B0F5206F60D0B0F557
S31508005400286FB7D1002101A8FFF7E8FD0AE0B0F53B
S31508005410486FAFD1002101A8FFF7A8FD02E0FAF70F
S31508005420F9FF0190019805B030BDFBF70DF8F8E7D4
S31508005430FAF7F0FF05462046FFF7BCFEB5FBF0F08D
S31508005440EFE7FBF701F804464FF42070FFF7B2FECA
S31508005450B4FBF0F0E5E702A8FFF730FC029DEAE7A7
S31508005460002101A8FFF74EFCDCE7002101A8FFF7A1
S3150800547081FCD7E7002101A8FFF7ACFCD2E74FF083
S31508005480E02303911B695B0705D5FAF7DDFF039057
S31508005490039B0193C6E70DF1030103A8FFF704FD7B
S315080054A0F6E7002101A8FFF7FFFCBBE7002101A8EA
S315080054B0FFF7EAFDB6E7002101A8FFF715FEB1E7F9
S315080054C0002101A8FFF71AFDACE700BFDCFE0208C1
S315080054D008B58020FFF706FF034B98429EBF4FF49E
S315080054E08032024B1A6708BD005A620200A00040CB
