S02B00006275696C642F72656C656173652F74666C6974655F6D6963726F5F68656C6C6F5F776F726C642E73E9
S3150800000000100020C5030008C1030008C10300084A
S31508000010C1030008C1030008C1030008C1030008A2
S31508000020C1030008C1030008C1030008C103000892
S31508000030C1030008C1030008C1030008C103000882
S31508000040C1030008C1030008C1030008C103000872
S31508000050C1030008C1030008C1030008C103000862
S31508000060C1030008C1030008C103000805D302083C
S3150800007011D30208C1030008C1030008810B000858
S31508000080C1030008C1030008C1030008C103000832
S31508000090C1030008254D0008C1030008C103000874
S315080000A0C1030008C1030008C1030008C103000812
S315080000B0C1030008C1030008C1030008C103000802
S315080000C0C1030008C1030008C1030008C1030008F2
S315080000D0C1030008C1030008C1030008C1030008E2
S315080000E0C1030008C1030008C1030008C1030008D2
S315080000F0C1030008C1030008C1030008C1030008C2
S31508000100C1030008C1030008C1030008C1030008B1
S31508000110C1030008C1030008C1030008C1030008A1
S31508000120C1030008C1030008C1030008C103000891
S31508000130C1030008C1030008C1030008C103000881
S31508000140C1030008C1030008C1030008F57E0008C2
S31508000150C1030008C1030008C1030008C103000861
S31508000160C1030008C1030008C1030008C103000851
S3150800017010B5054C237833B9044B13B1044800E095
S3150800018000BF0123237010BD70120020000000007C
S31508000190B0E9030808B5034B1BB10349034800E05F
S315080001A000BF08BD0000000074120020B0E9030873
S315080001B0A3F5803A704700BF174B002B08BF134BB7
S315080001C09D46FFF7F5FF00218B460F461348144A54
S315080001D0121A2EF00CFB0E4B002B00D098470D4B35
S315080001E0002B00D098470020002104000D000D4880
S315080001F0002802D00C4800E000BF2EF095FA200037
S3150800020029002DF0E1F92EF069FA00BF0000080078
S3150800021000000000000000000010002070120020FE
S31508000220A034002000000000000000000F207047E6
S3150800023008B501213A2005F0ADF82CF0D7FFBDE846
S31508000240084000F015B801213A2005F0A3B80000CF
S315080002500122024BC3F8A020704700BF00D003500C
S315080002600122024BC3F8A020704700BF00E00350EC
S3150800027070B5454C8EB0264601AD0FCE0FC5336816
S3150800028014342B6006AD0FCC0FC594E80F0085E833
S315080002900F0001213A2005F07DF80121572005F0CD
S315080002A079F84FF48073394DADF81C30384B284631
S315080002B0039301A906AB059306F030FC012304223B
S315080002C00321022006F086FD0221002308460122AA
S315080002D006F080FD012304221946022006F07AFD65
S315080002E0042200210123022006F074FD294C2A4B22
S315080002F04FF44870C4F8C8344FF00213C4F8C43435
S3150800030003F58033C4F8CC341C23C4F8B43407F09E
S3150800031027FE1420FFF7A4FF07F022FE2320FFF78D
S3150800032097FF07F01DFEB9212846FFF799FF06F04B
S315080003304CF9FFF78DFF002303211A46022006F029
S3150800034049FD002302211A46084606F043FD01230B
S3150800035000221946022006F03DFD0022012311461F
S31508000360022006F037FD284606F0C4F8002157207B
S31508000370C4F8C814C4F8C414C4F8CC14C4F8B41423
S3150800038005F008F80EB070BDD447030800000A50FF
S31508000390E070720000C0035002000100FEE7000092
S315080003A005490A681318054883428CBF4FF0FF3287
S315080003B00B601046704700BF0410002000000420A0
S315080003C0FEE7000008B500F02DF8124B12498B42E3
S315080003D012D30020114B12498B4218D3FFF7ECFEBB
S315080003E0186850F82240586840F822400132986848
S315080003F08242F5D30C33EAE70022F8E71C6844F892
S31508000400220001325C68A242F8D30833E4E70022EE
S31508000410F8E700BFB8E90308C4E90308C4E9030814
S31508000420C4E903084FF480414FF0FF30114B124ADC
S3150800043010B59A60D3F8882042F47002C3F8882071
S315080004400E4A91660E4901F5005210660D4850662F
S315080004500220C3F8D000BFF34F8FBFF36F8F01247C
S315080004604FF440330848C0F88041D36004600B61FC
S3150800047010BD00BF00ED00E000000008009000502D
S3150800048000800044F7FF370000E100E0014B1868E0
S31508000490704700BF0C100020084B1B6F03F00703C2
S315080004A0022B04D0032B05D0012B05D0FEE7044B05
S315080004B018687047034BFBE70348704700800050F5
S315080004C00C10002010100020002D310108B5FFF790
S315080004D0E3FF054B1B6FC3F303330133B0FBF3F0A4
S315080004E0024B186008BD00BF0080005008100020AD
S315080004F00048704700B4C404014B1868704700BF31
S3150800050010100020054B1860054B1B6F03F00703FE
S31508000510032B01D1FFF7DABF704700BF1010002088
S31508000520008000500020704700487047002D3101B8
S315080005304FF0B4439868C0F304400C2822D8DFE88B
S3150800054000F0092121212121071719211B1D1F0050
S315080005500F4870479B6803F04073B3F1807F13D050
S31508000560B3F1007F12D00B4A002B08BF1046704724
S31508000570094870470948704709487047094870474D
S315080005800948704700207047084870470848704770
S31508000590405DC60000093D000024F400C0EA2101C0
S315080005A080BA8C010048E801005A620280841E0065
S315080005B040420F004FF4004070474FF47A7070477E
S315080005C0014B1868704700BF14100020044B054AF9
S315080005D0043850F8041F43F8041B9342F9D17047B6
S315080005E06400005D7801005D10B5084C237A53B9A4
S315080005F0E360074B236002F0F5FF4FF40042054B1A
S315080006001A6001232372002010BD00BF18100020B5
S31508000610CD05000800E100E0092370B50C46054643
S31508000620084EC0F8103133690133336102F0DCFF3C
S3150800063021462846336898470CB102F0D7FF0020B8
S3150800064070BD00BF1810002002F0D0BF0729F8B50A
S3150800065005460C4610EE107A10EE906A03D9BC21B6
S315080006600448FFF79BFE05EB840325F824705E809B
S31508000670F8BD00BF0848030807EE903AF8EEE70A07
S3150800068007EE902AB8EEE70AF3EE600AB3EE400AE0
S31508000690FFF7DCBF07EE902A40F20003B8EEE70A40
S315080006A000EE903AB3EE400AFFF7D0BF07EE903A55
S315080006B0F8EEE70A07EE902AB8EEE70AF3EE600AC4
S315080006C0B3EE400AFFF7C2BF40F2000300EE903ACD
S315080006D0FFF7BCBFF3EE600AB3EE400AFFF7B6BFFA
S315080006E02DE9F84F042907460C4693469946BDF866
S315080006F02880BDF82C60BDF83050DDF838A003D945
S31508000700D7213248FFF74AFEB8F5806F03D9D821BA
S315080007102E48FFF743FEB6F5806F03D9D9212B483B
S31508000720FFF73CFEB5F5806F03D9DA212748FFF7B6
S3150800073035FE0D9B03F50063B3F5805F03D3DB211C
S315080007402248FFF72BFE0AF50063B3F5805F03D353
S31508000750DC211E48FFF722FE0F9B03F50063B3F565
S31508000760805F03D3DD211948FFF718FE184B0F9950
S31508000770013E013D03EA0A4A03EA0141C6F30906B6
S31508000780C5F3090507EB041246EA0A060D43966205
S31508000790D5620D9A08F1FF3803EA02434FEA093297
S315080007A002F440521343C8F3090843EA0803023423
S315080007B019F0040F07EB041218BF43F48043240111
S315080007C0536047F804B0BDE8F88F00BF084803082F
S315080007D00000FF0F30B50124002587B0CDE9045489
S315080007E00395BDF828500094CDE90145FFF778FF39
S315080007F007B030BD70B50124002686B0BDF82C5070
S31508000800CDE90454CDE90256BDF82850CDE9004596
S31508000810FFF766FF06B070BD2DE9F04107290446CB
S315080008200E4615461F469DF8208004D940F21F1132
S315080008300B48FFF7B3FDDDE906320C2101FB064143
S315080008401343C1F8B070C1F8B4302A05B8F1000FE7
S3150800085003D1C1F8B820BDE8F08142F00042F8E7BC
S31508000860084803082DE9F041072906460C461546AF
S3150800087098469DF8187004D940F231112148FFF7BF
S315080008808DFD013DABB2B3F5806F04D34FF499717A
S315080008901C48FFF783FDB8F1070F04D940F233115E
S315080008A01848FFF77BFD072F04D94FF49A711548AE
S315080008B0FFF774FD0C20079A04F10E0345EA02358A
S315080008C000FB0862B84546F833504FEA4404D2F8AC
S315080008D0B85007D1032101FA04F42C43C2F8B840F2
S315080008E0BDE8F0810123A3402B43C2F8B8300223A8
S315080008F000FB076603FA04F4D6F8B8302343C6F8B3
S31508000900B830EDE70848030837B50446D0F8700252
S31508000910062804DD0AB12123136003B030BD4B1E3F
S31508000920B3F5806FF6D200250130C4F87002CDE920
S3150800093000558AB22B46C1B2D4F86802FFF792FF77
S31508000940D4F87022D4F8683202F10E0103EBC10321
S315080009505D60D4F87832D4F87402591C9333C4F81D
S31508000960781244F82320012304EB8004520003FA8A
S3150800097002F2D4F82C321343C4F82C32CDE74FF0E8
S31508000980FF332022C0E99C33C0F87832002100F5F5
S315080009900A702DF02CBF30B5D0F8744285B0062CFD
S315080009A0099D04DD0DB121232B6005B030BD00255E
S315080009B00134C0F874420295089DCDE90035134606
S315080009C0D0F868020A46E1B2FFF726FFEDE72DE9FF
S315080009D0F0430429BDF81C50BDF82060BDF824700A
S315080009E0DDE90ACEDDE90C8404D90CB121232360A4
S315080009F0BDE8F083B5F5806F14D8B6F5806F11D8C9
S31508000A00B7F5806F0ED80CF50069B9F5805F09D285
S31508000A100EF50069B9F5805F04D208F50069B9F5E5
S31508000A20805F03D3002CE3D02823E0E7CDE90BE869
S31508000A30CDE9097CCDE90756BDE8F043FFF750BE7E
S31508000A4070B588B0BDF83450BDF838400F9ECDE972
S31508000A50054604FB05F604960126CDE90256BDF8BF
S31508000A603050CDE90045FFF7B2FF08B070BD30B58C
S31508000A7089B00D9C0025069401240395CDE90454FC
S31508000A80BDF830500094CDE90145FFF7A0FF09B045
S31508000A9030BDD0F8783210B503F1920150F82140F4
S31508000AA00221D0F87422640000EB820201FA04F4F1
S31508000AB0D2F82812013B2143C2F82812C0F878322E
S31508000AC010BD0000F8B500210C250446D0F8743294
S31508000AD000F50A76DFF854C0D0F868028B4217DAB8
S31508000AE005FB030393F8BB20002142F0800283F83C
S31508000AF0BB20FFF791FD4FF48A72D4F86C3283F06D
S31508000B000103C4F86C3202FB0343C4F86832F8BD2B
S31508000B1005FB0107D7F8B82056F804EB02EA0C02E1
S31508000B2042EA0E02C7F8B8200131D7E70000FFFFF6
S31508000B300023C0E99A037047D0F8783210B593338A
S31508000B4050F82340D0F86832033103EBC403186F1A
S31508000B50890002FA01F10843186710BDD0F8783207
S31508000B6010B5933350F82340D0F86832033103EBBD
S31508000B70C403586F890002FA01F10843586710BD8B
S31508000B804FF0BA4210B5D469136A1C40E1070DD577
S31508000B900121124BD961124B506919680144196039
S31508000BA091695A680A445A6002F022FD620308D520
S31508000BB04FF48022094BDA61094A136803F18073FE
S31508000BC01360230308D54FF40022044BDA61044A64
S31508000BD0536803F18073536010BD00BF0020005DA9
S31508000BE08C1200202DE9F04F174687B004460D46B3
S31508000BF0984602F0FFFC17F1800F064602D1B8F1BD
S31508000C007F0F04D0A02D11D82544A54202D107B0E4
S31508000C10BDE8F08F94F900309F4202DD2770013459
S31508000C20F3E79845B8BF84F80080F8E74FF0000965
S31508000C3040F20A2A3B463A4600213046FFF71CFD99
S31508000C404346424601213046FFF716FD4B464A46C3
S31508000C5049463046CDE90199CDF800A0FFF7DCFDFD
S31508000C6040F20B232F4A0121CDE90032304640F2EB
S31508000C70D5122D4BCDF80890FFF7CEFD01212B4B51
S31508000C8040F2D512CDE9013130460221284BCDF884
S31508000C9000A0FFF7C1FDB5F5006F2B4628BF4FF43E
S31508000CA0006323F0030B4FEA5B0A1FFA8AFA22460F
S31508000CB0002130460593CDF800A00523FFF78AFDED
S31508000CC02246052301213046CDF800A0FFF782FD14
S31508000CD00223059A002130460093C2F38F020123AE
S31508000CE0CDF80490FFF7BEFDA5EB0B0501213046B4
S31508000CF0FFF792FC9F2D5C44CDD845B1254414F9E5
S31508000D00013B9F4208DD04F8017CA542F7D107B0F4
S31508000D10BDE8F04FFFF798BC9845B8BF04F8018CBA
S31508000D20F3E700BF0000A021000102200000B02167
S31508000D30000103302DE9F04F2DED028B044687B0F4
S31508000D40002800F0008102F055FCD4ED017AF8EE97
S31508000D50E70AD4ED027A60EEA70AD4ED047AB8EE73
S31508000D60E78AD4ED057A636AB0EE600A002128EEB8
S31508000D70278A05460593D4F800A0D4F80C90D4F831
S31508000D801880FFF7A7FCD4ED020A0121B0EE600A2D
S31508000D902846FFF79FFCF0EE480AB0EE480A022103
S31508000DA02846FFF797FCD4ED050A0321B0EE600A42
S31508000DB02846FFF78FFCE36904211A462846FFF701
S31508000DC075FCD4ED080A0521B0EE600A2846FFF73F
S31508000DD081FC002640F20E2340F2D71231462846FF
S31508000DE00093CDE90166594BFFF716FD40F21F2324
S31508000DF040F2D712012128460093CDE90166544BEB
S31508000E00FFF70AFD4FF4A77202212846514BCDE998
S31508000E1001660096FFF700FD01224F4B0321CDE93D
S31508000E200132284640F2D7124C4B0096FFF7F4FCE5
S31508000E30059B012B46DC37D162689AF9003094EDA0
S31508000E40056A134407EE903A226999F90030B8EE1C
S31508000E50E77A134407EE903AF8EEE77AD4ED026A99
S31508000E6067EE867A47EE267A94ED077AD4ED086A15
S31508000E70B8EEC77A07EEA67A17EE100A2CF038FDF8
S31508000E8041EC100B31F07CFE51EC100B2DF04AF8BA
S31508000E909FED337A07EE900AF4EEC77AF1EE10FA70
S31508000EA044DD7F2388F80030A06994F9293094F945
S31508000EB02820616AFFF796FE002007B0BDEC028B7A
S31508000EC0BDE8F08F059B5246B3F5006FA8BF4FF4F7
S31508000ED00063C3F34F0723F0010B002105232846BF
S31508000EE00097FFF777FC4A46052301212846009715
S31508000EF0FFF770FC42460523022128460097FFF7B4
S31508000F0069FC0323009300233A46194628460196AE
S31508000F10FFF7A8FC01212846FFF77EFB059BDA446C
S31508000F20A3EB0B03D944D844059381E79FED0D7ACB
S31508000F30F4EEC77AF1EE10FA56BFFDEEE77A802393
S31508000F4017EE903AAEE72120B7E700BF060100602A
S31508000F5007030270060007600000F0220605047009
S31508000F600000FE42000000C32DE9F04F2DED068B70
S31508000F70436CD1B02B93836D05463393436D90ED47
S31508000F80178A3493036DD0F840801D93C36C90F88C
S31508000F90487010938368C66B3593036B1791369325
S31508000FA0C36A379340F20003ADF83A318369409338
S31508000FB000234F9302F026FB04462FB91D9B109A77
S31508000FC013431CBF21234F93339B012B02D1349B20
S31508000FD0012B01D021234F93179B73B1DDE93532DD
S31508000FE01343379A33431343DB0706D521234F931D
S31508000FF098217748FFF7D2F905E04F9B169353B12E
S31508001000179B002BF4D14F9B1693169851B0BDEC45
S31508001010068BBDE8F08F2046FFF78AFD2B68D5EDD5
S31508001020188A38936B68002E0E936B69BAEEE88AB5
S315080010300B93EB68B3EE488A2C932B6911936B6B71
S315080010401E93AB6B1E9A1293EB692D932B6A13931F
S315080010502C9BA3EB0203109A134493FBF8F34393D8
S31508001060DDE91132A3EB02031D9A13442B9A93FB75
S31508001070F2F3139A44930B9B02FB03F319930E9B0B
S31508001080129A02FB03F32093209A1E9B02FB03F39A
S31508001090119A25930E9B02FB03F30E9A22932B9B20
S315080010A002FB03F34593229B119A03FB08F346932D
S315080010B0229B03EBD3734FEA63034993259B03EB08
S315080010C0D3734FEA63034A93209B03EBD3734FEA28
S315080010D063034B93BDF82C301A9308BF01233F9343
S315080010E00DF59D7318BF33460AEE903A2C9B534371
S315080010F00E9A5343139A4C932D9B53430B9A53437F
S315080011003E93169B0D9340F2002309EE103A0D9B71
S31508001110139A934214DB179B002B3FF476AFFFF725
S3150800112093FA2D9B38990B985943139B95F92420CC
S31508001130594395F928304143A869FFF753FD64E7F9
S315080011400D9B2B9A1D995A431D9B1298D31A8A1ADE
S3150800115022EAE2721492119A1499D21A9042D4BFD2
S31508001160C1EB0001C1EB0201002B2EDB0D98449E5A
S31508001170129F9742D8BF304602462692269A0D9865
S31508001180121A013209920E9A4A4314992E92339AE8
S3150800119001FB02333C932E9B099903EBD3735B1037
S315080011A04793DDE945320129D8BF13462A9303EB55
S315080011B0D3735B10489300230A930A9B2D9A934294
S315080011C008DB269B01330D93A1E70D9AD5E700BFEF
S315080011D05F4803080A9B109A08FB03F3991AD31A67
S315080011E02C9A1E9823EAE373521A9042D4BFC3EB93
S315080011F00007C3EB0207002953DB0A9943981E9E92
S315080012009642D8BF01460A462792279A0A99521A41
S31508001210249201321592249A002A51D0099A012A59
S315080012204EDDB8454CD03EDD4FF0010AA8EB070B62
S31508001230159A012A07DD0AFB08F20BEB07018A4219
S3150800124001D028224F92159A12995245A8BF5246A4
S315080012504192199A02FB0AF23992149A01FB032267
S315080012600E994A4315993B92099A012AD8BF0A460C
S3150800127092B23B993D92369A0A4409EE902A0A9A06
S31508001280109902FB08F2521A349903FB01232F9393
S3150800129000230F930F9B419A934216DB279B01333A
S315080012A08AE70A9AB0E797FBF8F208FB127B9246A0
S315080012B0BBF1000FBCD002F1010AA8EB0B0BB7E794
S315080012C04FF0010A4FF0000BBDE70F9B159A9342AA
S315080012D0C4BF28234F93249B0F9A01339B1A93FB71
S315080012E0FAF20AFB1233002B18BF0132012A099BB6
S315080012F01F9200F02F82012B08DCBBF1000F01D0F2
S3150800130028234F93CDF830B01B9706E0CDF830B0C0
S315080013100C9B1F9AFB1853431B930C9B2F9A013B5C
S31508001320002B3A93CCBF4FF48773002311990AEE2A
S31508001330103A3C9B01FB02330E9A139953430A9ABF
S3150800134023930F9B13440D9A01FB03230B9A5343D4
S31508001350189300232893289B389A93420ADB0F9BFD
S3150800136001330F932F9B43442F9393E700231B9737
S315080013700C93D2E7399BB3F5006F0ADB199B0AF188
S31508001380FF39B3F5006F01DB28234F93199B1C9394
S3150800139003E04FF00009399B1C931F9B229A09FB17
S315080013A003334293189B002BBCBF28234F930B9BF8
S315080013B0002BBCBF28234F931C9B002BBCBF2823A4
S315080013C04F93209B1343259A13432E9A13432A9A25
S315080013D013433B9A1343239A134313F001032193B0
S315080013E000F076812A9B229A3093259B3293209B84
S315080013F031932E9B204629934D92FFF7C0FA219BE5
S315080014000126002B0CBF052301234FAAD4F8680236
S3150800141006924D9ABDF8A4100492309A029103924E
S31508001420BDF86C20309101923D9A23990092359A25
S3150800143005960A4400214D93FFF7C9FA4FABCDE94B
S315080014400563319BBAB20493329B01920393309B96
S3150800145019EE902A02931A9B31460093D4F8680233
S315080014604D9BFFF7B4FA4FAB01933F9B1AEE902AB8
S3150800147000930223D4F868021946FFF7F8FA4FAB2F
S3150800148001931A9B03210093379A0223D4F8680222
S31508001490FFF7EDFA4FABCDE905630B9B189904935B
S315080014A01C9B409A03931A9B0A440293BDF8243066
S315080014B004210193BDF808310093D4F86802334635
S315080014C0FFF785FAB0EE490A0021D4F86802FFF75B
S315080014D0FBF8219B002B40F00481F0EE480AB0EEA1
S315080014E0480A3146D4F86802FFF7B0F8B8EEE80AB9
S315080014F00026B3EE400A0221D4F86802FFF7E4F8A2
S3150800150020460B994FAAFFF7FFF94FAB412120461A
S31508001510934A019300964EF62C43FFF73CFA204671
S3150800152009994FAAFFF7F0F920461F994FAAFFF726
S31508001530EBF9394620464FAAFFF7E6F920462999DE
S315080015404FAAFFF7E1F94FAB40F2CD112046CDE99E
S315080015500063844A844BFFF71EFA4FAB40F2D7115B
S31508001560824A2046CDE900633346FFF714FA20463F
S31508001570FFF78FFA022231462046FFF7DDFA0222EC
S3150800158001212046FFF7D8FA2046FFF782FA099B81
S31508001590012B04DC012231462046FFF7CDFA0C9BCD
S315080015A0002B04DD022200212046FFF7C5FA219B05
S315080015B0002B40F09E800C9B4A21023B1C934FABAC
S315080015C00193219B20460093694A1AEE103AFFF7C9
S315080015D0E2F91C9B4FAE013B21931C9B40F2CD11B7
S315080015E0002B4FF04F6320460093624ACCBF4FF45E
S315080015F0877300230196FFF7CEF9B9F1000F0FDDC7
S31508001600324649462046FFF77FF900222046CF2377
S31508001610114601960092FFF7BEF92046FFF739FA00
S315080016204FF000094FAE4B46412120464C4A0196E1
S31508001630CDF80090FFF7AFF9219B012B5CD1194635
S3150800164032462046FFF760F94B464A464946204649
S31508001650CDE90096FFF79FF92046FFF71AFA02220E
S3150800166049462046FFF768FA2046FFF712FA022293
S3150800167004212046FFF760FA099B012B04DD0122AD
S3150800168000212046FFF758FA2046FFF702FA0422FF
S3150800169020461146FFF750FA012220461146FFF769
S315080016A04BFA042202212046FFF746FA04220321B8
S315080016B02046FFF741FA2046FFF7EBF94F9B002B30
S315080016C037D0179B002B3FF49EAC40F2FA2190E4EA
S315080016D0489B3093DDE9492332934B9B3193479BD3
S315080016E088E6B0EE480A3146D4F86802FEF7ECFF01
S315080016F0FCE63A9B1C936CE7B6DD1C9B3246991EAA
S315080017002046FFF701F9324620460121FFF7FCF88B
S315080017104A4649464B462046CDE90096FFF73BF92F
S315080017202046FFF7B6F9022249462046FFF704FA93
S3150800173092E7179B13B12046FFF7C4F9289B4C9AEA
S3150800174001332893239B134423933E9A189B1344EF
S31508001750189300E6012B7FF709AE00230C93D7E513
S3150800176000000450060001600E7E080006070550BA
S3150800177000000550050302700121FFF7F5BB0021A3
S3150800178008B5FFF7F1FBB0FA80F0400908BD002064
S3150800179070470000836D70B5012B044620D1436D58
S315080017A0012B1DD1426843699A4219D1002102F0E2
S315080017B021FFB0FA80F67609D4E903235A43D4E91F
S315080017C00D134B4361694B43B2EB830F0ADD0121CD
S315080017D0204602F031F9054668B90025284670BD4D
S315080017E00026E9E7002EF2D00121204602F002FF8A
S315080017F00028ECD1F1E736B10121204602F0FAFEC5
S3150800180005460028E9D051210148FEF7C7FDE5E75E
S31508001810C0480308836D70B5012B044607D0002124
S31508001820204602F009F9B0FA80F0400970BD456D0E
S31508001830012DF4D1416943689942F0D1D0E90332C8
S315080018405A43D0E90D6373434B43B2EB830FE6DC8F
S31508001850002102F0CFFE0028E1D12846E6E7000085
S315080018602DE9F04F2DED048B82468BB028B9212047
S315080018700BB0BDEC048BBDE8F08FC16A21B13621EF
S31508001880CC48FEF78BFDF2E7036A9FEDCB9A13F07F
S31508001890010F14BF4FF480624FF400629A42C0F2FF
S315080018A0DE80049101F0A6FEDAE90F7BDAED057A0F
S315080018B0B8EEE78ABAF85030DAF8208008EE903A9F
S315080018C00BFB07F318F0010528EE098A044609EE12
S315080018D0103ADAF84C900499BFB240F0D08108EB80
S315080018E0D8764FEA6608C6F34F06CDE90076052393
S315080018F02946DAF80020FEF77DFF1FFA8BF30093DE
S3150800190005230196DAF8182001212046FEF772FF12
S31508001910DAF83020002A00F09A80BAF834300093BA
S315080019200223194620461FFA8BF6FEF753FFCDE928
S3150800193000760123DAF8382003212046FEF75AFFFD
S31508001940DFED9D0A0021B0EE600A2046FEF7C2FED2
S31508001950F0EE480AB0EE480A01212046FEF7BAFE24
S31508001960B0EE680A03212046FEF7AEFE4A46042179
S315080019702046FEF78FFE4FF0000940F22D234A4617
S31508001980494620460093CDE901994B46FEF744FFA8
S315080019908A4B40F2D712012120460093CDE90199DE
S315080019A0874BFEF739FF40F2D71202212046CDE9D0
S315080019B00199844BCDF80090FEF72EFF002D4BD1F0
S315080019C04A2203212046CDE901557F4B0095FEF7B3
S315080019D023FF4FF0040900254FF0010B7B4B5FFAFC
S315080019E089F940F2D71249462046CDE9013B0095D0
S315080019F0774BFEF711FF2B463A4629462046CDE996
S31508001A000095FEF72FFF42F202033246594620465A
S31508001A10CDE900932B46FEF725FF022120231FFA66
S31508001A2088F2CDE9001320465B46FEF71BFF5946B0
S31508001A302046FEF7F1FD19EE101A9AF953309AF975
S31508001A405220DAF83800FFF7CDF8002010E7012316
S31508001A50604A0093022364E74FF00309BBE7069147
S31508001A6001F0C8FDDAED057AF8EEE78ABAF85030E3
S31508001A70054668EE898A08EE103ADAF83C30DAF854
S31508001A804C20DAF820400893DAF84030F0EE490A9C
S31508001A90B0EE490A0699059204930994FEF71AFED0
S31508001AA0F0EE680AB0EE680A01212846FEF712FE33
S31508001AB003212846B0EE480AFEF706FE04F00106A2
S31508001AC004212846059AFEF7E5FD16BB4FF00508E2
S31508001AD004EBD47464104FF0010B0027B4F5806F43
S31508001AE01ADC364B40F2D712002128460093CDE97E
S31508001AF00177334BFEF790FE40F2D71201212846B4
S31508001B00CDE901772F4B0097FEF786FED6B1022165
S31508001B1022E04FF00108DEE700232F4810F8011BEA
S31508001B2094FBF1F201FB124CBCF1000F06D1944272
S31508001B3001FB0BFB3FF49BAE1446CFE701330B2B9F
S31508001B40ECD194E602214A222846CDE901661E4BCD
S31508001B500096FEF761FE0321002601271B4B40F283
S31508001B60D7122846CDE901370096194B1FFA8BFB89
S31508001B70FEF752FE33465A4631462846CDE90076E8
S31508001B80FEF770FE2223A4B2CDE90073224633463F
S31508001B9039462846FEF766FECDE90566089BB34238
S31508001BA06ADC089904989AF9533041439AF9522005
S31508001BB047E700BF2B490308000000380E7E0800DF
S31508001BC00600016006070550000005500000D023F6
S31508001BD005030450A049030895490308069BDAF84B
S31508001BE0002007991A44DAF818300B4408EE903AA0
S31508001BF0DAF83030002B3CD033F8173008EE103ABC
S31508001C00059B002107EB0309DAF838302846994482
S31508001C10CDE900B44346FEF7EDFD434618EE902A9B
S31508001C2001212846CDE900B4FEF7E4FD01234A4622
S31508001C30009303212846FEF7CDFDB0EE480A05219C
S31508001C402846FEF741FD01212846FEF7E5FC079BDD
S31508001C50099A013713440793049BBB42BEDCDDE9AE
S31508001C60042313440593099A069B013613440693E5
S31508001C7094E740F20003C1E700270797ECE71FFA4D
S31508001C8088F6CDE900760123DAF80020FEF7B2FDE2
S31508001C901FFA8BF300930196012333E658B1031F0D
S31508001CA09FED137A0020DFED136A9FED136A01EBAF
S31508001CB04202914200D17047D3ED017AF8EEE77AF5
S31508001CC067EE877AF4EEE67AF1EE10FA03F104038A
S31508001CD00CDCF4EE467AF1EE10FA48BF2120F3EE5A
S31508001CE0677A17EE90CA21F802CBE2E72120F6E7D9
S31508001CF00000003800E07F4700E07FC700000000D2
S31508001D0038B50022164B51EC100B2BF049FE10A3E8
S31508001D10D3E9002304460D462CF0D2F870B90EA379
S31508001D20D3E90023204629462CF0ACF858B92046BA
S31508001D3029462CF03DFC00EE100A38BD47F6FF3365
S31508001D4000EE103AF9E74FF6FF33F9E7AFF30080F4
S31508001D500000000000FCEF400000000000FCEFC09F
S31508001D600000E04070B560B3026AD30755BF4FF470
S31508001D7000614FF4806102EBD273134658BF5B10C3
S31508001D8091421FDA01220DE00021194E16F8015B77
S31508001D9093FBF5F405FB143068B9A34205FB02F280
S31508001DA00DD02346B3F5806FEEDCB2F5806FCCBF5D
S31508001DB00020012003E001310B29E7D1002000F0C3
S31508001DC0010070BDC36B013BB3F5806F0DD2036C88
S31508001DD0013BB3F5806F08D2002A06DD406BB0F5EB
S31508001DE0806F8CBF00200120EBE70020E9E700BFE9
S31508001DF0954903082DE9F04F2DED068B0368C5B00C
S31508001E003893C368D0F8049022930369D0ED098A01
S31508001E100F93836990ED089A3093C36990F8385008
S31508001E202393036C2C911693C36B1093D0E90CB3D0
S31508001E302493C36A2593836A2693836831934369F7
S31508001E4032930023439301F0DDFB09F001030446B6
S31508001E5013932DB9169B109A13431CBF2123439342
S31508001E60139B43B92C9B33B1DDE931321343D907B0
S31508001E7044BF21234393439D002D40F039832046D8
S31508001E80FEF756FE269A229B0B959B1A109A134428
S31508001E9093FBFBF3259A3A930F9B9B1A169A1344C6
S31508001EA0249A93FBF2F33B9309FB02F32D930F9BC2
S31508001EB003FB09F31A930BFB03F32E93239B03FBF4
S31508001EC009F31B931A9B1B9A03F001033393139B85
S31508001ED0002B0CBF052301230AEE103A0F9B0BFBC0
S31508001EE003F309FB03F33D93309B53431A9A3C9340
S31508001EF0229B53433E9340F2002309EE903A0B9BF4
S31508001F00239A934209DB2C9B0BB1FEF79DFB439862
S31508001F1045B0BDEC068BBDE8F08F249A0B9B25993E
S31508001F205343169A9A1A2792169AD31A23EAE373F0
S31508001F30279A17930F9B9B1A179A9942D4BFC2EBFD
S31508001F400102C2EB03022892279A002A2EDB3B9A4B
S31508001F500B9925989842C8BF0A4613461D931D9BA0
S31508001F600B9A9B1A013318932D9BB3F5006FA4BFE8
S31508001F70282343932E9BB3F5006F19DA189B012B80
S31508001F80CCBF0023012309930999DDE92D230029F4
S31508001F9008BF13462F9303F0010334930023309AA6
S31508001FA0934207DB1D9B01330B93A8E70B9BD5E7F1
S31508001FB00023E8E70BFB03F1109A9FED747A8D1A5C
S31508001FC0511A229A21EAE171501B269A8242D4BFFD
S31508001FD0C1EB0208C1EB0008289A08FB02F64FF489
S31508001FE0004292FBF6F208EE102AB8EEC88AB3EE63
S31508001FF0488AF2EE487AF4EEC77A9FED657AF1EEF2
S3150800200010FAF4EEC77ABCBF28224392F1EE10FA12
S3150800201084BF28224392B6F5007FC4BF2822439284
S31508002020002D61DB3A9A269D8542C8BF1A461E9244
S315080020301E9AD21A1C92013211921C9A002A5FD05B
S31508002040099A002A5CD1C3455AD04FDD0125ABEB6E
S315080020500806119A012A07DD05FB0BF208EB0600B4
S31508002060824201D028224392119A681EAA42A8BF2A
S315080020702A4639921B9A189F6A43B2F5006FB8BF71
S315080020800020BC4621900130099F3F901198002FEF
S3150800209008BF604680B2239F36900B9803FB070063
S315080020A009FB00F00BFB03F3299010981B1A19443F
S315080020B01798279B03440F9800FB013109FB01F38E
S315080020C02A9313461B99B2F5006FA8BF0B462093B7
S315080020D003F00103359300230E930E9B399A93421E
S315080020E011DB1E9B01335AE71E93A1E798FBFBF50C
S315080020F00BFB1586002EACD00135ABEB0606A8E720
S3150800210001250026B0E70E9B119A9342C4BF2823E7
S3150800211043931C9B0E9A01339B1A93FBF5F205FB1E
S315080021201233002B18BF0132012A099B199200F0BD
S31508002130E18133B10EB1282343930A96CDF8508036
S3150800214005E00A960A9B199A434453431493199B2C
S315080021503F9A53439BB237932A9B1593299B2B93FC
S3150800216000231F931F9B389A934280F2B581139BD5
S31508002170C3F102030D932B9B129300230C937DE16D
S315080021800023CDF850800A93E1E700BF00E07FC73F
S3150800219000E07F47129B002BBCBF28234393B9F16D
S315080021A0000FBCBF28234393209B002BBCBF2823CA
S315080021B04393139BF3B90C9B01334B45A4BF2823C8
S315080021C04393129BDA0748BF2823159A48BF4393BF
S315080021D00C9B1344DB0744BF28234393339B0BB163
S315080021E028234393349B0BB128234393359B0BB188
S315080021F0282343930D9B0D9A99FBF3FA1A9B2046C5
S3150800220093FBF2F12F9B419193FBF2F34093FEF778
S31508002210B6FB319B159A41999A18409B43AF039395
S31508002220BDF8A030CDE905A70293BDF8503004915A
S315080022300193369B0C9900930A441AEE103A002132
S31508002240D4F86802FEF7C3FB069700270D9A209B71
S31508002250CDE904A793FBF2F34FF0010A0393BDF807
S31508002260603012990193379B329A0093CDF808A0F3
S315080022700A441AEE103A5146D4F86802FEF7A7FB4C
S31508002280F0EE480AB0EE480A3946D4F86802FEF776
S31508002290DDF940F20023F0EE690A00EE103A5146E5
S315080022A0D4F86802FEF7D2F919EE103A803304D151
S315080022B018EE903A7F2B00F0F180F8EEC90AF3EE9B
S315080022C0600A0421B0EE600AD4F86802FEF7BEF987
S315080022D0F8EEE80AF3EE600A0521B0EE600AD4F8D3
S315080022E06802FEF7B3F94FF0010A0027204618994D
S315080022F043AAFEF709FB2046199943AAFEF704FBF1
S3150800230043AB4FF0005201212046019300973B460C
S31508002310FEF741FB4146204643AAFEF7F5FA20465A
S31508002320289943AAFEF7F0FA43AB40F2D711744A4C
S315080023302046CDE9007340F20B23FEF72CFB20461E
S31508002340FEF7A7FB022239462046FEF7F5FB204694
S31508002350FEF79FFB099B23B1012239462046FEF76B
S31508002360EBFB0A9B002B04DD022200212046FEF728
S31508002370E3FBBAF1000F14BF00224FF01A620A9B62
S3150800238040F29711012BA3F1020743ABCDE90023D5
S315080023902046CCBF40F20B1300235A4AFEF7FBFA3D
S315080023A0BAF1000F0BD043AB01934FF01E6340F216
S315080023B0D511009320460023534AFEF7ECFA219BD9
S315080023C0002B1FDD0DF5867A194652462046FEF784
S315080023D09BFA524601212046FEF796FA002320462C
S315080023E01A4619460093CDF804A0FEF7D4FA2046FB
S315080023F0FEF74FFB012220461146FEF79DFB2046BD
S31508002400FEF747FB002F17DD012F43AA48D13946AF
S315080024102046FEF779FA002143AB01930A460B469C
S3150800242020460091FEF7B7FA2046FEF732FB022255
S3150800243000212046FEF780FB2046FEF72AFB0222F3
S3150800244001212046FEF778FB099B23B9012219468C
S315080024502046FEF771FB2046FEF71BFB4398002833
S315080024607FF456AD2C9B13B12046FEF72BFBDDE916
S315080024700C3213440C93129B134412930C9B4B453A
S31508002480FFF688AE1F9B3C9A01331F932B9B134480
S315080024902B933E9A159B1344159363E6BA4624E795
S315080024A00A9B2046D91EFEF72FFA204643AA012189
S315080024B0FEF72AFA002143AB0A460091204601930B
S315080024C00B46FEF768FA2046FEF7E3FA02220021D9
S315080024D02046FEF731FBA7E70E9B1B9A01330E93A6
S315080024E0299B134429933D9A2A9B13442A93F4E57E
S315080024F028460DE5002B7FF443AE0A9322E600BF7B
S315080025000301022002000020040502602DE9F04FB5
S315080025102DED048B0368C3B03393C36890ED098A25
S3150800252020930369D0ED088A0E938369D0F804A036
S315080025302A93C36990F838502193036C1291149327
S31508002540C36B0F93D0E90C932293C36A2393836AD0
S31508002550249383682B9343692C930023419301F0BA
S3150800256051F804462DB9149B0F9A13431CBF212317
S315080025704193129B63B1DDE92B321343DB0707D581
S315080025802123419340F262319848FDF707FF05E0A1
S31508002590419B119353B1129B002BF3D1419B11938D
S315080025A0119843B0BDEC048BBDE8F08F2046FEF7CA
S315080025B0BFFA249A209B9B1A0F9A134493FBF9F3AC
S315080025C0239A35930E9B9B1A149A1344229A93FBCB
S315080025D0F2F33693219B03FB0AF317930E9B0AFB30
S315080025E003F318930AFB02F33793189B189A09FB0F
S315080025F003F338930E9B09FB03F30AFB03F33C939F
S31508002600209B5343179A30932A9B53433D93119B20
S315080026100B934DF6000309EE103A0B9B219A934251
S3150800262005DB129B002BBBD0FEF70EF8B8E7229A03
S315080026300B9B23995343149A9A1A2592149AD31AE0
S3150800264023EAE373259A15930E9B9B1A159A9942CA
S31508002650D4BFC2EB0102C2EB03022D92259A002ACF
S315080026601BDB369A0B9923989842C8BF0A4613462D
S315080026701B930B9A1B9B9B1A03F10108DDE9373262
S31508002680B8F1010FD8BF1346299300232A9A93421B
S3150800269005DB1B9B01330B93BFE70B9BE8E709FBA5
S315080026A003F20F99249D501A8A1A209922EAE27297
S315080026B0091A8D42D4BFC2EB0505C2EB01050028F5
S315080026C0099561DB3598249D8D42C8BF18461C9034
S315080026D01C99C91A1991013110911999002963D0C9
S315080026E0B8F1010F60DD0999894500F024824DDDB6
S315080026F04FF0010BA9EB01051099012907DD0BFB2A
S3150800270009F109982844814201D02821419110995C
S315080027100BF1FF305945A8BF5946349117990F9EBA
S315080027200BFB01F1B1F5006FB8BF00201F90013017
S315080027303A901098B8F1010FC8BF404680B2319060
S3150800274003FB09F0801B0244259E159830440E9E13
S3150800275006FB02020AFB02F2219828920B9A03FB57
S3150800276000230AFB03F327930B46179AB1F5006F6C
S31508002770A8BF13461E9300230D930D9B349A9342CC
S3150800278016DB1C9B013381E71C93A1E7099909987D
S3150800279091FBF9F109FB11058B46002DACD001F12F
S315080027A0010BA9EB0505A7E74FF0010B0025AEE7DE
S315080027B00D9B109A9342C4BF28234193199B0D9AE7
S315080027C001339B1A93FBFBF20BFB1233002B18BF4A
S315080027D00132012A169200F0A781B8F1010F07DC31
S315080027E00DB128234193099B0A9507E0A2490308DE
S315080027F00A95DDE909321344169A53431393169B37
S315080028003A9A53439BB23293279B1A93289B269353
S3150800281000231D931D9B339A934280F279810023EE
S3150800282065E1099B139300230A93E8E71A9A0C9B20
S315080028309B182F9344BF28234193BAF1000FBCBFBE
S31508002840282341931E9B269A002BBCBF282341931D
S315080028500C9B9F180133534580F22381189B43EA4A
S315080028600A06299B1E431E9B1E432F9B1E433E435F
S31508002870F64306F00106731C3B939AFBF3F32E937B
S31508002880189B721C93FBF2F2299B3F92721C93FBD6
S31508002890F2F11E9B204693FBF2F33E913993FEF725
S315080028A06EF8002E0CBF012305232E9AD4F8680271
S315080028B005923F9A3E990492BDF8B42041AE029221
S315080028C0BDF84C2003910192319A002100922B9A6F
S315080028D006963A443E93FEF77AF82E9B0027049311
S315080028E0399B1FFA88F2039301230293329B2C9992
S315080028F001922F9A0093069605970A443E9B01215A
S31508002900D4F86802FEF763F84DF60003F0EE490ABC
S3150800291000EE103A3946D4F86802FDF797FEF8EE4D
S31508002920E80AF3EE600A0321B0EE600AD4F86802FA
S31508002930FDF78CFEF8EEC80AF3EE600A0421B0EE45
S31508002940600AD4F86802FDF781FE32464146204601
S31508002950FDF7DAFF324620461699FDF7D5FF3B46C6
S315080029604FF0805241212046CDE90076FEF713F854
S31508002970324620460999FDF7C7FF324620462D996B
S31508002980FDF7C2FF40F20A2340F253116C4A204673
S31508002990CDE90076FDF7FFFF2046FEF77AF802221A
S315080029A039462046FEF7C8F82046FEF772F8B8F111
S315080029B0010F04DC012239462046FEF7BDF80A9BC2
S315080029C0002B04DD022200212046FEF7B5F80A9BFB
S315080029D041AA012BA3F102064FF01D6340F2D5115F
S315080029E0CDE900322046CCBF4FF485730023554A03
S315080029F0FDF7D1FF1F9B002B1DDD41AF19463A4657
S31508002A002046FDF781FF3A4601212046FDF77CFF67
S31508002A10002320461A46194600930197FDF7BBFF87
S31508002A202046FEF736F8012220461146FEF784F8BE
S31508002A302046FEF72EF8002E17DD012E41AA32D1C8
S31508002A4031462046FDF760FF002141AB01930A4657
S31508002A500B4620460091FDF79EFF2046FEF719F823
S31508002A60022200212046FEF767F82046FEF711F8F5
S31508002A70022201212046FEF75FF8B8F1010F04DDB6
S31508002A80012200212046FEF757F82046FEF701F8F6
S31508002A90419B23B3129B002B3FF480AD40F2D241F9
S31508002AA072E50026E7E60A9B2046D91EFDF72CFFAD
S31508002AB0204641AA0121FDF727FF002141AB0A461E
S31508002AC00091204601930B46FDF765FF2046FDF76A
S31508002AD0E0FF022200212046FEF72EF8BDE7129BF2
S31508002AE013B12046FDF7EEFF0C9B3B9A13440C935B
S31508002AF00C9B5345FFF69AAE1D9B309A01331D93E6
S31508002B00269B134426933D9A1A9B13441A9381E6EF
S31508002B100D9B3C9A01330D93289B13442893179ACF
S31508002B20279B1344279328E6B8F1010F7FF779AE60
S31508002B3000230A935DE600254FF0010BE7E500BF89
S31508002B4002000110030401502DE9F04F2DED048B0E
S31508002B500368ABB01F93C36846680E93036990ED8C
S31508002B60098A08938369D0ED088A0F93036CD0F815
S31508002B701C901093C36B90F838701193036B1E91D9
S31508002B801893436B06F001051993C36AC5F102054C
S31508002B902093836A219383681A9343691B930023BE
S31508002BA0299300F02FFD04462FB9DDE910321343AF
S31508002BB01CBF21232993022D08D11E9B33B1DDE9C1
S31508002BC01A321343DB0744BF21232993DDF8A48077
S31508002BD0B8F1000F40F07281089B2046734393FBBF
S31508002BE0F5F3229309FB06F393FBF5F32393FDF71D
S31508002BF09FFF022D0CBF0523012309EE903A0F9B78
S31508002C0096FBF5FA09FB03F3259340F2002309EE38
S31508002C10103ACDE91688CDF82C800B9B1F9A934263
S31508002C2080F24A81119B0A935B421493169B159373
S31508002C3000230C930CE1099B129A249923EAE37367
S31508002C401A440A4472432792DDE908215118209A4A
S31508002C5020469142D4BFC3EB0103C3EB02031D9A7E
S31508002C601C9302FB03F14FF4004393FBF1F300EED0
S31508002C70903AF8EEE00AF3EE600ACDED260AFDF783
S31508002C807EFE1A9A01271146229B1FFA8AFB049395
S31508002C90BDF8203029AD0293BDF83830CDE905A539
S31508002CA0CDE900B3279A03970A4419EE903A002112
S31508002CB0D4F86802FDF78BFE239BCDE905A5CDE97F
S31508002CC003731FFA89F30293BDF83C30139ACDE9D2
S31508002CD000B3394619EE903AD4F86802FDF777FE44
S31508002CE0DDED260A0021B0EE600AD4F86802FDF789
S31508002CF0ADFC40F20023F0EE490A00EE103A3946E0
S31508002D00D4F86802FDF7A2FC18EE903A803304D195
S31508002D1018EE103A7F2B00F0C080F8EEE80AF3EEC2
S31508002D20600A0421B0EE600AD4F86802FDF78EFC4A
S31508002D30F8EEC80AF3EE600A0521B0EE600AD4F888
S31508002D406802FDF783FC4FF0010B002529AF3A46D0
S31508002D5051462046FDF7D8FD2B464FF0005201217B
S31508002D60204601970095FDF716FE3A4620461D991E
S31508002D70FDF7CAFD3A4620461C99FDF7C5FD40F207
S31508002D800B2340F2D711514A2046CDE90057FDF7EB
S31508002D9002FE2046FDF77DFE022229462046FDF763
S31508002DA0CBFE042229462046FDF7D8FE2046FDF72D
S31508002DB070FE012229462046FDF7BEFE022229465C
S31508002DC02046FDF7CBFEAB4514BF2B464FF01A63E2
S31508002DD040F29711CDE9003720462B463C4AFDF7CD
S31508002DE0DAFDBBF1000F0AD04FF01E6340F2D51191
S31508002DF0009320462B46374A0197FDF7CCFD20461F
S31508002E00FDF747FE299B002B5ED11E9B13B120467A
S31508002E10FDF758FE0D9B199A01330D93099B9B1AD2
S31508002E200993129B13441293139B334413930D9BDC
S31508002E304B45FFF600AF0C9B189A01330C930A9B7F
S31508002E409B1A0A93149B13441493159B4B4415938E
S31508002E500C9B0F9A934223DA17990A9B149A23EA32
S31508002E60E3730A4408991A444A430E9924920A9A23
S31508002E700A4421998A42D4BFC3EB0203C3EB010378
S31508002E801D93109B159A09935B4212931B9B06FB95
S31508002E900233139300230D93C9E74FF0000B54E751
S31508002EA00B9B259A01330B93169B134416930E9A84
S31508002EB0179B13441793B0E6FDF7C6FB40462BB0A5
S31508002EC0BDEC048BBDE8F08F9846F7E703010220B6
S31508002ED0020000200405026070B505460021FFF7D0
S31508002EE033FED5E906235A43D5E90A134B436968E5
S31508002EF006464B430A2103EBC303053393FBF1F361
S31508002F009A420BDC50B901212846FFF71DFE0446FC
S31508002F1050B155210748FDF741FA06E00121284638
S31508002F20FEF768FF044610B90024204670BD002E3F
S31508002F30EFD1E8E7A24903080121FFF7E7BA10B580
S31508002F4000210446FFF700FE38B100212046FEF7AF
S31508002F5051FFB0FA80F0400910BD0120FCE70021BE
S31508002F6008B5FFF7D3FAB0FA80F0400908BD0000AB
S31508002F702DE9F04F2DED068B0368ADB01493C368A9
S31508002F80D0F8049015930369D0F814B00A93C3696E
S31508002F9090F848500593036A07910693436A169377
S31508002FA0836A1793436B0B93836B0C93436C219340
S31508002FB0036C2293036D1893C36C1993D0ED178A8B
S31508002FC0836890ED188A249383692593C36A1A93B4
S31508002FD0036B2693C36B0893436E0D930023CDE9C9
S31508002FE02A3300F00FFB04462DB9DDE918321343E6
S31508002FF01CBF21232B93079BB3B1089B0BB1DB079F
S315080030000BD41A9B0D9A03F0010302F00302134333
S3150800301003D1DDE91632934206DD21232B936D2178
S31508003020AC48FDF7BBF905E02B9B099353B1079B09
S31508003030002BF4D12B9B099309982DB0BDEC068B78
S31508003040BDE8F08F2046FDF773FD079B73B1BDF809
S31508003050183020460193BDF81430BDF8502000936F
S315080030600D991FFA8BF300F0D1FA2B90DDE90B23AB
S31508003070534309FB03F30A9A2393159B00275343EB
S31508003080299340F20023CDE91B7709EE103A1097F1
S3150800309037E10F9B0F9A23EAE375069B13440C9AB4
S315080030A09342D4BFC5EB0303C5EB020309EE903A7E
S315080030B0279B05EB0308269B09FB0838209B1D4424
S315080030C0289B1D440BFB05F50D9B03EB45050023CB
S315080030D01393139B5B4549DB129B219A0133129389
S315080030E00F9B9B1A0F93209B134420931F9B4B44C3
S315080030F01F93129B0A9A9342CBDB119B229A0133A8
S3150800310011930E9B9B1A0E931E9B13441E930A9AA9
S315080031101D9B13441D93119B159A934280F2E480DC
S315080031201E990E9B1B9A23EAE3730A4406991A44CE
S315080031304A430C992892DA194A430E992792059A16
S315080031400A440B998A42D4BFC3EB0203C3EB0103BB
S315080031500AEE103A189B1D9A0F935B422093249B04
S3150800316009FB02331F9300231293C2E72046FDF79B
S3150800317006FCBDF828302BAE1FFA89FACDE902A65F
S315080031800193BDF85430002100931F9A0123D4F807
S315080031906802FDF755FCBDF83030CDE902A601936B
S315080031A0BDF82C30424600930123D4F8680219462C
S315080031B0FDF746FC1FFA8BF30293BDF81830039609
S315080031C00193BDF814302A4600930223D4F8680206
S315080031D01946FDF735FCB0EE490A0021D4F8680215
S315080031E0FDF772FAB0EE680ABAEEE80A4FF0000A7E
S315080031F0B3EE400A0121D4F86802FDF765FA3246B3
S3150800320049462046FDF780FB0A2340F2D71120469F
S31508003210314A0196CDF800A0FDF7BDFB32461AEEFD
S31508003220101A2046FDF770FB324619EE901A204612
S31508003230FDF76AFB294B40F2D711294A204600932D
S315080032400196284BFDF7A7FB2046FDF722FC042232
S3150800325002212046FDF782FC042201212046FDF7C3
S315080032607DFC022220461146FDF766FC022201215A
S315080032702046FDF761FC2046FDF70BFC022220469E
S315080032801146FDF76BFC022201212046FDF766FC7C
S31508003290012251462046FDF74FFC012220461146E1
S315080032A0FDF74AFC2046FDF7F4FB2B9B33B1079B41
S315080032B0002B3FF4BFAE40F20911B1E6079B13B1EC
S315080032C02046FDF7FFFB139B023501331393239B1F
S315080032D09844FEE6044A0308020001500000F02262
S315080032E0050304702C6C0800109B299A013310936F
S315080032F01C9B13441C93059A1B9B13441B930B9B03
S315080033001F44109B149A934208DA199B0E935B424A
S315080033101E931C9B1D9300231193FCE6DDF89480F5
S315080033201A9B08F0010203F0030313430BF0010292
S3150800333013430D9F089A3A4302F00302134305BF4D
S315080033400BEBDB734FEA630B00230123002B1FFAF9
S315080033508BF30A9314BF0523012308EE903A089BC2
S3150800336014BF4FF006094FF00209002B0A9B08BF4D
S315080033700123089A0C932AAB18BF134609EE103A94
S31508003380DDE9053253430BFB03F30B935B000D9307
S3150800339000230893089B149A934202DBFDF754F91D
S315080033A04AE62046FDF7EBFABDF818A00A9BBDF8D9
S315080033B01460CDE901A32BAD039500964B463A461A
S315080033C00221D4F86802FDF73BFB0A9B0395CDE979
S315080033D001A3009618EE903A42460021D4F86802F6
S315080033E0FDF72EFB0C9B0195009319EE102A4B4610
S315080033F00121D4F86802FDF73AFB0A9B0195009370
S3150800340003214B461A9AD4F86802FDF730FBF8EE0A
S31508003410C80AF3EE600A0021B0EE600AD4F8680222
S31508003420FDF714F9169B803303D1179B7F2B00F009
S315080034308A80DDED167AF8EEE70AF3EE600A0121D6
S31508003440B0EE600AD4F86802FDF700F9DDED177AE8
S31508003450F8EEE70AF3EE600A0221B0EE600AD4F845
S315080034606802FDF7F3F84FF0010A00252BAE4FF47A
S3150800347007732A462946204601960095FDF78BFADA
S31508003480324620460599FDF73FFA32462046069908
S31508003490FDF73AFA2B232A4629462046CDE9005657
S315080034A0FDF779FA324659462046FDF72DFA40F2DD
S315080034B03D234FF4A77120462B4ACDE90056FDF768
S315080034C06AFAAA4514BF2B464FF00F6340F2D7118C
S315080034D0CDE900362046254B254AFDF75CFABAF1B8
S315080034E0000F0AD04FF00F6340F2D5110093204623
S315080034F02B46204A0196FDF74EFA2046FDF7C9FAF3
S31508003500042200212046FDF717FB0422022120464B
S31508003510FDF712FB2046FDF7BCFA022200212046E1
S31508003520FDF70AFB022220461146FDF705FB204659
S31508003530FDF7AFFA2B9B4BB1079B002B3FF47AADF7
S3150800354040F2BF116CE54FF0000A8EE7079B13B1F6
S315080035502046FDF7B7FA089B013308930D9B1F44D5
S315080035600B9B984416E700BF03000470AB70080075
S3150800357007050070010207700121FFF7F9BC002159
S3150800358008B5FFF7F5FCB0FA80F0400908BD000061
S3150800359038B54FF0BA44074D6368DA0705D54FF0DA
S315080035A0BA4213695B07FCD538BD52212846FCF799
S315080035B0F5FEF1E76F4A03084FF08042074B0121F9
S315080035C09A664FF0BA4303F58052516001F54021DF
S315080035D01162034A1268DA60704700BF0090005013
S315080035E02C100020FFF7E8BFFFF7D2BFFFF7D0BFC8
S315080035F07047000000487047941200200048704742
S315080036009412002000487047941200202DE9F04FCC
S315080036102DED028B1D46002389B0BDF850609346F8
S3150800362006FB05F2BDF8547004467A43520005922B
S31508003630EA078846079315D46D100123002B40F23C
S31508003640000314BF4FF0060A4FF0020A4FF00009B4
S3150800365008EE103ACB450DDC079809B0BDEC028B95
S31508003660BDE8F08FF00701D47610E6E7F907E5D450
S315080036707F10E2E72046FDF782F940F20003F0EEFC
S31508003680480A00EE103A0021D4F86802FCF7DEFF7B
S3150800369007ABCDE90253BBB20193B3B24246002150
S315080036A0D4F8680200935346FDF7CAF90022294662
S315080036B02046FDF729F9002239462046FDF724F968
S315080036C0002231462046FDF71FF94FF084530022A9
S315080036D0CDE90032002320461A461946FDF75BF964
S315080036E02046FDF7D6F9042200212046FDF724FAE4
S315080036F02046FDF7CEF9012200212046FDF71CFAE7
S315080037002046FDF7C6F907980028A6D12046FDF7FA
S31508003710D9F9059B09F1010998449BE700EB81015A
S315080037204B6A012B05DD886C0028D4BF00200120D8
S31508003730704700207047002238B5054614461146E2
S315080037402846FFF7EBFF00B101340132092AF6D10A
S31508003750204638BD2DE9F041002504462A464FF09B
S315080037602808194F00F1240629462046FFF7D6FFF8
S3150800377090B102F17E03C6F8B02144F82350736A6B
S315080037800132B3F5006F336828BFC7F80080B3F578
S31508003790806F88BFC7F800800135092D06F1040639
S315080037A0E2D1032A0ADC08237E3204EB820204F5FE
S315080037B00174A24205D042F8043BFAE72822024BDC
S315080037C01A60BDE8F08100BF101500202DE9F3410D
S315080037D000EB810600EB820705460C4690466846D4
S315080037E0BA6CB16C2AF060FF019B13B128220C4B0E
S315080037F01A607B6A009AD31A42BF282008490860D3
S3150800380004EBC40101EB0804243445F82430736A38
S3150800381053437B620123736202B0BDE8F08100BFA7
S31508003820101500202DE9F04F24270546984608462E
S315080038304FF0010A4FF0000B7A4385B005F5EA769A
S3150800384005F5FC79A2F5A277F15900293AD00E9B25
S315080038503468002B1ADBD5F80432D0F868224FEA10
S31508003860830C0E9B02EBC3024FF4E043D2F870E0E0
S3150800387003FA0CF313EA0E0F08D14FF4805303FA38
S315080038800CF3A34043EA0E0313670139002919DD37
S315080038900F4A0390FDF738F80D4A0AFA04F3CDE902
S315080038A000B20022D5F8044248EAC31343EA0413D7
S315080038B01146039843F00803FDF76DF80398FDF7E2
S315080038C0E8F8039804364E45BED105B0BDE8F08F3A
S315080038D010150020F0B5D1F878620446062E0D467C
S315080038E085B004DD2122114B1A6005B0F0BD1146E2
S315080038F00393FFF713FF771C039B88B1D4F80412D0
S31508003900D5F8680200EBC6008E004FF48051B1402E
S3150800391004EB8206D6F8D461B140866F31438167DD
S31508003920294620460097FFF77DFFDEE710150020A1
S31508003930F7B5D1F874420546072C0E461F4604DD36
S315080039402122144B1A6003B0F0BD1146FFF7E6FEBC
S31508003950B8B10C23D6F8681203FB0411802405EBD2
S315080039608203D3F8D431D1F8B4009C40D5F8043298
S3150800397044EA031444F00E0404FA07F30343C1F8B7
S31508003980B4304FF0FF333146009328460623FFF73D
S3150800399049FFD8E71015002013B50A460446016BFF
S315080039A068462AF081FE009A002ADEBF28210B4BC2
S315080039B01960019B13B12821084B1960A36BA263F8
S315080039C0012B1EBF2821054B1960236B93FBF2F3CD
S315080039D0626D23635343E36502B010BD10150020E2
S315080039E070B504460D462422002104F148062AF043
S315080039F0FEFE2422002130462AF0F9FE2422002168
S31508003A0004F16C002AF0F3FE4FF4A272002104F1CF
S31508003A1090002AF0ECFE04F5EA70242200212AF030
S31508003A20E6FE0123C4F804522434B44202D044F812
S31508003A30043BFAE770BD00002DE9F04FD0E9159771
S31508003A402DED088B436CADF6043D2193036C90ED88
S31508003A5017AA1893036DD0ED18AA1993C36C90F89A
S31508003A6048801A934369259109934368A24E0A939D
S31508003A70DDE9093293FBF2F30893036805461B93C5
S31508003A80C368229303692393436B1093836B0B9349
S31508003A90C3690D93036A139383682C93036B269368
S31508003AA0C36B1E93C36A27938369289300233360E5
S31508003AB0FFF7A8FD1B9B0446012B1CBF212333607F
S31508003AC0B8F1000F05D1DDE9193213431CBF2123D4
S31508003AD0336040F20003ADF8CC30ADF8CE30089B29
S31508003AE02A9303F001030C93C3F102031593259B54
S31508003AF093B1279A1E9B13430C9A03F00303002ADB
S31508003B0040F06582289A26990A4302F00102134377
S31508003B1002D02122784B1A602046FDF709F80A9B45
S31508003B20239A002102FB03F6229B139A06FB03FB4A
S31508003B30099B36A802FB03F80D9B08FB03FAFFF75F
S31508003B404FFF0221B8A8FFF74BFF01210DF59D6035
S31508003B50FFF746FF13980D9943900A9842918446B9
S31508003B602198189900FB0CF071434C900D984B91D5
S31508003B7041434D9110991B9B45910B993F93469153
S31508003B8061460A9B01224093089B4F4341930023B9
S31508003B901A9906FB09F649423C91199949924942F4
S31508003BA03D911B994A934492CDF820B14E964F9772
S31508003BB0CDF80C150899CDF83825CDF83415CDF87B
S31508003BC01415CDF820251399109ACDF81C15CDF8A3
S31508003BD044350999CDF82425CDF848350B9ACDF802
S31508003BE04C350C9BCDF830A5CDF810C5CDF8180589
S31508003BF0CDF83C85CDF84015CDF82825C3B9089BE6
S31508003C00159A93FBF2F308934193CDF814350C9B60
S31508003C100DF5A662022B1CBF1168159803F1010366
S31508003C201CBF91FBF0F11160092B02F10402F1D1DE
S31508003C300DF59D6A36AA4FF0000B90462127D1460E
S31508003C402D4E59464046FFF769FD40B1536AB3F514
S31508003C50806F03D8936CB3F5006F00D3376059466D
S31508003C604846FFF75BFD50B1DAF82430B3F5806FAC
S31508003C7004D8DAF84830B3F5006F00D337600BF193
S31508003C80010BBBF1090F0AF1040A02F10402D8D1AB
S31508003C90194B1E68002E40F000840B9A099B0121DF
S31508003CA053430DF59D6002222F93FFF78FFD109A5F
S31508003CB0229BB3469B1A1A9A1F961344189A93FB8B
S31508003CC0F2F30B9A2D93239B9B1A199A1344219A64
S31508003CD093FBF2F32E930C9B002B0CBF05230123B9
S31508003CE00BEE103A0CBF062302230BEE903A40F275
S31508003CF0002309EE103A01E010150020139B9B459E
S31508003D0080F22584219B199903FB0BF3199A0B98CA
S31508003D109A1ACB1A23EAE3731493239B14999B1AD2
S31508003D209842D4BFC1EB0001C1EB0301002A1C91E4
S31508003D30C0F251812E9A9842C8BF5A462092209BBB
S31508003D404FF0000AA3EB0B030133002BD8BF282240
S31508003D500E93DCBFA64B1A600D9B9A4580F2F28340
S31508003D60189B109903FB0AF91A9BA9EB0302A3EB0C
S31508003D700909229B29EAE9799B1A9942D4BFC9EB1A
S31508003D800101C9EB0301002A0F91C0F227812D9A80
S31508003D9010999942C8BF52461192119B36A9A3EBB6
S31508003DA00A0808F10108B8F1000FDCBF2822904B79
S31508003DB00DF5DE60D8BF1A604FF402722AF0F0FCE7
S31508003DC04FF402720DF59D610DF6F8002AF0E8FC35
S31508003DD00E9B0DF5DE60CDF82437CDF82C391C9BEB
S31508003DE0CDF82087CDF83037CDF838390F9BCDF888
S31508003DF02889CDF82C37CDF83439FFF79CFC0328F1
S31508003E0005D8DDF84437B3F5006FC0F0ED8003211F
S31508003E100DF5DE60FFF782FC002800F0E58004213E
S31508003E200DF5DE60FFF77AFC002800F0DD80DDF88E
S31508003E304827DDF8441734A82AF036FC359B13B119
S31508003E4028226B4B1A60349BDDF824279A1A002A1D
S31508003E50BEBF2821664A1160DDF820275343B3F513
S31508003E60806F40F2BE80189A0F9B414693FBF2F68C
S31508003E7002FB1633002B18BF013634A832462AF047
S31508003E8013FC119A359B3146D31AA3EB0A0808F19D
S31508003E9001080DF5DE601193CDF82889CDF8208745
S31508003EA0FFF77AFD31460DF6F800FFF775FD349BEE
S31508003EB0042203210DF5DE601693FFF787FCDDF873
S31508003EC02437B3F5806F02D92822494B1A600DF5BD
S31508003ED0DE60FFF730FC032804D8DDF84C37B3F56D
S31508003EE0006F1AD305210DF5DE60FFF717FC58B1F0
S31508003EF006210DF5DE60FFF711FC28B10622052123
S31508003F000DF5DE60FFF762FC0DF5DE60FFF713FCCA
S31508003F100428C2BF2822364B1A600DF6F800FFF7B0
S31508003F200AFC032804D8DDF84C39B3F5006F1AD318
S31508003F3003210DF6F800FFF7F1FB58B104210DF641
S31508003F40F800FFF7EBFB28B1042203210DF6F80071
S31508003F50FFF73CFC0DF6F800FFF7EDFB032882BFE0
S31508003F602822234B1A6005210DF6F800FFF7D6FB29
S31508003F70002800F09982DDF85429B2F5006FC0F0E8
S31508003F80938292FBF6F306FB132212B12821184AF4
S31508003F90116017493746D1F800C000218E46DDF872
S31508003FA03029CDF854397243CDF83029B3F5006F6E
S31508003FB020D303F00101002903EBD3731CBF864607
S31508003FC04FF0280C01465B1052007F00EEE7002BED
S31508003FD07FF49FADA0E5CDF880B0B0E6CDF844A05B
S31508003FE0DBE64646012363E70123464616936EE75A
S31508003FF010150020BEF1000F02D0C948C0F800C055
S3150800400019B1CDF85439CDF83029013F0DF5DE60E8
S31508004010FFF791FB032840F2C08201210DF5DE600F
S31508004020FFF77CFB10B92822BD4B1A6001230E9AB4
S31508004030CDF818379A42CDF8203900F0B4824FF0FF
S3150800404001080DF5DE60FFF776FB032882BF2822FC
S31508004050B34B1A60DDF80037149A5B44CDF8003785
S31508004060DDF8FC360DF5DE605344CDF8FC36DDF898
S315080040700C371344CDF80C37DDF808374B44CDF828
S315080040800837DDF808395B44CDF80839DDF8043916
S315080040905344CDF80439DDF814391344CDF81439EE
S315080040A0DDF810394B44CDF81039FFF753FB0DF600
S315080040B0F800FFF74FFB0A9BB8F1000F06BF9A46B8
S315080040C001234FF0010A0B9A3193149B09FB02391D
S315080040D0099B03FB09F32B932A9B03FB0AF32993FA
S315080040E05B00309300231793179B1B9A934280F229
S315080040F025822B9ACDF8F036CDF8F838269B13444E
S31508004100249300231D931293129B319A934280F2B3
S315080041101282CDF8F436CDF8FC382BB1BAF1010F7E
S315080041201EBF28227E4B1A602046FCF728FC0C9BF3
S31508004130B8EECA8ADFED7B9AF8EEEA8A002B40F0E1
S31508004140B58140F20023F0EE490A00EE103A0C99C8
S31508004150D4F86802FCF77AFA28EE298AF3EE480AB8
S315080041600121B0EE600AD4F86802FCF76FFAF3EEA4
S31508004170680A0221B0EE600AD4F86802FCF766FA0B
S31508004180002213460DF5DE6151F804CB0133486C65
S31508004190092B00FB0C22F7D1DDF8F0C860480DF5B5
S315080041A0DE6306900CF1120053F82000DDF8EC18D7
S315080041B0059001F1120053F82000DDF8E8E80490B4
S315080041C00EF1120053F8200003EB8C0C0390BCF898
S315080041D0240003EB81010290898C03EB8E03019185
S315080041E09B8C2C9900930A4401230021D4F8680279
S315080041F0FCF7EDFB002213460DF6F80151F804CB47
S315080042000133486C092B00FB0C22F7D1DDF8F8CAFC
S31508004210DFF80C810DF6F803CDF818800CF11200C2
S3150800422053F82000DDF8F41A059001F1120053F84E
S315080042302000DDF8F0EA04900EF1120053F8200091
S3150800424003EB8C0C0390BCF8240003EB810102906D
S31508004250898C03EB8E0301919B8C28991598009302
S3150800426002FB00121BEE103A0121D4F86802FCF793
S31508004270AEFB159A099B159993FBF2F32F9A1FFA31
S3150800428083F992FBF1F2CDE9043201230393BDF8D9
S315080042903C30CDF818800293BDF870300221CDE984
S315080042A00093249A1BEE103AD4F86802FCF78FFBA9
S315080042B01E9B002B00F012811D9A9A181E9BD4F89B
S315080042C06802002B14BF4B4601230321CDE90038B1
S315080042D01BEE903AFCF7CBFBCDE900981D99279A7F
S315080042E01BEE903A0A44D4F868020421FCF7BFFB97
S315080042F0BAF1010F04DD51462046094AFCF704FBD2
S31508004300089B012B04DD19462046054AFCF7FCFAF2
S315080043104FF00009DFF80880034B4121204605E0ED
S3150800432010150020000000383C2E0900AB4ACDF8D5
S315080043300480CDF80090FCF72EFB42463146204615
S31508004340FCF7E2FA424620460E99FCF7DDFA4246A9
S3150800435020461699FCF7D8FA424620460F99FCF7EC
S31508004360D3FA424620461C99FCF7CEFA40F2CD1104
S3150800437020469B4B9B4ACDE90098FCF70CFB4B4625
S31508004380072221460DF5DE60FFF7D2FA4B4640F2CA
S31508004390D711954A2046CDE90098FCF7FCFA204645
S315080043A0FCF777FB042202212046FCF7C5FB06230F
S315080043B021461A460DF5DE60FFF78CFA2046FCF713
S315080043C068FB0623052221460DF5DE60FFF782FA13
S315080043D04FF0F87340F2D7112046844A0093CDF87F
S315080043E004804B46FCF7D7FA1423052221460DF61E
S315080043F0F800FFF79DFA002F72D13B46412120466F
S31508004400CDE90078754AFCF7C6FA2046FCF741FB69
S315080044100723042221460DF5DE60FFF75BFA062323
S31508004420042221460DF6F800FFF754FA2046FCF759
S3150800443030FB0723032221460DF6F800FFF74AFA58
S315080044400623032221460DF5DE60FFF743FA2046D0
S31508004450FCF71FFB012202212046FCF76DFB072310
S31508004460022221460DF6F800FFF734FA089B012BC5
S3150800447002DD2046FCF70DFB0623012221460DF539
S31508004480DE60FFF727FABAF1010F02DD2046FCF7D6
S3150800449000FB574B1B68CBB31E4630460DF6043D52
S315080044A0BDEC088BBDE8F08F0027AFE5B0EE490AF2
S315080044B0D4F868020021FCF707F928EE290AD4F88F
S315080044C06802B3EE400A0121FCF7FEF8B3EE680A6B
S315080044D00221D4F86802FCF7F7F851E633AAEDE6AC
S315080044E0424639462046FCF70FFA8023DDF8E02AD3
S315080044F0204693404121CDE90098384A43F01F03EE
S31508004500FCF749FA2046FCF7C4FA7EE7259B73B107
S315080045102046FCF7D7FA129B299A01331293249B5B
S3150800452013442493309A1D9B13441D93ECE51F9B5B
S3150800453001331F93EFE7179B0133D4E5119B03F172
S31508004540010A09E4209B03F1010BFFF7D7BB259B62
S31508004550274C8BB1FCF778F80D9B1B9909985943A2
S31508004560139B95F92420594395F928304143A869A6
S31508004570FCF738FB266890E70B9B109959430D9B6F
S315080045805943139B5943099B59431F9B91FBF3F1CD
S315080045907729DCBF21232360ECE70E9B012B16D07D
S315080045A04FF0000856E5B8F1010F0CD0DDF8388059
S315080045B00F9B012B03D01C9B012B7FF442ADB8F156
S315080045C0000F3FF43EAD2822094B1A6037E5B8F1D3
S315080045D0010F4FF00008EBD133E500BF000004508F
S315080045E00EBC0400060001600607055005030270AC
S315080045F0101500202DE9F04F2DED048B436CB9B052
S315080046002293036C90ED178A2393036DD0ED188AD5
S315080046102493C36CD0F838902593036845692D9385
S31508004620C36815930369089343681693436B099304
S31508004630C3692693036A1793436A1893836A19937F
S3150800464083682793036B2893C36B1A93C36A2993CA
S315080046508369299A2A93002337931A9B1A4311B11F
S31508004660D30700F10D82279B2A982B4303432898EA
S3150800467002F00302034303F00103134309BF05EBEA
S31508004680D57300234FEA630A012318BFAA46B9F572
S31508004690806F0D9300F3F681099BB3F5806F00F3E5
S315080046A0F181089B0AFB03F3B3F5006F209380F0B2
S315080046B0E98109FB0AF3B3F5006F219380F0E281E3
S315080046C0B9F5806F00F2DE81099BB3F5806F00F2C1
S315080046D0D981002900F0CE81FEF790FF199B189A20
S315080046E07F3B18BF0123803218BF012330930D9BEF
S315080046F0179A002B14BF0523012309EE903A269B2F
S3150800470000276B435343159A2F93089BCDE91177DE
S315080047105343169A2E905343329309FB05F3099A8D
S315080047201F9353433393179B1D976B43319340F263
S31508004730002309EE103A0E97129B2D9A934280F2A7
S315080047409781259B0B935B420A930E9B1B93002331
S31508004750139346E1079B089A002B0C9BACBF4FF0BE
S31508004760000B9B46079B4FF48A7023EAE3744B447D
S315080047709A42DCBF13460C9AF0EE490AD8BF9E1837
S31508004780119A2E9B4FF0000100FB023040F20023E5
S3150800479000EE103AC8BF4E461C90FBF757FFF0EEE6
S315080047A0480AFAEEE80AF3EE600A0121B0EE600A5A
S315080047B01C98FBF74BFFF8EEE80AF3EE600A1C9824
S315080047C0B0EE600A0221FBF741FF189B1C98803364
S315080047D0A6EB0B0603D1199B7F2B00F03581DDED87
S315080047E0187AF8EEE70AF3EE600A0321B0EE600ADB
S315080047F01C90FBF72BFFDDED197AF8EEE70AF3EECE
S31508004800600A1C98B0EE600A04213490FBF71EFF7C
S31508004810309B34981C9301231E932B9B169A279939
S3150800482004FB02320124209B1FFA8AF80493109B8A
S31508004830B6B20A44CDE90083002119EE903ACDE9D3
S315080048400264CDF814A03490FBF74AFF2C9B2899F4
S3150800485005FB0B32219B3498CDE90343109B0A4490
S31508004860CDE90083214619EE903ACDF814A00296B8
S31508004870FBF736FF1A9B3498002B40F005810D9BF9
S3150800488037AA002B14BF062302234FF0010B02217F
S31508004890009435933490FBF79DFF0321359B299AA5
S315080048A03498CDF80080FBF795FF19EE903A04216D
S315080048B00F9A3498CDE904AACDE902BBCDE9008B5D
S315080048C00024FBF70DFF40F22D232246214634989B
S315080048D00093CDE901442346FBF79EFF6E4B40F259
S315080048E0D712594634980093CDE901446B4BFBF730
S315080048F093FF40F2D7120221694B3498CDE901445F
S315080049000094FBF789FF1E9B1C9AA34214BF2346FB
S315080049104FF04F6382EA0B02CDE9013240F23E23A3
S315080049203498009340F2D7125E4B03211C90FBF794
S3150800493073FF1E9B1C98002B00F08A804FF04F6374
S3150800494040F2D512CDE900430421574BCDF808B003
S31508004950FBF762FF04231C98002442462146CDE952
S31508004960003423464FF002081C90FBF77BFF112307
S31508004970CDE900830123109A19461C98FBF772FFAC
S31508004980222332464146CDE900831C980123FBF7D2
S3150800499069FF21461C98FBF73FFE119B229A83F07C
S315080049A001031193149B013314930F9B2B440F930C
S315080049B00C9B9B1A0C93079B13440793149B179AFB
S315080049C09342FFF6C7AE139B239A013313930A9BB0
S315080049D013440A930B9B9B1A0B93319A1B9B134404
S315080049E01B93139B269A934234DA0A9B16980899C6
S315080049F0002B0B9B00FB01F1B8BF1A460A9B1D98BA
S31508004A0023EAE37301FB030315992B930B9B159C70
S31508004A100B44DDE9091001440998A8BF00228C421D
S31508004A20C8BF03469B1A9BB210931F9B02FB0373D6
S31508004A301B9A2C932A9B13440F93249B0C935B423B
S31508004A40079300231493B9E700231C931E93E4E607
S31508004A50032381E7129B2F9A013312930E9B13446B
S31508004A600E93329A1D9B13441D93339B1F4463E692
S31508004A70FBF7EAFD002039B0BDEC048BBDE8F08FEA
S31508004A802120F8E72820F6E70D9B4446002B14BFA3
S31508004A90062302231A9AF8E60E7E0800060001602D
S31508004AA006070550050602700304077008B5114B82
S31508004AB0984217D00DD8A3F50043984214D003F5B1
S31508004AC08043984212D00C485B21FBF767FC802094
S31508004AD008BD0A4B98420BD003F580439842F2D1A1
S31508004AE02820F5E72620F3E72420F1E72520EFE73D
S31508004AF02720EDE700000550CC4A03080040055082
S31508004B0008B5104B984216D003F58043984212D048
S31508004B1003F58043984211D003F5804398420DD09F
S31508004B2003F58043984209D0074840F2A721FBF7CE
S31508004B3035FC002008BD4FF0FF30FBE74FF6FF704D
S31508004B40F8E700BF00800450234B030870B50446FD
S31508004B5088B000680D46FFF7A9FF0121064600F058
S31508004B6019FC01213A2000F015FC2B790422A179C1
S31508004B70607902F02FF90D220021684629F037FEE8
S31508004B8003238DF8063001238DF8053002238DF8AE
S31508004B9001302B796A46591E4B424B4120682179D0
S31508004BA08DF80A3002F024FA2268304B9A4255D022
S31508004BB003F580439A4253D003F580439A4251D075
S31508004BC003F580439A424FD029482A49A3F5BC33B6
S31508004BD0FC3B824218BF0B46A0796279217942EAEA
S31508004BE0004243F82120304600F000FC2D68266874
S31508004BF0B0FBF5F0451E3046FFF782FF854204D923
S31508004C0040F289411C48FBF7C9FB336BDA0704D429
S31508004C1040F28B411848FBF7C1FBF56125682679F8
S31508004C202846FFF76DFF2B6BDB0704D440F21731DC
S31508004C301148FBF7B3FB05EB461500260E22314655
S31508004C40AE6604A829F0D3FD0123206804A98DF8CF
S31508004C50103002F071F9304608B070BD074BBBE75B
S31508004C60074BB9E7074BB7E7074BB5E70080045092
S31508004C700080055064C60350234B030884C60350BE
S31508004C80A4C60350C4C60350E4C6035001230179E1
S31508004C900268114803FA01F1824216D000F58040F5
S31508004CA082420DD00D4B9A4211D003F580439A42A9
S31508004CB00FD003F580439A420CBF04234FF0FF330D
S31508004CC0074AB4335B01D15070470023F8E7022343
S31508004CD0F6E70323F4E700BF008004500000055000
S31508004CE000C0035070B504680679E5692046694333
S31508004CF06425B1FBF5F5FFF703FF854204D940F2B9
S31508004D00FA210748FBF74AFB236BDB0704D44FF469
S31508004D103F710348FBF742FB04EB4614256770BD59
S31508004D20234B03082DE9F843174B1F6D5B6D1F4096
S31508004D3000D5FEE701260025144CDFF85480DFF87D
S31508004D405490374217D02368C8F850609BB1A168C1
S31508004D50284601316268A1609847637B012B0AD116
S31508004D6048B909EB45131A7B60F341021A731A7F97
S31508004D7060F341021A770135082D4FEA460604F119
S31508004D801004DED1BDE8F883000004501415002095
S31508004D900020045094150020044BD3F88420D20632
S31508004DA0FBD4D3F88400C0F381107047004000504C
S31508004DB038B50F4B0546D3F880300C4603F003038D
S31508004DC0012B09D0022B0FD00A4840F6B271FBF727
S31508004DD0E5FA0023184602E0FBF75EFB0E2305B151
S31508004DE0286004B1236038BDFBF7A2FB0723F6E76A
S31508004DF000800050774B030838B5194B0546D3F8A1
S31508004E0020310C4603F00703013B052B20D8DFE8C9
S31508004E1003F0030B130F171BFBF738FB052305B12C
S31508004E20286004B1236038BDFBF766FB0323F6E769
S31508004E30FBF77EFB0723F2E7FBF776FB0223EEE799
S31508004E40FBF724FB0623EAE7FBF756FB0423E6E712
S31508004E50044841F22B01FBF7A1FA00231846DEE7C6
S31508004E6000800050774B030838B5194B0546D3F830
S31508004E7028310C4603F00703013B052B20D8DFE851
S31508004E8003F003131B0F0B17FBF700FB052305B1F4
S31508004E90286004B1236038BDFBF7F8FA0623F6E765
S31508004EA0FBF746FB0723F2E7FBF726FB0323EEE7B0
S31508004EB0FBF722FB0423EAE7FBF736FB0223E6E7C8
S31508004EC0044840F63E61FBF769FA00231846DEE718
S31508004ED000800050774B0308F7B50027144B01975D
S31508004EE0D3F88041064604F00304022C0D4614D07C
S31508004EF0032C0DD0012C14D1394601A8FFF77CFFED
S31508004F0010240EB1019B336005B12C6003B0F0BDCF
S31508004F10FBF70EFB07240190F3E7FBF705FB01906F
S31508004F20EFE741F278110348FBF738FA3C46E8E721
S31508004F3000800050774B0308002337B50193184BC0
S31508004F400546D3F820320C4603F00703013B032B32
S31508004F501ED8DFE803F0020E1318002101A8FFF798
S31508004F6083FF12230DB1019A2A6004B1236003B0AE
S31508004F7030BDFBF7DDFA07230190F3E7FBF71AFBD1
S31508004F800A230190EEE7FBF71BFB09230190E9E7EB
S31508004F9040F6FD510348FBF701FA0023E2E700BF9C
S31508004FA000800050774B030838B5124B0546D3F8F6
S31508004FB040310C4603F00303022B0BD0032B0DD014
S31508004FC0012B0FD1FBF7F6FA0A2305B1286004B1C5
S31508004FD0236038BDFBF7F4FA0923F6E7FBF7EDFA89
S31508004FE00C23F2E7044841F25901FBF7D7F90023ED
S31508004FF01846EAE700800050774B0308002337B5C8
S315080050000193184B0546D3F860320C4603F00703A4
S31508005010013B032B1FD8DFE803F0020E1914002109
S3150800502001A8FFF7E9FE10230DB1019A2A6004B121
S31508005030236003B030BD002101A8FFF7B5FF112397
S31508005040F2E7FBF775FA07230190EDE7FBF76CFA31
S3150800505002230190E8E740F6A2610348FBF79EF9B0
S315080050600023E1E700800050774B0308002337B59B
S315080050700193184B0546D3F894320C4603F0070300
S31508005080013B032B1FD8DFE803F0020E1914002199
S3150800509001A8FFF7B1FE10230DB1019A2A6004B1E9
S315080050A0236003B030BD002101A8FFF77DFF11235F
S315080050B0F2E7FBF73DFA07230190EDE7FBF734FA31
S315080050C002230190E8E740F6D5610348FBF766F945
S315080050D00023E1E700800050774B030873B50024EE
S315080050E00F4B0194D3F87032064603F00303012BE5
S315080050F00D4607D0022B11D04FF470610948FBF713
S315080051004DF904E0214601A8FFF74EFF11240EB120
S31508005110019B336005B12C6002B070BD1524F6E71B
S3150800512000800050774B030838B5154B0546D3F871
S3150800513000320C4603F00703013B032B18D8DFE8BF
S3150800514003F0020A0E12FBF735FA0A2305B12860A6
S3150800515004B1236038BDFBF733FA0923F6E7FBF7FA
S315080051602CFA0C23F2E7FBF7B1F90F23800AEDE7D7
S31508005170044841F22E21FBF711F900231846E5E70A
S3150800518000800050774B030838B5154B0546D3F811
S3150800519008320C4603F00703013B032B18D8DFE857
S315080051A003F0020A0E12FBF705FA0A2305B1286076
S315080051B004B1236038BDFBF703FA0923F6E7FBF7CA
S315080051C0FCF90C23F2E7FBF781F90F23800AEDE7D8
S315080051D0044841F26221FBF7E1F800231846E5E7A7
S315080051E000800050774B030838B5124B0546D3F8B4
S315080051F040320C4603F00303022B0BD0032B0DD0D1
S31508005200012B0FD1FBF7D6F90A2305B1286004B1A3
S31508005210236038BDFBF7D4F90923F6E7FBF7CDF988
S315080052200C23F2E7044841F2F111FBF7B7F8002323
S315080052301846EAE700800050774B030838B5124B4A
S315080052400546D3F860310C4603F00303022B0BD056
S31508005250032B0DD0012B0FD1FBF7ACF90A2305B1AF
S31508005260286004B1236038BDFBF7AAF90923F6E7DD
S31508005270FBF7A3F90C23F2E7044841F28701FBF791
S315080052808DF800231846EAE700800050774B03089C
S3150800529070B5054614460E4600F0D2FF296881EA25
S315080052A0040202EA06044C402C60BDE8704000F097
S315080052B0CBBF0000B0F5207F10B52ED009D8B0F5C9
S315080052C0007F24D003D868B1B0F5C07F0AD0002487
S315080052D01BE0B0F5607FFAD1124BD3F88040C4F3D7
S315080052E0011412E00F4B1C6F230B13F00E0FC4F3BF
S315080052F003340AD0032C08D0072C06D00F2C04D070
S3150800530040F272210848FBF749F8601C10BD054BAE
S31508005310D3F89040C4F30464F7E7024B1C6FC4F358
S315080053208024F2E700800050774B03084FF4803260
S3150800533038B5104B04469A6600200D46FFF7BAFFAB
S3150800534041F671320C4B6043DC69DA635A6804F43F
S31508005350803422F440125DB9084988428CBF4FF464
S3150800536080100020104358600CB10022DA6338BD63
S315080053700349F2E70090005000000350005A620209
S31508005380002D310108B5FBF7B3F8BDE80840002148
S31508005390FFF7CCBF70B5440905460E460ED140F25C
S315080053A016310F48FAF7FAFF05F01F05AEB104F5F6
S315080053B08053012000FA05F51D6070BD012C08D048
S315080053C0022C08D04FF448710548FAF7E7FF002485
S315080053D0EAE7044CE8E7044CE6E704F50053E8E797
S315080053E0774B03086480005068800050002130B570
S315080053F0802885B00446CDE9001100F0938029D8AD
S31508005400002800F09580A0F120043D2C35D83D2CCD
S3150800541033D8DFE804F08D998D99A8A8A8A8A8998B
S31508005420B23FC8633F9999993232323232323232B8
S315080054309999996BD29932323232323232323232C9
S31508005440323232A88D8D8DCD3F3FD77A50AD32326C
S3150800545032323282B0F5B06F00F08F8030D8B0F5B6
S31508005460207F71D00FD8B0F5C07F61D0B0F5007F2E
S3150800547061D0B0F5807F00F0858040F26D415448D8
S31508005480FAF78CFF51E0B0F5607F67D00DD8B0F51C
S31508005490407FF2D1FBF71AF804464FF42070FFF765
S315080054A009FFB4FBF0F040083EE0B0F5806F5AD033
S315080054B0B0F5A06FE1D100216846FFF73DFD34E065
S315080054C0B0F5106F74D016D8B0F5E06F75D00AD85D
S315080054D0B0F5C06F67D0B0F5D06FCED10021684661
S315080054E0FFF722FE21E0B0F5F06FC6D1002168462D
