S02B00006275696C642F72656C656173652F74666C6974655F6D6963726F5F6D6963726F5F7370656563682E06
S3150800000000100020D9070008D5070008D507000802
S31508000010D5070008D5070008D5070008D507000842
S31508000020D5070008D5070008D5070008D507000832
S31508000030D5070008D5070008D5070008D507000822
S31508000040D5070008D5070008D5070008D507000812
S31508000050D5070008D5070008D5070008D507000802
S31508000060D5070008D5070008D50700089DEA000847
S31508000070A9EA0008D5070008D5070008B91000083E
S31508000080D5070008D5070008D5070008D5070008D2
S31508000090D50700082D2E0008D5070008D507000843
S315080000A0D5070008D5070008D5070008D5070008B2
S315080000B0D5070008D5070008D5070008D5070008A2
S315080000C0D5070008D5070008D5070008D507000892
S315080000D0D5070008D5070008D5070008D507000882
S315080000E0D5070008D5070008D5070008D507000872
S315080000F0D5070008D5070008D5070008D507000862
S31508000100D5070008D5070008D5070008D507000851
S31508000110D5070008D5070008D5070008D507000841
S31508000120D5070008D5070008D5070008D507000831
S31508000130D5070008D5070008D5070008D507000821
S31508000140D5070008D5070008D5070008D507000811
S31508000150D5070008D5070008D5070008D507000801
S31508000160D5070008D5070008D5070008D5070008F1
S3150800017010B5054C237833B9044B13B1044800E095
S3150800018000BF0123237010BD2011002000000000CD
S31508000190B0C9010808B5034B1BB10349034800E081
S315080001A000BF08BD0000000024110020B0C90108E6
S315080001B0A3F5803A704700BF174B002B08BF134BB7
S315080001C09D46FFF7F5FF00218B460F461348144A54
S315080001D0121A10F00CFB0E4B002B00D098470D4B53
S315080001E0002B00D098470020002104000D000D4880
S315080001F0002802D00C4800E000BF10F099FA200051
S3150800020029000EF059FC10F0FFF900BF00000800A5
S31508000210000000000000000000100020201100204F
S31508000220D481002000000000000000000F20704765
S31508000230082808B504D00FDC022809DC002809DDE7
S31508000240012304220921022004F048FE002008BDEB
S315080002500428F5D09F2106E02028F1D0402807D0B1
S315080002601028F7D18821044800F0A2FA0E20EEE7FC
S31508000270012304220821E6E7E041010808B5012127
S315080002803A2003F00BF90EF07FFBBDE8084000F0BA
S31508000290F9B901213A2003F001B90000F0B54B1E67
S315080002A0012B07460E468BB07CD83F4D01AC0FCDCF
S315080002B00FC40FCD0FC42B6801213A20236003F029
S315080002C0EDF80121292003F0E9F800230122042191
S315080002D0032004F003FE032100230846042204F049
S315080002E0FDFD042200230521032004F0F7FD052364
S315080002F08DF8043001238DF818304FF44073012E21
S3150800030001A92A484FEA871708BF8DF82360ADF878
S315080003102030039704F0EAFF0D22254B1A62254A7E
S315080003201A634FF003125A6302F500325A6202F05A
S3150800033003FD0021204802F0CFFC044618B1012431
S3150800034020460BB0F0BD1D4A012ED37823F03C039E
S3150800035043F03403D370D37C23F03C0343F03403D7
S31508000360D37412D10146164802F0B6FC0028E6D12D
S31508000370144AD37823F03C0343F03403D370D37C78
S3150800038023F03C0343F03403D3740F4B0F4A1E701B
S31508000390002313700E4A13700E4A137001220E4B77
S315080003A01A70CDE72124CBE74442010800C0055066
S315080003B000C7035003000400401100200410002069
S315080003C044110020241000204A1100204B1100205F
S315080003D0641100204911002048110020184B73B5FC
S315080003E01B78002B28D0174D2C783CBB164A174E85
S315080003F011681748136931400143116033401549A4
S31508000400034315489160136191610094134B144995
S31508000410006802F0C5FC134B1B78012B07D1124864
S3150800042000942346114A1249006802F0B9FC0123D8
S3150800043000202B7002B070BD1120FBE70220F9E7FF
S315080004404811002049110020041000200F80FFCF1A
S31508000450F07F0030581100204011002045050008A3
S31508000460441000204A1100204411002024100020C6
S3150800047054100020184B2DE9F0411B7804460D4610
S3150800048016461BB3154B1B7813BB154F3B78FBB9A8
S31508000490DFF8608098F800304B43B3F5006F19D841
S315080004A0104B1B780BB9FFF799FF98F800000E4B15
S315080004B0684318600D4B1C6004EB40045C600C4BF1
S315080004C000201E6001233B70BDE8F0811120FBE788
S315080004D00220F9E72120F7E7481100204B110020F8
S315080004E06411002049110020501100205C110020E1
S315080004F03C1100204A11002010B50C4C237893B10A
S315080005000B4B186802F072FC0A4B1B78012B03D1BF
S31508000510094B186802F06AFC0020084B2070187016
S31508000520074B187010BD0220FCE700BF49110020D8
S31508000530401100204A110020441100204B110020D0
S3150800054064110020F8B53B4D2B78002B42D03A4871
S3150800055011F0010F00F1100308BF1946374E384B4A
S3150800056032681C6818BF0146A2422CD2CB786FF3BA
S315080005700513CB70334B1B6803EB42038B60A31A3E
S31508000580B3F5006F0B8817D940F2FF7402F50062C5
S3150800059064F30E130B803260C37803F03003302BFC
S315080005A008D1C37C03F03003302B03D100232B7012
S315080005B0FFF7A2FF0120F8BD671EBA1A62F30E13F1
S315080005C00B803460E8E70A681F4B13430B601F4B28
S315080005D08B60E1E71E4B1B78002BEBD0C94316480E
S315080005E001F0010300EB0314E2781D01C2F30112C6
S315080005F0032A0FD1124A46591268013AC2F30A0170
S31508000600144A324042EA01124251134A52F8233040
S31508000610A360CFE7114A1268002ACBD010490848D0
S3150800062009780068B0FBF1F10B4850F823009047B1
S31508000630C0E700BF4B110020041000205411002011
S31508000640501100204C110020F07F00305811002076
S31508000650641100200F80FFCF5C1100203C110020A0
S315080006604A1100200122024BC3F8A020704700BFA0
S3150800067000D003500122024BC3F8A020704700BFE8
S3150800068000E0035070B5454C8EB0264601AD0FCE3E
S315080006900FC5336814342B6006AD0FCC0FC594E82C
S315080006A00F0085E80F0001213A2002F0F7FE01212C
S315080006B0572002F0F3FE4FF48073394DADF81C3025
S315080006C0384B2846039301A906AB059304F0AAFA0A
S315080006D0012304220321022004F000FC0221002346
S315080006E00846012204F0FAFB0123042219460220D7
S315080006F004F0F4FB042200210123022004F0EEFB9F
S31508000700294C2A4B4FF44870C4F8C8344FF00213EA
S31508000710C4F8C43403F58033C4F8CC341C23C4F8B5
S31508000720B43405F09BF91420FFF7A4FF05F096F9F9
S315080007302320FFF797FF05F091F9B9212846FFF71F
S3150800074099FF03F0C6FFFFF78DFF002303211A4622
S31508000750022004F0C3FB002302211A46084604F0CF
S31508000760BDFB012300221946022004F0B7FB002234
S3150800077001231146022004F0B1FB284603F03EFF90
S3150800078000215720C4F8C814C4F8C414C4F8CC14FB
S31508000790C4F8B41402F082FE0EB070BD68420108B7
S315080007A000000A50E070720000C003500200010009
S315080007B0FEE7000005490A681318054883428CBFFE
S315080007C04FF0FF320B601046704700BF64100020E0
S315080007D000000420FEE7000008B500F02DF8124BD3
S315080007E012498B4212D30020114B12498B4218D35F
S315080007F0FFF7E2FC186850F82240586840F8224093
S31508000800013298688242F5D30C33EAE70022F8E70A
S315080008101C6844F8220001325C68A242F8D3083307
S31508000820E4E70022F8E700BFB8C90108C4C901080F
S31508000830C4C90108C4C901084FF480414FF0FF300C
S31508000840114B124A10B59A60D3F8882042F4700208
S31508000850C3F888200E4A91660E4901F500521066C3
S315080008600D4850660220C3F8D000BFF34F8FBFF380
S315080008706F8F01244FF440330848C0F88041D36095
S3150800088004600B6110BD00BF00ED00E00000000829
S315080008900090005000800044F7FF370000E100E0B8
S315080008A0014B1868704700BF6C100020084B1B6F7F
S315080008B003F00703022B04D0032B05D0012B05D028
S315080008C0FEE7044B18687047034BFBE7034870477D
S315080008D0008000506C10002070100020002D31019F
S315080008E008B5FFF7E3FF054B1B6FC3F3033301336B
S315080008F0B0FBF3F0024B186008BD00BF0080005043
S31508000900681000200048704700B4C404014B1868FA
S31508000910704700BF70100020054B1860054B1B6F11
S3150800092003F00703032B01D1FFF7DABF704700BFB7
S315080009307010002000800050002070470048704763
S31508000940002D31014FF0B4439868C0F304400C28D9
S3150800095022D8DFE800F009212121212107171921D2
S315080009601B1D1F000F4870479B6803F04073B3F1C7
S31508000970807F13D0B3F1007F12D00B4A002B08BF3B
S315080009801046704709487047094870470948704734
S31508000990094870470948704700207047084870475B
S315080009A008487047405DC60000093D000024F40071
S315080009B0C0EA210180BA8C010048E801005A6202A7
S315080009C080841E0040420F004FF4004070474FF4E9
S315080009D07A707047014B1868704700BF7410002082
S315080009E0D0E90003184703690068184738B50D466B
S315080009F00446B0B1012816D0022816D0032803D120
S31508000A003F23EB40DB0704D440F2FE310848FFF7EA
S31508000A10CFFE302001214443064B01FA05F51D514E
S31508000A2038BDFF23EDE70F23EBE740F2FF33E8E796
S31508000A309C42010840E0035038B50D460446B0B163
S31508000A40012816D0022816D0032803D13F23EB40ED
S31508000A50DB0704D440F22D410848FFF7A9FE3020F1
S31508000A6001214443064B01FA05F51D5138BDFF2304
S31508000A70EDE70F23EBE740F2FF33E8E79C42010876
S31508000A8040D0035010B5044601213A2002F006FD75
S31508000A90A3782078B3FA83F3042261785B0904F01B
S31508000AA01DFA002010BD034659789B7800780BB9CB
S31508000AB0FFF79CBFFFF7C0BF034659789B780078BD
S31508000AC00BB9FFF7B9BFFFF791BF000038B5047837
S31508000AD04578ACB1012C15D0022C15D0032C03D1C6
S31508000AE03F23EB40DB0704D44FF489610848FFF73E
S31508000AF05FFE302301225C43064BAA401A5138BDDB
S31508000B00FF23EEE70F23ECE740F2FF33E9E700BFE8
S31508000B109C42010840F0035070B5057804464678B3
S31508000B20E5B1012D1CD0022D1CD0032D03D13F2287
S31508000B30F240D30704D44FF483610C48FFF738FE1C
S31508000B401023302212FB0535094BEB58F34003F00E
S31508000B500100A3780BB980F0010070BDFF22E7E71A
S31508000B600F22E5E740F2FF32E2E700BF9C420108A8
S31508000B7030C00350044B054A043850F8041F43F8A4
S31508000B80041B9342F9D170476400005D7801005D4B
S31508000B9010B5084C237A53B9E360074B236000F07D
S31508000BA0BFFE4FF40042054B1A6001232372002052
S31508000BB010BD00BF78100020750B000800E100E0AA
S31508000BC0092370B50C460546084EC0F8103133693E
S31508000BD00133336100F0A6FE21462846336898475C
S31508000BE00CB100F0A1FE002070BD00BF78100020F7
S31508000BF000F09ABE0729F8B505460C4610EE107A9D
S31508000C0010EE906A03D9BC210448FFF7D1FD05EB25
S31508000C10840325F824705E80F8BD00BFEF42010802
S31508000C2007EE903AF8EEE70A07EE902AB8EEE70ADA
S31508000C30F3EE600AB3EE400AFFF7DCBF07EE902A30
S31508000C4040F20003B8EEE70A00EE903AB3EE400A27
S31508000C50FFF7D0BF40F2000300EE903AFFF7CABF95
S31508000C60F3EE600AB3EE400AFFF7C4BF2DE9F84F6A
S31508000C70042907460C4693469946BDF82880BDF8D0
S31508000C802C60BDF83050DDF838A003D9D72132489A
S31508000C90FFF78EFDB8F5806F03D9D8212E48FFF7E8
S31508000CA087FDB6F5806F03D9D9212B48FFF780FD5C
S31508000CB0B5F5806F03D9DA212748FFF779FD0D9B33
S31508000CC003F50063B3F5805F03D3DB212248FFF702
S31508000CD06FFD0AF50063B3F5805F03D3DC211E4878
S31508000CE0FFF766FD0F9B03F50063B3F5805F03D33B
S31508000CF0DD211948FFF75CFD184B0F99013E013DB0
S31508000D0003EA0A4A03EA0141C6F30906C5F30905D7
S31508000D1007EB041246EA0A060D439662D5620D9A57
S31508000D2008F1FF3803EA02434FEA093202F4405257
S31508000D301343C8F3090843EA0803023419F0040FF9
S31508000D4007EB041218BF43F480432401536047F8A5
S31508000D5004B0BDE8F88F00BFEF4201080000FF0F9E
S31508000D6030B50124002587B0CDE904540395BDF8B4
S31508000D7028500094CDE90145FFF778FF07B030BD4C
S31508000D8070B50124002686B0BDF82C50CDE9045470
S31508000D90CDE90256BDF82850CDE90045FFF766FFB4
S31508000DA006B070BD2DE9F041072904460E461546E2
S31508000DB01F469DF8208004D940F21F110B48FFF703
S31508000DC0F7FCDDE906320C2101FB06411343C1F8A5
S31508000DD0B070C1F8B4302A05B8F1000F03D1C1F8D4
S31508000DE0B820BDE8F08142F00042F8E7EF4201087A
S31508000DF02DE9F041072906460C46154698469DF802
S31508000E00187004D940F231112148FFF7D1FC013D91
S31508000E10ABB2B3F5806F04D34FF499711C48FFF752
S31508000E20C7FCB8F1070F04D940F233111848FFF789
S31508000E30BFFC072F04D94FF49A711548FFF7B8FC81
S31508000E400C20079A04F10E0345EA023500FB0862F6
S31508000E50B84546F833504FEA4404D2F8B85007D19B
S31508000E60032101FA04F42C43C2F8B840BDE8F08126
S31508000E700123A3402B43C2F8B830022300FB0766C0
S31508000E8003FA04F4D6F8B8302343C6F8B830EDE7C9
S31508000E90EF42010837B50446D0F87002062804DD8B
S31508000EA00AB12123136003B030BD4B1EB3F5806F22
S31508000EB0F6D200250130C4F87002CDE900558AB291
S31508000EC02B46C1B2D4F86802FFF792FFD4F8702215
S31508000ED0D4F8683202F10E0103EBC1035D60D4F861
S31508000EE07832D4F87402591C9333C4F8781244F84B
S31508000EF02320012304EB8004520003FA02F2D4F8FB
S31508000F002C321343C4F82C32CDE74FF0FF3320229E
S31508000F10C0E99C33C0F87832002100F50A700FF05A
S31508000F2066BC30B5D0F8744285B0062C099D04DD40
S31508000F300DB121232B6005B030BD00250134C0F862
S31508000F4074420295089DCDE900351346D0F868022B
S31508000F500A46E1B2FFF726FFEDE72DE9F04304293B
S31508000F60BDF81C50BDF82060BDF82470DDE90ACE36
S31508000F70DDE90C8404D90CB121232360BDE8F08394
S31508000F80B5F5806F14D8B6F5806F11D8B7F5806FB0
S31508000F900ED80CF50069B9F5805F09D20EF500691F
S31508000FA0B9F5805F04D208F50069B9F5805F03D307
S31508000FB0002CE3D02823E0E7CDE90BE8CDE9097C4E
S31508000FC0CDE90756BDE8F043FFF750BE30B589B006
S31508000FD00D9C0025069401240395CDE90454BDF81B
S31508000FE030500094CDE90145FFF7B7FF09B030BD91
S31508000FF0D0F8783210B503F1920150F82140022159
S31508001000D0F87422640000EB820201FA04F4D2F8E4
S315080010102812013B2143C2F82812C0F8783210BDC5
S31508001020F8B500210C250446D0F8743200F50A7686
S31508001030DFF854C0D0F868028B4217DA05FB0303C1
S3150800104093F8BB20002142F0800283F8BB20FFF70B
S31508001050B7FD4FF48A72D4F86C3283F00103C4F8F2
S315080010606C3202FB0343C4F86832F8BD05FB01077E
S31508001070D7F8B82056F804EB02EA0C0242EA0E0248
S31508001080C7F8B8200131D7E70000FFFF0023C0E901
S315080010909A037047D0F8783210B5933350F8234046
S315080010A0D0F86832033103EBC403186F890002FADB
S315080010B001F10843186710BD4FF0BA4210B5D4695C
S315080010C0136A1C40E1070DD50121124BD961124B59
S315080010D0506919680144196091695A680A445A6046
S315080010E000F024FC620308D54FF48022094BDA612C
S315080010F0094A136803F180731360230308D54FF474
S315080011000022044BDA61044A536803F18073536082
S3150800111010BD00BF0020005D681100202DE9F04FCA
S31508001120174687B004460D46984600F001FC17F1AD
S31508001130800F064602D1B8F17F0F04D0A02D11D832
S315080011402544A54202D107B0BDE8F08F94F90030D6
S315080011509F4202DD27700134F3E79845B8BF84F84B
S315080011600080F8E74FF0000940F20A2A3B463A4663
S3150800117000213046FFF754FD4346424601213046DA
S31508001180FFF74EFD4B464A4649463046CDE901999A
S31508001190CDF800A0FFF706FE40F20B232F4A0121E7
S315080011A0CDE90032304640F2D5122D4BCDF80890E5
S315080011B0FFF7F8FD01212B4B40F2D512CDE901319D
S315080011C030460221284BCDF800A0FFF7EBFDB5F518
S315080011D0006F2B4628BF4FF4006323F0030B4FEA3A
S315080011E05B0A1FFA8AFA2246002130460593CDF893
S315080011F000A00523FFF7B4FD22460523012130464A
S31508001200CDF800A0FFF7ACFD0223059A0021304671
S315080012100093C2F38F020123CDF80490FFF7E8FD8F
S31508001220A5EB0B0501213046FFF7CAFC9F2D5C4450
S31508001230CDD845B1254414F9013B9F4208DD04F891
S31508001240017CA542F7D107B0BDE8F04FFFF7D0BC47
S315080012509845B8BF04F8018CF3E700BF0000A02149
S31508001260000102200000B02100010330836D70B533
S31508001270012B044620D1436D012B1DD142684369D9
S315080012809A4219D1002101F0CBFAB0FA80F6760914
S31508001290D4E903235A43D4E90D134B4361694B43FD
S315080012A0B2EB830F0ADD0121204600F0DBFC054680
S315080012B068B90025284670BD0026E9E7002EF2D059
S315080012C00121204601F0ACFA0028ECD1F1E736B14D
S315080012D00121204601F0A4FA05460028E9D051214B
S315080012E00148FFF765FAE5E746430108836D70B5DF
S315080012F0012B044607D00021204600F0B3FCB0FAC3
S3150800130080F0400970BD456D012DF4D141694368EF
S315080013109942F0D1D0E903325A43D0E90D637343B9
S315080013204B43B2EB830FE6DC002101F079FA002883
S31508001330E1D12846E6E700002DE9F04F2DED048BB4
S3150800134082468BB028B921200BB0BDEC048BBDE8D2
S31508001350F08FC16A21B13621CC48FFF729FAF2E7A6
S31508001360036A9FEDCB9A13F0010F14BF4FF4806206
S315080013704FF400629A42C0F2DE80049100F0D8FA77
S31508001380DAE90F7BDAED057AB8EEE78ABAF8503073
S31508001390DAF8208008EE903A0BFB07F318F00105FF
S315080013A028EE098A044609EE103ADAF84C900499B0
S315080013B0BFB240F0D08108EBD8764FEA6608C6F38C
S315080013C04F06CDE9007605232946DAF80020FFF70F
S315080013D0D7FC1FFA8BF3009305230196DAF8182039
S315080013E001212046FFF7CCFCDAF83020002A00F06D
S315080013F09A80BAF8343000930223194620461FFA19
S315080014008BF6FFF7ADFCCDE900760123DAF8382034
S3150800141003212046FFF7B4FCDFED9D0A0021B0EE5C
S31508001420600A2046FFF71CFCF0EE480AB0EE480AB0
S3150800143001212046FFF714FCB0EE680A0321204676
S31508001440FFF708FC4A4604212046FFF7F7FB4FF052
S31508001450000940F22D234A46494620460093CDE925
S3150800146001994B46FFF79EFC8A4B40F2D7120121A1
S3150800147020460093CDE90199874BFFF793FC40F28C
S31508001480D71202212046CDE90199844BCDF8009068
S31508001490FFF788FC002D4BD14A2203212046CDE9CF
S315080014A001557F4B0095FFF77DFC4FF00409002599
S315080014B04FF0010B7B4B5FFA89F940F2D712494688
S315080014C02046CDE9013B0095774BFFF76BFC2B4691
S315080014D03A4629462046CDE90095FFF789FC42F2AF
S315080014E00203324659462046CDE900932B46FFF7BC
S315080014F07FFC022120231FFA88F2CDE9001320463B
S315080015005B46FFF775FC59462046FFF759FB19EE6F
S31508001510101A9AF953309AF95220DAF83800FFF778
S31508001520FDFD002010E70123604A0093022364E7CB
S315080015304FF00309BBE7069100F0FAF9DAED057AF0
S31508001540F8EEE78ABAF85030054668EE898A08EE5A
S31508001550103ADAF83C30DAF84C20DAF820400893EA
S31508001560DAF84030F0EE490AB0EE490A06990592D3
S3150800157004930994FFF774FBF0EE680AB0EE680A64
S3150800158001212846FFF76CFB03212846B0EE480ADE
S31508001590FFF760FB04F0010604212846059AFFF7C9
S315080015A04DFB16BB4FF0050804EBD47464104FF0DE
S315080015B0010B0027B4F5806F1ADC364B40F2D712C0
S315080015C0002128460093CDE90177334BFFF7EAFB64
S315080015D040F2D71201212846CDE901772F4B009713
S315080015E0FFF7E0FBD6B1022122E04FF00108DEE763
S315080015F000232F4810F8011B94FBF1F201FB124C53
S31508001600BCF1000F06D1944201FB0BFB3FF49BAEE5
S315080016101446CFE701330B2BECD194E602214A227C
S315080016202846CDE901661E4B0096FFF7BBFB032152
S31508001630002601271B4B40F2D7122846CDE9013771
S315080016400096194B1FFA8BFBFFF7ACFB33465A463D
S3150800165031462846CDE90076FFF7CAFB2223A4B215
S31508001660CDE900732246334639462846FFF7C0FBC4
S31508001670CDE90566089BB3426ADC089904989AF98D
S31508001680533041439AF9522047E700BFB143010856
S31508001690000000380E7E08000600016006070550A7
S315080016A0000005500000D023050304502644010815
S315080016B01B440108069BDAF8002007991A44DAF851
S315080016C018300B4408EE903ADAF83030002B3CD04C
S315080016D033F8173008EE103A059B002107EB03098B
S315080016E0DAF8383028469944CDE900B44346FFF77E
S315080016F047FB434618EE902A01212846CDE900B457
S31508001700FFF73EFB01234A46009303212846FFF7CD
S3150800171027FBB0EE480A05212846FFF79BFA012168
S315080017202846FFF74DFA079B099A01371344079392
S31508001730049BBB42BEDCDDE9042313440593099AE6
S31508001740069B01361344069394E740F20003C1E76B
S3150800175000270797ECE71FFA88F6CDE900760123FC
S31508001760DAF80020FFF70CFB1FFA8BF300930196BB
S31508001770012333E658B1031F9FED137A0020DFEDEE
S31508001780136A9FED136A01EB4202914200D170473A
S31508001790D3ED017AF8EEE77A67EE877AF4EEE67A21
S315080017A0F1EE10FA03F104030CDCF4EE467AF1EEDE
S315080017B010FA48BF2120F3EE677A17EE90CA21F88F
S315080017C002CBE2E72120F6E70000003800E07F4779
S315080017D000E07FC70000000038B50022164B51EC28
S315080017E0100B0EF055F810A3D3E9002304460D4656
S315080017F00EF0DEFA70B90EA3D3E900232046294677
S315080018000EF0B8FA58B9204629460EF081FE00EEC9
S31508001810100A38BD47F6FF3300EE103AF9E74FF6DF
S31508001820FF33F9E7AFF300800000000000FCEF404B
S315080018300000000000FCEFC00000E04070B560B397
S31508001840026AD30755BF4FF400614FF4806102EB7B
S31508001850D273134658BF5B1091421FDA01220DE07E
S315080018600021194E16F8015B93FBF5F405FB1430BD
S3150800187068B9A34205FB02F20DD02346B3F5806F83
S31508001880EEDCB2F5806FCCBF0020012003E0013109
S315080018900B29E7D1002000F0010070BDC36B013BA6
S315080018A0B3F5806F0DD2036C013BB3F5806F08D298
S315080018B0002A06DD406BB0F5806F8CBF0020012042
S315080018C0EBE70020E9E700BF1B44010838B54FF0F5
S315080018D0BA44074D6368DA0705D54FF0BA4213696B
S315080018E05B07FCD538BD52212846FEF761FFF1E7B4
S315080018F0284401084FF08042074B01219A664FF0B1
S31508001900BA4303F58052516001F540211162034A3A
S315080019101268DA60704700BF009000508C100020F3
S31508001920FFF7E8BFFFF7D2BFFFF7D0BF7047000049
S315080019300048704770110020004870477011002059
S31508001940004870477011002000EB81014B6A012B9B
S3150800195005DD886C0028D4BF0020012070470020D0
S315080019607047002238B50546144611462846FFF743
S31508001970EBFF00B101340132092AF6D1204638BD01
S315080019802DE9F041002504462A464FF02808194F4C
S3150800199000F1240629462046FFF7D6FF90B102F14A
S315080019A07E03C6F8B02144F82350736A0132B3F5B2
S315080019B0006F336828BFC7F80080B3F5806F88BF0B
S315080019C0C7F800800135092D06F10406E2D1032A7D
S315080019D00ADC08237E3204EB820204F50174A24273
S315080019E005D042F8043BFAE72822024B1A60BDE804
S315080019F0F08100BFEC1300202DE9F34100EB8106CE
S31508001A0000EB820705460C4690466846BA6CB16CF0
S31508001A100EF0E0FD019B13B128220C4B1A607B6A7D
S31508001A20009AD31A42BF28200849086004EBC4016B
S31508001A3001EB0804243445F82430736A53437B6267
S31508001A400123736202B0BDE8F08100BFEC130020E9
S31508001A502DE9F04F24270546984608464FF0010A17
S31508001A604FF0000B7A4385B005F5EA7605F5FC7963
S31508001A70A2F5A277F15900293AD00E9B3468002BBB
S31508001A801ADBD5F80432D0F868224FEA830C0E9B8D
S31508001A9002EBC3024FF4E043D2F870E003FA0CF30A
S31508001AA013EA0E0F08D14FF4805303FA0CF3A34040
S31508001AB043EA0E0313670139002919DD0F4A03901B
S31508001AC0FFF7E8F90D4A0AFA04F3CDE900B2002255
S31508001AD0D5F8044248EAC31343EA041311460398A7
S31508001AE043F00803FFF71DFA0398FFF781FA0398F6
S31508001AF004364E45BED105B0BDE8F08FEC13002084
S31508001B00F0B5D1F878620446062E0D4685B004DD98
S31508001B102122114B1A6005B0F0BD11460393FFF759
S31508001B2013FF771C039B88B1D4F80412D5F8680212
S31508001B3000EBC6008E004FF48051B14004EB8206DC
S31508001B40D6F8D461B140866F31438167294620466D
S31508001B500097FFF77DFFDEE7EC130020F7B5D1F815
S31508001B6074420546072C0E461F4604DD2122144BF7
S31508001B701A6003B0F0BD1146FFF7E6FEB8B10C23B4
S31508001B80D6F8681203FB0411802405EB8203D3F808
S31508001B90D431D1F8B4009C40D5F8043244EA031491
S31508001BA044F00E0404FA07F30343C1F8B4304FF0C7
S31508001BB0FF333146009328460623FFF749FFD8E747
S31508001BC0EC13002013B50A460446016B68460EF06E
S31508001BD001FD009A002ADEBF28210B4B1960019BE4
S31508001BE013B12821084B1960A36BA263012B1EBFF2
S31508001BF02821054B1960236B93FBF2F3626D23636F
S31508001C005343E36502B010BDEC13002070B50446DB
S31508001C100D462422002104F148060EF0E8FD242290
S31508001C20002130460EF0E3FD2422002104F16C0069
S31508001C300EF0DDFD4FF4A272002104F190000EF0C3
S31508001C40D6FD04F5EA70242200210EF0D0FD01230A
S31508001C50C4F804522434B44202D044F8043BFAE7E8
S31508001C6070BD00002DE9F04FD0E915972DED088BD2
S31508001C70436CADF6043D2193036C90ED17AA1893B7
S31508001C80036DD0ED18AA1993C36C90F848801A937F
S31508001C904369259109934368A24E0A93DDE90932FF
S31508001CA093FBF2F30893036805461B93C3682293D4
S31508001CB003692393436B1093836B0B93C3690D934B
S31508001CC0036A139383682C93036B2693C36B1E9343
S31508001CD0C36A27938369289300233360FFF730FE8E
S31508001CE01B9B0446012B1CBF21233360B8F1000F50
S31508001CF005D1DDE9193213431CBF2123336040F2B5
S31508001D000003ADF8CC30ADF8CE30089B2A9303F02B
S31508001D1001030C93C3F102031593259B93B1279AEC
S31508001D201E9B13430C9A03F00303002A40F06582B6
S31508001D30289A26990A4302F00102134302D0212267
S31508001D40784B1A602046FFF7A1F90A9B239A0021CF
S31508001D5002FB03F6229B139A06FB03FB099B36A894
S31508001D6002FB03F80D9B08FB03FAFFF74FFF02215E
S31508001D70B8A8FFF74BFF01210DF59D60FFF746FF59
S31508001D8013980D9943900A98429184462198189978
S31508001D9000FB0CF071434C900D984B9141434D91CB
S31508001DA010991B9B45910B993F93469161460A9B57
S31508001DB001224093089B4F43419300231A9906FB3F
S31508001DC009F649423C911999499249423D911B9914
S31508001DD04A934492CDF820B14E964F97CDF80C15FC
S31508001DE00899CDF83825CDF83415CDF81415CDF861
S31508001DF020251399109ACDF81C15CDF84435099964
S31508001E00CDF82425CDF848350B9ACDF84C350C9BE2
S31508001E10CDF830A5CDF810C5CDF81805CDF83C8518
S31508001E20CDF84015CDF82825C3B9089B159A93FB1C
S31508001E30F2F308934193CDF814350C9B0DF5A66281
S31508001E40022B1CBF1168159803F101031CBF91FBF7
S31508001E50F0F11160092B02F10402F1D10DF59D6A2A
S31508001E6036AA4FF0000B90462127D1462D4E5946EB
S31508001E704046FFF769FD40B1536AB3F5806F03D852
S31508001E80936CB3F5006F00D3376059464846FFF7A1
S31508001E905BFD50B1DAF82430B3F5806F04D8DAF870
S31508001EA04830B3F5006F00D337600BF1010BBBF177
S31508001EB0090F0AF1040A02F10402D8D1194B1E6867
S31508001EC0002E40F000840B9A099B012153430DF51F
S31508001ED09D6002222F93FFF78FFD109A229BB3462F
S31508001EE09B1A1A9A1F961344189A93FBF2F30B9AA5
S31508001EF02D93239B9B1A199A1344219A93FBF2F369
S31508001F002E930C9B002B0CBF052301230BEE103AD6
S31508001F100CBF062302230BEE903A40F2002309EE8B
S31508001F20103A01E0EC130020139B9B4580F22584B0
S31508001F30219B199903FB0BF3199A0B989A1ACB1A3A
S31508001F4023EAE3731493239B14999B1A9842D4BFEC
S31508001F50C1EB0001C1EB0301002A1C91C0F25181BB
S31508001F602E9A9842C8BF5A462092209B4FF0000AE4
S31508001F70A3EB0B030133002BD8BF28220E93DCBF3B
S31508001F80A64B1A600D9B9A4580F2F283189B10990E
S31508001F9003FB0AF91A9BA9EB0302A3EB0909229B87
S31508001FA029EAE9799B1A9942D4BFC9EB0101C9EB21
S31508001FB00301002A0F91C0F227812D9A10999942A0
S31508001FC0C8BF52461192119B36A9A3EB0A0808F11D
S31508001FD00108B8F1000FDCBF2822904B0DF5DE6032
S31508001FE0D8BF1A604FF402720EF0DAFB4FF4027291
S31508001FF00DF59D610DF6F8000EF0D2FB0E9B0DF562
S31508002000DE60CDF82437CDF82C391C9BCDF8208717
S31508002010CDF83037CDF838390F9BCDF82889CDF86B
S315080020202C37CDF83439FFF79CFC032805D8DDF8A2
S315080020304437B3F5006FC0F0ED8003210DF5DE607F
S31508002040FFF782FC002800F0E58004210DF5DE602C
S31508002050FFF77AFC002800F0DD80DDF84827DDF878
S31508002060441734A80EF0B6FA359B13B128226B4BE9
S315080020701A60349BDDF824279A1A002ABEBF282145
S31508002080664A1160DDF820275343B3F5806F40F2A6
S31508002090BE80189A0F9B414693FBF2F602FB163355
S315080020A0002B18BF013634A832460EF093FA119A5F
S315080020B0359B3146D31AA3EB0A0808F101080DF53A
S315080020C0DE601193CDF82889CDF82087FFF77AFDD1
S315080020D031460DF6F800FFF775FD349B04220321FF
S315080020E00DF5DE601693FFF787FCDDF82437B3F5A8
S315080020F0806F02D92822494B1A600DF5DE60FFF77A
S3150800210030FC032804D8DDF84C37B3F5006F1AD332
S3150800211005210DF5DE60FFF717FC58B106210DF510
S31508002120DE60FFF711FC28B1062205210DF5DE60F9
S31508002130FFF762FC0DF5DE60FFF713FC0428C2BF4B
S315080021402822364B1A600DF6F800FFF70AFC03281A
S3150800215004D8DDF84C39B3F5006F1AD303210DF610
S31508002160F800FFF7F1FB58B104210DF6F800FFF768
S31508002170EBFB28B1042203210DF6F800FFF73CFC1F
S315080021800DF6F800FFF7EDFB032882BF2822234B44
S315080021901A6005210DF6F800FFF7D6FB002800F0B7
S315080021A09982DDF85429B2F5006FC0F0938292FB4C
S315080021B0F6F306FB132212B12821184A11601749B3
S315080021C03746D1F800C000218E46DDF83029CDF813
S315080021D054397243CDF83029B3F5006F20D303F094
S315080021E00101002903EBD3731CBF86464FF0280C68
S315080021F001465B1052007F00EEE7002B7FF49FAD8F
S31508002200A0E5CDF880B0B0E6CDF844A0DBE64646BA
S31508002210012363E70123464616936EE7EC13002075
S31508002220BEF1000F02D0C948C0F800C019B1CDF8F8
S315080022305439CDF83029013F0DF5DE60FFF791FBE3
S31508002240032840F2C08201210DF5DE60FFF77CFB12
S3150800225010B92822BD4B1A6001230E9ACDF81837FB
S315080022609A42CDF8203900F0B4824FF001080DF5F6
S31508002270DE60FFF776FB032882BF2822B34B1A607D
S31508002280DDF80037149A5B44CDF80037DDF8FC36E4
S315080022900DF5DE605344CDF8FC36DDF80C371344F3
S315080022A0CDF80C37DDF808374B44CDF80837DDF89C
S315080022B008395B44CDF80839DDF804395344CDF8BC
S315080022C00439DDF814391344CDF81439DDF810391A
S315080022D04B44CDF81039FFF753FB0DF6F800FFF71E
S315080022E04FFB0A9BB8F1000F06BF9A4601234FF031
S315080022F0010A0B9A3193149B09FB0239099B03FBCC
S3150800230009F32B932A9B03FB0AF329935B0030936B
S3150800231000231793179B1B9A934280F225822B9AC8
S31508002320CDF8F036CDF8F838269B134424930023CD
S315080023301D931293129B319A934280F21282CDF822
S31508002340F436CDF8FC382BB1BAF1010F1EBF28229E
S315080023507E4B1A602046FEF7D8FD0C9BB8EECA8A5B
S31508002360DFED7B9AF8EEEA8A002B40F0B58140F261
S315080023700023F0EE490A00EE103A0C99D4F86802E8
S31508002380FEF738FC28EE298AF3EE480A0121B0EE5A
S31508002390600AD4F86802FEF72DFCF3EE680A0221FB
S315080023A0B0EE600AD4F86802FEF724FC0022134651
S315080023B00DF5DE6151F804CB0133486C092B00FB9F
S315080023C00C22F7D1DDF8F0C860480DF5DE630690FB
S315080023D00CF1120053F82000DDF8EC18059001F115
S315080023E0120053F82000DDF8E8E804900EF1120018
S315080023F053F8200003EB8C0C0390BCF8240003EB85
S3150800240081010290898C03EB8E0301919B8C2C9998
S3150800241000930A4401230021D4F86802FEF79DFDC3
S31508002420002213460DF6F80151F804CB0133486C27
S31508002430092B00FB0C22F7D1DDF8F8CADFF80C816E
S315080024400DF6F803CDF818800CF1120053F82000A9
S31508002450DDF8F41A059001F1120053F82000DDF8B2
S31508002460F0EA04900EF1120053F8200003EB8C0CEE
S315080024700390BCF8240003EB81010290898C03EBDE
S315080024808E0301919B8C28991598009302FB0012E4
S315080024901BEE103A0121D4F86802FEF75EFD159A84
S315080024A0099B159993FBF2F32F9A1FFA83F992FB6E
S315080024B0F1F2CDE9043201230393BDF83C30CDF89F
S315080024C018800293BDF870300221CDE90093249A52
S315080024D01BEE103AD4F86802FEF73FFD1E9B002B50
S315080024E000F012811D9A9A181E9BD4F86802002BD8
S315080024F014BF4B4601230321CDE900381BEE903A61
S31508002500FEF764FDCDE900981D99279A1BEE903ACF
S315080025100A44D4F868020421FEF758FDBAF1010FFF
S3150800252004DD51462046094AFEF7B4FC089B012BF8
S3150800253004DD19462046054AFEF7ACFC4FF00009B3
S31508002540DFF80880034B4121204605E0EC13002004
S31508002550000000383C2E0900AB4ACDF80480CDF8BF
S315080025600090FEF7DEFC424631462046FEF792FC16
S31508002570424620460E99FEF78DFC4246204616999D
S31508002580FEF788FC424620460F99FEF783FC424632
S3150800259020461C99FEF77EFC40F2CD1120469B4B47
S315080025A09B4ACDE90098FEF7BCFC4B46072221461C
S315080025B00DF5DE60FFF7D2FA4B4640F2D711954A81
S315080025C02046CDE90098FEF7ACFC2046FEF710FD44
S315080025D0042202212046FEF75DFD062321461A46FF
S315080025E00DF5DE60FFF78CFA2046FEF701FD06239F
S315080025F0052221460DF5DE60FFF782FA4FF0F873E3
S3150800260040F2D7112046844A0093CDF804804B4601
S31508002610FEF787FC1423052221460DF6F800FFF77E
S315080026209DFA002F72D13B4641212046CDE900781C
S31508002630754AFEF776FC2046FEF7DAFC07230422E5
S3150800264021460DF5DE60FFF75BFA062304222146D4
S315080026500DF6F800FFF754FA2046FEF7C9FC0723E3
S31508002660032221460DF6F800FFF74AFA062303224D
S3150800267021460DF5DE60FFF743FA2046FEF7B8FC63
S31508002680012202212046FEF705FD072302222146E4
S315080026900DF6F800FFF734FA089B012B02DD2046F9
S315080026A0FEF7A6FC0623012221460DF5DE60FFF79C
S315080026B027FABAF1010F02DD2046FEF799FC574BBF
S315080026C01B68CBB31E4630460DF6043DBDEC088BA1
S315080026D0BDE8F08F0027AFE5B0EE490AD4F86802E6
S315080026E00021FEF7B7FA28EE290AD4F86802B3EEF5
S315080026F0400A0121FEF7AEFAB3EE680A0221D4F8C1
S315080027006802FEF7A7FA51E633AAEDE642463946CD
S315080027102046FEF7BFFB8023DDF8E02A20469340DB
S315080027204121CDE90098384A43F01F03FEF7F9FB2B
S315080027302046FEF75DFC7EE7259B73B12046FEF733
S315080027406FFC129B299A01331293249B13442493FA
S31508002750309A1D9B13441D93ECE51F9B01331F9371
S31508002760EFE7179B0133D4E5119B03F1010A09E44E
S31508002770209B03F1010BFFF7D7BB259B274C8BB199
S31508002780FEF736FA0D9B1B9909985943139B95F941
S315080027902420594395F928304143A869FEF7BEFC21
S315080027A0266890E70B9B109959430D9B5943139B39
S315080027B05943099B59431F9B91FBF3F17729DCBFCA
S315080027C021232360ECE70E9B012B16D04FF000085F
S315080027D056E5B8F1010F0CD0DDF838800F9B012BB8
S315080027E003D01C9B012B7FF442ADB8F1000F3FF4D8
S315080027F03EAD2822094B1A6037E5B8F1010F4FF0B4
S315080028000008EBD133E500BF000004500EBC0400FD
S31508002810060001600607055005030270EC13002048
S315080028202DE9F04F2DED048B436CB9B02293036C60
S3150800283090ED178A2393036DD0ED188A2493C36C01
S31508002840D0F838902593036845692D93C368159386
S315080028500369089343681693436B0993C3692693E0
S31508002860036A1793436A1893836A199383682793AD
S31508002870036B2893C36B1A93C36A29938369299AAE
S315080028802A93002337931A9B1A4311B1D30700F1F1
S315080028900D82279B2A982B430343289802F00302AC
S315080028A0034303F00103134309BF05EBD573002364
S315080028B04FEA630A012318BFAA46B9F5806F0D933C
S315080028C000F3F681099BB3F5806F00F3F181089B4D
S315080028D00AFB03F3B3F5006F209380F0E98109FB47
S315080028E00AF3B3F5006F219380F0E281B9F5806FA2
S315080028F000F2DE81099BB3F5806F00F2D9810029C9
S3150800290000F0CE81FFF718F8199B189A7F3B18BF7D
S315080029100123803218BF012330930D9B179A002B91
S3150800292014BF0523012309EE903A269B00276B4323
S315080029305343159A2F93089BCDE911775343169A5B
S315080029402E905343329309FB05F3099A1F93534379
S315080029503393179B1D976B43319340F2002309EE7F
S31508002960103A0E97129B2D9A934280F29781259BD7
S315080029700B935B420A930E9B1B930023139346E12A
S31508002980079B089A002B0C9BACBF4FF0000B9B468D
S31508002990079B4FF48A7023EAE3744B449A42DCBFE0
S315080029A013460C9AF0EE490AD8BF9E18119A2E9B28
S315080029B04FF0000100FB023040F2002300EE103A0F
S315080029C0C8BF4E461C90FEF715F9F0EE480AFAEE17
S315080029D0E80AF3EE600A0121B0EE600A1C98FEF7D9
S315080029E009F9F8EEE80AF3EE600A1C98B0EE600AF8
S315080029F00221FEF7FFF8189B1C988033A6EB0B06FE
S31508002A0003D1199B7F2B00F03581DDED187AF8EE9E
S31508002A10E70AF3EE600A0321B0EE600A1C90FEF79F
S31508002A20E9F8DDED197AF8EEE70AF3EE600A1C9884
S31508002A30B0EE600A04213490FEF7DCF8309B349837
S31508002A401C9301231E932B9B169A279904FB02328B
S31508002A500124209B1FFA8AF80493109BB6B20A44F5
S31508002A60CDE90083002119EE903ACDE90264CDF84C
S31508002A7014A03490FEF7FAF82C9B289905FB0B3224
S31508002A80219B3498CDE90343109B0A44CDE9008382
S31508002A90214619EE903ACDF814A00296FEF7E6F80C
S31508002AA01A9B3498002B40F005810D9B37AA002B02
S31508002AB014BF062302234FF0010B0221009435931D
S31508002AC03490FEF74DF90321359B299A3498CDF8B1
S31508002AD00080FEF745F919EE903A04210F9A3498CA
S31508002AE0CDE904AACDE902BBCDE9008B0024FEF7A7
S31508002AF0BDF840F22D232246214634980093CDE9AD
S31508002B0001442346FEF74EF96E4B40F2D71259465A
S31508002B1034980093CDE901446B4BFEF743F940F234
S31508002B20D7120221694B3498CDE901440094FEF787
S31508002B3039F91E9B1C9AA34214BF23464FF04F63D4
S31508002B4082EA0B02CDE9013240F23E233498009323
S31508002B5040F2D7125E4B03211C90FEF723F91E9B09
S31508002B601C98002B00F08A804FF04F6340F2D51274
S31508002B70CDE900430421574BCDF808B0FEF712F90A
S31508002B8004231C98002442462146CDE900342346F6
S31508002B904FF002081C90FEF72BF91123CDE90083AC
S31508002BA00123109A19461C98FEF722F92223324669
S31508002BB04146CDE900831C980123FEF719F9214601
S31508002BC01C98FDF7FDFF119B229A83F001031193D0
S31508002BD0149B013314930F9B2B440F930C9B9B1A46
S31508002BE00C93079B13440793149B179A9342FFF67B
S31508002BF0C7AE139B239A013313930A9B13440A9374
S31508002C000B9B9B1A0B93319A1B9B13441B93139B89
S31508002C10269A934234DA0A9B16980899002B0B9B3E
S31508002C2000FB01F1B8BF1A460A9B1D9823EAE37315
S31508002C3001FB030315992B930B9B159C0B44DDE9AC
S31508002C40091001440998A8BF00228C42C8BF034650
S31508002C509B1A9BB210931F9B02FB03731B9A2C9320
S31508002C602A9B13440F93249B0C935B4207930023E0
S31508002C701493B9E700231C931E93E4E6032381E724
S31508002C80129B2F9A013312930E9B13440E93329A7A
S31508002C901D9B13441D93339B1F4463E6FDF7A8FF52
S31508002CA0002039B0BDEC048BBDE8F08F2120F8E791
S31508002CB02820F6E70D9B4446002B14BF0623022363
S31508002CC01A9AF8E60E7E0800060001600607055007
S31508002CD0050602700304077038B5124B05461B78C3
S31508002CE0DBB1E0B101F037FB0F4A00231146147B34
S31508002CF054B92B6001251A0101EB03131D738C507F
S31508002D0001F02FFB204638BD0133082B02F11002D3
S31508002D10EDD101F026FB0548F5E70548F3E7054838
S31508002D20F1E700BF70150020F0130020048000F0C2
S31508002D30028000F0018000F0154B13B518680023D7
S31508002D4001908DF8043001F006FB124B1C7824B173
S31508002D5001F007FB104802B010BD01221A7001F0FD
S31508002D6000FB0E4B01A81C731C7783F82C4083F8D4
S31508002D703C4083F84C4083F85C4083F86C4083F809
S31508002D807C4008238DF8073002F0FAF82046E2E77F
S31508002D908544010870150020038000F0F013002018
S31508002DA0F8B50D4D2D7885B1072810DC0B4D0601B9
S31508002DB005EB0014277B67B1AB510025069BA56080
S31508002DC0636002F027F92846F8BD0548FCE7054880
S31508002DD0FAE70548F8E700BF70150020F013002051
S31508002DE0028000F0018000F0078000F00A4A08B56A
S31508002DF0127852B107280AD8084A02EB00131B7B3F
S31508002E003BB102F089F9002008BD0548FCE70548F2
S31508002E10FAE70548F8E700BF70150020F013002010
S31508002E20028000F0018000F0078000F02DE9F843E9
S31508002E30174B1F6D5B6D1F4000D5FEE70126002569
S31508002E40144CDFF85480DFF85490374217D02368C3
S31508002E50C8F850609BB1A168284601316268A16034
S31508002E609847637B012B0AD148B909EB45131A7BAE
S31508002E7060F341021A731A7F60F341021A7701352B
S31508002E80082D4FEA460604F11004DED1BDE8F883A2
S31508002E9000000450F0130020002004507014002095
S31508002EA0044BD3F88420D206FBD4D3F88400C0F3AD
S31508002EB0811070470040005038B50F4B0546D3F8CF
S31508002EC080300C4603F00303012B09D0022B0FD0E8
S31508002ED00A4840F6B271FDF76BFC0023184602E07B
S31508002EE0FDF7E4FC0E2305B1286004B1236038BD64
S31508002EF0FDF728FD0723F6E70080005089440108FE
S31508002F0038B5194B0546D3F820310C4603F00703AC
S31508002F10013B052B20D8DFE803F0030B130F171B23
S31508002F20FDF7BEFC052305B1286004B1236038BD52
S31508002F30FDF7ECFC0323F6E7FDF704FD0723F2E7AC
S31508002F40FDF7FCFC0223EEE7FDF7AAFC0623EAE7F9
S31508002F50FDF7DCFC0423E6E7044841F22B01FDF704
S31508002F6027FC00231846DEE7008000508944010844
S31508002F7038B5194B0546D3F828310C4603F0070334
S31508002F80013B052B20D8DFE803F003131B0F0B17B3
S31508002F90FDF786FC052305B1286004B1236038BD1A
S31508002FA0FDF77EFC0623F6E7FDF7CCFC0723F2E7E0
S31508002FB0FDF7ACFC0323EEE7FDF7A8FC0423EAE7DC
S31508002FC0FDF7BCFC0223E6E7044840F63E61FDF740
S31508002FD0EFFB00231846DEE700800050894401080D
S31508002FE0F7B50027144B0197D3F88041064604F03D
S31508002FF00304022C0D4614D0032C0DD0012C14D139
S31508003000394601A8FFF77CFF10240EB1019B3360F7
S3150800301005B12C6003B0F0BDFDF794FC07240190C0
S31508003020F3E7FDF78BFC0190EFE741F278110348CF
S31508003030FDF7BEFB3C46E8E70080005089440108DE
S31508003040002337B50193184B0546D3F820320C46B2
S3150800305003F00703013B032B1ED8DFE803F0020E3B
S315080030601318002101A8FFF783FF12230DB1019A57
S315080030702A6004B1236003B030BDFDF763FC072363
S315080030800190F3E7FDF7A0FC0A230190EEE7FDF7B0
S31508003090A1FC09230190E9E740F6FD510348FDF735
S315080030A087FB0023E2E700BF00800050894401083F
S315080030B038B5124B0546D3F840310C4603F00303E6
S315080030C0022B0BD0032B0DD0012B0FD1FDF77CFC67
S315080030D00A2305B1286004B1236038BDFDF77AFCE0
S315080030E00923F6E7FDF773FC0C23F2E7044841F2DF
S315080030F05901FDF75DFB00231846EAE700800050FA
S3150800310089440108002337B50193184B0546D3F8BF
S3150800311060320C4603F00703013B032B1FD8DFE898
S3150800312003F0020E1914002101A8FFF7E9FE102387
S315080031300DB1019A2A6004B1236003B030BD0021A5
S3150800314001A8FFF7B5FF1123F2E7FDF7FBFB0723FD
S315080031500190EDE7FDF7F2FB02230190E8E740F660
S31508003160A2610348FDF724FB0023E1E70080005035
S3150800317089440108002337B50193184B0546D3F84F
S3150800318094320C4603F00703013B032B1FD8DFE8F4
S3150800319003F0020E1914002101A8FFF7B1FE10234F
S315080031A00DB1019A2A6004B1236003B030BD002135
S315080031B001A8FFF77DFF1123F2E7FDF7C3FB0723FD
S315080031C00190EDE7FDF7BAFB02230190E8E740F628
S315080031D0D5610348FDF7ECFA0023E1E700800050CB
S315080031E08944010873B500240F4B0194D3F8703253
S315080031F0064603F00303012B0D4607D0022B11D018
S315080032004FF470610948FDF7D3FA04E0214601A896
S31508003210FFF74EFF11240EB1019B336005B12C60F8
S3150800322002B070BD1524F6E70080005089440108F5
S3150800323038B5154B0546D3F800320C4603F007039C
S31508003240013B032B18D8DFE803F0020A0E12FDF73C
S31508003250BBFB0A2305B1286004B1236038BDFDF71E
S31508003260B9FB0923F6E7FDF7B2FB0C23F2E7FDF7F6
S3150800327037FB0F23800AEDE7044841F22E21FDF7BC
S3150800328097FA00231846E5E70080005089440108AC
S3150800329038B5154B0546D3F808320C4603F0070334
S315080032A0013B032B18D8DFE803F0020A0E12FDF7DC
S315080032B08BFB0A2305B1286004B1236038BDFDF7EE
S315080032C089FB0923F6E7FDF782FB0C23F2E7FDF7F6
S315080032D007FB0F23800AEDE7044841F26221FDF758
S315080032E067FA00231846E5E700800050894401087C
S315080032F038B5124B0546D3F840320C4603F00303A3
S31508003300022B0BD0032B0DD0012B0FD1FDF75CFB45
S315080033100A2305B1286004B1236038BDFDF75AFBBE
S315080033200923F6E7FDF753FB0C23F2E7044841F2BD
S31508003330F111FDF73DFA00231846EAE70080005030
S315080033408944010838B5124B0546D3F860310C4656
S3150800335003F00303022B0BD0032B0DD0012B0FD147
S31508003360FDF732FB0A2305B1286004B1236038BD96
S31508003370FDF730FB0923F6E7FDF729FB0C23F2E7F7
S31508003380044841F28701FDF713FA00231846EAE7D5
S31508003390008000508944010870B5054614460E465B
S315080033A000F0D2FF296881EA040202EA06044C40CA
S315080033B02C60BDE8704000F0CBBF0000B0F5207F60
S315080033C010B52ED009D8B0F5007F24D003D868B13F
S315080033D0B0F5C07F0AD000241BE0B0F5607FFAD1B3
S315080033E0124BD3F88040C4F3011412E00F4B1C6F44
S315080033F0230B13F00E0FC4F303340AD0032C08D0A2
S31508003400072C06D00F2C04D040F272210848FDF78D
S31508003410CFF9601C10BD054BD3F89040C4F3046483
S31508003420F7E7024B1C6FC4F38024F2E700800050D4
S31508003430894401084FF4803238B5104B04469A6621
S3150800344000200D46FFF7BAFF41F671320C4B604378
S31508003450DC69DA635A6804F4803422F440125DB9F0
S31508003460084988428CBF4FF48010002010435860EA
S315080034700CB10022DA6338BD0349F2E70090005028
S3150800348000000350005A6202002D310108B5FDF70D
S3150800349039FABDE808400021FFF7CCBF70B54409EA
S315080034A005460E460ED140F216310F48FDF780F953
S315080034B005F01F05AEB104F58053012000FA05F5A5
S315080034C01D6070BD012C08D0022C08D04FF448713D
S315080034D00548FDF76DF90024EAE7044CE8E7044CD3
S315080034E0E6E704F50053E8E78944010864800050DC
S315080034F068800050002130B5802885B00446CDE9A3
S31508003500001100F0938029D8002800F09580A0F1DA
S3150800351020043D2C35D83D2C33D8DFE804F08D99AE
S315080035208D99A8A8A8A8A899B23FC8633F99999960
S3150800353032323232323232329999996BD2993232E8
S315080035403232323232323232323232A88D8D8DCD2B
S315080035503F3FD77A50AD323232323282B0F5B06F51
S3150800356000F08F8030D8B0F5207F71D00FD8B0F535
S31508003570C07F61D0B0F5007F61D0B0F5807F00F0E4
S31508003580858040F26D415448FDF712F951E0B0F5D7
S31508003590607F67D00DD8B0F5407FF2D1FDF7A0F96E
S315080035A004464FF42070FFF709FFB4FBF0F040081B
S315080035B03EE0B0F5806F5AD0B0F5A06FE1D100219A
S315080035C06846FFF73DFD34E0B0F5106F74D016D8A5
S315080035D0B0F5E06F75D00AD8B0F5C06F67D0B0F512
S315080035E0D06FCED100216846FFF722FE21E0B0F564
S315080035F0F06FC6D100216846FFF7A4FE19E0B0F5C2
S31508003600406F39D00AD8B0F5206F5FD0B0F5286F73
S31508003610B7D100216846FFF7E5FD0AE0B0F5486F27
S31508003620AFD100216846FFF7A5FD02E0FDF73EF998
S315080036300090009805B030BDFDF752F9F8E7FDF7A0
S3150800364035F905462046FFF7B9FEB5FBF0F0EFE77A
S31508003650FDF746F904464FF42070FFF7AFFEB4FBBA
S31508003660F0F0E5E701A8FFF727FC019DEAE700214E
S315080036706846FFF745FCDCE700216846FFF778FC5B
S31508003680D7E700216846FFF7ABFCD2E74FF0E02307
S3150800369002911B695B0705D5FDF722F90290029B8B
S315080036A00093C6E703A902A8FFF702FDF7E7002182
S315080036B06846FFF7FDFCBCE700216846FFF7E8FD12
S315080036C0B7E700216846FFF713FEB2E70021684610
S315080036D0FFF718FDADE700BF8944010808B580204B
S315080036E0FFF708FF034B98429EBF4FF48032024B08
S315080036F01A6708BD005A620200A000501FB50023D1
S31508003700B0F5807F019300F0C38064D85D2855D852
S315080037104C2806D82D2847D823282BD840F24B51B9
S31508003720A5E04D381028F9D801A353F820F000BFBA
S31508003730873800081D3700081D3700081D370008A0
S31508003740393800081D3700081D3700080D390008EC
S3150800375057380008FD370008033900081D370008E8
S315080037601D3700081D3700081D3700081D370008DB
S315080037701739000824380928D0D801A353F820F0AF
S31508003780873800088738000887380008873800080F
S31508003790873800081D370008773800081D370008E5
S315080037A019380008BD3800083D2800F082803E28F8
S315080037B0B4D1002001A9FFF79BFD60E08028ADD1B8
S315080037C0574B1B6F03F00703013B032B4DD8DFE86C
S315080037D003F04A47878FB0F5F06F6AD021D8B0F565
S315080037E0B06F48D00FD8B0F5607F00F0858095D3CC
S315080037F0B0F5806F47D0B0F5A06F8FD1002001A932
S31508003800FFF71EFC3BE0B0F5D06F57D0B0F5E06F80
S31508003810CFD0B0F5C06F81D1002001A9FFF748FCD1
S315080038202DE0B0F5206F71D00BD8B0F5086F4AD0EF
S31508003830B0F5106F7FF472AF002001A9FFF728FDDD
S315080038401DE0B0F5406F5CD0B0F5486F63D0B0F5B9
S31508003850286F7FF463AF002001A9FFF7C3FC0EE0D1
S31508003860052301930BE00223FBE740F29F412D4815
S31508003870FCF79EFF03E0002001A9FFF7B1FB0198C2
S3150800388005B05DF804FB002001A9FFF739FBF6E750
S3150800389002934FF0E0231B695B0705D5FDF720F877
S315080038A00D230393039BDCE703A902A8FFF700FC9B
S315080038B0F8E7002001A9FFF745FDE0E7002001A988
S315080038C0FFF7B6FCDBE7164BD3F8003103F003032A
S315080038D0022B07D0032B09D0012B0BD1FDF716F8C5
S315080038E00323BEE7FDF776F80923BAE7FDF724F8C0
S315080038F00823B6E70123B4E7184601A9FFF7DCFA5F
S31508003900BDE7002001A9FFF733FBB8E7002001A9AE
S31508003910FFF7F8FBB3E7002001A9FFF72BFCAEE79A
S31508003920008000508944010838B5036804460F2B07
S3150800393004D940F663217A48FCF73AFF63680F2BEF
S3150800394004D940F666217648FCF732FFA3680F2BA8
S3150800395004D940F669217248FCF72AFF237B0F2B0E
S3150800396004D940F66C216E48FCF722FF637B0F2BC7
S3150800397004D940F66F216A48FCF71AFFA37B3F2B50
S3150800398004D940F672216648FCF712FFE37B3F2B09
S3150800399004D940F675216248FCF70AFF2369032B10
S315080039A004D940F678215E48FCF702FF6369032BC9
S315080039B004D940F67B215A48FCF7FAFEE369032B43
S315080039C004D940F67E215648FCF7F2FE8020FFF720
S315080039D095FE032800F083804FF48012514B4FF078
S315080039E0A0615A6645F60E034F4AC2F880304F4B1F
S315080039F099624FF4803103F580539962916D11F401
S31508003A008031FBD1D4E900031B0543EA0063E07B60
S31508003A100343207B43EA0043607B43EA0033A07BF1
S31508003A2043EA801313619069D4E904531B0643EAF9
S31508003A30856300F000400343A07EE57E0343207EB5
S31508003A4043EA0043607E43EA00239361E069136A10
S31508003A5000280CBF0022082223F00F0343EA0003C4
S31508003A6043EA850343EA02032F4A314D136237D1ED
S31508003A7094F82430916A94F82000DB000D4043EA5C
S31508003A80401394F821102B4343EA011343F480337F
S31508003A909362284B916D33EA0101FBD14FF0807197
S31508003AA0224881621369A56823F4700343EA055323
S31508003AB013614FF00043836194F822300BB91E4B13
S31508003AC0996294F823301BB94FF480321A4B9A62E4
S31508003AD094F825301BB1144B184AC3F8802038BD1A
S31508003AE0022808D11161164891614FF408524FF423
S31508003AF07F41FFF751FC0C4994F822308A6A94F802
S31508003B0020001B06154043EA401394F824202B4353
S31508003B1043EAC20394F8232043EA02438B62D7E7B9
S31508003B2089440108009000500040005A0050005A8D
S31508003B30C7FFFEFE030001000060005AF1A7FFFF61
S31508003B403440005A014B93F900007047901000204A
S31508003B50436810B5072B044604D940F6E1312A48D4
S31508003B60FCF726FEA368032B04D940F6E331264862
S31508003B70FCF71EFE2378032B04D940F6E5312248CC
S31508003B80FCF716FE94F90130002B04DA40F6E7310B
S31508003B901D48FCF70DFE4FF400011C4A6378516678
S31508003BA04FF4D151022002F5B832516218494F2B11
S31508003BB048604FF0010028BF4F2301F58051486047
S31508003BC01169C903FCD4217843EA01235361D4E976
S31508003BD001131B0143EA0123617B0B43217B43EA63
S31508003BE041039360E37BA17B1B0143EA4113617C9C
S31508003BF00B43217C43EA41035360A37C13B16FF462
S31508003C00D153536210BD00BF89440108009000508B
S31508003C1000100250014B1880704700BF9210002018
S31508003C200029CCBF01210021FFF704BCB0F5207F95
S31508003C3038B577D00ED8B0F5007F61D003D890B3E9
S31508003C40B0F5C07F2FD040F2F921BDE838403D4895
S31508003C50FCF7AEBDB0F5607FF5D13B4A4C1ED2F8F5
S31508003C60FC5015F080751EBFD2F8FC3023F0807327
S31508003C70C2F8FC30032C04D940F2DB213148FCF7AA
S31508003C8097FD324BD3F8801021F0300141EA041138
S31508003C90C3F8801035B12C4AD2F8FC3043F0807353
S31508003CA0C2F8FC3038BD102901F1FF3404D8284B7E
S31508003CB023FA01F1CB0704D440F2B2212148FCF7DC
S31508003CC077FDFFF7E3FB00F047F84FF48031214B0F
S31508003CD01E4A1967136F23F4704343EA04331367C4
S31508003CE0FCF7FEFD0446FFF7DBF8C0F102012046AB
S31508003CF0FFF796FF00F036F8BDE83840FFF7EEBC50
S31508003D004C1E1F2C04D940F2ED210E48FCF750FD3D
S31508003D100E4BD3F8901021F0F85141EA0461C3F82C
S31508003D209010BFE74C1E012C04D940F2F321054838
S31508003D30FCF73EFD054B196F21F4806141EA8421A9
S31508003D401967AFE78944010800ED00E000800050DC
S31508003D50160101000090005002214FF42070FFF771
S31508003D6065BF000008B54FF4C070FFF7C3FBBDE898
S31508003D700840044988428CBF022101214FF4207073
S31508003D80FFF754BF80F0FA02B0F5807FF8B50C460D
S31508003D9000F062816CD85D285ED84C2806D82D289C
S31508003DA046D823282AD840F667018FE14D381028CF
S31508003DB0F9D801A353F820F02F400008A73D0008C2
S31508003DC0A73D0008A73D00080F3F0008A73D0008CB
S31508003DD0A73D0008AB420008413F00089D3E000889
S31508003DE073420008A73D0008A73D0008A73D000844
S31508003DF0A73D0008A73D0008EB420008243809281B
S31508003E00D1D801A353F820F02F4000082F4000080E
S31508003E102F4000082F4000082F400008A73D000843
S31508003E20FD3F0008A73D0008D73E000837410008B7
S31508003E303D2800F06B813E28B5D1093C032C00F2E1
S31508003E402D82A84B195DA84AD2F8403223F0030305
S31508003E500B43C2F84032B3E08028A4D18B1E062B50
S31508003E6000F2C180DFE803F0BCADBFC7BFBF810069
S31508003E70B0F5F06F00F04A813CD8B0F5B06F00F0AD
S31508003E80BD801DD8B0F5607F00F0AB818BD3B0F54F
S31508003E90806F00F0CC80B0F5A06F84D1073C0B2C66
S31508003EA000F2DE81DFE814F0CE01DC01DA01D80188
S31508003EB0D801DC01DC01DC01DC01DC01DC01E30109
S31508003EC0B0F5D06F00F03781B0F5E06FB5D0B0F53A
S31508003ED0C06F7FF468AF093C032C00F2FC80834B6B
S31508003EE0195D814AD2F8403123F003030B43C2F827
S31508003EF0403165E0B0F5206F00F0D78114D8B0F5F1
S31508003F00086F00F04F81B0F5106F7FF44CAF093C95
S31508003F10062C00F23E81DFE814F02E01430143012E
S31508003F2038013C013C013A01B0F5406F00F0A1812F
S31508003F30B0F5486F00F0D981B0F5286F7FF433AF3C
S31508003F40112C00F0F281152C00F0F18140F63501B4
S31508003F506748FCF72DFC00226349D1F8703223F03C
S31508003F6003031343C1F870322AE0002504264FF4F0
S31508003F7080370121022000F00BFAFFF787FAFFF7D6
S31508003F80EBFE5C4B584A1F67136F23F00703334356
S31508003F901367FCF7A5FC0646FEF782FFC0F102018F
S31508003FA03046FFF73DFE0121002000F049FAFFF7F1
S31508003FB0D9FEFFF793FB1DB9032C01D14E4B9F6227
S31508003FC0F8BD4FF480124B4B0E465A664FF48032BA
S31508003FD04A4B9D6A03F58053C5F300659A62C6E7A6
S31508003FE000250126C3E7002540F28D514048FCF71D
S31508003FF0DFFB2E46BBE700250226B8E7072C12D0C2
S31508004000102C12D0022C05D040F2D2513848FCF7B9
S31508004010CFFB0024344BD3F8801121F003010C4365
S31508004020C3F88041CCE70324F4E70124F2E7023C15
S31508004030052C0AD8324B195D2B4AD2F8203123F0C9
S3150800404007030B43C2F82031BAE740F20961284852
S31508004050FCF7AEFB0021EFE7A1F10904082C33D8E1
S31508004060DFE804F0050532051C32323205004FF44C
S3150800407080321D4B2349586E03F580535A664B6AA6
S3150800408043F001034B62C1035CBF1F4B5A664FF0F6
S31508004090E022136923F00403136191E74FF4803299
S315080040A0114B1849586E03F580535A664B6A23F02C
S315080040B001034B62C3035CBF134B5A664FF0E02201
S315080040C0136943F00403E7E740F23161BDE8F840BD
S315080040D00748FCF76DBB40F24D610548FCF768FBE5
S315080040E00021FEE6E144010800800050E144010891
S315080040F089440108009000500060005A0040005AA8
S31508004100DB44010800C0075000A00050093C032CFE
S315080041100AD8884B195D884AD2F8603123F0030320
S315080041200B43C2F860314BE74FF4CD618348FCF787
S315080041303FFB0021EFE7093C062C13D8DFE804F023
S315080041400419190E1212100002227B49D1F8003206
S3150800415023F007031343C1F8003231E70322F4E7DB
S315080041600422F2E740F2AD617448FCF721FB002215
S31508004170EBE70122E9E702226F49D1F8083223F07A
S3150800418007031343C1F808321AE70322F4E70422A7
S31508004190F2E740F2CD616948FCF70AFB0022EBE73B
S315080041A00122E9E74C1E082C12D8DFE804F01611A4
S315080041B018111111110F050002225F49D1F80031BB
S315080041C023F003031343C1F80031F9E60322F4E7A9
S315080041D040F2E9615948FCF7EBFA0022EDE70122C3
S315080041E0EBE7574AD2F8FC5015F080751EBFD2F897
S315080041F0FC3023F08073C2F8FC3007291CD00E2946
S315080042001CD006291CD040F216714C48FCF7D0FA8F
S3150800421000224949D1F8803023F003031343C1F83B
S315080042208030002D3FF4CCAE454AD2F8FC3043F03E
S315080042308073C2F8FC30C3E60222EAE70122E8E707
S315080042400322E6E702223C49D1F8203223F007038D
S315080042501343C1F82032B3E60322F4E70422F2E757
S3150800426040F266713548FCF7A3FA0022EBE7012213
S31508004270E9E7023C052C0AD8324B195D2E4AD2F8DA
S31508004280283123F007030B43C2F8283198E640F299
S3150800429097712A48FCF78CFA0021EFE740F2D171B2
S315080042A02648FCF785FA0021CDE5102C17D012D840
S315080042B0022C16D0072C16D040F607011F48FCF72B
S315080042C077FA00221C49D1F8603223F0070313431A
S315080042D0C1F8603274E6112CEED10222F2E701220F
S315080042E0F0E70322EEE70422ECE7102C17D012D8E9
S315080042F0022C16D0072C16D040F61F010F48FCF7E3
S3150800430057FA00220C49D1F8943223F007031343D5
S31508004310C1F8943254E6112CEED10222F2E70122BA
S31508004320F0E70322EEE70422ECE7012214E6022274
S3150800433012E600BFE14401080080005089440108E4
S3150800434000ED00E0DB440108EFF3108072B6704719
S3150800435000B962B67047EFF31180302383F31188F2
S31508004360704780F311887047024A536B0342FCD1A9
S31508004370704700BF00400950034A0179D36E23F005
S3150800438030030B43D3667047004000507047000067
S315080043902DE9F0410446264BD3F88420D006FBD4F9
S315080043A0D3F88430C3F381139C423ED0FCF77EFADF
S315080043B0012C05460BD11F4B984204D940F2FD61EA
S315080043C01D48FCF7F5F901212846FFF729FCFFF7F8
S315080043D0BBFF4FF00072194B07465A662046FFF797
S315080043E0D5FF4FF48063124E621E9340DFF8488073
S315080043F03367736E9A0103D4D6F884309B060AD5C0
S315080044003846FFF7A5FF022C0FD12846BDE8F04134
S315080044100021FFF705BCD6F884309906E9D540F2A5
S315080044200B714046FCF7C4F9E3E7BDE8F08100BF2D
S3150800443000400050005A6202E5440108006000503E
S3150800444007B518B90191FCF731FA0199064B1B78A3
S3150800445043B1064B984205D8012003B05DF804EB3A
S31508004460FFF796BF0220F8E771150020005A62028E
S31508004470704700004FF00042154B10B55A664AF6D1
S31508004480CD3314494C6C0B6404F0010488B901203F
S31508004490FFF76AFF4B68DB0704D50F4B58600B6BB9
S315080044A0D807FCD514B10B4B0C4A1A64FFF7E0FF8A
S315080044B010BD0B6B1A07FCD42022074B9A62012207
S315080044C0A3F580535A60034A936A9B06FCD5E9E72D
S315080044D00090005000400950006009503254FFFF18
S315080044E04FF0004238B5164B01465A664AF6CD33A8
S315080044F0144C154A656C236443780B205B0043F023
S315080045000103D363FFF730FF63688A7823F4F873EF
S3150800451043EA02136360CA784B7943EA0223A3602D
S315080045200A798B7943EA022323610878FFF7A2FF09
S31508004530EB0744BF054B2364FFF79AFF012038BDFC
S315080045400090005000400950004000503254FFFFD0
S315080045500F2870B5044604D940F683511348FCF772
S3150800456027F94FF00042124B12495D6E03F580534E
S315080045705A664AF6CD334E6C80200B64FFF7F4FE7C
S315080045800B6A23F00F030F2C94BF234343F00F034A
S315080045900B62F30744BF084B0B64002DA2BF4FF014
S315080045A00042064B5A66FFF763FF70BDE5440108F3
S315080045B000800050004009503254FFFF00A0005010
S315080045C0436D0B42FCD1704708B54368DA0714D52A
S315080045D08368DB0702D50369D90707D50A23502163
S315080045E08363FFF7EDFF836C9A07FCD1012200F580
S315080045F000535A6043689B07FCD408BD10B5FFF703
S31508004600E3FF042300F5805100F500520B611361A6
S315080046100B6113610B6113610B611361202341F276
S31508004620020103610023C360836041614FF4A02146
S315080046308361836541620549C36103628362C3621C
S3150800464043630365D164036310BD00BFFF3F0D03D9
S3150800465038B5174B044698420D4607D0154B984275
S3150800466004D040F263111448FCF7A2F825B9204695
S31508004670BDE83840FFF7A8BF012204F580535A6009
S3150800468040F6FF71204605F00F02FFF799FFA26377
S315080046907821FFF795FF05F001036A0748BF43F045
S315080046A00203A26C02F003029A42FAD138BD00BF97
S315080046B00000015B00000A5037450108836C1B06A1
S315080046C0FCD5C06BC0B27047836C5B06FCD54164F1
S315080046D07047836C5A06FCD54164836C1B06FCD56F
S315080046E0C06B80B2704700002DE9F04105460C46C4
S315080046F0174622B94FF402716D48FCF759F86D4B0D
S315080047009D4200F0C9806C4B9D4200F0CA8040F281
S315080047100B216748FCF74CF844B940F25A31644813
S31508004720FCF746F82046FEF7E5FE0446AB68D807D0
S3150800473044D5BC4204D240F215215D48FCF738F84E
S315080047406B6803F00108B4FBF7F35C1EFF2C04D971
S3150800475040F21D215648FCF72BF8B8F1000F2BD074
S3150800476028212846FFF72CFFAB6C99071ED1AB6CA6
S31508004770DA071DD4AE6C16F002061BD140F22A21C8
S315080047804B48FCF715F82846FFF71EFF2B6923F060
S315080047907F4343EA04632B61B8F1000F00F086807B
S315080047A031462846BDE8F041FFF752BF0526EAE73D
S315080047B00926E8E70626E6E74646E7E76B68012B9B
S315080047C004D040F23D213A48FBF7F2FFAB6DA968E9
S315080047D0DB0701F0E00148BF7F00402946D009D831
S315080047E0B9B1202938D040F27F21BDE8F0413048E0
S315080047F0FBF7DEBF602945D08029F4D107EB4703D4
S31508004800A34204D940F279212948FBF7D1FF0123B5
S3150800481008E0B7EB141F04D940F265212448FBF7DA
S31508004820C7FF10237B436401B4FBF3F3234E203BFD
S31508004830B6EBC30F4FEAC30404D240F28A211C48E0
S31508004840FBF7B6FF284634400121FFF7B9FE2C6373
S31508004850BDE8F041FFF7B4BEB7EBD40F04D940F278
S315080048606A211348FBF7A4FF0823DBE70626B4FBF7
S31508004870F6F3BB4204D240F26F210D48FBF798FFCE
S315080048803346CFE7B7EB940F04D94FF41D710848A8
S31508004890FBF78EFF0423C5E7002C7FF447AF5624A9
S315080048A040E7002C7FF442AF57243BE7BDE8F08190
S315080048B0374501080000015B00000A50F8FF7F0039
S315080048C0F8B51E46436804460D4617461BB140F622
S315080048D0FF71FFF775FE2046FFF790FEE9896B7BAF
S315080048E062690B43298A22F44C520B4322F00F02C9
S315080048F013436361A2682B7E297B22F0804222F053
S31508004900E202194311436A691143AA68A1601AB9F8
S31508004910A26842F00042A260E869002862D0A26854
S31508004920017A42EA8152A260A268817A42EA414249
S31508004930A2608288A16802F4C0420A43A260A26803
S31508004940417842EA8102A260A268417B42EAC1023A
S31508004950A260A268817B42EA0112A260A2688178FD
S3150800496042EA8122A260C2798179520242EA812210
S31508004970E260027802F0FD01012908BFE168A2F1B0
S31508004980020204BF41F00401E160012A5A495B4A68
S3150800499079D88C4275D05A498C420CBF01214FF008
S315080049A0FF3102EB411241F294414FF0020C42F8FA
S315080049B001C0427A04F580518A621AB1E26842F46B
S315080049C00062E260C27A6AB1E2684B4942F4004288
S315080049D0E260027B8C424B4902F00F0208BF4A672D
S315080049E0C1F8802047B197F8202004F5805C002A9A
S315080049F058D00122CCF820207EB304F5805013B19C
S31508004A004FF40043836596F821203B4B102A3E4914
S31508004A1058D89C4254D03A4B9C420CBF01234FF0C5
S31508004A20FF330127CF54768C3349B6F5006F374BE1
S31508004A3056D88C4252D032498C420CBF01214FF0D5
S31508004A40FF3101275F54A36D324323F4F95323F052
S31508004A501E031343A3650123836505212046FFF73B
S31508004A60F7FDAA681AB120466968FFF73DFE204699
S31508004A702978FFF7EDFDA36CDB4313F4405FFAD109
S31508004A80F8BD00218DE78C420AD01D498C420CBF27
S31508004A9001214FF0FF3102EB411242F2944184E7C3
S31508004AA00021F8E797F82210E06997F821200A43D1
S31508004AB020F009010A4342F00102CCF81C209BE7CA
S31508004AC00023AEE79C4207D00D4B9C420CBF012346
S31508004AD04FF0FF330227A5E70023FBE70021B0E7E5
S31508004AE08C4207D006498C420CBF01214FF0FF319A
S31508004AF00227A7E70021FBE70000015B00C003507F
S31508004B0000000A500090035074150020721500200A
S31508004B10134B70B5984205460C4606D0114B984281
S31508004B2003D070211048FBF743FE1CB972210E48CA
S31508004B30FBF73EFE237B802B03D176210A48FBF741
S31508004B4037FE637B032B03D979210748FBF730FE31
S31508004B50002321462846BDE870401A46FFF7B0BE36
S31508004B600000015B00000A50374501082B4B70B561
S31508004B70984205460C4641D08A212948FBF718FE7B
S31508004B8034B98C212648FBF713FE244B9D4237D0B7
S31508004B909E212348FBF70CFE637B032B03D9A72131
S31508004BA01F48FBF705FE237B802B03D0A9211C4851
S31508004BB0FBF7FEFD6369B3F1804F03D0AB211848BC
S31508004BC0FBF7F6FD238A23F400539BB2B3F5805F07
S31508004BD003D0AD211248FBF7EBFDA368013BB3F503
S31508004BE0165F03D3AF210E48FBF7E2FD00232146EB
S31508004BF02846BDE870401A46FFF762BE0029C0D0B5
S31508004C005620FEF77BFD09380828C1D840F20B1359
S31508004C1023FA00F0C307BBD5BEE700BF0000015B5F
S31508004C2037450108774B70B5984204460D4606D0BD
S31508004C30754B984203D0DC217448FBF7B9FD1DB9C2
S31508004C40DE217248FBF7B4FD6A7BAB687AB1704A1D
S31508004C50934203D9E0216D48FBF7AAFD2B69D3B12E
S31508004C60DB7BC3B1E3216948FBF7A2FD13E0694A80
S31508004C70934203D9E6216548FBF79AFD2B6953B1A0
S31508004C801A7F42B1A968644A5B7F914240F2A080CC
S31508004C90042B00F2A08063682E6923B140F6FF71E9
S31508004CA02046FFF78DFC2046FFF7A8FC22696B7BA0
S31508004CB0A97B22F087020B43134343F08003236149
S31508004CC016B32A692369117823F0F8030B43117F79
S31508004CD043EAC113117943EA4113517A43EA0113AE
S31508004CE0D17B43EA81132361E168D2E9053021F0DB
S31508004CF0F04121F4702103430B43117B527B43EAB5
S31508004D00812343EAC233E360A368EA7B23F0030303
S31508004D10134343F00103A3602EB32A69A16853889D
S31508004D2003F4C0430B43A3605179A36843EA812384
S31508004D30A3609379D079616A1B01000203F07003BE
S31508004D4000F4E06021F4772121F4EE6103430B437C
S31508004D50117A527F090301F4E04112040B4302F46D
S31508004D6070221343636263692A7B23F00F0313439C
S31508004D706361B6B12B695A89A2615A7B3AB1214A55
S31508004D8094422AD19A7B254902F00F024A67DA7BB8
S31508004D903AB11C4A94422AD11B7C204A03F00F03DD
S31508004DA01367D5E901122046FFF79EFC0521204628
S31508004DB0FFF74EFC28212046FFF702FC2B78A36359
S31508004DC0FFF7FEFBA36CDB4313F4405FFAD170BD1B
S31508004DD0042B3FF660AFEE2145E70B4A944201BF2C
S31508004DE09A7B0E4902F00F02C1F88020CFE7064AE7
S31508004DF0944201BF1B7CA2F5CE2203F00F03D367B2
S31508004E00CFE700BF0000015B00000A5037450108E4
S31508004E10002D3101809698003F4B4C0000900350BE
S31508004E2038B50D460446B0B1012816D0022816D06A
S31508004E30032803D13F23EB40DB0704D440F22D417E
S31508004E400848FBF7B5FC302001214443064B01FA1C
S31508004E5005F51D5138BDFF23EDE70F23EBE740F2BB
S31508004E60FF33E8E79C42010840D0035038B50D46A9
S31508004E700446B0B1012816D0022816D0032803D15B
S31508004E803F23EB40DB0704D440F2FE310848FBF72A
S31508004E908FFC302001214443064B01FA05F51D51CC
S31508004EA038BDFF23EDE70F23EBE740F2FF33E8E7D2
S31508004EB09C42010840E0035070B5054614460E466C
S31508004EC0FFF742FA296881EA040202EA06044C401E
S31508004ED02C60BDE87040FFF73BBA00002DE9F041B1
S31508004EE00D46174698460446002835D0012835D081
S31508004EF0022835D0032803D13F23EB40DB0704D42F
S31508004F004FF4B0711C48FBF753FC37B129462046CD
S31508004F10B8F1000F27D0FFF783FF0F21072D04EB09
S31508004F20440688BFA5F108034FEA0616134895BF3D
S31508004F30AB009B0004360C3607FA03F2994030445E
S31508004F40FFF7BAFFB7B929462046B8F1000F0DD0CA
S31508004F50BDE8F041FFF764BFFF23CEE70F23CCE798
S31508004F6040F2FF33C9E7FFF781FFD6E7BDE8F04116
S31508004F70FFF77CBFBDE8F0818C45010830C00350BF
S31508004F8010B5044618B991211F48FBF711FC237880
S31508004F901B0613F0604F03D092211B48FBF708FC51
S31508004FA0E3780F2B03D9A3211748FBF701FC01214E
S31508004FB02020FEF773FA01212120FEF76FFA01225D
S31508004FC0124B5A60227812069A606178A27842EAF1
S31508004FD001429A61FF229A6200229A631A644FF08C
S31508004FE000425A654FF0FF324FF4001103F50053A3
S31508004FF01A65074AC2F88011E3781B01DBB282F80A
S315080050001533116010BD00BFDF45010800000450CC
S3150800501000E100E02DE9F0410126C3B20728054664
S315080050200C46904606FA03F603DDEC213648FBF7F4
S31508005030BFFB1CB9ED213448FBF7BAFB236823F400
S315080050407C1323F00F031BB1F0212F48FBF7B0FBAD
S31508005050A37A1B0413F47C0F04D040F209112A48E2
S31508005060FBF7A6FBE37A1B0513F07E6F04D040F22C
S315080050700B112548FBF79CFB237B5B0513F0FE5FB2
S3150800508004D040F20D112048FBF792FB30201F4F49
S315080050901F4B617B1E65AB0000FB0575226803F19B
S315080050A0A04303F588235A602966E37AA27A1B058A
S315080050B043EA0243227B43EA425328F00302EB65A4
S315080050C02A67FFF748F97B6D33437B65237A13B16B
S315080050D03B6C33433B64637A13B1BB6B3343BB63AB
S315080050E02279A37943EA0243094A93616179E3790C
S315080050F043EA014307498B61044B56639E64BDE846
S31508005100F041FFF72EB900BFDF4501080000045043
S31508005110002004500010045010B50124C3B207281B
S3150800512004FA03F404DD40F297110748FBF740FB45
S31508005130FFF711F9054B5A6D22EA04025A659C627B
S31508005140BDE81040FFF70DB9DF450108000004501F
S3150800515070B506460C46154622B940F28E210C4813
S31508005160FBF726FB24B94FF42070FEF7C3F9044673
S315080051706D00013CB4FBF5F4064B250213EA042343
S3150800518004D040F2B3210248FBF712FBF56170BD6B
S3150800519084460108070080FF38B50C4B0446984240
S315080051A00D4604D04FF433710948FBF701FB012281
S315080051B004F580535A60EB43934003F00A03636196
S315080051C0656115B904F50054626038BD00C0055024
S315080051D084460108124B10B59842044604D040F2A2
S315080051E042411048FBF7E4FA012104F5805359605F
S315080051F040F6AA6341F20502636100230A48A360E8
S31508005200E365E26004F500522361E361E3649064B8
S315080052100348A365844204BF23656365516010BDD6
S3150800522000C0055084460108FFFF010038B52D4B24
S31508005230044698420D4604D040F269312A48FBF7E5
S31508005240B7FA2046FFF7C6FF0122A97B04F580536B
S315080052505A602A8AA368002914BF4FF48061002186
S3150800526042F0010213432A7D0B43002A14BF4FF074
S3150800527000520022A360A3681343A360AB7C5BB112
S31508005280184B9C4202BFEA7CA3F51033C3F8C82129
S31508005290E36D43F08003E3652B7B2046D5E90112D5
S315080052A043F48053E360FFF753FF6B7B0BB1102386
S315080052B063616B7D1BB1A36843F48033A360AB7D48
S315080052C01BB1A36843F40043A360EB7D2A7E1B074A
S315080052D0120503F0E04302F4E0021343A3652B78BA
S315080052E0636138BD00C0055084460108194B70B586
S315080052F0984205460C4604D040F2FA311648FBF7A8
S3150800530057FA00232146284626782370FFF78EFF92
S3150800531094F82020A38B94F821001343A27F002A37
S31508005320E27F14BF10210021002A14BF08220022A0
S31508005330002814BF0220002003430B43134343F005
S3150800534001036B652EB131462846BDE87040FFF76C
S3150800535023BF70BD00C005508446010807B5094B38
S3150800536018689A889B7900906846ADF804208DF8ED
S315080053700630FFF7B5F80C20FFF7EAF8002003B06F
S315080053805DF804FBD846010813B50024064A6846AA
S31508005390536F43F00103536700948DF80440FEF7FA
S315080053A0EBFF204602B010BD0040005030B58BB070
S315080053B06C46154D0FCD0FC40FCD0FC495E80300ED
S315080053C084E80300114BD3F84C21120314D4D3F804
S315080053D05041E4B28DF81940FEF7B4FB204480F33F
S315080053E008008DF818000A48FBF796FA6846FEF793
S315080053F09BFA00200BB030BD064B1C884FF6FF7396
S315080054009C4208BF8C24E5E7E04601080080E00FCF
S31508005410C01753020001E00F30B5094D87B001AC43
S315080054200FCD0FC42B6801A823603F238DF80530E4
S31508005430FEF78EFB6420FEF7EDFB002007B030BDBB
S31508005440084701086FF00402502110B50A480B4CB2
S3150800545012F0800FD3B21BBF03F00F03043BA3184F
S315080054601B1802F101020CBF83F8001319764C2AA7
S31508005470EED1002010BD00BF00ED00E000E100E025
S3150800548010B50446FEF760FF024B1C60FEF760FF8E
S31508005490002010BD7815002010B5FEF755FF034B08
S315080054A01C68FEF755FF204610BD00BF7815002082
S315080054B007B530B9CDE90012FFF7EEFFDDE90012B6
S315080054C030B1436823B1006803B05DF804EB1847B0
S315080054D0232003B05DF804FB0422C36A03F5805356
S315080054E01A65704710B50446C26A936C5906FCD50E
