S02B00006275696C642F72656C656173652F74666C6974655F6D6963726F5F6D6963726F5F7370656563682E06
S3150800000000100020D5070008D1070008D10700080E
S31508000010D1070008D1070008D1070008D107000852
S31508000020D1070008D1070008D1070008D107000842
S31508000030D1070008D1070008D1070008D107000832
S31508000040D1070008D1070008D1070008D107000822
S31508000050D1070008D1070008D1070008D107000812
S31508000060D1070008D1070008D1070008F9E80008F9
S3150800007005E90008D1070008D1070008351000086F
S31508000080D1070008D1070008D1070008D1070008E2
S31508000090D10700082D2D0008D1070008D107000850
S315080000A0D1070008D1070008D1070008D1070008C2
S315080000B0D1070008D1070008D1070008D1070008B2
S315080000C0D1070008D1070008D1070008D1070008A2
S315080000D0D1070008D1070008D1070008D107000892
S315080000E0D1070008D1070008D1070008D107000882
S315080000F0D1070008D1070008D1070008D107000872
S31508000100D1070008D1070008D1070008D107000861
S31508000110D1070008D1070008D1070008D107000851
S31508000120D1070008D1070008D1070008D107000841
S31508000130D1070008D1070008D1070008D107000831
S31508000140D1070008D1070008D1070008D107000821
S31508000150D1070008D1070008D1070008D107000811
S31508000160D1070008D1070008D1070008D107000801
S3150800017010B5054C237833B9044B13B1044800E095
S3150800018000BF0123237010BD3C11002000000000B1
S3150800019088CE010808B5034B1BB10349034800E0A4
S315080001A000BF08BD000000004011002088CE0108ED
S315080001B0A3F5803A704700BF174B002B08BF134BB7
S315080001C09D46FFF7F5FF00218B460F461348144A54
S315080001D0121A11F020F80E4B002B00D098470D4B41
S315080001E0002B00D098470020002104000D000D4880
S315080001F0002802D00C4800E000BF10F03BFF2000AA
S3150800020029000EF087FB10F059FD00BF000008001A
S315080002100000000000000000001000203C11002033
S31508000220B873002000000000000000000F2070478F
S31508000230082808B504D00FDC022809DC002809DDE7
S31508000240012304220921022004F0CAFD002008BD6A
S315080002500428F5D09F2106E02028F1D0402807D0B1
S315080002601028F7D18821044802F09AFD0E20EEE7FF
S31508000270012304220821E6E75C49010808B50121A3
S315080002803A2003F081F80EF0ADFABDE8084000F018
S31508000290F9B901213A2003F077B80000F0B54B1EF2
S315080002A0012B07460E468BB07CD83F4D01AC0FCDCF
S315080002B00FC40FCD0FC42B6801213A20236003F029
S315080002C063F80121292003F05FF8002301220421A5
S315080002D0032004F085FD032100230846042204F0C8
S315080002E07FFD042200230521032004F079FD052360
S315080002F08DF8043001238DF818304FF44073012E21
S3150800030001A92A484FEA871708BF8DF82360ADF878
S315080003102030039704F06AFF0D22254B1A62254AFE
S315080003201A634FF003125A6302F500325A6202F05A
S3150800033083FC0021204802F04FFC044618B1012432
S3150800034020460BB0F0BD1D4A012ED37823F03C039E
S3150800035043F03403D370D37C23F03C0343F03403D7
S31508000360D37412D10146164802F036FC0028E6D1AD
S31508000370144AD37823F03C0343F03403D370D37C78
S3150800038023F03C0343F03403D3740F4B0F4A1E701B
S31508000390002313700E4A13700E4A137001220E4B77
S315080003A01A70CDE72124CBE79C49010800C0054017
S315080003B000C70340030004005C110020041000205D
S315080003C0601100202410002066110020671100200B
S315080003D0801100206511002064110020184B73B5A8
S315080003E01B78002B28D0174D2C783CBB164A174E85
S315080003F011681748136931400143116033401549A4
S31508000400034315489160136191610094134B144995
S31508000410006802F045FC134B1B78012B07D11248E4
S3150800042000942346114A1249006802F039FC012358
S3150800043000202B7002B070BD1120FBE70220F9E7FF
S315080004406411002065110020041000200F80FFCFE2
S31508000450F07F0030741100205C110020450500086B
S31508000460441000206611002060110020241000208E
S3150800047054100020184B2DE9F0411B7804460D4610
S3150800048016461BB3154B1B7813BB154F3B78FBB9A8
S31508000490DFF8608098F800304B43B3F5006F19D841
S315080004A0104B1B780BB9FFF799FF98F800000E4B15
S315080004B0684318600D4B1C6004EB40045C600C4BF1
S315080004C000201E6001233B70BDE8F0811120FBE788
S315080004D00220F9E72120F7E76411002067110020C0
S315080004E080110020651100206C1100207811002071
S315080004F0581100206611002010B50C4C237893B1D2
S315080005000B4B186802F0F2FB0A4B1B78012B03D140
S31508000510094B186802F0EAFB0020084B2070187097
S31508000520074B187010BD0220FCE700BF65110020BC
S315080005305C11002066110020601100206711002060
S3150800054080110020F8B53B4D2B78002B42D03A4855
S3150800055011F0010F00F1100308BF1946374E384B4A
S3150800056032681C6818BF0146A2422CD2CB786FF3BA
S315080005700513CB70334B1B6803EB42038B60A31A3E
S31508000580B3F5006F0B8817D940F2FF7402F50062C5
S3150800059064F30E130B803260C37803F03003302BFC
S315080005A008D1C37C03F03003302B03D100232B7012
S315080005B0FFF7A2FF0120F8BD671EBA1A62F30E13F1
S315080005C00B803460E8E70A681F4B13430B601F4B28
S315080005D08B60E1E71E4B1B78002BEBD0C94316480E
S315080005E001F0010300EB0314E2781D01C2F30112C6
S315080005F0032A0FD1124A46591268013AC2F30A0170
S31508000600144A324042EA01124251134A52F8233040
S31508000610A360CFE7114A1268002ACBD010490848D0
S3150800062009780068B0FBF1F10B4850F823009047B1
S31508000630C0E700BF671100200410002070110020D9
S315080006406C11002068110020F07F00307411002022
S31508000650801100200F80FFCF78110020581100204C
S31508000660661100200122024BC3F8A020704700BF84
S3150800067000D003400122024BC3F8A020704700BFF8
S3150800068000E0034070B5454C8EB0264601AD0FCE4E
S315080006900FC5336814342B6006AD0FCC0FC594E82C
S315080006A00F0085E80F0001213A2002F06DFE0121B6
S315080006B0572002F069FE4FF48073394DADF81C30AF
S315080006C0384B2846039301A906AB059304F02CFA88
S315080006D0012304220321022004F082FB02210023C5
S315080006E00846012204F07CFB012304221946022055
S315080006F004F076FB042200210123022004F070FB9B
S31508000700294C2A4B4FF44870C4F8C8344FF00213EA
S31508000710C4F8C43403F58033C4F8CC341C23C4F8B5
S31508000720B43405F01FF91420FFF7A4FF05F01AF9F1
S315080007302320FFF797FF05F015F9B9212846FFF79B
S3150800074099FF03F04AFFFFF78DFF002303211A469E
S31508000750022004F045FB002302211A46084604F04D
S315080007603FFB012300221946022004F039FB002230
S3150800077001231146022004F033FB284603F0C2FE8B
S3150800078000215720C4F8C814C4F8C414C4F8CC14FB
S31508000790C4F8B41402F0F8FD0EB070BDC0490108E3
S315080007A000000A40E070720000C003400200010029
S315080007B005490A681318054883428CBF4FF0FF3273
S315080007C00B601046704700BF64100020000004202C
S315080007D0FEE7000008B500F013F8064B064A07497D
S315080007E08B4201D3FFF7E8FC52F8040B43F8040BDD
S315080007F0F6E700BF0010002090CE01083C1100204B
S31508000800044B054A9A60D3F8882042F47002C3F86C
S315080008108820704700ED00E000000008014B1868CA
S31508000820704700BF6C100020084B1B6F03F00703CE
S31508000830022B04D0032B05D0012B05D0FEE7044B71
S3150800084018687047034BFBE7034870470080004071
S315080008506C10002070100020002D310108B5FFF73C
S31508000860E3FF054B1B6FC3F303330133B0FBF3F010
S31508000870024B186008BD00BF0080004068100020C9
S315080008800048704700B4C404014B1868704700BF9D
S3150800089070100020054B1860054B1B6F03F007030B
S315080008A0032B01D1FFF7DABF704700BF7010002095
S315080008B0008000400020704700487047002D310135
S315080008C04FF094439868C0F304400C2822D8DFE818
S315080008D000F0092121212121071719211B1D1F00BD
S315080008E00F4870479B6803F04073B3F1807F13D0BD
S315080008F0B3F1007F12D00B4A002B08BF1046704791
S3150800090009487047094870470948704709487047B9
S3150800091009487047002070470848704708487047DC
S31508000920405DC60000093D000024F400C0EA21012C
S3150800093080BA8C010048E801005A620280841E00D1
S3150800094040420F004FF4004070474FF47A707047EA
S31508000950014B1868704700BF74100020D0E90003E7
S31508000960184703690068184738B50D460446B0B1FC
S31508000970012816D0022816D0032803D13F23EB40BE
S31508000980DB0704D44FF47F71084802F009FA3020D7
S3150800099001214443064B01FA05F51D5138BDFF23D5
S315080009A0EDE70F23EBE740F2FF33E8E7F4490108E8
S315080009B040E0034038B50D460446B0B1012816D0CC
S315080009C0022816D0032803D13F23EB40DB0704D4C3
S315080009D040F22B41084802F0E3F930200121444354
S315080009E0064B01FA05F51D5138BDFF23EDE70F2328
S315080009F0EBE740F2FF33E8E7F449010840D003404B
S31508000A0010B5044601213A2002F0BEFCA3782078EE
S31508000A10B3FA83F3042261785B0904F0E1F9002054
S31508000A2010BD034659789B7800780BB9FFF79CBF31
S31508000A30FFF7C0BF034659789B7800780BB9FFF7D4
S31508000A40B9BFFFF791BF000038B504784578ACB157
S31508000A50012C15D0022C15D0032C03D13F23EB40D3
S31508000A60DB0704D440F24641084802F099F93023DE
S31508000A7001225C43064BAA401A5138BDFF23EEE714
S31508000A800F23ECE740F2FF33E9E700BFF44901081A
S31508000A9040F0034070B5047805464678F4B1012C59
S31508000AA01ED0022C1ED0032C03D13F22F240D307BE
S31508000AB004D440F216410D4802F072F930235C4323
S31508000AC003F18043103403F57033E358F34003F021
S31508000AD00100AB780BB980F0010070BDFF22E5E795
S31508000AE00F22E3E740F2FF32E0E700BFF4490108CE
S31508000AF0044B054A043850F8041F43F8041B934274
S31508000B00F9D170476400004D7801004D10B5084CC6
S31508000B10237A53B9E360074B236000F085FE4FF450
S31508000B200042054B1A6001232372002010BD00BF46
S31508000B3078100020F10A000800E100E0092370B5EA
S31508000B400C460546084EC0F8103133690133336147
S31508000B5000F06CFE21462846336898470CB100F031
S31508000B6067FE002070BD00BF7810002000F060BE50
S31508000B700729F8B505460C4610EE107A10EE906A6D
S31508000B8003D9BC21044802F00BF905EB840325F8C8
S31508000B9024705E80F8BD00BF244A010807EE903A2B
S31508000BA0F8EEE70A07EE902AB8EEE70AF3EE600ACF
S31508000BB0B3EE400AFFF7DCBF07EE902A40F20003C7
S31508000BC0B8EEE70A00EE903AB3EE400AFFF7D0BF58
S31508000BD040F2000300EE903AFFF7CABFF3EE600A50
S31508000BE0B3EE400AFFF7C4BF2DE9F84F04290746BC
S31508000BF00C4693469946BDF82880BDF82C60BDF88A
S31508000C003050DDF838A003D9D721324802F0C8F8A9
S31508000C10B8F5806F03D9D8212E4802F0C1F8B6F589
S31508000C20806F03D9D9212B4802F0BAF8B5F5806F41
S31508000C3003D9DA21274802F0B3F80D9B03F50063C0
S31508000C40B3F5805F03D3DB21224802F0A9F80AF541
S31508000C500063B3F5805F03D3DC211E4802F0A0F8D9
S31508000C600F9B03F50063B3F5805F03D3DD211948B5
S31508000C7002F096F8184B0F99013E013D03EA0A4A1D
S31508000C8003EA0141C6F30906C5F3090507EB041291
S31508000C9046EA0A060D439662D5620D9A08F1FF38B0
S31508000CA003EA02434FEA093202F440521343C8F3F7
S31508000CB0090843EA0803023419F0040F07EB041283
S31508000CC018BF43F480432401536047F804B0BDE8D5
S31508000CD0F88F00BF244A01080000FF0F30B5012431
S31508000CE0002587B0CDE904540395BDF82850009433
S31508000CF0CDE90145FFF778FF07B030BD70B501248F
S31508000D00002686B0BDF82C50CDE90454CDE902562C
S31508000D10BDF82850CDE90045FFF766FF06B070BD5F
S31508000D202DE9F041072904460E4615461F469DF84B
S31508000D30208004D940F21F110B4802F031F8DDE992
S31508000D4006320C2101FB06411343C1F8B070C1F805
S31508000D50B4302A05B8F1000F03D1C1F8B820BDE8B0
S31508000D60F08142F00042F8E7244A01082DE9F041F3
S31508000D70072906460C46154698469DF8187004D964
S31508000D8040F23111214802F00BF8013DABB2B3F540
S31508000D90806F04D34FF499711C4802F001F8B8F13A
S31508000DA0070F04D940F23311184801F0F9FF072F4D
S31508000DB004D94FF49A71154801F0F2FF0C20079AEE
S31508000DC004F10E0345EA023500FB0862B84546F809
S31508000DD033504FEA4404D2F8B85007D1032101FA38
S31508000DE004F42C43C2F8B840BDE8F0810123A340BF
S31508000DF02B43C2F8B830022300FB076603FA04F453
S31508000E00D6F8B8302343C6F8B830EDE7244A0108C7
S31508000E1037B50446D0F87002062804DD0AB1212346
S31508000E20136003B030BD4B1EB3F5806FF6D20025B4
S31508000E300130C4F87002CDE900558AB22B46C1B21A
S31508000E40D4F86802FFF792FFD4F87022D4F8683213
S31508000E5002F10E0103EBC1035D60D4F87832D4F8D1
S31508000E607402591C9333C4F8781244F823200123DA
S31508000E7004EB8004520003FA02F2D4F82C3213432E
S31508000E80C4F82C32CDE74FF0FF332022C0E99C335B
S31508000E90C0F87832002100F50A7010F0BCB930B5F8
S31508000EA0D0F8744285B0062C099D04DD0DB12123C6
S31508000EB02B6005B030BD00250134C0F87442029598
S31508000EC0089DCDE900351346D0F868020A46E1B216
S31508000ED0FFF726FFEDE72DE9F0430429BDF81C507E
S31508000EE0BDF82060BDF82470DDE90ACEDDE90C8482
S31508000EF004D90CB121232360BDE8F083B5F5806FD2
S31508000F0014D8B6F5806F11D8B7F5806F0ED80CF5E2
S31508000F100069B9F5805F09D20EF50069B9F5805FF9
S31508000F2004D208F50069B9F5805F03D3002CE3D035
S31508000F302823E0E7CDE90BE8CDE9097CCDE907569A
S31508000F40BDE8F043FFF750BE30B589B00D9C0025CB
S31508000F50069401240395CDE90454BDF83050009455
S31508000F60CDE90145FFF7B7FF09B030BDD0F87832B3
S31508000F7010B503F1920150F821400221D0F87422ED
S31508000F80640000EB820201FA04F4D2F82812013B4D
S31508000F902143C2F82812C0F8783210BDF8B50021EE
S31508000FA00C250446D0F8743200F50A76DFF854C0EA
S31508000FB0D0F868028B4217DA05FB030393F8BB20C7
S31508000FC0002142F0800283F8BB20FFF7B7FD4FF4FB
S31508000FD08A72D4F86C3283F00103C4F86C3202FBCF
S31508000FE00343C4F86832F8BD05FB0107D7F8B820F3
S31508000FF056F804EB02EA0C0242EA0E02C7F8B820D9
S315080010000131D7E70000FFFF0023C0E99A037047C4
S31508001010D0F8783210B5933350F82340D0F86832B8
S31508001020033103EBC403186F890002FA01F1084380
S31508001030186710BD4FF09A4210B5D469136A1C4060
S31508001040E1070DD50121124BD961124B5069196878
S315080010500144196091695A680A445A6000F0EAFB2B
S31508001060620308D54FF48022094BDA61094A1368EE
S3150800107003F180731360230308D54FF40022044B51
S31508001080DA61044A536803F18073536010BD00BFE8
S315080010900020004D841100202DE9F04F12F1800F39
S315080010A004460D4616461F4685B001D17F2B05D04E
S315080010B0A02D11D820466119814202D105B0BDE89C
S315080010C0F08F90F900309E4202DD06700130F3E79A
S315080010D09F42B8BF0770F9E74FF0000840F20A29A7
S315080010E03346324600213A48FFF758FD3B463A4612
S315080010F001213748FFF752FD434642464146CDE9AE
S3150800110001883348CDF80090FFF70AFE40F20B231A
S31508001110304A0121CDE900322D4840F2D5122E4B36
S31508001120CDF80880FFF7FCFD01212C4B40F2D512C3
S31508001130CDE9013126480221294BCDF80090FFF769
S31508001140EFFDDFF88C80B5F5006FAB4628BF4FF48E
S31508001150006B2BF0030A4FEA5A091FFA89F922464F
S31508001160052300214046CDF80090FFF7B7FD22463B
S31508001170052301214046CDF80090FFF7AFFD002179
S3150800118002234046CDE90031CBF38F020123FFF756
S31508001190EDFDA5EB0A0501214046FFF7CFFC9F2D83
S315080011A05444D0D84DB12046611910F9013B9E42EE
S315080011B008DD00F8016C8142F7D105B0BDE8F04FB3
S315080011C0FFF7D4BC9F42B8BF00F8017CF3E700BF25
S315080011D08C1100200000A021000102200000B0218F
S315080011E000010330836D70B5012B044620D1436D91
S315080011F0012B1DD1426843699A4219D1002101F099
S3150800120087FAB0FA80F67609D4E903235A43D4E973
S315080012100D134B4361694B43B2EB830F0ADD012182
S31508001220204600F097FC054668B90025284670BD9B
S315080012300026E9E7002EF2D00121204601F068FADF
S315080012400028ECD1F1E736B10121204601F060FA19
S3150800125005460028E9D05121014801F0A1FDE5E73E
S31508001260584A0108836D70B5012B044607D0002142
S31508001270204600F06FFCB0FA80F0400970BD456D5D
S31508001280012DF4D1416943689942F0D1D0E903327E
S315080012905A43D0E90D6373434B43B2EB830FE6DC45
S315080012A0002101F035FA0028E1D12846E6E70000DA
S315080012B02DE9F04F2DED028B04468DB028B921207B
S315080012C00DB0BDEC028BBDE8F08FC16A21B13521A6
S315080012D0B14801F065FDF2E7D0ED057A076AB8EE88
S315080012E0E78A17F0010514BF4FF480634FF40063D3
S315080012F0DFEDAA0AB0F85020D0F840A008EE902AF0
S31508001300C26BBB4228EE208A02FB0AFBC66C0B970F
S315080013100A92C0F2B7800268BDF828801FFA8AF9D7
S31508001320002D40F09E8107EBD77A4FEA6A07CAF389
S315080013304F0A05232946CDE9008A9948FFF7DEFCBE
S315080013400523CDE9009AA26901219548FFF7D6FC45
S31508001350226B002A00F08F80A38E00930223194681
S315080013608F48FFF7BBFCCDE900890123A26B032157
S315080013708B48FFF7C3FCDFED890A0021B0EE600A4F
S315080013808748FFF72BFCF0EE480AB0EE480A012121
S315080013908348FFF723FCB0EE680A03218048FFF76D
S315080013A017FC324604217E48FFF706FC002640F269
S315080013B02D23324631467A480093CDE901663346F5
S315080013C0FFF7AEFC774B40F2D71201217448009321
S315080013D0CDE90166744BFFF7A3FC40F2D712022150
S315080013E0CDE90166714B6E480096FFF799FC002D12
S315080013F046D14A220321CDE901556D4B684800952F
S31508001400FFF78EFC042600254FF0010A694BF6B259
S3150800141040F2D7123146CDE9013A6148664B00954C
S31508001420FFF77EFC2B46424629465D48CDE9006516
S31508001430FFF79CFC42F202034A465146CDE9006397
S3150800144057482B46FFF792FC022120235448CDE942
S315080014500013BAB25346FFF789FC51465048FFF7C6
S315080014606DFBA06B594694F9533094F95220FFF757
S3150800147013FE002024E70123504A009302236EE757
S315080014800326C0E7B0EE600A4D48FFF7A7FBF0EE6B
S31508001490480AB0EE480A01214948FFF79FFB032195
S315080014A04748B0EE680AFFF793FB324604214448E2
S315080014B0FFF782FB05BB4FF005087F104FF00109C7
S315080014C00026B7F5806F1ADC364B40F2D71200219A
S315080014D03B480093CDE90166334BFFF721FC40F208
S315080014E0D7120121CDE90166304B35480096FFF742
S315080014F017FCD5B1022122E04FF00108DEE70023F0
S31508001500304810F8011B97FBF1F201FB127CBCF185
S31508001510000F06D1974201FB09F93FF4D0AE1746F2
S31508001520CFE701330B2BECD1C9E602214A22CDE9DC
S3150800153001551F4B22480095FFF7F2FB03210025B2
S3150800154001261C4B40F2D712CDE901361C481A4B2E
S315080015500095FFF7E5FB1FFA89F3089329462B4602
S31508001560089A1748CDE90065FFF700FCBBB2099356
S3150800157022233146CDE90063099A2B461048FFF726
S31508001580F5FBCDE905550E4F0A9B9D42BFF669AF9F
S315080015900026079657E000BFA04A01080000003859
S315080015A0B41300200E7E08000600016006070550E9
S315080015B0000005500000D02305030450F24A010834
S315080015C0A0120020E74A0108059B226807991A44D9
S315080015D0A3690B4408EE903A236B002B3ED033F8F0
S315080015E0163008EE103A069B002106EB0309A36B9A
S315080015F038469944099B01360193089B0093434654
S31508001600FFF77CFB099B18EE902A0193089B0121A2
S31508001610384600934346FFF771FB01234A46009379
S3150800162003213846FFF75AFBB0EE480A052138462B
S31508001630FFF7CEFA012338461946FFF77FFA079BCC
S315080016400B9A134407935645BEDB069B0B9A5344E5
S315080016500693059B01351344059395E740F200036D
S31508001660BFE71FFA87FA0123CDE9008A0348FFF787
S3150800167045FB0123CDE9009A65E600BFB4130020B7
S3150800168058B1031F9FED137A0020DFED136A9FED13
S31508001690136A01EB4202914200D17047D3ED017AF9
S315080016A0F8EEE77A67EE877AF4EEE67AF1EE10FA64
S315080016B003F104030CDCF4EE467AF1EE10FA48BFA7
S315080016C02120F3EE677A17EE90CA21F802CBE2E7FB
S315080016D02120F6E70000003800E07F4700E07FC7DA
S315080016E038B50022164B51EC100B0EF02BFC10A34C
S315080016F0D3E9002304460D460EF0B4FE70B90EA3D6
S31508001700D3E90023204629460EF08EFE58B9204616
S3150800171029460FF057FA00EE100A38BD47F6FF3390
S3150800172000EE103AF9E74FF6FF33F9E7AFF300801A
S315080017300000000000FCEF400000000000FCEFC0C5
S315080017400000E04070B560B3026AD30755BF4FF496
S3150800175000614FF4806102EBD273134658BF5B10E9
S3150800176091421FDA01220DE00021194E16F8015B9D
S3150800177093FBF5F405FB143068B9A34205FB02F2A6
S315080017800DD02346B3F5806FEEDCB2F5806FCCBF83
S315080017900020012003E001310B29E7D1002000F0E9
S315080017A0010070BDC36B013BB3F5806F0DD2036CAE
S315080017B0013BB3F5806F08D2002A06DD406BB0F511
S315080017C0806F8CBF00200120EBE70020E9E700BF0F
S315080017D0E74A010838B54FF09A44074D6368DA07B7
S315080017E005D54FF09A4213695B07FCD538BD5221DF
S315080017F0284601F0D5FAF1E7F44A01084FF080428D
S31508001800074B01219A664FF09A4303F580525160BF
S3150800181001F540211162034A1268DA60704700BF79
S31508001820009000408C100020FFF7E8BFFFF7D2BFFA
S31508001830FFF7D0BF704700EB81014B6A012B05DD2E
S31508001840886C0028D4BF002001207047002070470C
S31508001850002238B50546144611462846FFF7EBFF21
S3150800186000B101340132092AF6D1204638BD0000FC
S315080018702DE9F041002504462A464FF02808194F5D
S3150800188000F1240629462046FFF7D5FF90B102F15C
S315080018907E03C6F8B02144F82350736A0132B3F5C3
S315080018A0006F336828BFC7F80080B3F5806F88BF1C
S315080018B0C7F800800135092D06F10406E2D1032A8E
S315080018C00ADC08237E3204EB820204F50174A24284
S315080018D005D042F8043BFAE72822024B1A60BDE815
S315080018E0F08100BFC81400202DE9F34100EB810602
S315080018F000EB820705460C4690466846BA6CB16C02
S315080019000FF0C2F9019B13B128220C4B1A607B6AAF
S31508001910009AD31A42BF28200849086004EBC4017C
S3150800192001EB0804243445F82430736A53437B6278
S315080019300123736202B0BDE8F08100BFC81400201D
S315080019402DE9F04F24270546984608464FF0010A28
S315080019504FF0000B7A4385B005F5EA7605F5FC7974
S31508001960A2F5A277F15900293AD00E9B3468002BCC
S315080019701ADBD5F80432D0F868224FEA830C0E9B9E
S3150800198002EBC3024FF4E043D2F870E003FA0CF31B
S3150800199013EA0E0F08D14FF4805303FA0CF3A34051
S315080019A043EA0E0313670139002919DD0F4A03902C
S315080019B0FFF72EFA0D4A0AFA04F3CDE900B200221F
S315080019C0D5F8044248EAC31343EA041311460398B8
S315080019D043F00803FFF763FA0398FFF7C7FA03987B
S315080019E004364E45BED105B0BDE8F08FC8140020B8
S315080019F0F0B5D1F878620446062E0D4685B004DDAA
S31508001A002122114B1A6005B0F0BD11460393FFF76A
S31508001A1012FF771C039B88B1D4F80412D5F8680224
S31508001A2000EBC6008E004FF48051B14004EB8206ED
S31508001A30D6F8D461B140866F31438167294620467E
S31508001A400097FFF77DFFDEE7C8140020F7B5D1F849
S31508001A5074420546072C0E461F4604DD2122144B08
S31508001A601A6003B0F0BD1146FFF7E5FEB8B10C23C6
S31508001A70D6F8681203FB0411802405EB8203D3F819
S31508001A80D431D1F8B4009C40D5F8043244EA0314A2
S31508001A9044F00E0404FA07F30343C1F8B4304FF0D8
S31508001AA0FF333146009328460623FFF749FFD8E758
S31508001AB0C814002013B50A460446016B68460FF0A1
S31508001AC0E3F8009A002ADEBF28210B4B1960019B18
S31508001AD013B12821084B1960A36BA263012B1EBF03
S31508001AE02821054B1960236B93FBF2F3626D236380
S31508001AF05343E36502B010BDC814002070B5044610
S31508001B000D462422002104F148060FF084FB242206
S31508001B10002130460FF07FFB2422002104F16C00DF
S31508001B200FF079FB4FF4A272002104F190000FF038
S31508001B3072FB04F5EA70242200210FF06CFB0123E6
S31508001B40C4F804522434B44202D044F8043BFAE7F9
S31508001B5070BD00002DE9F04FD0E915962DED088BE4
S31508001B60436CADF6043D2193036C25911793036DE1
S31508001B7090ED17AA1893C36CD0ED18AA1993436968
S31508001B8090F848200993436804460A93DDE9093129
S31508001B9093FBF1FB03681A93C368229303692393A3
S31508001BA0436B1093836B0B93C3690D93036A12936C
S31508001BB083682D93036B2693C36B1D93C36A279380
S31508001BC0836928931A9B012B0CBF00212121A54B61
S31508001BD0196032B9DDE9183213431EBF2122A14B21
S31508001BE01A6040F20003ADF8CC30ADF8CE300BF0F9
S31508001BF001030C93C3F102031493259BCDF8A8B0F7
S31508001C0093B1279A1D9B13430C9A03F00303002AEA
S31508001C1040F06482289A26990A4302F00102134387
S31508001C2002D021228F4B1A608F48FFF7EDF90A9BE5
S31508001C30239A002102FB03F5229B129A05FB03FA5D
S31508001C40099B36A802FB03F70D9B07FB03F8FFF772
S31508001C5055FF0221B8A8FFF751FF01210DF59D6038
S31508001C60FFF74CFF12980D9943900A9842918446C3
S31508001C702198179900FB0CF069434C900D984B91ED
S31508001C8041434D9110991A9B45910B993F93469163
S31508001C9061460A9B0122409300234E43199905FB8E
S31508001CA009F549423C911899499249423D911A9938
S31508001CB04A934492CDF80C15CDF820A1CDF804B17D
S31508001CC04E954F96CDF830851299CDF83825CDF832
S31508001CD02025109ACDF81C15CDF844350999CDF86C
S31508001CE02425CDF848350B9ACDF84C350C9BCDF804
S31508001CF010C5CDF834B5CDF814B5CDF81805CDF81E
S31508001D003C75CDF84015CDF82825BBB9149B0DF5C3
S31508001D10A6629BFBF3FB0C9BCDF804B1CDF814B57A
S31508001D20022B1CBF1168149803F101031CBF91FB19
S31508001D30F0F11160092B02F10402F1D10DF59D694C
S31508001D4036AA4FF0000A17462126C846454D514681
S31508001D503846FFF770FD40B1536AB3F5806F03D874
S31508001D60936CB3F5006F00D32E6051464046FFF7DB
S31508001D7062FD50B1D9F82430B3F5806F04D8D9F88C
S31508001D804830B3F5006F00D32E600AF1010ABAF1A4
S31508001D90090F09F1040902F10402D8D1314B1D6873
S31508001DA0002D40F00B840B9A099B012153430DF536
S31508001DB09D6002223093FFF797FD109A229B0895A3
S31508001DC09B1A199A1F951344179A93FBF2F30B9AC9
S31508001DD02E93239B9B1A189A1344219A93FBF2F38A
S31508001DE02F930C9B002B0CBF052301230BEE103AF7
S31508001DF00CBF062302230BEE903A40F2002309EEAD
S31508001E00103A089B129A934280F23084219A1899C4
S31508001E105343189A0B989A1ACB1A23EAE373139327
S31508001E20239B13999B1A9842D4BFC1EB0001C1EBBF
S31508001E300301002A1B91C0F255812F9A08999842EE
S31508001E40C8BF0A4613462093089A209B4FF00008FD
S31508001E509B1A0133002BD8BF28220E93DCBF014BF7
S31508001E601A6003E0C8140020CC1400200D9B984586
S31508001E7080F2F783179B109903FB08F9199BA9EBC6
S31508001E800302A3EB0909229B29EAE9799B1A9942DD
S31508001E90D4BFC9EB0101C9EB0301002A0F91C0F2B7
S31508001EA023812E9A10999942C8BF42461192119BD6
S31508001EB036A9A3EB08070137002FDCBF28228F4B72
S31508001EC00DF5DE60D8BF1A604FF402720FF07CF988
S31508001ED04FF402720DF59D610DF6F8000FF074F9D6
S31508001EE00E9B0DF5DE60CDF82437CDF82C391B9BFB
S31508001EF0CDF82077CDF83037CDF838390F9BCDF8A7
S31508001F002879CDF82C37CDF83439FFF7A1FC03280A
S31508001F1005D8DDF84437B3F5006FC0F0EB80032130
S31508001F200DF5DE60FFF787FC002800F0E38004214A
S31508001F300DF5DE60FFF77FFC002800F0DB80DDF89A
S31508001F404827DDF8441734A80EF09EFE359B13B1DA
S31508001F5028226A4B1A60349BDDF824279A1A002A2D
S31508001F60BEBF2821654A1160DDF820275343B3F523
S31508001F70806F40F2BC80179A0F9B394693FBF2F5A7
S31508001F8002FB1533002B18BF013534A82A460EF07C
S31508001F907BFE119A359B2946D31AA3EB080701370E
S31508001FA00DF5DE601193CDF82879CDF82077FFF787
S31508001FB081FD29460DF6F800FFF77CFD349B0422C7
S31508001FC003210DF5DE601593FFF78EFCDDF8243747
S31508001FD0B3F5806F02D92822484B1A600DF5DE60EA
S31508001FE0FFF736FC032804D8DDF84C37B3F5006F45
S31508001FF01AD305210DF5DE60FFF71DFC58B1062141
S315080020000DF5DE60FFF717FC28B1062205210DF550
S31508002010DE60FFF769FC0DF5DE60FFF719FC0428A2
S31508002020C2BF2822354B1A600DF6F800FFF710FCE0
S31508002030032804D8DDF84C39B3F5006F1AD3032109
S315080020400DF6F800FFF7F7FB58B104210DF6F80076
S31508002050FFF7F1FB28B1042203210DF6F800FFF77C
S3150800206043FC0DF6F800FFF7F3FB032882BF28228E
S31508002070224B1A6005210DF6F800FFF7DCFB002855
S3150800208000F0A382DDF85429B2F5006FC0F09D82F6
S3150800209092FBF5F305FB132212B12821174A1160AA
S315080020A016492E46D1F800C000218E46DDF83029A3
S315080020B0CDF854396A43CDF83029B3F5006F1FD3EC
S315080020C003F00101002903EBD3731CBF86464FF0CA
S315080020D0280C01465B1052007600EEE7002B7FF4D1
S315080020E0A0ADA1E5089BAEE6CDF84480DFE63D4607
S315080020F0012364E701233D4615936FE7C8140020C2
S31508002100BEF1000F02D0C748C0F800C019B1CDF81B
S315080021105439CDF83029013E0DF5DE60FFF798FBFE
S31508002120032840F2C98201210DF5DE60FFF783FB23
S3150800213010B92822BB4B1A6001230E9ACDF818371E
S315080021409A42CDF8203900F0BC8201270DF5DE60F1
S31508002150FFF77EFB032882BF2822B24B1A60DDF800
S315080021600037089A0DF5DE601344CDF80037DDF820
S31508002170FC36139A4344CDF8FC36DDF80C37134485
S31508002180CDF80C37DDF80837089A4B44CDF80837F0
S31508002190DDF808391344CDF80839DDF80439139AFF
S315080021A04344CDF80439DDF814391344CDF814390D
S315080021B0DDF810394B44CDF81039FFF759FB0DF609
S315080021C0F800FFF755FB0A9B002F06BF9846012328
S315080021D04FF001080B9A3193139B09FB0239099BAF
S315080021E003FB09F32B932A9B03FB08F329935B0054
S315080021F02C9300231693169B1A9A934280F22D82EB
S315080022002B9ACDF8F036CDF8F838269B134424934C
S3150800221000231F461C93319B9F4280F21B82CDF8F8
S31508002220F476CDF8FC782FB1B8F1010F1EBF28223D
S315080022307C4B1A60DFF8F491DFED7B9A4846FEF78F
S3150800224022FE0C9BB8EECA8AF8EEEA8A002B40F00A
S31508002250BE8140F20023F0EE490A00EE103A0C99CE
S31508002260D9F86802FEF784FC28EE298AF3EE480AB4
S315080022700121B0EE600AD9F86802FEF779FCF3EEA0
S31508002280680A0221B0EE600AD9F86802FEF770FC07
S31508002290002213460DF5DE6151F804CB0133486C74
S315080022A0092B00FB0C22F7D1DDF8F0C85D480DF5C7
S315080022B0DE6306900CF1120053F82000DDF8EC18E6
S315080022C0059001F1120053F82000DDF8E8E80490C3
S315080022D00EF1120053F8200003EB8C0C0390BCF8A7
S315080022E0240003EB81010290898C03EB8E03019194
S315080022F09B8C2D994D4800930A4401230021D0F860
S315080023006802FEF7E8FD002213460DF6F80151F8BB
S3150800231004CB0133486C092B00FB0C22F7D1DDF8FE
S31508002320F8CADFF800910DF6F803CDF818900CF10D
S31508002330120053F82000DDF8F41A059001F1120096
S3150800234053F82000DDF8F0EA04900EF1120053F875
S31508002350200003EB8C0C0390BCF8240003EB8101EE
S315080023600290898C03EB8E0301919B8C2899149813
S31508002370DFF8B8A0009302FB00121BEE103A012109
S31508002380DAF86802FEF7A7FD149A099B149993FBDD
S31508002390F2F39AB21E92309ACDF8189092FBF1F2A7
S315080023A0CDE9043201230393BDF83C3002210293A0
S315080023B0BDF86C30249A01931E9B0093DAF86802E4
S315080023C01BEE103AFEF787FD1D9B002B00F01781C8
S315080023D01C9A9A181D9B0321002B1E9B08BF0123DC
S315080023E0CDE900391BEE903ADAF86802FEF7ACFD43
S315080023F01E9B1C99279ADFF834A00093CDF8049009
S315080024000A441BEE903A0421DAF86802FEF79CFDAE
S31508002410B8F1010F0CDD41465046024AFEF7F8FCBA
S3150800242006E000BFC814002000000038CC140020C5
S31508002430BBF1010F04DD5946AD4AAE48FEF7E8FC8C
S315080024404FF0000ADFF8A892AB4B4121AB4AA948E6
S31508002450CDF80490CDF800A0FEF721FD4A4629469E
S31508002460A448FEF7D5FC4A460E99A248FEF7D0FCCA
S315080024704A4615999F48FEF7CBFC4A460F999D4850
S31508002480FEF7C6FC4A461B999A48FEF7C1FC40F27D
S31508002490CD119B4B9B4A9748CDE900A9FEF7FFFC57
S315080024A05346072293490DF5DE60FFF7CFFA5346E8
S315080024B040F2D711944A8F48CDE900A9FEF7EFFC00
S315080024C08C48FEF753FD042202218A48FEF7A0FD38
S315080024D0062388491A460DF5DE60FFF789FA85480E
S315080024E0FEF744FD0623052282490DF5DE60FFF757
S315080024F07FFA4FF0F87340F2D711844A7D4800936B
S31508002500CDF804905346FEF7CAFC142305227949F0
S315080025100DF6F800FFF79AFA002E72D133464121DC
S31508002520CDE90069754A7348FEF7B9FC7148FEF7AC
S315080025301DFD072304226F490DF5DE60FFF758FAE3
S31508002540062304226B490DF6F800FFF751FA69488D
S31508002550FEF70CFD0723032266490DF6F800FFF780
S3150800256047FA0623032263490DF5DE60FFF740FAB2
S315080025706048FEF7FBFC012202215E48FEF748FD93
S31508002580072302225B490DF6F800FFF731FABBF183
S31508002590010F02DD5748FEF7E9FC062301225549DB
S315080025A00DF5DE60FFF724FAB8F1010F02DD514898
S315080025B0FEF7DCFC4E4B1B68CBB31D4628460DF6D2
S315080025C0043DBDEC088BBDE8F08F0026A4E5B0EE0F
S315080025D0490AD9F868020021FEF7FAFA28EE290A0C
S315080025E0D9F86802B3EE400A0121FEF7F1FAB3EE14
S315080025F0680A0221D9F86802FEF7EAFA48E633AA19
S31508002600E8E64A4631463B48FEF702FC8023DDF8F9
S31508002610E02A41219340CDE900A9384A354843F0DC
S315080026201F03FEF73CFC3348FEF7A0FC7EE7259B1C
S3150800263063B13048FEF7B2FC249B299A013713444C
S3150800264024932C9A1C9B13441C93E4E51F9B01338B
S315080026501F93F1E7169B0133CCE5119B03F10108A3
S3150800266004E4209B01330893FFF7CBBB259B204D41
S315080026708BB1FEF77BFA0D9B1A9909985943129B61
S3150800268094F92420594394F928304143A069FEF768
S3150800269003FD2D6892E70B9B109959430D9B5943EF
S315080026A0129B5943099B59431F9B91FBF3F17729C9
S315080026B0DCBF21232B60ECE70E9B012B12D00027F1
S315080026C04DE5012F0AD00E9F0F9B012B03D01B9BB4
S315080026D0012B7FF43BAD002F3FF438AD2822044B85
S315080026E01A6032E5012F4FF00007EDD12EE500BF45
S315080026F0C8140020CC1400203C2E09000000045009
S315080027000EBC0400060001600607055005030270AA
S315080027102DE9F04F2DED048B436CB9B02393036C70
S3150800272090ED178A2493036DD0ED188A2593C36C10
S315080027304669269303682E93C3681593036909931C
S3150800274043681693436B0A93836B0793C36927936E
S31508002750036A1793436A1893836A199383682893BD
S31508002760036B2993C36B1A93C36A2A9383692A9ABC
S315080027702B93002337931A9B1A4312F0010540F056
S315080027801E82289B2B9833430343299802F00302A1
S31508002790034303F00103134301BF06EBD6734FEA65
S315080027A0630A01230D93079B1CBFB2460D95B3F52B
S315080027B0806F00F306820A9BB3F5806F00F30182EF
S315080027C0099B0AFB03F3B3F5006F219380F0F981A7
S315080027D0079B03FB0AF3B3F5006F229380F0F181A0
S315080027E0079BB3F5806F00F2EC810A9BB3F5806F07
S315080027F000F2E781002900F0DC81199B189A7F3BDB
S3150800280018BF0123803218BF012330930D9B179AF6
S31508002810002B14BF0523012309EE903A279B4FF09E
S31508002820000973435343159A3193099BCDE91199CE
S315080028305343169ACDF87C9053433293079B0A9AD2
S315080028407343209353433393179BCDF86C9073438C
S315080028502F9340F2002309EE103A129B2E9A9342C8
S3150800286080F2A581269B0E935B420B931B9B1D93BF
S315080028700023139354E1089BA348002B0C9BACBF81
S315080028804FF0000B9B46089BF0EE490A23EAE374D7
S31508002890DDE907321344099A00219A42DBBF134641
S315080028A00C9A079F9F184FF48A73119AA7EB0B0788
S315080028B003FB020040F2002300EE103A1C90FEF7DC
S315080028C057F9F0EE480AFAEEE80AF3EE600A012133
S315080028D0B0EE600A1C98FEF74BF9F8EEE80AF3EE3C
S315080028E0600A1C98B0EE600A0221FEF741F9189BAF
S315080028F01C98803303D1199B7F2B00F04481DDEDB2
S31508002900187AF8EEE70AF3EE600A0321B0EE600AD9
S315080029101C90FEF72DF9DDED197AF8EEE70AF3EECD
S31508002920600A1C98B0EE600A04213490FEF720F97C
S31508002930309B34981E9301231C932C9B169A289936
S3150800294004FB02320124219B1FFA8AF80493109B88
S31508002950BFB20A44CDE90083002119EE903ACDE9C9
S315080029600274CDF814A03490FEF73EF92D9B2999F0
S3150800297006FB0B32229B3498CDE90343109B0A448D
S31508002980CDE90083214619EE903ACDF814A00297B6
S31508002990FEF72AF91A9B3498002B40F014810D9BF8
S315080029A037AA002B14BF062302234FF0010B02217E
S315080029B0009435933490FEF791F90321359B2A9AB2
S315080029C03498CDF80080FEF789F919EE903A04217B
S315080029D00F9A3498CDE904AACDE902BBCDE9008B5C
S315080029E00024FEF701F940F22D23224621463498A9
S315080029F00093CDE901442346FEF792F9434B40F292
S31508002A00D712594634980093CDE90144404BFEF756
S31508002A1087F940F2D71202213E4B3498CDE901449A
S31508002A200094FEF77DF91C9B1E9AA34214BF234609
S31508002A304FF04F6382EA0B02CDE9013240F23E23A2
S31508002A403498009340F2D712334B03211E90FEF7B9
S31508002A5067F91C9B1E98002B00F099804FF04F6376
S31508002A6040F2D512CDE9004304212C4BCDF808B02D
S31508002A701C90FEF755F904231C980024424621466B
S31508002A80CDE9003423464FF002081C90FEF76EF994
S31508002A901123CDE900830123109A19461C98FEF7E5
S31508002AA065F922233A464146CDE900831C9801235D
S31508002AB0FEF75CF921461C98FEF740F8119B239A0D
S31508002AC083F001031193149B013314930F9B334432
S31508002AD00F930C9B9B1A0C93089B13440893149B07
S31508002AE0179A9342FFF6C7AE139B249A01331393A2
S31508002AF00B9B13440B930E9B9B1A0E932F9A1D9BAD
S31508002B0013441D930CE000BF481700200E7E0800F2
S31508002B1006000160060705500506027003040770E3
S31508002B20139B279A934234DA0B9B1699002B0E9B1C
S31508002B301F98B8BF1A46099B159C01FB03F30B990E
S31508002B40A8BF002221EAE17101FB030315992C9322
S31508002B500E9B0B44DDE90A1001440A988C42C8BF53
S31508002B6003469B1A9BB21093209B02FB03931D9A64
S31508002B702D932B9B13440F93259B0C935B42089331
S31508002B8000231493ABE700231E931C93D5E6032377
S31508002B9073E7129B319A013312931B9B13441B93C1
S31508002BA0329A1F9B13441F93339B994455E6FDF7AE
S31508002BB0DDFF284639B0BDEC048BBDE8F08F212532
S31508002BC0F7E72825F5E70D9B4446002B14BF062397
S31508002BD002231A9AE9E600BF38B5124B05461B7858
S31508002BE0DBB1E0B101F043FB0F4A00231146147B29
S31508002BF054B92B6001251A0101EB03131D738C5080
S31508002C0001F03BFB204638BD0133082B02F11002C8
S31508002C10EDD101F032FB0548F5E70548F3E705482D
S31508002C20F1E700BFF01A002070190020048000F0B8
S31508002C30028000F0018000F0154B13B518680023D8
S31508002C4001908DF8043001F012FB124B1C7824B168
S31508002C5001F013FB104802B010BD01221A7001F0F2
S31508002C600CFB0E4B01A81C731C7783F82C4083F8C9
S31508002C703C4083F84C4083F85C4083F86C4083F80A
S31508002C807C4008238DF8073002F0FAF82046E2E780
S31508002C902E4B0108F01A0020038000F0701900205E
S31508002CA0F8B50D4D2D7885B1072810DC0B4D0601BA
S31508002CB005EB0014277B67B1AB510025069BA56081
S31508002CC0636002F027F92846F8BD0548FCE7054881
S31508002CD0FAE70548F8E700BFF01A00207019002047
S31508002CE0028000F0018000F0078000F00A4A08B56B
S31508002CF0127852B107280AD8084A02EB00131B7B40
S31508002D003BB102F089F9002008BD0548FCE70548F3
S31508002D10FAE70548F8E700BFF01A00207019002006
S31508002D20028000F0018000F0078000F02DE9F843EA
S31508002D30174B1F6D5B6D1F4000D5FEE7012600256A
S31508002D40144CDFF85480DFF85490374217D02368C4
S31508002D50C8F850609BB1A168284601316268A16035
S31508002D609847637B012B0AD148B909EB45131A7BAF
S31508002D7060F341021A731A7F60F341021A7701352C
S31508002D80082D4FEA460604F11004DED1BDE8F883A3
S31508002D90000004407019002000200440F0190020AB
S31508002DA0FEE74FF04023D3F88420D206FBD4D3F8AD
S31508002DB08400C0F38110704738B50F4B0546D3F829
S31508002DC080300C4603F00303012B09D0022B0FD0E9
S31508002DD00A4840F64571FFF7E3FF0023184602E06C
S31508002DE0FDF722FD0E2305B1286004B1237038BD16
S31508002DF0FDF766FD0723F6E700800040324B010821
S31508002E0038B5194B0546D3F820310C4603F00703AD
S31508002E10013B052B20D8DFE803F0030B130F171B24
S31508002E20FDF7FCFC052305B1286004B1237038BD05
S31508002E30FDF72AFD0323F6E7FDF742FD0723F2E730
S31508002E40FDF73AFD0223EEE7FDF7E8FC0623EAE77D
S31508002E50FDF71AFD0423E6E7044840F6BE71FFF7BE
S31508002E609FFF00231846DEE700800040324B01082A
S31508002E7038B5154B0546D3F828310C4603F0070339
S31508002E80013B032B17D8DFE803F0020E120AFDF701
S31508002E90C5FC052305B1286004B1237038BDFDF7CC
S31508002EA00FFD0723F6E7FDF7EFFC0323F2E7FDF72F
S31508002EB003FD0223EEE705484FF45D61FFF770FF57
S31508002EC000231846E6E700BF00800040324B0108A1
S31508002ED0F7B50024154B0194D3F88051074605F041
S31508002EE00305022D0E4614D0032D0DD0012D15D144
S31508002EF0214601A8FFF784FF10230FB1019A3A6013
S31508002F0006B1337003B0F0BDFDF7DAFC0723019074
S31508002F10F3E7FDF7D1FC2B460190EEE741F2E2011B
S31508002F200348FFF73DFF2346E7E700BF0080004060
S31508002F30324B0108002337B50193184B0546D3F8E1
S31508002F4020320C4603F00703013B032B1ED8DFE8AB
S31508002F5003F0020E1318002101A8FFF789FF1223B8
S31508002F600DB1019A2A6004B1237003B030BDFDF794
S31508002F70A7FC07230190F3E7FDF7E4FC0A23019079
S31508002F80EEE7FDF7E5FC09230190E9E740F69E51D7
S31508002F900348FFF705FF0023E2E700BF0080004073
S31508002FA0324B010838B5124B0546D3F840310C466A
S31508002FB003F00303022B0BD0032B0DD0012B0FD1EB
S31508002FC0FDF7C0FC0A2305B1286004B1237038BD9B
S31508002FD0FDF7BEFC0923F6E7FDF7B7FC0C23F2E77D
S31508002FE0044840F6EC71FFF7DBFE00231846EAE7D3
S31508002FF000800040324B0108002337B50193184B77
S315080030000546D3F860320C4603F00703013B032B51
S315080030101FD8DFE803F0020E1914002101A8FFF7F4
S31508003020EFFE10230DB1019A2A6004B1237003B094
S3150800303030BD002101A8FFF7B5FF1123F2E7FDF720
S315080030403FFC07230190EDE7FDF736FC02230190CC
S31508003050E8E740F633610348FFF7A2FE0023E1E7FD
S3150800306000800040324B0108002337B50193184B06
S315080030700546D3F894320C4603F00703013B032BAD
S315080030801FD8DFE803F0020E1914002101A8FFF784
S31508003090B7FE10230DB1019A2A6004B1237003B05C
S315080030A030BD002101A8FFF77DFF1123F2E7FDF7E8
S315080030B007FC07230190EDE7FDF7FEFB02230190CD
S315080030C0E8E740F666610348FFF76AFE0023E1E792
S315080030D000800040324B010873B500240F4B019461
S315080030E0D3F87032064603F00303012B0D4607D0CA
S315080030F0022B11D040F691610948FFF751FE04E012
S31508003100214601A8FFF74EFF11240EB1019B33603B
S3150800311005B12C7002B070BD1524F6E7008000409A
S31508003120324B010838B5154B0546D3F800320C4624
S3150800313003F00703013B032B18D8DFE803F0020A64
S315080031400E12FDF7FFFB0A2305B1286004B12370B0
S3150800315038BDFDF7FDFB0923F6E7FDF7F6FB0C2363
S31508003160F2E7FDF77BFB0F23800AEDE7044841F2FF
S315080031709811FFF715FE00231846E5E70080004082
S31508003180324B010838B5154B0546D3F808320C46BC
S3150800319003F00703013B032B18D8DFE803F0020A04
S315080031A00E12FDF7CFFB0A2305B1286004B1237080
S315080031B038BDFDF7CDFB0923F6E7FDF7C6FB0C2363
S315080031C0F2E7FDF74BFB0F23800AEDE7044841F2CF
S315080031D0CC11FFF7E5FD00231846E5E7008000401F
S315080031E0324B010838B5124B0546D3F840320C4627
S315080031F003F00303022B0BD0032B0DD0012B0FD1A9
S31508003200FDF7A0FB0A2305B1286004B1237038BD79
S31508003210FDF79EFB0923F6E7FDF797FB0C23F2E77C
S31508003220044841F25B11FFF7BBFD00231846EAE7A5
S3150800323000800040324B010838B5124B0546D3F8DA
S3150800324060310C4603F00303022B0BD0032B0DD081
S31508003250012B0FD1FDF776FB0A2305B1286004B1CF
S31508003260237038BDFDF774FB0923F6E7FDF76DFB00
S315080032700C23F2E7044841F21A01FFF791FD0023F7
S315080032801846EAE700800040324B010870B505464B
S3150800329014460E4600F0E4FF296881EA040202EAB1
S315080032A006044C402C60BDE8704000F0DDBF00000D
S315080032B0B0F5207F10B52ED009D8B0F5007F24D000
S315080032C003D868B1B0F5C07F0AD000241BE0B0F57A
S315080032D0607FFAD1124BD3F88040C4F3011412E090
S315080032E00F4B1C6F230B13F00E0FC4F303340AD0D5
S315080032F0032C08D0072C06D00F2C04D04FF41971D4
S315080033000848FFF74DFD601C10BD054BD3F89040EB
S31508003310C4F30464F7E7024B1C6FC4F38024F2E796
S3150800332000800040324B01084FF480320F4B70B5D5
S315080033309A66064600200D46FFF7BAFF41F6713237
S315080033400B4B7043DC690B49DA635A68884204F40C
S31508003350803422F4401203D9012D18BF42F480129A
S315080033605A600CB10022DA6370BD00BF00900040BD
S3150800337000000340005A620208B5FDF781FABDE86D
S3150800338008400021FFF7D0BF70B5440905460E4630
S315080033900ED140F205310F48FFF702FD05F01F0573
S315080033A0AEB104F58053012000FA05F51D6070BD25
S315080033B0012C08D0022C08D040F20F310548FFF73F
S315080033C0EFFC0024EAE7044CE8E7044CE6E704F5DA
S315080033D00053E8E7324B01086480004068800040EB
S315080033E0002130B5802885B00446CDE9011100F0EA
S315080033F094802AD8002800F09680A0F12004A3B271
S315080034003D2B35D83D2C33D8DFE804F08D998D99BE
S31508003410A8A8A8A8A899B23FC9633F999999323232
S315080034203232323232329999996BD39932323232F8
S31508003430323232323232323232A88D8D8DCE3F3F21
S31508003440D87A50AD323232323282B0F5B06F00F0EF
S315080034508F8030D8B0F5207F71D00FD8B0F5C07FF7
S3150800346061D0B0F5007F61D0B0F5807F00F085802F
S3150800347040F25A415448FFF793FC51E0B0F5607F9B
S3150800348067D00DD8B0F5407FF2D1FDF7E7F90446CD
S315080034904FF42070FFF70CFFB4FBF0F040083EE055
S315080034A0B0F5806F5AD0B0F5A06FE1D1002101A820
S315080034B0FFF740FD34E0B0F5106F75D016D8B0F5BB
S315080034C0E06F76D00AD8B0F5C06F68D0B0F5D06F87
S315080034D0CED1002101A8FFF725FE21E0B0F5F06F57
S315080034E0C6D1002101A8FFF7A7FE19E0B0F5406F85
S315080034F039D00AD8B0F5206F60D0B0F5286FB7D1AB
S31508003500002101A8FFF7E8FD0AE0B0F5486FAFD142
S31508003510002101A8FFF7A8FD02E0FDF785F9019053
S31508003520019805B030BDFDF799F9F8E7FDF77CF984
S3150800353005462046FFF7BCFEB5FBF0F0EFE7FDF7C2
S315080035408DF904464FF42070FFF7B2FEB4FBF0F095
S31508003550E5E702A8FFF730FC029DEAE7002101A88B
S31508003560FFF74EFCDCE7002101A8FFF781FCD7E74F
S31508003570002101A8FFF7ACFCD2E74FF0E023039146
S315080035801B695B0705D5FDF769F90390039B019352
S31508003590C6E70DF1030103A8FFF704FDF6E70021CE
S315080035A001A8FFF7FFFCBBE7002101A8FFF7EAFD2A
S315080035B0B6E7002101A8FFF715FEB1E7002101A82B
S315080035C0FFF71AFDACE700BF324B010808B58020AB
S315080035D0FFF706FF034B98429EBF4FF48032024B1B
S315080035E01A6708BD005A620200A00040002307B50A
S315080035F0B0F5807F8DF8023000F0CB8064D85D2866
S3150800360055D84C2806D82D2846D823282AD840F23B
S315080036103651AAE04D381028F9D801A353F820F0FE
S31508003620873700080F3600080F3600080F360008DF
S315080036302F3700080F3600080F3600081D38000817
S315080036404F370008EF360008113800080F36000813
S315080036500F3600080F3600080F3600080F36000828
S315080036602938000824380928D1D801A353F820F0AE
S315080036708737000887370008873700088737000824
S31508003680873700080F360008733700080F3600081A
S315080036900D370008C73700083D2800F08E803E2801
S315080036A0B5D100200DF10201FFF79CFD66E08028E8
S315080036B0ADD1604B1B6F03F00703013B032B52D8B8
S315080036C0DFE803F04F4B949CB0F5F06F75D023D824
S315080036D0B0F5B06F4DD010D8B0F5607F00F092808D
S315080036E095D3B0F5806F4ED0B0F5A06F8FD100207E
S315080036F00DF10201FFF71EFC40E0B0F5D06F62D075
S31508003700B0F5E06FCDD0B0F5C06F80D100200DF1D7
S315080037100201FFF747FC31E0B0F5206F7ED00CD8E8
S31508003720B0F5086F55D0B0F5106F7FF470AF002074
S315080037300DF10201FFF726FD20E0B0F5406F67D0D6
S31508003740B0F5486F70D0B0F5286F7FF460AF0020F1
S315080037500DF10201FFF7C0FC10E005238DF80230D9
S315080037600CE00223FAE740F28C413348FFF718FBD6
S3150800377004E000200DF10201FFF7AAFB9DF8020004
S3150800378003B05DF804FB00200DF10201FFF738FBDA
S31508003790F4E701934FF0E0231B695B0707D5FDF7B4
S315080037A05DF80D238DF803309DF80330D6E70DF14B
S315080037B0030101A8FFF7F6FBF6E700200DF1020169
S315080037C0FFF73AFDDAE700200DF10201FFF7AAFC40
S315080037D0D4E7184BD3F8003103F00303022B07D0C4
S315080037E0032B09D0012B0BD1FDF74EF80323B5E7C0
S315080037F0FDF7AEF80923B1E7FDF75CF80823ADE756
S315080038000123ABE718460DF10201FFF7D5FAB5E734
S3150800381000200DF10201FFF72BFBAFE700200DF1A9
S315080038200201FFF7E9FBA9E700200DF10201FFF706
S315080038301BFCA3E700800040324B010838B503782B
S3150800384004460F2B04D940F621217548FFF7A8FA3C
S3150800385063780F2B04D940F624217148FFF7A0FAA4
S31508003860A3780F2B04D940F627216D48FFF798FA5D
S31508003870E3780F2B04D940F62A216948FFF790FA16
S3150800388023790F2B04D940F62D216548FFF788FACE
S3150800389063793F2B04D94FF423616148FFF780FA17
S315080038A0A3793F2B04D940F633215D48FFF778FA10
S315080038B0E379032B04D940F636215948FFF770FA05
S315080038C0237A032B04D940F639215548FFF768FABD
S315080038D0637B032B04D940F63C215148FFF760FA75
S315080038E08020FFF783FE03287BD04FF480124D4BD0
S315080038F04D495A6645F60E034FF0A062C1F880306E
S315080039004A4B9A624FF4803203F580539A628A6D65
S3150800391012F48032FBD1637820781B0543EA0063F2
S31508003920A079434D0343E07843EA0043207943EA0C
S315080039300033607943EA80130B618B69E07A03F000
S3150800394000430343E07943EA8063207A43EA00634D
S31508003950607A43EA0043A07A43EA00238B61607BDE
S315080039600B6A002818BF0822217B23F00F0343EABD
S31508003970000343EA81032C4942EA03020A6231D171
S31508003980A37C8A6AA07BDB002A4043EA40131343E0
S31508003990E27B43EA021343F480338B62254B8A6D3C
S315080039A033EA0202FBD14FF08072204882620B692B
S315080039B0A57823F4700343EA05530B614FF00043DF
S315080039C08361237C0BB91C4B9A62637C1BB94FF449
S315080039D08032194B9A62E37C1BB1134B174AC3F822
S315080039E0802038BD022809D100234FF408520B6104
S315080039F013488B614FF47F41FFF748FC0A49237C43
S31508003A008A6AA07B1B062A4043EA40131343A27C1A
S31508003A1043EAC203627C43EA02438B62DBE700BFE8
S31508003A20324B0108009000400040004A0050004A0E
S31508003A30C7FFFEFE030001000060004AF1A7FFFF72
S31508003A403440004A014B93F900007047901000205B
S31508003A5010B583780446072B04D940F69F312A48C7
S31508003A60FFF79EF9E378032B04D940F6A1312648DF
S31508003A70FFF796F92378032B04D940F6A331224899
S31508003A80FFF78EF994F90130002B04DA40F6A531D8
S31508003A901D48FFF785F94FF400011C4A6378516603
S31508003AA04FF4D151022002F5B832516218494F2B12
S31508003AB048604FF0010028BF4F2301F58051486048
S31508003AC01169C903FCD4217843EA01235361E378D9
S31508003AD0A1781B0143EA012361790B43217943EA63
S31508003AE041039360E379A1791B0143EA4113617AA3
S31508003AF00B43217A43EA41035360A37A13B16FF467
S31508003B00D153536210BD00BF324B010800900040EC
S31508003B1000100240014B1880704700BF9210002029
S31508003B200029CCBF01210021FFF7FEBBB0F5207F9D
S31508003B3038B577D00ED8B0F5007F61D003D890B3EA
S31508003B40B0F5C07F2FD04FF43A71BDE838403D48F4
S31508003B50FFF726B9B0F5607FF5D13B4A4C1ED2F87F
S31508003B60FC5015F080751EBFD2F8FC3023F0807328
S31508003B70C2F8FC30032C04D940F2CB213148FFF7B8
S31508003B800FF9324BD3F8801021F0300141EA0411C5
S31508003B90C3F8801035B12C4AD2F8FC3043F0807354
S31508003BA0C2F8FC3038BD102901F1FF3404D8284B7F
S31508003BB023FA01F1CB0704D440F2A3212148FFF7E9
S31508003BC0EFF8FFF7D9FB00F047F84FF48031214BA7
S31508003BD01E4A1967136F23F4704343EA04331367C5
S31508003BE0FCF73CFE0446FFF7DCF8C0F1020120466C
S31508003BF0FFF796FF00F036F8BDE83840FFF7E6BC59
S31508003C004C1E1F2C04D94FF437710E48FFF7C8F81D
S31508003C100E4BD3F8901021F0F85141EA0461C3F82D
S31508003C209010BFE74C1E012C04D940F2E22105484A
S31508003C30FFF7B6F8054B196F21F4806141EA842134
S31508003C401967AFE7324B010800ED00E0008000403D
S31508003C50160101000090004002214FF42070FFF782
S31508003C6065BF000008B54FF4C070FFF7B9FBBDE8A3
S31508003C700840044988428CBF022101214FF4207074
S31508003C80FFF754BF80F0FA02B0F5807FF8B50C460E
S31508003C9000F065816DD85D285FD84C2806D82D2898
S31508003CA046D823282AD840F6250192E14D3810280F
S31508003CB0F9D801A353F820F0333F0008A73C0008C1
S31508003CC0A73C0008A73C0008133E0008A73C0008CC
S31508003CD0A73C0008C7410008453E00089F3D00086C
S31508003CE07B410008A73C0008A73C0008A73C000841
S31508003CF0A73C0008A73C0008074200082438092802
S31508003D00D1D801A353F820F0333F0008333F000809
S31508003D10333F0008333F0008333F0008A73C00083C
S31508003D20013F0008A73C0008D93D00083F400008AD
S31508003D303D2800F06E813E28B5D1093CE4B2032C3B
S31508003D4000F23A82A54B195DA54AD2F8403223F013
S31508003D5003030B43C2F84032B4E08028A3D18B1E7C
S31508003D60062B00F2C280DFE803F0BDAEC0C8C0C0B3
S31508003D708200B0F5F06F00F04C813DD8B0F5B06F19
S31508003D8000F0BE801DD8B0F5607F00F0AE818AD302
S31508003D90B0F5806F00F0CD80B0F5A06F83D1073CF9
S31508003DA00B2C00F2E181DFE814F0D101DF01DD011F
S31508003DB0DB01DB01DF01DF01DF01DF01DF01DF01FD
S31508003DC0E601B0F5D06F00F03A81B0F5E06FB4D0F7
S31508003DD0B0F5C06F7FF467AF093CE4B2032C00F27C
S31508003DE01181804B195D7E4AD2F8403123F00303D6
S31508003DF00B43C2F8403165E0B0F5206F00F0E3816F
S31508003E0014D8B0F5086F00F05181B0F5106F7FF443
S31508003E104AAF093C062C00F24081DFE814F0300175
S31508003E20450145013A013E013E013C01B0F5406FAE
S31508003E3000F0A381B0F5486F00F0E581B0F5286F72
S31508003E407FF431AF112C00F0FE81152C00F0FD81B6
S31508003E5040F2F3716448FEF7A3FF00226049D1F8E7
S31508003E60703223F003031343C1F870322AE00025A9
S31508003E7004264FF480370121022000F013FAFFF7D9
S31508003E807BFAFFF7E9FE594B554A1F67136F23F074
S31508003E90070333431367FCF7E1FC0646FEF781FF89
S31508003EA0C0F102013046FFF73BFE0121002000F079
S31508003EB051FAFFF7D7FEFFF789FB1DB9032C01D18D
S31508003EC04B4B9F62F8BD4FF48012484B03265A6647
S31508003ED04FF48032474B9D6A03F58053C5F300655E
S31508003EE09A62C6E700250126C3E7002540F2775106
S31508003EF03D48FEF755FF2E46BBE700250226B8E7E4
S31508003F00072C12D0102C12D0022C05D040F2BC512E
S31508003F103548FEF745FF0024314AD2F8803123F0B0
S31508003F2003031C43C2F88041CCE70324F4E70124C9
S31508003F30F2E7023CE4B2052C0AD82F4B195D284A51
S31508003F40D2F8203123F007030B43C2F82031B9E732
S31508003F5040F2F3512448FEF723FF0021EFE7A1F1D1
S31508003F600904082C33D8DFE804F0050532051C32AD
S31508003F70323205004FF48032194B2049586E03F54A
S31508003F8080535A664B6A43F001034B62C1035CBF18
S31508003F901B4B5A664FF0E022136923F004031361A2
S31508003FA090E74FF480320E4B1449586E03F5805350
S31508003FB05A664B6A23F001034B62C3035CBF104B7E
S31508003FC05A664FF0E022136943F00403E7E740F22C
S31508003FD01B61BDE8F8400448FEF7E2BE674B0108DE
S31508003FE000800040674B0108324B010800900040F2
S31508003FF00060004A0040004A614B010800C00740C3
S3150800400000A0004040F237619148FEF7C9FE002142
S31508004010E9E6093CE4B2032C0AD88E4B195D8E4AB0
S31508004020D2F8603123F003030B43C2F8603149E745
S3150800403040F252618648FEF7B3FE0021EFE7093CDD
S31508004040062C13D8DFE804F00419190E1212100012
S3150800405002228149D1F8003223F007031343C1F83D
S3150800406000322FE70322F4E70422F2E740F29761D1
S315080040707748FEF795FE0022EBE70122E9E70222E0
S315080040807549D1F8083223F007031343C1F80832FB
S3150800409018E70322F4E70422F2E740F2B7616C4816
S315080040A0FEF77EFE0022EBE70122E9E74C1E082C0C
S315080040B012D8DFE804F0161118111111110F0500B6
S315080040C002226549D1F8003123F003031343C1F8EE
S315080040D00031F7E60322F4E740F2D3615C48FEF7C5
S315080040E05FFE0022EDE70122EBE75C4AD2F8FC50BE
S315080040F015F080751EBFD2F8FC3023F08073C2F825
S31508004100FC3007291CD00E291CD006291CD040F2E9
S31508004110FC614F48FEF744FE00224F49D1F8803033
S3150800412023F003031343C1F88030002D3FF4CAAED1
S315080041304A4AD2F8FC3043F08073C2F8FC30C1E634
S315080041400222EAE70122E8E70322E6E702224249D9
S31508004150D1F8203223F007031343C1F82032B1E621
S315080041600322F4E70422F2E740F234713848FEF7F6
S3150800417017FE0022EBE70122E9E7023C052C12D8DC
S31508004180DFE804F00D0F1118110304223249D1F8A3
S31508004190283123F007031343C1F8283192E6032296
S315080041A0F4E70222F2E740F256712948FEF7F8FDD5
S315080041B00022EBE70122E9E740F28F712448FEF777
S315080041C0EFFD0021C0E5102C17D012D8022C16D00E
S315080041D0072C16D040F2C5711D48FEF7E1FD0022F6
S315080041E01D49D1F8603223F007031343C1F8603242
S315080041F068E6112CEED10222F2E70122F0E703224B
S31508004200EEE70422ECE7102C17D012D8022C16D0B1
S31508004210072C16D040F2DD710D48FEF7C1FD0022CD
S315080042200D49D1F8943223F007031343C1F89432A9
S3150800423048E6112CEED10222F2E70122F0E703222A
S31508004240EEE70422ECE7012208E6022206E600BFB2
S31508004250324B0108674B01080080004000ED00E082
S31508004260EFF3108072B6704700B962B67047EFF385
S315080042701180302383F31188704780F311887047C3
S31508004280024A536B0342FCD1704700BF0040094005
S315080042904FF04022D36E017923F030030B43D366E7
S315080042A0704770472DE9F0414FF040230446D3F894
S315080042B08420D006FBD4D3F88430C3F381139C4200
S315080042C03FD0FCF7B1FA012C05460BD11E4B98429C
S315080042D004D940F2F9611D48FEF762FD012128461E
S315080042E0FFF71EFCFFF7BCFF4FF00072184B07469E
S315080042F05A662046FFF7D5FF4FF480634FF04026F5
S31508004300621E9340DFF844803367736E9A0103D4C4
S31508004310D6F884309B060AD53846FFF7A5FF022C47
S315080043200FD12846BDE8F0410021FFF7F9BBD6F8C2
S3150800433084309906E9D540F207714046FEF730FD0C
S31508004340E3E7BDE8F08100BF005A62026B4B010843
S315080043500060004007B518B90191FCF765FA0199A4
S31508004360064B1B7843B1064B984205D8012003B08B
S315080043705DF804EBFFF796BF0220F8E7F11A002074
S31508004380005A62024FF00042144B10B55A664AF6BC
S31508004390CD3313494C6C0B6404F0010478B9012041
S315080043A0FFF76EFF4B68DB0704D50E4B58600B6BA7
S315080043B0D807FCD514B10A4B0B4A1A6410BD0B6B0F
S315080043C01A07FCD42022074B9A620122A3F58053D0
S315080043D05A60034A936A9B06FCD5EBE700900040B7
S315080043E000400940006009403254FFFF4FF0004288
S315080043F038B5174B01465A664AF6CD334FF0402278
S31508004400144C656C236443780B205B0043F001036E
S31508004410D363FFF735FF63688A7823F4F87343EAB2
S3150800442002136360CA784B7943EA0223A3600A79C8
S315080044308B7943EA022323610878FFF7A3FFEB078A
S3150800444048BF054B4FF0010048BF236438BD00BF85
S3150800445000900040004009403254FFFF0F2870B515
S31508004460044604D940F6F9411248FEF799FC4FF084
S315080044700042114B11495D6E03F580535A664AF6A0
S31508004480CD334E6C80200B64FFF7FAFE0B6A23F0DF
S315080044900F030F2C94BF234343F00F030B62F3075C
S315080044A044BF074B0B64002DA2BF4FF00042054BDB
S315080044B05A6670BD6B4B01080080004000400940F9
S315080044C03254FFFF00A00040436D0B42FCD17047F9
S315080044D008B54368DA0714D58368DB0702D503698C
S315080044E0D90707D50A2350218363FFF7EDFF836CAD
S315080044F09A07FCD1012200F500535A6043689B07CE
S31508004500FCD408BD10B5FFF7E3FF042300F580517E
S3150800451000F500520B6113610B6113610B611361A6
S315080045200B611361202341F2020103610023C3607A
S31508004530836041614FF4A021836183654162054927
S31508004540C36103628362C36243630365D164036321
S3150800455010BD00BFFF3F0D0338B5174B0446984200
S315080045600D4607D0154B984204D040F25D11144809
S31508004570FEF716FC25B92046BDE83840FFF7A8BF68
S31508004580012204F580535A6040F6FF71204605F073
S315080045900F02FFF799FFA2637821FFF795FF05F051
S315080045A001036A0748BF43F00203A26C02F0030244
S315080045B09A42FAD138BD00BF0000014B00000A40FC
S315080045C09A4B0108836C1B06FCD5C06BC0B27047BA
S315080045D0836C5B06FCD541647047836C5A06FCD530
S315080045E04164836C1B06FCD5C06B80B27047000023
S315080045F02DE9F04105460C46174622B940F202213C
S315080046006D48FEF7CDFB6D4B9D4200F0C9806C4BA3
S315080046109D4200F0CA8040F205216748FEF7C0FBBC
S3150800462044B965484FF45571FEF7BAFB2046FEF7C4
S31508004630D7FE0446AB68D80744D5BC4204D240F23C
S315080046400F215D48FEF7ACFB6B6803F00108B4FB6D
S31508004650F7F35C1EFF2C04D940F217215648FEF7E3
S315080046609FFBB8F1000F2BD028212846FFF72CFF17
S31508004670AB6C99071ED1AB6CDA071DD4AE6C16F07D
S3150800468002061BD14FF409714B48FEF789FB2846F1
S31508004690FFF71EFF2B6923F07F4343EA04632B6170
S315080046A0B8F1000F00F0868031462846BDE8F04193
S315080046B0FFF752BF0526EAE70926E8E70626E6E7F2
S315080046C04646E7E76B68012B04D040F237213A48A3
S315080046D0FEF766FBAB6DA968DB0701F0E00148BF92
S315080046E07F00402946D009D8B9B1202938D040F2F0
S315080046F07921BDE8F0413048FEF752BB602945D024
S315080047008029F4D107EB4703A34204D940F2732169
S315080047102948FEF745FB012308E0B7EB141F04D927
S3150800472040F25F212448FEF73BFB10237B436401DC
S31508004730B4FBF3F3234E203BB6EBC30F4FEAC30497
S3150800474004D24FF421711C48FEF72AFB2846344050
S315080047500121FFF7B9FE2C63BDE8F041FFF7B4BEAF
S31508004760B7EBD40F04D94FF419711348FEF718FBA9
S315080047700823DBE70626B4FBF6F3BB4204D240F275
S3150800478069210D48FEF70CFB3346CFE7B7EB940FCC
S3150800479004D940F26E210848FEF702FB0423C5E758
S315080047A0002C7FF447AF562041E7002C7FF442AF38
S315080047B057203CE7BDE8F0819A4B01080000014B01
S315080047C000000A40F8FF7F00F8B51E464368044615
S315080047D00D4617461BB140F6FF71FFF775FE2046DA
S315080047E0FFF790FEE9896B7B62690B43298A22F4FD
S315080047F04C520B4322F00F0213436361A2682B7ECF
S31508004800297B22F0804222F0E202194311436A69A9
S315080048101143AA68A1601AB9A26842F00042A260D0
S31508004820E869002862D0A268017A42EA8152A26049
S31508004830A268817A42EA4142A2608288A16802F4AB
S31508004840C0420A43A260A268417842EA8102A26095
S31508004850A268417B42EAC102A260A268817B42EA61
S315080048600112A260A268817842EA8122A260C27916
S315080048708179520242EA8122E260027802F0FD0161
S31508004880012908BFE168A2F1020204BF41F0040150
S31508004890E160012A5A495B4A79D88C4275D05A494F
S315080048A08C420CBF01214FF0FF3102EB411241F25D
S315080048B094414FF0020C42F801C0427A04F5805147
S315080048C08A621AB1E26842F40062E260C27A6AB1A8
S315080048D0E2684B4942F40042E260027B8C424B4953
S315080048E002F00F0208BF4A67C1F8802047B197F85F
S315080048F0202004F5805C002A58D00122CCF820201C
S315080049007EB304F5805013B14FF40043836596F8DF
S3150800491021203B4B102A3E4958D89C4254D03A4B4A
S315080049209C420CBF01234FF0FF330127CF54768CEE
S315080049303349B6F5006F374B56D88C4252D03249B8
S315080049408C420CBF01214FF0FF3101275F54A36D44
S31508004950324323F4F95323F01E031343A3650123BB
S31508004960836505212046FFF7F7FDAA681AB1204698
S315080049706968FFF73DFE20462978FFF7EDFDA36C31
S31508004980DB4313F4405FFAD1F8BD00218DE78C4272
S315080049900AD01D498C420CBF01214FF0FF3102EBB2
S315080049A0411242F2944184E70021F8E797F8221071
S315080049B0E06997F821200A4320F009010A4342F0EA
S315080049C00102CCF81C209BE70023AEE79C4207D0E7
S315080049D00D4B9C420CBF01234FF0FF330227A5E77E
S315080049E00023FBE70021B0E78C4207D006498C423A
S315080049F00CBF01214FF0FF310227A7E70021FBE793
S31508004A000000014B00C0034000000A40009003402C
S31508004A10F41A0020F21A0020134B70B59842054686
S31508004A200C4606D0114B984203D070211048FEF769
S31508004A30B7F91CB972210E48FEF7B2F9237B802B11
S31508004A4003D176210A48FEF7ABF9637B032B03D91A
S31508004A5079210748FEF7A4F9002321462846BDE830
S31508004A6070401A46FFF7B0BE0000014B00000A402E
S31508004A709A4B01082A4B70B5984205460C463BD01E
S31508004A808A212848FEF78CF9002C36D09D21254826
S31508004A90FEF786F9637B032B03D9A1212148FEF78C
S31508004AA07FF9237B802B03D0A3211E48FEF778F9D4
S31508004AB06369B3F1804F03D0A5211A48FEF770F950
S31508004AC0238A23F400539BB2B3F5805F03D0A72152
S31508004AD01448FEF765F9A368013BB3F5165F03D3DF
S31508004AE0A9211048FEF75CF9002321462846BDE8AF
S31508004AF070401A46FFF768BE31B98C210948FEF79F
S31508004B004FF9074B9D42C1D15620FEF76FFD0C2881
S31508004B10C0D0A0F10903DBB2012BBBD9B6E700BFB1
S31508004B200000014B9A4B0108774B70B59842044632
S31508004B300D4606D0754B984203D0D6217448FEF729
S31508004B402FF91DB9D8217248FEF72AF96A7BAB6896
S31508004B507AB1704A934203D9DA216D48FEF720F9F3
S31508004B602B69D3B1DB7BC3B1DD216948FEF718F9A0
S31508004B7013E0694A934203D9E0216548FEF710F924
S31508004B802B6953B11A7F42B1A968644A5B7F914287
S31508004B9040F2A080042B00F2A08063682E6923B13E
S31508004BA040F6FF712046FFF78FFC2046FFF7AAFC68
S31508004BB022696B7BA97B22F087020B43134343F0E0
S31508004BC08003236116B32A692369117823F0F80351
S31508004BD00B43117F43EAC113117943EA4113517A12
S31508004BE043EA0113D17B43EA81132361E168D2E9E1
S31508004BF0053021F0F04121F4702103430B43117B6A
S31508004C00527B43EA812343EAC233E360A368EA7B23
S31508004C1023F00303134343F00103A3602EB32A6969
S31508004C20A168538803F4C0430B43A3605179A36872
S31508004C3043EA8123A3609379D079616A1B01000254
S31508004C4003F0700300F4E06021F4772121F4EE61AB
S31508004C5003430B43117A527F090301F4E04112041E
S31508004C600B4302F470221343636263692A7B23F0C1
S31508004C700F0313436361B6B12B695A89A2615A7B44
S31508004C803AB1214A94422AD19A7B254902F00F0269
S31508004C904A67DA7B3AB11C4A94422AD11B7C204ADD
S31508004CA003F00F031367D5E901122046FFF7A0FCAE
S31508004CB005212046FFF750FC00212046FFF704FC9B
S31508004CC02B78A363FFF700FCA36CDB4313F4405F68
S31508004CD0FAD170BD042B3FF660AFE82145E70B4AD1
S31508004CE0944201BF9A7B0E4902F00F02C1F8802058
S31508004CF0CFE7064A944201BF1B7CA2F5CE2203F0F9
S31508004D000F03D367CFE700BF0000014B00000A403E
S31508004D109A4B0108002D3101809698003F4B4C00B4
S31508004D200090034038B50D460446B0B1012816D0A8
S31508004D30022816D0032803D13F23EB40DB0704D40F
S31508004D4040F22B410848FEF72BF830200121444356
S31508004D50064B01FA05F51D5138BDFF23EDE70F2374
S31508004D60EBE740F2FF33E8E7F449010840D0034097
S31508004D7038B50D460446B0B1012816D0022816D01B
S31508004D80032803D13F23EB40DB0704D44FF47F719C
S31508004D900848FEF705F8302001214443064B01FA7E
S31508004DA005F51D5138BDFF23EDE70F23EBE740F26C
S31508004DB0FF33E8E7F449010840E0034070B50546CB
S31508004DC014460E46FFF74CFA296881EA040202EAFD
S31508004DD006044C402C60BDE87040FFF745BA000059
S31508004DE02DE9F0410D4617469846044698B3012822
S31508004DF033D0022833D0032803D13F23EB40DB0707
S31508004E0004D44FF4B0711C48FDF7CAFF37B12946E0
S31508004E102046B8F1000F25D0FFF784FF30260F2172
S31508004E206643072D88BFA5F10803144895BFAB0054
S31508004E309B0004360C3607FA03F299403044FFF714
S31508004E40BDFFB7B929462046B8F1000F0DD0BDE819
S31508004E50F041FFF767BFFF23D0E70F23CEE740F205
S31508004E60FF33CBE7FFF784FFD8E7BDE8F041FFF74C
S31508004E707FBFBDE8F08100BFCC4B010830C00340BE
S31508004E8010B5044618B991211F48FDF789FF237804
S31508004E901B0613F0604F03D092211B48FDF780FFD5
S31508004EA0E3780F2B03D9A3211748FDF779FF0121D2
S31508004EB02020FEF769FA01212120FEF765FA012272
S31508004EC0124B5A60227812069A606178A27842EAF2
S31508004ED001429A61FF229A6200229A631A644FF08D
S31508004EE000425A654FF0FF324FF4001103F50053A4
S31508004EF01A65074AC2F88011E3781B01DBB282F80B
S31508004F001533116010BD00BFFC4B010800000440BA
S31508004F1000E100E02DE9F0410126C3B20728054665
S31508004F200C46904606FA03F603DDEC213648FDF7F3
S31508004F3037FF1CB9ED213448FDF732FF236823F407
S31508004F407C1323F00F031BB1F0212F48FDF728FF30
S31508004F50A37A1B0413F47C0F04D040F209112A48E3
S31508004F60FDF71EFFE37A1B0513F07E6F04D040F2AF
S31508004F700B112548FDF714FF237B5B0513F0FE5F35
S31508004F8004D040F20D112048FDF70AFF30201F4FCC
S31508004F901F4B617B1E65AB0000FB0575226803F19C
S31508004FA0402303F580235A602966E37AA27A1B0513
S31508004FB043EA0243227B43EA425328F00302EB65A5
S31508004FC02A67FFF754F97B6D33437B65237A13B160
S31508004FD03B6C33433B64637A13B1BB6B3343BB63AC
S31508004FE02279A37943EA0243094A93616179E3790D
S31508004FF043EA014307498B61044B56639E64BDE847
S31508005000F041FFF73AB900BFFC4B01080000044025
S31508005010002004400010044010B50124C3B207283C
S3150800502004FA03F404DD40F297110748FDF7B8FEC9
S31508005030FFF71DF9054B5A6D22EA04025A659C6270
S31508005040BDE81040FFF719B9FC4B01080000044001
S3150800505070B506460C46154622B94FF422710C481F
S31508005060FDF79EFE24B94FF42070FEF7B9F9044601
S315080050706D00013CB4FBF5F4064B250213EA042344
S3150800508004D040F2A5210248FDF78AFEF56170BDFD
S315080050905B4C0108070080FF38B50C4B0446984264
S315080050A00D4604D040F2BE210948FDF779FE0122DB
S315080050B004F580535A60EB43934003F00A03636197
S315080050C0656115B904F50054626038BD00C0054035
S315080050D05B4C0108124B10B59842044604D040F2C6
S315080050E034411048FDF75CFE012104F580535960F0
S315080050F040F6AA6341F20502636100230A48A360E9
S31508005100E365E26004F500522361E361E3649064B9
S315080051100348A365844204BF23656365516010BDD7
S3150800512000C005405B4C0108FFFF010038B52D4B58
S31508005130044698420D4604D040F25B312A48FDF7F2
S315080051402FFE2046FFF7C6FF0122A97B04F58053F0
S315080051505A602A8AA368002914BF4FF48061002187
S3150800516042F0010213432A7D0B43002A14BF4FF075
S3150800517000520022A360A3681343A360AB7C5BB113
S31508005180184B9C4202BFEA7CA3F51033C3F8C8212A
S31508005190E36D43F08003E3652B7B2046D5E90112D6
S315080051A043F48053E360FFF753FF6B7B0BB1102387
S315080051B063616B7D1BB1A36843F48033A360AB7D49
S315080051C01BB1A36843F40043A360EB7D2A7E1B074B
S315080051D0120503F0E04302F4E0021343A3652B78BB
S315080051E0636138BD00C005405B4C0108194B70B5BA
S315080051F0984205460C4604D04FF47B711648FDF7D5
S31508005200CFFD00232146284626782370FFF78EFF18
S3150800521094F82020A38B94F821001343A27F002A38
S31508005220E27F14BF10210021002A14BF08220022A1
S31508005230002814BF0220002003430B43134343F006
S3150800524001036B652EB131462846BDE87040FFF76D
S3150800525023BF70BD00C005405B4C010807B5094B6C
S3150800526018689A889B7900906846ADF804208DF8EE
S315080052700630FFF7BBF80C20FFF7F0F8002003B064
S315080052805DF804FB8C4C01084FF0402213B500244E
S31508005290536F684643F00103536700948DF8044042
S315080052A0FEF7F6FF204602B010BD000070B586B0C6
S315080052B001AA1546174B03F11006144618685968D3
S315080052C0083303C4B3422246F7D11868124B20604C
S315080052D0D3F84C21120314D4D3F85041E4B28DF814
S315080052E00E40FEF7AFFB204480F308008DF80D0052
S315080052F00A48FBF7CFFA2846FEF7A0FA002006B0C0
S3150800530070BD074B1C884FF6FF739C4208BF8C2460
S31508005310E5E700BF934C01080080E00FC017530271
S315080053200001E00F1FB50B4A01AB1068516803C3B3
S315080053301189927A19809A703F2301A88DF8053051
S31508005340FEF786FB6420FEF7E5FB002005B05DF856
S3150800535004FB00BFA74C01086FF00402502110B5EA
S315080053600A480B4C12F0800FD3B21BBF03F00F0391
S31508005370043BA3181B1802F101020CBF83F80013A3
S3150800538019764C2AEED1002010BD00BF00ED00E0D2
S3150800539000E100E010B50446FEF762FF024B1C6010
S315080053A0FEF762FF002010BDF81A002010B5FEF7C0
S315080053B057FF034B1C68FEF757FF204610BD00BF7A
S315080053C0F81A002007B530B9CDE90012FFF7EEFF4D
S315080053D0DDE9001230B1436823B1006803B05DF817
S315080053E004EB1847232003B05DF804FB0422C36AC4
S315080053F003F580531A65704710B50446C26A936C64
S315080054005906FCD50023616B1A4694F83200FFF75B
S31508005410E7FC0023E16B1A4694F83800FFF7E0FC36
S3150800542094F85030DA0706D50023616C1A4694F8CA
S315080054304000FFF7D5FC94F850309B0706D50023AB
S31508005440E16C1A4694F84800FFF7CAFCE06A0021A6
S31508005450FFF782F8208E0021FDF796FF002010BD89
S3150800546008B5C06AFFF7B4F8002008BD2DE9F04179
S315080054708AB01C4606AB06468846184617460021DB
S315080054801022109D0BF0C7FE227903460AB18DF84B
S315080054901820FB6163793046002B14BF01230223D1
S315080054A0CDE903336A4B424602936A4B2946019378
S315080054B000230093684B00F091F90646002840F057
S315080054C09880E38801212B86A3693A20EB63237D24
S315080054D085F8383023696B63237B85F83230236A75
S315080054E06B64237F85F84030A36AEB6494F8243014
