S02B00006275696C642F64656275672F74666C6974655F6D6963726F5F68656C6C6F5F776F726C642E73333759
S214000000001000203503000031030000310300001B
S214000010310300003103000031030000310300000B
S21400002031030000310300003103000031030000FB
S21400003031030000310300003103000031030000EB
S21400004031030000310300003103000031030000DB
S21400005031030000310300003103000031030000CB
S21400006031030000310300003103000031030000BB
S214000070DD350200E93502003103000031030000DF
S214000080310300003103000031030000310300009B
S214000090310300003103000031030000310300008B
S2140000A0310300003103000031030000310300007B
S2140000B03103000031030000152D0000310300005D
S2140000C0310300003103000031030000310300005B
S2140000D0310300003103000031030000310300004B
S2140000E0310300003103000031030000310300003B
S2140000F0310300003103000031030000310300002B
S21400010031030000310300003103000010B5054C38
S214000110237833B9044B13B10448AFF300800123AE
S214000120237010BD48120020000000001047030096
S21400013008B5034B1BB103490348AFF3008008BD65
S214000140000000004C12002010470300A3F5803A80
S214000150704700BF174B002B08BF134B9D46FFF799
S214000160F5FF00218B460F461348144A121A25F055
S21400017017FA0E4B002B00D098470D4B002B00D0E3
S21400018098470020002104000D000D48002802D0EA
S2140001900C48AFF3008025F0C9F82000290023F0B2
S2140001A087FB24F0E5FE00BF00000800000000000A
S2140001B0000000000010002048120020082F002039
S2140001C000000000000000000F20704708B505483A
S2140001D0012100F0A3FA23F04DF9BDE8084000F035
S2140001E019B800BF00350A000148012100F096BA90
S2140001F000350A00024B0222C3F8EC21704700BF0C
S21400020000A00046024B0222C3F8EC21704700BF54
S21400021000A0004470B5384D384E0FCD88B001AC04
S2140002200FC495E80700364D84E8070035480121DD
S21400023000F074FA30460121012400F06FFA324BC8
S214000240039301A928468DF8124001F003FF2346C8
S214000250042200210A2001F015FC22460023022178
S2140002600A2001F00FFC234604220721052001F096
S21400027009FC0422214623460A2001F003FC234BF6
S214000280AB670B236B674FF4487002F07FFD1420BA
S214000290FFF7B8FF02F07AFD2320FFF7ABFF02F06E
S2140002A075FDB9212846FFF7ADFF01F039FFFFF7CE
S2140002B0A1FF00231A4619460A2001F0E3FB00239B
S2140002C01A4602210A2001F0DDFB23460022072100
S2140002D0052001F0D7FB2346002221460A2001F024
S2140002E0D1FB284601F016FE0021A9673046696753
S2140002F000F014FA08B070BDCCB60200006204002C
S2140003000008014000350A0000127A001E1D001287
S21400031005490A681318054883428CBF4FF0FF3220
S2140003200B601046704700BF041000200000042039
S214000330FEE7000008B500F069F8064B0649074AD4
S2140003408B4201D3FFF706FF52F8040B43F8040B69
S214000350F6E700BF001000204812002018470300F0
S2140003600048704700F04902104AD2F8943003F073
S2140003700703023B032B13D8DFE803F00C14020E2E
S2140003800B4B1B68D2F80001C0F304200130B3FB0E
S214000390F0F07047074BF4E7074B1B685B08F1E784
S2140003A0054BEEE74FF40043ECE700BF00400E407D
S2140003B0141000200C1000201010002008B5FFF7C5
S2140003C0D3FF054BD3F80831C3F308230133B0FB42
S2140003D0F3F0024B186008BD00400E4008100020E5
S2140003E0014B1868704700BF0C100020054B1860C2
S2140003F0054BD3F8943003F00703022B01D1FFF727
S214000400DDBF70470C10002000400E40044B054A2C
S2140004109A60D3F8882042F47002C3F888207047A8
S21400042000ED00E0000000004FF4004070474FF47D
S2140004307A707047014B1868704700BF1410002090
S21400044008B50E4B984213D00DD8A3F5005398422A
S21400045010D003F5806398420ED009485B2100F067
S214000460BDF8112008BD074B9842F6D10648F9E7BB
S2140004700648F7E70648F5E70648F3E700A0014018
S214000480E8B6020000A40140003204000022040086
S21400049000020400001204002DE9F043044689B06F
S2140004A000680D46FFF7CCFF0121074600F036F93D
S2140004B03348012100F032F92B79A17960790422C2
S2140004C001F0E0FA0023CDE90133039303238DF80E
S2140004D00A3001238DF8093002238DF805302B7978
S2140004E0217920685A1E5342534101AA8DF80E30D6
S2140004F001F00EFCD4F800802379E6794FEAC309B0
S21400050000F07EFED8F8342006FA09F61F2356407F
S21400051003FA09F333405340C8F8343000F074FE51
S214000520384600F089FA2668164B2D68B0FBF5F0C1
S2140005309E4200F1FF350BD003F580639E4207D044
S214000540B5F5803F04D3104840F27C4100F046F8F1
S214000550F56123792568063305EB031300245C60F8
S2140005600D22214604A825F01BF80123284604A9DD
S2140005708DF8103001F06CFB204609B0BDE8F08322
S21400058000350A0000A001401CB7020003790122D2
S2140005909A40036803F1C0631A63704770B5046835
S2140005A00679E36959430B4B9C424FF06405B1FB57
S2140005B0F5F50BD003F580639C4207D0B1F5C80F64
S2140005C004D3054840F2ED2100F008F804EB0614C9
S2140005D0E56670BD00A001401CB70200FEE7000003
S2140005E00C4B984210D90C4B984210D9022201238A
S2140005F00A490B640A49D1F8003123F0807343EAB4
S2140006000263C1F80031704700221346F0E701226A
S214000610FBE700BF0048E8010090D0030000C84395
S21400062000400E4038B5114B5B68114B00221C464B
S214000630C9B21D798D4202D11D68854212D201329F
S214000640052A03F10803F4D10A4841F23851FFF7AE
S214000650C5FF032205494B6823F0407343EA026353
S2140006604B6038BD04EBC2025279F3E700000E403F
S214000670DCB702004DB702001F2810B5044604D9A7
S214000680034840F24311FFF7A9FF0120A04010BD28
S2140006907CB7020038B5074C41F67133256C2364ED
S2140006A0FFF75EFE0021FFF7BDFF0DB100232364B8
S2140006B038BD00BF00000E40044BDB6B5B0604D465
S2140006C0034AD2F8C830002BFBD1704700300E40EA
S2140006D00000C64308B5FFF7EFFF024B5868C0F3AB
S2140006E0014008BD00300E40044BD3F84421D20729
S2140006F003D4D3F840211042FBD1704700400E408F
S21400070038B5054C41F67133256C2364FFF78AFF34
S2140007100DB10023236438BD00000E4038B5C0F389
S2140007200323013B092B24D8DFE803F02A2D2323DB
S214000730051619231C20154C0023C0F3043513B1ED
S2140007401846FFF7D1FF04F1424404F5801405EB88
S214000750C404A400216038BD0D4C0123EDE70D4C08
S2140007601023EAE70C4C4FF48033E6E70B4C0023EB
S214000770E3E7BDE838400A4841F6D521FFF72EBF2B
S214000780084C0023D9E7084C0023D6E7B0400E40BB
S214000790E0400E40E8400E40F0400E4050410E4013
S2140007A04DB7020000400E40C0400E4008B5C0F3F2
S2140007B00313013B092B60D8DFE803F0050B0F1984
S2140007C05F5F1F233C532E4BD3F80001C0F3042079
S2140007D008BD2B4BD3F81401F8E7294BD3F80001DA
S2140007E0C0F300600130FFF747FF0138F0E7244B05
S2140007F0D3F80C01C0F30820EAE7214BD3F8080130
S214000800F8E7204B984209D01F4B98420CD041F68F
S21400081079411E48FFF7E2FE0020D9E7184BD3F8CF
S214000820200100F00F00DEE7154BD3F82001C0F3DF
S2140008300110D8E7164B984208D003F5B01303F51D
S2140008408053984206D041F69D41E2E70C4BD3F820
S2140008502801ECE70A4BD3F82801C0F30120043046
S214000860C1E70C4B984205D1054BD3F8300100F098
S2140008700300ADE741F6AC41CBE741F6D141C8E70E
S21400088000400E408006160080162E004DB702006F
S21400089090171A00A009140008B5FFF787FF01306B
S2140008A008BD000000F00F00013808B5072844D83E
S2140008B0DFE800F0040F1943232D4335264BD3F809
S2140008C0943003F00703023B052B3DD8234AD05C47
S2140008D008BD214BD3F8803003F00703013B032B00
S2140008E034D81F4AF3E71C4BD3F8843003F00703D1
S2140008F0013B032B2AD81B4AE9E7174BD3F888306D
S21400090003F00703013B032B20D8174ADFE7124BFF
S2140009101B6F13F0010F0CBF07200920D8E70E4B02
S214000920D3F85C3103F03003202B11D0302B11D0DC
S214000930102B14BF01200720CAE70C4842F22501FD
S214000940FFF74CFE0020C3E70520C1E70120BFE704
S2140009500420BDE70820BBE700400E40AEB702000B
S214000960B4B70200B8B70200B4B702004DB7020031
S21400097038B52C4B984205460AD02B4B984207D0E8
S2140009802A4B984204D02A4841F23861FFF726FEE7
S2140009902846FFF787FF234B9D42044611D0224B83
S2140009A09D4212D0214B9D4213D1224BD3F880405A
S2140009B004F00704042C2DD8DFE804F02A11151DD6
S2140009C019001C4BD3F88440F2E71A4BD3F8884042
S2140009D0EEE7174841F26761FFF700FEEAE7BDE879
S2140009E03840FFF721BDBDE83840FFF723BDBDE81E
S2140009F03840FFF71CBDFFF7B7FC0E4B0446D3F894
S214000A000001C0F300600130FFF736FEB4FBF0F4DF
S214000A10204638BD064841F2B961FFF7DFFD0024E5
S214000A20F6E700BF030020000500240002001E00B9
S214000A304DB7020000400E4038B500F47813B3F509
S214000A40B01F05467FD02ED8B3F5402F69D011D8F9
S214000A50B3F5802F54D006D843B1B3F5003F5AD033
S214000A6041F605411AE0B3F5202FF9D1BDE838402C
S214000A70FFF77ABCB3F5801F00F0A280B3F5A01F85
S214000A8057D0B3F5602FEBD15B48FFF70BFF072875
S214000A9000F096800928E9D041F2FA315748FFF76E
S214000AA09DFD002036E0B3F5381F5AD013D8B3F5B5
S214000AB0001F5FD00AD8B3F5D01F5DD0B3F5F01F86
S214000AC0CED14F48BDE83840FFF752BFB3F5101FF0
S214000AD0C6D14C48F6E7B3F5481F57D0B3F5781F94
S214000AE000F08280B3F5401FBAD14748FFF740FFB9
S214000AF0464B0446D3F82801C0F3012004302BE00F
S214000B00FFF732FC414BD3F80C31C3F30823013313
S214000B10B0FBF3F038BDFFF727FC3C4BD3F80831A9
S214000B20F3E7FFF721FC394BD3F81431C3F3042362
S214000B30EDE73448FFF71CFF344BD3F8303103F0B1
S214000B400303D840E6E72E48FFF712FF2F4B044674
S214000B50D3F8200100F00F00FFF78EFDB4FBF0F095
S214000B60D8E72748FFF704FF284BD3F82031C3F314
S214000B700113E6E72448A5E72348FFF7F9FE234BD1
S214000B800446D3F82801C0F30110E5E72048FFF734
S214000B9089FE0138072824D801A353F820F000BFA7
S214000BA0A30A0000E30B0000E30B0000C70B0000E5
S214000BB0E30B0000E30B0000C10B0000CF0B0000AE
S214000BC0144B1868A6E7BDE83840FFF709BCFFF7E6
S214000BD0CBFB0E4BD3F80031C3F3042303FB00001A
S214000BE098E741F2314159E7FFF7BEFB0446284635
S214000BF0FFF752FEB2E700BF06000E004DB7020038
S214000C0002001E00050024000300200000400E40E5
S214000C10B800320018100020014B1880704700BF43
S214000C201C100020013838B50C46032864D8DFE8CD
S214000C3000F002441A2FB1F5007F04D3324842F682
S214000C402501FFF7CBFC314AC4F30804D2F8683814
S214000C50002BFBD12E4A136A23F4FF7323F0010303
S214000C602343136238BD7F2904D9274842F6320150
S214000C70FFF7B4FC254A04F07F01D2F86038002B59
S214000C80FBD1234B1C6924F07F040C431C61E9E76D
S214000C907F2904D91C4842F64D01FFF79FFC1B4AEA
S214000CA004F07F01D2F86438002BFBD1184B9C6906
S214000CB024F07F040C439C61D4E7154DD5F89030A2
S214000CC05B0704D5104842F65D01FFF787FC6B6AA8
S214000CD023F0300343F010036B62C4F3C311CB1C44
S214000CE02A6B0C490F2B01EA020128BF0F23214370
S214000CF041EA03712963B5E7BDE83840024842F689
S214000D007701FFF76BBC00BF4DB702000020C84359
S214000D1000400E4000F8FF0F022810B50C4604D025
S214000D20144842F68F01FFF759FC134B5B6A13F029
S214000D30300F1BD0202C16D0302C17D0B4B10D4855
S214000D4042F6AA01FFF74AFC0C4B0B4AD2F8901069
S214000D5033EA0101FAD15B024ABFD2F8A0000120B3
S214000D60C0F3802010BD4FF40003EEE74FF44003BD
S214000D70EBE700BF4DB7020000400E40FF33E1072F
S214000D80022808B50CD129B1094B4FF48060C3F88E
S214000D90A80059664AB1BDE808400220FFF7BCBF6C
S214000DA0044842F6E001FFF719FC012008BD00BF29
S214000DB000400E404DB7020004282DE9F0470446D7
S214000DC00F4691461FD83D4B3D4A13F800A03D4BB9
S214000DD013F80080F1B93C4B33F81030136601234A
S214000DE003FA08F8D2F8903013EA080FFAD1B9F1EE
S214000DF0000F5AD00125324A05FA0AF5D2F890308B
S214000E002B42FBD151E0BDE8F047304842F2747106
S214000E10FFF7E4BB2E4B022833F8106047D1536A25
S214000E2013F0300F43D12B4BDB6B5A0504D4274805
S214000E3042F28371FFF7D2FB214A536ADB0705D5DE
S214000E40536A23F0300343F010035362224D1C4BC9
S214000E50A8441E664FEA8808D8F80030002BFBD05E
S214000E60B9F1000F21D05544AD002B68002BFCD003
S214000E70022C1AD1CFB1124F796A11F0010118D0A5
S214000E80012220212046FFF77BFFD7F89C40012255
S214000E9000210220FFF790FFC4F30A010220FFF7AB
S214000EA0C1FE3E662B68002BFCD0BDE8F08700270D
S214000EB0CCE72046FFF730FFE7E700BFBCB70200ED
S214000EC000400E40C1B70200D0B702004DB7020086
S214000ED0C6B7020000300E408004F210112838B564
S214000EE00C460FD000F00F000138072800F2EB8008
S214000EF0DFE810F0240066009A00E9007D00B400E8
S214000F00E900C200042912D1FFF76AFA0546A8B123
S214000F100021284600F094FA023C0A2C45D8DFE867
S214000F2004F04A473137444444443D0F4D000529F8
S214000F3004D1664B1D68664B9D42E9D80025EBE759
S214000F400320052401221146FFF736FFFFF7A2FB18
S214000F500DB1FFF7B1FB5F4B5C67FFF72FFA044656
S214000F60FFF702FAFFF73CFBFFF7B4FB014620460B
S214000F70FFF7C6FB002D5DD128460121BDE83840AD
S214000F8000F05EBA5448FFF72BFB02200446D9E770
S214000F905148FFF725FB01240320D3E742F2E60180
S214000FA0BDE838404D48FFF719BB42F2EB01F7E7C2
S214000FB001200324C6E700200424C3E70724C5E76E
S214000FC0062933D14548464D42F22A11FFF706FB63
S214000FD0424842F23A11FFF701FBFFF7C5F9FFF767
S214000FE0FFFA404B0122C3F80826032321E0062916
S214000FF03D4DEDD0013C092C2BD801A353F824F02D
S2140010005910000037100000451000005310000073
S21400101053100000DB0F00005310000053100000B8
S2140010205310000031100000304DE3E72C4DE1E78F
S21400103004232B6038BD012211460020FFF7BCFEBA
S2140010400223F6E7012211461046FFF7B5FE0123FC
S214001050EFE742F26511A3E70023EAE7072904D089
S214001060092906D042F2EF119AE71A4B00221A67B6
S214001070E0E7184B0122FAE74C1E072C1ED8DFE8E3
S21400108004F0201D1D161D1D0F0403221149D1F862
S2140010905C3123F0300343EA0213C1F85C31C9E740
S2140010A0012211460420FFF787FE0122EEE7012207
S2140010B011460220FFF780FE0222E7E742F24D21AA
S2140010C06EE70022E2E742F2243169E710100020C2
S2140010D0002D310100400E400148E8014DB70200E6
S2140010E080400E400010C84388400E4084400E40AA
S2140010F010B504461120FFF7D5FB042804D1274875
S21400110042F20F61FFF76AFA012200210220FFF780
S21400111053FE63781BB9A3780BB9E37823B11F4855
S21400112042F24B61FFF75AFA237C012B04D11B488D
S21400113042F25261FFF752FA194A217C536A23F0B1
S2140011400103022908BF43F001035362154B2178BF
S214001150C3F8A014637AA18843EAC123D362136B51
S214001160A07A217A03F07F630343E08843EAC02332
S21400117043EAC11303310F2928BF0F2143EA017345
S2140011801363A37B617B1B0143EA0133E17B0B43C3
S214001190217B43EA0143536310BD00BF4DB70200F5
S2140011A000400E400000C84370B505461120FFF70A
S2140011B079FB022804D10F4842F2CD61FFF70EFA00
S2140011C00D4E0E4BB26B2C7813401C436B7844EAE2
S2140011D0C324AB7844EA0364EB7844EA0324B36B95
S2140011E0A34205D0002101220846FFF7E5FDB463BF
S2140011F070BD00BF4DB7020000400E4080E4FFF80F
S214001200EFF3108072B6704700B962B67047EFF31E
S2140012101180602383F31188704780F3118870472C
S214001220034BD86B80F04000C0F38010704700BFBF
S21400123000300E4038B542EA0323B3F5007F05467A
S2140012400C463ED019D8B3F5807F36D00AD883B383
S214001250012B21D01F4840F6EE11FFF7BFF9002200
S21400126013461FE040F201129342F3D11A4BD3F813
S21400127024321A0EC3F3074314E0B3F5407F24D09C
S21400128040F20132934210D040F201229342E1D163
S214001290114BD3F8283202E00F4BD3F82432C3F3B5
S2140012A00722DBB22B60226038BD0B4BD3F8283206
S2140012B0DFE7094BD3F81C32F1E7074BD3F81C32B3
S2140012C0D7E7054BD3F82032E9E7034BD3F82032B3
S2140012D0CFE700BF04B802000081E00F08B5FFF7B3
S2140012E09FFF20B1024AD2F8C830002BFBD108BDC0
S2140012F00000C6431A4B022810B5D3F830320C460D
S21400130012D0032813D0012814BFDBB2C3F307237F
S2140013101B0323F47042ECB95AB140F67D11114814
S214001320FFF75CF9002010BDC3F30743F0E71B0E80
S214001330EEE70D49CA6E22F470421343CB660120D5
S214001340F1E70949D1F8EC2022F470421343C1F8C2
S214001350EC30F4E7002AF4D040F68911DFE700BF4E
S2140013600081E00F04B8020000300E400378134AF4
S214001370002B437870B514BF04260026002B837814
S214001380946914BF02250025002B037924F03F043E
S21400139043EA0403C47814BF08210021012C08BFC7
S2140013A043F0010333432B430B43936113684179A6
S2140013B023F4403343EA0143136070BD00300E400F
S2140013C0F8B504460F46FFF72BFF78B3FFF786FF06
S2140013D0174B5B68C3F301439C4227D0154BD3F8E9
S2140013E00061FEF7C1FF022C05460FD1124BC6F373
S2140013F0042606FB00069E4204D9104840F21471EB
S214001400FFF7ECF802212846FFF77AF9C4F102024A
S21400141010239340064A13610FB1FFF75FFF2CB904
S21400142021462846BDE8F840FFF76AB9F8BD00BF78
S21400143000300E4000400E40002D310104B802007E
S21400144013B50246FFF7ECFEC8B152B90D4B019139
S214001450D3F80041FEF788FFC4F30422019902FB8B
S2140014600002094B1B7843B1084B9A4205D802206C
S21400147002B0BDE81040FFF7A3BF0020F8E702B0B7
S21400148010BD00BF00400E406A120020002D310142
S214001490224B4AF6E85210B5596B5A639A6FD20738
S2140014A0FCD41B6C13F003031EBF1D4A0124C2F8B4
S2140014B0B44A834204D110B9194BC3F8B40A10BD1C
S2140014C0032B00D09BB9431E012B10D8134A4FF4B0
S2140014D00023D362936FDB07FCD4136C23F0030363
S2140014E043F0010313640D4A536A1C03FCD50B4BEF
S2140014F09A6FD207FCD41A6C22F0030202431A64D5
S2140015009A6F12F00102FBD10038054C18BF01207B
S2140015100129C4F8B40A08BF5A63D0E700300E4069
S2140015200000C6432DE9F04FA0F5E16389B0002422
S214001530B3F5966FCDE90244CDE90444CDE90644FF
S21400154006468A46934605D940F676315548FFF753
S21400155045F8A3E0B0F5E16F534B8CBF01220022A3
S21400156049D1D3F81832C3F30721DBB207910493AD
S2140015704FF416754FF4966748E0BBF1000F0ED097
S214001580D9F85C2022F4FE4222F00202B6F5E16FA2
S21400159042EA012218BF02200243C9F85C20BAF1D1
S2140015A0000F26D020460021FFF7A4FE044610B9FF
S2140015B040F6D331CAE701214046FFF79BFE0446BA
S2140015C010B940F6DB31C1E7384A536EBD4238BF2A
S2140015D03D4623F4FF73E72D23F0010328BFE725DC
S2140015E0B6F5E16F18BF43F0010343EA45035366BF
S2140015F054E0012452E0D3F81832190EC3F307431F
S214001600079104934FF496654FF4E167DFF89C90DA
S214001610D9F84C400192C4F30174234605A902A8E8
S214001620FFF708FED9F8EC30019AC3F301284346C9
S21400163006A903A8FFF7FEFD049BF01B079FF91AF7
S2140016404143B1FBF5F299182CBF012300238F42CA
S2140016501ED3EBB9069A039FD31B4343B3FBF5F3A4
S214001660FF182CBF01230023BA4211D383B9059B70
S214001670029AA3EB020C00FB0CF0B0FBF5F5551933
S2140016802CBF01200020AB4202D300283FF475AFE8
S214001690044840F6C431FEF7A1FF0024204609B0F6
S2140016A0BDE8F08F04B802000081E00F00300E4065
S2140016B0334A08B5136FD16C11F0010F03F006031F
S2140016C044D0002B42D0132857D9143813288CBF87
S2140016D0102308232A49013BCA6C180322F47F42D0
S2140016E040EA03231343CB64264BCA6C1B88C2F321
S2140016F003222833013202EB820003EB5303B3FBD1
S214001700F0F3C86C013B072B28BF072320F0EE60E0
S21400171040EA036343F48013CB641B4BB3F90030F9
S214001720002B12DB03F12800C0F34E0303445008DD
S21400173000EB4202B3FBF2F20B6D072A28BF07222A
S21400174023F0700343EA02120A6508BDD16C01F06B
S2140017500101194304D109280FD90A380928B6E728
S214001760D26CD20702D50BB92728B0E7074840F657
S2140017701941FEF733FF0023ACE70423AAE700BFB6
S21400178000300E40661200206812002004B80200E6
S2140017900C4BD3F8803910B5044633B9012804D968
S2140017A0094840F63741FEF719FF084A136F23F041
S2140017B0070323431367064BBDE810401888FFF75E
S2140017C077BF00BF0000C64304B8020000300E40DA
S2140017D06412002038B55A4B02229A639B6B03F0C2
S2140017E00F039342044607D0564840F61221FEF7F0
S2140017F0F5FE0025284638BD0389C82B04D9514874
S21400180040F61C21FEF7EAFEA28823899A4204D9F4
S2140018104C4840F61D21FEF7E1FEB4F90C30C82B0B
S21400182004DD484840F61E21FEF7D8FE6378012BFB
S21400183055D1A388C82B04D940F622214148FEF78B
S214001840CDFEE28842F210739A4204D93D4840F633
S2140018502F21FEF7C3FEE3884A2B48D9B3F5FA7F5B
S21400186047D340F6C312934294BF4FF000524FF056
S21400187040523349B4F90C00CB6C23F0405323F0AC
S21400188001030028A8BF43F001031343CB64D1F83B
S214001890EC30A28843F44073C1F8EC302A4B1A802F
S2140018A0CB6E43F08073CB66284BD3F8800900B12B
S2140018B00420FFF76DFF264B21891980254BB4F9CC
S2140018C00C20A0881A80FFF7F3FEA37BA3B1012BA0
S2140018D022D01C4840F62E11FEF780FE0FE0022BA9
S2140018E0AFD1A3880A2BACD940F62721A6E7002261
S2140018F0BFE74FF08052BCE7114B174A9A650122AA
S21400190060881146FFF70EFE054640B90D4840F6C2
S2140019106621FEF763FE6DE7094B104AEEE7084ABC
S214001920D36B43F48063D3636078FFF7B1FDA37A8B
S214001930A3F1200253425341044AC2F8943759E7B0
S21400194000300E4004B80200641200200000C643B7
S214001950661200206812002077402057372110B703
S21400196038B50D46044618B3012824D0022825D0E1
S214001970032826D004280ED0052825D0831F012B47
S21400198009D9082823D0092823D00A2803D10723F9
S214001990EB40DB0704D4104840F22B41FEF71EFE56
S2140019A030200E4B0121444301FA05F51D5138BD88
S2140019B040F2FF33ECE74FF6C073E9E740F6FF73FB
S2140019C0E6E74FF47F43E3E74FF6FF73E0E70F23C6
S2140019D0DEE74FF44043DBE733B802000CA00046D6
S2140019E038B50D46044618B3012824D0022825D061
S2140019F0032826D004280ED0052825D0831F012BC7
S214001A0009D9082823D0092823D00A2803D1072378
S214001A10EB40DB0704D410484FF47F71FEF7DEFD81
S214001A2030200E4B0121444301FA05F51D5138BD07
S214001A3040F2FF33ECE74FF6C073E9E740F6FF737A
S214001A40E6E74FF47F43E3E74FF6FF73E0E70F2345
S214001A50DEE74FF44043DBE733B802000CA0004457
S214001A6070B505460E461446FFF7CAFB296881EA9C
S214001A70040202EA06044C402C60BDE87040FFF702
S214001A80C3BB0000F8B50D4616461F460446C0B355
S214001A90012839D002283AD003283BD004280ED09B
S214001AA005283AD0831F012B09D9082838D00928E1
S214001AB038D00A2803D10721E940CB0704D42348AD
S214001AC04FF4B071FEF78AFD26B12946204667B36B
S214001AD0FFF746FF3023072D04FB03F34FF00F01FB
S214001AE026D8A80006FA00F2814019481844FFF7E5
S214001AF0B7FF4EBB2946204617B3BDE8F840FFF7B0
S214001B002FBF40F2FF31D7E74FF6C071D4E740F65B
S214001B10FF71D1E74FF47F41CEE74FF6FF71CBE779
S214001B200F21C9E74FF44041C6E7FFF759FFD1E759
S214001B30A5F10800800006FA00F281400548D5E7C6
S214001B40BDE8F840FFF74CBFF8BD00BF63B8020021
S214001B5004A0004008A00040022838B504460D4600
S214001B6003D911484C21FEF739FD6B791F2B03D999
S214001B700D484F21FEF732FDAB786A789B0143EAA9
S214001B8082032A781343EA7843EA02132A7943EA5F
S214001B90C2236A7943EA0233AA79043443EA424309
S214001BA02401024A135138BD93B8020000200440B5
S214001BB0014B1860704700BF0000844242780179EC
S214001BC00378002A827870B514BF04260026002AFF
S214001BD0C27814BF10250025002A42794FEA023247
S214001BE042EA012242EA0302837914BF2024002439
S214001BF0002BC37942EA034343EA0603027A43EA28
S214001C00050314BF4FF4004100212343002A14BFEC
S214001C104FF4003200220B431343014A136070BD99
S214001C2000200440094B98420DD003F5806398428B
S214001C3009D003F5E053984205D003F58063C31A34
S214001C405842584170470120704700BF008001404D
S214001C502DE9F84F05460C46FFF7E4FF18B92B4868
S214001C60A521FEF7BBFC217809B902236B606078DA
S214001C7000236B620028E278607AA37894F808B0B4
S214001C8094F806A094F8079014BF4FF040084FF061
S214001C90000812040028A07A42EA036314BF4FF03B
S214001CA0800E4FF0000E43EA0B030028E07A43EA6A
S214001CB08A2314BF4FF0200C4FF0000C43EA092390
S214001CC00028207B43EA080314BF1027002743EAB6
S214001CD00E0300282079647943EA0C0314BF082613
S214001CE000263B43002814BF4FF400500020334327
S214001CF0002C14BF4FF080540024034323432B6072
S214001D0009B101236B60BDE8F88F00BFC3B80200BD
S214001D10F8B505460C461646FFF784FF18B9204866
S214001D20F521FEF75BFC032C03D91D48F621FEF7D0
S214001D3055FC737832781B0643EA8263B279134304
S214001D40B27843EA0243F27843EA0233327943EA4E
S214001D508223727943EA0223F279002A327A14BF88
S214001D604FF080470027002A727A14BF4FF00050C9
S214001D700020002AB27AF67A43EA067343EA07039B
S214001D8014BF102100210343002A04F1060414BFE7
S214001D90042200220B43240113432B51F8BD00BF3D
S214001DA0C3B802002DE9F04180460E461F46154690
S214001DB022B931484FF4A171FEF710FC1EB92F4826
S214001DC0FEF73AFE0646402F2AD009D8A7B1202FA4
S214001DD01CD0BDE8F041284840F28911FEF7FEBB52
S214001DE0602FF6D1B5EB960F04D9234840F2831145
S214001DF0FEF7F4FB04241DE0B5EB161F04D91E48BD
S214001E004FF4BA71FEF7EAFB102413E0B5EBD60FD9
S214001E1004D9194840F27911FEF7E0FB082409E0DE
S214001E200624B6FBF4F3AB4204D213484FF4BF715A
S214001E30FEF7D4FB6C43610801EB4616B6FBF4F4E0
S214001E400F4E203CB6EBC40F4FEAC40504D20A4836
S214001E504FF4D071FEF7C2FBD8F8003023F06003D1
S214001E60C8F80030D8F8003035401F43C8F8007076
S214001E70C8F81450BDE8F081F4B8020040410500EF
S214001E80F8FF7F0070B506460C46154622B90D4889
S214001E904FF42271FEF7A2FB1CB90B48FEF7CCFDEF
S214001EA004460A4B6D00013CB4FBF5F413EA042328
S214001EB04FEA042504D0034840F2A521FEF78EFB26
S214001EC0756170BDF4B8020040410500070080FF50
S214001ED038B50E4B984204460D4610D003F5806385
S214001EE098420CD003F58063984208D003F58063CF
S214001EF0984204D0064840F2BE21FEF76FFBEB4343
S214001F005B0003F00A03E360E56038BD00000140B3
S214001F10F4B8020038B51E4B1E4D984204460ED04B
S214001F20A8420CD003F50063984208D003F58063FE
S214001F30984204D0184840F23441FEF74FFB40F672
S214001F40AA63E36041F20502002323606260134A3D
S214001F50A3606361E364A26423666367A367E367C1
S214001F600B4B9C4209D0AC4207D003F500639C4261
S214001F7003D003F580639C4201D100232365002330
S214001F80AC42A36502D0064A944200D1E36538BD50
S214001F900000014000040140F4B80200F9FF01000F
S214001FA0000C014038B5294B984204460D4610D027
S214001FB003F5806398420CD003F58063984208D0FE
S214001FC003F58063984204D0214840F2EF21FEF7E3
S214001FD005FB2046FFF79EFFAB7C1BB1236843F052
S214001FE080432360EB7C1BB12B7D43F08003A3650D
S214001FF02A8A6B7B1343EA89134363602B7BD5E9FC
S21400200001122046FFF7CEFE6B7D1BB1236843F41A
S21400201080332360AB7D1BB1236843F40043236009
S214002020EB7D2A7E1B07120502F4E00203F0E04374
S21400203013432366636F23F030036367626F6B7E20
S214002040134363672B78E36038BD00BF0000014090
S214002050F4B8020038B52D4B984204460D4610D011
S21400206003F5806398420CD003F58063984208D04D
S21400207003F58063984204D0254840F25B31FEF7B2
S214002080ADFA2046FFF746FFA97B2A8A2368002977
S21400209042F0010214BF4FF48061002113430B434A
S2140020A02A7D23602368002A14BF4FF000520022C6
S2140020B013432360AB7C1BB1EB7C43F08003A3652A
S2140020C02B7B43F480536360D5E901122046FFF76B
S2140020D0D9FE6B7B0BB11023E3606B7D1BB12368CD
S2140020E043F480332360AB7D1BB1236843F4004385
S2140020F02360EB7D2A7E1B07120503F0E04302F403
S214002100E002134323662B78E36038BD00000140ED
S214002110F4B8020003691B06FCD5C069C0B270475C
S21400212003695A06FCD5416303699B06FCD5C06962
S214002130C0B2704703695B06FCD541637047000078
S2140021407FB5094B6A4603F11006154618685968AC
S214002150144603C40833B3422246F7D12846FFF795
S21400216039FB002004B070BD26B9020013B5022367
S2140021700024684600948DF804408DF80530FFF77B
S214002180F5F8204602B010BD70B5164B86B001AA11
S21400219003F11006154618685968144603C4083338
S2140021A0B3422246F7D11B8823800F4BD3F8B420C6
S2140021B012030ED4D3F8B830C3F308030B48ADF8B7
S2140021C00A30FEF713F92846FEF792FF002006B005
S2140021D070BD074B1B884FF6FF72934208BF4FF443
S2140021E0A673EBE736B902000081E00F00F0490263
S2140021F00001E00F07B5084B18680190202301A8DE
S2140022008DF80430FEF7D0FF6420FEF705FD0020B1
S21400221003B05DF804FB00BF48B9020010B50C48D7
S2140022200C4C6FF00402A02112F0800FD3B21BBF3B
S21400223003F00F03043BA3181B1802F101020CBFA6
S21400224083F800131976332AEED1002010BD00BFA4
S21400225000ED00E000E100E010B50446FEF7D0FF18
S214002260024B1C60FEF7D0FF002010BD6C12002051
S21400227010B5FEF7C5FF034B1C68FEF7C5FF2046EA
S21400228010BD00BF6C12002007B530B9CDE90012B2
S214002290FFF7EEFFDDE9001230B1436823B10068B6
S2140022A003B05DF804EB1847232003B05DF804FB89
S2140022B030B51C4685B058B9CDE90012FFF7D8FFF7
S2140022C0DDE9001204B903AC20B9232005B030BD07
S2140022D003B903AC8568002DF7D023460068A847ED
S2140022E0F4E700207047FEE74FF400534B600020F1
S2140022F0704701207047012070474FF0FF3070474D
S2140023000020704707B5002001AB0190FFF7D0FF13
S2140023100198002808BF4FF0FF3003B05DF804FBBB
S21400232010B500201446FFF7AFFF18B10248BF21D2
S214002330FEF754F9204610BD4CB9020080F8241070
S214002340704790F82400704770B504460568FFF79C
S2140023508FFF844202D10020FFF77EFF95F92830D8
S214002360002B11DB03F01F015B099B0003F16043A8
S21400237003F5614301228A40C3F88021C3F8802018
S214002380BFF34F8FBFF36F8F0023C4E90033C4E958
S2140023900433A3602846EB68BDE87040184790F801
S2140023A0243070B505460C468E18E3B9A6420AD00E
S2140023B095F82630002BF9D02B6814F8011B284618
S2140023C098470028F2D070BD95F826305BB1237888
S2140023D00A2B03D12B680D21284698472B6814F842
S2140023E0011B28469847A642EED1ECE72DE9F743B5
S2140023F04FF00009044690461E46C3F800904F1E54
S2140024003368434505D2FEF702FFA269C2B9FEF75C
S21400241004FF94F827305BB9112301220DF1070160
S21400242020468DF80730FFF7BAFF012384F82730DF
S2140024303368002B0CBF1B20002003B0BDE8F083E0
S214002440E16922698A5C07F8012F2569226A01354D
S2140024509542A26908BF4D46013AA2612561FEF782
S214002460DCFEA36820469847336801333360C7E72D
S21400247008B5FFF794FF002008BD0000F8B51F461A
S214002480536805460C461646002B3ED09368002B34
S2140024903DD02C220021204623F082F87368E361A9
S2140024A0B3682362337B84F82430B37B84F825300A
S2140024B040F20113E384069B6360079BA360089BBE
S2140024C02760E36096F90030124A84F828306A6084
S2140024D0114AAA60114A2A61114A6A61002B114A00
S2140024E02C60EA600CDB03F01F015B099B0003F124
S2140024F0604303F5614301228A40C3F880211A60D5
S2140025002846FFF7A9FE0020F8BD2220FCE7212080
S214002510FAE700BF71240000ED2300003D23000011
S214002520432300004923000010B50446FEF76FFE63
S214002530A269236A9A4203D2FEF76FFE012010BDFD
S214002540FEF76BFE0020FAE773B504460D46FEF76D
S2140025505EFE94F8253006466BB1132D07D1002396
S21400256084F8263002B0BDE87040FEF756BE112D46
S21400257001D10123F4E7A269236A9A4204D31448DE
S2140025804FF4B271FEF72AF86369E269D554A2697E
S21400259063690132A261226A01339342636104BF18
S2140025A0002363613046FEF738FEA269236A9A422A
S2140025B00BD1132301220DF1070120468DF80730B9
S2140025C0FFF7EDFE002384F8273002B070BD00BF91
S2140025D09AB90200C26AD36C43F00403D36470470E
S2140025E0C26A10B5044613695906FCD500231A467C
S2140025F094F8351094F83400FFF744FA00231A468E
S21400260094F8371094F83600FFF73CFA94F83C300C
S214002610DA0707D5002394F8391094F838001A46DC
S214002620FFF730FA94F83C309B0707D5002394F860
S2140026303B1094F83A001A46FFF724FAE06A0021A5
S214002640FFF746FC206B0021FEF768F8002010BD5F
S21400265008B5C06AFFF76EFD002008BD2DE9F04101
S21400266086B01C46524B0C9D0293524B019301269A
S21400267000230093CDE903664F4B90460A46294651
S214002680FFF7FCFE0746002856D12368EB62636816
S2140026902B63637A85F83530237A85F83430E37A0D
S2140026A085F83730A37A85F83630637B85F839307D
S2140026B0237B85F83830E37B85F83B30A37B85F8B1
S2140026C03A303E483146FEF729F83D483146FEF797
S2140026D025F8617A207A33460422FFF7D3F9334689
S2140026E00222E17AA07AFFF7CDF960683146FEF75C
S2140026F015F888F8007041462068FFF753FC2268FA
S214002700536F43F003035367936F617C23F4F853CE
S21400271023F01F030B43217C43EA01230321936725
S214002720516785F83C7098F81930202B2BD007D8C5
S21400273003B3102B09D02327384606B0BDE8F08136
S214002740302BF8D185F83C1002E085F83C603E4618
S21400275000230222617B207BFFF794F92368A27C8A
S214002760DA675A6E42F004025A665A6F42F0100256
S2140027705A675EB92068C36C43F00403C36405213E
S214002780FFF7A6FBD8E7022385F83C30E17BA07B69
S21400279000230422FFF776F92368E17CDA6F42EA29
S2140027A00122DA675A6F42F020025A67E2E700BF5A
S2140027B0E1250000D5250000512600004041050017
S2140027C000350A00C36A1B691B0610B5044610D5FF
S2140027D0FFF7AAFE40B1E06AFFF79CFC01462046E0
S2140027E0BDE81040FFF7B0BEE26AD36C23F00403E6
S2140027F0D36410BD00230B707047000030B50F4C3B
S21400280041612368ABB92060836011E0891A9A6839
S21400281041611D462AB113465A698A42F6D955B116
S2140028201A46A8601346836013B15A69511A596153
S21400283030BD0025F0E72060F5E700BF88120020D5
S21400284010B500F013FA0A4C0A4B19682368C31A2D
S21400285001B10BB9206010BD4A699A422EBFD21A48
S2140028609B1A00224A6128BF00238968F0E700BF50
S214002870741200208812002038B50F4B0F4D1C68CC
S2140028802B685B6902201C4400F01EFA204600F00C
S214002890F3F90B492A6800230B70D088800702D50D
S2140028A001230B7038BD9268002AFBD050690344A0
S2140028B0012BF2D9F6E700BF741200208812002020
S2140028C07C12002070B516469DF814200271049AFA
S2140028D00260C0E903360022BDF818308260C3806B
S2140028E004460D4600F0C2F93044A0613DB9E368E5
S2140028F0656113B121682046984796B13546FEF7C4
S21400290086FC0646FFF79CFF29462046FFF776FF23
S214002910054B1B68A34201D1FFF7AEFF3046FEF71A
S2140029207CFC002070BD00BF881200200C490B689C
S21400293000227BB183420AD183687AB193608368B0
S2140029401BB15A6941690A445A61002070471A4609
S2140029509B68EEE70028EFD0022070470B60EEE79A
S2140029608812002070B5154EFEF751FC34780546E7
S214002970FCB9134B1C60134B1C60134B1C8000F0FF
S2140029802FF9012000F0A0F900F0DCF90F4B024609
S214002990186020B92846FEF740FC232070BD234669
S2140029A00B4840F2E73122F0AFF80A4B18600123DB
S2140029B033702846FEF731FC0020EFE77012002047
S2140029C088120020741200207E120020841200203C
S2140029D018FCFFFF7812002038B50C46054698B163
S2140029E091B100230B70FEF712FC084B1B68012107
S2140029F00BB122781AB1FEF710FC002038BDAB42AE
S214002A0014BF9B682170F3E72220F7E788120020A6
S214002A10F0B587B01F4600230D4616468DF81730D2
S214002A200446A0B10DF11701FFF7D6FF9DF8172059
S214002A307AB9BDF8343002939DF830302946CDE996
S214002A40007320463346FFF73DFF07B0F0BD222057
S214002A50FBE70320F9E70000044B1B68584300F22D
S214002A60E7304FF47A73B0FBF3F07047841200201F
S214002A7000B58BB001238DF80B30FFF7EDFF002378
S214002A80CDE900330146074A0DF10B0303A8FFF713
S214002A90BFFF18B99DF80B30002BFBD10BB05DF8CB
S214002AA004FB00BFF5270000C2072DE9F84F0446D7
S214002AB00BD5464A138801339BB21380FFF7C0FE3E
S214002AC0434B1B680BB1FFF7D7FEA3077CD5FEF779
S214002AD09EFB0546FFF7B4FE4FF0000A3C4FDFF8BA
S214002AE0F8905646D0463C680CB163698BB1394BBA
S214002AF00022012E1A7003D1BAF1020F08BF1E7011
S214002B00002C51D0FFF7B8FE2846BDE8F84FFEF778
S214002B1084BB23461A792179914288BF1C469B685C
S214002B2013B15A69002AF5D02846FEF776FBD4F88A
S214002B3010A0BAF1000F3BD000F098F8A269851AF1
S214002B40EB17AA4578EB030333DA23691344A36132
S214002B5001222369D3B1CAB9EB17BAEB050563EBBB
S214002B604303002B04DA40F202414846FDF736FDE7
S214002B70FEF74DFB294682462046FFF73FFEA36937
S214002B8022691344A3615046FEF747FBE368B4F896
S214002B9006A0013613B1216820469847FEF737FB9A
S214002BA00546FFF74DFE9EE7022000F09BF8ABE7D8
S214002BB05546FEF72CFB83462046FFF7B7FE5846E1
S214002BC0FEF72BFB0022C4E7BDE8F88F7E1200203C
S214002BD08812002080120020DEB902000020704714
S214002BE010B51E4B86B01868596803AA03C2197A36
S214002BF0D3F8090011700024B3F80D200190DB7B98
S214002C001748ADF8082001218DF80A30FDF786FD3B
S214002C108DF80C40FFF7E2FF8DF8100003A8FEF7D2
S214002C20CDFF01A901208DF80440FEF795FF0D4A5F
S214002C30536A23F4FF6323F00703536240F2FF73E3
S214002C40136201209460FEF7B3FF074B4FF08042FB
S214002C50C3F880211A6006B010BD00BF21BA02007A
S214002C60A00914000020044000E100E0014B986831
S214002C70704700BF00200440114A9368516D926966
S214002C80520704D4CA1A032A01D88B420DD1C21A9D
S214002C90022A98BFD81C0A4BB0F1FF3F38BF013854
S214002CA058655A6A42F004025A62064A137833B1EB
S214002CB003490B6D43F002030B6500231370704746
S214002CC0002004401E1000208207054A00F0010381
S214002CD0516A48BF43F004030B435362704700BF7A
S214002CE000200440820700F0010309D5074A0121AD
S214002CF0117007490A6D22F0030243F004030A65C7
S214002D0003494A6A22EA03034B6270471E100020FA
S214002D100020044010B5FEF77AFA094A9369044683
S214002D20590703F0010003F0070348BF40F0020014
S214002D301362FFF7B9FE2046BDE81040FEF76DBAF5
S214002D400020044008B50448FDF776FE0346FFF76A
S214002D5045FF23FA00F008BDA009140008B520F0CE
S214002D60ABFB20F0F7FB20F0F7FB20F0FEFBBDE806
S214002D70084020F0FBBB08B520F0FAFB20F0F9FB7A
S214002D8020F0F8FBBDE8084020F0F5BB10B504467F
S214002D90FDF714FB4FF47A729042B0FBF2F105D2C5
S214002DA03621BDE810400B48FDF718BC0A4BB3FBB4
S214002DB0F1F30A49884201D93C21F2E702FB04F00C
S214002DC0B0FBF3F0032804D9BDE81040800800F0FB
S214002DD007B810BD31BA020040420F00E7CD9A3B5B
S214002DE0013800D0FCE770472DE9F04F97B01D463C
S214002DF00C92BDF83030249C0E9143EA02430F93A8
S214002E00219B219A9BB243EA02431093209BCDE973
S214002E101301C3F1000A012000FA0AF3013B0693EE
S214002E200341079303440A93239BC3F1000900FA66
S214002E3009F3013B04930341059303440993289B3C
S214002E405B4298400193431E02935B100393013349
S214002E5008932B9B23F0030B259B5B440B93139B40
S214002E600D934FF080420027259B0B998B421ED175
S214002E70139BDFF83CE45B441F46149B5B449C4674
S214002E802B9B03F00303CB180D93EB0F0E93229BA3
S214002E90DB0F6FF000460F934FF080480B9B0D9AA8
S214002EA0934240F08681002017B0BDE8F08F0D9B5E
S214002EB053F8046B0D934FEA362E2FFA8EFE2FFA38
S214002EC086F60E9B53F8041B0E934FEA31282FFA12
S214002ED088F82FFA81F10F9B9EFA03F312930F9B4B
S214002EE096FA03F6109B98FA03F31193109B91FA47
S214002EF003F11FFA86FE0EFA04FE94463B46CEFB0E
S214002F0005C30A984FEADC7C4CEA430C069B8646CF
S214002F10079803EA0C035CFA0AFC58BF86461FFAB9
S214002F2081F82298734508FA04F81346BE46C8FB93
S214002F30003E4FEAD373049843EA4E0300EA030EBA
S214002F40099880460598C8BF0CF1010C53FA09F39E
S214002F5058BF8046C6452798C8BF01336344964687
S214002F60B846C3FB00E84FEADE73029843EA48031C
S214002F7000EA030C0198034108988646039858BF58
S214002F808646F4452698C8BF0133034429988342F1
S214002F90B8BF03462A988342A8BF03465BB2360CE6
S214002FA006FA04FC159316463B46CCFB05630A98C6
S214002FB0F60F46EA4306069B84460798334056FAC1
S214002FC00AF658BF8446090C2298634501FA04F1B4
S214002FD01346BC46C1FB003C099804994FEAD373DC
S214002FE043EA4C0384460598C8BF0136194053FA95
S214002FF009F358BF844661452798C8BF0133334458
S2140030001146BC46C3FB001CCB0F01980299039ED9
S21400301043EA4C03194003410898BDF848C048BF2E
S2140030200646B1422699C8BF01330B4429998B4204
S214003030B8BF0B462A998B42A8BF0B4659B20CFA6A
S21400304004FC16463B46CCFB0563F60F46EA4306F1
S214003050069B0A98BDF844E084460798334056FA23
S2140030600AF658BF8446229863450EFA04FE1346B5
S214003070BC46CEFB003C4FEAD373049843EA4C03AD
S21400308003EA000C099886460598C8BF013653FA2D
S21400309009F358BF8646F4452798C8BF0133334422
S2140030A09446BE46C3FB00CE4FEADC73029843EA62
S2140030B04E0303EA000601980341089884460398E5
S2140030C058BF844666452698C8BF013303442998EE
S2140030D08342B8BF03462A988342A8BF0346129885
S2140030E04FEA104E0EFA04FE94463E46CEFB05C648
S2140030F006984FEADC7C4CEA460C0CEA00060A9876
S214003100864607985CFA0AFC58BF864611984FEA2E
S21400311010482298764508FA04F81646BE46C8FBBC
S214003120006E4FEAD676049846EA4E0606EA000E89
S214003130099880460598C8BF0CF1010C56FA09F6A6
S21400314058BF8046F0452798B8BF01366644964675
S214003150B846C6FB00E84FEADE76029846EA48061E
S21400316006EA000C0198064108988646039858BF60
S2140031708646E6452698B8BF013606445BB22998CF
S2140031809DF854C0090401F47F011B029BB241EA7A
S2140031900C01864241EA03012A9BB8BF06469E42BE
S2140031A0A8BF1E46259B41EA066143F8041B2593EB
S2140031B05AE60C9B17F9012B1CF901BB0E991A4411
S2140031C0219BA2409B44D30F8B420BBF4FF0804302
S2140031D0734600214FF0FF31C2FB053100290BFA80
S2140031E004FB02DA9B1941F10001DB0FAA4243EA15
S2140031F0410104D1B5F1004F08BF6FF00041069BB6
S21400320007980A9A0B4051FA0AF158BF02469342B1
S2140032100F9A22984FEADB73C8BF013193420BBF67
S2140032204FF08042724600234FF0FF33CBFB002363
S214003230002B02DA921943F10003D20F42EA43034D
S214003240229A934504D1B2F1004F08BF6FF00043B5
S2140032500998049A834605981A4053FA09F358BF0A
S21400326083465A45C8BF01330B4427990398424604
S2140032704FF0000BC3FB012BD30F0199029A43EAD0
S2140032804B031A400B41089958BF01468A42269ABA
S214003290C8BF01331344299A9342B8BF13462A9AEB
S2140032A09342A8BF13460B9A02F8013B0B92F5E532
S2140032B0010000C02DE9F04F8DB0CDE90323BDF825
S2140032C00C30069143EA02430793049ABDF8103087
S2140032D0059043EA024308931C9B9D08199B0295A0
S2140032E05A42002BD4BF1346002301249C40013CC5
S2140032F04FEA640C00930CF101030193169B0993AB
S214003300CDE90A01199B4FF0804623EAE3784FF097
S2140033100009029BD3B90A9BDDF8088003EB850001
S2140033200B9B03EB8506169B03EB85051C9B03F0A6
S2140033300301199B294423EAE37E4FF080478D4220
S21400334040F0BF8000200DB0BDE8F08F059B53F81D
S214003350047B05934FEA372E2FFA8EFE2FFA87F757
S214003360069B53F8041B06934FEA31202FFA80F091
S2140033702FFA81F1079B9EFA03FE97FA03F7089B44
S21400338090FA03F091FA03F117FB01FB189B0BFA76
S21400339008FB3246CA46CBFB032AD30F009A43EA01
S2140033A04A0303EA040A1341019A54BFE3469346CC
S2140033B0DA45179AC8BF013313441A9A9342B8BF26
S2140033C013461B9A9342A8BF134611FB37F1189A6F
S2140033D04FFA83FB01FA08F13346CA46C1FB023AAC
S2140033E0DB0F009A43EA4A0303EA04011341019AF9
S2140033F054BF67461746B942179AC8BF01331344ED
S2140034001A9A9342B8BF13461B9A9342A8BF134614
S2140034101EFB00FA189A0AFA08FA59B24F463346C3
S214003420CAFB0237DB0F009A43EA470303EA0407A6
S2140034301341019A54BFE24692465745179AC8BFB1
S214003440013313441A9A9342B8BF13461B9A934209
S214003450A8BF134610FB3EFE189A0EFA08FE30462A
S2140034604F46CEFB0207C00F009A40EA470000EA2C
S21400347004071041019A54BFE64696467745179AC8
S214003480C8BF01305BB20904104401F47F011A9AE8
S2140034905FFA8BFB1B029BB241EA0B0B90424BEA96
S2140034A0030B1B9BB8BF10469842A8BF1846099B43
S2140034B04BEA006B43F804BB0993029B013B029363
S2140034C027E710F901AB039B049A9A4416F9013BCF
S2140034D0134403FB0AFA189A0AFA0EFA3B46C14648
S2140034E0CAFB0239DB0F009A43EA490304EA0309E0
S2140034F01341019A54BFE2469246D145179AC8BF77
S214003500013313441A9A9342B8BF13461B9A934248
S214003510A8BF134605F8013B11E72DE9F043DDE9A6
S2140035200B84A568AC07DDE9097E03D1BDE8F0434E
S21400353000F03EB86FF00200BDE8F0838B68C0680C
S21400354058434B6858438000704730B5D8688407A6
S2140035508BB028D10C6934BB4C6924BB8D68012D17
S21400356021D1CD68012D1ED14D6A08950D6A0795AB
S2140035704D6806950968CDE904011399C968039159
S214003580D3E901011B6841435943029153680193F3
S21400359013680093129A149B10990E9801F07CFD04
S2140035A020460BB030BD6FF00200FAE700207047EF
S2140035B02DE9F04F2DED028BB1B09446419C3D9E17
S2140035C0E768D0F800A01868DD682690BAB208EE62
S2140035D0102A0A691E924A691F928A682092CA684F
S2140035E021920A6827924A6813920A6A14924A6AD3
S2140035F01592DCF800201692DCF804201792A288B8
S214003600D6E9016018921A899B8812930A9213468B
S214003610129A1FFA85FB53430BFB03F32893238967
S2140036201993BBB21B93DDE91823534318EE102AF7
S21400363053432393B3B21A9383B21193119A1A9BEE
S21400364010FB06F05A4310FB05F502FB0BF3A9B27C
S21400365025910AEB830122914FEA4B010891C3F3AF
S2140036608F0305F003011D9101EB83011C913E9928
S21400367001EB83010AEBC3032D930A9B2A910BFBF4
S21400368003F32993089B53432B93119A089B5343A8
S2140036902C9300230B930B9B269A9342C0F28580B3
S2140036A0002031B0BDEC028BBDE8F08FBDF8803055
S2140036B0BDF878200F9ECDF8308009FB03F39B1AE7
S2140036C01093109A249B9C183C9B0BFB04330E9380
S2140036D01A9B33442F932F9BB3425EDC2B9B98445C
S2140036E0229B434518D10D9B0693409B0593259B33
S2140036F00493BDF954300393BDF950300293139BE5
S2140037000193169B009318EE102A179B3E9851467D
S21400371001F054FAD0460D9009F10109199B99451C
S214003720C4DB099B01330993099B189A934246DA36
S214003730099ABDF884305343BDF87C209B1A0F933A
S2140037400F9A0A9B534324934FF00009E6E7129B17
S214003750B34204D9002D02DB0A9B9D4215DB089A72
S2140037600021384621F01CFF089B01351F445C44AD
S2140037702E9BAB42EBDC0C9B2C9A13440C93299AA1
S2140037800E9B134401360E93A5E718EE903A5A4660
S2140037903946204602F0A6FAE6E7109D119A0E9CDE
S2140037A00C9F2B4613442E93E2E7429B0D93002377
S2140037B00993BDF99C30D04608EE903AB4E7D04560
S2140037C071D13C9B289A13443C93239A429B134402
S2140037D042930B9B01335DE7409A002A42D052F891
S2140037E0232055463746B84201463DD11D9D2D9CA7
S2140037F00544A94250D11C990E44179951F82350FC
S21400380025EAE5718A40169951F82310002D4FF0ED
S21400381080444F46C2FB0147D4BF6D420025E40FEB
S2140038200EFA05F244EA4707013A07EA02012F4179
S2140038304FEA620248BF01329142139AC8BF01376D
S2140038401744149A9742B8BF1746159A9742A8BFCE
S21400385017460D9AD7541C9A013310441B9A93426C
S214003860BAD1AEE7409ABCE757F8044B2FFA94F16A
S2140038702FFA84F41FFA84FCD5F800804CEA014C39
S2140038802CFB0822090C0904D5F804C041EA1441AF
S214003890083521FB0C22A6E711F9017B34F802CB90
S2140038A01CFB0722A5E700232A983E9E99464FF068
S2140038B0010ED3E78B68C06858434B6858438000B6
S2140038C070472DE9F74F0C9E0096DDE90D670197CE
S2140038D00F69DDE90FBADDE911C986460C46904648
S2140038E01D46AFB94F699FB9DF68BF0710D18F6813
S2140038F0012F0DD1CF68012F0AD1B768012F07D14C
S2140039007768012F04D103B0BDE8F04FFFF71DBE66
S214003910DCF80430012B1ED16B68012B1BD17368B9
S214003920012B18D1DCF808309B0714D12B68012B2B
S21400393011D1019BCDE90D63009B0C9342462B46AB
S21400394021467046CDE911C9CDE90FBA03B0BDE8EE
S214003950F04FFFF7E2BD019BCDE90D63009B0C9392
S21400396042462B4621467046CDE911C9CDE90FBA2D
S21400397003B0BDE8F04FFFF71BBE10B40446084680
S21400398011462269A2B9626992B9C26892070FD13C
S214003990A268012A0CD1E268012A09D18A68012AA4
S2140039A006D14A68012A03D15DF8044BFFF7FEBD35
S2140039B05A68012A0FD14268012A0CD14A68012AA6
S2140039C009D19B689B0706D10368012B03D15DF8DC
S2140039D0044BFFF7B3BD5DF8044BFFF76BBF2DE953
S2140039E0F04FA9B0CF68379E0C970F6916975768A7
S2140039F012681C92B268219272684C6922924A68D8
S214003A0098680B941B978C694F6A05920A68896AB6
S214003A101A9007915868F168DB68339D06978B42C9
S214003A2040F06E820B99012900F36D82A968032984
S214003A3040F069826968032940F065826142099115
S214003A401A990E94594312915900089103EB4301B9
S214003A501791011918910B9949421D910C995943D8
S214003A6024911D99002B01FB03F1239123F0030100
S214003A70B8BF002111911198591A8342B8BF00218E
S214003A80259100210A911391D91E27911399229806
S214003A90814203DB002029B0BDE8F08F0999129C13
S214003AA000290E99C8BF00210D910D98099901446F
S214003AB0239804FB010110910B981A99179C1990F2
S214003AC001440F911D99149100210D981591349978
S214003AD004FB00111F9118990329A8BF0321209108
S214003AE01599219881420DDB169809990144099190
S214003AF01399013113910E99091A0E911899091A02
S214003B001891C3E714990A9800291999C8BF00218B
S214003B101E91389901440391DDE91B1602913699EE
S214003B200191002110980491329901442691279919
S214003B300498814224DC11980A99109C01448C4612
S214003B40389901EB0C0E0146329800EB04089942B6
S214003B50C0F2798125990C9861440A911499014420
S214003B6014911599013115911999091A19912498EA
S214003B701099014410910C980F99091A0F91AFE70C
S214003B800199269FDDF83490D1E90054D1E902016D
S214003B9000913946049F01EB070E1F9F3946049F8C
S214003BA001EB07082099494500F3DF800299D1F818
S214003BB000C02CEAEC77BD4037684FF0804E4FF0DF
S214003BC00008C5FB07E84FEADE77BCF1000F47EABE
S214003BD048084FF00101D4BFCCF10007002701FAD6
S214003BE007F5013D58FA07F708EA050E45FA01F50C
S214003BF048BF6D180299AE45D1F804E02EEAEE757E
S214003C0004FA05F475684FF080484FF00009C4FBCD
S214003C1005894FEAD87CC8BF0137BEF1000F4CEAD1
S214003C2049094FF00101D4BFCEF1000C4FF0000C53
S214003C3001FA0CF4013C59FA0CFC09EA040544FAB2
S214003C4001F448BF64180299A5428D6825EAE57418
S214003C5000FA04F0B468C8BF0CF1010C4FF0804EB7
S214003C60002D4FF00008C0FB04E84FF00101D4BF60
S214003C706D42002501FA05F04FEADE7E4EEA48085E
S214003C80013858FA05F508EA000440FA01F048BF82
S214003C90401802998442CC68009924EAE47001FA3C
S214003CA000F1F0684FF0804E4FF00008C1FB00E8CE
S214003CB0C8BF0135002C70464FF00101D4BFC4F1D7
S214003CC0000E4FF0000EC00F01FA0EF140EA480851
S214003CD0013908EA010458FA0EF84FEA610148BFB4
S214003CE001318C4205990F440699C8BF08F10108B6
S214003CF08F42B8BF0F4605998C4406998C45B8BFCD
S214003D008C4605990D4406998D42B8BF0D46059917
S214003D10884406998845B8BF884607998F42A8BF49
S214003D200F4603990F7007998C45A8BF8C460399D8
S214003D3081F801C007998D42A8BF0D4603998D7082
S214003D4007998845A8BF8846039981F80380049997
S214003D5004310491039904310391029910310291C0
S214003D600199103110360191E1E61E9FFFB9DEF889
S214003D700070D8F800C0009942FA87FA4FFA8CFB18
S214003D800BFB0A5547F3072A4CF3072B92440BFB11
S214003D900A4447F3074A4CF3074B02EB27674FEA00
S214003DA02C6C92440CFB07110BFB0A0000915EF88A
S214003DB0037058F803C0009942FA87FA4FFA8CFB52
S214003DC00BFB0A5547F3072A4CF3072B92440BFBD1
S214003DD00A4447F3074A4CF3074B02EB27674FEAC0
S214003DE02C6C0CFB07110F9F00919244022F0BFBCB
S214003DF00A0021DD0899089F51F808C057F80E7090
S214003E00009942FA87FA4FFA8CFB0BFB0A5547F3E8
S214003E10072A4CF3072B92440BFB0A4447F3074A46
S214003E204CF3074B02EB27674FEA2C6C92440CFBD3
S214003E3007110BFB0A00009112998E44179909F19D
S214003E4001098844AEE636981F9D50F821000D9E65
S214003E5008EB01040D44209FB74230DC1B9C54F84D
S214003E60216026EAE674A0401C9C54F82140002EEF
S214003E704FF080454FF00007C0FB0457D4BF764292
S214003E8000260120ED0FB04045EA4707013807EA53
S214003E90000437414FEA600048BF0130844205986D
S214003EA0C8BF0137074406988742B8BF0746079839
S214003EB08742A8BF07460EF8017B013147E61E9FE2
S214003EC037B994F9007095F90090174409FB07007C
S214003ED0E75615F90390174409FB07000F9F022FBA
S214003EE008DD089FE75707EB020A089F15F90790B9
S214003EF009FB0A00129F3C44179F01363D44AAE77F
S214003F006FF00200C7E54FF0FF30C4E52DE9F04F33
S214003F10B3B08868009018683D9D019098681C9022
S214003F205868DB680293AB681D936B68CD68419C4C
S214003F3003950D690D95556812682392A268249220
S214003F406268219325924B694A680C9322958B6987
S214003F5004920A6826924A6A05928A6A0692009A2B
S214003F6012F0030240F0CA810199012940F0C6818F
S214003F70E168079108935942C31810930C9B079C5D
S214003F8009911D990B925B4261431F93029C039B10
S214003F901E9163431C9927931F9B169261436343AC
S214003FA0209128930099009B033103F1030323F02B
S214003FB00303B8BF00232D93169B259A934203DB79
S214003FC0002033B0BDE8F08F099B0C9A002B089BAD
S214003FD0C8BF002319931C9B13441B93199A099B73
S214003FE01344209A53432993199A1E9B53432A93AA
S214003FF0289B0F930C9B1A931F9B11930023219AC7
S2140040001593109B9342A8BF13463193159B249A91
S21400401093420DDB0D9A099B13440993169B0133BB
S2140040201693089B9B1A0893109B9B1A1093C3E742
S214004030119B299A002B1A9BC8BF00230E930F9B37
S2140040400E9913441793079A2A9B01FB02332B936E
S2140040500A463C9B029901FB02331B9A1D992C933E
S2140040608A42A8BF0A4600233092079A9A4240F333
S2140040703381429A0B9902EB010A2299239A01EBAB
S2140040808309409901EB83082B9919442E9100214E
S21400409002EB83020A91DCE0D8F808101391D8F8F6
S2140040A00C100A9814913E99DDF85CC0DDF8B8E073
S2140040B0199FD8E9006501442F9131998F42C0F2CB
S2140040C0D780D9F80000139C20EAE0718E40116872
S2140040D04FF080474FF0000CC6FB017CFE0F002817
S2140040E0019946EA4C0CD4BF46420026B14001393D
S2140040F0D9F804005CFA06F60CEA01074FEA6101FB
S21400410048BF01318F4220EAE07105FA01F5516897
S2140041104FF080474FF0000CC5FB017C4FEAD77587
S214004120C8BF01360199002845EA4C0CD4BF454269
S2140041300025A9400139D9F808005CFA05F50CEA13
S21400414001074FEA610148BF01318F4220EAE07162
S21400415004FA01F491684FF080474FF0000CC4FB5E
S214004160017C4FEAD774C8BF01350199002844EA9C
S2140041704C0CD4BF44420024A14001395CFA04F43C
S2140041800CEA01074FEA610148BF01318F42D9F8B6
S2140041900C701499D06827EAE77C01FA0CFC4FF003
S2140041A0000E4FF08041CCFB001E4FEAD17141EA71
S2140041B04E0EC8BF01340199002FD4BF7F4200279E
S2140041C001FA07F0013804990EEA000C5EFA07FEC1
S2140041D04FEA60000E4448BF013005998445C8BFC9
S2140041E00EF1010E8E42B8BF0E4606998E42A8BF4B
S2140041F00E4604998AF800600D4405998D42B8BFB2
S2140042000D4606998D42A8BF0D4604998AF80150BE
S2140042100C4405998C42B8BF0C4606998C42A8BF40
S2140042200C4604998AF802408E4405998E45B8BF1C
S2140042308E4606998E45A8BF8E460A998AF803E0F0
S21400424004310A910AF1040A103209F1100908F142
S214004250100800990A9881423FF71EAF0B9A2D99D5
S2140042600A440B92009A1344179A01321792FCE6FE
S2140042702C990E981290614418912F9971441298B7
S214004280309CA04205DB1E998E44209901378C4451
S21400429013E71898269C90F9000091F900B0204486
S2140042A000FB0B6691F901B0139C00FB0B5591F9CE
S2140042B002B000FB0B44139491F903B0149C00FB6E
S2140042C00B4014901298029C0130129018982044CB
S2140042D0189007980144D2E7039A119B1344119350
S2140042E0159B013315931A9B9B1A1A931B9B9B1ABB
S2140042F01B93279A0F9B13440F9387E6BDF80C2059
S214004300BDF870801692BDF83420BDF808A017924C
S21400431082B2129208FB02F20AFB02F21892BDF871
S21400432000200D920AFB02F5BDF8902013925B4226
S2140043306A439BB21492BDF8942025930C9B149963
S21400434011925B424A434FF0000E9BB21992CDF891
S2140043502CE02793BDF8043073457FF731AE259BDC
S21400436010930B9B0A93BDF8843024934FF0000BF8
S2140043702FE0BDF94030002BC3F10002C8BF002279
S2140043800792279A0F92BDF874200C92079A0C9900
S2140043901A4408FB02F21A92079A4A431B920A9A98
S2140043A0099200220292129AD31A249A9342A8BF24
S2140043B013462093029B139A934218DB0A9B149A87
S2140043C013440A93179A109B13449BB20BF1010BEC
S2140043D01093119B9B45CCDB0B9B199A13440B93B4
S2140043E0189A3C9B13443C930EF1010EB2E7BDF9BC
S2140043F03C200C9E099B0893A8EB0201002AC2F100
S2140044000000C8BF0020B1424FF00003A8BF3146ED
S21400441002441C461E911F9254457AD0429A08992F
S2140044200A4415920D9A1A441C923EE0409ADDF812
S21400443068C052F82360079F1B9A0E92209ABA42D1
S2140044403CDC229A52F8237027EAE7729640239AB9
S21400445052F82320002F4FF080414FF0000CC6FB8F
S214004460021CD4BF7F4200270122C90FBA4041EA8E
S2140044704C0C013A0CEA02065CFA07FC4FEA6202B0
S21400448048BF01329642049AC8BF0CF1010C94440E
S214004490059A9445B8BF9446069A9445A8BF944694
S2140044A0159A02F801CB013315921C9A9342BDD19E
S2140044B0089A0D990A4408920134ADE71F9A3C9970
S2140044C0039062440AFB02420A4400920E9A1118B4
S2140044D03E9A05FB013111441E9A9146039A914576
S2140044E006DC0E9A0C990A440137C4440E92A5E7DE
S2140044F0009A92F90090269A914491F9002002FBC6
S2140045000966039A01320392009A524400922944A3
S214004510E2E7099B169A2B440993029B0133029308
S2140045200F9B13449BB20F9344E72DE9F04F2DEDFC
S214004530048BB9B0D3F80CA04B9D479EEC68A245FF
S21400454040F0E0829F685B682993B36804937368C1
S2140045500E934B692A938B692B93CB682C930B692C
S2140045602D935368179313681893AB6819936B6869
S2140045702E934B6805930B682F934B6A06938B6AB2
S2140045801197079303680893049B0E990E9803FBF4
S2140045900AF3BAF1000F14935346B8BF0AF10303A7
S2140045A0C3F38F021B92049A12FB01F291B202F03F
S2140045B0010233924FEA4A02319100920499043282
S2140045C0C3F38F0323924FEA8A02159241439A005F
S2140045D001EBD171259204F00302199CC1F34F0040
S2140045E0329024EAE47402EB83006043249011982E
S2140045F000FB0AF036904A9800EB031022901798BA
S21400460000EB03103590189800EB031334931B9BB4
S2140046109B009BB21E9393B230931E9B1A4493B298
S214004620159A2893C1F34F035A431D92009A534399
S2140046301C93049B23EAE3730AFB03F326930023ED
S2140046400B930B9B2E9A934205DB002039B0BDECF2
S214004650048BBDE8F08F2D9A0B9B0E9913FB02F38B
S2140046602B9A9B1A1BB2002BC3F10002C8BF002274
S2140046700392299AD21A8A42A8BF0A461A92149915
S214004680039A1A984A43510008EE101A0E99091A0E
S2140046901691169814994143490008EE901A03990A
S2140046A0002908BF00222792119A0B4453433793E0
S2140046B04C9B0F9300230C930C9B199A934206DB9A
S2140046C04C9B249A13444C930B9B0133B8E70C9BEA
S2140046D02C9A13FB02F42A9BE41A039B24B22BB1F8
S2140046E018EE102A0898002120F05AFF379BDDF8B4
S2140046F00C90279F1D19469B0AFB0535BDF9BC305B
S21400470009EE103A1A9B994534DB169B3BB1089B81
S21400471018EE902A002103EB470020F041FF4A9B49
S21400472003F11007189B03F11006179B03F1100EF8
S2140047300F9B03F1040C1B9B099300230A93099B10
S214004740002B3DD1259A0F9BDDF824B01344DDE9FC
S21400475034EC1D461F461E9A229B01934FF001081B
S214004760289B9A4240F08581309BEB180F930C9B58
S2140047700133A0E7089BAB4603EB47080026049BE3
S2140047809E4206DB269B1F44369B09F101091D4409
S214004790B8E7331902D4119A9A4209DC009A00212C
S2140047A0404620F0FDFE009B01369844D344E6E7E1
S2140047B019EE103A52464146584601F093FAF2E78F
S2140047C057E90453019357F8083C0A9A0293089B4A
S2140047D057F804BC03EB42031293489B1299134408
S2140047E01393134604339BB20A93139B0D93329B89
S2140047F01093109B002B40F0E9801D9A129B1C9989
S2140048001344139A0A443399D1B11C9813991D9CEA
S21400481009561298005B019C10FB0155588892F9C6
S214004820011010FB01410191988892F90210029C38
S21400483092F90320DB8810FB0141029113FB02BBB7
S2140048405EF8101C21EAE1739D4056F8103C0029E2
S2140048504FF080424FF00000C5FB0320D4BF494212
S21400486000210123D20F8B4042EA4000013B00EAC0
S214004870030408414FEA630348BF01339C42059B8B
S214004880C8BF01301844069B9842B8BF1846079B1D
S2140048909842A8BF18460CF8040C5EF80C1C019B46
S2140048A021EAE1708340184656F80C3C00294FF088
S2140048B080424FF00004C0FB0324D4BF49420021CD
S2140048C00123D20F8B4042EA4404013B04EA030072
S2140048D00C414FEA630348BF01339842059BC8BFAB
S2140048E001341C44069B9C42B8BF1C46079B9C4256
S2140048F0A8BF1C460CF8034C5EF8081C029B21EA75
S214004900E1708340184656F8083C00294FF0804274
S2140049104FF00004C0FB0324D4BF4942002101230A
S214004920D20F8B4042EA4404013B04EA03000C41E8
S2140049304FEA630348BF01339842059BC8BF013462
S2140049401C44069B9C42B8BF1C46079B9C42A8BFC3
S2140049501C460CF8024C5EF8041C56F8043C21EA8F
S214004960E1700BFA00F000294FF080424FF000048F
S214004970C0FB0324D4BF494200210123D20F8B4041
S21400498042EA4404013B04EA03000C414FEA630395
S21400499048BF01339842059BC8BF01341C44069BA0
S2140049A09C42B8BF1C46079B9C42A8BF1C46099B5E
S2140049B00CF8014C03F1FF3B1FFA8BF309931037F9
S2140049C010360EF1100E0CF1040CB8E608680D9BBC
S2140049D01F9000981A68445853F80A302FFA82F04D
S2140049E04FEA32222FFA82F220922FFA83F2219295
S2140049F04FEA33232FFA83F31F9ABDF884901FFAE9
S214004A0084F848EA024849EA004928FB0955240C7C
S214004A10240444EA1248BDF88040019A44EA03445C
S214004A2028FB04220192239AD1F804905458219A24
S214004A30000C1FFA84F8000440EA124048EA0948CD
S214004A40029A28FB00220292240C209A1B0C2404B3
S214004A501B0444EA194443EA124324FB03BB0D9BA0
S214004A60009A13440D93159B1944109B013B9BB26F
S214004A70BEE613464898019AC41852F8041B0898D4
S214004A8001925A1C92B200EB43030020319E8642EC
S214004A902EDC5CF8040B5EF8044B20EAE0739940C9
S214004AA000284FF08043D946C1FB0439D4BF4042AA
S214004AB00020DB0F08FA00F143EA4909013909EA48
S214004AC0010459FA00F94FEA610148BF0131059B1C
S214004AD08C42C8BF09F101099944069B9945B8BFA5
S214004AE09946079B9945A8BF994607F8019B37E664
S214004AF01E8894F9009016FB0911009E013054445C
S214004B003344C3E76FF00200A0E58B68C0685843E3
S214004B104B685843400070472DE9F74F0E9D0195AE
S214004B208D680093012DDDE90C76DDE90FBADDE92D
S214004B30119884460C46964621D11D68012D1ED13B
S214004B40B568032D0AD17568032D07D18D69012D2F
S214004B5004DC03B0BDE8F04FFEF741BF019B0C97A5
S214004B60CDE90D63009B724621466046CDE911985B
S214004B70CDE90FBA03B0BDE8F04FFFF7D6BC019BF6
S214004B800C97CDE90D63009B724621466046CDE941
S214004B901198CDE90FBA03B0BDE8F04FFFF7B6B9EC
S214004BA00846DB681146C2689A4204D10368012BA6
S214004BB001D1FFF7AABF0020704700002DE9F04F93
S214004BC097B08B460593BDF988300693BDF98C30B7
S214004BD00793BDF890300293269B099213440B93DB
S214004BE0029B0D9001EB43030393029B03F0030328
S214004BF01093029B10999B089A001392029A5418DD
S214004C0004EB83020C9200EB83020892099A520886
S214004C1014920BEBC3020F92039A02EBC3030A93A0
S214004C20064601210023149A934240F08880269A73
S214004C3002EB4300DDE90C1203FB0124099AD207BC
S214004C404FEAC3054FEA430A74D5259ADFF8DCE33A
S214004C5052F83310A44688460F9B5B4540F0B5815A
S214004C60139B1C44029B03F003032344A34240F01F
S214004C70CF81059B5E5926EAE6739940209B002467
S214004C805B59A642A4464FF08042C1FB032CD8BF16
S214004C9074420123D20FA34042EA4C0C013B0CEABB
S214004CA003015CFA04FC4FEA630348BF01339942F0
S214004CB0219B209AC8BF0CF1010C9C44069B9C4586
S214004CC0B8BF9C46079B9C45A8BF9C46269B03F8FE
S214004CD00AC0059B5C59555924EAE473002216461F
S214004CE0944208FA03F34FF08041C3FB0516D8BF81
S214004CF0624201239340C90F41EA4601013B51FA43
S214004D0002F201EA03044FEA630348BF01339C4200
S214004D10219BC8BF01321344069A9A42B8BF1A466E
S214004D201346079A9A42A8BF1A4613460B9A02F8E9
S214004D300A300130099B184417B0BDE8F08F029A7C
S214004D40039F1596B2180E92259ACDF804B052F825
S214004D50330052F821200492914604460F9A019D92
S214004D60AA4240F0D780089A029D109EAF180A9D6E
S214004D700E95154635442E46B24240F00F81059AF0
S214004D8052F8336026EAE6729040209A52F83320B2
S214004D90002E4FF080454FF00007C0FB0257D4BFEF
S214004DA0764200260122ED0FB24045EA4707013A57
S214004DB007EA020037414FEA620248BF01329042DA
S214004DC0219AC8BF01371744069A9742B8BF1746BC
S214004DD0079A9742A8BF1746269A02F81370059AB4
S214004DE052F8335025EAE5729440209A52F8332060
S214004DF0002D4FF080404FF00006C4FB0206D4BFE3
S214004E006D4200250122C00FAA4040EA4606013A3C
S214004E1006EA02042E414FEA620248BF013294427B
S214004E20219AC8BF01361644069A9642B8BF16465F
S214004E30079A9642A8BF16460B9A02F81360059A80
S214004E4052F82140049A24EAE47E02FA0EFE209AE2
S214004E5052F82120002C4FF080404FF00005CEFB8A
S214004E600205D4BF644200240122C00FA24040EADB
S214004E704505013A05EA020625414FEA620248BFA7
S214004E8001329642219A2098C8BF01351544069AE9
S214004E909542B8BF1546079A9542A8BF1546269A6A
S214004EA05554059A50F8210052F8215025EAE5722B
S214004EB0002D09FA02F24FF080444FF00006C2FBC4
S214004EC00046D4BF6D4200250122E40FAA4044EA02
S214004ED04606013A06EA02002E414FEA620248BF41
S214004EE001329042219A0C98C8BF01361644069AA1
S214004EF09642B8BF1646079A9642A8BF16460B9A21
S214004F005654159A02441646089A024401330892EB
S214004F10023188E6019A56F804ABD2F800E03A6807
S214004F2011922FFA9AF22FFA8AFA4FEA12480E9D39
S214004F304FEA084848EA1A481FFA8AFA4AEA024A32
S214004F4055F8042B0E952FFA92F512952FFA82F249
S214004F504FEA154C4FEA0C4C4CEA124C92B242EA1D
S214004F6005422AFB0E00119D2AFB0544049D22FBE8
S214004F700E5E119D22FB0592019DD7F80490D5F890
S214004F8004A008350195083728FB0A0028FB0944C9
S214004F902CFB0AE504952CFB0929DFE6019D17F991
S214004FA001CB35F9028B01950E9D12F901AB35F94F
S214004FB002EB0E95049D18FB0C5518FB0A001EFB11
S214004FC00A4404951EFB0C99D6E65CF8042B2FFACF
S214004FD092F92FFA82F209EA0E0693B246EA1246D0
S214004FE043EA0943DBF8002023FB0211039A126808
S214004FF023FB0283039FDBF80420D7F804800837DE
S2140050000BF1080B039726FB021126FB083823E654
S21400501014F9012B3BF8026B0A9F16FB021137F8B6
S214005020026B0A9716FB028820E600BF0000FFFF0F
S2140050302DE9F04F8BB0DDE91479DDE919A81D687C
S2140050400C4616464FF0000B1DB928460BB0BDE8BF
S214005050F08F23690893E3680793DAF80C30069319
S214005060D9F8003005937368049333680393A368F4
S214005070189A1699CDE901B323680093384643463B
S21400508000F08DFBD9F800301F44DAF80C30013DF3
S2140050909844D9E7002070472DE9F04F9BB00E9357
S2140050A0269B09925B101193289B279A12915B000E
S2140050B01093119B0C9053430E9A02EB4303289ACD
S2140050C00A93289B002A23F00F03B8BF00230893F7
S2140050D01346089A08999B1A289A8A42B8BF002352
S2140050E013441693279B5B001493129B0093042390
S2140050F0059300230193279B013B1893A2F10F030E
S2140051001393019A0E9B13440793189B934240F304
S214005110CD82009B00985A1E00231946C0F101005C
S21400512005E012F9014F2144289C14572344289D7A
S2140051308418AC42F5DB299A4A430292299A5343D3
S2140051400393099B5BB1019A53F82230029A1A44E2
S2140051500292099B059A9B58039A1A440392089B4D
S214005160009A013BD3180B930C9B0493119B069358
S214005170279B01331993069B002B00F09081289AF9
S214005180009BDDE902B99E18049B4F469D185B46BE
S2140051900022A3E0009988582FFA80FE04998C58C4
S2140051A02FFA84F831682FFA90F02FFA94F428FB3F
S2140051B00E3C2FFA81F30F9324FB00C317932FFAAC
S2140051C091FC0F9928FB017724FB0C7429682FFAB1
S2140051D081F82FFA91F728FB0EBE0F9928FB019154
S2140051E027FB00E0DAF8048027FB0C11D6F804E071
S2140051F02FFA88F70D9BD3F804902FFA89FC2FFA24
S21400520098F82FFA99F9179B2CFB07332FFA8EFB89
S21400521029FB08332FFA9EFE2CFB0B4429FB0E4974
S2140052206C682FFA84FC2FFA94F42CFB07002CFBF6
S2140052300B1124FB0808DAF808B024FB0E1ED6F87B
S21400524008C02FFA8BF10D9880682FFA80F42FFA99
S2140052509BFB2FFA90F024FB01332FFA8CF720FBF0
S2140052600B332FFA9CFC24FB079920FB0C90D5F8F7
S21400527008902FFA89F42FFA99F924FB018824FB69
S21400528007E429FB0B8BDAF80CE029FB0C4CF168E1
S2140052902FFA8EF80D9CE7682FFA87FA2FFA9EFEF3
S2140052A02FFA97F42AFB08332FFA81F924FB0E33E2
S2140052B02FFA91F12AFB090024FB0107ED682FFA6B
S2140052C085F42FFA95F524FB08BB24FB09CC25FBB7
S2140052D00EBB25FB01C9159D1032103604991144EA
S2140052E00D91009901EB020A05F110011591139931
S2140052F091423FF74FAF0899049A0B980A44144618
S214005300511E089A289DAA42C0F2B780169A0199A3
S214005310A2180492249A52F821200D92259A0D98EC
S21400532052F8215025EAE57E002D03FA0EF34FF0E1
S21400533080424FF00001C3FB0021D8BF6D424FF002
S2140053400103C8BF002503FA05FAD20F0AF1FF3A97
S21400535042EA41024AFA03FC02EA0A012A414CBF29
S2140053606344634699420599249B5B580F93259B9B
S2140053700F9E5C5824EAE47107FA01F74FF0804369
S2140053804FF00000C7FB0630C8BF0132DB0F002C11
S21400539043EA4003D8BF64424FF00100C8BF002470
S2140053A000FA04F6013E46FA00F703EA060823412F
S2140053B04CBF3818384680450D980BFA0EFE4FF055
S2140053C000084FF0804BCEFB00B858464FEAD0702E
S2140053D040EA4800C8BF013300EA0A0A284148BF2D
S2140053E00CF1010C0F9DE24509FA01F14FF0804ED9
S2140053F04FF0000CC1FB05EC75464FEAD57545EA43
S2140054004C05C8BF013055FA04F406EA050648BF45
S21400541001372A99BE42C8BF01340A440B440844E7
S2140054200C442B998A42B8BF0A468B42B8BF0B463B
S2140054308842B8BF08468C42B8BF0C462C998A42B0
S214005440A8BF0A4607990A702C9A9342A8BF13462B
S2140054504B702C9B279A9842A8BF18462C9B8854C2
S2140054609C42199AA8BF1C468C54149A0B461344A7
S2140054700793069B013B06937DE610F901CF289D16
S214005480465711F9015F15FB0C3315FB0677289D6F
S2140054904D5701321CFB05BB16FB059932E7269BD0
S2140054A0D80779D5009B289A9818069B049AD61890
S2140054B0009AD518139A9A427CDC089A049B1344E7
S2140054C0049A514228985A18904200F3DD80259B92
S2140054D0019A019953F82220029B22EAE274A34023
S2140054E01C46249B53F821304FF080400025C4FB17
S2140054F00305C10F002A41EA45054FF00103D4BF5A
S214005500514200218B40013B55FA01F105EA0300A8
S2140055104FEA630348BF01339842059A259B9C587F
S214005520039B24EAE47003FA00F31846249B9B5876
S214005530C8BF01314FF08042002C4FF00005C0FB81
S2140055400325DCBF63420693D20F069B42EA45055D
S214005550012202FA03F3013B05EA03001341069A0F
S214005560154148BF013398422A9BC8BF01351944EC
S2140055701D442B9B9942B8BF19469D42B8BF1D4695
S2140055802C9B9942A8BF19460A9B19702C9B9D42DA
S214005590A8BF1D460A9B5D70009B109A134400939B
S2140055A0019B023301930A9B02330A93059B08333F
S2140055B00593A6E5009A0168D758049AD2582FFAA0
S2140055C087F82FFA82FC2FFA81FE2FFA97F72FFA28
S2140055D092F22FFA91F1029C2CFB084822FB0787D7
S2140055E0039C2CFB0E4C22FB01C16C68D0F804C057
S2140055F072682FFA84F92FFA82FE2FFA8CF82FFAA7
S21400560094F42FFA92F22FFA9CFC2EFB097722FBD9
S21400561004742EFB081122FB0C12D5F80880D0F873
S21400562008E0D6F808C02FFA88F72FFA8CF12FFA80
S2140056308EF92FFA98F82FFA9CFC2FFA9EFE21FB83
S21400564007442CFB084821FB09222CFB0E2EEA6897
S214005650D0F80CA0F5682FFA82F42FFA85FC2FFA02
S2140056608AF12FFA92F22FFA95F52FFA9AFA2CFB76
S214005670048825FB028202922CFB01EE25FB0AE23F
S21400568003921033103011E70B9C13F9012B14F919
S214005690010F0B94029C12FB00400290289C0B9872
S2140056A00057039C12FB004203920BE7279B1098BF
S2140056B0002B4FEA5302129BACBF1146002100FBA1
S2140056C0013300930E9B4FEA4202B8BF00221344F8
S2140056D01A46279BD90717D503F18044099B013C3E
S2140056E003EB840B249B03EB8400259B03EB8404D1
S2140056F0289B002723EAE37E4FF0804CB8464FF005
S2140057000109269B9F4203DB00201BB0BDE8F08FFB
S214005710099B002B37D0DBF80050002328998B42DA
S21400572033DB0C9B2168066873440C9321EAE17313
S2140057309D4000296346C246C5FB063AD4BF49428F
S2140057400021DB0F09FA01F543EA4A0A013D0AEA9D
S21400575005065AFA01FA4FEA650548BF01352A9B45
S214005760AE42C8BF0AF1010A9A442B9B9A45B8BFBD
S2140057709A462C9B9A45A8BF9A46279B82F800A07B
S21400578001371A44BDE7099DC7E70C99299EC956FB
S2140057903144009EF656013306FB0155BEE72DE95F
S2140057A0F04F93B0814606910D93DDE9213101EB70
S2140057B0D171491008911C991C98069E89B2002B3D
S2140057C041EA004B1946B8BFD91C88100090580013
S2140057D00790209821F0030A20990028C1F10001C3
S2140057E0C8BF00210391039801218140013904912B
S2140057F049100591013109910D99023101910699DF
S21400580001EB0A0509EB0A010C9100210291C9F18E
S21400581000011191209921EAE1710F9102990898EF
S21400582081424BDB20EAE076DDE9061006FB00113C
S2140058302298C0073ED502B112688C460098002810
S21400584040F0DC800C9D5144AAEB05002F18BB42AB
S21400585000F3E880209B1F9C23EAE3739A404FF0F6
S21400586080410023C2FB0413209A002ADCBF524268
S21400587000921846CB0F0099012243EA40038A4063
S2140058800098013A53FA00F403EA02014FEA620272
S21400589048BF01321E9B9142C8BF01341C44239B63
S2140058A09C42B8BF1C46249B9C42A8BF1C460D9B2E
S2140058B003F81640002013B0BDE8F08F002A6AD027
