S02B00006275696C642F72656C656173652F74666C6974655F6D6963726F5F68656C6C6F5F776F726C642E73E9
S214000000001000203903000035030000350300000F
S21400001035030000350300003503000035030000FB
S21400002035030000350300003503000035030000EB
S21400003035030000350300003503000035030000DB
S21400004035030000350300003503000035030000CB
S21400005035030000350300003503000035030000BB
S21400006035030000350300003503000035030000AB
S214000070819502008D9502003503000035030000CF
S214000080350300003503000035030000350300008B
S214000090350300003503000035030000350300007B
S2140000A0350300003503000035030000350300006B
S2140000B03503000035030000952D000035030000D1
S2140000C0350300003503000035030000350300004B
S2140000D0350300003503000035030000350300003B
S2140000E0350300003503000035030000350300002B
S2140000F0350300003503000035030000350300001B
S21400010035030000350300003503000010B5054C2C
S214000110237833B9044B13B10448AFF300800123AE
S214000120237010BD581200200000000008B0030025
S21400013008B5034B1BB103490348AFF3008008BD65
S214000140000000005C12002008B00300A3F5803A0F
S214000150704700BF174B002B08BF134B9D46FFF799
S214000160F5FF00218B460F461348144A121A2AF050
S2140001702DFB0E4B002B00D098470D4B002B00D0CC
S21400018098470020002104000D000D48002802D0EA
S2140001900C48AFF300802AF0B5FA2000290029F0B9
S2140001A059FB2AF089FA00BF000008000000000092
S2140001B0000000000010002058120020B030002080
S2140001C000000000000000000F20704708B505483A
S2140001D0012100F0C1FA29F01FF9BDE8084000F03F
S2140001E019B800BF00350A000148012100F0B4BA72
S2140001F000350A00024B0222C3F8EC21704700BF0C
S21400020000A00046024B0222C3F8EC21704700BF54
S21400021000A0004470B5384D384E0FCD88B001AC04
S2140002200FC495E80700364D84E8070035480121DD
S21400023000F092FA30460121012400F08DFA324B8C
S214000240039301A928468DF8124001F029FF2346A2
S214000250042200210A2001F03BFC22460023022152
S2140002600A2001F035FC234604220721052001F070
S2140002702FFC0422214623460A2001F029FC234BAA
S214000280AB670B236B674FF4487002F0BFFD14207A
S214000290FFF7B8FF02F0BAFD2320FFF7ABFF02F02E
S2140002A0B5FDB9212846FFF7ADFF01F05FFFFFF768
S2140002B0A1FF00231A4619460A2001F009FC002374
S2140002C01A4602210A2001F003FC234600220721D9
S2140002D0052001F0FDFB2346002221460A2001F0FE
S2140002E0F7FB284601F03CFE0021A9673046696707
S2140002F000F032FA08B070BD1C0A03000062040069
S2140003000008014000350A0000127A001E1D001287
S214000310FEE7000005490A681318054883428CBFAB
S2140003204FF0FF320B601046704700BF04100020ED
S21400033000000420FEE7000008B500F083F8124B2A
S21400034012498B4212D3124B124900208B4218D30B
S214000350FFF700FF186850F82240586840F822401F
S214000360013298688242F5D30C33EAE70022F8E7B8
S2140003701C6844F8220001325C68A242F8D30833B5
S214000380E4E70022F8E700BF10B003001CB003004B
S2140003901CB003001CB003000048704700F0490280
S2140003A0104AD2F8943003F00703023B032B13D80D
S2140003B0DFE803F00C14020E0B4B1B68D2F80001AA
S2140003C0C0F304200130B3FBF0F07047074BF4E7AE
S2140003D0074B1B685B08F1E7054BEEE74FF400435D
S2140003E0ECE700BF00400E40141000200C10002068
S2140003F01010002008B5FFF7D3FF054BD3F80831DF
S214000400C3F308230133B0FBF3F0024B186008BDBA
S21400041000400E4008100020014B1868704700BFCF
S2140004200C100020054B1860054BD3F8943003F0F1
S2140004300703022B01D1FFF7DDBF70470C10002029
S21400044000400E40044B054A9A60D3F8882042F4D8
S2140004507002C3F88820704700ED00E0000000003E
S2140004604FF4004070474FF47A707047014B18689D
S214000470704700BF1410002008B50E4B984213D0EA
S2140004800DD8A3F50053984210D003F58063984228
S2140004900ED009485B21FFF73BFF112008BD074B34
S2140004A09842F6D10648F9E70648F7E70648F5E722
S2140004B00648F3E700A00140380A030000A4014004
S2140004C000320400002204000002040000120400AF
S2140004D02DE9F043044689B000680D46FFF7CCFFCF
S2140004E00121074600F038F93348012100F034F9BD
S2140004F02B79A1796079042201F0EAFA0023CDE98C
S2140005000133039303238DF80A3001238DF8093055
S21400051002238DF805302B79217920685A1E534224
S214000520534101AA8DF80E3001F018FCD4F8008073
S2140005302379E6794FEAC30900F080FED8F8342024
S21400054006FA09F61F23564003FA09F333405340D0
S214000550C8F8343000F076FE384600F08BFA26688D
S214000560164B2D68B0FBF5F09E4200F1FF350BD020
S21400057003F580639E4207D0B5F5803F04D310484C
S21400058040F28941FFF7C4FEF561237925680633FA
S21400059005EB031300245C600D22214604A82AF014
S2140005A015F90123284604A98DF8103001F076FBD2
S2140005B0204609B0BDE8F08300350A0000A00140DF
S2140005C08F0A0300037901229A40036803F1C0638F
S2140005D01A63704770B504680679E36959430B4B94
S2140005E09C424FF06405B1FBF5F50BD003F5806334
S2140005F09C4207D0B1F5C80F04D3054840F2FA2153
S214000600FFF786FE04EB0614E56670BD00A0014009
S2140006108F0A03000C4B984210D90C4B984210D905
S214000620022201230A490B640A49D1F8003123F05B
S214000630807343EA0263C1F8003170470022134614
S214000640F0E70122FBE700BF0048E8010090D00376
S2140006500000C84300400E4038B5114B5B68114B94
S21400066000221C46C9B21D798D4202D11D68854202
S21400067012D20132052A03F10803F4D10A4841F2E6
S214000680CE51FFF745FE032205494B6823F0407321
S21400069043EA02634B6038BD04EBC2025279F3E7CB
S2140006A000000E40B80B0300E30A03001F2810B535
S2140006B0044604D903484FF4B371FFF729FE01201E
S2140006C0A04010BD350B030070B5084C41F67136DE
S2140006D0256C2664FFF760FE0021FFF7BDFFADB274
S2140006E0B5421CBF0023236470BD00BF00000E404F
S2140006F0044BDB6B5B0604D4034AD2F8C830002BED
S214000700FBD1704700300E400000C64308B5FFF727
S214000710EFFF024B5868C0F3014008BD00300E40A2
S214000720044BD3F84421D20703D4D3F84021104217
S214000730FBD1704700400E4070B5064C41F671364E
S214000740256C2664FFF788FFADB2B5421CBF0023B8
S214000750236470BD00000E4038B5C0F30323013B90
S214000760092B24D8DFE803F02A2D232305161923A6
S2140007701C20154C0023C0F3043513B11846FFF7B0
S214000780CFFF04F1424404F5801405EBC404A40032
S214000790216038BD0D4C0123EDE70D4C1023EAE730
S2140007A00C4C4FF48033E6E70B4C0023E3E7BDE840
S2140007B038400A4841F66A31FFF7AABD084C0023C4
S2140007C0D9E7084C0023D6E7B0400E40E0400E4084
S2140007D0E8400E40F0400E4050410E40E30A030051
S2140007E000400E40C0400E4008B5C0F30313013B66
S2140007F0092B60D8DFE803F0050B0F195F5F1F2396
S2140008003C532E4BD3F80001C0F3042008BD2B4BFD
S214000810D3F81401F8E7294BD3F80001C0F30060C1
S2140008200130FFF743FF0138F0E7244BD3F80C0103
S214000830C0F30820EAE7214BD3F80801F8E7204B7D
S214000840984209D01F4B98420CD041F60E511E48D4
S214000850FFF75EFD0020D9E7184BD3F8200100F023
S2140008600F00DEE7154BD3F82001C0F30110D8E7E0
S214000870164B984208D003F5B01303F58053984200
S21400088006D041F63251E2E70C4BD3F82801ECE7EC
S2140008900A4BD3F82801C0F301200430C1E70C4B03
S2140008A0984205D1054BD3F8300100F00300ADE7C0
S2140008B041F64151CBE741F66651C8E700400E408D
S2140008C08006160080162E00E30A030090171A0012
S2140008D0A009140008B5FFF787FF013008BD000027
S2140008E000F00F00013808B5072844D8DFE800F00C
S2140008F0040F1943232D4335264BD3F8943003F0C9
S2140009000703023B052B3DD8234AD05C08BD214B8C
S214000910D3F8803003F00703013B032B34D81F4A7B
S214000920F3E71C4BD3F8843003F00703013B032B9B
S2140009302AD81B4AE9E7174BD3F8883003F0070399
S214000940013B032B20D8174ADFE7124B1B6F13F02F
S214000950010F0CBF07200920D8E70E4BD3F85C31F7
S21400096003F03003202B11D0302B11D0102B14BFE6
S21400097001200720CAE70C4842F2BB01FFF7C8FC7B
S2140009800020C3E70520C1E70120BFE70420BDE73C
S2140009900820BBE700400E408B0B0300910B0300C2
S2140009A0950B0300910B0300E30A030038B52C4BAC
S2140009B0984205460AD02B4B984207D02A4B9842BD
S2140009C004D02A4841F2CD61FFF7A2FC2846FFF783
S2140009D087FF234B9D42044611D0224B9D4212D0E6
S2140009E0214B9D4213D1224BD3F8804004F00704DC
S2140009F0042C2DD8DFE804F02A11151D19001C4B15
S214000A00D3F88440F2E71A4BD3F88840EEE717484D
S214000A1041F2FC61FFF77CFCEAE7BDE83840FFF7EF
S214000A201FBDBDE83840FFF721BDBDE83840FFF7E1
S214000A301ABDFFF7B5FC0E4B0446D3F80001C0F311
S214000A4000600130FFF732FEB4FBF0F4204638BDFC
S214000A50064841F24E71FFF75BFC0024F6E700BF44
S214000A60030020000500240002001E00E30A030025
S214000A7000400E4038B500F47813B3F5B01F0546B5
S214000A807FD02ED8B3F5402F69D011D8B3F5802F7C
S214000A9054D006D843B1B3F5003F5AD041F69A4138
S214000AA01AE0B3F5202FF9D1BDE83840FFF778BC3F
S214000AB0B3F5801F00F0A280B3F5A01F57D0B3F5A2
S214000AC0602FEBD15B48FFF70BFF072800F09680FE
S214000AD00928E9D041F290415748FFF719FC002059
S214000AE036E0B3F5381F5AD013D8B3F5001F5FD0E1
S214000AF00AD8B3F5D01F5DD0B3F5F01FCED14F485E
S214000B00BDE83840FFF752BFB3F5101FC6D14C48BA
S214000B10F6E7B3F5481F57D0B3F5781F00F082808C
S214000B20B3F5401FBAD14748FFF740FF464B04468F
S214000B30D3F82801C0F3012004302BE0FFF730FC87
S214000B40414BD3F80C31C3F308230133B0FBF3F069
S214000B5038BDFFF725FC3C4BD3F80831F3E7FFF729
S214000B601FFC394BD3F81431C3F30423EDE73448A4
S214000B70FFF71CFF344BD3F8303103F00303D840A3
S214000B80E6E72E48FFF712FF2F4B0446D3F8200166
S214000B9000F00F00FFF78AFDB4FBF0F0D8E7274817
S214000BA0FFF704FF284BD3F82031C3F30113E6E721
S214000BB02448A5E72348FFF7F9FE234B0446D3F85D
S214000BC02801C0F30110E5E72048FFF789FE013849
S214000BD0072824D801A353F820F000BFDF0A00003E
S214000BE01F0C00001F0C0000030C00001F0C000070
S214000BF01F0C0000FD0B00000B0C0000144B1868C7
S214000C00A6E7BDE83840FFF707BCFFF7C9FB0E4B69
S214000C10D3F80031C3F3042303FB000098E741F246
S214000C20C74159E7FFF7BCFB04462846FFF752FECC
S214000C30B2E700BF06000E00E30A030002001E0033
S214000C40050024000300200000400E40B8003200DB
S214000C5018100020014B1880704700BF1C100020A1
S214000C60013838B50C46032864D8DFE800F00244A3
S214000C701A2FB1F5007F04D3324842F6BB01FFF7C6
S214000C8047FB314AC4F30804D2F86838002BFBD17E
S214000C902E4A136A23F4FF7323F0010323431362DF
S214000CA038BD7F2904D9274842F6C801FFF730FB34
S214000CB0254A04F07F01D2F86038002BFBD1234B85
S214000CC01C6924F07F040C431C61E9E77F2904D9E2
S214000CD01C4842F6E301FFF71BFB1B4A04F07F01AA
S214000CE0D2F86438002BFBD1184B9C6924F07F04A3
S214000CF00C439C61D4E7154DD5F890305B0704D5BE
S214000D00104842F6F301FFF703FB6B6A23F030034B
S214000D1043F010036B62C4F3C311CB1C2A6B0C495F
S214000D200F2B01EA020128BF0F23214341EA03717A
S214000D302963B5E7BDE83840024842F60D11FFF7D3
S214000D40E7BA00BFE30A03000020C84300400E4095
S214000D5000F8FF0F022810B50C4604D0144842F6DF
S214000D602511FFF7D5FA134B5B6A13F0300F1BD033
S214000D70202C16D0302C17D0B4B10D484FF4255186
S214000D80FFF7C6FA0C4B0B4AD2F8901033EA010173
S214000D90FAD15B024ABFD2F8A0000120C0F380203F
S214000DA010BD4FF40003EEE74FF44003EBE700BF3F
S214000DB0E30A030000400E40FF33E107022808B5AF
S214000DC00CD129B1094B4FF48060C3F8A8005966CE
S214000DD04AB1BDE808400220FFF7BCBF044842F60F
S214000DE07611FFF795FA012008BD00BF00400E40BF
S214000DF0E30A030004282DE9F04704460F4691460F
S214000E001FD83D4B3D4A13F800A03D4B13F8008019
S214000E10F1B93C4B33F810301366012303FA08F897
S214000E20D2F8903013EA080FFAD1B9F1000F5AD071
S214000E300125324A05FA0AF5D2F890302B42FBD14A
S214000E4051E0BDE8F047304842F60A01FFF760BAC5
S214000E502E4B022833F8106047D1536A13F0300F38
S214000E6043D12B4BDB6B5A0504D4274842F61901B5
S214000E70FFF74EFA214A536ADB0705D5536A23F07B
S214000E80300343F010035362224D1C4BA8441E66E9
S214000E904FEA8808D8F80030002BFBD0B9F1000FD5
S214000EA021D05544AD002B68002BFCD0022C1AD163
S214000EB0CFB1124F796A11F0010118D0012220211A
S214000EC02046FFF77BFFD7F89C4001220021022036
S214000ED0FFF790FFC4F30A010220FFF7C1FE3E664B
S214000EE02B68002BFCD0BDE8F0870027CCE7204617
S214000EF0FFF730FFE7E700BF990B030000400E4006
S214000F009E0B0300AE0B0300E30A0300A40B0300D2
S214000F1000300E408004F210112838B50C460FD071
S214000F2000F00F000138072800F2EB80DFE810F031
S214000F30240066009A00E9007D00B400E900C200C3
S214000F40042912D1FFF768FA0546A8B10021284601
S214000F5000F094FA023C0A2C45D8DFE804F04A4731
S214000F603137444444443D0F4D00052904D1664BB7
S214000F701D68664B9D42E9D80025EBE70320052453
S214000F8001221146FFF736FFFFF79EFB0DB1FFF774
S214000F90AFFB5F4B5C67FFF72DFA0446FFF700FADE
S214000FA0FFF738FBFFF7B2FB01462046FFF7C4FB0E
S214000FB0002D5DD128460121BDE8384000F05EBA1C
S214000FC05448FFF727FB02200446D9E75148FFF7AD
S214000FD021FB01240320D3E742F27C11BDE8384010
S214000FE04D48FFF795B942F28111F7E70120032437
S214000FF0C6E700200424C3E70724C5E7062933D143
S2140010004548464D4FF40751FFF782F9424842F2F1
S214001010D011FFF77DF9FFF7C3F9FFF7FBFA404B56
S2140010200122C3F80826032321E006293D4DEDD012
S214001030013C092C2BD801A353F824F0951000008E
S21400104073100000811000008F1000008F10000049
S214001050171000008F1000008F1000008F10000087
S2140010606D100000304DE3E72C4DE1E704232B60C4
S21400107038BD012211460020FFF7BCFE0223F6E72A
S214001080012211461046FFF7B5FE0123EFE742F2B4
S214001090FB11A3E70023EAE7072904D0092906D0B5
S2140010A042F285219AE71A4B00221A67E0E7184BAE
S2140010B00122FAE74C1E072C1ED8DFE804F0201D9C
S2140010C01D161D1D0F0403221149D1F85C3123F0B3
S2140010D0300343EA0213C1F85C31C9E70122114626
S2140010E00420FFF787FE0122EEE7012211460220C8
S2140010F0FFF780FE0222E7E742F2E3216EE70022D6
S214001100E2E742F2BA3169E710100020002D310103
S21400111000400E400148E801E30A030080400E400C
S2140011200010C84388400E4084400E4010B5044668
S2140011301120FFF7D5FB042804D1274842F2A56109
S214001140FFF7E6F8012200210220FFF753FE63783E
S2140011501BB9A3780BB9E37823B11F4842F2E161CB
S214001160FFF7D6F8237C012B04D11B4842F2E86136
S214001170FFF7CEF8194A217C536A23F001030229AF
S21400118008BF43F001035362154B2178C3F8A0143F
S214001190637AA18843EAC123D362136BA07A217ACB
S2140011A003F07F630343E08843EAC02343EAC113A6
S2140011B003310F2928BF0F2143EA01731363A37B72
S2140011C0617B1B0143EA0133E17B0B43217B43EA4E
S2140011D00143536310BD00BFE30A030000400E4006
S2140011E00000C84370B505461120FFF779FB0228BA
S2140011F004D10F4842F26371FFF78AF80D4E0E4B8A
S214001200B26B2C7813401C436B7844EAC324AB784B
S21400121044EA0364EB7844EA0324B36BA34205D0A4
S214001220002101220846FFF7E5FDB46370BD00BF4C
S214001230E30A030000400E4080E4FFF8EFF310805E
S21400124072B6704700B962B67047EFF3118060233C
S21400125083F31188704780F311887047034BD86B6F
S21400126080F04000C0F38010704700BF00300E4092
S21400127038B542EA0323B3F5007F05460C463ED058
S21400128019D8B3F5807F36D00AD883B3012B21D086
S2140012901F4840F6F211FFF73BF8002213461FE006
S2140012A040F201129342F3D11A4BD3F824321A0EAD
S2140012B0C3F3074314E0B3F5407F24D040F2013275
S2140012C0934210D040F201229342E1D1114BD3F861
S2140012D0283202E00F4BD3F82432C3F30722DBB2E6
S2140012E02B60226038BD0B4BD3F82832DFE7094B62
S2140012F0D3F81C32F1E7074BD3F81C32D7E7054B7F
S214001300D3F82032E9E7034BD3F82032CFE700BF0B
S214001310E00B03000081E00F08B5FFF79FFF20B148
S214001320024AD2F8C830002BFBD108BD0000C643E5
S2140013301A4B022810B5D3F830320C4612D00328C8
S21400134013D0012814BFDBB2C3F307231B0323F417
S2140013507042ECB95AB140F681111148FEF7D8FF39
S214001360002010BDC3F30743F0E71B0EEEE70D4960
S214001370CA6E22F470421343CB660120F1E7094996
S214001380D1F8EC2022F470421343C1F8EC30F4E7B5
S214001390002AF4D040F68D11DFE700BF0081E00F91
S2140013A0E00B030000300E400378134A002B43780E
S2140013B070B514BF04260026002B8378946914BFEA
S2140013C002250025002B037924F03F0443EA04039A
S2140013D0C47814BF08210021012C08BF43F0010384
S2140013E033432B430B4393611368417923F4403313
S2140013F043EA0143136070BD00300E40F8B5044662
S2140014000F46FFF72BFF78B3FFF786FF174B5B6897
S214001410C3F301439C4227D0154BD3F80061FEF777
S214001420BFFF022C05460FD1124BC6F3042606FB5F
S21400143000069E4204D910484FF4E361FEF768FFA9
S21400144002212846FFF778F9C4F1020210239340E0
S214001450064A13610FB1FFF75FFF2CB921462846F5
S214001460BDE8F840FFF768B9F8BD00BF00300E4091
S21400147000400E40002D3101E00B030013B502467C
S214001480FFF7ECFEC8B152B90D4B0191D3F80041FD
S214001490FEF786FFC4F30422019902FB0002094B03
S2140014A01B7843B1084B9A4205D8022002B0BDE82B
S2140014B01040FFF7A3BF0020F8E702B010BD00BF42
S2140014C000400E407A120020002D3101224B4AF6D1
S2140014D0E85210B5596B5A639A6FD207FCD41B6C4E
S2140014E013F003031EBF1D4A0124C2F8B44A834208
S2140014F004D110B9194BC3F8B40A10BD032B00D0A1
S2140015009BB9431E012B10D8134A4FF40023D36215
S214001510936FDB07FCD4136C23F0030343F0010343
S21400152013640D4A536A1C03FCD50B4B9A6FD20703
S214001530FCD41A6C22F0030202431A649A6F12F06B
S2140015400102FBD10038054C18BF01200129C4F860
S214001550B40A08BF5A63D0E700300E400000C64306
S2140015602DE9F04FA0F5E16389B00024B3F5966F3E
S214001570CDE90244CDE90444CDE9064406468A4650
S214001580934605D940F67B315548FEF7C1FEA3E0E9
S214001590B0F5E16F534B8CBF0122002249D1D3F83E
S2140015A01832C3F30721DBB2079104934FF4167584
S2140015B04FF4966748E0BBF1000F0ED0D9F85C20D8
S2140015C022F4FE4222F00202B6F5E16F42EA012260
S2140015D018BF02200243C9F85C20BAF1000F26D0DB
S2140015E020460021FFF7A4FE044610B940F6D83185
S2140015F0CAE701214046FFF79BFE044610B94FF4A8
S2140016003E61C1E7384A536EBD4238BF3D4623F4BB
S214001610FF73E72D23F0010328BFE725B6F5E16F3A
S21400162018BF43F0010343EA4503536654E0012420
S21400163052E0D3F81832190EC3F307430791049308
S2140016404FF496654FF4E167DFF89C90D9F84C406C
S2140016500192C4F30174234605A902A8FFF708FE09
S214001660D9F8EC30019AC3F30128434606A903A82B
S214001670FFF7FEFD049BF01B079FF91A4143B1FBE1
S214001680F5F299182CBF012300238F421ED3EBB925
S214001690069A039FD31B4343B3FBF5F3FF182CBFF7
S2140016A001230023BA4211D383B9059B029AA3EB08
S2140016B0020C00FB0CF0B0FBF5F555192CBF012011
S2140016C00020AB4202D300283FF475AF044840F632
S2140016D0C931FEF71DFE0024204609B0BDE8F08F94
S2140016E0E00B03000081E00F00300E40334A08B5DF
S2140016F0136FD16C11F0010F03F0060344D0002BDA
S21400170042D0132857D9143813288CBF1023082327
S2140017102A49013BCA6C180322F47F4240EA03239D
S2140017201343CB64264BCA6C1B88C2F303222833B0
S214001730013202EB820003EB5303B3FBF0F3C86CF9
S214001740013B072B28BF072320F0EE6040EA036327
S21400175043F48013CB641B4BB3F90030002B12DB31
S21400176003F12800C0F34E030344500800EB420286
S214001770B3FBF2F20B6D072A28BF072223F0700393
S21400178043EA02120A6508BDD16C01F00101194353
S21400179004D109280FD90A380928B6E7D26CD2072F
S2140017A002D50BB92728B0E7074840F61E41FEF7DA
S2140017B0AFFD0023ACE70423AAE700BF00300E40CD
S2140017C07612002078120020E00B03000C4BD3F8B2
S2140017D0803910B5044633B9012804D9094840F6C3
S2140017E03C41FEF795FD084A136F23F00703234399
S2140017F01367064BBDE810401888FFF777BF00BF99
S2140018000000C643E00B030000300E4074120020B8
S21400181038B55A4B02229A639B6B03F00F03934230
S214001820044607D0564840F61621FEF771FD0025FF
S214001830284638BD0389C82B04D951484FF4226185
S214001840FEF766FDA28823899A4204D94C4840F6E2
S2140018502121FEF75DFDB4F90C30C82B04DD4848A5
S21400186040F62221FEF754FD6378012B55D1A3885C
S214001870C82B04D940F626214148FEF749FDE288E8
S21400188042F210739A4204D93D4840F63321FEF7DF
S2140018903FFDE3884A2B48D9B3F5FA7F47D340F695
S2140018A0C312934294BF4FF000524FF04052334958
S2140018B0B4F90C00CB6C23F0405323F0010300284E
S2140018C0A8BF43F001031343CB64D1F8EC30A288E1
S2140018D043F44073C1F8EC302A4B1A80CB6E43F0C9
S2140018E08073CB66284BD3F8800900B10420FFF73D
S2140018F06DFF264B21891980254BB4F90C20A08852
S2140019001A80FFF7F3FEA37BA3B1012B22D01C485D
S21400191040F63211FEF7FCFC0FE0022BAFD1A38895
S2140019200A2BACD940F62B21A6E70022BFE74FF0E2
S2140019308052BCE7114B174A9A650122608811460F
S214001940FFF70EFE054640B90D4840F66A21FEF741
S214001950DFFC6DE7094B104AEEE7084AD36B43F409
S2140019608063D3636078FFF7B1FDA37AA3F120020A
S21400197053425341044AC2F8943759E700300E40A8
S214001980E00B0300741200200000C643761200200D
S2140019907812002077402057372110B738B50D460B
S2140019A0044640B3012829D002282AD003282BD089
S2140019B004280ED005282AD0831F012B09D9082811
S2140019C028D0092828D00A2803D10723EB40DB07B4
S2140019D004D4134840F22D41FEF79AFC30200C2325
S2140019E010FB043404F18C44012104F5204401FA70
S2140019F005F5256038BD40F2FF33E7E74FF6C073C4
S214001A00E4E740F6FF73E1E74FF47F43DEE74FF687
S214001A10FF73DBE70F23D9E74FF44043D6E700BF59
S214001A20320C030038B50D46044640B3012829D0D1
S214001A3002282AD003282BD004280ED005282AD026
S214001A40831F012B09D9082828D0092828D00A285E
S214001A5003D10723EB40DB0704D4134840F2FE31E2
S214001A60FEF756FC30200C2310FB043404F18844A7
S214001A70012104F5204401FA05F5256038BD40F241
S214001A80FF33E7E74FF6C073E4E740F6FF73E1E79E
S214001A904FF47F43DEE74FF6FF73DBE70F23D9E70C
S214001AA04FF44043D6E700BF320C030070B505463E
S214001AB00E461446FFF7C2FB296881EA040202EAD2
S214001AC006044C402C60BDE87040FFF7BBBB00002E
S214001AD0F8B50D4616461F460446C8B301283AD048
S214001AE002283BD003283CD004280ED005283BD043
S214001AF0831F012B09D9082839D0092839D00A288C
S214001B0003D10721E940CB0704D423484FF4B07132
S214001B10FEF7FEFB26B1294620466FB3FFF73EFFD1
S214001B2004EB4403072D4FEA03134FF00F0126D8AA
S214001B30A80006FA00F2814018481844FFF7B6FFDE
S214001B404EBB2946204617B3BDE8F840FFF726BF30
S214001B5040F2FF31D6E74FF6C071D3E740F6FF718B
S214001B60D0E74FF47F41CDE74FF6FF71CAE70F216C
S214001B70C8E74FF44041C5E7FFF754FFD0E7A5F1AB
S214001B800800800006FA00F281400548D5E7BDE867
S214001B90F840FFF747BFF8BD850C030004A00040DF
S214001BA008A00040022838B504460D4603D911485F
S214001BB04C21FEF7ADFB6B791F2B03D90D484F2147
S214001BC0FEF7A6FBAB786A789B0143EA82032A7885
S214001BD01343EA7843EA02132A7943EAC2236A796E
S214001BE043EA0233AA79043443EA42432401024A10
S214001BF0135138BDD80C030000200440014B186078
S214001C00704700BF00008442427801790378002ABA
S214001C10827870B514BF04260026002AC27814BF46
S214001C2010250025002A42794FEA023242EA0122B4
S214001C3042EA0302837914BF20240024002BC379D0
S214001C4042EA034343EA0603027A43EA050314BF63
S214001C504FF4004100212343002A14BF4FF4003202
S214001C6000220B431343014A136070BD002004405A
S214001C70094B98420DD003F58063984209D003F5CE
S214001C80E053984205D003F58063C31A5842584182
S214001C9070470120704700BF008001402DE9F84FD3
S214001CA005460C46FFF7E4FF18B92B48A521FEF7BA
S214001CB02FFB217809B902236B60607800236B62E2
S214001CC00028E278607AA37894F808B094F806A022
S214001CD094F8079014BF4FF040084FF00008120425
S214001CE00028A07A42EA036314BF4FF0800E4FF03C
S214001CF0000E43EA0B030028E07A43EA8A2314BF67
S214001D004FF0200C4FF0000C43EA09230028207BFC
S214001D1043EA080314BF1027002743EA0E030028EF
S214001D202079647943EA0C0314BF082600263B4357
S214001D30002814BF4FF4005000203343002C14BF7B
S214001D404FF080540024034323432B6009B1012342
S214001D506B60BDE8F88F00BF2B0D0300F8B5054695
S214001D600C461646FFF784FF18B92048F521FEF703
S214001D70CFFA032C03D91D48F621FEF7C9FA73786B
S214001D8032781B0643EA8263B2791343B27843EA99
S214001D900243F27843EA0233327943EA82237279C5
S214001DA043EA0223F279002A327A14BF4FF08047C2
S214001DB00027002A727A14BF4FF000500020002A35
S214001DC0B27AF67A43EA067343EA070314BF102191
S214001DD000210343002A04F1060414BF0422002253
S214001DE00B43240113432B51F8BD00BF2B0D0300FA
S214001DF02DE9F04180460E461F46154622B9314869
S214001E004FF4A171FEF784FA1EB92F48FEF732FE92
S214001E100646402F2AD009D8A7B1202F1CD0BDE8EF
S214001E20F041284840F28911FEF772BA602FF6D1C9
S214001E30B5EB960F04D9234840F28311FEF768FAF3
S214001E4004241DE0B5EB161F04D91E484FF4BA71E2
S214001E50FEF75EFA102413E0B5EBD60F04D9194846
S214001E6040F27911FEF754FA082409E00624B6FB7E
S214001E70F4F3AB4204D213484FF4BF71FEF748FAAE
S214001E806C43610801EB4616B6FBF4F40F4E203C9B
S214001E90B6EBC40F4FEAC40504D20A484FF4D0711B
S214001EA0FEF736FAD8F8003023F06003C8F80030A2
S214001EB0D8F8003035401F43C8F80070C8F81450F2
S214001EC0BDE8F0817F0D030040410500F8FF7F006C
S214001ED070B506460C46154622B90D4840F28E21CE
S214001EE0FEF716FA1CB90B48FEF7C4FD04460A4B6B
S214001EF06D00013CB4FBF5F413EA04234FEA042515
S214001F0004D0034840F2B321FEF702FA756170BDB3
S214001F107F0D030040410500070080FF38B50E4BDB
S214001F20984204460D4610D003F5806398420CD0C4
S214001F3003F58063984208D003F58063984204D086
S214001F4006484FF43371FEF7E3F9EB435B0003F00A
S214001F500A03E360E56038BD000001407F0D030022
S214001F6038B51E4B1E4D984204460ED0A8420CD0E3
S214001F7003F50063984208D003F58063984204D0C6
S214001F80184840F24241FEF7C3F940F6AA63E36000
S214001F9041F20502002323606260134AA360636176
S214001FA0E364A26423666367A367E3670B4B9C4204
S214001FB009D0AC4207D003F500639C4203D003F57A
S214001FC080639C4201D1002323650023AC42A365B5
S214001FD002D0064A944200D1E36538BD00000140B5
S214001FE0000401407F0D0300F9FF0100000C0140D2
S214001FF038B5294B984204460D4610D003F5806349
S21400200098420CD003F58063984208D003F58063AD
S214002010984204D0214840F2FD21FEF779F9204687
S214002020FFF79EFFAB7C1BB1236843F08043236021
S214002030EB7C1BB12B7D43F08003A3652A8A6B7B68
S2140020401343EA89134363602B7BD5E901122046CC
S214002050FFF7CEFE6B7D1BB1236843F4803323600D
S214002060AB7D1BB1236843F400432360EB7D2A7EDF
S2140020701B07120502F4E00203F0E0431343236655
S214002080636F23F030036367626F6B7E134363678F
S2140020902B78E36038BD00BF000001407F0D0300D1
S2140020A038B52D4B984204460D4610D003F5806394
S2140020B098420CD003F58063984208D003F58063FD
S2140020C0984204D0254840F26931FEF721F92046AF
S2140020D0FFF746FFA97B2A8A2368002942F00102FF
S2140020E014BF4FF48061002113430B432A7D236005
S2140020F02368002A14BF4FF00052002213432360C7
S214002100AB7C1BB1EB7C43F08003A3652B7B43F4D5
S21400211080536360D5E901122046FFF7D9FE6B7B3A
S2140021200BB11023E3606B7D1BB1236843F480334F
S2140021302360AB7D1BB1236843F400432360EB7D33
S2140021402A7E1B07120503F0E04302F4E002134365
S21400215023662B78E36038BD000001407F0D030046
S21400216003691B06FCD5C069C0B2704703695A06EE
S214002170FCD5416303699B06FCD5C069C0B27047B5
S21400218003695B06FCD54163704700007FB5094BC9
S2140021906A4603F11006154618685968144603C4C3
S2140021A00833B3422246F7D12846FFF731FB00201A
S2140021B004B070BDD40D030013B502230024684696
S2140021C000948DF804408DF80530FFF7EDF82046B2
S2140021D002B010BD70B5164B86B001AA03F110060A
S2140021E0154618685968144603C40833B342224695
S2140021F0F7D11B8823800F4BD3F8B42012030ED4DC
S214002200D3F8B830C3F308030B48ADF80A30FEF72E
S21400221009F92846FEF78AFF002006B070BD074B76
S2140022201B884FF6FF72934208BF4FF4A673EBE786
S214002230E40D03000081E00F00F049020001E00F0A
S21400224007B5084B18680190202301A88DF80430C4
S214002250FEF7C8FF6420FEF7FDFC002003B05DF823
S21400226004FB00BFF60D030010B50C480C4C6FF0D5
S2140022700402A02112F0800FD3B21BBF03F00F039D
S214002280043BA3181B1802F101020CBF83F80013CD
S2140022901976332AEED1002010BD00BF00ED00E015
S2140022A000E100E010B50446FEF7C8FF024B1C60D4
S2140022B0FEF7C8FF002010BD7C12002010B5FEF708
S2140022C0BDFF034B1C68FEF7BDFF204610BD00BFD8
S2140022D07C12002007B530B9CDE90012FFF7EEFFFB
S2140022E0DDE9001230B1436823B1006803B05DF841
S2140022F004EB1847232003B05DF804FB30B51C46FA
S21400230085B058B9CDE90012FFF7D8FFDDE9001215
S21400231004B903AC20B9232005B030BD03B903AC23
S2140023208568002DF7D023460068A847F4E700200C
S2140023307047FEE74FF400534B60002070470120C3
S2140023407047012070474FF0FF30704700207047FD
S21400235007B5002001AB0190FFF7D0FF01980028D9
S21400236008BF4FF0FF3003B05DF804FB10B5002047
S2140023701446FFF7AFFF18B10248BF21FDF7C8FFAC
S214002380204610BDFA0D030080F82410704790F820
S2140023902400704770B504460568FFF78FFF844237
S2140023A002D10020FFF77EFF95F92830002B11DBC5
S2140023B003F01F015B099B0003F1604303F56143D3
S2140023C001228A40C3F88021C3F88020BFF34F8FD4
S2140023D0BFF36F8F0023C4E90033C4E90433A3605E
S2140023E02846EB68BDE87040184790F8243070B572
S2140023F005460C468E18E3B9A6420AD095F8263054
S214002400002BF9D02B6814F8011B284698470028A3
S214002410F2D070BD95F826305BB123780A2B03D135
S2140024202B680D21284698472B6814F8011B284670
S2140024309847A642EED1ECE72DE9F7434FF00009A6
S214002440044690461E46C3F800904F1E3368434528
S21400245005D2FEF7FAFEA269C2B9FEF7FCFE94F8B2
S21400246027305BB9112301220DF1070120468DF8B4
S2140024700730FFF7BAFF012384F827303368002BB4
S2140024800CBF1B20002003B0BDE8F083E169226981
S2140024908A5C07F8012F2569226A01359542A269F0
S2140024A008BF4D46013AA2612561FEF7D4FEA36837
S2140024B020469847336801333360C7E708B5FFF70F
S2140024C094FF002008BD0000F8B51F465368054677
S2140024D00C461646002B3ED09368002B3DD02C228F
S2140024E00021204628F072F97368E361B36823621E
S2140024F0337B84F82430B37B84F8253040F2011314
S214002500E384069B6360079BA360089B2760E360E9
S21400251096F90030124A84F828306A60114AAA6098
S214002520114A2A61114A6A61002B114A2C60EA603E
S2140025300CDB03F01F015B099B0003F1604303F50E
S214002540614301228A40C3F880211A602846FFF7BB
S214002550A9FE0020F8BD2220FCE72120FAE700BFF4
S214002560BD24000039240000892300008F230000CA
S2140025709523000010B50446FEF767FEA269236A9D
S2140025809A4203D2FEF767FE012010BDFEF763FEF7
S2140025900020FAE773B504460D46AFF30080FEF759
S2140025A054FE94F8253006466BB1132D07D1002350
S2140025B084F8263002B0BDE87040FEF74CBE112D00
S2140025C001D10123F4E7A269236A9A4204D315488D
S2140025D040F26911FDF79CFE6369E269D554A26971
S2140025E063690132A261226A01339342636104BFC8
S2140025F0002363613046FEF72EFE94F825307BB14B
S214002600A269236A9A420BD1132301220DF1070116
S21400261020468DF80730FFF7E8FE002384F82730C1
S21400262002B070BD6B0E0300C26AD36C43F00403A5
S214002630D3647047C26A10B5044613695906FCD5C0
S21400264000231A4694F8351094F83400FFF740FA41
S21400265000231A4694F8371094F83600FFF738FA35
S21400266094F83C30DA0707D5002394F8391094F82C
S21400267038001A46FFF72CFA94F83C309B0707D52B
S214002680002394F83B1094F83A001A46FFF720FA15
S214002690E06A0021FFF742FC206B0021FEF75CF8A1
S2140026A0002010BD08B5C06AFFF76AFD002008BD0F
S2140026B02DE9F04186B01C46524B0C9D0293524BBE
S2140026C00193012600230093CDE903664F4B904605
S2140026D00A462946FFF7F8FE0746002856D1236823
S2140026E0EB6263682B63637A85F83530237A85F866
S2140026F03430E37A85F83730A37A85F83630637B52
S21400270085F83930237B85F83830E37B85F83B3015
S214002710A37B85F83A303E483146FEF71DF83D4823
S2140027203146FEF719F8617A207A33460422FFF71D
S214002730CFF933460222E17AA07AFFF7C9F960683A
S2140027403146FEF709F888F8007041462068FFF722
S2140027504FFC2268536F43F003035367936F617C0B
S21400276023F4F85323F01F030B43217C43EA012391
S21400277003219367516785F83C7098F81930202B31
S2140027802BD007D803B3102B09D02327384606B022
S214002790BDE8F081302BF8D185F83C1002E085F8D2
S2140027A03C603E4600230222617B207BFFF790F9C7
S2140027B02368A27CDA675A6E42F004025A665A6FA1
S2140027C042F010025A675EB92068C36C43F00403F7
S2140027D0C3640521FFF7A2FBD8E7022385F83C3047
S2140027E0E17BA07B00230422FFF772F92368E17CDB
S2140027F0DA6F42EA0122DA675A6F42F020025A671D
S214002800E2E700BF3526000029260000A5260000C6
S2140028104041050000350A00C36A1B691B0610B557
S214002820044610D5FFF7A6FE40B1E06AFFF798FC15
S21400283001462046BDE81040FFF7ACBEE26AD36C06
S21400284023F00403D36410BD00230B707047000010
S21400285030B50F4C41612368ABB92060836011E04E
S214002860891A9A6841611D462AB113465A698A42F6
S214002870F6D955B11A46A8601346836013B15A6953
S214002880511A596130BD0025F0E72060F5E700BF1A
S2140028909812002010B500F01BFA0A4C0A4B196873
S2140028A02368C31A01B10BB9206010BD4A699A4269
S2140028B02EBFD21A9B1A00224A6128BF00238968BD
S2140028C0F0E700BF841200209812002038B5134DA0
S2140028D02B685B6993B1124A146802201C4400F00E
S2140028E02BFA204600F0FAF90E492A6800230B70EE
S2140028F0D088800709D501230B7038BD022000F070
S2140029001BFA022000F03EFAEEE79268002AF4D0A6
S21400291050690344012BEBD9EFE700BF9812002063
S214002920841200208C12002070B516469DF81420E4
S2140029300271049A0260C0E903360022BDF818301E
S2140029408260C38004460D4600F0C2F93044A061A0
S2140029503DB9E368656113B121682046984796B192
S2140029603546FEF76BFC0646FFF794FF29462046E1
S214002970FFF76EFF054B1B68A34201D1FFF7A6FFCA
S2140029803046FEF75FFC002070BD00BF98120020A6
S2140029900C490B6800227BB183420AD183687AB166
S2140029A0936083681BB15A6941690A445A610020E2
S2140029B070471A469B68EEE70028EFD00220704763
S2140029C00B60EEE79812002070B5154EFEF73DFC42
S2140029D034780546FCB9134B1C60134B1C60134B34
S2140029E01C8000F02FF9012000F0A6F900F0EAF9AB
S2140029F00F4B0246186020B92846FEF72CFC232011
S214002A0070BD23460B4840F2E73127F021FC0A4B05
S214002A101860012333702846FEF71DFC0020EFE700
S214002A208012002098120020841200208E120020AF
S214002A309412002018FCFFFF8812002038B50C46C0
S214002A40054698B191B100230B70FEF7FEFB084BCC
S214002A501B6801210BB122781AB1FEF7FCFB00209F
S214002A6038BDAB4214BF9B682170F3E72220F7E71E
S214002A7098120020F0B587B01F4600230D46164674
S214002A808DF817300446A0B10DF11701FFF7D6FFF9
S214002A909DF817207AB9BDF8343002939DF830308F
S214002AA02946CDE9007320463346FFF73DFF07B0C1
S214002AB0F0BD2220FBE70320F9E70000044B1B686B
S214002AC0584300F2E7304FF47A73B0FBF3F07047E8
S214002AD09412002000B58BB001238DF80B30FFF761
S214002AE0EDFF0023CDE900330146074A0DF10B0345
S214002AF003A8FFF7BFFF18B99DF80B30002BFBD1DA
S214002B000BB05DF804FB00BF49280000C2072DE9A2
S214002B10F84F04460BD5464A138801339BB2138000
S214002B20FFF7B8FE434B1B680BB1FFF7CFFEA307BA
S214002B307CD5FEF78AFB0546FFF7ACFE4FF0000A91
S214002B403C4FDFF8F8905646D0463C680CB16369B7
S214002B508BB1394B0022012E1A7003D1BAF1020F45
S214002B6008BF1E70002C51D0FFF7B0FE2846BDE807
S214002B70F84FFEF770BB23461A792179914288BF39
S214002B801C469B6813B15A69002AF5D02846FEF702
S214002B9062FBD4F810A0BAF1000F3BD000F098F812
S214002BA0A269851AEB17AA4578EB030333DA236983
S214002BB01344A36101222369D3B1CAB9EB17BAEB58
S214002BC0050563EB4303002B04DA4FF481614846A6
S214002BD0FDF79EFBFEF739FB294682462046FFF7A7
S214002BE037FEA36922691344A3615046FEF733FB00
S214002BF0E368B4F806A0013613B12168204698476A
S214002C00FEF723FB0546FFF745FE9EE7022000F091
S214002C10A1F8ABE75546FEF718FB83462046FFF7BC
S214002C20B7FE5846FEF717FB0022C4E7BDE8F88F4C
S214002C308E1200209812002090120020D20E030060
S214002C400020704710B51E4B86B01868596803AA56
S214002C5003C2197AD3F8090011700024B3F80D20C6
S214002C600190DB7B1748ADF8082001218DF80A306B
S214002C70FDF772FD8DF80C40FFF7E2FF8DF81000AF
S214002C8003A8FEF7C1FF01A901208DF80440FEF756
S214002C9089FF0D4A536A23F4FF6323F00703536248
S214002CA040F2FF73136201209460FEF7A7FF074B04
S214002CB04FF08042C3F880211A6006B010BD00BFF6
S214002CC0380F0300A00914000020044000E100E0D3
S214002CD0014B9868704700BF0020044010B50446BA
S214002CE0FEF7ACFA124A9368516D9269520704D403
S214002CF0CA1A032A01D88B420DD1E21A022A98BFBB
S214002D00DC1C0B4BB4F1FF3F38BF013C5C655A6AD4
S214002D1042F004025A62FEF795FA064A137833B177
S214002D2003490B6D43F002030B650023137010BDBF
S214002D30002004401E1000208207054A00F0010310
S214002D40516A48BF43F004030B435362704700BF09
S214002D5000200440820700F0010309D5074A01213C
S214002D60117007490A6D22F0030243F004030A6556
S214002D7003494A6A22EA03034B6270471E1000208A
S214002D8000200440830742BF014B0422DA617047EB
S214002D900020044010B5FEF758FA094A9369044625
S214002DA0590703F0010003F0070348BF40F0020094
S214002DB01362FFF7ABFE2046BDE81040FEF74BBAA5
S214002DC00020044008B50448FDF754FE0346FFF70C
S214002DD037FF23FA00F008BDA009140008B526F056
S214002DE03DFB26F089FB26F089FB26F090FBBDE82C
S214002DF0084026F08DBB08B526F08CFB26F08BFB32
S214002E0026F08AFBBDE8084026F087BB10B50446CE
S214002E10FDF7F0FA4FF47A729042B0FBF2F105D269
S214002E203621BDE810400B48FDF772BA0A4BB3FBDB
S214002E30F1F30A49884201D93C21F2E702FB04F08B
S214002E40B0FBF3F0032804D9BDE81040800800F07A
S214002E5007B810BD480F030040420F00E7CD9A3B6D
S214002E60013800D0FCE770472DE9F04F99B0CDE966
S214002E700C32BDF8343043EA02431093239B239A66
S214002E809BB243EA024311932D9B229A9B10129306
S214002E90229B002AC3F10003C8BF00230693069AAC
S214002EA0012303FA02F2013A07921A41CDE915010D
S214002EB0089225991A440B92259A0029C2F100021D
S214002EC0C8BF0022039203FA02F2013A04921A41A2
S214002ED02A9905921A440A922A9A0029C2F10002F7
S214002EE0C8BF00229340013B01935B10029301335D
S214002EF00993279B00921493169B259A0F93229B67
S214002F00DDF848A00E9023EAE37900254FF08043D1
S214002F1022EAE27821EAE17EBAF1000F22DC129B77
S214002F2023EAE372159B03EB8207169B03EB820CE6
S214002F30279B03EB82022D9B03F00304229B23EACC
S214002F40E37E259B23EAE3782A9B14444FF08045D2
S214002F50002623EAE379A24240F09081002019B0CF
S214002F60BDE8F08F0E9A0F9E52F8044B56F8041BDD
S214002F700E920F964FEA34224FEA3127109E2FFA10
S214002F8082F22FFA84F42FFA87F72FFA81F192FA59
S214002F9006F2139294FA06F4119A97FA02FB91FA43
S214002FA002F1269AA7B297400C9A07FA09F71E462E
S214002FB02846C7FB0260F60F069F079A46EA4006B9
S214002FC032403E410B9F3846089F48BF0746BA42EC
S214002FD0269A1FFA81FC0CFA02FC249A0CFA08FCCA
S214002FE018462F46CCFB02074FEAD07242EA470249
S214002FF00398049FC8BF0136174002410A988446CA
S214003000059858BF84466745C8BF013229983244A0
S21400301002FA0EF62F461A46C6FB0027D20F019874
S21400302042EA470202EA00060098029F0241099817
S21400303048BF0746BE422898C8BF013202442B98B4
S2140030408242B8BF02462C988242A8BF024652B2BD
S21400305026981792220C82400C9802FA09F21C4617
S2140030602E46C2FB0046E40F0698079A44EA46043A
S214003070224004410B98089E48BF0646B242269A54
S21400308024984FEA114101FA02F101FA08F11A46B2
S2140030902E46C1FB00264FEAD2720398049942EAF4
S2140030A04602C8BF0134114002410A98059E48BF37
S2140030B00646B142C8BF01322998224402FA0EF4ED
S2140030C029461A46C4FB0021D20F0098029C42EA09
S2140030D04102019911400241099848BF0446A142A5
S2140030E02899BDF84C400C98C8BF01320A442B9969
S2140030F08A42B8BF0A462C998A42A8BF0A464FFAA7
S21400310082FC269A944004FA09F419462A46C4FB1F
S2140031100012C90F0698089C41EA4201079A0A4025
S21400312001410B9848BF0446A242269A24981FFAEB
S2140031308BF606FA02F606FA08F61A462C46C6FB80
S21400314000244FEAD2720498059E42EA440202EA3C
S21400315000040398C8BF013102410A9848BF0646DA
S214003160B442C8BF013229980A4402FA0EF12C462E
S2140031701A46C1FB0024D20F0098019942EA440285
S214003180114002410998029C48BF0446A142289972
S2140031902698C8BF01320A442B998A42B8BF0A460D
S2140031A02C998A42A8BF0A461399090C81400C98AC
S2140031B001FA09F11C462E46C1FB0046E40F0698AC
S2140031C0079944EA4604214004410B98089E48BFEC
S2140031D00646B142269924984FEA1B4707FA01F79C
S2140031E007FA08F719462E46C7FB00164FEAD171B4
S2140031F00498059F41EA460101EA00060398C8BF05
S214003200013401410A9848BF0746BE42C8BF013193
S2140032102998214401FA0EF42E461946C4FB0016DE
S214003220C90F019841EA460101EA00040098029E8F
S2140032300141099848BF0646B44228989DF85C406C
S214003240C8BF013152B24FEA0C46014406F47F066D
S2140032502B98120292B23443814244EA02042C9A1A
S214003260B8BF01469142A8BF1146149A44EA0164C9
S21400327042F8044B0AF1FF3A14924DE61CF9013B62
S214003280239917F901AB0C980B4426998B400D999E
S2140032908A4426990AFA01FA0AFA0EFA2946B34629
S2140032A0CAFB001BC90F079841EA4B0100EA010A56
S2140032B0069801410B988346089858BF8346249881
S2140032C0DA4503FA08FBB2462B46CBFB003A4FEA38
S2140032D0D373049843EA4A0300EA030A0398C8BF74
S2140032E0013103410A988346059858BF8346DA455C
S2140032F0C8BF013329980B4403FA09F1B2462B469E
S214003300C1FB003ADB0F0098019943EA4A031940D3
S214003310034109988246029858BF8246514528992B
S214003320C8BF01330B442B998B42B8BF0B462C9970
S2140033308B42A8BF0B4602F8013B0CE62DE9F04F86
S2140033408DB0CDE90223BDF80830059143EA02436B
S2140033500693039ABDF80C30049043EA02430793A1
S2140033601C9B9B100893199B5A42002BD4BF1346F4
S214003370002301249C400093169B0993089B01930D
S214003380013C199BCDE90A01671007F1010E23EAFB
S214003390E3784FF080454FF00009019B002B1DDCC1
S2140033A0089B23EAE3710A9B03EB81050B9B03EB67
S2140033B08106169B03EB81011C9B03F00300199BFF
S2140033C0084423EAE3784FF0804C4FF0000981422E
S2140033D040F0BB8000200DB0BDE8F08F049B53F892
S2140033E0046B0493059B53F8041B05934FEA362C95
S2140033F04FEA3120069B2FFA8CFC2FFA86F62FFA1E
S21400340080F02FFA81F19CFA03FC96FA03F6079BEC
S21400341090FA03F091FA03F116FB01FB189B0BFAE6
S21400342008FB2A46CA46CBFB032AD30F009A43EA78
S2140034304A0303EA040A13414CBFF346BB46DA4587
S214003440179AC8BF013313441A9A9342B8BF13465B
S2140034501B9A9342A8BF134611FB36F1189A4FFAEF
S21400346083FB01FA08F12B46CA46C1FB023ADB0F82
S214003470009A43EA4A0303EA040113414CBF764626
S2140034803E46B142179AC8BF013313441A9A934274
S214003490B8BF13461B9A9342A8BF13461CFB00FAFC
S2140034A0189A0AFA08FA59B24E462B46CAFB023652
S2140034B0DB0F009A43EA460303EA040613414CBFB7
S2140034C0F246BA465645179AC8BF013313441A9AAD
S2140034D09342B8BF13461B9A9342A8BF134610FBED
S2140034E03CFC189A0CFA08FC28464E46CCFB020612
S2140034F0C00F009A40EA460000EA040610414CBF9E
S214003500F446BC46179A6645C8BF01305BB209044C
S214003510104401F47F011A9A5FFA8BFB1B029BB2E0
S21400352041EA0B0B90424BEA030B1B9BB8BF1046BD
S2140035309842A8BF1846099B4BEA006B43F804BBA9
S2140035400993019B013B019327E715F901BB029BF9
S214003550039A9B4416F9013B134403FB0BFB189A92
S2140035600BFA08FB6346CA46CBFB023ADB0F009A0F
S21400357043EA4A0304EA030A13414CBFF346BB4638
S214003580179ADA45C8BF013313441A9A9342B8BF54
S21400359013461B9A9342A8BF134601F8013B16E751
S2140035A02DE9F043DDE90B84A568AC07DDE9097E6B
S2140035B003D1BDE8F04300F07EBB6FF00200BDE82B
S2140035C0F0838B68C06858434B6858438000704748
S2140035D030B5D86884078BB028D10C6934BB4C69E9
S2140035E024BB8D68012D21D1CD68012D1ED14D6AD9
S2140035F008950D6A07954D6806950968CDE904019A
S2140036001399C9680391D3E901011B6841435943E3
S21400361002915368019313680093129A149B1099B1
S2140036200E9802F0C3FC20460BB030BD6FF00200CF
S214003630FAE70020704700002DE9F04FADB01C46B9
S214003640DDF8DC90DDF8EC801746D9E901230D465D
S214003650E16853434B43B3F5007F064680F29E81F4
S2140036600368002B00F08480D9F808200792D9F868
S21400367004200E92D8F808201592D8F80420169246
S214003680D8F80C2023680F92B5F9202022931792C1
S214003690A368B5F924200693189263683A681493D1
S2140036A019927A6806991A92149AE368D6F800A0D6
S2140036B04A435A4352002092DDE915214A430F99A6
S2140036C04A435200219207990E9A4A435A43099256
S2140036D00AEB820206991E92EA6812924A435A43FD
S2140036E0296952001F926A6913924A4213982492DB
S2140036F0069A424352424FEA430B0798521A0E99D3
S2140037000BFB02F2299211FB00F1099A11FB03F15F
S214003710C2F38F0201F003011D9101EB82011C919F
S214003720389901EB82010AEBC2022892AA681B9222
S2140037305A4352002392069A269153435B002593E0
S21400374020EAE0730BFB03F3279300230A930A9BFC
S214003750229A934280F22781369B299A1344089333
S214003760139B5F423C9B0B93002354460C933FE015
S2140037704946204600F098FA00287FF775AF4FF0CC
S214003780FF300DE1109B1193079B43443D462A935F
S2140037902B9BAB425EDC1E9BA34213D10B9B059377
S2140037A03A9B0493099B0393189B0293179B0193E0
S2140037B0199B00930F9A1A9B3898514602F0FEF810
S2140037C054460B900D9B239A01330D93109B134484
S2140037D010931B9B98440D9B159A9342D2DB0C9B2F
S2140037E01F9A01330C93089B13440893129B1F44A3
S2140037F00C9B169A934232DA089B109300230D9383
S2140038000E9BDDF890803B442B93E4E7002D07DB0E
S214003810149A954204DA002E02DB069A964213DBCF
S2140038205A460021184626F0D1FF03465B4401366F
S214003830D9442A9AB242E9DC279B259A1C44119B5C
S214003840134401351193A3E75A464946184626F015
S21400385095FFEAE7DDF8449046462346E9E75445F7
S21400386040F09280369B209A13443693219A3C9BD4
S21400387013443C930A9B013368E756F8042B2FFA4F
S21400388092FC2FFA82F2CCEA2247C2EA0C42D4F823
S21400389000C022FB0C326368083427FB03238642F1
S2140038A00246EAD11D9E289C0644B24247D11C9A85
S2140038B01544199A52F821401A9A52F821603A9AF9
S2140038C0002A43D03A9A02EBC107744552F83120D9
S2140038D07F68DABF04F50044241447F6FF749A188C
S2140038E047EBE377E317534304FB0733A2FB04429B
S2140038F01344C6F10E021236B2F1200724FA02F47F
S21400390003FA06F644EA06045CBF43FA07F73C43AC
S21400391001346710179B9F42B8BF1F46189B9F42F3
S214003920A8BF1F460B9B23F811701C9B013118443F
S2140039300F9B994296DA54462E460023AFE712F9BB
S214003940017B34F802CB1CFB0733AEE726EAE672AF
S214003950002E3A9FC8BF3A9E03FA02F34A46C3FBBC
S2140039600427D8BF7642D20F08FA06F342EA470782
S214003970013B07EA030C37414FEA630348BF0133B4
S2140039809C45C8BF0137C5E72698389DDFF81CE080
S21400399000214FF080494FF00108C9E76FF00200A0
S2140039A02DB0BDE8F08F0020FAE700BFFFFFFE7FD6
S2140039B08B68C06858434B685843800070470000C7
S2140039C02DE9F04FB1B0D1E9069C3B9D3F9CAE6817
S2140039D06D681795A5680F956568E46806940C6988
S2140039E019944C691A948C681B94CC681C940C6AC5
S2140039F0496A18682291116820900596D86818952B
S214003A0021942391526824929A685B6814930492D6
S214003A101346149A534343430F9A5B001E932B4658
S214003A205343069A53435B001F93179B73434343CA
S214003A302B93069B5B002A93049B43430CFB03F3E8
S214003A40289306FB00F3299300FB09F32793002332
S214003A5008931A9B63442E93199B4B442F93089B01
S214003A60209A9342C0F21781002031B0BDE8F08F53
S214003A70239B8B4953F822308B42DCBF03F500436F
S214003A804FEA234A1A9BC3F1000309932E9B03F1C6
S214003A90FF3B3E9BC8BF47F6FF7A03EBC2031D936E
S214003AA04FF000084FEAEA73CDF828802D930A9B62
S214003AB018998B4211DB2B9B01329E44069B9A423F
S214003AC0D6DB3A9B1E9A13443A931F9A409B1344A4
S214003AD04093089B01330893C1E7199B40995B42CA
S214003AE00B93069B03FB082301EB430313932F9BC7
S214003AF0013B079300230C93149B5B442C930C9B75
S214003B000F998B420BDB099B1C990B4409930A9B6C
S214003B1001330A930F9BABEB010B9844C7E7179D45
S214003B20079B93FBF9F323EAE37303932C9B93FB26
S214003B30FCF3AB42A8BF2B462593079D049B049E2F
S214003B409BFBFCF12B44059D93FBF9F3AB42A8BF0E
S214003B502B462693099B0B9D039C21EAE17101FBF2
S214003B600C3306FB035304FB0933059D434305FB57
S214003B700145109300240023CDE9003400FB05E541
S214003B80259EB142C0F281803E9B53B11D9B009C96
S214003B901B681D99E3184968019C41EB0401CDE9B7
S214003BA00031019B009C0AFB03F12D9B03FB0411D3
S214003BB0AAFB04342144249C54F82240C4F10E0687
S214003BC01234B6F1200501FA04F423FA06F358BFBE
S214003BD041FA05F543EA040358BF2B432199013304
S214003BE05B108B42B8BF0B4622998B42A8BF0B4690
S214003BF013990B800B9B1B990B440B930C9B2A99D8
S214003C0001330C93139B0B4413931B99079B5B1A6E
S214003C10079374E7129F3A9E06EB47061696119F87
S214003C203C9E3E44159600260E960E9E864215DB5A
S214003C300D9E279F01360D96129E3E441296119EAB
S214003C40064411960D9E269FBE42E3DB289E109BDF
S214003C503344299E10930131354491E7169E37462A
S214003C6037F9026B16973346159E374617F9016BE0
S214003C701597344627461E46DDE90034C6FB8734D2
S214003C800E9ECDE900340136CEE7109B1293039BBF
S214003C9011950D93D6E74FF0000E72460EE700BF63
S214003CA0FFFFFE7F002070478B68C06858434B6854
S214003CB05843800070472DE9F04F2DED028BD0F869
S214003CC000A0B5B08846459D41991C46BAF1000F44
S214003CD005D11846FFF7E8FF002800F38681EE6856
S214003CE0B4F80890E06823682893B7B208EE107A14
S214003CF0D8F810702297D8F800702997D8F8047072
S214003D001797D8F820701897D8F82470199717685E
S214003D1052681B92AA881692A28815921FFA80FBF8
S214003D2002FB09F20BFB02F227922A891C92B2B21E
S214003D30169C1D921C9A1A97D1E90113624318EE3D
S214003D40104A624325928AB21E929AB21192119C30
S214003D501E9A13FB01F3544313FB00F399B204FBC2
S214003D600BF203F0030326910AEB8201C2F38F02E3
S214003D70209303EB82031F93429B249103EB820361
S214003D804FEA4B0108912D930AEBC2033093089B30
S214003D90B8F80C10119A1491634301FB09F12E93A5
S214003DA0089B2C91B8F814102191534301FB09F19C
S214003DB02F93002349420B93B8F80830239132938F
S214003DC00B9B289A934205DB002035B0BDEC028B96
S214003DD0BDE8F08F219B5B421293B8F81C3013931A
S214003DE009FB03F32A93239B1093469B0F93002310
S214003DF00C93B8F81830319354460C9B169A93429D
S214003E0040F08880A24540F0EA80409B279A134401
S214003E104093259A469B134446930B9B01330B9382
S214003E20CEE7329BBDF888200E946B439B1A2B93EB
S214003E30129B0A93109B099300230D930D9B1E9AC9
S214003E40934239D00E9FBDF9A430002615E0159A8E
S214003E500A998A4207D92B9A319906FB0120002835
S214003E6001DB81451CDC089A33930021384626F096
S214003E70ADFC089A339B17440136119A9642E6DB4E
S214003E800E9B2F9A13440E930D9B2A9A01330D9383
S214003E90099B13440993139A0A9B13440A93CDE78C
S214003EA0099A339300EB020C40985A4639460BFBAE
S214003EB00C0002F09CFEDCE72E9B1C44249BA342D5
S214003EC018D10F9B0693449B0593269B0493BDF93C
S214003ED064300393BDF960300293179B01931A9BDD
S214003EE0009318EE102A1B9B4298514601F0E4FA04
S214003EF054460F9001351C9B9D4292DB0C9B2C9ADE
S214003F0001330C93109B13441093149A129B134482
S214003F10129372E70025EEE7449B002B43D053F83C
S214003F20212054462E46864203463ED1209E309C93
S214003F300644B3424CD11F9B1D441B9B53F8216083
S214003F4026EAE6739A401A9B53F82130002E4FF06B
S214003F5080444FF00007C2FB0347D4BF76420026DA
S214003F60E40F0EFA06F344EA4707013B07EA0302AA
S214003F7037414FEA630348BF01339A42179BC8BFD5
S214003F8001371F44189B9F42B8BF1F46199B9F428C
S214003F90A8BF1F460F9B5F541F9B013118441D9BF3
S214003FA09942B9D131E7449ABBE756F8043B2FFA59
S214003FB093FC2FFA83F3CCEA2347C3EA0C43D4F8E6
S214003FC000C023FB0C236268083427FB0232AAE7F2
S214003FD013F9017B34F802CB1CFB0722A9E72D98C6
S214003FE0429D00214FF0010ED9E74FF0FF30ECE67E
S214003FF02DE9F04F85B0DDE90E7C109D0295119DF0
S2140040000395DCE901657543DE68DDF850900193A1
S2140040107543B5F5007FDDE912BA86460C46904634
S2140040200ADA8D69012D07D1CD69012D04D105B0BD
S214004030BDE8F04FFFF700BB039B1193029BCDF842
S21400404048B0CDE90FC3019B0E9742462146704605
S214004050CDE913A905B0BDE8F04FFFF7B1BC10B429
S214004060044608461146D2E901235343C268534327
S214004070B3F5007F09DAA369012B06D1E369012BAA
S21400408003D15DF8044BFFF793BC5DF8044BFFF7D4
S21400409009BE2DE9F74F0C9E0096DDE90D670197E6
S2140040A00F69DDE90FBADDE911C986460C46904670
S2140040B01D46DFB94F69CFB9DF68BF0716D18F68D5
S2140040C0012F13D1CF68012F10D1B768012F0DD162
S2140040D07768012F0AD18F69012F07D1CF69012F89
S2140040E004D103B0BDE8F04FFFF772BADCF8043035
S2140040F0012B24D16B68012B21D17368012B1ED1B3
S214004100DCF808309B071AD12B68012B17D1A3695E
S214004110012B14D1E369012B11D1019BCDE90D636D
S214004120009B0C9342462B4621467046CDE911C9AA
S214004130CDE90FBA03B0BDE8F04FFFF731BA019BE7
S214004140CDE90D63009B0C9342462B4621467046F4
S214004150CDE911C9CDE90FBA03B0BDE8F04FFFF7BE
S214004160AABD10B40446084611462269D2B962694F
S214004170C2B9C268920715D1A268012A12D1E268B4
S214004180012A0FD18A68012A0CD14A68012A09D16E
S214004190A269012A06D1E269012A03D15DF8044B1F
S2140041A0FFF747BA5A68012A15D14268012A12D188
S2140041B04A68012A0FD19B689B070CD10368012B24
S2140041C009D1A369012B06D1E369012B03D15DF860
S2140041D0044BFFF7F6B95DF8044BFFF765BD2DE914
S2140041E0F04FA9B0CF68379E0C970F69169757689F
S2140041F012681C92B268219272684C6922924A68D0
S21400420098680B941B978C694F6A05920A68896AAE
S2140042101A9007915868F168DB68339D06978B42C1
S21400422040F06E820B99012900F36D82A96803297C
S21400423040F069826968032940F06582614209910D
S2140042401A990E94594312915900089103EB4301B1
S2140042501791011918910B9949421D910C995943D0
S21400426024911D99002B01FB03F1239123F00301F8
S214004270B8BF002111911198591A8342B8BF002186
S214004280259100210A911391D91E279113992298FE
S214004290814203DB002029B0BDE8F08F0999129C0B
S2140042A000290E99C8BF00210D910D980999014467
S2140042B0239804FB010110910B981A99179C1990EA
S2140042C001440F911D99149100210D981591349970
S2140042D004FB00111F9118990329A8BF0321209100
S2140042E01599219881420DDB169809990144099188
S2140042F01399013113910E99091A0E911899091AFA
S2140043001891C3E714990A9800291999C8BF002183
S2140043101E91389901440391DDE91B1602913699E6
S2140043200191002110980491329901442691279911
S2140043300498814224DC11980A99109C01448C460A
S214004340389901EB0C0E0146329800EB04089942AE
S214004350C0F2798125990C9861440A911499014418
S21400436014911599013115911999091A19912498E2
S2140043701099014410910C980F99091A0F91AFE704
S2140043800199269FDDF83490D1E90054D1E9020165
S21400439000913946049F01EB070E1F9F3946049F84
S2140043A001EB07082099494500F3DF800299D1F810
S2140043B000C02CEAEC77BD4037684FF0804E4FF0D7
S2140043C00008C5FB07E84FEADE77BCF1000F47EAB6
S2140043D048084FF00101D4BFCCF10007002701FACE
S2140043E007F5013D58FA07F708EA050E45FA01F504
S2140043F048BF6D180299AE45D1F804E02EEAEE7576
S21400440004FA05F475684FF080484FF00009C4FBC5
S21400441005894FEAD87CC8BF0137BEF1000F4CEAC9
S21400442049094FF00101D4BFCEF1000C4FF0000C4B
S21400443001FA0CF4013C59FA0CFC09EA040544FAAA
S21400444001F448BF64180299A5428D6825EAE57410
S21400445000FA04F0B468C8BF0CF1010C4FF0804EAF
S214004460002D4FF00008C0FB04E84FF00101D4BF58
S2140044706D42002501FA05F04FEADE7E4EEA480856
S214004480013858FA05F508EA000440FA01F048BF7A
S214004490401802998442CC68009924EAE47001FA34
S2140044A000F1F0684FF0804E4FF00008C1FB00E8C6
S2140044B0C8BF0135002C70464FF00101D4BFC4F1CF
S2140044C0000E4FF0000EC00F01FA0EF140EA480849
S2140044D0013908EA010458FA0EF84FEA610148BFAC
S2140044E001318C4205990F440699C8BF08F10108AE
S2140044F08F42B8BF0F4605998C4406998C45B8BFC5
S2140045008C4605990D4406998D42B8BF0D4605990F
S214004510884406998845B8BF884607998F42A8BF41
S2140045200F4603990F7007998C45A8BF8C460399D0
S21400453081F801C007998D42A8BF0D4603998D707A
S21400454007998845A8BF8846039981F8038004998F
S21400455004310491039904310391029910310291B8
S2140045600199103110360191E1E61E9FFFB9DEF881
S2140045700070D8F800C0009942FA87FA4FFA8CFB10
S2140045800BFB0A5547F3072A4CF3072B92440BFB09
S2140045900A4447F3074A4CF3074B02EB27674FEAF8
S2140045A02C6C92440CFB07110BFB0A0000915EF882
S2140045B0037058F803C0009942FA87FA4FFA8CFB4A
S2140045C00BFB0A5547F3072A4CF3072B92440BFBC9
S2140045D00A4447F3074A4CF3074B02EB27674FEAB8
S2140045E02C6C0CFB07110F9F00919244022F0BFBC3
S2140045F00A0021DD0899089F51F808C057F80E7088
S214004600009942FA87FA4FFA8CFB0BFB0A5547F3E0
S214004610072A4CF3072B92440BFB0A4447F3074A3E
S2140046204CF3074B02EB27674FEA2C6C92440CFBCB
S21400463007110BFB0A00009112998E44179909F195
S21400464001098844AEE636981F9D50F821000D9E5D
S21400465008EB01040D44209FB74230DC1B9C54F845
S214004660216026EAE674A0401C9C54F82140002EE7
S2140046704FF080454FF00007C0FB0457D4BF76428A
S21400468000260120ED0FB04045EA4707013807EA4B
S214004690000437414FEA600048BF01308442059865
S2140046A0C8BF0137074406988742B8BF0746079831
S2140046B08742A8BF07460EF8017B013147E61E9FDA
S2140046C037B994F9007095F90090174409FB070074
S2140046D0E75615F90390174409FB07000F9F022FB2
S2140046E008DD089FE75707EB020A089F15F90790B1
S2140046F009FB0A00129F3C44179F01363D44AAE777
S2140047006FF00200C7E54FF0FF30C4E52DE9F04F2B
S214004710C869D1F82090B7B084B22C941FFA89F4F7
S2140047202D948C6801941C68419D1D949C681E9471
S2140047305C68DB680493AB681F936B6823934B69D4
S2140047400E93CB680593DDE944A60B690F93536877
S214004750249313688D692593B3682693736827930B
S2140047604B6806930B6828934B6A07938B6A0893EB
S214004770019B13F0030340F0D9811D9A012A40F0F3
S214004780D581012840F0D281B9F1010F40F0CE81E9
S214004790F26809926A4209990A921F9A0D954A434D
S2140047A0209204991E9A0C934A43219262191D92F4
S2140047B00E9A179352422292059A4A432F920A461D
S2140047C022994A4330920199019A033102F1030279
S2140047D022F00302B8BF00222E92179B279A93421C
S2140047E003DB002037B0BDE8F08F0A9B0E9A002B43
S2140047F00D9BC8BF002315931E9B13441893159A50
S2140048000A9B1344219A53432993159A209B53439A
S2140048102A93309B14930E9B1993229B119300238B
S214004820239A16931D9B9342A8BF13463393169B59
S214004830269A93420DDB0F9A0A9B13440A93179B02
S214004840013317930D9B9B1A0D931D9B9B1A1D936B
S214004850C3E7119B149A002B199BC8BF0023109323
S214004860299B109913441A93099A2A9B01FB023339
S2140048702B930A46409B049901FB0233189A1F9912
S2140048802D938A42A8BF0A4600233292099A9A427A
S21400489040F33A810C99469A0A442499039201EB14
S2140048A0830102912B99259A19442C91002102EB41
S2140048B083020AEB83080B91DDE0BAF1000F00F0EB
S2140048C0E980D8E90065D8E9024E2C991B91159924
S2140048D00B9812914299DDF868C0014431913399E2
S2140048E012988842C0F2DB800299086820EAE071DC
S2140048F08E4011684FF080474FF0000CC6FB017CDD
S214004900FE0F002846EA4C0CD4BF4642002609FAA1
S21400491006F101395CFA06F60CEA01074FEA610176
S21400492048BF01318F420299486820EAE07105FAD3
S21400493001F551684FF080474FF0000CC5FB017C35
S2140049404FEAD775C8BF0136002845EA4C0CD4BFDD
S2140049504542002509FA05F101395CFA05F50CEA2D
S21400496001074FEA610148BF01318F42029988680A
S21400497020EAE07104FA01F491684FF080474FF0A6
S214004980000CC4FB017C4FEAD774C8BF0135002871
S21400499044EA4C0CD4BF4442002409FA04F101391D
S2140049A05CFA04F40CEA01074FEA610148BF0131E2
S2140049B08F420299D068CF6827EAE77C0EFA0CFC93
S2140049C0C8BF01344FF08041002F4FF0000ECCFBE3
S2140049D0001ED4BF7F420027C90F09FA07F041EA3C
S2140049E04E0E013806990EEA000C5EFA07FE4FEAF4
S2140049F060000E4448BF013007998445C8BF0EF1D9
S214004A00010E8E42B8BF0E4608998E42A8BF0E46CB
S214004A1003990E7006990D4407998D42B8BF0D464E
S214004A2008998D42A8BF0D4603994D7006990C440F
S214004A3007998C42B8BF0C4608998C42A8BF0C4612
S214004A4003998C7006998E4407998E45B8BF8E469A
S214004A5008998E45A8BF8E46039981F803E00B9906
S214004A6004310B91039904310391029910311032ED
S214004A70029108F1100801990B9881423FF71DAF8B
S214004A800C9A2E990A440C92019A13441A9A0132EF
S214004A901A92FBE6D64654465546564615E72D99D5
S214004AA01B9861441C9131990144109813901398F7
S214004AB0329FB84209DB12992098013112911B9956
S214004AC001441B9121998C4409E71C9891F900B088
S214004AD090F900702898384400FB0B6691F901B0F5
S214004AE0049F00FB0B5591F902B000FB0B4491F9B3
S214004AF003B000FB0BEE1398013013901C9838445B
S214004B001C9009980144D2E7059A119B134411930F
S214004B10169B01331693199B9B1A1993189B9B1A85
S214004B2018932F9A149B1344149380E6ABB22993E0
S214004B30BDF814302A93BDF83C302B93BDF878307E
S214004B400993099ABDF810E0A3B2199353430EFBDC
S214004B5003F32E93BDF8043015930EFB03F3029374
S214004B60029ABDF898301A9353431C931C9ABDF8CA
S214004B709C301B9353432793099B1FFA89F903FB29
S214004B8009F31FFA80F8229308FB0EF330930023F4
S214004B90059314930E9B5B429BB23593BDF88C3005
S214004BA02193BDF87430059A93427FF71AAE299B7D
S214004BB05B429BB20D93149B139300230E93BDF898
S214004BC07C300A932CE0BDF934B0BBF1000FCBF17A
S214004BD00003C8BF00232693359B0C93139B1293A8
S214004BE000230F93199BA3EB0B032093DDE92023EF
S214004BF09342A8BF13463393A9EB0B03013B3493B0
S214004C000F9B1A9A93421BDB139B1C9A1344139315
S214004C100E9B2B9A01330E930D9B13449BB20D9360
S214004C200E9B1B9A9342CEDB149B279A1344149335
S214004C302E9A409B13444093059B01330593B0E79F
S214004C40BDF930300193019A002AC3F10003C8BFB2
S214004C5000232393129B11930023CDE90333099B72
S214004C609B1A1E931E9A0A9B9342A8BF1346329322
S214004C70049B734500F0BC80119A469B1344169320
S214004C80039A6EE02C9B012B79D91E990A98019BFA
S214004C9001EB0804013C94FBF8F484422146A8EB9F
S214004CA00303A8BF0146013B179193FBF8F323EAE1
S214004CB0E3732D99012966D9349991FBF9F020996F
S214004CC0219C4944013991FBF9F1A142A8BF214634
S214004CD020EAE0701891BAF1000F58D05AF822C0B6
S214004CE00999019C00FB09B74F430A9908FB034446
S214004CF041430B912F94189988424ADB249B53F822
S214004D00220020EAE0730CFA03FC259B53F82230BD
S214004D1000284FF080414FF00004CCFB0314D4BFB2
S214004D20404200200123C90F834041EA4404013B6E
S214004D3004EA030504414FEA630348BF01339D427A
S214004D40069BC8BF01341C44079B9C42B8BF1C4648
S214004D50089B9C42A8BF1C46169B03F8014B0132D9
S214004D601693159B03990B449A428BD1119B159968
S214004D700B441193049B0133CDE9032378E7329B60
S214004D801793239B95E7339926981891A3E7D44663
S214004D90A6E72F9C0B9910933E19049C0EFB064623
S214004DA0409C2644029CCD1804FB0525429C2544C5
S214004DB01799109C8C4207DB22990F44DDE90A14F0
S214004DC00C4401300B9496E796F90010289C214479
S214004DD00C4695F9001031912146319C04FB01CC1C
S214004DE010990131109130990E4402990D44DFE775
S214004DF0129B029A134412930F9B2A9A01330F9325
S214004E000C9B13449BB20C93FAE68B68C06858431D
S214004E104B685843400070472DE9F04F2DED048B4A
S214004E20B7B0D3F80C80499EF568A8450C461F46D7
S214004E30459940F0D582036801932BB93846FFF7B1
S214004E40E4FF002800F3CF82BB6811937B682893A9
S214004E508B6806934B680F9363692993A3692A931B
S214004E60E3682B9323692C93536816931368179360
S214004E70B368189373682D9363680793636A0893FF
S214004E80A36A0993069B2168002D284603FB08F3B6
S214004E90B8BFE81C1B93C0F38F030F9A1A93069BA8
S214004EA013FB02F4A3B22F93069B534303EBD37278
S214004EB0C2F34F03309304F0010331934FEA4803E3
S214004EC00093043322934FEA88031493189CC0F38C
S214004ED08F03980005F00305249024EAE47405EB9C
S214004EE0830060432390119800FB08F034904898A4
S214004EF000EB03102190169800EB031033901798E0
S214004F0000EB031332931A9B9B009BB21E93ABB22B
S214004F102E931E9B1D44ABB22793C2F34F03149AE5
S214004F205A431D92009A53431C93069B23EAE3734D
S214004F3008FB03F3259300230C930BB209EE103AFB
S214004F400C9B2D9A934205DB002037B0BDEC048BFA
S214004F50BDE8F08F2C9A0C9B0F9913FB02F32A9A4C
S214004F609B1A1BB2002BC3F10002C8BF0022059299
S214004F70289AD21A8A42A8BF0A4619921B99059AFD
S214004F8019984A43510008EE101A0F99091A1B98EF
S214004F9015914143490008EE901A0599002908BF6B
S214004FA000222692119A0B44534335934A9B109342
S214004FB000230D930D9B189A934207DB4A9B239A76
S214004FC013444A930C9B01330C93B9E70D9B2B9A21
S214004FD013FB02F4299BE41A059B24B22BB118EEAE
S214004FE0102A0198002125F0F1FB359BDDF814A06E
S214004FF0269F1D19449B08FB0535199B9A4536DBF1
S214005000159B3BB1019B18EE902A002103EB47004D
S21400501025F0DCFB489B03F11006179B03F11009F3
S214005020169B03F1100E109B03F1040C1A9B0A93B7
S21400503000230B930A9B002B3FD1249A109B13440A
S2140050401D461F46DDE932EC219B02931E9A0A9B01
S21400505003934FF0804B4FF00109279B9A4240F094
S21400506077812E9BEB1810930D9B0133A1E7019BD4
S214005070AB4603EB47090026069B9E4206DB259BB4
S2140050801F44349B0AF1010A1D44B6E7331902D4C3
S214005090119A9A4209DC009A0021484625F096FBB0
S2140050A0009B01369944C344E6E719EE103A42469F
S2140050B04946584601F09BFDF2E756E90443029341
S2140050C056F8083C039356F8043C0B9A0493019B4D
S2140050D0309D03EB42031293469B1298134413939E
S2140050E0134604339BB20B93139B0E93002D40F094
S2140050F0EB801D9A129B1C991344139A0A4431990B
S214005100E1B11C9813991D9D09561298405B029DAB
S21400511010FB0144588892F9011010FB01510291CE
S214005120988892F90210039D92F90320DB8810FB01
S21400513001510391049913FB021304935EF8101CAB
S21400514021EAE1739C4059F8103C00294FF0804258
S2140051504FF00000C4FB0320D4BF494200210123C6
S214005160D20F8B4042EA4000013B00EA03040841AC
S2140051704FEA630348BF01339C42079BC8BF013018
S2140051801844089B9842B8BF1846099B9842A8BF87
S21400519018460CF8040C5EF80C1C029B21EAE17021
S2140051A08340184659F80C3C00294FF080424FF0D7
S2140051B00004C0FB0324D4BF494200210123D20FC0
S2140051C08B4042EA4404013B04EA03000C414FEAE8
S2140051D0630348BF01339842079BC8BF01341C4491
S2140051E0089B9C42B8BF1C46099B9C42A8BF1C4615
S2140051F00CF8034C5EF8081C039B21EAE170834020
S214005200184659F8083C00294FF080424FF0000439
S214005210C0FB0324D4BF494200210123D20F8B4098
S21400522042EA4404013B04EA03000C414FEA6303EC
S21400523048BF01339842079BC8BF01341C44089BF3
S2140052409C42B8BF1C46099B9C42A8BF1C460CF853
S214005250024C5EF8041C049B21EAE1708340184669
S21400526059F8043C00294FF080424FF00004C0FB80
S2140052700324D4BF494200210123D20F8B4042EAC7
S2140052804404013B04EA03000C414FEA630348BFB1
S21400529001339842079BC8BF01341C44089B9C42BC
S2140052A0B8BF1C46099B9C42A8BF1C460A9B0CF82C
S2140052B0014C013B9BB20A93103609F110090EF11E
S2140052C0100E0CF1040CB5E60E9B009A196853F804
S2140052D00830D0F800B017582FFA81F2C7EA0B4A08
S2140052E04FEA3121C7EA2B472FFA81F11F912FFA97
S2140052F083F14FEA332320912FFA83F3C1EA024B5E
S2140053002AFB0B441F99C1EA034A029927FB0A119C
S21400531002912299D0F804A00F582099C7EA0A4BA8
S214005320C2EA2142C7EA2A4703992BFB02120392DC
S2140053301F9AC3EA2243049A27FB0323009A049386
S2140053400E9B13440E93149B013D1844ADB2CDE65C
S21400535013464698029AC41852F8041B0198029203
S2140053605A1C92B200EB430300202F9E86422DDC8F
S2140053705CF8040B5EF8044B039E20EAE073994049
S21400538000285B46C1FB0436D4BF40420020DB0F3A
S21400539009FA00F143EA460A01390AEA01045AFA10
S2140053A000FA4FEA610148BF0131079B8C42C8BF33
S2140053B00AF1010A9A44089B9A45B8BF9A46099B87
S2140053C09A45A8BF9A4607F801AB46E61E8894F9A8
S2140053D000A016FB0A11009E013044443344C4E783
S2140053E06FF00200B1E54FF0FF30AEE52DE9F74F64
S2140053F00E9D01958D680093012DDDE90C76DDE9A3
S2140054000FBADDE9119884460C4696462AD11D68E7
S214005410012D27D1CD69012D24D10D6A012D21D171
S214005420B568032D0DD17568032D0AD18D69012D40
S21400543007DC4D69012D04DC03B0BDE8F04FFEF734
S214005440CEBE019B0C97CDE90D63009B72462146AC
S2140054506046CDE91198CDE90FBA03B0BDE8F04F2C
S214005460FFF7DABC019B0C97CDE90D63009B7246F3
S21400547021466046CDE91198CDE90FBA03B0BDE8E4
S214005480F04FFFF743B910B404460846DB681146F0
S214005490C2689A420CD10368012B09D1E369012B3B
S2140054A006D1236A012B03D15DF8044BFFF7ADBC90
S2140054B000205DF8044B70472DE9F04F9BB04FEA93
S2140054C0520A0F93BDF998300493BDF99C300593AA
S2140054D0DDE929B3BDF8A0E00A921344129301EB6C
S2140054E04E0302932A9B0E9002330993129B0E9E44
S2140054F0CDF830A002330893249B03F108050F9BD8
S214005500083303930EF0030314934FEA9E039A00A6
S2140055101892149A0EEB020000EB83020D920E9A7C
S21400552002EB8302079201EBC3021092029A02EB8F
S214005530C30388460B930C9B002B40F086802A9B67
S21400554003EB4A00DDE90D2302FB0A310A9BDB0769
S21400555076D5BBF1000F00F0CD81DBF800201646B3
S2140055600C46109B434540F0C781189B19440EF02B
S21400557003030B44994240F0DF810F9B53F83A50E7
S21400558025EAE5739A40249B002453F83A30A54256
S21400559027464FF08041C2FB0317D8BF6C42012359
S2140055A0C90FA34041EA4707013B07EA0302274128
S2140055B04FEA630348BF01339A42259B249AC8BF2B
S2140055C001371F44049B9F42B8BF1F46059B9F425E
S2140055D0A8BF1F462A9B03F81A700F9B52F83A5032
S2140055E053F83A40002224EAE47306FA03F394429E
S2140055F016464FF08041C3FB0516D8BF6242012312
S2140056009340C90F41EA4601013B51FA02F201EA12
S21400561003044FEA630348BF01339C42259BC8BF7F
S21400562001321344049A9A42B8BF1A461346059AA2
S2140056309A42A8BF1A461346129A02F81A30013048
S2140056400A9B18441BB0BDE8F08F06EB0E031996B4
S2140056501193BBF1000F00F0F180DBE900030BF1C2
S214005660080BDDF808C0CDF8048006930746109AAC
S21400567001998A4240F0E580079A0EEB02011191EB
S2140056800B990E46149914460C44159415998A42A3
S21400569040F01581039A52F8084C24EAE4729040D0
S2140056A055F8082C002C4FF080414FF00006C0FB48
S2140056B00216D4BF644200240122C90FA24041EA68
S2140056C04606013A06EA020026414FEA620248BF51
S2140056D001329042259AC8BF01361644049A964273
S2140056E0B8BF1646059A9642A8BF1646099A02F80B
S2140056F0026C039A52F8080C20EAE072974055F8BC
S214005700082C00284FF080414FF00004C7FB02141D
S214005710D4BF404200200122C90F824041EA44041F
S214005720013A04EA020604414FEA620248BF013227
S2140057309642259AC8BF01341444049A9442B8BFCE
S2140057401446059A9442A8BF1446089A02F8024CDA
S214005750039A52F8040C20EAE072934055F8042CA1
S21400576000284FF080414FF00004C3FB0214D4BF62
S214005770404200200123C90F834041EA4404013B14
S21400578004EA030204414FEA630348BF01339A4226
S214005790259BC8BF01341C44049B9C42B8BF1C46D2
S2140057A0059B9C42A8BF1C46099B03F8014C039B23
S2140057B053F8040C069B20EAE07903FA09F955F839
S2140057C0043C00284FF080414FF00002C9FB031252
S2140057D0D4BF404200200123C90F834041EA420261
S2140057E0013B02EA030402414FEA630348BF013368
S2140057F09C42259BC8BF01321A44049B9A42B8BFFC
S2140058001A46059B9A42A8BF1A46089B03F8012C25
S2140058100D9A199B13441E460C9B013B9BB20C939E
S214005820099B02330993089B02330893039B0833B2
S2140058300393079B1344083507937CE65B4658465C
S2140058400FE7019ADCF80090126856F8041B1392D2
S2140058502FFA91F22FFA81F1C2EA21441594119C95
S214005860C1EA024154F8042B11942FFA92F41694CC
S2140058702FFA82F2C4EA22441794169CC2EA044223
S214005880139C21FB040021FB097722FB04330699B5
S21400589022FB0912019C0199DCF80490496808343F
S2140058A001940CF1080C159C24FB010024FB0977DD
S2140058B0179C24FB013324FB09220692D7E6019CA1
