S02B00006275696C642F64656275672F74666C6974655F6D6963726F5F6D6963726F5F7370656563682E73333A
S21400000000100020590700005507000055070000A3
S214000010550700005507000055070000550700006B
S214000020550700005507000055070000550700005B
S214000030550700005507000055070000550700004B
S214000040550700005507000055070000550700003B
S214000050550700005507000055070000550700002B
S21400006055070000310C000055070000550700003A
S2140000701DBC000029BC0000550700005507000005
S21400008055070000550700005507000055070000FB
S21400009055070000550700005507000055070000EB
S2140000A055070000550700005507000055070000DB
S2140000B055070000550700005507000055070000CB
S2140000C055070000550700005507000055070000BB
S2140000D055070000550700005507000055070000AB
S2140000E0550700005507000055070000550700009B
S2140000F0550700005507000055070000550700008B
S21400010055070000550700005507000010B5054CC0
S214000110237833B9044B13B10448AFF300800123AE
S214000120237010BD281100200000000050A0010020
S21400013008B5034B1BB103490348AFF3008008BD65
S214000140000000002C11002050A00100A3F5803A0A
S214000150704700BF174B002B08BF134B9D46FFF799
S214000160F5FF00218B460F461348144A121A0EF06C
S214000170DFF80E4B002B00D098470D4B002B00D01D
S21400018098470020002104000D000D48002802D0EA
S2140001900C48AFF300800DF0B1FF200029000BF0F3
S2140001A04BFD0DF0CDFD00BF000008000000000074
S2140001B0000000000010002028110020C86B00205E
S2140001C000000000000000000F207047082808B557
S2140001D01BD010DC022806DC002806DD01230422E2
S2140001E00921052015E00428F8D010489F2100F0CA
S2140001F059FD0E2010E020280FD0402811D01028DE
S214000200F3D1012304220E21EBE7012304220A2165
S214000210184601F09BFF002008BD01230422082198
S214000220DFE7012304220A21DBE700BF601A010092
S21400023008B50548012100F0D5FD0BF03DFCBDE8F2
S214000240084000F0F9B900BF00350A000148012156
S21400025000F0C8BD00350A00F0B54B1E012B8BB070
S21400026007460E4676D83C4D0FCD01AC0FC40FCDD9
S2140002700FC42B6839482360012100F0B3FD3848CD
S214000280384C012100F0AEFD002301220721022098
S21400029001F05CFF002304220821022001F056FF33
S2140002A0042200230921022001F050FF05238DF8C7
S2140002B004300123012E01A920468DF818304FEA9C
S2140002C087174FF4407308BF8DF82360ADF82030D1
S2140002D0039702F045FA244BA3670D23636700F0EB
S2140002E02BFC2248002100F0F7FB044618B101243D
S2140002F020460BB0F0BD1E4AD37823F03C0343F0F3
S2140003003403D370D37C23F03C0343F03403012E34
S214000310D37412D10146174800F0DEFB0028E6D160
S214000320154AD37823F03C0343F03403D370D37CD0
S21400033023F03C0343F03403D374104B104A1E7072
S214000340002313700F4A13700F4A13700F4B0122CD
S2140003501A70CDE72124CBE7A01A010000350A0069
S21400036000520400000401400B000B0B4811002053
S214000370041000204C1100202410002052110020F0
S214000380531100206C110020511100205011002044
S214000390184B1B7873B5002B28D0174D2C783CBB18
S2140003A0164A174E11681369164831400143334008
S2140003B011600343144915489160136191610094DC
S2140003C0134B1449006800F0EDFB134B1B78012B10
S2140003D007D112480094124A12490068234600F0DA
S2140003E0E1FB01232B70002002B070BD1120FBE75B
S2140003F00220F9E7501100205111002004100020BF
S2140004000F80FFCFF07F00306011002048110020E1
S214000410F904000044100020521100204C11002066
S2140004202410002054100020184B1B782DE9F041B2
S21400043004460D4616461BB3154B1B7813BB154FCB
S2140004403B78FBB9DFF8608098F800304B43B3F593
S214000450006F19D8104B1B780BB9FFF799FF98F867
S21400046000000E4B684318600D4B1C6004EB400404
S2140004705C600C4B1E6001233B700020BDE8F081E1
S2140004801120FBE70220F9E72120F7E750110020B2
S214000490531100206C11002051110020581100202B
S2140004A064110020441100205211002010B50C4C9D
S2140004B0237893B10B4B186800F09AFB0A4B1B7815
S2140004C0012B03D1094B186800F092FB084B002063
S2140004D01870084B2070187010BD0220FCE700BF93
S2140004E05111002048110020521100204C1100200C
S2140004F0531100206C110020F8B53B4D2B78002BD3
S21400050042D03A483A4E11F0010F00F1100308BFEE
S2140005101946384B32681C6818BF0146A2422CD2D6
S214000520CB786FF30513CB70334B1B6803EB42039A
S2140005308B60A31AB3F5006F0B8817D940F2FF74CF
S21400054064F30E1302F500620B803260C37803F08A
S2140005503003302B08D1C37C03F03003302B03D19B
S21400056000232B70FFF7A2FF0120F8BD671EBA1A02
S21400057062F30E130B803460E8E70A681F4B1343E0
S2140005800B601F4B8B60E1E71E4B1B78002BEBD0FC
S2140005901648C94301F0010300EB03141D01E2787D
S2140005A0C2F30112032A0FD1124A46591268013AC1
S2140005B0C2F30A01144A324042EA01124251134A77
S2140005C052F82330A360CFE7114A1268002ACBD036
S2140005D01049084809780068B0FBF1F10B4850F85C
S2140005E023009047C0E700BF5311002004100020EE
S2140005F05C1100205811002054110020F07F0030BC
S214000600601100206C1100200F80FFCF64110020C5
S2140006104411002052110020024B0222C3F8EC21A4
S214000620704700BF00A00046024B0222C3F8EC2130
S214000630704700BF00A0004470B5384D384E0FCD4F
S21400064088B001AC0FC495E80700364D84E8070073
S2140006503548012100F0C6FB30460121012400F098
S214000660C1FB324B039301A928468DF8124002F0D5
S21400067017F82346042200210A2001F067FD2246CF
S214000680002302210A2001F061FD234604220721EF
S214000690052001F05BFD0422214623460A2001F0D6
S2140006A055FD234BAB670B236B674FF4487002F086
S2140006B0D5FB1420FFF7B8FF02F0D0FB2320FFF78E
S2140006C0ABFF02F0CBFBB9212846FFF7ADFF02F0E7
S2140006D089F8FFF7A1FF00231A4619460A2001F001
S2140006E035FD00231A4602210A2001F02FFD23467D
S2140006F000220721052001F029FD2346002221467D
S2140007000A2001F023FD284601F02AFF0021A967F0
S2140007103046696700F066FB08B070BDC41A010079
S214000720006204000008014000350A0000127A004A
S2140007301E1D001205490A681318054883428CBF1F
S2140007404FF0FF320B601046704700BF6410002069
S21400075000000420FEE7000008B500F069F8064B2C
S2140007600649074A8B4201D3FFF7F4FC52F8040B04
S21400077043F8040BF6E700BF001000202811002005
S21400078058A001000048704700F04902104AD2F80D
S214000790943003F00703023B032B13D8DFE803F083
S2140007A00C14020E0B4B1B68D2F80001C0F3042099
S2140007B00130B3FBF0F07047074BF4E7074B1B68BC
S2140007C05B08F1E7054BEEE74FF40043ECE700BFAC
S2140007D000400E40741000206C10002070100020A6
S2140007E008B5FFF7D3FF054BD3F80831C3F308234A
S2140007F00133B0FBF3F0024B186008BD00400E401A
S21400080068100020014B1868704700BF6C1000206D
S214000810054B1860054BD3F8943003F00703022B02
S21400082001D1FFF7DDBF70476C10002000400E407E
S214000830044B054A9A60D3F8882042F47002C3F845
S2140008408820704700ED00E0000000004FF40040F4
S21400085070474FF47A707047014B1868704700BFB6
S21400086074100020D0E90003184703690068184791
S21400087038B50D46044618B3012824D0022825D0E2
S214000880032826D004280ED0052825D0831F012B48
S21400089009D9082823D0092823D00A2803D10723FA
S2140008A0EB40DB0704D410484FF47F7100F0FAF9F0
S2140008B030200E4B0121444301FA05F51D5138BD89
S2140008C040F2FF33ECE74FF6C073E9E740F6FF73FC
S2140008D0E6E74FF47F43E3E74FF6FF73E0E70F23C7
S2140008E0DEE74FF44043DBE7E01A01000CA00044CB
S2140008F038B50D46044618B3012824D0022825D062
S214000900032826D004280ED0052825D0831F012BC7
S21400091009D9082823D0092823D00A2803D1072379
S214000920EB40DB0704D4104840F22B4100F0BAF944
S21400093030200E4B0121444301FA05F51D5138BD08
S21400094040F2FF33ECE74FF6C073E9E740F6FF737B
S214000950E6E74FF47F43E3E74FF6FF73E0E70F2346
S214000960DEE74FF44043DBE7E01A01000CA0004648
S21400097010B501210446094800F034FA0848012160
S21400098000F030FAA37820786178B3FA83F35B0935
S214000990042201F0DBFB002010BD00BF4041050033
S2140009A000350A000346007859789B780BB9FFF7A4
S2140009B05FBFFFF79DBF0346007859789B780BB959
S2140009C0FFF796BFFFF754BF38B5047845782CB3C9
S2140009D0012C26D0022C27D0032C28D0042C0ED095
S2140009E0052C27D0A31F012B09D9082C25D0092CAC
S2140009F025D00A2C03D10723EB40DB0704D411488B
S214000A0040F2464100F04EF93022544304F180444F
S214000A10012304F52044AB40A36138BD40F2FF3308
S214000A20EAE74FF6C073E7E740F6FF73E4E74FF4F4
S214000A307F43E1E74FF6FF73DEE70F23DCE74FF473
S214000A404043D9E7E01A010070B5047845780646B9
S214000A5054B3012C2BD0022C2CD0032C2DD0042CDC
S214000A600ED0052C2CD0A31F012B09D9082C2AD078
S214000A70092C2AD00A2C03D10723EB40DB0704D429
S214000A80134840F2164100F00DF930235C43114B39
S214000A90234405EBC305AD00B3782868C0B213B98C
S214000AA0B0FA80F0400970BD40F2FF33E5E74FF63C
S214000AB0C073E2E740F6FF73DFE74FF47F43DCE7FF
S214000AC04FF6FF73D9E70F23D7E74FF44043D4E739
S214000AD0E01A01000CA0100238B5124B1B78054630
S214000AE0DBB1E0B100F0F7FE0F4A00231146147B9D
S214000AF054B92B601A0101EB031301258C501D73AA
S214000B0000F0EFFE204638BD0133082B02F110023C
S214000B10EDD100F0E6FE0548F5E70548F3E70548A1
S214000B20F1E700BFF012002070110020048000F0F2
S214000B30028000F0018000F013B5164B1868019093
S214000B4000238DF8043000F0C6FE134B1C7824B149
S214000B5000F0C7FE114802B010BD01221A7000F066
S214000B60C0FE0F4B1C731C7783F82C4083F83C4068
S214000B7083F84C4083F85C4083F86C4083F87C40F4
S214000B8004230DEB03008DF8073001F049FB2046E7
S214000B90E1E700BF101B0100F0120020038000F008
S214000BA070110020F8B50D4D2D7885B1072810DCA2
S214000BB00B4D05EB00140601277B67B1AB51069B76
S214000BC063600025A56001F06DFB2846F8BD05486A
S214000BD0FCE70548FAE70548F8E700BFF0120020F2
S214000BE070110020028000F0018000F0078000F005
S214000BF00A4A127808B552B107280AD8084A02EB02
S214000C0000131B7B3BB101F0D3FB002008BD054859
S214000C10FCE70548FAE70548F8E700BFF0120020B1
S214000C2070110020028000F0018000F0078000F0C4
S214000C302DE9F843DFF86480D8F86070D8F86C3097
S214000C401F4000D5FEE7144CDFF85490012600251F
S214000C50374217D02368C8F868609BB1A1686268FD
S214000C600131A16028469847637B012B0AD148B919
S214000C7009EB45131A7B60F341021A731A7F60F37F
S214000C8041021A770135082D4FEA460604F1100492
S214000C90DED1BDE8F88300BF7011002000200E40B2
S214000CA0F0110020FEE700000C4B984210D90C4BC8
S214000CB0984210D9022201230A490B640A49D1F846
S214000CC0003123F0807343EA0263C1F800317047B5
S214000CD000221346F0E70122FBE700BF0048E801C8
S214000CE00090D0030000C84300400E4038B5114BBA
S214000CF05B68114B00221C46C9B21D798D4202D199
S214000D001D68854212D20132052A03F10803F4D188
S214000D100A4841F23851FFF7C5FF032205494B68E0
S214000D2023F0407343EA02634B6038BD04EBC20213
S214000D305279F3E700000E40A41B0100141B0100CB
S214000D401F2810B5044604D9034840F24311FFF7A4
S214000D50A9FF0120A04010BD431B010038B5074C79
S214000D6041F67133256C2364FFF70CFD0021FFF775
S214000D70BDFF0DB10023236438BD00BF00000E4048
S214000D80044BDB6B5B0604D4034AD2F8C830002B56
S214000D90FBD1704700300E400000C64308B5FFF791
S214000DA0EFFF024B5868C0F3014008BD00300E400C
S214000DB0044BD3F84421D20703D4D3F84021104281
S214000DC0FBD1704700400E4038B5054C41F67133F4
S214000DD0256C2364FFF78AFF0DB10023236438BD1A
S214000DE000000E4038B5C0F30323013B092B24D87E
S214000DF0DFE803F02A2D2323051619231C20154CA3
S214000E000023C0F3043513B11846FFF7D1FF04F1F1
S214000E10424404F5801405EBC404A400216038BDE8
S214000E200D4C0123EDE70D4C1023EAE70C4C4FF474
S214000E308033E6E70B4C0023E3E7BDE838400A487A
S214000E4041F6D521FFF72EBF084C0023D9E7084C02
S214000E500023D6E7B0400E40E0400E40E8400E408B
S214000E60F0400E4050410E40141B010000400E4062
S214000E70C0400E4008B5C0F30313013B092B60D8F1
S214000E80DFE803F0050B0F195F5F1F233C532E4B63
S214000E90D3F80001C0F3042008BD2B4BD3F814018F
S214000EA0F8E7294BD3F80001C0F300600130FFF7E4
S214000EB047FF0138F0E7244BD3F80C01C0F30820B5
S214000EC0EAE7214BD3F80801F8E7204B984209D00F
S214000ED01F4B98420CD041F679411E48FFF7E2FEC0
S214000EE00020D9E7184BD3F8200100F00F00DEE70A
S214000EF0154BD3F82001C0F30110D8E7164B9842E3
S214000F0008D003F5B01303F58053984206D041F697
S214000F109D41E2E70C4BD3F82801ECE70A4BD3F8E7
S214000F202801C0F301200430C1E70C4B984205D1DC
S214000F30054BD3F8300100F00300ADE741F6AC41B5
S214000F40CBE741F6D141C8E700400E4080061600C8
S214000F5080162E00141B010090171A00A00914001A
S214000F6008B5FFF787FF013008BD000000F00F004E
S214000F70013808B5072844D8DFE800F0040F194305
S214000F80232D4335264BD3F8943003F00703023B5A
S214000F90052B3DD8234AD05C08BD214BD3F88030C2
S214000FA003F00703013B032B34D81F4AF3E71C4B1F
S214000FB0D3F8843003F00703013B032B2AD81B4ADF
S214000FC0E9E7174BD3F8883003F00703013B032B00
S214000FD020D8174ADFE7124B1B6F13F0010F0CBF28
S214000FE007200920D8E70E4BD3F85C3103F0300316
S214000FF0202B11D0302B11D0102B14BF012007202E
S214001000CAE70C4842F22501FFF74CFE0020C3E772
S2140010100520C1E70120BFE70420BDE70820BBE7A5
S21400102000400E40751B01007B1B01007F1B01006A
S2140010307B1B0100141B010038B52C4B984205465B
S2140010400AD02B4B984207D02A4B984204D02A4805
S21400105041F23861FFF726FE2846FFF787FF234B4D
S2140010609D42044611D0224B9D4212D0214B9D42F8
S21400107013D1224BD3F8804004F00704042C2DD85B
S214001080DFE804F02A11151D19001C4BD3F8844024
S214001090F2E71A4BD3F88840EEE7174841F267614B
S2140010A0FFF700FEEAE7BDE83840FFF7CFBBBDE834
S2140010B03840FFF7D1BBBDE83840FFF7CABBFFF7A3
S2140010C065FB0E4B0446D3F80001C0F30060013008
S2140010D0FFF736FEB4FBF0F4204638BD064841F272
S2140010E0B961FFF7DFFD0024F6E700BF030020002C
S2140010F00500240002001E00141B010000400E40E4
S21400110038B500F47813B3F5B01F05467FD02ED857
S214001110B3F5402F69D011D8B3F5802F54D006D838
S21400112043B1B3F5003F5AD041F605411AE0B3F596
S214001130202FF9D1BDE83840FFF728BBB3F5801F54
S21400114000F0A280B3F5A01F57D0B3F5602FEBD107
S2140011505B48FFF70BFF072800F096800928E9D0C8
S21400116041F2FA315748FFF79DFD002036E0B3F50F
S214001170381F5AD013D8B3F5001F5FD00AD8B3F57E
S214001180D01F5DD0B3F5F01FCED14F48BDE8384034
S214001190FFF752BFB3F5101FC6D14C48F6E7B3F5BC
S2140011A0481F57D0B3F5781F00F08280B3F5401F74
S2140011B0BAD14748FFF740FF464B0446D3F828010C
S2140011C0C0F3012004302BE0FFF7E0FA414BD3F8E0
S2140011D00C31C3F308230133B0FBF3F038BDFFF73F
S2140011E0D5FA3C4BD3F80831F3E7FFF7CFFA394B83
S2140011F0D3F81431C3F30423EDE73448FFF71CFF9C
S214001200344BD3F8303103F00303D840E6E72E48DA
S214001210FFF712FF2F4B0446D3F8200100F00F0013
S214001220FFF78EFDB4FBF0F0D8E72748FFF704FF82
S214001230284BD3F82031C3F30113E6E72448A5E78B
S2140012402348FFF7F9FE234B0446D3F82801C0F3E2
S2140012500110E5E72048FFF789FE0138072824D863
S21400126001A353F820F000BF6B110000AB12000082
S214001270AB1200008F120000AB120000AB12000091
S2140012808912000097120000144B1868A6E7BDE804
S2140012903840FFF7B7BAFFF779FA0E4BD3F80031AC
S2140012A0C3F3042303FB000098E741F2314159E7FA
S2140012B0FFF76CFA04462846FFF752FEB2E700BF77
S2140012C006000E00141B010002001E00050024008C
S2140012D00300200000400E40B800320078100020C6
S2140012E0014B1880704700BF7C100020013838B5CD
S2140012F00C46032864D8DFE800F002441A2FB1F544
S214001300007F04D3324842F62501FFF7CBFC314A72
S214001310C4F30804D2F86838002BFBD12E4A136AAF
S21400132023F4FF7323F001032343136238BD7F29A0
S21400133004D9274842F63201FFF7B4FC254A04F0E8
S2140013407F01D2F86038002BFBD1234B1C6924F0B8
S2140013507F040C431C61E9E77F2904D91C4842F648
S2140013604D01FFF79FFC1B4A04F07F01D2F864385A
S214001370002BFBD1184B9C6924F07F040C439C6126
S214001380D4E7154DD5F890305B0704D5104842F6E3
S2140013905D01FFF787FC6B6A23F0300343F0100310
S2140013A06B62C4F3C311CB1C2A6B0C490F2B01EAEA
S2140013B0020128BF0F23214341EA03712963B5E7E1
S2140013C0BDE83840024842F67701FFF76BBC00BF25
S2140013D0141B01000020C84300400E4000F8FF0F19
S2140013E0022810B50C4604D0144842F68F01FFF7C9
S2140013F059FC134B5B6A13F0300F1BD0202C16D011
S214001400302C17D0B4B10D4842F6AA01FFF74AFCBB
S2140014100C4B0B4AD2F8901033EA0101FAD15B026A
S2140014204ABFD2F8A0000120C0F3802010BD4FF4C0
S2140014300003EEE74FF44003EBE700BF141B010088
S21400144000400E40FF33E107022808B50CD129B151
S214001450094B4FF48060C3F8A80059664AB1BDE84E
S21400146008400220FFF7BCBF044842F6E001FFF741
S21400147019FC012008BD00BF00400E40141B0100EF
S21400148004282DE9F04704460F4691461FD83D4BE9
S2140014903D4A13F800A03D4B13F80080F1B93C4BD1
S2140014A033F810301366012303FA08F8D2F89030A8
S2140014B013EA080FFAD1B9F1000F5AD00125324AC3
S2140014C005FA0AF5D2F890302B42FBD151E0BDE880
S2140014D0F047304842F27471FFF7E4BB2E4B022807
S2140014E033F8106047D1536A13F0300F43D12B4BBB
S2140014F0DB6B5A0504D4274842F28371FFF7D2FB10
S214001500214A536ADB0705D5536A23F0300343F0BC
S21400151010035362224D1C4BA8441E664FEA8808EF
S214001520D8F80030002BFBD0B9F1000F21D055447D
S214001530AD002B68002BFCD0022C1AD1CFB1124F75
S214001540796A11F0010118D0012220212046FFF708
S2140015507BFFD7F89C40012200210220FFF790FF76
S214001560C4F30A010220FFF7C1FE3E662B68002B7B
S214001570FCD0BDE8F0870027CCE72046FFF730FF19
S214001580E7E700BF831B010000400E40881B0100F8
S214001590981B0100141B01008E1B010000300E403A
S2140015A08004F210112838B50C460FD000F00F005A
S2140015B00138072800F2EB80DFE810F02400660010
S2140015C09A00E9007D00B400E900C200042912D1A7
S2140015D0FFF718F90546A8B10021284600F094FA4E
S2140015E0023C0A2C45D8DFE804F04A473137444429
S2140015F044443D0F4D00052904D1664B1D68664BDB
S2140016009D42E9D80025EBE7032005240122114678
S214001610FFF736FFFFF7A2FB0DB1FFF7B1FB5F4BFD
S2140016205C67FFF7DDF80446FFF7B0F8FFF73CFB12
S214001630FFF7B4FB01462046FFF7C6FB002D5DD141
S21400164028460121BDE8384000F05EBA5448FFF74E
S2140016502BFB02200446D9E75148FFF725FB01245F
S2140016600320D3E742F2E601BDE838404D48FFF7D5
S21400167019BB42F2EB01F7E701200324C6E700207E
S2140016800424C3E70724C5E7062933D14548464D59
S21400169042F22A11FFF706FB424842F23A11FFF7E0
S2140016A001FBFFF773F8FFF7FFFA404B0122C3F880
S2140016B00826032321E006293D4DEDD0013C092CE8
S2140016C02BD801A353F824F021170000FF160000C2
S2140016D00D1700001B1700001B170000A3160000C4
S2140016E01B1700001B1700001B170000F916000050
S2140016F0304DE3E72C4DE1E704232B6038BD012293
S21400170011460020FFF7BCFE0223F6E70122114631
S2140017101046FFF7B5FE0123EFE742F26511A3E797
S2140017200023EAE7072904D0092906D042F2EF1180
S2140017309AE71A4B00221A67E0E7184B0122FAE7ED
S2140017404C1E072C1ED8DFE804F0201D1D161D1D9C
S2140017500F0403221149D1F85C3123F0300343EA29
S2140017600213C1F85C31C9E7012211460420FFF7D5
S21400177087FE0122EEE7012211460220FFF780FED7
S2140017800222E7E742F24D216EE70022E2E742F24C
S214001790243169E770100020002D310100400E4012
S2140017A00148E801141B010080400E400010C843A9
S2140017B088400E4084400E4010B504461120FFF7C6
S2140017C0D5FB042804D1274842F20F61FFF76AFAD6
S2140017D0012200210220FFF753FE63781BB9A3788D
S2140017E00BB9E37823B11F4842F24B61FFF75AFA70
S2140017F0237C012B04D11B4842F25261FFF752FAB8
S214001800194A217C536A23F00103022908BF43F0DA
S21400181001035362154B2178C3F8A014637AA1889C
S21400182043EAC123D362136BA07A217A03F07F6365
S2140018300343E08843EAC02343EAC11303310F2978
S21400184028BF0F2143EA01731363A37B617B1B014F
S21400185043EA0133E17B0B43217B43EA01435363B5
S21400186010BD00BF141B010000400E400000C8431E
S21400187070B505461120FFF779FB022804D10F4802
S21400188042F2CD61FFF70EFA0D4E0E4BB26B2C787E
S21400189013401C436B7844EAC324AB7844EA0364E1
S2140018A0EB7844EA0324B36BA34205D0002101225F
S2140018B00846FFF7E5FDB46370BD00BF141B0100CA
S2140018C000400E4080E4FFF8EFF3108072B67047D9
S2140018D000B962B67047EFF31180602383F3118876
S2140018E0704780F311887047034BD86B80F0400038
S2140018F0C0F38010704700BF00300E4038B542EA93
S2140019000323B3F5007F05460C463ED019D8B3F541
S214001910807F36D00AD883B3012B21D01F4840F6EB
S214001920EE11FFF7BFF9002213461FE040F2011246
S2140019309342F3D11A4BD3F824321A0EC3F307435B
S21400194014E0B3F5407F24D040F20132934210D029
S21400195040F201229342E1D1114BD3F8283202E043
S2140019600F4BD3F82432C3F30722DBB22B6022607E
S21400197038BD0B4BD3F82832DFE7094BD3F81C32BF
S214001980F1E7074BD3F81C32D7E7054BD3F82032E4
S214001990E9E7034BD3F82032CFE700BFCC1B0100AA
S2140019A00081E00F08B5FFF79FFF20B1024AD2F88A
S2140019B0C830002BFBD108BD0000C6431A4B0228D6
S2140019C010B5D3F830320C4612D0032813D00128B5
S2140019D014BFDBB2C3F307231B0323F47042ECB936
S2140019E05AB140F67D111148FFF75CF9002010BD92
S2140019F0C3F30743F0E71B0EEEE70D49CA6E22F469
S214001A0070421343CB660120F1E70949D1F8EC2078
S214001A1022F470421343C1F8EC30F4E7002AF4D005
S214001A2040F68911DFE700BF0081E00FCC1B010004
S214001A3000300E400378134A002B437870B514BF6D
S214001A4004260026002B8378946914BF02250025FF
S214001A50002B037924F03F0443EA0403C47814BF40
S214001A6008210021012C08BF43F0010333432B4318
S214001A700B4393611368417923F4403343EA0143EF
S214001A80136070BD00300E40F8B504460F46FFF7F1
S214001A902BFF78B3FFF786FF174B5B68C3F3014352
S214001AA09C4227D0154BD3F80061FEF76FFE022C40
S214001AB005460FD1124BC6F3042606FB00069E42CF
S214001AC004D9104840F21471FFF7ECF802212846BA
S214001AD0FFF77AF9C4F1020210239340064A136115
S214001AE00FB1FFF75FFF2CB921462846BDE8F84046
S214001AF0FFF76AB9F8BD00BF00300E4000400E4048
S214001B00002D3101CC1B010013B50246FFF7ECFE99
S214001B10C8B152B90D4B0191D3F80041FEF736FE1D
S214001B20C4F30422019902FB0002094B1B7843B15F
S214001B30084B9A4205D8022002B0BDE81040FFF7D5
S214001B40A3BF0020F8E702B010BD00BF00400E4063
S214001B50F8120020002D3101224B4AF6E85210B54B
S214001B60596B5A639A6FD207FCD41B6C13F00303AD
S214001B701EBF1D4A0124C2F8B44A834204D110B9DC
S214001B80194BC3F8B40A10BD032B00D09BB9431EF3
S214001B90012B10D8134A4FF40023D362936FDB0750
S214001BA0FCD4136C23F0030343F0010313640D4AC3
S214001BB0536A1C03FCD50B4B9A6FD207FCD41A6CE5
S214001BC022F0030202431A649A6F12F00102FBD15C
S214001BD00038054C18BF01200129C4F8B40A08BF14
S214001BE05A63D0E700300E400000C6432DE9F04FA0
S214001BF0A0F5E16389B00024B3F5966FCDE9024401
S214001C00CDE90444CDE9064406468A46934605D9FE
S214001C1040F676315548FFF745F8A3E0B0F5E16F9A
S214001C20534B8CBF0122002249D1D3F81832C3F39C
S214001C300721DBB2079104934FF416754FF49667AD
S214001C4048E0BBF1000F0ED0D9F85C2022F4FE422B
S214001C5022F00202B6F5E16F42EA012218BF022026
S214001C600243C9F85C20BAF1000F26D020460021B6
S214001C70FFF7A4FE044610B940F6D331CAE70121A7
S214001C804046FFF79BFE044610B940F6DB31C1E73D
S214001C90384A536EBD4238BF3D4623F4FF73E72DE6
S214001CA023F0010328BFE725B6F5E16F18BF43F020
S214001CB0010343EA4503536654E0012452E0D3F897
S214001CC01832190EC3F30743079104934FF4966531
S214001CD04FF4E167DFF89C90D9F84C400192C4F3CA
S214001CE00174234605A902A8FFF708FED9F8EC30D0
S214001CF0019AC3F30128434606A903A8FFF7FEFD91
S214001D00049BF01B079FF91A4143B1FBF5F29918A3
S214001D102CBF012300238F421ED3EBB9069A039FE4
S214001D20D31B4343B3FBF5F3FF182CBF012300235B
S214001D30BA4211D383B9059B029AA3EB020C00FBAF
S214001D400CF0B0FBF5F555192CBF01200020AB4276
S214001D5002D300283FF475AF044840F6C431FEF7BE
S214001D60A1FF0024204609B0BDE8F08FCC1B01007F
S214001D700081E00F00300E40334A08B5136FD16C77
S214001D8011F0010F03F0060344D0002B42D01328B5
S214001D9057D9143813288CBF102308232A49013B2F
S214001DA0CA6C180322F47F4240EA03231343CB6431
S214001DB0264BCA6C1B88C2F303222833013202EB7F
S214001DC0820003EB5303B3FBF0F3C86C013B072B15
S214001DD028BF072320F0EE6040EA036343F4801335
S214001DE0CB641B4BB3F90030002B12DB03F1280049
S214001DF0C0F34E030344500800EB4202B3FBF2F27A
S214001E000B6D072A28BF072223F0700343EA02124D
S214001E100A6508BDD16C01F00101194304D10928F7
S214001E200FD90A380928B6E7D26CD20702D50BB903
S214001E302728B0E7074840F61941FEF733FF00238E
S214001E40ACE70423AAE700BF00300E40F4120020DF
S214001E50F6120020CC1B01000C4BD3F8803910B5CD
S214001E60044633B9012804D9094840F63741FEF73D
S214001E7019FF084A136F23F0070323431367064B23
S214001E80BDE810401888FFF777BF00BF0000C643C4
S214001E90CC1B010000300E40F212002038B55A4B21
S214001EA002229A639B6B03F00F039342044607D00B
S214001EB0564840F61221FEF7F5FE0025284638BDA6
S214001EC00389C82B04D9514840F61C21FEF7EAFEC8
S214001ED0A28823899A4204D94C4840F61D21FEF771
S214001EE0E1FEB4F90C30C82B04DD484840F61E214C
S214001EF0FEF7D8FE6378012B55D1A388C82B04D9EA
S214001F0040F622214148FEF7CDFEE28842F21073E9
S214001F109A4204D93D4840F62F21FEF7C3FEE388D7
S214001F204A2B48D9B3F5FA7F47D340F6C3129342FB
S214001F3094BF4FF000524FF040523349B4F90C00B2
S214001F40CB6C23F0405323F001030028A8BF43F0D6
S214001F5001031343CB64D1F8EC30A28843F44073FA
S214001F60C1F8EC302A4B1A80CB6E43F08073CB66F8
S214001F70284BD3F8800900B10420FFF76DFF264BED
S214001F8021891980254BB4F90C20A0881A80FFF708
S214001F90F3FEA37BA3B1012B22D01C4840F62E11E2
S214001FA0FEF780FE0FE0022BAFD1A3880A2BACD938
S214001FB040F62721A6E70022BFE74FF08052BCE795
S214001FC0114B174A9A65012260881146FFF70EFEEC
S214001FD0054640B90D4840F66621FEF763FE6DE7FC
S214001FE0094B104AEEE7084AD36B43F48063D36389
S214001FF06078FFF7B1FDA37AA3F120025342534164
S214002000044AC2F8943759E700300E40CC1B010052
S214002010F21200200000C643F4120020F612002040
S21400202077402057372110B738B50D46044618B309
S214002030012824D0022825D0032826D004280ED034
S214002040052825D0831F012B09D9082823D0092865
S21400205023D00A2803D10723EB40DB0704D410481B
S21400206040F22B41FEF71EFE30200E4B012144436A
S21400207001FA05F51D5138BD40F2FF33ECE74FF687
S214002080C073E9E740F6FF73E6E74FF47F43E3E704
S2140020904FF6FF73E0E70F23DEE74FF44043DBE73E
S2140020A0E01A01000CA0004638B50D46044618B3E9
S2140020B0012824D0022825D0032826D004280ED0B4
S2140020C0052825D0831F012B09D9082823D00928E5
S2140020D023D00A2803D10723EB40DB0704D410489B
S2140020E04FF47F71FEF7DEFD30200E4B0121444396
S2140020F001FA05F51D5138BD40F2FF33ECE74FF607
S214002100C073E9E740F6FF73E6E74FF47F43E3E783
S2140021104FF6FF73E0E70F23DEE74FF44043DBE7BD
S214002120E01A01000CA0004470B505460E461446A1
S214002130FFF7CAFB296881EA040202EA06044C405B
S2140021402C60BDE87040FFF7C3BB0000F8B50D4635
S21400215016461F460446C0B3012839D002283AD096
S21400216003283BD004280ED005283AD0831F012B25
S21400217009D9082838D0092838D00A2803D10721D9
S214002180E940CB0704D423484FF4B071FEF78AFD2C
S21400219026B12946204667B3FFF746FF3023072DB2
S2140021A004FB03F34FF00F0126D8A80006FA00F24E
S2140021B0814019481844FFF7B7FF4EBB2946204612
S2140021C017B3BDE8F840FFF72FBF40F2FF31D7E75F
S2140021D04FF6C071D4E740F6FF71D1E74FF47F4168
S2140021E0CEE74FF6FF71CBE70F21C9E74FF440412A
S2140021F0C6E7FFF759FFD1E7A5F10800800006FA09
S21400220000F281400548D5E7BDE8F840FFF74CBF2F
S214002210F8BD00BFFB1B010004A0004008A0004062
S21400222010B5044618B91C489121FEF73BFD2378EB
S2140022301B0613F0784F03D017489221FEF732FDA5
S214002240E378072B03D91448A321FEF72BFD0121C1
S2140022504FF4AA40FEF7C6FDB4F8013022785BBA08
S2140022609BB243EA02630D4A136000231362D362F3
S21400227053634FF00043D3664FF0FF339366084A2C
S2140022804FF40071C2F88011E3785B01DBB282F88C
S2140022900933116010BD00BF2B1C010000200E404A
S2140022A000E100E02DE9F041C3B20126072805460B
S2140022B00C46904606FA03F603DD3A48EC21FEF794
S2140022C0F1FC1CB93748ED21FEF7ECFC236823F43B
S2140022D07C1323F00F031BB13248F221FEF7E2FC19
S2140022E0A37A1B0413F47C0F04D02E4840F2091185
S2140022F0FEF7D8FCE37A1B0513F07E6F04D029485E
S21400230040F20B11FEF7CEFC237B5B0513F0FE5F5D
S21400231004D0244840F20D11FEF7C4FC224F637B24
S214002320BE66302000FB05702268C0F88020C0F82A
S2140023308830E37AA27A1B0543EA0243227B43EA0B
S214002340425328F00302C0F88430C0F89820FFF704
S214002350C2FAFB6E3343FB66237A13B17B6B3343BF
S2140023607B63637A13B1FB6A3343FB620E4B1A68D6
S214002370237923B1DB431B0263F47F431A4063795E
S2140023800BB142EA0322A3790BB122EA0302E379F6
S2140023901A43054B1A60054A9662DE63BDE8F041B3
S2140023A0FFF79FBA2B1C010000200E4000200E44B1
S2140023B010B5C3B20124072804FA03F404DD094863
S2140023C040F29711FEF76EFCFFF785FA064AD36EC9
S2140023D023EA0403D366054B1C62BDE81040FFF7F2
S2140023E080BA00BF2B1C010000200E4000200E44C7
S2140023F02DE9F04180460E461F46154622B9314863
S2140024004FF4A171FEF74EFC1EB92F48FEF778FE7A
S2140024100646402F2AD009D8A7B1202F1CD0BDE8E9
S214002420F041284840F28911FEF73CBC602FF6D1F7
S214002430B5EB960F04D9234840F28311FEF732FC21
S21400244004241DE0B5EB161F04D91E484FF4BA71DC
S214002450FEF728FC102413E0B5EBD60F04D9194874
S21400246040F27911FEF71EFC082409E00624B6FBAC
S214002470F4F3AB4204D213484FF4BF71FEF712FCDC
S2140024806C43610801EB4616B6FBF4F40F4E203C95
S214002490B6EBC40F4FEAC40504D20A484FF4D07115
S2140024A0FEF700FCD8F8003023F06003C8F80030D0
S2140024B0D8F8003035401F43C8F80070C8F81450EC
S2140024C0BDE8F0818A1C010040410500F8FF7F004E
S2140024D070B506460C46154622B90D484FF42271D3
S2140024E0FEF7E0FB1CB90B48FEF70AFE04460A4B53
S2140024F06D00013CB4FBF5F413EA04234FEA04250F
S21400250004D0034840F2A521FEF7CCFB756170BDF0
S2140025108A1C010040410500070080FF38B50E4BBD
S214002520984204460D4610D003F5806398420CD0BE
S21400253003F58063984208D003F58063984204D080
S214002540064840F2BE21FEF7ADFBEB435B0003F00E
S2140025500A03E360E56038BD000001408A1C010004
S21400256038B51E4B1E4D984204460ED0A8420CD0DD
S21400257003F50063984208D003F58063984204D0C0
S214002580184840F23441FEF78DFB40F6AA63E3603C
S21400259041F20502002323606260134AA360636170
S2140025A0E364A26423666367A367E3670B4B9C42FE
S2140025B009D0AC4207D003F500639C4203D003F574
S2140025C080639C4201D1002323650023AC42A365AF
S2140025D002D0064A944200D1E36538BD00000140AF
S2140025E0000401408A1C0100F9FF0100000C0140B4
S2140025F038B5294B984204460D4610D003F5806343
S21400260098420CD003F58063984208D003F58063A7
S214002610984204D0214840F2EF21FEF743FB2046C3
S214002620FFF79EFFAB7C1BB1236843F0804323601B
S214002630EB7C1BB12B7D43F08003A3652A8A6B7B62
S2140026401343EA89134363602B7BD5E901122046C6
S214002650FFF7CEFE6B7D1BB1236843F48033236007
S214002660AB7D1BB1236843F400432360EB7D2A7ED9
S2140026701B07120502F4E00203F0E043134323664F
S214002680636F23F030036367626F6B7E1343636789
S2140026902B78E36038BD00BF000001408A1C0100B3
S2140026A038B52D4B984204460D4610D003F580638E
S2140026B098420CD003F58063984208D003F58063F7
S2140026C0984204D0254840F25B31FEF7EBFA2046EC
S2140026D0FFF746FFA97B2A8A2368002942F00102F9
S2140026E014BF4FF48061002113430B432A7D2360FF
S2140026F02368002A14BF4FF00052002213432360C1
S214002700AB7C1BB1EB7C43F08003A3652B7B43F4CF
S21400271080536360D5E901122046FFF7D9FE6B7B34
S2140027200BB11023E3606B7D1BB1236843F4803349
S2140027302360AB7D1BB1236843F400432360EB7D2D
S2140027402A7E1B07120503F0E04302F4E00213435F
S21400275023662B78E36038BD000001408A1C010028
S2140027601B4B984270B505460C4608D003F500632F
S214002770984204D017484FF47B71FEF793FA002373
S2140027802146267823702846FFF78AFF94F82020F3
S214002790A38B94F821001343A27F002AE27F14BF84
S2140027A010210021002A14BF08220022002814BF8E
S2140027B00220002003430B43134343F00103EB6561
S2140027C02EB131462846BDE87040FFF7A7BE70BD63
S2140027D0000401408A1C010003691B06FCD5C06981
S2140027E0C0B2704703695A06FCD5416303699B066D
S2140027F0FCD5C069C0B2704703695B06FCD541636F
S214002800704700007FB5094B6A4603F1100615466F
S21400281018685968144603C40833B3422246F7D1F1
S2140028202846FFF73BFB002004B070BDBC1C01002F
S21400283013B502230024684600948DF804408DF8F2
S2140028400530FFF7F7F8204602B010BD70B5164BFE
S21400285086B001AA03F11006154618685968144692
S21400286003C40833B3422246F7D11B8823800F4B9C
S214002870D3F8B42012030ED4D3F8B830C3F3080349
S2140028800B48ADF80A30FDF7C3FF2846FEF794FF65
S214002890002006B070BD074B1B884FF6FF729342B0
S2140028A008BF4FF4A673EBE7CC1C01000081E00FD5
S2140028B000F049020001E00F07B5084B18680190C8
S2140028C0202301A88DF80430FEF7D2FF6420FEF71F
S2140028D007FD002003B05DF804FB00BFDE1C01000E
S2140028E010B50C480C4C6FF00402A02112F0800FBB
S2140028F0D3B21BBF03F00F03043BA3181B1802F14F
S21400290001020CBF83F800131976332AEED100209B
S21400291010BD00BF00ED00E000E100E010B5044689
S214002920FEF7D2FF024B1C60FEF7D2FF002010BD60
S214002930FC12002010B5FEF7C7FF034B1C68FEF71D
S214002940C7FF204610BD00BFFC12002007B530B9F7
S214002950CDE90012FFF7EEFFDDE9001230B1436863
S21400296023B1006803B05DF804EB1847232003B0DA
S2140029705DF804FB80F82410704790F82400704738
S21400298070B504460568FFF7D5FF844202D10020E3
S214002990FFF7C4FF95F92830002B11DB03F01F0169
S2140029A05B099B0003F1604303F5614301228A4003
S2140029B0C3F88021C3F88020BFF34F8FBFF36F8F1B
S2140029C00023C4E90033C4E90433A3602846EB6857
S2140029D0BDE87040184790F8243070B505460C46A0
S2140029E08E18E3B9A6420AD095F82630002BF9D007
S2140029F02B6814F8011B284698470028F2D070BDB3
S214002A0095F826305BB123780A2B03D12B680D216D
S214002A10284698472B6814F8011B28469847A64274
S214002A20EED1ECE72DE9F7434FF000090446904657
S214002A301E46C3F800904F1E3368434505D2FEF786
S214002A404AFFA269C2B9FEF74CFF94F827305BB97B
S214002A50112301220DF1070120468DF80730FFF7FC
S214002A60BAFF012384F827303368002B0CBF1B20E5
S214002A70002003B0BDE8F083E16922698A5C07F8AC
S214002A80012F2569226A01359542A26908BF4D4685
S214002A90013AA2612561FEF724FFA3682046984705
S214002AA0336801333360C7E708B5FFF794FF0020AB
S214002AB008BD0000F8B51F46536805460C46164686
S214002AC0002B3ED09368002B3DD02C2200212046C0
S214002AD00BF02EFC7368E361B3682362337B84F8E3
S214002AE02430B37B84F8253040F20113E384069B40
S214002AF06360079BA360089B2760E36096F900303D
S214002B00124A84F828306A60114AAA60114A2A617B
S214002B10114A6A61002B114A2C60EA600CDB03F054
S214002B201F015B099B0003F1604303F5614301222B
S214002B308A40C3F880211A602846FFF7EFFE00207F
S214002B40F8BD2220FCE72120FAE700BFA92A0000F2
S214002B50252A0000752900007B2900008129000035
S214002B6010B50446FEF7B7FEA269236A9A4203D25E
S214002B70FEF7B7FE012010BDFEF7B3FE0020FAE711
S214002B8073B504460D46FEF7A6FE94F825300646B5
S214002B906BB1132D07D1002384F8263002B0BDE8B0
S214002BA07040FEF79EBE112D01D10123F4E7A26905
S214002BB0236A9A4204D314484FF4B271FEF772F8AF
S214002BC06369E269D554A26963690132A261226A27
S214002BD001339342636104BF002363613046FEF70E
S214002BE080FEA269236A9A420BD1132301220DF1BB
S214002BF0070120468DF80730FFF7EDFE002384F826
S214002C00273002B070BD00BFE21C0100C26AD36C60
S214002C1043F00403D3647047C26A10B504461369D0
S214002C205906FCD500231A4694F8351094F834005B
S214002C30FFF78CFA00231A4694F8371094F83600FB
S214002C40FFF784FA94F83C30DA0707D5002394F8A7
S214002C50391094F838001A46FFF778FA94F83C30A2
S214002C609B0707D5002394F83B1094F83A001A46C1
S214002C70FFF76CFAE06A0021FFF750FC206B00219A
S214002C80FEF7B0F8002010BD08B5C06AFFF7B4FD27
S214002C90002008BD2DE9F04186B01C46524B0C9D25
S214002CA00293524B0193012600230093CDE903665D
S214002CB04F4B90460A462946FFF7FCFE074600287B
S214002CC056D12368EB6263682B63637A85F83530E8
S214002CD0237A85F83430E37A85F83730A37A85F896
S214002CE03630637B85F83930237B85F83830E37BD4
S214002CF085F83B30A37B85F83A303E483146FEF7F0
S214002D0071F83D483146FEF76DF8617A207A334611
S214002D100422FFF71BFA33460222E17AA07AFFF775
S214002D2015FA60683146FEF75DF888F8007041468F
S214002D302068FFF75DFC2268536F43F00303536778
S214002D40936F617C23F4F85323F01F030B43217C1D
S214002D5043EA012303219367516785F83C7098F88E
S214002D601930202B2BD007D803B3102B09D02327DC
S214002D70384606B0BDE8F081302BF8D185F83C1017
S214002D8002E085F83C603E4600230222617B207B01
S214002D90FFF7DCF92368A27CDA675A6E42F0040279
S214002DA05A665A6F42F010025A675EB92068C36CC2
S214002DB043F00403C3640521FFF7B0FBD8E7022302
S214002DC085F83C30E17BA07B00230422FFF7BEF9A8
S214002DD02368E17CDA6F42EA0122DA675A6F42F032
S214002DE020025A67E2E700BF192C00000D2C0000F5
S214002DF0892C00004041050000350A00C36A1B69A3
S214002E001B0610B5044610D5FFF7AAFE40B1E06ACF
S214002E10FFF7E2FC01462046BDE81040FFF7B0BED3
S214002E20E26AD36C23F00403D36410BD08B508F03F
S214002E3065FE08F0B1FE08F0B1FE08F0B6FEBDE88B
S214002E40084008F0B3BE08B508F0B2FE08F0B1FEC0
S214002E5008F0B0FEBDE8084008F0ADBE10B5044668
S214002E60FDF7BEFC4FF47A729042B0FBF2F105D249
S214002E703621BDE810400B48FDF714BF0A4BB3FBE4
S214002E80F1F30A49884201D93C21F2E702FB04F03B
S214002E90B0FBF3F0032804D9BDE81040800800F02A
S214002EA007B810BD261D010040420F00E7CD9A3B33
S214002EB0013800D0FCE770472DE9F04FA9B0CF6885
S214002EC0379E0C970F691697576812681C92B2685F
S214002ED0219272684C6922924A6898680B941B97F4
S214002EE08C694F6A05920A68896A1A900791586831
S214002EF0F168DB68339D06978B4240F06E820B9933
S214002F00012900F36D82A968032940F06982696887
S214002F10032940F06582614209911A990E9459433B
S214002F2012915900089103EB43011791011918916A
S214002F300B9949421D910C99594324911D99002BD8
S214002F4001FB03F1239123F00301B8BF0021119187
S214002F501198591A8342B8BF0021259100210A9181
S214002F601391D91E279113992298814203DB0020E2
S214002F7029B0BDE8F08F0999129C00290E99C8BFA8
S214002F8000210D910D9809990144239804FB010135
S214002F9010910B981A99179C199001440F911D993E
S214002FA0149100210D981591349904FB00111F917E
S214002FB018990329A8BF03212091159921988142C9
S214002FC00DDB169809990144099113990131139163
S214002FD00E99091A0E911899091A1891C3E71499AF
S214002FE00A9800291999C8BF00211E9138990144F2
S214002FF00391DDE91B160291369901910021109884
S214003000049132990144269127990498814224DC40
S21400301011980A99109C01448C46389901EB0C0EC5
S2140030200146329800EB04089942C0F2798125994E
S2140030300C9861440A911499014414911599013130
S21400304015911999091A199124981099014410910B
S2140030500C980F99091A0F91AFE70199269FDDF892
S2140030603490D1E90054D1E9020100913946049F19
S21400307001EB070E1F9F3946049F01EB07082099B6
S214003080494500F3DF800299D1F800C02CEAEC77BE
S214003090BD4037684FF0804E4FF00008C5FB07E88C
S2140030A04FEADE77BCF1000F47EA48084FF001010F
S2140030B0D4BFCCF10007002701FA07F5013D58FA06
S2140030C007F708EA050E45FA01F548BF6D1802999C
S2140030D0AE45D1F804E02EEAEE7504FA05F47568FC
S2140030E04FF080484FF00009C4FB05894FEAD87CB2
S2140030F0C8BF0137BEF1000F4CEA49094FF0010185
S214003100D4BFCEF1000C4FF0000C01FA0CF4013CD9
S21400311059FA0CFC09EA040544FA01F448BF64189D
S2140031200299A5428D6825EAE57400FA04F0B468B1
S214003130C8BF0CF1010C4FF0804E002D4FF0000878
S214003140C0FB04E84FF00101D4BF6D42002501FA30
S21400315005F04FEADE7E4EEA4808013858FA05F5D3
S21400316008EA000440FA01F048BF40180299844279
S214003170CC68009924EAE47001FA00F1F0684FF098
S214003180804E4FF00008C1FB00E8C8BF0135002C98
S21400319070464FF00101D4BFC4F1000E4FF0000E90
S2140031A0C00F01FA0EF140EA4808013908EA0104A6
S2140031B058FA0EF84FEA610148BF01318C42059972
S2140031C00F440699C8BF08F101088F42B8BF0F46E2
S2140031D005998C4406998C45B8BF8C4605990D44D4
S2140031E006998D42B8BF0D460599884406998845CC
S2140031F0B8BF884607998F42A8BF0F4603990F703D
S21400320007998C45A8BF8C46039981F801C0079999
S2140032108D42A8BF0D4603998D7007998845A8BFB3
S2140032208846039981F80380049904310491039930
S2140032300431039102991031029101991031103630
S2140032400191E1E61E9FFFB9DEF80070D8F800C0D5
S214003250009942FA87FA4FFA8CFB0BFB0A5547F3A4
S214003260072A4CF3072B92440BFB0A4447F3074A02
S2140032704CF3074B02EB27674FEA2C6C92440CFB8F
S21400328007110BFB0A0000915EF8037058F803C0A4
S214003290009942FA87FA4FFA8CFB0BFB0A5547F364
S2140032A0072A4CF3072B92440BFB0A4447F3074AC2
S2140032B04CF3074B02EB27674FEA2C6C0CFB07110D
S2140032C00F9F00919244022F0BFB0A0021DD089904
S2140032D0089F51F808C057F80E70009942FA87FA0E
S2140032E04FFA8CFB0BFB0A5547F3072A4CF3072BC8
S2140032F092440BFB0A4447F3074A4CF3074B02EB96
S21400330027674FEA2C6C92440CFB07110BFB0A0054
S214003310009112998E44179909F101098844AEE686
S21400332036981F9D50F821000D9E08EB01040D44B1
S214003330209FB74230DC1B9C54F8216026EAE674D6
S214003340A0401C9C54F82140002E4FF080454FF0C2
S2140033500007C0FB0457D4BF764200260120ED0FBD
S214003360B04045EA4707013807EA000437414FEA0C
S214003370600048BF013084420598C8BF0137074443
S21400338006988742B8BF074607988742A8BF0746F1
S2140033900EF8017B013147E61E9F37B994F900709D
S2140033A095F90090174409FB0700E75615F90390B6
S2140033B0174409FB07000F9F022F08DD089FE757F9
S2140033C007EB020A089F15F9079009FB0A00129FEF
S2140033D03C44179F01363D44AAE76FF00200C7E55C
S2140033E04FF0FF30C4E52DE9F04FB3B08868009089
S2140033F018683D9D019098681C905868DB68029399
S214003400AB681D936B68CD68419C03950D690D955F
S214003410556812682392A2682492626821932592C6
S2140034204B694A680C9322958B6904920A68269227
S2140034304A6A05928A6A0692009A12F0030240F0DF
S214003440CA810199012940F0C681E1680791089375
S2140034505942C31810930C9B079C09911D990B9217
S2140034605B4261431F93029C039B1E9163431C991E
S21400347027931F9B169261436343209128930099DC
S214003480009B033103F1030323F00303B8BF0023BB
S2140034902D93169B259A934203DB002033B0BDE89C
S2140034A0F08F099B0C9A002B089BC8BF002319932A
S2140034B01C9B13441B93199A099B1344209A53434D
S2140034C02993199A1E9B53432A93289B0F930C9B70
S2140034D01A931F9B11930023219A1593109B9342D6
S2140034E0A8BF13463193159B249A93420DDB0D9A81
S2140034F0099B13440993169B01331693089B9B1A4A
S2140035000893109B9B1A1093C3E7119B299A002BD4
S2140035101A9BC8BF00230E930F9B0E991344179354
S214003520079A2A9B01FB02332B930A463C9B02997F
S21400353001FB02331B9A1D992C938A42A8BF0A46A8
S21400354000233092079A9A4240F33381429A0B99AD
S21400355002EB010A2299239A01EB8309409901EBB9
S21400356083082B9919442E91002102EB83020A91BD
S214003570DCE0D8F808101391D8F80C100A981491CB
S2140035803E99DDF85CC0DDF8B8E0199FD8E9006523
S21400359001442F9131998F42C0F2D780D9F80000AC
S2140035A0139C20EAE0718E4011684FF080474FF080
S2140035B0000CC6FB017CFE0F0028019946EA4C0C65
S2140035C0D4BF46420026B1400139D9F804005CFA5F
S2140035D006F60CEA01074FEA610148BF01318F4247
S2140035E020EAE07105FA01F551684FF080474FF088
S2140035F0000CC5FB017C4FEAD775C8BF01360199A0
S214003600002845EA4C0CD4BF45420025A9400139A4
S214003610D9F808005CFA05F50CEA01074FEA6101E3
S21400362048BF01318F4220EAE07104FA01F4916844
S2140036304FF080474FF0000CC4FB017C4FEAD77474
S214003640C8BF01350199002844EA4C0CD4BF444257
S2140036500024A14001395CFA04F40CEA01074FEAA1
S214003660610148BF01318F42D9F80C701499D068B7
S21400367027EAE77C01FA0CFC4FF0000E4FF0804181
S214003680CCFB001E4FEAD17141EA4E0EC8BF013492
S2140036900199002FD4BF7F42002701FA07F00138B6
S2140036A004990EEA000C5EFA07FE4FEA60000E442C
S2140036B048BF013005998445C8BF0EF1010E8E4201
S2140036C0B8BF0E4606998E42A8BF0E4604998AF8E1
S2140036D000600D4405998D42B8BF0D4606998D428F
S2140036E0A8BF0D4604998AF801500C4405998C42EF
S2140036F0B8BF0C4606998C42A8BF0C4604998AF8B7
S21400370002408E4405998E45B8BF8E4606998E4572
S214003710A8BF8E460A998AF803E004310A910AF196
S214003720040A103209F1100908F1100800990A98E5
S21400373081423FF71EAF0B9A2D990A440B92009ACE
S2140037401344179A01321792FCE62C990E981290A1
S214003750614418912F9971441298309CA04205DB61
S2140037601E998E44209901378C4413E71898269C9E
S21400377090F9000091F900B0204400FB0B6691F927
S21400378001B0139C00FB0B5591F902B000FB0B44F3
S214003790139491F903B0149C00FB0B4014901298FC
S2140037A0029C013012901898204418900798014403
S2140037B0D2E7039A119B13441193159B013315937B
S2140037C01A9B9B1A1A931B9B9B1A1B93279A0F9B59
S2140037D013440F9387E6BDF80C20BDF87080169250
S2140037E0BDF83420BDF808A0179282B2129208FBEA
S2140037F002F20AFB02F21892BDF800200D920AFBB4
S21400380002F5BDF8902013925B426A439BB2149275
S214003810BDF8942025930C9B149911925B424A4361
S2140038204FF0000E9BB21992CDF82CE02793BDF80E
S214003830043073457FF731AE259B10930B9B0A939C
S214003840BDF8843024934FF0000B2FE0BDF94030D4
S214003850002BC3F10002C8BF00220792279A0F92DE
S214003860BDF874200C92079A0C991A4408FB02F2D1
S2140038701A92079A4A431B920A9A099200220292C7
S214003880129AD31A249A9342A8BF13462093029BF7
S214003890139A934218DB0A9B149A13440A93179AB6
S2140038A0109B13449BB20BF1010B1093119B9B458D
S2140038B0CCDB0B9B199A13440B93189A3C9B13442E
S2140038C03C930EF1010EB2E7BDF93C200C9E099B1D
S2140038D00893A8EB0201002AC2F10000C8BF00202E
S2140038E0B1424FF00003A8BF314602441C461E9169
S2140038F01F9254457AD0429A08990A4415920D9A16
S2140039001A441C923EE0409ADDF868C052F82360E4
S214003910079F1B9A0E92209ABA423CDC229A52F8D3
S214003920237027EAE7729640239A52F82320002F46
S2140039304FF080414FF0000CC6FB021CD4BF7F4204
S21400394000270122C90FBA4041EA4C0C013A0CEAA2
S21400395002065CFA07FC4FEA620248BF0132964252
S214003960049AC8BF0CF1010C9444059A9445B8BF5C
S2140039709446069A9445A8BF9446159A02F801CB39
S214003980013315921C9A9342BDD1089A0D990A44A8
S21400399008920134ADE71F9A3C99039062440AFBF3
S2140039A002420A4400920E9A11183E9A05FB013113
S2140039B011441E9A9146039A914506DC0E9A0C997C
S2140039C00A440137C4440E92A5E7009A92F9009083
S2140039D0269A914491F9002002FB0966039A013267
S2140039E00392009A524400922944E2E7099B169AF1
S2140039F02B440993029B013302930F9B13449BB203
S214003A000F9344E72DE9F04F2DED048BB9B0D3F8B2
S214003A100CA04B9D479EEC68A24540F0E0829F6854
S214003A205B682993B368049373680E934B692A9373
S214003A308B692B93CB682C930B692D935368179344
S214003A4013681893AB6819936B682E934B680593AD
S214003A500B682F934B6A06938B6A1197079303683C
S214003A600893049B0E990E9803FB0AF3BAF1000F15
S214003A7014935346B8BF0AF10303C3F38F021B9295
S214003A80049A12FB01F291B202F0010233924FEA5D
S214003A904A023191009204990432C3F38F032392B1
S214003AA04FEA8A02159241439A0001EBD1712592A2
S214003AB004F00302199CC1F34F00329024EAE47428
S214003AC002EB830060432490119800FB0AF03690C6
S214003AD04A9800EB03102290179800EB03103590DD
S214003AE0189800EB031334931B9B9B009BB21E930A
S214003AF093B230931E9B1A4493B2159A2893C1F33F
S214003B004F035A431D92009A53431C93049B23EA87
S214003B10E3730AFB03F3269300230B930B9B2E9A67
S214003B20934205DB002039B0BDEC048BBDE8F08F76
S214003B302D9A0B9B0E9913FB02F32B9A9B1A1BB222
S214003B40002BC3F10002C8BF00220392299AD21AA2
S214003B508A42A8BF0A461A921499039A1A984A43A8
S214003B60510008EE101A0E99091A16911698149913
S214003B704143490008EE901A0399002908BF002225
S214003B802792119A0B44534337934C9B0F93002371
S214003B900C930C9B199A934206DB4C9B249A134475
S214003BA04C930B9B0133B8E70C9B2C9A13FB02F447
S214003BB02A9BE41A039B24B22BB118EE102A08980D
S214003BC000210AF0B5FB379BDDF80C90279F1D19E6
S214003BD0469B0AFB0535BDF9BC3009EE103A1A9B28
S214003BE0994534DB169B3BB1089B18EE902A0021C2
S214003BF003EB47000AF09CFB4A9B03F11007189B57
S214003C0003F11006179B03F1100E0F9B03F1040C33
S214003C101B9B099300230A93099B002B3DD1259AF1
S214003C200F9BDDF824B01344DDE934EC1D461F4637
S214003C301E9A229B01934FF00108289B9A4240F05F
S214003C408581309BEB180F930C9B0133A0E7089BF4
S214003C50AB4603EB47080026049B9E4206DB269BEA
S214003C601F44369B09F101091D44B8E7331902D4F5
S214003C70119A9A4209DC009A002140460AF058FB45
S214003C80009B01369844D344E6E719EE103A5246B4
S214003C904146584600F07EFBF2E757E9045301938D
S214003CA057F8083C0A9A0293089B57F804BC03EBA3
S214003CB042031293489B12991344139313460433FA
S214003CC09BB20A93139B0D93329B1093109B002B71
S214003CD040F0E9801D9A129B1C991344139A0A44DB
S214003CE03399D1B11C9813991D9C09561298005B04
S214003CF0019C10FB0155588892F9011010FB0141F8
S214003D000191988892F90210029C92F90320DB88B0
S214003D1010FB0141029113FB02BB5EF8101C21EA66
S214003D20E1739D4056F8103C00294FF080424FF05A
S214003D300000C5FB0320D4BF494200210123D20F57
S214003D408B4042EA4000013B00EA030408414FEA88
S214003D50630348BF01339C42059BC8BF013018442B
S214003D60069B9842B8BF1846079B9842A8BF1846BD
S214003D700CF8040C5EF80C1C019B21EAE1708340F1
S214003D80184656F80C3C00294FF080424FF00004CD
S214003D90C0FB0324D4BF494200210123D20F8B402D
S214003DA042EA4404013B04EA03000C414FEA630381
S214003DB048BF01339842059BC8BF01341C44069B8C
S214003DC09C42B8BF1C46079B9C42A8BF1C460CF8EA
S214003DD0034C5EF8081C029B21EAE17083401846FB
S214003DE056F8083C00294FF080424FF00004C0FB14
S214003DF00324D4BF494200210123D20F8B4042EA5C
S214003E004404013B04EA03000C414FEA630348BF45
S214003E1001339842059BC8BF01341C44069B9C4254
S214003E20B8BF1C46079B9C42A8BF1C460CF8024C19
S214003E305EF8041C56F8043C21EAE1700BFA00F028
S214003E4000294FF080424FF00004C0FB0324D4BF8B
S214003E50494200210123D20F8B4042EA4404013B31
S214003E6004EA03000C414FEA630348BF013398425B
S214003E70059BC8BF01341C44069B9C42B8BF1C4629
S214003E80079B9C42A8BF1C46099B0CF8014C03F1FB
S214003E90FF3B1FFA8BF30993103710360EF1100E06
S214003EA00CF1040CB8E608680D9B1F9000981A6881
S214003EB0445853F80A302FFA82F04FEA32222FFA8B
S214003EC082F220922FFA83F221924FEA33232FFABE
S214003ED083F31F9ABDF884901FFA84F848EA0248D4
S214003EE049EA004928FB0955240C240444EA1248F0
S214003EF0BDF88040019A44EA034428FB042201925C
S214003F00239AD1F804905458219A000C1FFA84F88A
S214003F10000440EA124048EA0948029A28FB0022B8
S214003F200292240C209A1B0C24041B0444EA194415
S214003F3043EA124324FB03BB0D9B009A13440D93E4
S214003F40159B1944109B013B9BB2BEE6134648984E
S214003F50019AC41852F8041B089801925A1C92B28F
S214003F6000EB43030020319E86422EDC5CF8040BF7
S214003F705EF8044B20EAE073994000284FF0804337
S214003F80D946C1FB0439D4BF40420020DB0F08FAF3
S214003F9000F143EA4909013909EA010459FA00F92E
S214003FA04FEA610148BF0131059B8C42C8BF09F149
S214003FB001099944069B9945B8BF9946079B9945C0
S214003FC0A8BF994607F8019B37E61E8894F900902B
S214003FD016FB0911009E013054443344C3E76FF0CA
S214003FE00200A0E58B68C06858434B685843400001
S214003FF070472DE9F74F0E9D01958D680093012DB2
S214004000DDE90C76DDE90FBADDE9119884460C4649
S214004010964621D11D68012D1ED1B568032D0AD103
S2140040207568032D07D18D69012D04DC03B0BDE84A
S214004030F04FFEF741BF019B0C97CDE90D63009B47
S214004040724621466046CDE91198CDE90FBA03B015
S214004050BDE8F04FFFF7D6BC019B0C97CDE90D638A
S214004060009B724621466046CDE91198CDE90FBA0D
S21400407003B0BDE8F04FFFF7B6B90846DB68114657
S214004080C2689A4204D10368012B01D1FFF7AABF88
S214004090002070472DE9F04F8BB0DDE91479DDE99B
S2140040A019A81D680C4616464FF0000B1DB9284689
S2140040B00BB0BDE8F08F23690893E3680793DAF83E
S2140040C00C300693D9F80030059373680493336870
S2140040D00393A368189A1699CDE901B32368009351
S2140040E03846434600F00AF8D9F800301F44DAF89C
S2140040F00C30013D9844D9E7002070472DE9F04F79
S21400410093B0814606910D93DDE9213101EBD17123
S214004110491008911C991C98069E89B2002B41EA0A
S214004120004B1946B8BFD91C88100090580007905D
S214004130209821F0030A20990028C1F10001C8BF89
S214004140002103910398012181400139049149100F
S2140041500591013109910D9902310191069901EB02
S2140041600A0509EB0A010C9100210291C9F1000130
S2140041701191209921EAE1710F91029908988142E4
S2140041804BDB20EAE076DDE9061006FB00112298FC
S214004190C0073ED502B112688C460098002840F051
S2140041A0DC800C9D5144AAEB05002F18BB4200F39F
S2140041B0E880209B1F9C23EAE3739A404FF08041DF
S2140041C00023C2FB0413209A002ADCBF524200924E
S2140041D01846CB0F0099012243EA40038A40009814
S2140041E0013A53FA00F403EA02014FEA620248BFBA
S2140041F001321E9B9142C8BF01341C44239B9C4243
S214004200B8BF1C46249B9C42A8BF1C460D9B03F8C7
S2140042101640002013B0BDE8F08F002A6AD017467B
S214004220516857F8080B3A46F7180B97079FDDF8C2
S21400423000E0CDF82890F7191097BEF1000F5CD17A
S21400424005EB030C0C9FE646119C3E19B34277DC47
S2140042500F9CA0401F9C4FF080460025C0FB0465C5
S214004260F00F049C059E40EA450000EA0405039C06
S2140042702041099C48BF26460F9CB54201FA04F629
S2140042801F9C4FF080414FF00005C6FB04154FEA17
S214004290D171049C059E41EA450101EA0405039C90
S2140042A0C8BF01302141099C48BF2646B5421E9C26
S2140042B0109EC8BF013120442144239CA042B8BFB1
S2140042C02046A142B8BF2146249CA042A8BF204653
S2140042D0019C04F8020C24988142A8BF014604F809
S2140042E0011C02990131029121460231019103EB32
S2140042F00C0542E71146104696E70A9C54F8047BE4
S2140043000A942BFA97F40E942BFA87F756F804CBF8
S2140043102FFA9CF82FFA8CFC28FB04002CFB0700D5
S2140043200B9C54F804CB0B942FFA9CF82FFA8CFCB9
S2140043300E9C28FB04112CFB07110EF1FF3E7CE7B8
S21400434017F9016B1C9C15F9018B264406FB080027
S2140043501EF9018B06FB081176E759F8045B2BFA69
S21400436095FE2BFA85F55CF8040B2FFA90F72FFADA
S21400437080F027FB0E2220FB0522009801380090D3
S2140043800BE715F9017B1C9C11F901CB274407FBB1
S2140043900C220AE72DE9F0474FEA920C9EB2DFF8AE
S2140043A06490E64646EA03460F468046BEF1000F96
S2140043B00AD100EB8C0002F0030201EBCC010244B0
S2140043C0904218D1BDE8F08758F8045B4FEA3524D0
S2140043D026FA84F426FA85F51FFA85FA4AEA044A8C
S2140043E004EA090444EA1544C7F800A07C600EF10C
S2140043F0FF3E0837DAE710F9014B1C4421F8024B60
S214004400DEE700BF0000FFFF2DE9F04F8FB09B46B0
S214004410002308900B91029200930393009A089B46
S214004420134404931A9B134407930B9A039B9342DB
S21400443002DB0FB0BDE8F08F089B009A9B560193F5
S2140044400123029A9342C0F276810024DFF8FC82B0
S214004450A646029B9E45C0F27B81B4FA84F3C3F164
S214004460230A002C00F0D2829C4004F100446FF036
S2140044700043E117E41841F10001B1F1FF3F08BF26
S214004480B4F1FF3F0BBF234601230A460022E31880
S21400449041EB0202D40FE31842F100025B0843EA44
S2140044A0C273A949A9485E1C4FEA6202C3F1000420
S2140044B001FB024408BF4FF08040A3FB01160CBF6F
S2140044C000254FF0FF353444091844EB0504002C52
S2140044D004DA6FF00040091844F10004C90F41EAFD
S2140044E0440101F15A315C1C984D4FEAE17001FB22
S2140044F002F403FB004418BF4FF08045A1FB030EF7
S21400450014BF4FF0000C4FF0FF3C7444401944EBCE
S2140045100C04002C4FEAD37604DA6FF000454019FD
S21400452044F10004C00F40EA4400C0F100500028E7
S214004530864CA6BF00254FF080444FF0FF35C1FBE8
S2140045400045002D04DA6FF00040241845F1000500
S214004550E40F44EA4504B4F1604FD5BF00254FF0A0
S214004560FF354FF0004C4FF0000C05EA840484EA57
S2140045700C0460184FEAD07C6645744D4FEAE07133
S21400458000FB02F403FB014408BF4FF08045A0FB8C
S21400459003180CBF4FF0000E4FF0FF3E444449197D
S2140045A044EB0E04002C04DA6FF00045491944F180
S2140045B00004C90F41EA4401C1F10051634CBCEB51
S2140045C0D17F13BFA4464FF0804C00244FF0FF3439
S2140045D0C0FB01C42546002D644604DA6FF0004196
S2140045E0641845F10005E40F44EA4504B4F1005FA1
S2140045F0B5BF4FF0FF31002100256FF0004501EAFE
S2140046008401B4F1604F81EA0501D5BF00254FF063
S214004610FF354FF000440024294061400844C40F91
S214004620A6424A494FEAE07600FB02F203FB062266
S21400463008BF4FF08041A0FB03360CBF00254FF0AB
S214004640FF3532445B1842EB0502002A04DA6FF0AD
S21400465000415B1842F10002DB0F43EA4203C3F15C
S2140046600053B4EBD37F394A06BF00214FF0804297
S2140046704FF0FF31C0FB0321002904DA6FF000433E
S214004680D21841F10001D20F42EA4101B1F1005FB8
S214004690B5BF4FF0FF33002300226FF0004203EA5D
S2140046A08103B1F1604F83EA0203CBBF4FF0FF31C5
S2140046B0002100224FF00042194051400844B0F15A
S2140046C0804FB5BF4FF0FF33002300226FF000424B
S2140046D003EA4003B0F1404F83EA0203D5BF00214E
S2140046E04FF0FF314FF0004200220B40534048BFCE
S2140046F0164A099356BF4FF080424FF0FF3300230F
S214004700CDE90C23012303FA0AF3013B05935B1062
S2140047100693DFF838E001330A934FF0000C029B53
S2140047209C45C0F28781039B009A01330393029B4A
S2140047301A44009272E6049A0199D2569142B8BF82
S2140047401146019101337CE6C4C3C3C3010000C017
S214004750049B13F90E10019BC91A199B8B4200F398
S2140047605281189B9940CB0FB3EBDB7F0BBF4FF00A
S2140047708042424600234FF0FF33C1FB0B23002B41
S214004780184604DA6FF00043D21840F10000D30F49
S214004790594543EA400304D1BBF1004F08BF6FF010
S2140047A0004343F07F4CACEB03054FEA4C1C0CF186
S2140047B0805C4FF080420020CCFB0C2000284FEAA3
S2140047C0EC7604DA6FF00041521840F10000D20F88
S2140047D042EA4002A2FB0219C01711F1804102FB17
S2140047E000FA49EB4A09B9F1000F05DA6FF0004A02
S2140047F011EB0A0149F10009C90F41EA490101F02C
S2140048000309891054BF4FF0010A4FF0020AD14540
S2140048104FEAD279C8BF01310CFB00F0B9EBDC7F60
S21400482002FB060008BF4FF08049ACFB026716BFCC
S214004830C1464FF0000A4FF0FF3A384416EB09061F
S21400484040EB0A00002805DA6FF0004916EB09066F
S21400485040F10000F60F46EA4006314400296D4F4D
S214004860ABBF4FF08040404600264FF0FF36C1FBFE
S2140048700706002E04DA6FF00041401846F10006E5
S214004880C00F40EA46001044421002D4C70748BF93
S21400489001329444BCF1000F5F4AABBF4FF080403A
S2140048A0404600214FF0FF31CCFB0201002904DA1C
S2140048B06FF00042801841F10001C00F40EA41004D
S2140048C000F1E2404FF080420021544FA0F5252031
S2140048D0A0F26C7094468A46C0FB07CAC5F3006611
S2140048E04FEADC7C4CEA4A0C45F30069013E09EAD3
S2140048F00C094B4F304089EA000094460E46C0FB38
S21400490007C6C5F3406A4FEADC7C4CEA460C45F322
S21400491040690AF1FF3A0AEA000A09EA0C09414F1F
S21400492089EA0A0916460846C9FB0760C5F3806A85
S214004930F60F46EA400645F3806C0AF1FF3A0AEAAB
S214004940090A0CEA060C384E8CEA0A0C10468A460F
S214004950CCFB060AC5F3C069C00F40EA4A0045F31F
S214004960C06609F1FF3909EA0C0906402F4886EAB5
S21400497009068A469146C6FB009AC5F3007C4FEAB4
S214004980D97949EA4A0945F300700CF1FF3C0CEA74
S214004990060C00EA0900DFF8989080EA0C008A46C8
S2140049A09446C0FB09CAC5F340764FEADC7C4CEA65
S2140049B04A0C45F34079013E064009EA0C0C8CEAA5
S2140049C0060CF220CCFB0021C5F3807AD20F42EA17
S2140049D0410245F380750AF1FF3AB3FA83F30AEA17
S2140049E00C0A5B092A4082EA0A02591E5B4223F03F
S2140049F0004A0A4082EA0A0A4FEA2A331AF4006F8B
S214004A0018BF01331C440EF1010E22E54FF000449E
S214004A102DE500BFABAAAA2A94A8F5707BBEAF63AB
S214004A20F2CBA24D6CAC162FA4AA5211B72A58028C
S214004A3011FE0A00049B13F90C10019BC91A199B5E
S214004A409942C0F26B81189B9940CB0FB3EBDB7F8A
S214004A500BBF4FF08043734600224FF0FF32C1FB7E
S214004A600B32002A104604DA6FF000429B1840F121
S214004A700000DA0F594542EA400204D1BBF1004F6C
S214004A8008BF6FF0004242F07F46B31A760106F187
S214004A9080564FF080410024C6FB0614002C4FEAD7
S214004AA0E67504DA6FF00040091844F10004C90FF7
S214004AB041EA4401A1FB0108E41710F1804001FB24
S214004AC004F948EB4908B8F1000F05DA6FF0004921
S214004AD010EB090048F10008C00F40EA480000F05B
S214004AE00308801054BF4FF001094FF00209C84573
S214004AF04FEAD178C8BF01307443B8EBD67F01FBCC
S214004B00054408BF4FF08048A6FB015716BFF04685
S214004B104FF000094FF0FF393C4415EB080544EB15
S214004B200904002C05DA6FF0004815EB080544F17F
S214004B300004ED0F45EA440528440028784FABBF33
S214004B404FF08044744600254FF0FF35C0FB074504
S214004B50002D04DA6FF00040241845F10005E40F3C
S214004B6044EA45040C44611002D4E00748BF013112
S214004B700E44002E6B48ABBF4FF0804474460021B5
S214004B804FF0FF31C6FB0041002904DA6FF0004009
S214004B90241841F10001E40F44EA410404F1E24420
S214004BA04FF080410020604FA4F52524A4F26C74D9
S214004BB00E468146C4FB0769C3F30065F60F46EA56
S214004BC0490643F30068013D08EA06082C40574FA3
S214004BD088EA04040E460546C4FB0765C3F340692D
S214004BE0F60F46EA450643F3406809F1FF3909EA3D
S214004BF0040908EA06084E4E88EA09080D460446E7
S214004C00C8FB0654C3F38069ED0F45EA440543F339
S214004C10806609F1FF3909EA08092E40454D86EA03
S214004C2009060C468146C6FB0549C3F3C068E40F77
S214004C3044EA490443F3C06508F1FF3808EA060869
S214004C4025403D4C85EA080581468846C5FB048913
S214004C50C3F300764FEAD87848EA490843F300746D
S214004C60013E2E4004EA0804DFF8D08074408146F6
S214004C700E46C4FB0869C3F34075F60F46EA4906BC
S214004C8043F34078013D254008EA06066E40F224CC
S214004C90C6FB0410C3F38079C90F41EA400143F311
S214004CA0807309F1FF39B2FA82F21940520909EA13
S214004CB00609501E81EA09015242014022F00040D6
S214004CC0DDE90C3248400999C1FB0032002A14463F
S214004CD004DA6FF000429B1844F10004059A069827
S214004CE00A99DB0F43EA44031A4053FA0AF358BF03
S214004CF001468A42C8BF0133803B13F17F0F08DBB1
S214004D007E2B09DC5BB2079A02F80C300CF1010C22
S214004D1005E56FF07F03F6E77F23F4E78023F2E7ED
S214004D20ABAAAA2A94A8F5707BBEAF63F2CBA24DBD
S214004D306CAC162FA4AA5211B72A580211FE0A000C
S214004D402DE9F04F9FB01646DDE92825D2E9007A16
S214004D500AFB07F9039000EB8909BAF1010F06FB7D
S214004D6003F04FEA800810D1039B0A6843F8042B2F
S214004D7099454144F9D1BB1E032B00F26584DFE858
S214004D8013F01C007A003F016102083203981446B3
S214004D904FEA8A0B06FB07F2CDE90045CDE9040190
S214004DA0CDE90623FFF7CCFF0498059958448145C2
S214004DB0DDE906234144EFD1DDE7039B0AF101015B
S214004DC01C46B60003EB8101043443F6FF774FF42C
S214004DD0804234F8043C13FB0723DB1324F8043C1E
S214004DE034F8023C13FB0723DB1324F8023C31F8AB
S214004DF0043C13FB07234FEAE33C31F8023C21F85E
S214004E0004CC13FB0723DB1321F8023CB5F9088119
S214004E10B5F90AE134F8049C08FB0CF00EFB13000D
S214004E2000F58040C0F3CF30A9EB000908FB03F380
S214004E3021F8049C0EFB0C3303F5804334F802CCB7
S214004E40C3F3CF33ACEB030C21F802CC34F804CC1C
S214004E50604424F8040C34F8020CBAF1010A034446
S214004E6024F8023C01F1040104F104043544B0D1F5
S214004E701FB0BDE8F08F06FB0AF305EB8303AB46D5
S214004E80B3F90A310593B3000C93F3000D93039B1B
S214004E9004954FEA8A004FEACA079A1C42F6AA29E6
S214004EA04FF4804532F8023C039913FB0953DB1399
S214004EB022F8023C039B5B8813FB0953DB134B80F1
S214004EC00B5A13FB0953DB130B52135A13FB0953EC
S214004ED0DB131352CE5B16FB0956F613CE530B4666
S214004EE0D15B11FB0951C913D153BBF90A411B5EB3
S214004EF006930894BBF90831049C0793B4F908811B
S214004F00B4F90AE1079C135EA446069C04FB0CFC5D
S214004F10089C03FB14CC0CF5804CCCF3CF3408FB78
S214004F2006FC0EFB11CC0CF5804C0994CCF3CF3468
S214004F300A94099CA4460A9C64440B94079C634309
S214004F40089CA446069C08FB01F104FB0C330B9C52
S214004F500EFB061632F802EC44F34E08039CAEEB4A
S214004F60080E24F800E003F5804306F58046C3F3F8
S214004F70CF33C6F3CF36B4F802E00B9C991941F351
S214004F804E08AEEB080E22F800E032F802EC1EFAED
S214004F9084FC039C22F802CCB4F802C01CFA81F10F
S214004FA0618005999B1B11FB0353215AC3F3CF3332
S214004FB01944E153DDE90914A1EB040C05991CFB27
S214004FC0015C115ACCF3CF3CA1EB0C01D1530399F1
S214004FD0095ACB1A03990B52135A9C440B460433B6
S214004FE003930C9B22F800C09B44049B0D99BAF1D6
S214004FF0010A0B44049302F104027FF453AF37E72F
S21400500053460C229F0002FB03FEB3001393F300EB
S214005010149302FB06F315936B681693CDE90655B9
S214005020039BCDF814A004954FEACA0A023341F652
S214005030FF7C4FF4804833F8022C039912FB0C8255
S214005040D21323F8022C039A528812FB0C82D21336
S2140050504A80CA5B12FB0C82D213CA53DA5B12FB7D
S2140050600C82D213DA5331F80A2012FB0C82D213C8
S21400507021F80A2033F80A2012FB0C82D21323F8F8
S2140050800A2031F80E2012FB0C824FEAE23B21F890
S2140050900EB033F80E2012FB0C82D21323F80E202B
S2140050A0C95F08910499B1F908110991D95F0A916D
S2140050B00499B1F90A110B91039931F90A100C9170
S2140050C00799B1F9081107980D91B0F90A91069859
S2140050D033F90A10B0F908010E90069833F8025C0E
S2140050E0B0F90A010F90DDE90C40604301FB19009E
S2140050F000F58040C0F3CF302E1AB4B21094039C53
S21400510066880D9C61430C9C04FB091101F58041E7
S214005110C1F3CF31741A0E44B1B2284480B20D9157
S214005120039923F8020C0C900D984880DDE90801DD
S21400513000FB01F5DDE90A011194BDF84440129424
S21400514000FB11550E9901FB0BF00F9901FB1200A5
S214005150DDE9094161430B9C2646089C04FB0611C9
S2140051600E9C039E62430F9C04FB0B2201F58041BC
S21400517002F58042C1F3CF31C2F3CF3201EB020B0E
S2140051801FFA8BF405F5804500F58040C5F3CF3552
S2140051900894C0F3CF308C1A05EB000909940C9CD8
S2140051A01FFA89F9A4EB090426F80A40089C0D9E0C
S2140051B0361B23F80A6033F8026C039C4E4423F82F
S2140051C0026C6688089C2644039C6680109C109E91
S2140051D0A5EB000B611A119C1FFA8BFB1BFA84FBD4
S2140051E0099C16FA84F6129C651B169C04B311449F
S2140051F0039A0544D15323F807B022F80E6023F82B
S2140052000E50039A139904320392049A0A440492A5
S2140052101499079A0A4407921599069A0A44069220
S214005220059A013A03F1040305927FF404AF1FE6E2
S214005230039C05441144E653DD5324F80E1023F86E
S2140052400EB0DEE70AFB06F305F5847101EB830278
S21400525031F923100591B2F90210069102EB830191
S21400526032F923300793B1F902300893039B049573
S21400527003EBCA019B4603EB8A0701EBCA030393C1
S214005280B3001A93F3001B930C2373431C93CDE9CE
S2140052900A5533011D9300230C9301EB8A090995E7
S2140052A04FF48043039A043203920C9A92450BF112
S2140052B0040B07F1040701F1040109F104097FF763
S2140052C0D7AD3BF8042C049C41F6991012FB003233
S2140052D0D2132BF8042C3BF8022C12FB0032D2130C
S2140052E02BF8022C37F8042C12FB0032D21327F8C6
S2140052F0042C37F8022C12FB0032D21327F8022CAB
S21400530031F8042C12FB0032D21321F8042C31F8A9
S214005310022C12FB0032D21321F8022C39F8042C8E
S21400532012FB0032D21329F8042C39F8022C12FB97
S2140053300032D21329F8022C039A32F8046C039A2E
S21400534016FB0036F61322F8046C32F8022C12FB19
S21400535000320398D21320F8022C37F9040C0D9073
S2140053600498B4F90AE1B0F9080131F9044C0E903A
S21400537037F9020C0F94099C39F9028CB4F90841EC
S214005380109431F9024C1194099CB4F90A41129414
S21400539039F9044C13940A9CB4F9084114940A9CF5
S2140053A0B4F90A4115940B9CB4F908C1B4F90A4142
S2140053B01694DDE90D546C4300FB1E4404F580444E
S2140053C0C4F3CF341794169C0CFB06F504FB125559
S2140053D005F58045179CC5F3CF352C441894BDF8C9
S2140053E060401994BDF9604018940E9C60430D9C73
S2140053F004FB0E00169C0CFB02F204FB062200F5D2
S214005400804002F58042C0F3CF30C2F3CF32861818
S21400541034B2821A0D9412B2179C1692DDE90F026E
S214005420641B24B20E944243DDE9114004FB1022B3
S214005430DDE913406043159C08FB140002F580422A
S21400544000F58040C2F3CF3CC0F3CF300CEB000435
S21400545025B21FFA86FE1795DDE910657543129E84
S21400546032460F9E06FB0255149E06FB08F8159E54
S2140054703246139E06FB028805F5804508F58048EF
S214005480C5F3CF35C8F3CF3805EB080632B20F9216
S214005490ACEB000212B21092199A18983BF802CCA4
S2140054A0A5EB08083BF8045C12FA84F4059A2C4431
S2140054B000FB02302BF8044C079A179C1EFA86F65F
S2140054C004FB02326644D2132BF8026C02EBE03285
S2140054D00D98059C079E04FB00340F9806FB0030D1
S2140054E0C013169E00EBE430069C06FB0434089EB0
S2140054F00FFA88F808FB0636F61306EBE4360E9C21
S214005500A646069C04FB0E341194109CA646089CE6
S21400551004FB0E344FEAE43E119C2A44B6B292B223
S2140055200EEBE4346044A2EB060EA4B23244039EB3
S21400553027F804EC14FA80FE001B27F802EC26F885
S214005540042C26F8020C079A1898059C00FB0230DB
S214005550179A04FB0232D21302EBE0321544079886
S2140055600D9A00FB02360F9A169804FB0232D213ED
S21400557002EBE636069A02FB0838089A00FB02326F
S214005580B4440898C2F3CF360E9A00FB0234109A41
S2140055900698C8F3CF3800FB0230A8EB0602C0F32B
S2140055A0CF30C4F3CF3412FA85F221F8042C221A35
S2140055B012FA8CF221F8022C0C9A0132041B0C927F
S2140055C01A98049A024404921B98099A0244099273
S2140055D01C980A9A02440A921D980B9AA6EB080891
S2140055E018FA85F814FA8CFC024429F8048C29F879
S2140055F002CC0B9256E6039B53F825009CFBF7F370
S2140056000FFA80FE001403FB0EFE43438E000EF5D9
S214005610804E03F580434FEAEE3EDB13A6F800E02B
S2140056207380554401318F42E5DC002F06DC0132E1
S21400563092457FF71DAC15460021F4E70023186855
S214005640039B43F82200FFDE002247F6FF7CEFE7CD
S2140056502DE9F74F154600F1420204469200002B52
S21400566000F0898025B91A60284603B0BDE8F08F9F
S21400567018681A60904201D20025F5E7C5E9004196
S214005680DFF80CB1A9464FF000084FF0000A20469C
S21400569007F088FDA04506460F4615DB0AF0D8F948
S2140056A009F062FE05F1080780468946042694FB49
S2140056B0F6F306FB1342002A47D1012BC7E9006325
S2140056C01C46D1DD0837F2E7404607F06BFD2CA3F9
S2140056D0D3E9002307F0D0FD3B46324607F0F6FE3E
S2140056E06B6806460F462BB101F10043009001930C
S2140056F0DDE900673046394609F0E2FD22A3D3E92A
S214005700002307F0B9FD52465B4607F0FFFB09F0A1
S2140057102BFE08F04BF83946A9F8080130460AF087
S21400572023F919A3D3E9002307F0A6FD52465B46EA
S21400573007F0ECFB09F018FE08F038F808F101084D
S214005740A9F80A0109F10409A1E7022E0FD0042ED8
S2140057500FD00236304607F025FD02460B4640467F
S214005760494607F0FBFF002818BF26469FE703269A
S214005770F0E70226EEE71D4676E700BFAFF30080AF
S214005780182D4454FB2119C000000000C0FFDF4064
S2140057900000E03F13B504461046884204F10802B4
S2140057A0CDE9002408BF00200122FFF7C9FA02B0A5
S2140057B010BD0123FFF7EEBF2DE9F04F10F00106F4
S2140057C087B00F461546984604D00025284607B0F1
S2140057D0BDE8F08F441005AB32462046FFF738FF91
S2140057E0059904EB440303EBD3735B1001F10C0241
S2140057F002EB8303B8F1000FE7D0D8F80020C8F812
S21400580000309A42E1D3002DDFD005F10C02531888
S2140058106B6003EB8403AB602A6005AB3946204619
S214005820FFF716FF04EBD47A4FEA6A0AB245CDDDDD
S2140058300136304607F0B6FC80462046894607F01B
S214005840B1FC02460B464046494607F03FFE264B53
S214005850002207F05BFB20A3D3E9002307F00CFD32
S214005860804689462FB101F1004300900193DDE99F
S21400587000894046494609F023FD19A3D3E90023D1
S21400588007F0FAFC0022184B07F040FB09F06CFD0D
S214005890AB6803934FEA860B07F088FFABF1040B67
S2140058A0039B494623F80B0040460AF05DF80CA31C
S2140058B0D3E9002307F0E0FC0B4B002207F026FBA1
