S02B00006275696C642F72656C656173652F74666C6974655F6D6963726F5F6D6963726F5F7370656563682E06
S214000000001000205D070000590700005907000097
S214000010590700005907000059070000590700005B
S214000020590700005907000059070000590700004B
S214000030590700005907000059070000590700003B
S214000040590700005907000059070000590700002B
S214000050590700005907000059070000590700001B
S214000060590700007D0C00005907000059070000E2
S21400007085C3000091C3000059070000590700001F
S21400008059070000590700005907000059070000EB
S21400009059070000590700005907000059070000DB
S2140000A059070000590700005907000059070000CB
S2140000B059070000590700005907000059070000BB
S2140000C059070000590700005907000059070000AB
S2140000D0590700005907000059070000590700009B
S2140000E0590700005907000059070000590700008B
S2140000F0590700005907000059070000590700007B
S21400010059070000590700005907000010B5054CB4
S214000110237833B9044B13B10448AFF300800123AE
S214000120237010BD0C11002000000000A4A30100E5
S21400013008B5034B1BB103490348AFF3008008BD65
S2140001400000000010110020A4A30100A3F5803ACF
S214000150704700BF174B002B08BF134B9D46FFF799
S214000160F5FF00218B460F461348144A121A0DF06D
S21400017063FE0E4B002B00D098470D4B002B00D093
S21400018098470020002104000D000D48002802D0EA
S2140001900C48AFF300800DF0EFFD200029000CF0B6
S2140001A0FFF80DF055FD00BF00000800000000003D
S2140001B000000000001000200C110020487F0020E6
S2140001C000000000000000000F207047082808B557
S2140001D01BD010DC022806DC002806DD01230422E2
S2140001E00921052015E00428F8D010489F2100F0CA
S2140001F0A1FA0E2010E020280FD0402811D0102899
S214000200F3D1012304220E21EBE7012304220A2165
S214000210184601F0CBFF002008BD01230422082168
S214000220DFE7012304220A21DBE700BF3C1A0100B6
S21400023008B50548012100F0FDFD0BF0F1FFBDE813
S214000240084000F0F9B900BF00350A000148012156
S21400025000F0F0BD00350A00F0B54B1E012B8BB048
S21400026007460E4676D83C4D0FCD01AC0FC40FCDD9
S2140002700FC42B6839482360012100F0DBFD3848A5
S214000280384C012100F0D6FD002301220721022070
S21400029001F08CFF002304220821022001F086FFD3
S2140002A0042200230921022001F080FF05238DF897
S2140002B004300123012E01A920468DF818304FEA9C
S2140002C087174FF4407308BF8DF82360ADF82030D1
S2140002D0039702F075FA244BA3670D23636700F0BB
S2140002E051FC2248002100F01DFC044618B10124F0
S2140002F020460BB0F0BD1E4AD37823F03C0343F0F3
S2140003003403D370D37C23F03C0343F03403012E34
S214000310D37412D10146174800F004FC0028E6D139
S214000320154AD37823F03C0343F03403D370D37CD0
S21400033023F03C0343F03403D374104B104A1E7072
S214000340002313700F4A13700F4A13700F4B0122CD
S2140003501A70CDE72124CBE7A01A010000350A0069
S21400036000520400000401400B000B0B2C1100206F
S2140003700410002030110020241000203611002028
S21400038037110020501100203511002034110020B4
S214000390184B1B7873B5002B28D0174D2C783CBB18
S2140003A0164A174E11681369164831400143334008
S2140003B011600343144915489160136191610094DC
S2140003C0134B1449006800F013FC134B1B78012BE9
S2140003D007D112480094124A12490068234600F0DA
S2140003E007FC01232B70002002B070BD1120FBE734
S2140003F00220F9E7341100203511002004100020F7
S2140004000F80FFCFF07F0030441100202C11002019
S214000410F90400004410002036110020301100209E
S2140004202410002054100020184B1B782DE9F041B2
S21400043004460D4616461BB3154B1B7813BB154FCB
S2140004403B78FBB9DFF8608098F800304B43B3F593
S214000450006F19D8104B1B780BB9FFF799FF98F867
S21400046000000E4B684318600D4B1C6004EB400404
S2140004705C600C4B1E6001233B700020BDE8F081E1
S2140004801120FBE70220F9E72120F7E734110020CE
S2140004903711002050110020351100203C1100209B
S2140004A048110020281100203611002010B50C4CF1
S2140004B0237893B10B4B186800F0C0FB0A4B1B78EF
S2140004C0012B03D1094B186800F0B8FB084B00203D
S2140004D01870084B2070187010BD0220FCE700BF93
S2140004E0351100202C11002036110020301100207C
S2140004F03711002050110020F8B53B4D2B78002B0B
S21400050042D03A483A4E11F0010F00F1100308BFEE
S2140005101946384B32681C6818BF0146A2422CD2D6
S214000520CB786FF30513CB70334B1B6803EB42039A
S2140005308B60A31AB3F5006F0B8817D940F2FF74CF
S21400054064F30E1302F500620B803260C37803F08A
S2140005503003302B08D1C37C03F03003302B03D19B
S21400056000232B70FFF7A2FF0120F8BD671EBA1A02
S21400057062F30E130B803460E8E70A681F4B1343E0
S2140005800B601F4B8B60E1E71E4B1B78002BEBD0FC
S2140005901648C94301F0010300EB03141D01E2787D
S2140005A0C2F30112032A0FD1124A46591268013AC1
S2140005B0C2F30A01144A324042EA01124251134A77
S2140005C052F82330A360CFE7114A1268002ACBD036
S2140005D01049084809780068B0FBF1F10B4850F85C
S2140005E023009047C0E700BF37110020041000200A
S2140005F0401100203C11002038110020F07F003010
S21400060044110020501100200F80FFCF4811002019
S2140006102811002036110020024B0222C3F8EC21DC
S214000620704700BF00A00046024B0222C3F8EC2130
S214000630704700BF00A0004470B5384D384E0FCD4F
S21400064088B001AC0FC495E80700364D84E8070073
S2140006503548012100F0EEFB30460121012400F070
S214000660E9FB324B039301A928468DF8124002F0AD
S21400067047F82346042200210A2001F097FD22466F
S214000680002302210A2001F091FD234604220721BF
S214000690052001F08BFD0422214623460A2001F0A6
S2140006A085FD234BAB670B236B674FF4487002F056
S2140006B009FC1420FFF7B8FF02F004FC2320FFF724
S2140006C0ABFF02F0FFFBB9212846FFF7ADFF02F0B3
S2140006D0B9F8FFF7A1FF00231A4619460A2001F0D1
S2140006E065FD00231A4602210A2001F05FFD23461D
S2140006F000220721052001F059FD2346002221464D
S2140007000A2001F053FD284601F05AFF0021A96790
S2140007103046696700F08EFB08B070BDC41A010051
S214000720006204000008014000350A0000127A004A
S2140007301E1D0012FEE7000005490A68131805484A
S21400074083428CBF4FF0FF320B601046704700BFED
S2140007506410002000000420FEE7000008B500F04A
S21400076083F8124B12498B4212D3124B12490020C7
S2140007708B4218D3FFF7EEFC186850F822405868F2
S21400078040F82240013298688242F5D30C33EAE7FB
S2140007900022F8E71C6844F8220001325C68A24296
S2140007A0F8D30833E4E70022F8E700BFACA3010063
S2140007B0B8A30100B8A30100B8A301000048704721
S2140007C000F04902104AD2F8943003F00703023BC7
S2140007D0032B13D8DFE803F00C14020E0B4B1B6838
S2140007E0D2F80001C0F304200130B3FBF0F07047EC
S2140007F0074BF4E7074B1B685B08F1E7054BEEE792
S2140008004FF40043ECE700BF00400E407410002099
S2140008106C1000207010002008B5FFF7D3FF054BC2
S214000820D3F80831C3F308230133B0FBF3F0024BCF
S214000830186008BD00400E4068100020014B186884
S214000840704700BF6C100020054B1860054BD3F8AE
S214000850943003F00703022B01D1FFF7DDBF70478A
S2140008606C10002000400E40044B054A9A60D3F8F6
S214000870882042F47002C3F88820704700ED00E03C
S214000880000000004FF4004070474FF47A70704745
S214000890014B1868704700BF74100020D0E90003B1
S2140008A0184703690068184738B50D46044640B334
S2140008B0012829D002282AD003282BD004280ED0BD
S2140008C005282AD0831F012B09D9082828D00928F3
S2140008D028D00A2803D10723EB40DB0704D41348AB
S2140008E040F2FE31FFF726FF30200C2310FB0434C5
S2140008F004F18844012104F5204401FA05F5256039
S21400090038BD40F2FF33E7E74FF6C073E4E740F642
S214000910FF73E1E74FF47F43DEE74FF6FF73DBE755
S2140009200F23D9E74FF44043D6E700BFE01A010093
S21400093038B50D46044640B3012829D002282AD0EF
S21400094003282BD004280ED005282AD0831F012B7D
S21400095009D9082828D0092828D00A2803D107232F
S214000960EB40DB0704D4134840F22D41FFF7E2FECC
S21400097030200C2310FB043404F18C44012104F5D0
S214000980204401FA05F5256038BD40F2FF33E7E75D
S2140009904FF6C073E4E740F6FF73E1E74FF47F439A
S2140009A0DEE74FF6FF73DBE70F23D9E74FF440434C
S2140009B0D6E700BFE01A010010B501210446094839
S2140009C000F038FA0848012100F034FAA3782078BD
S2140009D06178B3FA83F35B09042201F0E7FB002099
S2140009E010BD00BF4041050000350A0003460078F0
S2140009F059789B780BB9FFF757BFFFF799BF0346A7
S214000A00007859789B780BB9FFF792BFFFF74CBF79
S214000A1038B5047845782CB3012C26D0022C27D084
S214000A20032C28D0042C0ED0052C27D0A31F012B76
S214000A3009D9082C25D0092C25D00A2C03D1072348
S214000A40EB40DB0704D411484FF48961FFF772FED0
S214000A503022544304F18044012304F52044AB4083
S214000A60A36138BD40F2FF33EAE74FF6C073E7E70D
S214000A7040F6FF73E4E74FF47F43E1E74FF6FF737A
S214000A80DEE70F23DCE74FF44043D9E7E01A010026
S214000A9070B504784578064674B3012C2FD0022C26
S214000AA030D0032C31D0042C0ED0052C30D0A31F10
S214000AB0012B09D9082C2ED0092C2ED00A2C03D1B4
S214000AC00723EB40DB0704D415484FF48361FFF798
S214000AD031FE30230C2213FB042404F1047404F5C5
S214000AE0204405EBC404A400B3782068C0B213B950
S214000AF0B0FA80F0400970BD40F2FF33E1E74FF6F0
S214000B00C073DEE740F6FF73DBE74FF47F43D8E7BA
S214000B104FF6FF73D5E70F23D3E74FF44043D0E7F4
S214000B20E01A010038B5124B1B780546DBB1E0B180
S214000B3000F0F9FE0F4A00231146147B54B92B60CF
S214000B401A0101EB031301258C501D7300F0F1FE12
S214000B50204638BD0133082B02F11002EDD100F01B
S214000B60E8FE0548F5E70548F3E70548F1E700BF66
S214000B70D412002054110020048000F0028000F0FF
S214000B80018000F013B5164B1868019000238DF80D
S214000B90043000F0C8FE134B1C7824B100F0C9FEE8
S214000BA0114802B010BD01221A7000F0C2FE0F4BB1
S214000BB01C731C7783F82C4083F83C4083F84C4029
S214000BC083F85C4083F86C4083F87C4004230DEB8C
S214000BD003008DF8073001F053FB2046E1E700BF25
S214000BE0331B0100D4120020038000F054110020B3
S214000BF0F8B50D4D2D7885B1072810DC0B4D05EBAB
S214000C0000140601277B67B1AB51069B6360002585
S214000C10A56001F077FB2846F8BD0548FCE70548C7
S214000C20FAE70548F8E700BFD41200205411002068
S214000C30028000F0018000F0078000F00A4A127877
S214000C4008B552B107280AD8084A02EB00131B7BE6
S214000C503BB101F0DDFB002008BD0548FCE7054878
S214000C60FAE70548F8E700BFD41200205411002028
S214000C70028000F0018000F0078000F02DE9F843C4
S214000C80DFF86480D8F86070D8F86C301F4000D564
S214000C90FEE7144CDFF8549001260025374217D0A3
S214000CA02368C8F868609BB1A16862680131A160DA
S214000CB028469847637B012B0AD148B909EB4513B0
S214000CC01A7B60F341021A731A7F60F341021A77A7
S214000CD00135082D4FEA460604F11004DED1BDE8C2
S214000CE0F88300BF5411002000200E40D4110020CD
S214000CF00C4B984210D90C4B984210D90222012373
S214000D000A490B640A49D1F8003123F0807343EA9C
S214000D100263C1F80031704700221346F0E7012253
S214000D20FBE700BF0048E8010090D0030000C8437E
S214000D3000400E4038B5114B5B68114B00221C4634
S214000D40C9B21D798D4202D11D68854212D2013288
S214000D50052A03F10803F4D10A4841F2CE51FFF701
S214000D60E9FC032205494B6823F0407343EA02631B
S214000D704B6038BD04EBC2025279F3E700000E4028
S214000D800C1C0100371B01001F2810B5044604D9AF
S214000D9003484FF4B371FFF7CDFC0120A04010BD0F
S214000DA0891B010070B5084C41F67136256C266427
S214000DB0FFF704FD0021FFF7BDFFADB2B5421CBF33
S214000DC00023236470BD00BF00000E40044BDB6BA5
S214000DD05B0604D4034AD2F8C830002BFBD1704718
S214000DE000300E400000C64308B5FFF7EFFF024B89
S214000DF05868C0F3014008BD00300E40044BD3F8DD
S214000E004421D20703D4D3F840211042FBD17047C7
S214000E1000400E4070B5064C41F67136256C2664CF
S214000E20FFF788FFADB2B5421CBF0023236470BD38
S214000E3000000E4038B5C0F30323013B092B24D82D
S214000E40DFE803F02A2D2323051619231C20154C52
S214000E500023C0F3043513B11846FFF7CFFF04F1A3
S214000E60424404F5801405EBC404A400216038BD98
S214000E700D4C0123EDE70D4C1023EAE70C4C4FF424
S214000E808033E6E70B4C0023E3E7BDE838400A482A
S214000E9041F66A31FFF74EBC084C0023D9E7084CF0
S214000EA00023D6E7B0400E40E0400E40E8400E403B
S214000EB0F0400E4050410E40371B010000400E40EF
S214000EC0C0400E4008B5C0F30313013B092B60D8A1
S214000ED0DFE803F0050B0F195F5F1F233C532E4B13
S214000EE0D3F80001C0F3042008BD2B4BD3F814013F
S214000EF0F8E7294BD3F80001C0F300600130FFF794
S214000F0043FF0138F0E7244BD3F80C01C0F3082068
S214000F10EAE7214BD3F80801F8E7204B984209D0BE
S214000F201F4B98420CD041F60E511E48FFF702FCAC
S214000F300020D9E7184BD3F8200100F00F00DEE7B9
S214000F40154BD3F82001C0F30110D8E7164B984292
S214000F5008D003F5B01303F58053984206D041F647
S214000F603251E2E70C4BD3F82801ECE70A4BD3F8F2
S214000F702801C0F301200430C1E70C4B984205D18C
S214000F80054BD3F8300100F00300ADE741F64151C0
S214000F90CBE741F66651C8E700400E4080061600D3
S214000FA080162E00371B010090171A00A0091400A7
S214000FB008B5FFF787FF013008BD000000F00F00FE
S214000FC0013808B5072844D8DFE800F0040F1943B5
S214000FD0232D4335264BD3F8943003F00703023B0A
S214000FE0052B3DD8234AD05C08BD214BD3F8803072
S214000FF003F00703013B032B34D81F4AF3E71C4BCF
S214001000D3F8843003F00703013B032B2AD81B4A8E
S214001010E9E7174BD3F8883003F00703013B032BAF
S21400102020D8174ADFE7124B1B6F13F0010F0CBFD7
S21400103007200920D8E70E4BD3F85C3103F03003C5
S214001040202B11D0302B11D0102B14BF01200720DD
S214001050CAE70C4842F2BB01FFF76CFB0020C3E76F
S2140010600520C1E70120BFE70420BDE70820BBE755
S21400107000400E40DF1B0100E51B0100E91B0100DC
S214001080E51B0100371B010038B52C4B984205467E
S2140010900AD02B4B984207D02A4B984204D02A48B5
S2140010A041F2CD61FFF746FB2846FFF787FF234B4B
S2140010B09D42044611D0224B9D4212D0214B9D42A8
S2140010C013D1224BD3F8804004F00704042C2DD80B
S2140010D0DFE804F02A11151D19001C4BD3F88440D4
S2140010E0F2E71A4BD3F88840EEE7174841F2FC6166
S2140010F0FFF720FBEAE7BDE83840FFF7C3BBBDE8D3
S2140011003840FFF7C5BBBDE83840FFF7BEBBFFF76A
S21400111059FB0E4B0446D3F80001C0F300600130C3
S214001120FFF732FEB4FBF0F4204638BD064841F225
S2140011304E71FFF7FFFA0024F6E700BF0300200019
S2140011400500240002001E00371B010000400E4070
S21400115038B500F47813B3F5B01F05467FD02ED807
S214001160B3F5402F69D011D8B3F5802F54D006D8E8
S21400117043B1B3F5003F5AD041F69A411AE0B3F5B1
S214001180202FF9D1BDE83840FFF71CBBB3F5801F10
S21400119000F0A280B3F5A01F57D0B3F5602FEBD1B7
S2140011A05B48FFF70BFF072800F096800928E9D078
S2140011B041F290415748FFF7BDFA002036E0B3F5FC
S2140011C0381F5AD013D8B3F5001F5FD00AD8B3F52E
S2140011D0D01F5DD0B3F5F01FCED14F48BDE83840E4
S2140011E0FFF752BFB3F5101FC6D14C48F6E7B3F56C
S2140011F0481F57D0B3F5781F00F08280B3F5401F24
S214001200BAD14748FFF740FF464B0446D3F82801BB
S214001210C0F3012004302BE0FFF7D4FA414BD3F89B
S2140012200C31C3F308230133B0FBF3F038BDFFF7EE
S214001230C9FA3C4BD3F80831F3E7FFF7C3FA394B4A
S214001240D3F81431C3F30423EDE73448FFF71CFF4B
S214001250344BD3F8303103F00303D840E6E72E488A
S214001260FFF712FF2F4B0446D3F8200100F00F00C3
S214001270FFF78AFDB4FBF0F0D8E72748FFF704FF36
S214001280284BD3F82031C3F30113E6E72448A5E73B
S2140012902348FFF7F9FE234B0446D3F82801C0F392
S2140012A00110E5E72048FFF789FE0138072824D813
S2140012B001A353F820F000BFBB110000FB12000092
S2140012C0FB120000DF120000FB120000FB12000001
S2140012D0D9120000E7120000144B1868A6E7BDE814
S2140012E03840FFF7ABBAFFF76DFA0E4BD3F8003174
S2140012F0C3F3042303FB000098E741F2C74159E714
S214001300FFF760FA04462846FFF752FEB2E700BF32
S21400131006000E00371B010002001E000500240018
S2140013200300200000400E40B80032007810002075
S214001330014B1880704700BF7C100020013838B57C
S2140013400C46032864D8DFE800F002441A2FB1F5F3
S214001350007F04D3324842F6BB01FFF7EBF9314A6F
S214001360C4F30804D2F86838002BFBD12E4A136A5F
S21400137023F4FF7323F001032343136238BD7F2950
S21400138004D9274842F6C801FFF7D4F9254A04F0E5
S2140013907F01D2F86038002BFBD1234B1C6924F068
S2140013A07F040C431C61E9E77F2904D91C4842F6F8
S2140013B0E301FFF7BFF91B4A04F07F01D2F8643857
S2140013C0002BFBD1184B9C6924F07F040C439C61D6
S2140013D0D4E7154DD5F890305B0704D5104842F693
S2140013E0F301FFF7A7F96B6A23F0300343F010030D
S2140013F06B62C4F3C311CB1C2A6B0C490F2B01EA9A
S214001400020128BF0F23214341EA03712963B5E790
S214001410BDE83840024842F60D11FFF78BB900BF11
S214001420371B01000020C84300400E4000F8FF0FA5
S214001430022810B50C4604D0144842F62511FFF7D2
S21400144079F9134B5B6A13F0300F1BD0202C16D0A3
S214001450302C17D0B4B10D484FF42551FFF76AF978
S2140014600C4B0B4AD2F8901033EA0101FAD15B021A
S2140014704ABFD2F8A0000120C0F3802010BD4FF470
S2140014800003EEE74FF44003EBE700BF371B010015
S21400149000400E40FF33E107022808B50CD129B101
S2140014A0094B4FF48060C3F8A80059664AB1BDE8FE
S2140014B008400220FFF7BCBF044842F67611FFF74B
S2140014C039F9012008BD00BF00400E40371B01005F
S2140014D004282DE9F04704460F4691461FD83D4B99
S2140014E03D4A13F800A03D4B13F80080F1B93C4B81
S2140014F033F810301366012303FA08F8D2F8903058
S21400150013EA080FFAD1B9F1000F5AD00125324A72
S21400151005FA0AF5D2F890302B42FBD151E0BDE82F
S214001520F047304842F60A01FFF704B92E4B02286E
S21400153033F8106047D1536A13F0300F43D12B4B6A
S214001540DB6B5A0504D4274842F61901FFF7F2F878
S214001550214A536ADB0705D5536A23F0300343F06C
S21400156010035362224D1C4BA8441E664FEA88089F
S214001570D8F80030002BFBD0B9F1000F21D055442D
S214001580AD002B68002BFCD0022C1AD1CFB1124F25
S214001590796A11F0010118D0012220212046FFF7B8
S2140015A07BFFD7F89C40012200210220FFF790FF26
S2140015B0C4F30A010220FFF7C1FE3E662B68002B2B
S2140015C0FCD0BDE8F0870027CCE72046FFF730FFC9
S2140015D0E7E700BFED1B010000400E40F21B0100D4
S2140015E0021C0100371B0100F81B010000300E40F2
S2140015F08004F210112838B50C460FD000F00F000A
S2140016000138072800F2EB80DFE810F024006600BF
S2140016109A00E9007D00B400E900C200042912D156
S214001620FFF70CF90546A8B10021284600F094FA09
S214001630023C0A2C45D8DFE804F04A4731374444D8
S21400164044443D0F4D00052904D1664B1D68664B8A
S2140016509D42E9D80025EBE7032005240122114628
S214001660FFF736FFFFF79EFB0DB1FFF7AFFB5F4BB3
S2140016705C67FFF7D1F80446FFF7A4F8FFF738FBDE
S214001680FFF7B2FB01462046FFF7C4FB002D5DD1F5
S21400169028460121BDE8384000F05EBA5448FFF7FE
S2140016A027FB02200446D9E75148FFF721FB012417
S2140016B00320D3E742F27C11BDE838404D48FFF7DF
S2140016C039B842F28111F7E701200324C6E700206B
S2140016D00424C3E70724C5E7062933D14548464D09
S2140016E04FF40751FFF726F8424842F2D011FFF7B1
S2140016F021F8FFF767F8FFF7FBFA404B0122C3F823
S2140017000826032321E006293D4DEDD0013C092C97
S2140017102BD801A353F824F0711700004F170000D0
S2140017205D1700006B1700006B170000F316000033
S2140017306B1700006B1700006B17000049170000BE
S214001740304DE3E72C4DE1E704232B6038BD012242
S21400175011460020FFF7BCFE0223F6E701221146E1
S2140017601046FFF7B5FE0123EFE742F2FB11A3E7B1
S2140017700023EAE7072904D0092906D042F285218A
S2140017809AE71A4B00221A67E0E7184B0122FAE79D
S2140017904C1E072C1ED8DFE804F0201D1D161D1D4C
S2140017A00F0403221149D1F85C3123F0300343EAD9
S2140017B00213C1F85C31C9E7012211460420FFF785
S2140017C087FE0122EEE7012211460220FFF780FE87
S2140017D00222E7E742F2E3216EE70022E2E742F266
S2140017E0BA3169E770100020002D310100400E402C
S2140017F00148E801371B010080400E400010C84336
S21400180088400E4084400E4010B504461120FFF775
S214001810D5FB042804D1274842F2A561FEF78AFFCB
S214001820012200210220FFF753FE63781BB9A3783C
S2140018300BB9E37823B11F4842F2E161FEF77AFF65
S214001840237C012B04D11B4842F2E861FEF772FFAD
S214001850194A217C536A23F00103022908BF43F08A
S21400186001035362154B2178C3F8A014637AA1884C
S21400187043EAC123D362136BA07A217A03F07F6315
S2140018800343E08843EAC02343EAC11303310F2928
S21400189028BF0F2143EA01731363A37B617B1B01FF
S2140018A043EA0133E17B0B43217B43EA0143536365
S2140018B010BD00BF371B010000400E400000C843AB
S2140018C070B505461120FFF779FB022804D10F48B2
S2140018D042F26371FEF72EFF0D4E0E4BB26B2C7864
S2140018E013401C436B7844EAC324AB7844EA036491
S2140018F0EB7844EA0324B36BA34205D0002101220F
S2140019000846FFF7E5FDB46370BD00BF371B010056
S21400191000400E4080E4FFF8EFF3108072B6704788
S21400192000B962B67047EFF31180602383F3118825
S214001930704780F311887047034BD86B80F04000E7
S214001940C0F38010704700BF00300E4038B542EA42
S2140019500323B3F5007F05460C463ED019D8B3F5F1
S214001960807F36D00AD883B3012B21D01F4840F69B
S214001970F211FEF7DFFE002213461FE040F20112CE
S2140019809342F3D11A4BD3F824321A0EC3F307430B
S21400199014E0B3F5407F24D040F20132934210D0D9
S2140019A040F201229342E1D1114BD3F8283202E0F3
S2140019B00F4BD3F82432C3F30722DBB22B6022602E
S2140019C038BD0B4BD3F82832DFE7094BD3F81C326F
S2140019D0F1E7074BD3F81C32D7E7054BD3F8203294
S2140019E0E9E7034BD3F82032CFE700BF341C0100F1
S2140019F00081E00F08B5FFF79FFF20B1024AD2F83A
S214001A00C830002BFBD108BD0000C6431A4B022885
S214001A1010B5D3F830320C4612D0032813D0012864
S214001A2014BFDBB2C3F307231B0323F47042ECB9E5
S214001A305AB140F681111148FEF77CFE002010BD19
S214001A40C3F30743F0E71B0EEEE70D49CA6E22F418
S214001A5070421343CB660120F1E70949D1F8EC2028
S214001A6022F470421343C1F8EC30F4E7002AF4D0B5
S214001A7040F68D11DFE700BF0081E00F341C010047
S214001A8000300E400378134A002B437870B514BF1D
S214001A9004260026002B8378946914BF02250025AF
S214001AA0002B037924F03F0443EA0403C47814BFF0
S214001AB008210021012C08BF43F0010333432B43C8
S214001AC00B4393611368417923F4403343EA01439F
S214001AD0136070BD00300E40F8B504460F46FFF7A1
S214001AE02BFF78B3FFF786FF174B5B68C3F3014302
S214001AF09C4227D0154BD3F80061FEF763FE022CFC
S214001B0005460FD1124BC6F3042606FB00069E427E
S214001B1004D910484FF4E361FEF70CFE0221284674
S214001B20FFF778F9C4F1020210239340064A1361C6
S214001B300FB1FFF75FFF2CB921462846BDE8F840F5
S214001B40FFF768B9F8BD00BF00300E4000400E40F9
S214001B50002D3101341C010013B50246FFF7ECFEE0
S214001B60C8B152B90D4B0191D3F80041FEF72AFED9
S214001B70C4F30422019902FB0002094B1B7843B10F
S214001B80084B9A4205D8022002B0BDE81040FFF785
S214001B90A3BF0020F8E702B010BD00BF00400E4013
S214001BA0DC120020002D3101224B4AF6E85210B517
S214001BB0596B5A639A6FD207FCD41B6C13F003035D
S214001BC01EBF1D4A0124C2F8B44A834204D110B98C
S214001BD0194BC3F8B40A10BD032B00D09BB9431EA3
S214001BE0012B10D8134A4FF40023D362936FDB0700
S214001BF0FCD4136C23F0030343F0010313640D4A73
S214001C00536A1C03FCD50B4B9A6FD207FCD41A6C94
S214001C1022F0030202431A649A6F12F00102FBD10B
S214001C200038054C18BF01200129C4F8B40A08BFC3
S214001C305A63D0E700300E400000C6432DE9F04F4F
S214001C40A0F5E16389B00024B3F5966FCDE90244B0
S214001C50CDE90444CDE9064406468A46934605D9AE
S214001C6040F67B315548FEF765FDA3E0B0F5E16F21
S214001C70534B8CBF0122002249D1D3F81832C3F34C
S214001C800721DBB2079104934FF416754FF496675D
S214001C9048E0BBF1000F0ED0D9F85C2022F4FE42DB
S214001CA022F00202B6F5E16F42EA012218BF0220D6
S214001CB00243C9F85C20BAF1000F26D02046002166
S214001CC0FFF7A4FE044610B940F6D831CAE7012152
S214001CD04046FFF79BFE044610B94FF43E61C1E74D
S214001CE0384A536EBD4238BF3D4623F4FF73E72D96
S214001CF023F0010328BFE725B6F5E16F18BF43F0D0
S214001D00010343EA4503536654E0012452E0D3F846
S214001D101832190EC3F30743079104934FF49665E0
S214001D204FF4E167DFF89C90D9F84C400192C4F379
S214001D300174234605A902A8FFF708FED9F8EC307F
S214001D40019AC3F30128434606A903A8FFF7FEFD40
S214001D50049BF01B079FF91A4143B1FBF5F2991853
S214001D602CBF012300238F421ED3EBB9069A039F94
S214001D70D31B4343B3FBF5F3FF182CBF012300230B
S214001D80BA4211D383B9059B029AA3EB020C00FB5F
S214001D900CF0B0FBF5F555192CBF01200020AB4226
S214001DA002D300283FF475AF044840F6C931FEF769
S214001DB0C1FC0024204609B0BDE8F08F341C0100A9
S214001DC00081E00F00300E40334A08B5136FD16C27
S214001DD011F0010F03F0060344D0002B42D0132865
S214001DE057D9143813288CBF102308232A49013BDF
S214001DF0CA6C180322F47F4240EA03231343CB64E1
S214001E00264BCA6C1B88C2F303222833013202EB2E
S214001E10820003EB5303B3FBF0F3C86C013B072BC4
S214001E2028BF072320F0EE6040EA036343F48013E4
S214001E30CB641B4BB3F90030002B12DB03F12800F8
S214001E40C0F34E030344500800EB4202B3FBF2F229
S214001E500B6D072A28BF072223F0700343EA0212FD
S214001E600A6508BDD16C01F00101194304D10928A7
S214001E700FD90A380928B6E7D26CD20702D50BB9B3
S214001E802728B0E7074840F61E41FEF753FC00231C
S214001E90ACE70423AAE700BF00300E40D8120020AB
S214001EA0DA120020341C01000C4BD3F8803910B530
S214001EB0044633B9012804D9094840F63C41FEF7E8
S214001EC039FC084A136F23F0070323431367064BB6
S214001ED0BDE810401888FFF777BF00BF0000C64374
S214001EE0341C010000300E40D612002038B55A4B84
S214001EF002229A639B6B03F00F039342044607D0BB
S214001F00564840F61621FEF715FC0025284638BD33
S214001F100389C82B04D951484FF42261FEF70AFC06
S214001F20A28823899A4204D94C4840F62121FEF71C
S214001F3001FCB4F90C30C82B04DD484840F62221D9
S214001F40FEF7F8FB6378012B55D1A388C82B04D97C
S214001F5040F626214148FEF7EDFBE28842F2107378
S214001F609A4204D93D4840F63321FEF7E3FBE38866
S214001F704A2B48D9B3F5FA7F47D340F6C3129342AB
S214001F8094BF4FF000524FF040523349B4F90C0062
S214001F90CB6C23F0405323F001030028A8BF43F086
S214001FA001031343CB64D1F8EC30A28843F44073AA
S214001FB0C1F8EC302A4B1A80CB6E43F08073CB66A8
S214001FC0284BD3F8800900B10420FFF76DFF264B9D
S214001FD021891980254BB4F90C20A0881A80FFF7B8
S214001FE0F3FEA37BA3B1012B22D01C4840F632118E
S214001FF0FEF7A0FB0FE0022BAFD1A3880A2BACD9CB
S21400200040F62B21A6E70022BFE74FF08052BCE740
S214002010114B174A9A65012260881146FFF70EFE9B
S214002020054640B90D4840F66A21FEF783FB6DE78A
S214002030094B104AEEE7084AD36B43F48063D36338
S2140020406078FFF7B1FDA37AA3F120025342534113
S214002050044AC2F8943759E700300E40341C010099
S214002060D61200200000C643D8120020DA12002044
S21400207077402057372110B738B50D46044640B391
S214002080012829D002282AD003282BD004280ED0D5
S21400209005282AD0831F012B09D9082828D009280B
S2140020A028D00A2803D10723EB40DB0704D41348C3
S2140020B040F22D41FEF73EFB30200C2310FB04348B
S2140020C004F18C44012104F5204401FA05F525604D
S2140020D038BD40F2FF33E7E74FF6C073E4E740F65B
S2140020E0FF73E1E74FF47F43DEE74FF6FF73DBE76E
S2140020F00F23D9E74FF44043D6E700BFE01A0100AC
S21400210038B50D46044640B3012829D002282AD007
S21400211003282BD004280ED005282AD0831F012B95
S21400212009D9082828D0092828D00A2803D1072347
S214002130EB40DB0704D4134840F2FE31FEF7FAFA10
S21400214030200C2310FB043404F18844012104F5EC
S214002150204401FA05F5256038BD40F2FF33E7E775
S2140021604FF6C073E4E740F6FF73E1E74FF47F43B2
S214002170DEE74FF6FF73DBE70F23D9E74FF4404364
S214002180D6E700BFE01A010070B505460E461446B5
S214002190FFF7C2FB296881EA040202EA06044C4003
S2140021A02C60BDE87040FFF7BBBB0000F8B50D46DD
S2140021B016461F460446C8B301283AD002283BD02C
S2140021C003283CD004280ED005283BD0831F012BC3
S2140021D009D9082839D0092839D00A2803D1072177
S2140021E0E940CB0704D423484FF4B071FEF7A2FAB7
S2140021F026B1294620466FB3FFF73EFF04EB4403A3
S214002200072D4FEA03134FF00F0126D8A80006FA51
S21400221000F2814018481844FFF7B6FF4EBB294627
S214002220204617B3BDE8F840FFF726BF40F2FF315F
S214002230D6E74FF6C071D3E740F6FF71D0E74FF40C
S2140022407F41CDE74FF6FF71CAE70F21C8E74FF48D
S2140022504041C5E7FFF754FFD0E7A5F1080080002E
S21400226006FA00F281400548D5E7BDE8F840FFF7DA
S21400227047BFF8BD861C010004A0004008A000402F
S21400228010B5044618B91C489121FEF753FA237876
S2140022901B0613F0784F03D017489221FEF74AFA30
S2140022A0E378072B03D91448A321FEF743FA01214C
S2140022B04FF4AA40FEF7BEFDB4F8013022785BBAB0
S2140022C09BB243EA02630D4A136000231362D36293
S2140022D053634FF00043D3664FF0FF339366084ACC
S2140022E04FF40071C2F88011E3785B01DBB282F82C
S2140022F00933116010BD00BFD91C010000200E403C
S21400230000E100E02DE9F041C3B2012607280546AA
S2140023100C46904606FA03F603DD3A48EC21FEF733
S21400232009FA1CB93748ED21FEF704FA236823F4AE
S2140023307C1323F00F031BB13248F221FEF7FAF9A3
S214002340A37A1B0413F47C0F04D02E4840F2091124
S214002350FEF7F0F9E37A1B0513F07E6F04D02948E8
S21400236040F20B11FEF7E6F9237B5B0513F0FE5FE8
S21400237004D0244840F20D11FEF7DCF9224F637BAF
S214002380BE66302000FB05702268C0F88020C0F8CA
S2140023908830E37AA27A1B0543EA0243227B43EAAB
S2140023A0425328F00302C0F88430C0F89820FFF7A4
S2140023B0BAFAFB6E3343FB66237A13B17B6B334367
S2140023C07B63637A13B1FB6A3343FB620E4B1A6876
S2140023D0237923B1DB431B0263F47F431A406379FE
S2140023E00BB142EA0322A3790BB122EA0302E37996
S2140023F01A43054B1A60054A9662DE63BDE8F04153
S214002400FFF797BAD91C010000200E4000200E44AA
S21400241010B5C3B20124072804FA03F404DD094802
S21400242040F29711FEF786F9FFF77DFA064AD36E5B
S21400243023EA0403D366054B1C62BDE81040FFF791
S21400244078BA00BFD91C010000200E4000200E44C0
S2140024502DE9F04180460E461F46154622B9314802
S2140024604FF4A171FEF766F91EB92F48FEF770FE0D
S2140024700646402F2AD009D8A7B1202F1CD0BDE889
S214002480F041284840F28911FEF754B9602FF6D182
S214002490B5EB960F04D9234840F28311FEF74AF9AC
S2140024A004241DE0B5EB161F04D91E484FF4BA717C
S2140024B0FEF740F9102413E0B5EBD60F04D91948FF
S2140024C040F27911FEF736F9082409E00624B6FB37
S2140024D0F4F3AB4204D213484FF4BF71FEF72AF967
S2140024E06C43610801EB4616B6FBF4F40F4E203C35
S2140024F0B6EBC40F4FEAC40504D20A484FF4D071B5
S214002500FEF718F9D8F8003023F06003C8F800305A
S214002510D8F8003035401F43C8F80070C8F814508B
S214002520BDE8F0817E1D010040410500F8FF7F00F8
S21400253070B506460C46154622B90D4840F28E2167
S214002540FEF7F8F81CB90B48FEF702FE04460A4BE5
S2140025506D00013CB4FBF5F413EA04234FEA0425AE
S21400256004D0034840F2B321FEF7E4F8756170BD6D
S2140025707E1D010040410500070080FF38B50E4B68
S214002580984204460D4610D003F5806398420CD05E
S21400259003F58063984208D003F58063984204D020
S2140025A006484FF43371FEF7C5F8EB435B0003F0C3
S2140025B00A03E360E56038BD000001407E1D0100AF
S2140025C038B51E4B1E4D984204460ED0A8420CD07D
S2140025D003F50063984208D003F58063984204D060
S2140025E0184840F24241FEF7A5F840F6AA63E360B9
S2140025F041F20502002323606260134AA360636110
S214002600E364A26423666367A367E3670B4B9C429D
S21400261009D0AC4207D003F500639C4203D003F513
S21400262080639C4201D1002323650023AC42A3654E
S21400263002D0064A944200D1E36538BD000001404E
S214002640000401407E1D0100F9FF0100000C01405E
S21400265038B5294B984204460D4610D003F58063E2
S21400266098420CD003F58063984208D003F5806347
S214002670984204D0214840F2FD21FEF75BF8204640
S214002680FFF79EFFAB7C1BB1236843F080432360BB
S214002690EB7C1BB12B7D43F08003A3652A8A6B7B02
S2140026A01343EA89134363602B7BD5E90112204666
S2140026B0FFF7CEFE6B7D1BB1236843F480332360A7
S2140026C0AB7D1BB1236843F400432360EB7D2A7E79
S2140026D01B07120502F4E00203F0E04313432366EF
S2140026E0636F23F030036367626F6B7E1343636729
S2140026F02B78E36038BD00BF000001407E1D01005E
S21400270038B52D4B984204460D4610D003F580632D
S21400271098420CD003F58063984208D003F5806396
S214002720984204D0254840F26931FEF703F8204667
S214002730FFF746FFA97B2A8A2368002942F0010298
S21400274014BF4FF48061002113430B432A7D23609E
S2140027502368002A14BF4FF0005200221343236060
S214002760AB7C1BB1EB7C43F08003A3652B7B43F46F
S21400277080536360D5E901122046FFF7D9FE6B7BD4
S2140027800BB11023E3606B7D1BB1236843F48033E9
S2140027902360AB7D1BB1236843F400432360EB7DCD
S2140027A02A7E1B07120503F0E04302F4E0021343FF
S2140027B023662B78E36038BD000001407E1D0100D3
S2140027C01B4B984270B505460C4608D003F50063CF
S2140027D0984204D0174840F2FA31FDF7ABFF0023C9
S2140027E02146267823702846FFF78AFF94F8202093
S2140027F0A38B94F821001343A27F002AE27F14BF24
S21400280010210021002A14BF08220022002814BF2D
S2140028100220002003430B43134343F00103EB6500
S2140028202EB131462846BDE87040FFF7A7BE70BD02
S214002830000401407E1D010003691B06FCD5C0692B
S214002840C0B2704703695A06FCD5416303699B060C
S214002850FCD5C069C0B2704703695B06FCD541630E
S214002860704700007FB5094B6A4603F1100615460F
S21400287018685968144603C40833B3422246F7D191
S2140028802846FFF733FB002004B070BDD21D0100C0
S21400289013B502230024684600948DF804408DF892
S2140028A00530FFF7EFF8204602B010BD70B5164BA6
S2140028B086B001AA03F11006154618685968144632
S2140028C003C40833B3422246F7D11B8823800F4B3C
S2140028D0D3F8B42012030ED4D3F8B830C3F30803E9
S2140028E00B48ADF80A30FDF7AFFF2846FEF78CFF21
S2140028F0002006B070BD074B1B884FF6FF72934250
S21400290008BF4FF4A673EBE7E21D01000081E00F5D
S21400291000F049020001E00F07B5084B1868019067
S214002920202301A88DF80430FEF7CAFF6420FEF7C6
S214002930FFFC002003B05DF804FB00BFF41D01009F
S21400294010B50C480C4C6FF00402A02112F0800F5A
S214002950D3B21BBF03F00F03043BA3181B1802F1EE
S21400296001020CBF83F800131976332AEED100203B
S21400297010BD00BF00ED00E000E100E010B5044629
S214002980FEF7CAFF024B1C60FEF7CAFF002010BD10
S214002990E012002010B5FEF7BFFF034B1C68FEF7E1
S2140029A0BFFF204610BD00BFE012002007B530B9BB
S2140029B0CDE90012FFF7EEFFDDE9001230B1436803
S2140029C023B1006803B05DF804EB1847232003B07A
S2140029D05DF804FB80F82410704790F824007047D8
S2140029E070B504460568FFF7D5FF844202D1002083
S2140029F0FFF7C4FF95F92830002B11DB03F01F0109
S214002A005B099B0003F1604303F5614301228A40A2
S214002A10C3F88021C3F88020BFF34F8FBFF36F8FBA
S214002A200023C4E90033C4E90433A3602846EB68F6
S214002A30BDE87040184790F8243070B505460C463F
S214002A408E18E3B9A6420AD095F82630002BF9D0A6
S214002A502B6814F8011B284698470028F2D070BD52
S214002A6095F826305BB123780A2B03D12B680D210D
S214002A70284698472B6814F8011B28469847A64214
S214002A80EED1ECE72DE9F7434FF0000904469046F7
S214002A901E46C3F800904F1E3368434505D2FEF726
S214002AA042FFA269C2B9FEF744FF94F827305BB92B
S214002AB0112301220DF1070120468DF80730FFF79C
S214002AC0BAFF012384F827303368002B0CBF1B2085
S214002AD0002003B0BDE8F083E16922698A5C07F84C
S214002AE0012F2569226A01359542A26908BF4D4625
S214002AF0013AA2612561FEF71CFFA36820469847AD
S214002B00336801333360C7E708B5FFF794FF00204A
S214002B1008BD0000F8B51F46536805460C46164625
S214002B20002B3ED09368002B3DD02C22002120465F
S214002B300BF082F97368E361B3682362337B84F831
S214002B402430B37B84F8253040F20113E384069BDF
S214002B506360079BA360089B2760E36096F90030DC
S214002B60124A84F828306A60114AAA60114A2A611B
S214002B70114A6A61002B114A2C60EA600CDB03F0F4
S214002B801F015B099B0003F1604303F561430122CB
S214002B908A40C3F880211A602846FFF7EFFE00201F
S214002BA0F8BD2220FCE72120FAE700BF092B000031
S214002BB0852A0000D5290000DB290000E129000055
S214002BC010B50446FEF7AFFEA269236A9A4203D206
S214002BD0FEF7AFFE012010BDFEF7ABFE0020FAE7C1
S214002BE073B504460D46AFF30080FEF79CFE94F8DE
S214002BF0253006466BB1132D07D1002384F8263006
S214002C0002B0BDE87040FEF794BE112D01D101233D
S214002C10F4E7A269236A9A4204D3154840F2691180
S214002C20FDF788FD6369E269D554A26963690132DC
S214002C30A261226A01339342636104BF0023636189
S214002C403046FEF776FE94F825307BB1A269236AFB
S214002C509A420BD1132301220DF1070120468DF86D
S214002C600730FFF7E8FE002384F8273002B070BD77
S214002C70F81D0100C26AD36C43F00403D3647047A6
S214002C80C26A10B5044613695906FCD500231A46D5
S214002C9094F8351094F83400FFF788FA00231A46A3
S214002CA094F8371094F83600FFF780FA94F83C3022
S214002CB0DA0707D5002394F8391094F838001A4636
S214002CC0FFF774FA94F83C309B0707D5002394F876
S214002CD03B1094F83A001A46FFF768FAE06A0021BB
S214002CE0FFF74CFC206B0021FEF7A4F8002010BD77
S214002CF008B5C06AFFF7B0FD002008BD2DE9F04119
S214002D0086B01C46524B0C9D0293524B01930126F3
S214002D1000230093CDE903664F4B90460A462946AA
S214002D20FFF7F8FE0746002856D12368EB62636873
S214002D302B63637A85F83530237A85F83430E37A66
S214002D4085F83730A37A85F83630637B85F83930D6
S214002D50237B85F83830E37B85F83B30A37B85F80A
S214002D603A303E483146FEF765F83D483146FEF7B4
S214002D7061F8617A207A33460422FFF717FA334661
S214002D800222E17AA07AFFF711FA60683146FEF770
S214002D9051F888F8007041462068FFF759FC226811
S214002DA0536F43F003035367936F617C23F4F85328
S214002DB023F01F030B43217C43EA0123032193677F
S214002DC0516785F83C7098F81930202B2BD007D81F
S214002DD003B3102B09D02327384606B0BDE8F08190
S214002DE0302BF8D185F83C1002E085F83C603E4672
S214002DF000230222617B207BFFF7D8F92368A27CA0
S214002E00DA675A6E42F004025A665A6F42F01002AF
S214002E105A675EB92068C36C43F00403C364052197
S214002E20FFF7ACFBD8E7022385F83C30E17BA07BBC
S214002E3000230422FFF7BAF92368E17CDA6F42EA3E
S214002E400122DA675A6F42F020025A67E2E700BFB3
S214002E50812C0000752C0000F12C0000404105007C
S214002E6000350A00C36A1B691B0610B5044610D558
S214002E70FFF7A6FE40B1E06AFFF7DEFC01462046FB
S214002E80BDE81040FFF7ACBEE26AD36C23F0040343
S214002E90D36410BD08B509F0E5F909F031FA09F078
S214002EA031FA09F036FABDE8084009F033BA08B539
S214002EB009F032FA09F031FA09F030FABDE80840B4
S214002EC009F02DBA10B50446FDF7A6FC4FF47A7249
S214002ED09042B0FBF2F105D23621BDE810400B4817
S214002EE0FDF728BC0A4BB3FBF1F30A49884201D927
S214002EF03C21F2E702FB04F0B0FBF3F0032804D910
S214002F00BDE81040800800F00BB810BD5F1E010041
S214002F1040420F00E7CD9A3B000000000000000092
S214002F20013800D0FCE7704730B5D86884078BB00E
S214002F3028D10C6934BB4C6924BB8D68012D21D186
S214002F40CD68012D1ED14D6A08950D6A07954D680E
S214002F5006950968CDE904011399C9680391D3E978
S214002F6001011B684143594302915368019313685A
S214002F700093129A149B10990E9801F0A9F9204616
S214002F800BB030BD6FF00200FAE7002070472DE965
S214002F90F04FA9B0CF68379E0C970F691697576801
S214002FA012681C92B268219272684C6922924A6832
S214002FB098680B941B978C694F6A05920A68896A11
S214002FC01A9007915868F168DB68339D06978B4224
S214002FD040F06E820B99012900F36D82A9680329DF
S214002FE040F069826968032940F065826142099170
S214002FF01A990E94594312915900089103EB430114
S2140030001791011918910B9949421D910C99594332
S21400301024911D99002B01FB03F1239123F003015A
S214003020B8BF002111911198591A8342B8BF0021E8
S214003030259100210A911391D91E27911399229860
S214003040814203DB002029B0BDE8F08F0999129C6D
S21400305000290E99C8BF00210D910D9809990144C9
S214003060239804FB010110910B981A99179C19904C
S21400307001440F911D99149100210D9815913499D2
S21400308004FB00111F9118990329A8BF0321209162
S2140030901599219881420DDB1698099901440991EA
S2140030A01399013113910E99091A0E911899091A5C
S2140030B01891C3E714990A9800291999C8BF0021E6
S2140030C01E91389901440391DDE91B160291369949
S2140030D00191002110980491329901442691279974
S2140030E00498814224DC11980A99109C01448C466D
S2140030F0389901EB0C0E0146329800EB0408994211
S214003100C0F2798125990C9861440A91149901447A
S21400311014911599013115911999091A1991249844
S2140031201099014410910C980F99091A0F91AFE766
S2140031300199269FDDF83490D1E90054D1E90201C7
S21400314000913946049F01EB070E1F9F3946049FE6
S21400315001EB07082099494500F3DF800299D1F872
S21400316000C02CEAEC77BD4037684FF0804E4FF039
S2140031700008C5FB07E84FEADE77BCF1000F47EA18
S21400318048084FF00101D4BFCCF10007002701FA30
S21400319007F5013D58FA07F708EA050E45FA01F566
S2140031A048BF6D180299AE45D1F804E02EEAEE75D8
S2140031B004FA05F475684FF080484FF00009C4FB28
S2140031C005894FEAD87CC8BF0137BEF1000F4CEA2C
S2140031D049094FF00101D4BFCEF1000C4FF0000CAE
S2140031E001FA0CF4013C59FA0CFC09EA040544FA0D
S2140031F001F448BF64180299A5428D6825EAE57473
S21400320000FA04F0B468C8BF0CF1010C4FF0804E11
S214003210002D4FF00008C0FB04E84FF00101D4BFBA
S2140032206D42002501FA05F04FEADE7E4EEA4808B8
S214003230013858FA05F508EA000440FA01F048BFDC
S214003240401802998442CC68009924EAE47001FA96
S21400325000F1F0684FF0804E4FF00008C1FB00E828
S214003260C8BF0135002C70464FF00101D4BFC4F131
S214003270000E4FF0000EC00F01FA0EF140EA4808AB
S214003280013908EA010458FA0EF84FEA610148BF0E
S21400329001318C4205990F440699C8BF08F1010810
S2140032A08F42B8BF0F4605998C4406998C45B8BF27
S2140032B08C4605990D4406998D42B8BF0D46059972
S2140032C0884406998845B8BF884607998F42A8BFA4
S2140032D00F4603990F7007998C45A8BF8C46039933
S2140032E081F801C007998D42A8BF0D4603998D70DD
S2140032F007998845A8BF8846039981F803800499F2
S214003300043104910399043103910299103102911A
S2140033100199103110360191E1E61E9FFFB9DEF8E3
S2140033200070D8F800C0009942FA87FA4FFA8CFB72
S2140033300BFB0A5547F3072A4CF3072B92440BFB6B
S2140033400A4447F3074A4CF3074B02EB27674FEA5A
S2140033502C6C92440CFB07110BFB0A0000915EF8E4
S214003360037058F803C0009942FA87FA4FFA8CFBAC
S2140033700BFB0A5547F3072A4CF3072B92440BFB2B
S2140033800A4447F3074A4CF3074B02EB27674FEA1A
S2140033902C6C0CFB07110F9F00919244022F0BFB25
S2140033A00A0021DD0899089F51F808C057F80E70EA
S2140033B0009942FA87FA4FFA8CFB0BFB0A5547F343
S2140033C0072A4CF3072B92440BFB0A4447F3074AA1
S2140033D04CF3074B02EB27674FEA2C6C92440CFB2E
S2140033E007110BFB0A00009112998E44179909F1F8
S2140033F001098844AEE636981F9D50F821000D9EC0
S21400340008EB01040D44209FB74230DC1B9C54F8A7
S214003410216026EAE674A0401C9C54F82140002E49
S2140034204FF080454FF00007C0FB0457D4BF7642EC
S21400343000260120ED0FB04045EA4707013807EAAD
S214003440000437414FEA600048BF013084420598C7
S214003450C8BF0137074406988742B8BF0746079893
S2140034608742A8BF07460EF8017B013147E61E9F3C
S21400347037B994F9007095F90090174409FB0700D6
S214003480E75615F90390174409FB07000F9F022F14
S21400349008DD089FE75707EB020A089F15F9079013
S2140034A009FB0A00129F3C44179F01363D44AAE7D9
S2140034B06FF00200C7E54FF0FF30C4E52DE9F04F8E
S2140034C0C869D1F82090B7B084B22C941FFA89F45A
S2140034D02D948C6801941C68419D1D949C681E94D4
S2140034E05C68DB680493AB681F936B6823934B6937
S2140034F00E93CB680593DDE944A60B690F935368DA
S214003500249313688D692593B3682693736827936D
S2140035104B6806930B6828934B6A07938B6A08934D
S214003520019B13F0030340F0D9811D9A012A40F055
S214003530D581012840F0D281B9F1010F40F0CE814B
S214003540F26809926A4209990A921F9A0D954A43AF
S214003550209204991E9A0C934A43219262191D9256
S2140035600E9A179352422292059A4A432F920A467F
S21400357022994A4330920199019A033102F10302DB
S21400358022F00302B8BF00222E92179B279A93427E
S21400359003DB002037B0BDE8F08F0A9B0E9A002BA5
S2140035A00D9BC8BF002315931E9B13441893159AB2
S2140035B00A9B1344219A53432993159A209B5343FD
S2140035C02A93309B14930E9B1993229B11930023EE
S2140035D0239A16931D9B9342A8BF13463393169BBC
S2140035E0269A93420DDB0F9A0A9B13440A93179B65
S2140035F0013317930D9B9B1A0D931D9B9B1A1D93CE
S214003600C3E7119B149A002B199BC8BF0023109385
S214003610299B109913441A93099A2A9B01FB02339B
S2140036202B930A46409B049901FB0233189A1F9974
S2140036302D938A42A8BF0A4600233292099A9A42DC
S21400364040F33A810C99469A0A442499039201EB76
S214003650830102912B99259A19442C91002102EBA3
S21400366083020AEB83080B91DDE0BAF1000F00F04D
S214003670E980D8E90065D8E9024E2C991B91159986
S2140036800B9812914299DDF868C001443191339944
S21400369012988842C0F2DB800299086820EAE0713E
S2140036A08E4011684FF080474FF0000CC6FB017C3F
S2140036B0FE0F002846EA4C0CD4BF4642002609FA04
S2140036C006F101395CFA06F60CEA01074FEA6101D9
S2140036D048BF01318F420299486820EAE07105FA36
S2140036E001F551684FF080474FF0000CC5FB017C98
S2140036F04FEAD775C8BF0136002845EA4C0CD4BF40
S2140037004542002509FA05F101395CFA05F50CEA8F
S21400371001074FEA610148BF01318F42029988686C
S21400372020EAE07104FA01F491684FF080474FF008
S214003730000CC4FB017C4FEAD774C8BF01350028D3
S21400374044EA4C0CD4BF4442002409FA04F101397F
S2140037505CFA04F40CEA01074FEA610148BF013144
S2140037608F420299D068CF6827EAE77C0EFA0CFCF5
S214003770C8BF01344FF08041002F4FF0000ECCFB45
S214003780001ED4BF7F420027C90F09FA07F041EA9E
S2140037904E0E013806990EEA000C5EFA07FE4FEA56
S2140037A060000E4448BF013007998445C8BF0EF13B
S2140037B0010E8E42B8BF0E4608998E42A8BF0E462E
S2140037C003990E7006990D4407998D42B8BF0D46B1
S2140037D008998D42A8BF0D4603994D7006990C4472
S2140037E007998C42B8BF0C4608998C42A8BF0C4675
S2140037F003998C7006998E4407998E45B8BF8E46FD
S21400380008998E45A8BF8E46039981F803E00B9968
S21400381004310B910399043103910299103110324F
S214003820029108F1100801990B9881423FF71DAFED
S2140038300C9A2E990A440C92019A13441A9A013251
S2140038401A92FBE6D64654465546564615E72D9937
S2140038501B9861441C913199014410981390139859
S214003860329FB84209DB12992098013112911B99B8
S21400387001441B9121998C4409E71C9891F900B0EA
S21400388090F900702898384400FB0B6691F901B057
S214003890049F00FB0B5591F902B000FB0B4491F915
S2140038A003B000FB0BEE1398013013901C983844BD
S2140038B01C9009980144D2E7059A119B1344119372
S2140038C0169B01331693199B9B1A1993189B9B1AE8
S2140038D018932F9A149B1344149380E6ABB2299343
S2140038E0BDF814302A93BDF83C302B93BDF87830E1
S2140038F00993099ABDF810E0A3B2199353430EFB3F
S21400390003F32E93BDF8043015930EFB03F30293D6
S214003910029ABDF898301A9353431C931C9ABDF82C
S2140039209C301B9353432793099B1FFA89F903FB8B
S21400393009F31FFA80F8229308FB0EF33093002356
S214003940059314930E9B5B429BB23593BDF88C3067
S2140039502193BDF87430059A93427FF71AAE299BDF
S2140039605B429BB20D93149B139300230E93BDF8FA
S2140039707C300A932CE0BDF934B0BBF1000FCBF1DC
S2140039800003C8BF00232693359B0C93139B12930A
S21400399000230F93199BA3EB0B032093DDE9202351
S2140039A09342A8BF13463393A9EB0B03013B349312
S2140039B00F9B1A9A93421BDB139B1C9A1344139378
S2140039C00E9B2B9A01330E930D9B13449BB20D93C3
S2140039D00E9B1B9A9342CEDB149B279A1344149398
S2140039E02E9A409B13444093059B01330593B0E702
S2140039F0BDF930300193019A002AC3F10003C8BF15
S214003A0000232393129B11930023CDE90333099BD4
S214003A109B1A1E931E9A0A9B9342A8BF1346329384
S214003A20049B734500F0BC80119A469B1344169382
S214003A30039A6EE02C9B012B79D91E990A98019B5C
S214003A4001EB0804013C94FBF8F484422146A8EB01
S214003A500303A8BF0146013B179193FBF8F323EA43
S214003A60E3732D99012966D9349991FBF9F02099D1
S214003A70219C4944013991FBF9F1A142A8BF214696
S214003A8020EAE0701891BAF1000F58D05AF822C018
S214003A900999019C00FB09B74F430A9908FB0344A8
S214003AA041430B912F94189988424ADB249B53F884
S214003AB0220020EAE0730CFA03FC259B53F8223020
S214003AC000284FF080414FF00004CCFB0314D4BF15
S214003AD0404200200123C90F834041EA4404013BD1
S214003AE004EA030504414FEA630348BF01339D42DD
S214003AF0069BC8BF01341C44079B9C42B8BF1C46AB
S214003B00089B9C42A8BF1C46169B03F8014B01323B
S214003B101693159B03990B449A428BD1119B1599CA
S214003B200B441193049B0133CDE9032378E7329BC2
S214003B301793239B95E7339926981891A3E7D446C5
S214003B40A6E72F9C0B9910933E19049C0EFB064685
S214003B50409C2644029CCD1804FB0525429C254427
S214003B601799109C8C4207DB22990F44DDE90A1452
S214003B700C4401300B9496E796F90010289C2144DB
S214003B800C4695F9001031912146319C04FB01CC7E
S214003B9010990131109130990E4402990D44DFE7D7
S214003BA0129B029A134412930F9B2A9A01330F9387
S214003BB00C9B13449BB20C93FAE68B68C068584380
S214003BC04B685843400070472DE9F04F2DED048BAD
S214003BD0B7B0D3F80C80499EF568A8450C461F463A
S214003BE0459940F0D582036801932BB93846FFF714
S214003BF0E4FF002800F3CF82BB6811937B6828930C
S214003C008B6806934B680F9363692993A3692A937D
S214003C10E3682B9323692C935368169313681793C2
S214003C20B368189373682D9363680793636A089361
S214003C30A36A0993069B2168002D284603FB08F318
S214003C40B8BFE81C1B93C0F38F030F9A1A93069B0A
S214003C5013FB02F4A3B22F93069B534303EBD372DA
S214003C60C2F34F03309304F0010331934FEA480345
S214003C700093043322934FEA88031493189CC0F3EE
S214003C808F03980005F00305249024EAE47405EBFE
S214003C90830060432390119800FB08F03490489806
S214003CA000EB03102190169800EB03103390179842
S214003CB000EB031332931A9B9B009BB21E93ABB28E
S214003CC02E931E9B1D44ABB22793C2F34F03149A48
S214003CD05A431D92009A53431C93069B23EAE373B0
S214003CE008FB03F3259300230C930BB209EE103A5E
S214003CF00C9B2D9A934205DB002037B0BDEC048B5D
S214003D00BDE8F08F2C9A0C9B0F9913FB02F32A9AAE
S214003D109B1A1BB2002BC3F10002C8BF00220592FB
S214003D20289AD21A8A42A8BF0A4619921B99059A5F
S214003D3019984A43510008EE101A0F99091A1B9851
S214003D4015914143490008EE901A0599002908BFCD
S214003D5000222692119A0B44534335934A9B1093A4
S214003D6000230D930D9B189A934207DB4A9B239AD8
S214003D7013444A930C9B01330C93B9E70D9B2B9A83
S214003D8013FB02F4299BE41A059B24B22BB118EE10
S214003D90102A019800210AF04FF8359BDDF814A090
S214003DA0269F1D19449B08FB0535199B9A4536DB53
S214003DB0159B3BB1019B18EE902A002103EB4700B0
S214003DC00AF03AF8489B03F11006179B03F1100916
S214003DD0169B03F1100E109B03F1040C1A9B0A931A
S214003DE000230B930A9B002B3FD1249A109B13446D
S214003DF01D461F46DDE932EC219B02931E9A0A9B64
S214003E0003934FF0804B4FF00109279B9A4240F0F6
S214003E1077812E9BEB1810930D9B0133A1E7019B36
S214003E20AB4603EB47090026069B9E4206DB259B16
S214003E301F44349B0AF1010A1D44B6E7331902D425
S214003E40119A9A4209DC009A0021484609F0F4FFCC
S214003E50009B01369944C344E6E719EE103A424601
S214003E604946584600F002FFF2E756E9044302933B
S214003E7056F8083C039356F8043C0B9A0493019BAF
S214003E80309D03EB42031293469B12981344139300
S214003E90134604339BB20B93139B0E93002D40F0F6
S214003EA0EB801D9A129B1C991344139A0A4431996D
S214003EB0E1B11C9813991D9D09561298405B029D0E
S214003EC010FB0144588892F9011010FB0151029131
S214003ED0988892F90210039D92F90320DB8810FB64
S214003EE001510391049913FB021304935EF8101C0E
S214003EF021EAE1739C4059F8103C00294FF08042BB
S214003F004FF00000C4FB0320D4BF49420021012328
S214003F10D20F8B4042EA4000013B00EA030408410E
S214003F204FEA630348BF01339C42079BC8BF01307A
S214003F301844089B9842B8BF1846099B9842A8BFE9
S214003F4018460CF8040C5EF80C1C029B21EAE17083
S214003F508340184659F80C3C00294FF080424FF039
S214003F600004C0FB0324D4BF494200210123D20F22
S214003F708B4042EA4404013B04EA03000C414FEA4A
S214003F80630348BF01339842079BC8BF01341C44F3
S214003F90089B9C42B8BF1C46099B9C42A8BF1C4677
S214003FA00CF8034C5EF8081C039B21EAE170834082
S214003FB0184659F8083C00294FF080424FF000049C
S214003FC0C0FB0324D4BF494200210123D20F8B40FB
S214003FD042EA4404013B04EA03000C414FEA63034F
S214003FE048BF01339842079BC8BF01341C44089B56
S214003FF09C42B8BF1C46099B9C42A8BF1C460CF8B6
S214004000024C5EF8041C049B21EAE17083401846CB
S21400401059F8043C00294FF080424FF00004C0FBE2
S2140040200324D4BF494200210123D20F8B4042EA29
S2140040304404013B04EA03000C414FEA630348BF13
S21400404001339842079BC8BF01341C44089B9C421E
S214004050B8BF1C46099B9C42A8BF1C460A9B0CF88E
S214004060014C013B9BB20A93103609F110090EF180
S214004070100E0CF1040CB5E60E9B009A196853F866
S2140040800830D0F800B017582FFA81F2C7EA0B4A6A
S2140040904FEA3121C7EA2B472FFA81F11F912FFAF9
S2140040A083F14FEA332320912FFA83F3C1EA024BC0
S2140040B02AFB0B441F99C1EA034A029927FB0A11FF
S2140040C002912299D0F804A00F582099C7EA0A4B0B
S2140040D0C2EA2142C7EA2A4703992BFB021203923F
S2140040E01F9AC3EA2243049A27FB0323009A0493E9
S2140040F00E9B13440E93149B013D1844ADB2CDE6BF
S21400410013464698029AC41852F8041B0198029265
S2140041105A1C92B200EB430300202F9E86422DDCF1
S2140041205CF8040B5EF8044B039E20EAE0739940AB
S21400413000285B46C1FB0436D4BF40420020DB0F9C
S21400414009FA00F143EA460A01390AEA01045AFA72
S21400415000FA4FEA610148BF0131079B8C42C8BF95
S2140041600AF1010A9A44089B9A45B8BF9A46099BE9
S2140041709A45A8BF9A4607F801AB46E61E8894F90A
S21400418000A016FB0A11009E013044443344C4E7E5
S2140041906FF00200B1E54FF0FF30AEE52DE9F74FC6
S2140041A00E9D01958D680093012DDDE90C76DDE905
S2140041B00FBADDE9119884460C4696462AD11D684A
S2140041C0012D27D1CD69012D24D10D6A012D21D1D4
S2140041D0B568032D0DD17568032D0AD18D69012DA3
S2140041E007DC4D69012D04DC03B0BDE8F04FFEF797
S2140041F0CEBE019B0C97CDE90D63009B724621460F
S2140042006046CDE91198CDE90FBA03B0BDE8F04F8E
S214004210FFF7DABC019B0C97CDE90D63009B724655
S21400422021466046CDE91198CDE90FBA03B0BDE846
S214004230F04FFFF743B910B404460846DB68114652
S214004240C2689A420CD10368012B09D1E369012B9D
S21400425006D1236A012B03D15DF8044BFFF7ADBCF2
S21400426000205DF8044B70472DE9F04F8BB0DDE978
S2140042701479DDE919A81D680C4616464FF0000BA8
S2140042801DB928460BB0BDE8F08F23690893E36894
S2140042900793DAF80C300693D9F800300593736864
S2140042A0049333680393A368189A1699CDE901B36B
S2140042B0236800933846434600F08DFBD9F800305B
S2140042C01F44DAF80C30013D9844D9E700207047C7
S2140042D02DE9F04F9BB00E93269B09925B1011932D
S2140042E0289B279A12915B001093119B0C905343C6
S2140042F00E9A02EB4303289A0A93289B002A23F07F
S2140043000F03B8BF002308931346089A08999B1A10
S214004310289A8A42B8BF002313441693279B5B0053
S2140043201493129B00930423059300230193279B69
S214004330013B1893A2F10F031393019A0E9B1344AB
S2140043400793189B934240F3CD82009B00985A1E19
S21400435000231946C0F1010005E012F9014F21447F
S214004360289C14572344289D8418AC42F5DB299AD0
S2140043704A430292299A53430393099B5BB1019ADD
S21400438053F82230029A1A440292099B059A9B58C7
S214004390039A1A440392089B009A013BD3180B9386
S2140043A00C9B0493119B0693279B01331993069B42
S2140043B0002B00F09081289A009BDDE902B99E1838
S2140043C0049B4F469D185B460022A3E00099885840
S2140043D004992FFA80FE8C5831682FFA84F82FFA49
S2140043E090F02FFA94F428FB0E3C2FFA81F30F93EB
S2140043F024FB00C317932FFA91FC0F9928FB017733
S21400440024FB0C7429682FFA81F82FFA91F728FB01
S2140044100EBE0F9928FB019127FB00E0DAF8048016
S21400442027FB0C110D9BD6F804E0D3F804902FFA66
S21400443088F72FFA89FC2FFA98F82FFA99F9179B24
S2140044402CFB07332FFA8EFB29FB08332FFA9EFE30
S2140044502CFB0B4429FB0E496C682FFA84FC2FFAC0
S21400446094F42CFB07002CFB0B1124FB0808DAF84D
S21400447008B024FB0E1E0D98D6F808C080682FFAE8
S2140044808BF12FFA80F42FFA9BFB2FFA90F024FB87
S21400449001332FFA8CF720FB0B332FFA9CFC24FBFE
S2140044A0079920FB0C90D5F808902FFA89F42FFA7C
S2140044B099F924FB018824FB07E429FB0B8BDAF827
S2140044C00CE029FB0C4C0D9CF168E7682FFA8EF87F
S2140044D02FFA87FA2FFA9EFE2FFA97F42AFB083354
S2140044E02FFA81F924FB0E332FFA91F12AFB0900EB
S2140044F024FB0107ED682FFA85F42FFA95F524FBC7
S21400450008BB24FB09CC25FB0EBB25FB01C9159D6A
S21400451010321036049911440D91009901EB020AED
S21400452005F110011591139991423FF74FAF089985
S214004530049A0B980A441446511E089A289DAA42CB
S214004540C0F2B780169A0199A2180492249A52F8DB
S21400455021200D92259A0D9852F8215025EAE57EE5
S214004560002D03FA0EF34FF080424FF00001C3FB1C
S2140045700021D8BF6D424FF00103C8BF002503FAE3
S21400458005FAD20F0AF1FF3A42EA41024AFA03FC60
S21400459002EA0A012A414CBF6344634699420599E0
S2140045A0249B5B580F93259B0F9E5C5824EAE4716E
S2140045B007FA01F74FF080434FF00000C7FB0630C4
S2140045C0C8BF0132DB0F002C43EA4003D8BF644269
S2140045D04FF00100C8BF002400FA04F6013E46FA78
S2140045E000F703EA060823414CBF381838468045D2
S2140045F00D980BFA0EFE4FF000084FF0804BCEFBE6
S21400460000B858464FEAD07040EA4800C8BF0133A9
S21400461000EA0A0A284148BF0CF1010C0F9DE2454A
S21400462009FA01F14FF0804E4FF0000CC1FB05EC8B
S21400463075464FEAD57545EA4C05C8BF013055FAB0
S21400464004F406EA050648BF01372A99BE42C8BFE9
S21400465001340A440B4408440C442B998A42B8BFE0
S2140046600A468B42B8BF0B468842B8BF08468C4203
S214004670B8BF0C462C998A42A8BF0A4607990A700A
S2140046802C9A9342A8BF13464B702C9B279A9842AD
S214004690A8BF18462C9B88549C42199AA8BF1C4653
S2140046A08C54149A0B4613440793069B013B0693BF
S2140046B07DE610F901CF289D465711F9015F15FBDD
S2140046C00C3315FB0677289D4D5701321CFB05BBA6
S2140046D016FB059932E7269BD80779D5009B289AC2
S2140046E09818069B049AD618009AD518139A9A42D8
S2140046F07CDC089A049B1344049A514228985A1862
S214004700904200F3DD80259B019A019953F8222000
S214004710029B22EAE274A3401C46249B53F82130F5
S2140047204FF080400025C4FB0305C10F002A41EA74
S21400473045054FF00103D4BF514200218B40013B99
S21400474055FA01F105EA03004FEA630348BF013357
S2140047509842059A259B9C58039B24EAE47003FA2A
S21400476000F31846249B9B58C8BF01314FF0804287
S214004770002C4FF00005C0FB0325DCBF6342069308
S214004780D20F069B42EA4505012202FA03F3013BDB
S21400479005EA03001341069A154148BF01339842C3
S2140047A02A9BC8BF013519441D442B9B9942B8BFAC
S2140047B019469D42B8BF1D462C9B9942A8BF194674
S2140047C00A9B19702C9B9D42A8BF1D460A9B5D70D4
S2140047D0009B109A13440093019B023301930A9B9B
S2140047E002330A93059B08330593A6E5009A0168F1
S2140047F0D758049A2FFA87F8D2582FFA81FE2FFA44
S21400480082FC2FFA97F72FFA92F22FFA91F1029C78
S2140048102CFB084822FB0787039C2CFB0E4C22FB34
S21400482001C16C68D0F804C072682FFA84F92FFAB8
S21400483082FE2FFA8CF82FFA94F42FFA92F22FFABF
S2140048409CFC2EFB097722FB04742EFB081122FB2E
S2140048500C12D5F80880D0F808E0D6F808C02FFA71
S21400486088F72FFA8CF12FFA8EF92FFA98F82FFA8C
S2140048709CFC2FFA9EFE21FB07442CFB084821FBDC
S21400488009222CFB0E2EEA68D0F80CA0F5682FFA49
S21400489082F42FFA85FC2FFA8AF12FFA92F22FFA79
S2140048A095F52FFA9AFA2CFB048825FB02820292D1
S2140048B02CFB01EE25FB0AE203921033103011E7C1
S2140048C00B9C13F9012B14F9010F0B94029C12FB9D
S2140048D000400290289C0B980057039C12FB004255
S2140048E003920BE7279B1098002B4FEA5302129B6C
S2140048F0ACBF1146002100FB013300930E9B4FEA2C
S2140049004202B8BF002213441A46279BD90717D580
S21400491003F18044099B013C03EB840B249B03EBCF
S2140049208400259B03EB8404289B002723EAE37E70
S2140049304FF0804CB8464FF00109269B9F4203DBA0
S21400494000201BB0BDE8F08F099B002B37D0DBF8AA
S2140049500050002328998B4233DB0C9B21680668A5
S21400496073440C9321EAE1739D4000296346C246D6
S214004970C5FB063AD4BF49420021DB0F09FA01F510
S21400498043EA4A0A013D0AEA05065AFA01FA4FEADC
S214004990650548BF01352A9BAE42C8BF0AF1010A29
S2140049A09A442B9B9A45B8BF9A462C9B9A45A8BF1B
S2140049B09A46279B82F800A001371A44BDE7099D56
S2140049C0C7E70C99299EC9563144009EF656013316
S2140049D006FB0155BEE72DE9F04F93B081460691E0
S2140049E00D93DDE9213101EBD171491008911C9935
S2140049F0069E002B09B2C1EA014B1946B8BFD91C66
S214004A008810009058000790209821F0030A2099FB
S214004A100028C1F10001C8BF0021039103980121BD
S214004A2081400139049149100591013109910D9990
S214004A3002310191069901EB0A0509EB0A010C9176
S214004A4000210291C9F100011191209921EAE1713A
S214004A500F910299089881424BDB20EAE076DDE967
S214004A60061006FB00112298C0073ED502B1126858
S214004A708C460098002840F0DC800C9D5144AAEB40
S214004A8005002F18BB4200F3E880209B1F9C23EAFA
S214004A90E3739A404FF080410023C2FB0413209A30
S214004AA0002ADCBF524200921846CB0F0099012222
S214004AB043EA40038A400098013A53FA00F403EAB6
S214004AC002014FEA620248BF01321E9B9142C8BFF4
S214004AD001341C44239B9C42B8BF1C46249B9C422A
S214004AE0A8BF1C460D9B03F81640002013B0BDE877
S214004AF0F08F002A6AD01746516857F8080B3A46D6
S214004B00F7180B97079FDDF800E0CDF82890F71907
S214004B101097BEF1000F5CD105EB030C0C9FE64628
S214004B20119C3E19B34277DC0F9CA0401F9C4FF0AF
S214004B3080460025C0FB0465F00F049C059E40EAF5
S214004B40450000EA0405039C2041099C48BF264610
S214004B500F9CB54201FA04F61F9C4FF080414FF0BF
S214004B600005C6FB04154FEAD171049C059E41EA78
S214004B70450101EA0405039CC8BF01302141099C98
S214004B8048BF2646B5421E9C109EC8BF0131204431
S214004B902144239CA042B8BF2046A142B8BF21466C
S214004BA0249CA042A8BF2046019C04F8020C24982E
S214004BB08142A8BF014604F8011C02990131029106
S214004BC021460231019103EB0C0542E711461046DF
S214004BD096E70A9C54F8047B0A942BFA97F456F846
S214004BE004CB0E942BFA87F72FFA9CF82FFA8CFC3E
S214004BF028FB04002CFB07000B9C54F804CB0B94FA
S214004C002FFA9CF80E9C2FFA8CFC28FB04112CFB28
S214004C1007110EF1FF3E7CE717F9016B1C9C15F996
S214004C20018B264406FB08001EF9018B06FB0811C3
S214004C3076E759F8045B2BFA95FE5CF8040B2BFA22
S214004C4085F52FFA90F72FFA80F027FB0E2220FB2F
S214004C5005220098013800900BE715F9017B1C9C93
S214004C6011F901CB274407FB0C220AE72DE9F04196
S214004C70C3EA034C22F003044FEA920E04440E46A5
S214004C80A04208D102F0030201EBCE012244944276
S214004C9013D1BDE8F08150F8045B08364FEA35279B
S214004CA02CFA85F52CFA87F7C7EA2548C5EA0745A2
S214004CB046F8048C46F8085CE2E714F9010B184441
S214004CC021F8020BE3E700002DE9F04F91B04FF01A
S214004CD0000B03929DF870200A900C9101930D92A0
S214004CE0CDF818B00A9B0C9A5B440593069B93423A
S214004CF002DB11B0BDE8F08F0A9A12F90B2002927F
S214004D00012203998A42C0F281810025DFF81483CC
S214004D10AE46039B9E45C0F28781002D00F0E482DC
S214004D20B5FA85F7BD4005F100456FF00042E8177B
S214004D30AD1840F10000B0F1FF3F08BFB5F1FF3FEE
S214004D400BBF2A46012201460021AA1840EB0101AA
S214004D50CD0FAA1841F10001520842EAC172B048CC
S214004D60B04C531C4FEA6101C2F1000500FB01552F
S214004D7008BF4FF08044A2FB000C0CBF00264FF08B
S214004D80FF366544001945EB0605002D04DA6FF082
S214004D900044001945F10005C00F40EA450000F147
S214004DA05A30551C9F4E4FEAE07400FB01F502FB9B
S214004DB0045518BF4FF08046A0FB024814BF4FF0C2
S214004DC0000E4FF0FF3E4544A41945EB0E05002D9E
S214004DD04FEAD27C04DA6FF00046A41945F10005CC
S214004DE0E40F44EA4504C4F10054002C8D4DA6BFE0
S214004DF000264FF080454FF0FF36C0FB0456002ECD
S214004E0004DA6FF000442D1946F10006ED0F45EA6E
S214004E104605B5F1604FCBBF4FF0FF3600264FF08A
S214004E20000E4FF0004E06EA850585EA0E052C18A2
S214004E304FEAD47EF4457B4E4FEAE47004FB01F55E
S214004E4002FB005508BF4FF08046A4FB02090CBFCA
S214004E504FF000084FF0FF384D44801945EB080529
S214004E60002D04DA6FF00046801945F10005C00FEA
S214004E7040EA4500C0F100506A4DBEEBD07F13BF3C
S214004E80AE464FF0804E00254FF0FF35C4FB00E5E0
S214004E902E46002E754604DA6FF000402D1846F1B7
S214004EA00006ED0F45EA4605B5F1005FABBF0020F2
S214004EB04FF0FF306FF00046002600EA8500B5F19F
S214004EC0604F80EA0600D5BF00264FF0FF364FF051
S214004ED000450025304068400444E50FAC45514885
S214004EE04FEAE47C04FB01F102FB0C1108BF4FF013
S214004EF08040A4FB022C0CBF00264FF0FF36614416
S214004F00121841EB0601002904DA6FF0004012186F
S214004F1041F10001D20F42EA4102C2F10052B5EB64
S214004F20D27F404906BF00204FF080414FF0FF304F
S214004F30C4FB0210002804DA6FF00042891840F122
S214004F400000C90F41EA4000B0F1005FB5BF4FF066
S214004F50FF32002200216FF0004102EA8002B0F129
S214004F60604F82EA0102D5BF00204FF0FF304FF0BD
S214004F7000410021104048400444B4F1804FABBFCC
S214004F8000224FF0FF326FF00041002102EA440297
S214004F90B4F1404F82EA0102D5BF00204FF0FF3047
S214004FA04FF000410021024082EA010304930D9B6A
S214004FB0002B00F03D831D9BDFF868E003EB4B03FE
S214004FC00993C7F11B030793049B002BB8BF154931
S214004FD0079BB2BF4FF0FF3200224FF08041CDE971
S214004FE00E1201229A40531E4FEA6308089308F1F6
S214004FF001030B934FF0000C039B9C45C0F2888185
S214005000069A039B013206929B446BE6059902982A
S21400501089568842B8BF08460290013271E600BF42
S214005020C4C3C3C3010000C0059A12F90E00029A59
S214005030801A1B9A824200F354811A9A019B904070
S214005040C20FB2EBD37F0BBF4FF080414146002228
S2140050504FF0FF32C0FB0312002A144604DA6FF04A
S2140050600042891844F10004019BCA0F984242EAA4
S214005070440204D1B3F1004F08BF6FF0004242F083
S2140050807F4CACEB02064FEA4C1C0CF1805C4FF0F8
S21400509080410024CCFB0C14002C4FEAEC7704DA99
S2140050A06FF00040091844F10004C90F41EA4401BA
S2140050B0A1FB0109E41710F1804001FB04FA49EB5B
S2140050C04A09B9F1000F05DA6FF0004A10EB0A0042
S2140050D049F10009C00F40EA490000F003098010BA
S2140050E054BF4FF0010A4FF0020AD1454FEAD1797A
S2140050F0C8BF01300CFB04F4B9EBDC7F01FB0744AE
S21400510008BF4FF08049ACFB017316BFC1464FF095
S214005110000A4FF0FF3A1C4417EB090744EB0A0459
S214005120002C05DA6FF0004917EB090744F100047C
S214005130FF0F47EA4407384400286D4BABBF4FF0DB
S2140051408044444600274FF0FF37C0FB0347002F3C
S21400515004DA6FF00040241847F10007E40F44EA31
S21400516047040C44611002D4E00748BF01318C4468
S214005170BCF1000F5F4BABBF4FF0804444460021AC
S2140051804FF0FF31CCFB0341002904DA6FF00040FA
S214005190241841F10001E40F44EA410404F1E2441A
S2140051A04FF080410020544BA4F52524A4F26C74E3
S2140051B08C468246C4FB03CAC6F300674FEADC7C13
S2140051C04CEA4A0C46F30069013F09EA0C094B4BCE
S2140051D03C4089EA04048C460746C4FB03C7C6F372
S2140051E0406A4FEADC7C4CEA470C46F340690AF119
S2140051F0FF3A0AEA040A424B09EA0C0989EA0A0954
S2140052000F460446C9FB0374C6F3806AFF0F47EADD
S214005210440746F3806C0AF1FF3A0AEA090A394B5A
S2140052200CEA070C8CEA0A0C0C468246CCFB034AB6
S214005230C6F3C069E40F44EA4A0446F3C06709F1BE
S214005240FF3909EA0C0927402F4B87EA09078246EF
S2140052508946C7FB039AC6F3007C4FEAD97949EA28
S2140052604A0946F300740CF1FF3C0CEA070C04EA0A
S2140052700904DFF8989084EA0C0482468C46C4FB46
S21400528009CAC6F340774FEADC7C4CEA4A0C46F380
S2140052904079013F274009EA0C0C8CEA070CF224FF
S2140052A0CCFB0410C6F3807AC90F41EA400146F3EE
S2140052B080760AF1FF3AB2FA82F20AEA0C0A52093A
S2140052C0314081EA0A01501E524222F0004A014053
S2140052D081EA0A0A4FEA2A321AF4006F18BF01322E
S2140052E015440EF1010E14E520274FF000451CE58D
S2140052F0ABAAAA2A94A8F5707BBEAF63F2CBA24DE8
S2140053006CAC162FA4AA5211B72A580211FE0A0036
S214005310059B13F90C00029BC01A1B9B834200F3EB
S21400532071811A9B9840019BC20FB2EBD37F0BBFD3
S2140053304FF08042724600214FF0FF31C0FB032140
S21400534000290C4604DA6FF00041521844F10004BC
S214005350019BD10F984241EA440104D1B3F1004FBA
S21400536008BF6FF0004141F07F477A1A7F0107F1CE
S21400537080574FF080400025C7FB0705002D4FEAF9
S214005380E77604DA6FF00044001945F10005C00F17
S21400539040EA4500A0FB0049ED1714F1804400FBED
S2140053A005FA49EB4A09B9F1000F05DA6FF0004A31
S2140053B014EB0A0449F10009E40F44EA490404F036
S2140053C00309A41054BF4FF0010A4FF0020AD1455A
S2140053D04FEAD079C8BF01347D43B9EBD77F00FBD5
S2140053E0065508BF4FF08049A7FB006316BFF1467D
S2140053F04FF0000A4FF0FF3A1D4416EB090645EB46
S2140054000A05002D05DA6FF0004916EB090645F18E
S2140054100005F60F46EA45063444002C7B4BABBF2E
S2140054204FF08045754600264FF0FF36C4FB035606
S214005430002E04DA6FF000442D1946F10006ED0F39
S21400544045EA46050544681002D4EC0748BF01301B
S2140054500744002F6E4BABBF4FF0804575460020CB
S2140054604FF0FF30C7FB0350002804DA6FF000440B
S2140054702D1940F10000ED0F45EA400505F1E24523
S2140054804FF080400024634BA5F52525A5F26C75EA
S2140054900746A246C5FB037AC2F30066FF0F47EA3B
S2140054A04A0742F30069013E09EA07095A4B3540AC
S2140054B089EA050507462646C5FB0376C2F3406A19
S2140054C0FF0F47EA460742F340690AF1FF3A0AEA45
S2140054D0050A524B09EA070989EA0A0906462546DB
S2140054E0C9FB0365C2F3806AF60F46EA450642F337
S2140054F080670AF1FF3A0AEA090A494B374087EA09
S2140055000A070546A246C7FB035AC2F3C069ED0F59
S21400551045EA4A0542F3C06609F1FF3909EA070978
S214005520404B2E4086EA0906A2468146C6FB039AF1
S214005530C2F300774FEAD97949EA4A0942F300757F
S214005540013F374005EA0905DFF8E0907D40A246B6
S2140055500746C5FB097AC2F34076FF0F47EA4A07BB
S21400556042F34079013E2E4009EA07077740F225CC
S214005570C7FB0504C2F3807AC00F40EA440042F33A
S21400558080720AF1FF3AB1FA81F1104049090AEA3D
S21400559007074C1E78404942204021F00044DDE9D0
S2140055A00E3144400498C0FB043100290D461A46CB
S2140055B004DA6FF000415A1845F10005089BD20F37
S2140055C042EA450203EA0201079B1A410B9B54BFBD
S2140055D0404618468142C8BF0132A2F5004212F585
S2140055E0004F0ADD47F6FE718A4208DC12B2099BBC
S2140055F023F81C200CF1010CFEE40B4AF7E747F6F3
S214005600FF72F4E74FF40042F1E700BFABAAAA2A04
S21400561094A8F5707BBEAF63F2CBA24D6CAC162F90
S214005620A4AA5211B72A58020080FFFF11FE0A00F2
S2140056301D9BDFF838E35B440993C7F12303079308
S214005640049B002BB8BFC949079BB2BF4FF0FF327F
S21400565000224FF08041CDE90E1201229A40531EDF
S2140056604FEA6308089308F101030B934FF0000C10
S214005670039B9C45BFF6C4AC059B13F90C00029B2C
S214005680C01A1B9B9842C0F26E811A9B9840019BE1
S214005690C20FB2EBD37F0BBF4FF0804272460021A1
S2140056A04FF0FF31C0FB032100290C4604DA6FF0EF
S2140056B00041521844F10004019BD10F984241EA80
S2140056C0440104D1B3F1004F08BF6FF0004141F030
S2140056D07F477A1A7F0107F180574FF080400025F8
S2140056E0C7FB0705002D4FEAE77604DA6FF00044A3
S2140056F0001945F10005C00F40EA4500A0FB00492F
S214005700ED1714F1804400FB05FA49EB4A09B9F19C
S214005710000F05DA6FF0004A14EB0A0449F100099D
S214005720E40F44EA490404F00309A41054BF4FF000
S214005730010A4FF0020AD1454FEAD079C8BF0134BA
S2140057407D43B9EBD77F00FB065508BF4FF0804975
S214005750A7FB006316BFF1464FF0000A4FF0FF3A72
S2140057601D4416EB090645EB0A05002D05DA6FF019
S214005770004916EB090645F10005F60F46EA450610
S2140057803444002C7A4BABBF4FF08045754600265C
S2140057904FF0FF36C4FB0356002E04DA6FF00044C9
S2140057A02D1946F10006ED0F45EA4605054468103A
S2140057B002D4EB0748BF01300744002F6D4BABBF48
S2140057C04FF08045754600204FF0FF30C7FB035072
S2140057D0002804DA6FF000442D1940F10000ED0FA8
S2140057E045EA400505F1E2454FF080400024624B53
S2140057F0A5F52525A5F26C750746A246C5FB037AD6
S214005800C2F30066FF0F47EA4A0742F30069013E0B
S21400581009EA0709594B354089EA05050746264631
S214005820C5FB0376C2F3406AFF0F47EA460742F31A
S21400583040690AF1FF3A0AEA050A514B09EA0709E4
S21400584089EA0A0906462546C9FB0365C2F3806A4B
S214005850F60F46EA450642F380670AF1FF3A0AEA7F
S214005860090A484B374087EA0A070546A246C7FB9F
S214005870035AC2F3C069ED0F45EA4A0542F3C06613
S21400588009F1FF3909EA07093F4B2E4086EA090667
S214005890A2468146C6FB039AC2F300774FEAD9793F
S2140058A049EA4A0942F30075013F374005EA09050F
S2140058B0DFF8D8907D40A2460746C5FB097AC2F3BA
